:1000000000000320D1010000517E0100097E0100A3
:10001000097E0100097E0100097E0100097E0100C0
:10002000097E0100097E0100097E0100517E010068
:10003000517E0100097E0100599901005D9A01007D
:10004000517E0100517E0100517E0100517E010070
:10005000517E0100517E0100517E0100517E010060
:10006000517E0100517E0100517E0100517E010050
:10007000517E0100517E0100517E0100517E010040
:10008000517E0100517E0100517E0100517E010030
:10009000517E0100517E0100517E0100517E010020
:1000A000512701005D270100517E0100517E0100B2
:1000B000517E0100517E0100517E0100A59A010090
:1000C000517E0100D19B0100517E0100FD9C010089
:1000D000517E0100F59D0100517E0100517E01001D
:1000E000517E0100517E0100517E0100517E0100D0
:1000F000517E0100517E0100517E0100517E0100C0
:10010000517E0100517E0100517E0100517E0100AF
:10011000517E010059880100517E0100517E01008D
:10012000517E0100517E0100517E0100517E01008F
:10013000517E0100517E0100517E0100517E01007F
:100140003D710100517E0100ED9E0100517E0100D4
:10015000517E0100517E0100517E0100517E01005F
:10016000517E0100517E010069270100517E01008E
:10017000517E0100517E0100517E0100517E01003F
:10018000517E0100517E0100517E0100517E01002F
:10019000517E0100517E0100E59F0100517E01006A
:1001A000517E0100517E0100517E0100517E01000F
:1001B000517E0100517E0100517E0100517E0100FF
:1001C000517E0100517E0100517E0100517E0100EF
:1001D0005C4B4CF2205210B51A804DF628121A8052
:1001E00000BF00BF17F038FE574B4FF030621A6067
:1001F000564A9A60564ADA60564B4FF470021A60BB
:10020000554B564A1A60564B1A78110703D51A787F
:1002100042F008021A70534B5349AA221A70534AEB
:10022000534B8B4204D252F8040F43F8040BF8E707
:10023000504B514900228B4202D243F8042BFAE77B
:100240004E494F4A002352F8230041F8230001335E
:10025000742BF8D14B4B4C4A802103F8011B93427D
:10026000FBD14A4B454A1A60494B8A221A70A3F5C2
:10027000805324225A70A0221A709A799207FCD5D2
:100280009A79D406FCD4434A937903F00C03082BE3
:10029000FAD1414B60221A7002331A78802AFCD1BD
:1002A0003C4B01221A715D225A719A799006FCD555
:1002B0009979384A4906FBD5384B394919600021EC
:1002C000596020231370937903F00C030C2BFAD19F
:1002D000344B354A1A60354A354C136813F4807331
:1002E00003D123604FF4A8531360324B324A1A6093
:1002F00000225A60072243F8042C304AC3F80C2D20
:1003000062B618F019F92368DA0705D52C4818F0F9
:100310004BF82C4B2C4A1A602C4B1B785B0609D5EA
:10032000284C294B22689A4204D1254818F03CF801
:10033000002323601DF042FE17F094FD17F0C2FC6D
:10034000FEE700BF0E20054030800440823F0400DD
:100350000100002B88ED00E0002008E0030000858C
:1003600002D0074000E00740C07BFF1F0092020060
:10037000306FFF1FC07BFF1FB4980020006AFF1F73
:100380000000000000E400E064E400E008ED00E0AC
:10039000005006400040064001E007404480044011
:1003A0000000060204800440C010070010D0034083
:1003B00014D0034014E000E01FBF02000000202022
:1003C0000CE0A95E1CE00340A5C3945A00F007406E
:1003D000FFFFFFFFFFFFFFFFFFFFFFFFFFFFFFFF2D
:1003E000FFFFFFFFFFFFFFFFFFFFFFFFFFFFFFFF1D
:1003F000FFFFFFFFFFFFFFFFFFFFFFFFFFFFFFFF0D
:10040000FFFFFFFFFFFFFFFFFFFFFFFFDEF9FFFF23
:1004100010B5054C237833B9044B13B10448AFF33E
:1004200000800123237010BDC07BFF1F000000006F
:10043000FC910200084B10B51BB108490848AFF306
:1004400000800848036803B910BD074B002BFBD0A0
:10045000BDE81040184700BF00000000C47BFF1F2C
:10046000FC910200C07BFF1F0000000010B5242299
:10047000044600211EF042F9002384F8243084F859
:100480002530204610BD00BFF8B5074690F824007F
:100490000D461646E0B13A46002404E00134844299
:1004A00002F1030212D01178A942F7D19178994252
:1004B000F4D104EB44043C446670A370062D5ED86E
:1004C000DFE805F031161D242B1031000A2C2BDC3F
:1004D00000EB40017A18013087F824007D545670F3
:1004E0009370EBE72E492F48BDE8F84001F070B853
:1004F00032462D492B48BDE8F84001F08BBE32460C
:100500002A492848BDE8F84001F084BE324628490F
:100510002448BDE8F84001F07DBE26492148BDE8E9
:10052000F84001F055B8F8BD23491E4800F0F6FE2A
:100530000421224819F03AF82146214816F04EFFCE
:100540001721204819F032F800230A2297F82410C6
:100550001B4816F003FF10211B4819F027F80C2147
:10056000174816F03BFF0B21184819F01FF82946D1
:10057000134816F033FF124816F0E0FE9EE71449C8
:10058000084800F0CBFE1521124819F00FF8294653
:100590000B4816F023FF0A48BDE8F84016F0CEBE1F
:1005A000644502004C2E0020244502003445020020
:1005B0004045020050450200D0440200E4440200DD
:1005C0001871FF1FEC4402000445020018450200A8
:1005D000744502008845020038B590F825300B2B91
:1005E000044627D91F49204800F098FE17211F48CC
:1005F00018F0DCFF00230A2294F825101C4816F09E
:10060000ADFE17211B4818F0D1FF00230A2294F8F1
:100610002410174816F0A2FE1021174818F0C6FF44
:100620000C21134816F0DAFE0025114816F086FE5C
:10063000284638BD03EB430317210C48E55C18F04E
:10064000B5FF00230A2294F82510094816F086FE0B
:100650000B210A4818F0AAFF2946054816F0BEFEED
:10066000284638BDB84502004C2E0020A0450200A7
:100670001871FF1FEC4402000445020018450200F7
:1006800090F825300B2B04D803EB43031844407833
:10069000704710B513490446134800F03FFE172178
:1006A000124818F083FF00230A2294F825101048FE
:1006B00016F054FE17210F4818F078FF00230A2285
:1006C00094F824100A4816F049FE10210A4818F040
:1006D0006DFF0C21064816F081FE054816F02EFE2F
:1006E000002010BDCC4502004C2E0020A045020089
:1006F0001871FF1FEC4402000445020090F82530F9
:100700000B2B04D803EB430318448078704710B5D3
:1007100013490446134800F001FE1721124818F04F
:1007200045FF00230A2294F82510104816F016FE03
:1007300017210F4818F03AFF00230A2294F82410DA
:100740000A4816F00BFE10210A4818F02FFF0C2162
:10075000064816F043FE054816F0F0FD002010BDD7
:10076000E04502004C2E0020A04502001871FF1F3A
:10077000EC4402000445020090F825300133DBB25E
:100780000B2B80F825308CBF00200120704700BF64
:10079000002380F8253070470022134680F824207B
:1007A00080F82520C2540333242BFBD1704700BFAF
:1007B000FFF7F2BF70B5044615460E460846022103
:1007C00017F018FE2846022117F014FE104A114BAC
:1007D00052F83610012001F500762072266052F89A
:1007E0003520607202F5007500206560E060013B15
:1007F000FDD191F8003292F8002203F00103D207F4
:1008000044BF43F00203DBB2A372204670BD00BFB9
:10081000C4860200C0D4010090F810322DE9F047E0
:100820000746002B7CD1DFF80C82794AD8F800000B
:10083000D468784D784E92F809E092E80A0091F871
:10084000009093F800C0117A714B1CEA0E0F09EA70
:1008500001015DD09B7A03F0030309B143F0040367
:1008600043F008039910013B91720D2B0AD8DFE881
:1008700003F075077207096F75756F0907720775C1
:10088000013CD460A04219D0DFF89891DFF890A124
:10089000D9F80030002C2246B8BFE21C92109A42D0
:1008A000CAF8002008D04FF47A715C480DF05EFE63
:1008B000DAF80030C9F80030C8F800402B686968E1
:1008C0001A78687A0C782B7A5249044202EA0302B9
:1008D00016D08B7A03F003030AB143F0040343F00C
:1008E00008039A10013BAA720D2B00F28180DFE809
:1008F00003F07B7766777F387B7B387F7766777B03
:100900008B7A03F00303002AEBD043F00403E8E7FB
:100910009B7A03F003030029A4D043F00403A1E76A
:100920003F4E404C40484149394ADFF80881394D33
:1009300000233360384E2360036087F810321C4672
:100940000B601846D360C8F80030EB60336072E784
:10095000023CD46096E70234D46093E70134D4605B
:1009600090E7EC68023CEC6007F5AC7016F048FAD2
:100970002F4B00282DD11A68042A3BDC3268A41AB8
:1009800004EB840402EB44049442EC6026D01A6821
:10099000264D254F0132002C1A6022462B68B8BF25
:1009A000E21C92109A423A6006D040F2E9311B48AC
:1009B0000DF0DCFD3B682B603460BDE8F087EC682F
:1009C0000234EC6007F5AC7016F01AFA184B0028E8
:1009D000D1D03268002194421960D8D1BDE8F087A7
:1009E000EC68013CEC60BFE7EC680134EC60BBE70D
:1009F000EC68B9E7092A326805DCA41A04EB840420
:100A000002EB8404C0E76421A41A01FB0424BBE7C1
:100A10000C7CFF1F587CFF1F807CFF1F2C67002071
:100A2000447CFF1F4C7CFF1F487CFF1F507CFF1F36
:100A3000DC7BFF1F787CFF1F2DE9F84F00238346E6
:100A40001D460E4680F87031994600F5D47A00F1C3
:100A50007C081024012706E08BF870710135013401
:100A6000102DE4B216D05AF8043F002BF6D0B34252
:100A7000F2D8DBF80C32CAF800905B5D21464046A4
:100A800053B9013512F036FA0134102D8BF871711B
:100A9000E4B2E8D1BDE8F88F12F0ECF90028DDD11E
:100AA0002146404612F008FA8BF87171D6E700BF74
:100AB00038B5144C0C40002C1FDB031993F89C51E3
:100AC0006DB9012283F89C21C9B27C3012F0F4F98F
:100AD0002A4621460C48BDE838400BF005B90022F3
:100AE00083F89C21C9B27C3012F004FA214601221D
:100AF0000548BDE838400BF0F7B8013C64F00F043E
:100B00000134DAE70F0000808430002038B5144C3F
:100B10000C40002C1FDB031993F89C216AB90125B6
:100B2000C9B27C3083F89C5112F0C6F92A4621469E
:100B30000C48BDE838400BF0EBB80025C9B27C305A
:100B400083F89C5112F0D6F92A4621460548BDE8A3
:100B500038400BF0DDB8013C64F00F040134DAE7F3
:100B60000F0000808430002038B5144C0C40002C5D
:100B70001FDB031993F89C216AB90125C9B27C30A7
:100B800083F89C5112F098F92A4621460C48BDE89A
:100B900038400BF05DBA0025C9B27C3083F89C5117
:100BA00012F0A8F92A4621460548BDE838400BF066
:100BB0004FBA013C64F00F040134DAE70F00008003
:100BC00084300020154B0B40002B10B504461FDB72
:100BD000234493F87C216AB9012283F87C21C9B2AD
:100BE00004F17C0012F068F9012384F8113284F8D2
:100BF000103210BD002283F87C21C9B204F17C00C0
:100C000012F078F9012384F8113284F8103210BD03
:100C1000013B63F00F030133DAE700BF0F000080F0
:100C20002DE9F84380460F4600F17C0600F29B1543
:100C300010244FF0000903E00134E4B2202C0DD061
:100C400015F8013F002BF7D0214601343046E4B2BD
:100C500012F050F9202C85F80090F1D1094B3B405F
:100C6000002B09DB43440122F9B2304683F89C2172
:100C7000BDE8F84312F020B9013B63F00F030133E4
:100C8000F0E700BF0F000080F8B507464D1E00F1E9
:100C90007C06102405E00134E4B212F00DF9202C9A
:100CA0000DD015F8013F21463046002BF3D12146E7
:100CB00001343046E4B212F01DF9202CF1D10123A9
:100CC00087F87131F8BD00BF38B500F5CE75044620
:100CD000C0F80C5200F29B13002200F2AB1003F894
:100CE000012F8342FBD106480AF0E6FD23180122BA
:100CF0002946204683F89B21BDE83840FFF7C4BF52
:100D00008430002038B505460C480AF087FE05F50A
:100D1000CE71C5F80C1205F29B1305F2AB1400223C
:100D200003F8012FA342FBD12B180122284683F898
:100D30009C21BDE83840FFF7A7BF00BF84300020EA
:100D400038B505460C480BF077FC05F5CE71C5F8B3
:100D50000C1205F29B1305F2AB14002203F8012FCD
:100D6000A342FBD12B180122284683F89C21BDE821
:100D70003840FFF789BF00BF2C67002038B500F569
:100D8000CE750446C0F80C5200F29B1300F2AB1172
:100D9000002203F8012F8B42FBD129460448102280
:100DA0000AF01EFC29462046BDE83840FFF76CBF1C
:100DB000843000209C4B1A680D2A70B504460CD86C
:100DC0000123934041F2B6321A40002A52D113F463
:100DD000005540F097805B056DD404F5A875284652
:100DE00015F0D6FFC0B904F5AC75284615F0D0FF54
:100DF00008BB04F5B075284615F0CAFF50BB04F5D2
:100E0000B474204615F0C4FF00B970BD204616F03A
:100E100005F8002872D170BD284615F0FFFF0028A4
:100E2000E1D0824B002204F5AC75DA60284615F05B
:100E3000AFFF0028DDD0284615F0F0FF0028D8D0FD
:100E40007B4B002204F5B075DA60284615F0A0FF50
:100E50000028D4D0284615F0E1FF0028CFD0754BEC
:100E6000002204F5B474DA60204615F091FF0028E2
:100E7000CBD0CBE700F5A875284615F089FF0028F0
:100E800062D104F5AC75284615F082FF002864D1C4
:100E900004F5B075284615F07BFF002866D104F5EF
:100EA000B474204615F074FF0028AED0204615F02B
:100EB000B5FF18BB70BD00F5A876304615F068FF89
:100EC000002840F0998004F5AC75284615F060FFC5
:100ED000002840F08D8004F5B075284615F058FFC5
:100EE00000287BD104F5B474204615F051FF00288A
:100EF0008BD0204615F092FF00B970BD4E4B0022FA
:100F0000DA6070BD00F5A875284615F041FF00288D
:100F100047D104F5AC75284615F03AFF002837D1C3
:100F200004F5B075284615F033FF40BB04F5B474E2
:100F3000204615F02DFF00283FF467AF204615F03E
:100F40006DFF0028DAD170BD284615F067FF002834
:100F500097D03A480AF018FC93E7284615F05EFF50
:100F6000002895D0324B0022DA6091E7284615F030
:100F700055FF002893D02F4B0022DA608FE72846D8
:100F800015F04CFF0028D1D02A4B0022DA60CDE7C3
:100F9000284615F043FF0028C2D0254B0022DA6016
:100FA000BEE7284615F03AFF0028B2D023480AF0E1
:100FB000EBFB421E54FA82F292F89C3183F001035B
:100FC00082F89C3143B300F10F01C9B204F17C00F7
:100FD00011F072FF012384F871319AE7284615F069
:100FE0001DFF00283FF47EAF124B0022DA6079E744
:100FF000284615F013FF6EE7304615F00FFF002866
:101000003FF461AF094A636AD560002B3FF45BAFE0
:101010004FF47A70984756E700F10F01C9B204F116
:101020007C0011F067FFD5E7BC6FFF1F0C7CFF1F32
:10103000587CFF1F207CFF1F307CFF1F8430002066
:10104000A1F57A71032906D8DFE801F00E0A06023D
:10105000074B0022DA607047064B0022DA607047C7
:10106000054B0022DA607047044B0022DA607047BB
:10107000307CFF1F207CFF1F587CFF1F0C7CFF1F54
:1010800070B500F584750446284615F081FE00B958
:1010900070BD284615F0C2FE0028F9D0A36ABDE84D
:1010A0007040184708B590F8A00016F08DFD084A6A
:1010B0001368C0F58040A3F16401884202DB643309
:1010C000984201DD106008BD4FF0FF3008BD00BF41
:1010D0006C7CFF1F08B590F8A40016F075FD074A58
:1010E0001368A3F16401884202DB6433984201DD96
:1010F000106008BD4FF0FF3008BD00BF547CFF1FDB
:1011000030B500F5887483B00546204615F040FEE2
:1011100030B9204615F078FE80B9002003B030BD0C
:10112000204615F07BFE0028F3D00A4B1B68019384
:10113000019BC5F8AC30012003B030BD95F82032DA
:101140000020042BC5F8AC00E7D185F82002A5F8F3
:101150002202E3E74C940020054B82B01B68019308
:10116000019B03F5FA63C0F8243202B0704700BF58
:101170004C940020054B82B01B680193019B03F542
:10118000FA63C0F8283202B0704700BF4C940020C8
:10119000F0B5B1B007462849284E6846144616F007
:1011A000B9FA274904A816F0B5FA264908A816F096
:1011B000B1FA25490CA816F0ADFA244910A816F08A
:1011C000A9FA234914A816F0A5FA224918A816F07E
:1011D000A1FA21491CA816F09DFA204920A816F072
:1011E00099FA1F4924A816F095FA1E4928A816F066
:1011F00091FA1D492CA816F08DFA86FB0426E317F8
:10120000C3EB660606EB4601A4EB8101C9B20DEB08
:101210000111384616F092FAF1B2384616F022FB68
:101220006D4630AC103C204616F034FAAC42F9D191
:10123000384631B0F0BD00BF24460200ABAAAA2A4E
:1012400028460200744702002C4602008445020032
:10125000F448020030460200184A020034460200F8
:10126000384602003C46020040460200F0B5144DEC
:10127000DFF854E00E4617460FCD8FB002AC0FC416
:101280000FCD0FC495E80F008EFB065EF517C5EB7A
:101290006E0584E80F0005EB450EA6EB8E060EAB3F
:1012A000F6B203EB8606EDB256F8303C054A0095DF
:1012B000384604211DF07EFC38460FB0F0BD00BF5B
:1012C000F445020044460200ABAAAA2A10B5012246
:1012D00000210D48FFF76EFA032202210B48FFF7A9
:1012E00069FA052204210A48FFF764FA0822062158
:1012F0000848FFF75FFA2123232222210648BDE890
:10130000104011F039BA00BF0C7CFF1F587CFF1F42
:10131000207CFF1F307CFF1F887CFF1F10B586B02C
:101320000B460A4C0A4A684615211DF043FC002270
:101330001146204611F04CFB68461DF0C1FE69467F
:101340000246204615F0BEFF06B010BD887CFF1F88
:101350004C46020070B5324D044632480AF0BCFAE1
:101360002B68052B064645D0072B2AD0042B10D01E
:1013700020462D49FFF7D2FF06212C4818F016F918
:1013800029682B4816F02AF82948BDE8704015F066
:10139000D5BF68B104F29B140025294621480AF004
:1013A000E3FA013580F00100B54204F8010FF4D1F1
:1013B0000921204818F0FAF81D48BDE8704015F0E2
:1013C000BDBF70B104F29B140025294615480AF0F0
:1013D000EFFA0135003018BF0120B54204F8010FC3
:1013E000F3D10B21144818F0E1F81148BDE8704022
:1013F00015F0A4BF58B104F29B14002529460948F2
:101400000AF0C4FA0135B54204F8010FF6D10921FA
:101410000A4818F0CBF80648BDE8704015F08EBFBA
:10142000BC6FFF1F8430002084460200B4460200D7
:101430001871FF1F78460200604602006C460200E9
:1014400010B588B00B4600920A4C0B4A02A8152131
:101450001DF0B0FB00221146204611F0B9FA02A897
:101460001DF02EFE02A90246204615F02BFF08B003
:1014700010BD00BF887CFF1FBC46020030B5D0F80D
:1014800014120C4C0C4A87B00546013168461DF019
:1014900091FB0021C5F824122046022211F098FA8F
:1014A00068461DF00DFE69460246204615F00AFF0B
:1014B00007B030BD887CFF1FD046020030B5D0F8A1
:1014C00018120C4C0C4A87B00546013168461DF0D5
:1014D00071FB0021C5F828122046012211F078FA8C
:1014E00068461DF0EDFD69460246204615F0EAFE0D
:1014F00007B030BD887CFF1FD046020010B5D0F881
:10150000243282B004462BB10E4A12680092009A2F
:10151000934210D3D4F828325BB10A4A1268019280
:10152000019A934205D22046FFF7C8FF0023C4F872
:10153000283202B010BDFFF7A1FF0023C4F8243207
:10154000E8E700BF4C94002070B50E4C05460E46EF
:1015500020460122002111F03BFA13220A492046BD
:1015600015F0B0FE20460222002111F031FA31467A
:10157000204615F0BDFE1323C5F81432C5F8183205
:1015800070BD00BF887CFF1FE846020010B586B022
:101590000B460D4A0D4C152168461DF00BFB6846A5
:1015A0001DF08EFDC0F11001C9B22046002211F0DD
:1015B0000FFA68461DF084FD69460246204615F084
:1015C00081FE06B010BD00BFFC460200887CFF1FF4
:1015D00070B5114D0C460646FFF750FF2846022213
:1015E000002111F0F5F920461DF06AFD2146024662
:1015F000284615F067FE20461DF062FDC6F814026D
:1016000020461DF05DFD0146204617F0CFFF034840
:10161000BDE8704015F092BE887CFF1F1871FF1F57
:101620002DE9F04F2DED028B91B000F5BE710390C6
:101630007C4809F081FF002840F09180039B0290D4
:10164000FF2706468046814601900446BB463D463C
:10165000009703F27B1AB7EE008A02E00134102CE7
:101660004FD01AF8012F002AF8D0224608A86D4959
:1016700009F064FD9DF824200098824208D0019969
:101680000131CBB290420193034628BF1346009329
:10169000DDED0D7AF4EE487AF1EE10FA03D0029AFD
:1016A0000132D3B20293F4EEC87AF1EE10FA214679
:1016B0005C48D8BFB0EE678A0AF032F9A84207D07A
:1016C000854209F1010928BF05465FFA89F9EDB2A3
:1016D0009DF839205A4506D008F1010893455FFA74
:1016E00088F828BF93469DF83820BA42B6D0974272
:1016F00004F1010406F1010628BF1746102CF6B2CA
:10170000AFD101220021484811F062F91222474965
:10171000454815F0D7FD294604A816F02DF8B9F173
:10172000010F25D9424920E0424904A816F08CF85F
:10173000069B112BF8D9022200213B4811F048F9F1
:1017400004A9394815F0D4FD039C102312220DEB97
:101750000300C4F81422C4F8183215F09BFF11B02E
:10176000BDEC028BBDE8F08F324904A816F06CF88E
:10177000069B022BF8D9594608A815F0FDFF08A9C9
:1017800004A816F05DF808A815F084FFB8F1010F61
:1017900005D9274900E0274904A816F055F8069B0B
:1017A000052BF8D9394608A815F0E6FF08A904A8C2
:1017B00016F046F808A815F06DFF012E05D91C4952
:1017C00000E01C4904A816F03FF8069B082BF8D946
:1017D000009A039908A8FFF7DBFC08A904A816F0F3
:1017E0002FF808A815F056FF019B012B05D91049C9
:1017F00000E0104904A816F027F8069B0C2BF8D936
:10180000B0EE480A022108A815F0CAFF08A904A8EA
:1018100016F016F808A815F03DFF029B012B87D99A
:10182000034982E784300020887CFF1F14470200B0
:10183000284702006C47020010B502220C460B48F4
:10184000122111F0C5F80A490848022215F03AFDA4
:10185000082CD4BF132112210448022211F0B8F839
:1018600021460248BDE8104015F0B8BD887CFF1F36
:101870005C46020038B504460E4809F07DFC04F5CC
:10188000CE710546C4F80C1204F29B1304F2AB109F
:10189000002203F8012F8342FBD163190122204665
:1018A00083F89C21FFF7F0F929462046BDE838402F
:1018B000FFF7C2BF8430002010B503220C460B484E
:1018C000122111F085F80A490848022215F0FAFCA5
:1018D000082C94BF132112210448032211F078F838
:1018E000611C0248BDE8104015F078BD887CFF1FE0
:1018F0005C46020030B5204B1B7883B004460D4691
:101900001BB91E4B1B68092B12D01D48646B09F0D4
:1019100041FC1C4929400029024604DBC9B20220CF
:10192000A04703B030BD013961F00F010131F5E787
:10193000FFF776F913492940002918DBCDB2294673
:101940000F4809F03FFC0E4809F008FC014620460C
:10195000FFF73EFE0C4B1B680193019B03F5FA63F6
:101960002946C4F824322046FFF7A6FFD9E70139FB
:1019700061F00F010131E1E77D660020BC6FFF1FC0
:10198000843000200F0000804C94002010B502220B
:101990000C460D480F2111F01BF80C490A48022291
:1019A00015F090FC092C4FF0020294BF10210F217A
:1019B000054811F00DF8214600230A220248BDE82F
:1019C000104015F0CBBC00BF887CFF1F5C460200B6
:1019D00038B504460E4809F0DDFB04F5CE71054626
:1019E000C4F80C1204F29B1304F2AB10002203F8AB
:1019F000012F8342FBD163190122204683F89B21EA
:101A0000FFF742F929462046BDE83840FFF7BEBF40
:101A10008430002038B5534D2B68013B04460C2B15
:101A200000F29680DFE803F05C686A07071A072671
:101A3000313C47897E00002300F5CE75026A43627F
:101A4000012380F82D32C0F80C528262FFF782FC2D
:101A500029462046BDE83840FFF716B9036A83627D
:101A6000002200F5BE714262C0F80C12BDE8384099
:101A7000FFF70AB98368026A4362012380F82D32B6
:101A80008262BDE83840FFF71FB90023026A436253
:101A9000012380F82D328262BDE83840FFF732B969
:101AA000C36A026A4362012380F82D328262BDE874
:101AB0003840FFF745B9036A836200F5CE71002212
:101AC0004262C0F80C1200F29B1300F2AB1003F854
:101AD000012F8342FBD12046BDE83840FFF7D4B840
:101AE000C368226A63620123A26284F82D32204611
:101AF000BDE83840FFF7BEBE0369F2E7006AA062A6
:101B00000123002204F5CE7184F82D326262C4F8FC
:101B10000C1204F29B1304F2AB1003F8012F834262
:101B2000FBD1D8E70023026A4362012380F82D32FB
:101B30008262BDE83840FFF721B9036B026A436255
:101B4000012380F82D328262BDE83840FFF740BFA4
:101B50002921054817F02AFD29680448BDE83840C6
:101B600015F03CBCBC6FFF1F2C4702001871FF1F13
:101B7000134A144B126870B553F82250124C86B0B9
:101B8000064628461DF09CFAD6F81C120F4AC6F8E5
:101B90001C028142B8BF01462B46013168461DF048
:101BA00009F820460122002110F012FF68461DF0BE
:101BB00087FA69460246204615F084FB06B070BDE0
:101BC000BC6FFF1F7C6FFF1F887CFF1F5847020000
:101BD000F0B500F5907587B00446284615F0D8F8A2
:101BE000002840F0E680284615F00EF9002840F065
:101BF000078104F59875284615F0CAF8002840F0CA
:101C0000B780284615F000F9002840F0058104F55A
:101C10009475284615F0BCF8002840F089802846C5
:101C200015F0F2F8002840F0E78004F59C7528468E
:101C300015F0AEF8002863D1284615F0E5F8002825
:101C40003CD104F5A075284615F0A2F800283FD134
:101C5000284615F0D9F870B904F5A475284615F092
:101C600097F890B9284615F0CFF810B10023C4F8C2
:101C7000C83007B0F0BD002304F5A475C4F8C43023
:101C8000284615F085F80028ECD0284615F0C6F84F
:101C90000028E7D0864B092220461A60FFF7BAFEDB
:101CA0002046FFF765FF834B1B680593059BC4F82F
:101CB000C830012384F8103207B0F0BD002304F5CA
:101CC000A075C4F8C030284615F062F80028BFD0CF
:101CD000284615F0A3F80028BAD0754B08222046F4
:101CE0001A60FFF797FE2046FFF742FF714B1B6813
:101CF0000493049BC4F8C430012384F81032ABE78A
:101D0000284615F08BF8002896D0694B072220460C
:101D10001A60FFF77FFE2046FFF72AFF654B1B681E
:101D20000393039BC4F8C030012384F8103288E782
:101D3000284615F073F800283FF471AF5C4B1A6821
:101D4000052A75D0042A00F088805B4A12681A6060
:101D50002046FFF75FFE2046FFF70AFF554B1B6842
:101D60000293029BC4F8B830012384F810325CE778
:101D7000284615F053F800283FF443AF4C4A136847
:101D8000062B5FD00C2B62D00D2B6BD04B4B1B68FE
:101D900013602046FFF73EFE2046FFF7E9FE454B65
:101DA0001B680193019BC4F8BC30012384F81032F6
:101DB0002DE7284615F032F800283FF414AF3C4ACE
:101DC0001368012B39D0022B51D0032B5CD00A2B86
:101DD00061D03B4B1B6813602046FFF71BFE20467B
:101DE000FFF7C6FE334B1B680093009BC4F8B4306A
:101DF000012384F81032FCE60023C4F8B83014E75D
:101E000094F820220023022AC4F8B43004BF84F8D6
:101E10002032A4F82232ECE694F820220023032A90
:101E2000C4F8BC3004BF84F82032A4F82232EEE6B5
:101E3000214904220A601A608AE7214802210360CE
:101E40001160C9E71D480C2103601160A1E71B491F
:101E500006200D23086013609BE7174905220A60DE
:101E60001A6075E7154906230B60136091E7144E5D
:101E7000144901274FF0FF350323204637600D60DA
:101E80001360FFF7FBFAA7E70D4E0E4901274FF04D
:101E9000FF350A23F1E70A4E0A4901234FF0FF35C7
:101EA0002046336013600D60FFF7E8FA94E700BF47
:101EB000BC6FFF1F4C940020386FFF1F346FFF1F53
:101EC0003C6FFF1FB86FFF1F70B5044616480E46E3
:101ED00009F060F906F00F030133984206D004F5CB
:101EE000CE712046BDE87040FEF7CEBE05463146B5
:101EF0002046FEF795FE29462046FFF747FD0A4893
:101F000009F08CFD01462046FFF7D6FC074B062260
:101F100020461A60FFF77EFD2046FFF729FE0123C9
:101F200084F8103270BD00BF84300020BC6FFF1FEA
:101F300010B500220C461248112110F049FD032271
:101F400010490F4815F0BEF9632C4FF000020CDC6D
:101F5000092CCCBF12211321094810F039FD21466C
:101F60000748BDE8104015F039BA1121044810F0B7
:101F70002FFD21460248BDE8104015F02FBA00BFE2
:101F8000887CFF1F0C47020010B501220C46124846
:101F9000112110F01DFD032210490F4815F092F990
:101FA000092C4FF001020CDD632CD4BF122111214A
:101FB000094810F00DFD21460748BDE8104015F016
:101FC0000DBA1321044810F003FD21460248BDE874
:101FD000104015F003BA00BF887CFF1F0C470200B9
:101FE000F0B587B005460C9F0D9E0E9C0F9829609A
:101FF0006A601399149AAB60EF60109B119F2E6179
:10200000129E29636A63EB616C61A8612F62EE62C4
:1020100005F1A40305F1CC01002243F8042F9942F5
:10202000FBD105F27B1205F28B13002102F8011F90
:102030009A42FBD105F29B11002203F8012F99422D
:10204000FBD105F5D47305F5F471002243F8042F94
:102050009942FBD105F2EB1305F20B21002203F8A4
:10206000012F9942FBD1762475217422732305F147
:102070007C067727039402910192009330467223E5
:1020800004977122702111F02DF8AB6B002BC8BFA3
:10209000002420DD2146304610F00EFF304611F0BE
:1020A0007BF80A2016F0F6F90134AB6BE4B29C42DF
:1020B000F0DB002B0FDD00242146304610F01AFF24
:1020C000304611F069F80A2016F0E4F90134AB6BE0
:1020D000E4B29C42F0DB142016F0DCF92846FFF74E
:1020E00099FC2846FFF744FD0F480EF09BF9014686
:1020F0002846FFF71DFF0C480EF096F901462846CA
:10210000FFF742FF094809F089FC01462846FFF71E
:10211000D3FB064809F03EF80146284607B0BDE863
:10212000F040FFF733BC00BF509000208430002007
:10213000F8B5144D0C4617460646FFF79FF90222E4
:102140000021284610F044FC20461CF0B9FF21462F
:102150000246284615F0B6F820461CF0B1FF0222D0
:10216000C1B2284610F034FC3946284615F036F93D
:1021700020461CF0A5FF0630142828BF1420C6F8FE
:102180001402F8BD887CFF1FF8B51F4C1F4F154681
:1021900000220E462046114610F01AFC204611225D
:1021A0001B4915F08FF800221146204610F010FC54
:1021B00030461CF085FF31460246204615F082F875
:1021C00020460122002110F003FC28461CF078FF75
:1021D00029460246204615F075F830461CF070FF7F
:1021E0000146304617F0E2F9384615F0A7F82846C0
:1021F0001CF066FF0146284617F0D8F93846BDE8BE
:10220000F84015F09BB800BF887CFF1F1871FF1FB6
:102210005C470200B0B588B002AF04460B4600929E
:102220001521164A164D38461CF0C4FC38461CF0E1
:1022300047FFD4F81432C4F8140298420146B8BFDC
:10224000194601F1080323F00703ADEB030D02ACBF
:102250003B460C4A013120461CF0ACFC28460222C9
:10226000002110F0B5FB20461CF02AFF2146024653
:10227000284615F027F81837BD46B0BD7047020054
:10228000887CFF1F584702002DE9F04790F82D3257
:1022900082B00546002B40F08280584E584A306884
:1022A000D46892F809E092E88800197897F800C09D
:1022B000137A534F1CEA0E0F01EA03015AD0BB7A7E
:1022C00003F0030309B143F0040343F0080399103A
:1022D000013B91720D2B0AD8DFE803F05E07580727
:1022E000095B5E5E5B090758075E013CD460C31E54
:1022F000A34202DC0330A04239DA424808F04AFF28
:102300003368E31A48BF033300EBA307002F39DC1F
:102310000127DFF80081D8F800309F4226D05FFA0D
:1023200087F94946374809F061F83A463649284660
:10233000FFF770FF354B364A1B680193019B12680B
:1023400003F5FA630C2AC5F8243239D049462846E9
:10235000FFF71CFB2B4809F061FB01462846FFF7FD
:10236000ABFA2846FFF756FBC8F80070346002B09D
:10237000BDE8F087BB7A03F003030029A7D043F040
:102380000403A4E7022FA8BF0227C2E70234D460E7
:10239000ADE7023CD460AAE70134D460A7E700238C
:1023A00080F82D321748154E08F0F4FE1949144AEA
:1023B000086003B29B001C4618463360D36070E788
:1023C000D8F80030E8192B44002209F10F014FF032
:1023D000010A05F17C0980F89BA1C9B283F89B2111
:1023E000484610F069FDD8F800100F314846C9B2D0
:1023F00010F080FD85F871A1B6E700BF7C7CFF1F5F
:102400000C7CFF1F84300020784702004C94002091
:10241000BC6FFF1F1C7CFF1F2DE9F041A84D2DED67
:10242000028B2B68DA0782B0044640F1EB81A54DA0
:102430002B68DB0740F1D78194F81032002B40F075
:10244000AF81A14DA14E2B6869681A78687A0F7820
:102450002B7A9D49074202EA03021DD08B7A03F0D2
:1024600003030AB143F0040343F008039A10013B4D
:10247000AA720D2B00F26881DFE813F054015001BD
:102480004C0150016601160054015401160066010A
:1024900050014C01500154018B7A03F00303002AD0
:1024A000E4D043F00403E1E7EB68023BEB6007EEA6
:1024B000903A9FED876A96ED007ADFED866AF8EE36
:1024C000E77A87EE868A77EE267AB4EEE78AF1EE2F
:1024D00010FA06DA37EE667AB4EEC78AF1EE10FA31
:1024E00040D87D4BDFED7D7AD3ED006AB1EE007A06
:1024F000E6EEC77AB4EEE78AF1EE10FA40F13A81DF
:10250000B9EE008A26EE888ADFED717A68EE277AC6
:10251000FDEEE77AC5ED037A714D724F95ED000A35
:10252000F5EE007A68EE277AF4EE407AF1EE10FAD2
:10253000C7ED007A40F075819FED650A6A4967EE44
:10254000807A2046FDEEE77A17EE902AFFF762FECA
:10255000664B86ED008A1B680193019B03F5FA63C5
:10256000C4F82432624A1368506819780578507AA2
:10257000137A054201EA030100F0F380937A03F035
:10258000030309B143F0040343F008039910013B2E
:1025900091720D2B00F2D680DFE813F0D000C80056
:1025A000CC00C800D4000E00D000D0000E00D40033
:1025B000C800CC00C800D000D568023DD5604D4EA3
:1025C0003368DA1EAA4202DCDA1CAA421DDA4A4F3C
:1025D000DFF83C81EA1A3B68D8F8001048BF0332A4
:1025E00003EBA203082BA8BF082323EAE373994255
:1025F0003B6006D0194641480DF00EFF3968C8F817
:1026000000102046FFF7C0FC35603D4A1368506853
:1026100019780578507A137A054201EA030100F02F
:102620009780937A03F0030309B143F0040343F066
:1026300008039910013B91720D2B00F28780DFE8AF
:1026400003F03B37333785073B3B07853733373B51
:10265000D568023DD5602B4E3068C31EAB4202DC0C
:10266000C31CAB421BDA284A281A136848BF033040
:1026700003EBA000002840F3E280B0F5967FA8BFEE
:102680004FF49670214F10603B68DFF87C809842D1
:1026900004D063699847D8F800303B60356002B0D9
:1026A000BDEC028BBDE8F081D5680235D560D2E77C
:1026B000D568013DD560CEE7D5680135D560CAE75C
:1026C000087CFF1F007CFF1F587CFF1F687CFF1FDA
:1026D0000000C8420AD7233D707CFF1F00000000A5
:1026E000A47CFF1FE47BFF1F804702004C94002066
:1026F000207CFF1FA87CFF1FAC7CFF1F5090002098
:10270000307CFF1F047CFF1F747CFF1FE87BFF1FD2
:10271000F87BFF1FEB680233EB60C8E6EB68013B18
:10272000EB60C4E6EB680133EB60C0E6D568013DC1
:10273000D56044E7D5680235D56040E7D5680135F6
:10274000D5603CE7D5683AE7EB68B0E6D56882E744
:10275000937A03F0030300293FF46BAF43F00403C3
:1027600067E7937A03F0030300293FF40FAF43F0C8
:1027700004030BE7334BD3ED007A27EE877AB4EEF0
:10278000C78AF1EE10FA7FF7C7AEDFED2F7A67EE5A
:10279000277AB0EE478AFDEEE77AC5ED037ABBE60D
:1027A0002A482B4DDFF8C4E02A4E0023002204F50E
:1027B000BE77036084F81022EA6039462648CEF8D6
:1027C0000030336009F09AF9244B234883ED000A66
:1027D000394609F0D1F9F7EE007A37EEC00A194B05
:1027E00083ED000A2FE6284615F056FB00283FF43B
:1027F00023AE1B480DF018FE1A4B1860284615F042
:1028000051FB19E6284615F047FB00283FF40FAEB0
:1028100013480DF005FE144B1860284615F042FBD6
:1028200005E637EEC00A94F82C220B4804F5BE7179
:1028300009F026FBD7ED007AC5ED007A7CE6012091
:1028400020E700BFFC7BFF1F0000C842E47BFF1FA6
:10285000587CFF1F687CFF1F84300020707CFF1FA6
:1028600050900020AC7CFF1F747CFF1FA47CFF1FD6
:10287000384B1B680D2B00D070472DE9F041364BCB
:10288000CFB20B4007F00F06002B82B006F1010615
:1028900039DBC418054694F89C317BB12F4B93F873
:1028A0000080B8F1000F33D1424631462C4808F081
:1028B0000DFF002838D102B0BDE8F081274B1B780E
:1028C000DBB901223146264808F000FF30B301236E
:1028D00084F89C31394605F17C0010F0EDFA32465F
:1028E00020492846FFF796FC1F4B1B680193019B6C
:1028F00003F5FA63C5F82432DDE7436B3246012164
:1029000004209847D7E7013B63F00F030133C0E78A
:10291000436B3246002104209847CCE7394605F145
:102920007C0010F0E7FAC6E7394605F17C0084F830
:102930009C8110F0DFFA32460C492846FFF76AFC0A
:10294000094B1B680093009B03F5FA63C5F824321A
:10295000B1E700BFBC6FFF1F0F0000807D66002045
:10296000843000209C4702004C9400208C470200D9
:1029700010B5013A8CB00446032A6BD8DFE802F0A8
:1029800052371D0240F6B833994200F086806AD96A
:1029900041F28833994200F0AA8041F658339942B7
:1029A00064D15F49FEF714FE5E4B1B680B930B9BD3
:1029B00003F5FA63C4F8243253E040F6B833994281
:1029C00077D050D941F28833994200F09C8041F68B
:1029D000583399424AD15449FEF7FAFD514B1B68CE
:1029E0000893089B03F5FA63C4F8243239E04F4A90
:1029F00040F6B833994212683DD034D941F2883359
:102A0000994262D041F6583399422FD14849FEF796
:102A1000DFFD444B1B680593059B03F5FA63C4F87F
:102A200024321EE04348019109F0CEFC019940F6A2
:102A3000B83399422BD016D941F28833994250D0FD
:102A400041F65833994211D102463B492046FFF7DF
:102A5000E1FB06E03949FEF761FC3A21384816F0FF
:102A6000A5FD0CB010BDB1F57A7FFAD02046FEF777
:102A700005FD0CB010BD3349FFF7CCFB294B1B689B
:102A80000393039B03F5FA63C4F82432E9E7024693
:102A90002C492046FFF7BEFBE3E72B49FEF798FDE4
:102AA000204B1B680993099B03F5FA63C4F8243291
:102AB000D7E72649FEF78CFD1A4B1B680693069B49
:102AC00003F5FA63C4F82432CBE72149FFF7A2FBF0
:102AD000144B1B680493049B03F5FA63C4F8243277
:102AE000BFE702461B492046FFF794FBB9E71A49A6
:102AF000FEF76EFD0B4B1B680A930A9B03F5FA6306
:102B0000C4F82432ADE71549FEF762FD054B1B689A
:102B10000793079B03F5FA63C4F82432A1E700BFCB
:102B2000504802004C9400201C480200B86FFF1F60
:102B3000E84702002C670020C847020058480200FE
:102B400068480200A847020028480200F84702002F
:102B5000D8470200B8470200404802000C48020073
:102B6000B1F57A7F38B504D8B0F8224294B300208A
:102B700038BD40F6B834A14212D8B0F82212B1F5EF
:102B80007A7FF4D1A0F822422146FFF7F1FE082116
:102B9000284816F00BFD284814F0D0FB002038BD63
:102BA00041F28835A94222D941F65834A142B0F801
:102BB00022122ED8A942DAD1A0F822422146FFF7EC
:102BC000D7FE04211D4816F0F1FC1B4814F0B6FB9B
:102BD000002038BD4FF47A72A0F822220B21184849
:102BE00016F0E4FC144814F0A9FB204638BDB0F8F8
:102BF0002212A142BBD1A0F822522946FFF7B8FE0B
:102C00000621104816F0D2FC0B4814F097FB012067
:102C100038BDA142ABD10024A0F822422146FFF7E3
:102C2000A7FE0821084816F0C1FC034814F086FBF3
:102C3000204638BDB04802001871FF1FC44802008A
:102C4000A4480200BC480200CC48020070B51A4DEE
:102C500082B08DED010A0C460646FEF70FFC2846B1
:102C6000022200210FF0B4FE20461CF029FA214672
:102C70000246284614F026FB20461CF021FA0222C8
:102C8000C1B228460FF0A4FE9DED010A10EE100A15
:102C90001AF0C2FD41EC100B0221284614F0A8FBEB
:102CA00020461CF00DFA0630142828BF1420C6F860
:102CB000140202B070BD00BF887CFF1FB0B588B0A1
:102CC00002AF0446019300920B46174A174D152197
:102CD00038461BF06FFF38461CF0F2F9D4F8143276
:102CE000C4F8140298420146B8BF194601F108031E
:102CF00023F00703ADEB030D02AC3B460C4A013158
:102D000020461BF057FF2846022200210FF060FEEC
:102D100020461CF0D5F921460246284614F0D2FA86
:102D20001837BD46B0BD00BFD8480200887CFF1FE1
:102D3000584702002DE9F04190F8103282B0054664
:102D4000002B40F082804E4F4E4E3B6879681A78D7
:102D5000787A0C783B7A4A49044202EA030215D099
:102D60008B7A03F003030AB143F0040343F0080332
:102D70009A10013BBA720D2B65D8DFE803F058605A
:102D80005C60640F58580F64605C60588B7A03F085
:102D90000303002AECD043F00403E9E7FC68023C9B
:102DA000FC603368DA1CA24202DB033BA3423BDD3A
:102DB000354B1B78C3EB83739B00A34204DC334B7E
:102DC0001B789B00A34201DAFB601C46304FDFF802
:102DD000D0803A68002C2346B8BFE31C9B10934276
:102DE000C8F800301FD09A1AD2B295F82C32294870
:102DF00005F5BE7108F0C0FFD8F80080C7F8008064
:102E000001466A462846FEF731FA42460346224901
:102E10002846FFF753FF214B1B680193019B03F5E5
:102E2000FA63C5F82432346002B0BDE8F081FC6872
:102E30000134FC60B5E7FC680234FC60B1E7FC6873
:102E4000013CFC60ADE7FC68ABE715490C4F104A4C
:102E50000C4E1048002305F5BE740B60FB60214644
:102E60001360336008F0EAFD074B214618700948EB
:102E700008F014FE054BC0F17F00187065E700BF35
:102E80000C7CFF1FF47BFF1F407CFF1FF07BFF1FAC
:102E9000E07BFF1F84300020E44802004C940020B7
:102EA000EC7BFF1F104B1B680D2B10B5044608D898
:102EB000012202FA03F343F2B6321A404AB95B0523
:102EC0000ED42046FFF736FF2046BDE81040FFF73E
:102ED000A3BAFFF7D9F92046BDE81040FFF79CBA26
:102EE000BDE81040FDF798BCBC6FFF1FF0B58DB07A
:102EF0001D4D9DF848409DF84CE09DF85070CDF870
:102F00000CE00134019306464B1C00920294049796
:102F100007A8164A164C14211BF04CFE2846022224
:102F200000210FF055FD07A81CF0CAF807A90246BA
:102F3000284614F0C7F907A81CF0C2F8C6F8140216
:102F4000204614F0FBF914210A4816F02FFB07A8BD
:102F50001CF0B6F8014607A816F028FB204614F02E
:102F6000EDF90DB0F0BD00BF887CFF1FF8480200EE
:102F70001871FF1F1049020008B5032211210948EA
:102F80000FF026FD084B1B7801222BB90749054895
:102F9000BDE8084014F096B905490248BDE808406C
:102FA00014F090B9887CFF1FC09000206C4702008D
:102FB0002849020010B50446032290F874110B480A
:102FC0000FF006FDD4F80C22D4F87431D35C012242
:102FD0002BB907490548BDE8104014F073B90549FD
:102FE0000248BDE8104014F06DB900BF887CFF1F97
:102FF0006C4702002C4902002DE9F04F04461023D3
:1030000000F1400720268FB0C36304F15E08A66379
:10301000384600250FF0CCFE40460FF0C9FE424670
:103020003946049503950295019500952B4604F1C8
:103030007C000FF0BFFEC4F800611A26C4F8E460FB
:10304000192604F58473C4F8E8601B264FF0250C9C
:103050004FF0240E1E2107931F220523C4F8EC60B5
:103060004FF0420B4FF0430A4FF027094FF026086C
:1030700018271D201C26C4F8D8C0C4F8DCE0C4F80A
:103080000431C4F8F810C4F8FC20C4F8A0B0C4F8A7
:10309000A4A0C4F8D09004F5887AC4F8D480C4F809
:1030A000E070C4F8F060C4F8F400079813F050FE24
:1030B000504613F04DFE04F58C7904F590721646D7
:1030C000484613F045FE04F59472304617460896BC
:1030D00013F03EFE04F598710E463846099713F03A
:1030E00037FE04F59C7130460F460A9613F030FE09
:1030F00004F5A070064638460B9713F029FE04F538
:10310000A4700746304604F5A87B0C9613F020FE09
:10311000384604F5AC780D9713F01AFE584613F0B4
:1031200017FE04F5B077404613F012FE04F5B476AE
:10313000384613F00DFE304613F00AFEFF2201233D
:1031400084F82C2284F82D3284F8705184F871515F
:1031500084F8105284F81152C4F81452C4F818526A
:10316000C4F81C5284F82052A4F822524A21714813
:1031700016F01CFA704814F0E1F82B466F48042250
:1031800014210FF049FC0A226D496C4814F09AF89A
:1031900094F8A000022115F02DF994F8A400022162
:1031A00015F028F994F8D400022115F023F994F8C9
:1031B000D000022115F01EF994F8D800022115F074
:1031C00019F994F8DC00022115F014F994F8E000E4
:1031D000022115F00FF994F8E400022115F00AF924
:1031E00094F8E800022115F005F994F8EC000221AA
:1031F00015F000F994F8F000022115F0FBF807989B
:10320000D4F8D41013F0ACFD5046D4F8D01013F01D
:10321000A7FD4846D4F8D81013F0A2FD0898D4F8BA
:10322000DC1013F09DFD0998D4F8E01013F098FD20
:103230000A98D4F8E41013F093FD0B98D4F8E81032
:1032400013F08EFD0C98D4F8EC1013F089FD0D9D51
:10325000D4F8F010284613F083FD0798B4F8041151
:1032600013F094FD5046B4F8041113F08FFD484656
:10327000B4F8041113F08AFD0898B4F8041113F09F
:1032800085FD0998B4F8041113F080FD0A98B4F88C
:10329000041113F07BFD0B98B4F8041113F076FDC4
:1032A0000C98B4F8041113F071FD2846B4F8041119
:1032B00013F06CFD94F8F400022115F09BF894F8DB
:1032C000F800022115F096F894F8FC00022115F0A0
:1032D00091F894F80001022115F08CF85846D4F8C2
:1032E000F41013F03DFD4046D4F8F81013F038FD0B
:1032F0003846D4F8FC1013F033FD3046D4F80011F2
:1033000013F02EFD5846B4F8041113F03FFD40466B
:10331000B4F8041113F03AFD3846B4F8041113F070
:1033200035FD3046B4F8041113F030FD20460FB0DF
:10333000BDE8F08F304902001871FF1F887CFF1F25
:103340007C49020070B516460C460546C9B20322F8
:103350001F480FF03DFBFEB92B1993F87C61D5F89F
:1033600074317EB99C422BD021461A4808F0EAFA03
:10337000012818D9334601460A221548BDE8704095
:1033800013F0ECBF9C424FF0010213D012491048D9
:10339000BDE8704013F096BF012210490C48BDE80B
:1033A000704013F08FBF01220D490948BDE87040FD
:1033B00013F088BF0B490648BDE8704013F082BF88
:1033C000012209490248BDE8704013F07BBF00BFED
:1033D000887CFF1F843000202C490200284702000F
:1033E0006C47020088490200DC7B020070B544187B
:1033F00000220F29054684F8EC211FD901F00F06A1
:103400000C463146FFF79EFF12211B4816F0CEF8FE
:1034100031461A4813F0E2FF184813F08FFF95F871
:103420002C32A34204BFFF2385F82C32144B1B68B7
:103430000A2B09D00B2B00D070BD214605F17C0072
:10344000BDE870400FF056BD2846FEF717F895F816
:1034500020220C480023012AC5F8CC3004BF85F88F
:103460002032A5F82232314609F08CFF2846BDE80B
:103470007040FDF765BC00BF8C4902001871FF1F4A
:10348000BC6FFF1F2C67002070B50D461646D0F8A4
:10349000781100220446FFF755FF0322E9B20948DC
:1034A0000FF096FA012236B90749064813F00AFFD1
:1034B000C4F8785170BD0549024813F003FFC4F801
:1034C000785170BD887CFF1FDC7B020088490200B8
:1034D000D0F80C3270B55D5CC0F874111031044640
:1034E0001646C9B27C309DB10FF004FD0122D4F81C
:1034F00074112046FFF7C8FFD4F8743104EB83033E
:103500000122C3F8AC6184F8702184F8712170BD88
:103510000FF0D2FC2A46D4F874112046FFF7B4FF0E
:10352000EAE700BF2DE9F041012186B00546484891
:103530000EF072FF0021122014F05CFF0121132015
:1035400014F058FF0121132014F040FF0B26122025
:1035500014F042FF30B9013E01464FF496744FF02B
:10356000130067D175217422732305F17C06772738
:1035700076240291019200933046722304970394BB
:10358000712270210FF0AEFDAB6B002B09DD002422
:10359000214630460FF0AEFC0134AB6BE4B29C42E6
:1035A000F6DB30460FF0F8FD05F29B1305F2AB1188
:1035B000002203F8012F8B42FBD16FF4BD76761BFE
:1035C00005F27B1405F28B180027311904F8017FEE
:1035D00000222846FFF7B6FE4445F6D105F5D47320
:1035E00005F5F470002143F8041F83424FF00002F8
:1035F000F9D1184B85F8112201240622284685F8B6
:1036000010421A60FEF706FA2846FEF7B1FA124891
:103610000CF008FF01462846FEF78AFC0E480CF025
:1036200003FF01462846FEF7AFFC85F8704106B05F
:10363000BDE8F08114F0CAFE2346013BFDD1012113
:10364000132014F0C3FE2346013BFDD17FE700BFEA
:103650003070FF1FBC6FFF1F5090002030B5D0F8B6
:10366000B43087B00446A3B1374A12680292029977
:10367000C91A0ED0354D2B680222013380F8202262
:103680005AD002222046FFF76BFA002847D107B034
:1036900030BDD4F8CC30ABB12B4A126803920399F9
:1036A000C91A0FD0012284F820222046FFF758FAC9
:1036B0000028ECD0264808F087FE0146244808F090
:1036C0007FFFE4E7D4F8BC308BB11F4A1268049244
:1036D0000499C91A0BD0032284F820222046FFF750
:1036E0003FFA0028D3D02046FFF71CFFCFE7D4F8DD
:1036F000AC30002BCBD0144A126805920599C91A38
:10370000C5D0042284F820222046FFF729FA002899
:10371000BDD0104807F09CFEE3699847B7E72968D9
:103720000C4807F04BFB20462968FEF785F84FF060
:10373000FF332B6007B030BD0648019107F01CFD38
:10374000019928609DE700BF4C940020B86FFF1FCF
:103750002C670020843000202DE9F04F00F58C7597
:1037600085B00446284613F013FB10B905B0BDE838
:10377000F08F284613F052FB0028F7D0894E3368AB
:10378000013B0A2B52D8DFE803F0182E515151515A
:10379000510D0D510600844D2B78002B4FD1E3695C
:1037A0009847E3E7814A1378204683F001031370BA
:1037B000FFF7E2FB05B0BDE8F08F7D4807F03AFC6B
:1037C000002849D07A4807F0D7FC7A4902462046BB
:1037D000FEF720FD784B1B680193019B03F5FA630C
:1037E000C4F82432C2E7754D29684B1C00F0C28032
:1037F0006F4807F0E3FA2A6871492046FEF70AFD90
:103800006D4B1B680393039B03F5FA63C4F82432E2
:1038100001274FF0FF3320462B603760FEF7FAF8A0
:103820002046FEF7A5F984F810729FE794F811324C
:10383000032B00F2AA80DFE803F076593F2001272E
:1038400020463760FEF7E6F82046FEF791F90023A0
:1038500084F810722B7089E7554807F08DFC5949A0
:1038600002462046FEF7D6FC534B1B680293029B90
:1038700003F5FA63C4F8243278E704F28B196FF485
:10388000BD77C8463F1B04F27B154FF0010A79193A
:1038900015F8013F08F8013F002285F800A02046F6
:1038A000FFF750FD4D454FF0010BF0D1022384F896
:1038B00010B284F8113253E06FF4BD773F1B04F26D
:1038C0007B1504F28B1A4FF0000979194FF00008AC
:1038D00005F8019F42462046FFF734FD5545F4D1D7
:1038E000012384F8118284F8103239E004F28B1934
:1038F0006FF4BD77C8463F1B04F27B15791915F8A4
:10390000013F08F8013F83F001032B70002220469D
:10391000FFF718FDA945F1D10322012384F81122F4
:1039200084F810321CE06FF4C578C4EB080804F288
:103930008B1504F27B1704F29B1908EB050115F8AF
:10394000013F83F0010307F8013F00222046FFF703
:10395000F9FCA945F1D1012384F8113284F8103221
:103960003368062B7FF402AF04F5BE712046FDF7E5
:103970008BF9FBE6012520463560FEF74BF8204623
:10398000FEF7F6F884F81052F0E631210E4815F0F3
:103990000DFE94F811120D4813F020FD0B4813F0A2
:1039A000CDFCDDE7BC6FFF1F142E0020C09000206F
:1039B00084300020A04902004C940020B86FFF1F03
:1039C000C0490200B0490200D04902001871FF1F2F
:1039D00070B504460D4696B07C300FF06DFA631951
:1039E000012283F8EC210F2D00F23F81DFE815F072
:1039F000240040005C00780094009D00A600AF0009
:103A0000F100CB00DE00B8002A010401170110000C
:103A1000B9492046FDF7DCFDB84BB9481B68129345
:103A2000129B03F5FA63C4F8243204F5BE71042234
:103A300008F0E0F816B070BDB24B1A68511E0129AB
:103A400040F2D0810A2A00F0CD812046AE49FDF730
:103A5000BFFDAA4BAA481B680293029B03F5FA63B9
:103A6000C4F8243204F5BE71002208F0E9F8E1E759
:103A7000A44B1A68511E012940F2C0810B2A00F0A4
:103A8000BD812046A149FDF7A3FD9C4B9C481B68C6
:103A90000193019B03F5FA63C4F8243204F5BE7167
:103AA000012208F0CDF8C5E7964B1B68012B00F00A
:103AB0006C81083B012B40F2688120469449FDF758
:103AC00087FD8E4B8E481B680493049B03F5FA63B5
:103AD000C4F8243204F5BE71022208F0B1F8A9E757
:103AE000884B1B68012B00F06881083B012B40F2DA
:103AF000648120468749FDF76BFD804B80481B6839
:103B00000693069B03F5FA63C4F8243204F5BE71EC
:103B1000032208F095F88DE77F4B1B78002B00F00F
:103B20002781A3690120984784E77B4B1B78002BF2
:103B300000F01181A369022098477BE7764B1B7840
:103B4000002B00F0FB80A3690320984772E7724BBB
:103B50001B78002B00F0C280A3690420984769E716
:103B600020466E49FDF734FD644B65481B680E9393
:103B70000E9B03F5FA63C4F8243204F5BE710322E8
:103B800008F07EF856E720466549FDF721FD5B4BBE
:103B90005B481B680C930C9B03F5FA63C4F8243252
:103BA00004F5BE71012208F06BF843E720465D4939
:103BB000FDF70EFD514B52481B680D930D9B03F50D
:103BC000FA63C4F8243204F5BE71022208F058F8F2
:103BD00030E720465449FDF7FBFC484B48481B683A
:103BE0000B930B9B03F5FA63C4F8243204F5BE7102
:103BF000002208F045F81DE720464C49FDF7E8FC97
:103C00003E4B3F481B681093109B03F5FA63C4F8C2
:103C1000243204F5BE71022207F0ECFF0AE72046C9
:103C20004349FDF7D5FC354B35481B681193119B73
:103C300003F5FA63C4F8243204F5BE71032207F0D9
:103C4000D9FFF7E620463B49FDF7C2FC2B4B2C4839
:103C50001B680F930F9B03F5FA63C4F8243204F535
:103C6000BE71012207F0C6FFE4E60F2D7FF6E2AE3B
:103C700005F00F06314601222046FFF763FB94F85A
:103C80002C32AB42636A88BF84F82C5213B1A5F181
:103C9000100098471B4B1B68013B0C2B00F2E78080
:103CA00001A252F823F000BF013E0000133E0000C5
:103CB0006F3E00001D3E0000653E00006F3E0000AC
:103CC0005B3E0000013E0000513E00003B3E000014
:103CD000353A0000313E0000273E000016492046DC
:103CE000FDF776FC054B1B680A930A9B03F5FA6304
:103CF000C4F8243230E700BFFC4A02004C94002094
:103D000084300020BC6FFF1F104A0200044A0200EA
:103D1000384A0200644A02007D660020D04A020050
:103D2000B84A0200C44A0200AC4A0200E44A020057
:103D3000F04A0200DC4A0200A04A02005F49204625
:103D4000FDF746FC5E4B1B680993099B03F5FA637C
:103D5000C4F82432F7E65B492046FDF739FC584B9E
:103D60001B680893089B03F5FA63C4F82432E1E664
:103D700055492046FDF72CFC514B1B680793079BC8
:103D800003F5FA63C4F82432CBE6504A504913785D
:103D9000002083F0010313700870002B00F088806E
:103DA0004C492046FDF714FC454B1B680393039BCD
:103DB00003F5FA63C4F824323CE6454B1A78002A2E
:103DC0006DD0424D4449002220462A701A70FDF7FA
:103DD000FFFB3B4B1B680593059B03F5FA63C4F897
:103DE000243227E60B2220461A60FDF713FE2046F8
:103DF000FDF7BEFE012384F810321BE60A22F2E72B
:103E0000324B364A1B784FF0FF311160002B7FF4A4
:103E100011AE29462046FCF703FF0BE62946204653
:103E2000FCF746FE06E629462046FEF721FD01E6A0
:103E300029462046FEF748F8FCE529462046FCF7CF
:103E4000EFFE1F4B1B681393139BC4F8CC30F1E5B6
:103E500029462046FDF74EFDECE529462046FCF7B5
:103E600083FEE7E529462046FCF750FEE2E52946B9
:103E70002046FCF7A7FE31462046FDF7D1FB104B4C
:103E80001A681592159A1B681493149B02F5FA622E
:103E900003F5FA63C4F82822C4F82432CAE50B48B3
:103EA0000F490270012220461A70FDF791FB90E73E
:103EB0000C492046FDF78CFB76E700BF904A0200D4
:103EC0004C940020804A0200704A02007D66002067
:103ED0007C6600201C4A0200444A0200B86FFF1FA3
:103EE000544A02002C4A0200F8B5344C2368DB0720
:103EF000054646D5324E14F0A9FA3368304A984246
:103F000034D900F5EA4395F8701130331360002975
:103F100047D105F17C0738460FF056F818B3AB6B64
:103F2000002B24DD0026344605E00134AB6BE4B2FF
:103F30009C4226461BDA214638460EF07BFF2E4473
:103F400030B196F8EC31214628460BB9FFF740FD19
:103F5000214638460EF07EFF0028E6D0214628464E
:103F6000FFF744FAE1E795F871311BB9F8BD012379
:103F700085F8713138460FF00FF9002385F871315B
:103F8000F8BD204613F088FF0028B3D014F05EFA85
:103F90000B4E00F5EA4330332046336013F082FFC6
:103FA000A9E7014605F17C072846FCF745FD3846A0
:103FB0000FF00AF80028D6D0B1E700BF847CFF1FBD
:103FC000B07CFF1F10B5002303604360836004468C
:103FD0001621044815F0EAFA034813F0AFF9204619
:103FE00010BD00BF0C4B02001871FF1F38B505460D
:103FF0001A210F4815F0DAFA2C6864B1A36A2B6015
:1040000020462C2113F08AFF2C680A48042115F061
:10401000CDFA002CF2D100232B606B60AB60042141
:10402000054815F0C3FA054813F088F9284638BD4D
:10403000244B0200484B0200404B02001871FF1F46
:1040400038B5054615210F4815F0B0FA2C6864B153
:10405000A36A2B6020462C2113F060FF2C680A48CD
:10406000042115F0A3FA002CF2D100232B606B6021
:10407000AB600421054815F099FA0548BDE83840C1
:1040800013F05CB9504B0200484B0200404B020059
:104090001871FF1F38B52E4C05460A212D4815F022
:1040A00085FA204613F04AF90E212B4815F07EFAC6
:1040B0006B682046196813F091F90B21274815F019
:1040C00075FA6B680A2219792046002313F046F925
:1040D000204613F033F90821214815F067FA6B6880
:1040E0002046D96813F07AF907211E4815F05EFAC8
:1040F0006B68D86919F090FB41EC100B2046022147
:1041000013F076F90B21184815F050FA6B680A2263
:1041100093F820102046002313F020F916211348AD
:1041200015F044FA6B682046597A13F057F90E21BE
:104130000F4815F03BFA6B68204693F824100A22CA
:10414000002313F00BF92046BDE8384013F0F6B811
:104150001871FF1F684B0200744B0200844B020071
:10416000904B02009C4B0200A44B0200B04B02009B
:10417000C84B020038B54368002B6BD09A6A934253
:1041800004460D4618BF012066D0A36823B12268FB
:1041900012B19B6A9A4274D06368444A1B68934286
:1041A00002DC01332DD038BD2A4641494148FDF794
:1041B000EBFF3121404815F0F9F928461AF080FF4D
:1041C0000146284615F0F2F93C4813F0B7F80721EC
:1041D0003B4815F0EBF96168384813F0FFF80E2101
:1041E000384815F0E3F963683448196813F0F6F8B5
:1041F000324813F0A3F863681B6801334FF00000E6
:10420000D1D12A4630492B48FDF7BEFF34212F4833
:1042100015F0CCF928461AF053FF0146284615F050
:10422000C5F9264813F08AF80721254815F0BEF98C
:104230006168224813F0D2F80E21224815F0B6F931
:1042400063681E48196813F0C9F81C4813F076F823
:10425000002038BD012038BD0A4616481C49FDF72C
:1042600093FF26211B4815F0A1F928461AF028FFD4
:104270000146284615F09AF9104813F05FF800201F
:1042800083E72A4614490B48FDF77EFF392113487E
:1042900015F08CF928461AF013FF0146284615F050
:1042A00085F9064813F04AF8002075E780969800D3
:1042B0005C4C02004C2E0020744C02001871FF1F51
:1042C000A84C0200B04C0200C04C0200D84C0200C6
:1042D000D84B0200E84B0200104C0200204C0200B8
:1042E00003684360704700BF10B544680CB1206894
:1042F00010BD03490348FDF711F8204610BD00BF6B
:10430000104D02004C2E002010B544680CB12079ED
:1043100010BD03490348FDF701F8204610BD00BF5A
:10432000244D02004C2E00202DE9F0418846002744
:10433000077006461121144815F038F9D8F80440E2
:10434000ECB108340FCC35460FC594E80F0085E872
:104350000F0071680D4813F041F808210C4815F062
:1043600025F9D8F80430094819790A223B4612F099
:10437000F5FF064812F0E2FF3046BDE8F08105493E
:104380000548FCF7CBFFF7E7384D02001871FF1F17
:104390003C6202004C4D02004C2E00204068003070
:1043A00018BF0120704700BF70B50446162136487B
:1043B000666815F0FBF8354812F0C0FF0721344855
:1043C00015F0F4F86168314813F008F80821314815
:1043D00015F0ECF821682D4813F000F808212E485C
:1043E00015F0E4F8A168294812F0F8FF236863602B
:1043F000642538E012F0A2FF0E21284815F0D6F807
:1044000063682248196812F0E9FF0D21244815F06D
:10441000CDF861681D48083112F0E0FF09212148FC
:1044200015F0C4F863681948197912F0D7FF0B2109
:104430001D4815F0BBF86168144812F0CFFF082141
:104440001A4815F0B3F863681048996A12F0C6FF6D
:1044500017492046FFF78EFE40B1204600F0C6F80F
:10446000013D08D063680948002BC3D1074812F00A
:1044700065FF666070BD0F490F48FCF74FFF0348AA
:1044800012F05CFF666070BD644D02001871FF1F82
:10449000A84C02007C4D0200884D0200B04C020086
:1044A000944D0200A44D0200B04D0200BC4D02002C
:1044B000C84D0200D04D02004C2E0020036810B5FC
:1044C00004466BB14268934204BF002242609A6A7C
:1044D0008AB100210260996218462C2113F01EFD5A
:1044E0000A492046FFF746FE00B110BD2046BDE850
:1044F0001040FFF759BF81688B4208BF82602C21B2
:10450000184613F00BFD00232360E9E7E04D02009D
:1045100038B50368044673B11A6891420D4603DC4E
:104520000AE01A68AA4207DA2046FFF7C7FF2368A5
:104530006360002BF5D10023636005492046FFF737
:1045400019FE00B138BD2046BDE83840FFF72CBF4A
:10455000F04D020082B02DE9F04106AC074644F868
:10456000043F0D461E481421904615F01FF82146C1
:1045700000230A221B4812F0F1FE1A4812F0DEFE58
:104580002C2013F0C7FC2C22002106461AF0B6F8A6
:104590000FCCB060F160326173610FCCBC683560E4
:1045A00086F80480B061F1613262736214B1A64290
:1045B00018BFA6627B68BE607BB13B685BB10A49ED
:1045C0003846FFF7D7FD10B93846FFF7EDFEBDE8D6
:1045D000F04102B070473E60F1E77E60EDE700BF5A
:1045E0001C4E02001871FF1F344E0200436810B5C4
:1045F000044673B19A6A934213D062600C49204614
:10460000FFF7B8FD00B110BD2046BDE81040FFF730
:10461000CBBE1921074814F0C9FF074812F08EFEDF
:10462000ECE706490648FCF779FE63689A6AE4E716
:10463000704E0200544E02001871FF1F404E0200DF
:104640004C2E002070B590E84800054600244360D9
:1046500006E00134FFF7CAFFB4F57A7F06D06B6835
:104660002846002BF5D16E60204670BD03490448F2
:10467000FCF754FE6E60204670BD00BF784E02000D
:104680004C2E00200022026042608260704700BF12
:1046900038B504461721094814F088FF23685BB138
:1046A0000025DA6822601846DD6010219D6013F055
:1046B00035FC2368002BF4D1204638BD884E02001B
:1046C00038B5436804460D4683B1DA68934218BF93
:1046D000012036D09A689A4248D0E3682BB1DA6854
:1046E000934219D09A689A4202D038BD0120F4E76B
:1046F00028492948FCF712FE1F21284814F056FFCC
:10470000274812F01BFE28461AF0DAFC014628461C
:1047100014F04CFF0020E8E722491F48FCF7FEFD9B
:104720002B21214814F042FF28461AF0C9FC01460B
:10473000284614F03BFF1A4812F000FEE368002000
:10474000D0E71A491448FCF7E9FD2321184814F072
:104750002DFF28461AF0B4FC0146284614F026FF27
:104760000F4812F0EBFD63680020B3E711490A48D7
:10477000FCF7D4FD1721104814F018FF084812F078
:10478000DDFD28461AF09CFC0146284614F00EFF79
:104790000020A2E73C4F02004C2E0020504F0200A8
:1047A0001871FF1FFC4E0200104F0200A04E0200C5
:1047B000B04E0200D44E0200E44E020010B507498C
:1047C0000446FFF77DFF20B163680BB1DB686360CF
:1047D00010BD204600F004F8F6E700BF704E02005E
:1047E00038B500210446434814F0E0FE424812F078
:1047F000A5FD0D21414814F0D9FE3F4812F09EFD61
:1048000007213F48656814F0D1FE21683A4812F04C
:10481000E5FD06213B4814F0C9FE6168364812F0F8
:10482000DDFD0721384814F0C1FEA168324812F0BE
:10483000D5FD0A21354814F0B9FEE1682E4812F082
:10484000CDFD2D4812F07AFD204600F0DFF86368B8
:104850002BB945E0FFF7B2FF6368002B40D005217C
:104860002B4814F0A3FE6368234819680A2200232A
:1048700012F074FD0421274814F098FE63681E4866
:1048800019790A22002312F069FD0421224814F04C
:104890008DFE6368184859790A22002312F05EFDE4
:1048A00005211E4814F082FE6168134812F096FD3F
:1048B00006211B4814F07AFE63680F48D96812F08D
:1048C0008DFD0D4812F03AFD6368DA689342204688
:1048D000C0D11A21134814F069FE074812F02EFDCA
:1048E0000021044814F062FE034812F027FD6560C1
:1048F00038BD00BFE44602001871FF1F704F020070
:10490000804F0200884F0200904F0200984F020033
:10491000A44F0200AC4F0200B44F0200BC4F020093
:10492000C44F0200CC4F020038B50446C0680028CE
:1049300038D060602368834226D0A368834216D0B3
:104940008568C368EB60C36882689A60102113F0C1
:10495000E5FA65602B46E36014492046FFF7B0FE98
:1049600000B138BD2046BDE83840FFF739BF826846
:104970001AB1826862600021D1601846102113F0DC
:10498000CDFA6368A360E6E7C268626062B10021A5
:1049900091600022DA601846102113F0BFFA6368B4
:1049A0002360D8E76068C5E7A260F2E7E84F02003D
:1049B0002DE9F84304461020894690461F4613F01F
:1049C000A9FAA66800254560856080F80490C56056
:1049D00080F8058007600EB1F06086606368A060B3
:1049E0007BB123685BB108492046FFF769FE08B137
:1049F000BDE8F8832046BDE8F843FFF7F1BE20602C
:104A0000F1E76060EDE700BFF44F020010B5054923
:104A10000446FFF755FE10B92046FFF7E1FE236874
:104A2000636010BDFC4F0200C3681879704700BF77
:104A3000C3685879704700BFC3681868704700BFE3
:104A4000C068003018BF0120704700BF10B505498D
:104A50000446FFF735FE10B92046FFF7C1FE236874
:104A6000E36010BD0450020010B507490446FFF78B
:104A700027FE20B1E3680BB1DB68E36010BD204680
:104A8000FFF7AEFEF6E700BF1050020070B5114907
:104A90000546FFF715FE90B128466E680024FFF723
:104AA000B5FF05E00134FFF789FEB4F57A7F0AD03F
:104AB0006B682846002BF5D16E60204670BD2846F5
:104AC000FFF78EFEE8E704490448FCF727FC6E6018
:104AD000204670BD1C500200245002004C2E0020C5
:104AE00038B50A4D002304460360436029464FF45D
:104AF000A072083013F0EEF805F5A07104F5A4706B
:104B00004FF4807213F0E6F8204638BD34500200AE
:104B100010B490E81800013400EB031394FBF1F299
:104B200002FB11410B44416093F848015DF8044BCE
:104B3000704700BF10B490E8180094FBF1F200EB4E
:104B4000031302FB11410B44416093F848015DF8E7
:104B5000044B7047436810B40468194400EB041018
:104B600091FBF2F303FB121250FA82F25DF8044B50
:104B700092F84801704700BF406801308842B4BFD6
:104B800000200120704700BF054B0B40002B01DBCC
:104B900003607047013B63F00F030133036070470C
:104BA0000F000080036803EB830300EB83000830F1
:104BB000704700BF00234360704700BF704700BFCD
:104BC0002DE9F0418046064600F16007337D5BB178
:104BD0003546002455F8040F013418B1182113F09C
:104BE0009DF9337DA342F5DC1836BE42EED1404636
:104BF000BDE8F08101EB410300EBC30380F86810CE
:104C000043660120704700BF38B5044660B101EB30
:104C1000410110EBC1050DD002EB420014EBC004C2
:104C20000ED06A75012038BD08490948FCF776FBAB
:104C3000204638BD07490648FCF770FB284638BDBA
:104C400005490348FCF76AFB204638BD7452020050
:104C50004C2E0020885202009C520200436E0BB181
:104C60001960704780F868300346406619607047E5
:104C7000416E70B5054621B30B7D032B1BD8182060
:104C800013F048F9044600F07BFA6B6E1E1D25D028
:104C9000197D31B153F82100B8B100F09DFA6B6E67
:104CA000197D03EB8102013154602046197500F033
:104CB0006FFA204670BD0E490E48FCF72FFB00200E
:104CC00070BDFFF797FF38B970BD0B490948FCF775
:104CD00025FB6B6E197DE4E7696ECDE70749054852
:104CE000FCF71CFB2046182113F018F9304670BD64
:104CF000B05202004C2E0020D4520200C0520200DA
:104D00002DE9F043044685B0184803F055FC0E2108
:104D1000174814F04BFC174812F010FBE06EE8B196
:104D200000F094FA636EE06E93F8009094F8685087
:104D300094F8746094F8707000F03EFA8046E06E6B
:104D400000F03CFA4B4602908DE88001324629463D
:104D50000948FEF7CBF805B0BDE8F08307490648DF
:104D600005B0BDE8F043FCF7D9BA00BF806600206B
:104D7000E45202001871FF1F4C2E0020F452020072
:104D800070B504463321644814F010FCE06E00F066
:104D900013FA00230A220146604812F0DFFA0121CB
:104DA0005F4814F003FCE06E00F008FA00230146AF
:104DB0000A225A4812F0D2FA09215A4814F0F6FB96
:104DC00000230A2294F87010544812F0C7FA1421F4
:104DD000554814F0EBFBE06E00F004FA00230146A6
:104DE0000A224E4812F0BAFA4C4812F0A7FAE36EC3
:104DF000002B7DD0656E002D75D0184600F0F4F9BB
:104E0000054658B31921494814F0D0FBE06E00F074
:104E1000E9F910210646464814F0C8FB0023314644
:104E20000A223E4812F09AFA636E1B7DB34221D9E2
:104E30002121404814F0BAFB636E84F8706003EBE4
:104E400086067068E06600F0C9F921213A4814F03E
:104E5000ADFB324812F072FA284670BDE06E00F0E9
:104E6000F1F93D21354814F0A1FB2C4812F066FA07
:104E7000284670BD1821324814F098FB636E626FAB
:104E80001B689A421FDB10212E4814F08FFB636EC3
:104E90005E7DFF2E32D006EB4606132104EBC606DC
:104EA000294814F083FB66661521284814F07EFB20
:104EB000636E002284F870205868E06601236367FF
:104EC00000F08CF9C1E71A21214814F06FFB002390
:104ED00084F87030626E636F5068E0660133636718
:104EE00000F07CF9B1E71B491B48FCF717FABFE754
:104EF0001A4919481D46FCF711FAB9E7002118486C
:104F000014F054FB054812F019FA1321154814F057
:104F10004DFB236E984798E7085302001871FF1F56
:104F20003C530200405302004C5302008C530200D9
:104F3000A8530200BC5302006C54020090540200BB
:104F4000E0530200185402002C54020040540200A6
:104F5000FC530200785302004C2E002064530200E0
:104F6000E4460200585402002DE9F043436E044623
:104F700085B0C06E93F8009094F8686094F87470EF
:104F800094F8708000F018F90546E06E00F016F90C
:104F90004B460290CDF800803A46314601950348D1
:104FA000FDF7A4FF05B0BDE8F08300BF4C2E002044
:104FB00010B514210446094814F0F8FA084812F014
:104FC000BDF9E06E18B1BDE8104000F03FB90549E9
:104FD0000548BDE81040FCF7A1B900BFD05402005D
:104FE0001871FF1FE85402004C2E002003460022D7
:104FF000586680F8682038B1406883F87020012234
:10500000D8665A6700F0EAB801490248FCF786B949
:10501000FC5402004C2E0020F8B5564E564D016649
:10502000044600F1150132602B607530FF22002329
:105030000A7001F8013C41F8153C183181424FF0EB
:105040000005F5D14D4B656684F86850E56684F837
:1050500070506567012620461E70FFF709FE07465F
:1050600090B12B462A46314600F09CF82B462A4642
:105070000221384600F096F83146384600F0A2F892
:105080003846022100F09CF82046FFF7F1FD054666
:1050900090B101221146002300F084F80023012280
:1050A0000221284600F07EF80121284600F08AF807
:1050B0002846022100F084F82046FFF7D9FD054676
:1050C00090B100230222012100F06CF80222114667
:1050D0000023284600F066F80121284600F072F807
:1050E0002846022100F06CF801212046FFF7B6FDAA
:1050F000012200212046FFF787FD01212046FFF70E
:1051000079FD02212046FFF7A9FD2046FFF7B0FDFB
:10511000054690B100230322012100F043F800234B
:1051200003220221284600F03DF80121284600F024
:1051300049F82846022100F043F82046FFF798FD81
:10514000054690B100230422012100F02BF8002332
:1051500004220221284600F025F80121284600F00B
:1051600031F82846022100F02BF82046BDE8F8402F
:10517000FFF73CBFB87CFF1FB47CFF1FBC7CFF1F48
:10518000FF220021017381608273C2730261704744
:105190000023FF22037183704371C3700270427059
:1051A000704700BF30B40139C9B244180125A3705B
:1051B0002571425430BC7047007D7047007A7047BB
:1051C000816070474B1E50FA83F31B7913B1417312
:1051D0000120704718467047817370470023436170
:1051E000704700BF807B7047426983689A421DD038
:1051F0001ADD10B50E4904460E48FCF78FF812214F
:105200000D4814F0D3F961690C4812F0E7F8142145
:105210000B4814F0CBF9A168084812F0DFF80748F2
:1052200012F08CF8012010BD00207047012070475B
:10523000645502004C2E0020785502001871FF1FA3
:105240008C5502004369013343617047F8B5112161
:1052500006466B4814F0AAF96A4812F06FF8307BE2
:10526000002878D134460125237967480821002B8E
:105270005ED014F09BF92946624812F0AFF823780B
:10528000FF2B3AD00621614814F090F900230A223E
:1052900021785C4812F062F8A378002B53D10A21E0
:1052A0005B4814F083F9574812F048F8EFB23946DA
:1052B000584806F09BF8584B20781B6898473946A9
:1052C000A278544806F002FA737BAB4266D0534B87
:1052D0001B68013B0C2B10D8DFE803F05A0F5A0F64
:1052E0000F0F0F07470F0F0F41004A4806F0E4FA6F
:1052F00000F10F014A48FBF793FC0135032D04F13F
:105300000104B1D1717B434806F070F80123736149
:105310001521444814F04AF93A4812F00FF80021D8
:10532000414814F043F93748BDE8F84012F006B898
:1053300014F03CF92946334812F050F809213B4853
:1053400014F034F9D9E70821394814F02FF92D4821
:1053500011F0F4FFAAE7374B1B68984782E705F185
:105360000F012F48FDF784FAC7E72A4806F056FBDD
:1053700000F110012A48FCF7BDFA264805F0EEFEC0
:1053800001462748FCF724F92548FBF7E5FEB4E77A
:10539000217823481031FBF743FCAEE73369FE2B3D
:1053A00012DDF37BFF2B92D01A4806F095FAF27BC0
:1053B000904204D31146174806F0E0FD87E71E49E6
:1053C0001748FCF73DF882E71C49194000290DDB1E
:1053D000C9B2104805F0F6FE336918491940002992
:1053E00009DBC9B20E48FCF767FADAE7013961F068
:1053F0000F010131ECE7013961F00F010131F0E7F4
:10540000A45502001871FF1F3C620200B85502004B
:10541000CC55020084300020B87CFF1FBC6FFF1FFA
:105420004C2E0020F4550200E4460200E85502002C
:10543000C0550200B47CFF1FD85502000F00008049
:1054400010B528210446074814F0B0F8204619F09A
:1054500037FE0146204614F0A9F80348BDE8104085
:1054600011F06CBF0C5602001871FF1F10B500231D
:10547000036043608360C36004461D21034814F049
:1054800095F8034811F05AFF204610BD3856020027
:105490001871FF1F38B505461C21104814F086F816
:1054A0002C6864B1A36A2B6020462C2112F036FDD3
:1054B0002C680B48042114F079F8002CF2D1002359
:1054C0002B606B60AB60EB600421064814F06EF853
:1054D000054811F033FF284638BD00BF585602007A
:1054E000484B0200404B02001871FF1F84B02DE9A9
:1054F000F843064609AC2C2084E80E009DF8449041
:10550000DDF8488012F006FD2C220021074619F034
:10551000F5F80FCC3D460FC594E80F00B46885E858
:105520000F0087F82490C7F8208004B1A762736841
:10553000B760002B39D03368002B3AD018212148AE
:1055400014F034F8204811F0F9FE08211F4814F037
:105550002DF800230A2231681B4811F0FFFE1A487B
:1055600011F0ECFE08211A4814F020F800230A225A
:105570007168154811F0F2FE134811F0DFFE0821A2
:10558000144814F013F800230A22B1680E4811F0F1
:10559000E5FE0D4811F0D2FE736813B19A6A93428A
:1055A00009D0BDE8F84304B0704733687760002B3A
:1055B000C4D13760C2E7BDE8F843074804B0FFF73D
:1055C0003FBF00BF905602001871FF1F7C4D0200C4
:1055D000AC560200884D0200F44F020070B54C68D2
:1055E00000230646037044B10FCC35460FC594E83E
:1055F0000F0085E80F00304670BD03490348FBF7F4
:105600008DFE304670BD00BFB85602004C2E002003
:10561000436810B51BB193F82440204610BD0349E0
:105620000348FBF77BFE204610BD00BF284D02005B
:105630004C2E00204068003018BF0120704700BF8A
:10564000436810B513B11C6A204610BD02490348D7
:10565000FBF764FE204610BDEC5602004C2E0020E5
:1056600038B5194C05461821184813F09FFF2046FD
:1056700011F064FE0821164813F098FF00230A2257
:105680002968204611F06AFE204611F057FE0821D5
:10569000104813F08BFF00230A226968204611F09E
:1056A0005DFE204611F04AFE08210B4813F07EFFF4
:1056B0000023A9680A22204611F050FE204611F06E
:1056C0003DFE2B686B6038BD1871FF1F1457020038
:1056D0007C4D0200AC560200884D0200436833B195
:1056E0009A6A934210B5044602D0626010BD7047BA
:1056F0000348FFF7A5FE6368002BF7D09A6AF4E72A
:10570000704E0200436999420AD08368C268994288
:1057100003DB91420B46A8BF13464361012070474B
:10572000002070470020704781600120704700BF53
:1057300000207047C1600120704700BF0020704703
:1057400001610120704700BF00207047406870472A
:1057500090ED050AB8EEC00A704700BF90ED040A4C
:10576000B8EEC00A704700BF90ED020AB8EEC00A5A
:10577000704700BF90ED030AB8EEC00A704700BF43
:10578000007E704700207047D0ED057AB4EE670ABE
:10579000F1EE10FA19D0D0ED027A90ED037AB4EE62
:1057A000E70AF1EE10FA03D5C0ED057A0120704743
:1057B000B4EEC70AF1EE10FAD4BFF0EE407AF0EE84
:1057C000477AC0ED057A012070470020704700BF7E
:1057D00080ED020A012070470020704780ED030A27
:1057E000012070470020704780ED040A01207047B7
:1057F000002070474068704790ED050A704700BF71
:1058000090ED040A704700BF90ED020A704700BF98
:1058100090ED030A704700BF007E704710B5FE236D
:10582000044640F8043B0DF05BFD04F124000DF04C
:1058300057FD204610BD00BF10B5044617210D4886
:1058400013F0B4FE21780C480DF016FE40B114217F
:105850000A4813F0ABFE0A48BDE8104011F06EBDD7
:105860001621084813F0A2FE0548BDE8104011F0CB
:1058700065BD00BF04580200189100203458020092
:105880001871FF1F1C580200F0B5084683B0B449D8
:105890001AF0A4FC002800F085800446B1490020DD
:1058A0001AF09CFC00287DD0AE4900201AF096FC2E
:1058B0000546002876D0AC49204619F035FA064650
:1058C000002800F09C800021204619F02DFA0028C5
:1058D0006AD1A649204619F027FA002864D0A449C5
:1058E000204619F021FA002800F0BA80A14920468C
:1058F00019F01AFA002800F0BB809F49204619F0E1
:1059000013FA002800F0C7809C49204619F00CFAD1
:10591000002800F0C8809A49204619F005FA0028AE
:1059200000F0C7809749204619F0FEF9002800F0E2
:10593000CB809549204619F0F7F9002800F0D48073
:105940009249204619F0F0F9002800F0998090491A
:10595000204619F0E9F9002800F0D1808D49204651
:1059600019F0E2F9002800F0D7808B49204619F0A1
:10597000DBF9002800F0DD808849204619F0D4F9D1
:10598000002800F0E1802046854919F0CDF948B99A
:10599000844B28461C6818F0EFFA2146C2B28248B0
:1059A00006F088FB03B0F0BD0821804813F0FEFD2F
:1059B000284619F085FB0146284613F0F7FD7C4880
:1059C00011F0BCFC284618F0D7FA0146764805F0DD
:1059D0005BFC0721774813F0E9FD012018F01AFB62
:1059E000044618F01FFB01A9091B00230A22704876
:1059F00011F0B4FC6E4811F0A1FC03B0F0BD06211B
:105A00006D4813F0D3FD284619F05AFB014628468D
:105A100013F0CCFD664811F091FC284618F0ACFA62
:105A2000C1B2614805F0E2FC0721624813F0BEFDF7
:105A3000012018F0EFFA074618F0F4FA01A9C91B83
:105A400033460A225A4811F089FC594811F076FC75
:105A50000021204619F068F900283FF43AAFA3E787
:105A6000284618F089FAC1B24F4806F087FA99E73C
:105A7000284618F081FAC1B24B4806F06DFA91E75A
:105A8000484B28461C6818F077FA2146C2B24648AF
:105A900006F048FA86E7284618F06EFAC1B2424886
:105AA00005F090FB7EE7284618F066FA3D4B18603B
:105AB00078E73C4B28461C6818F05EFA2146C2B2D3
:105AC000394806F0FDF86DE7364B28461C6818F09B
:105AD0004FFA51EC100B18F0C3F9214600EE100AF2
