:1000000000000320D1010000C9900100819001008F
:100010008190010081900100819001008190010098
:10002000819001008190010081900100C990010040
:10003000C990010081900100D1AB0100D5AC010055
:10004000C9900100C9900100C9900100C990010048
:10005000C9900100C9900100C9900100C990010038
:10006000C9900100C9900100C9900100C990010028
:10007000C9900100C9900100C9900100C990010018
:10008000C9900100C9900100C9900100C990010008
:10009000C9900100C9900100C9900100C9900100F8
:1000A000C9390100D5390100C9900100C99001008A
:1000B000C9900100C9900100C99001001DAD010067
:1000C000C990010049AE0100C990010075AF01005F
:1000D000C99001006DB00100C9900100C9900100F4
:1000E000C9900100C9900100C9900100C9900100A8
:1000F000C9900100C9900100C9900100C990010098
:10010000C9900100C9900100C9900100C990010087
:10011000C9900100D19A0100C9900100C990010065
:10012000C9900100C9900100C9900100C990010067
:10013000C9900100C9900100C9900100C990010057
:10014000B5830100C990010065B10100C9900100AB
:10015000C9900100C9900100C9900100C990010037
:10016000C9900100C9900100E1390100C990010066
:10017000C9900100C9900100C9900100C990010017
:10018000C9900100C9900100C9900100C990010007
:10019000C9900100C99001005DB20100C990010041
:1001A000C9900100C9900100C9900100C9900100E7
:1001B000C9900100C9900100C9900100C9900100D7
:1001C000C9900100C9900100C9900100C9900100C7
:1001D0005C4B4CF2205210B51A804DF628121A8052
:1001E00000BF00BF18F074FF574B4FF030621A6029
:1001F000564A9A60564ADA60564B4FF470021A60BB
:10020000554B564A1A60564B1A78110703D51A787F
:1002100042F008021A70534B5349AA221A70534AEB
:10022000534B8B4204D252F8040F43F8040BF8E707
:10023000504B514900228B4202D243F8042BFAE77B
:100240004E494F4A002352F8230041F8230001335E
:10025000742BF8D14B4B4C4A802103F8011B93427D
:10026000FBD14A4B454A1A60494B8A221A70A3F5C2
:10027000805324225A70A0221A709A799207FCD5D2
:100280009A79D406FCD4434A937903F00C03082BE3
:10029000FAD1414B60221A7002331A78802AFCD1BD
:1002A0003C4B01221A715D225A719A799006FCD555
:1002B0009979384A4906FBD5384B394919600021EC
:1002C000596020231370937903F00C030C2BFAD19F
:1002D000344B354A1A60354A354C136813F4807331
:1002E00003D123604FF4A8531360324B324A1A6093
:1002F00000225A60072243F8042C304AC3F80C2D20
:1003000062B619F055FA2368DA0705D52C4819F0BA
:1003100087F92C4B2C4A1A602C4B1B785B0609D5AD
:10032000284C294B22689A4204D1254819F078F9C3
:10033000002323601EF07EFF18F0D0FE18F0FEFDB3
:10034000FEE700BF0E20054030800440823F0400DD
:100350000100002B88ED00E0002008E0030000858C
:1003600002D0074000E00740C07BFF1FA8A90200A1
:10037000306FFF1FC07BFF1F38990020006AFF1FEE
:100380000000000000E400E064E400E008ED00E0AC
:10039000005006400040064001E007404480044011
:1003A0000000060204800440C010070010D0034083
:1003B00014D0034014E000E01FBF02000000202022
:1003C000AE04B25E1CE00340A5C3945A00F007409F
:1003D000FFFFFFFFFFFFFFFFFFFFFFFFFFFFFFFF2D
:1003E000FFFFFFFFFFFFFFFFFFFFFFFFFFFFFFFF1D
:1003F000FFFFFFFFFFFFFFFFFFFFFFFFFFFFFFFF0D
:10040000FFFFFFFFFFFFFFFFFFFFFFFFDEF9FFFF23
:1004100010B5054C237833B9044B13B10448AFF33E
:1004200000800123237010BDC07BFF1F000000006F
:10043000A4A90200084B10B51BB108490848AFF346
:1004400000800848036803B910BD074B002BFBD0A0
:10045000BDE81040184700BF00000000C47BFF1F2C
:10046000A4A90200C07BFF1F0000000010B52422D9
:10047000044600211FF07EFA002384F8243084F81B
:100480002530204610BD00BFF8B5074690F824007F
:100490000D461646E0B13A46002404E00134844299
:1004A00002F1030212D01178A942F7D19178994252
:1004B000F4D104EB44043C446670A370062D5ED86E
:1004C000DFE805F031161D242B1031000A2C2BDC3F
:1004D00000EB40017A18013087F824007D545670F3
:1004E0009370EBE72E492F48BDE8F84001F0D8B9EA
:1004F00032462D492B48BDE8F84002F045B8324657
:100500002A492848BDE8F84002F03EB8324628495A
:100510002448BDE8F84002F037B826492148BDE834
:10052000F84001F0BDB9F8BD23491E4800F0B8FFFE
:10053000042122481AF076F92146214818F08AF859
:10054000172120481AF06EF900230A2297F8241088
:100550001B4818F03FF810211B481AF063F90C21D2
:10056000174818F077F80B2118481AF05BF929465C
:10057000134818F06FF8124818F01CF89EE7144959
:10058000084800F08DFF152112481AF04BF9294652
:100590000B4818F05FF80A48BDE8F84018F00AB8B0
:1005A000E4570200CC2E0020A4570200B4570200EA
:1005B000C0570200D0570200505702006457020093
:1005C0001871FF1F6C5702008457020098570200F1
:1005D000F45702000858020038B590F825300B2B6C
:1005E000044627D91F49204800F05AFF17211F4809
:1005F0001AF018F900230A2294F825101C4817F065
:10060000E9FF17211B481AF00DF900230A2294F87C
:100610002410174817F0DEFF102117481AF002F9CE
:100620000C21134818F016F80025114817F0C2FFE6
:10063000284638BD03EB430317210C48E55C1AF04C
:10064000F1F800230A2294F82510094817F0C2FF98
:100650000B210A481AF0E6F82946054817F0FAFF78
:10066000284638BD38580200CC2E00202058020001
:100670001871FF1F6C570200845702009857020040
:1006800090F825300B2B04D803EB43031844407833
:10069000704710B513490446134800F001FF1721B5
:1006A00012481AF0BFF800230A2294F825101048C7
:1006B00017F090FF17210F481AF0B4F800230A2210
:1006C00094F824100A4817F085FF10210A481AF000
:1006D000A9F80C21064817F0BDFF054817F06AFF7E
:1006E000002010BD4C580200CC2E002020580200E3
:1006F0001871FF1F6C5702008457020090F82530D4
:100700000B2B04D803EB430318448078704710B5D3
:1007100013490446134800F0C3FE172112481AF08B
:1007200081F800230A2294F82510104817F052FF90
:1007300017210F481AF076F800230A2294F82410A3
:100740000A4817F047FF10210A481AF06BF80C21ED
:10075000064817F07FFF054817F02CFF002010BD5A
:1007600060580200CC2E0020205802001871FF1F94
:100770006C5702008457020090F825300133DBB239
:100780000B2B80F825308CBF00200120704700BF64
:10079000002380F8253070470022134680F824207B
:1007A00080F82520C2540333242BFBD1704700BFAF
:1007B000FFF7F2BF70B5044615460E460846022103
:1007C00018F054FF2846022118F050FF104A114B30
:1007D00052F83610012001F500762072266052F89A
:1007E0003520607202F5007500206560E060013B15
:1007F000FDD191F8003292F8002203F00103D207F4
:1008000044BF43F00203DBB2A372204670BD00BFB9
:100810006C9E0200C0D4010090F814322DE9F0471C
:100820000746002B7CD1DFF80C82794AD8F800000B
:10083000D468784D784E92F809E092E80A0091F871
:10084000009093F800C0117A714B1CEA0E0F09EA70
:1008500001015DD09B7A03F0030309B143F0040367
:1008600043F008039910013B91720D2B0AD8DFE881
:1008700003F075077207096F75756F0907720775C1
:10088000013CD460A04219D0DFF89891DFF890A124
:10089000D9F80030002C2246B8BFE21C92109A42D0
:1008A000CAF8002008D04FF47A715C480EF09EFF21
:1008B000DAF80030C9F80030C8F800402B686968E1
:1008C0001A78687A0C782B7A5249044202EA0302B9
:1008D00016D08B7A03F003030AB143F0040343F00C
:1008E00008039A10013BAA720D2B00F28180DFE809
:1008F00003F07B7766777F387B7B387F7766777B03
:100900008B7A03F00303002AEBD043F00403E8E7FB
:100910009B7A03F003030029A4D043F00403A1E76A
:100920003F4E404C40484149394ADFF80881394D33
:1009300000233360384E2360036087F814321C466E
:100940000B601846D360C8F80030EB60336072E784
:10095000023CD46096E70234D46093E70134D4605B
:1009600090E7EC68023CEC6007F5AE7017F084FB92
:100970002F4B00282DD11A68042A3BDC3268A41AB8
:1009800004EB840402EB44049442EC6026D01A6821
:10099000264D254F0132002C1A6022462B68B8BF25
:1009A000E21C92109A423A6006D040F2E9311B48AC
:1009B0000EF01CFF3B682B603460BDE8F087EC68EC
:1009C0000234EC6007F5AE7017F056FB184B0028A8
:1009D000D1D03268002194421960D8D1BDE8F087A7
:1009E000EC68013CEC60BFE7EC680134EC60BBE70D
:1009F000EC68B9E7092A326805DCA41A04EB840420
:100A000002EB8404C0E76421A41A01FB0424BBE7C1
:100A1000107CFF1F207CFF1F847CFF1FB06700201D
:100A2000547CFF1F5C7CFF1F587CFF1F607CFF1FF6
:100A3000DC7BFF1F7C7CFF1FF8B590F81432002B85
:100A400047D12F4D2F4A2868D468577A92E848003A
:100A5000197896F800E0137A2A4E1EEA070F01EA89
:100A600003012ED0B37A03F0030309B143F004036A
:100A700043F008039910013B91720D2B0AD8DFE86F
:100A800003F03C07390709363C3C36090739073C77
:100A9000013CD460A04213D01B4E1C4F3368002C85
:100AA0002246B8BFE21C92109A423A6006D04FF438
:100AB0007A71174805F09AFA3B6833602C60F8BDEC
:100AC000F8BDB37A03F003030029D3D043F0040345
:100AD000D0E70E4E0C490B4A094D002380F8143222
:100AE0001C4633600B601846D3602B60ADE7023CB8
:100AF000D460CFE70234D460CCE70134D460C9E7D6
:100B00008C7CFF1F107CFF1FB47CFF1FB07CFF1F7D
:100B1000A82D00202DE9F84F002383461D460E46E0
:100B200080F87431994600F5D67A00F180081024D7
:100B3000012706E08BF8747101350134102DE4B201
:100B400016D05AF8043F002BF6D0B342F2D8DBF8A7
:100B50001032CAF800905B5D2146404653B901351A
:100B600013F004FB0134102D8BF87571E4B2E8D159
:100B7000BDE8F88F13F0BAFA0028DDD121464046CF
:100B800013F0D6FA8BF87571D6E700BF38B5144C60
:100B90000C40002C1FDB031993F8A0516DB9012202
:100BA00083F8A021C9B2803013F0C2FA2A46214648
:100BB0000C48BDE838400CF0CBB9002283F8A021E6
:100BC000C9B2803013F0D2FA214601220548BDE8AF
:100BD00038400CF0BDB9013C64F00F040134DAE791
:100BE0000F0000800831002038B5144C0C40002C58
:100BF0001FDB031993F8A0216AB90125C9B280301F
:100C000083F8A05113F094FA2A4621460C48BDE817
:100C100038400CF0B1B90025C9B2803083F8A0513A
:100C200013F0A4FA2A4621460548BDE838400CF0E6
:100C3000A3B9013C64F00F040134DAE70F0000802F
:100C40000831002038B5144C0C40002C1FDB031970
:100C500093F8A0216AB90125C9B2803083F8A05168
:100C600013F066FA2A4621460C48BDE838400CF0DD
:100C700023BB0025C9B2803083F8A05113F076FA67
:100C80002A4621460548BDE838400CF015BB013C1A
:100C900064F00F040134DAE70F000080083100200F
:100CA000154B0B40002B10B504461FDB234493F873
:100CB00080216AB9012283F88021C9B204F1800041
:100CC00013F036FA012384F8153284F8143210BD7B
:100CD000002283F88021C9B204F1800013F046FAA3
:100CE000012384F8153284F8143210BD013B63F0FF
:100CF0000F030133DAE700BF0F0000802DE9F8434E
:100D000080460F4600F1800600F29F1510244FF038
:100D1000000903E00134E4B2202C0DD015F8013FA6
:100D2000002BF7D0214601343046E4B213F01EFA0E
:100D3000202C85F80090F1D1094B3B40002B09DBBA
:100D400043440122F9B2304683F8A021BDE8F843BC
:100D500013F0EEB9013B63F00F030133F0E700BF7E
:100D60000F000080F8B507464D1E00F180061024E4
:100D700005E00134E4B213F0DBF9202C0DD015F8B6
:100D8000013F21463046002BF3D121460134304645
:100D9000E4B213F0EBF9202CF1D1012387F875317F
:100DA000F8BD00BF38B500F5D0750446C0F8105244
:100DB00000F29F13002200F2AF1003F8012F8342CC
:100DC000FBD106480BF0ACFE231801222946204631
:100DD00083F89F21BDE83840FFF7C4BF08310020E9
:100DE00038B505460C480BF04DFF05F5D071C5F838
:100DF000101205F29F1305F2AF14002203F8012F21
:100E0000A342FBD12B180122284683F8A021BDE87C
:100E10003840FFF7A7BF00BF0831002038B50546AE
:100E20000C480CF03DFD05F5D071C5F8101205F227
:100E30009F1305F2AF14002203F8012FA342FBD148
:100E40002B180122284683F8A021BDE83840FFF77F
:100E500089BF00BFB067002038B500F5D0750446E3
:100E6000C0F8105200F29F1300F2AF11002203F8F5
:100E7000012F8B42FBD12946044810220BF0E4FCE1
:100E800029462046BDE83840FFF76CBF08310020F6
:100E9000B64B1B6870B5013B00F5AA7504462846A1
:100EA0000C2B00F28480DFE803F04B4B6C4B4B8241
:100EB0004B4B4B25824B070017F0A6F8002840F05B
:100EC000038104F5AE75284617F09EF8002840F01F
:100ED0009E8004F5B275284617F096F8002840F079
:100EE000518104F5B674204617F08EF8002840F0C2
:100EF000D38070BD17F088F8002840F0D48004F546
:100F0000AE75284617F080F8002840F0068104F5F9
:100F1000B275284617F078F8002840F0AB8004F549
:100F2000B674204617F070F80028E2D0204617F07B
:100F3000B1F8002800F040818D4B0022DA6070BDCE
:100F400017F062F8002840F0DE8004F5AE75284600
:100F500017F05AF8002840F0F68004F5B2752846DC
:100F600017F052F8002864D104F5B674204617F043
:100F70004BF80028BDD0204617F08CF80028DBD1B4
:100F800070BD17F041F80028B3D0284617F082F85A
:100F9000002800F01281774A636A0021D160002B9B
:100FA00000F00C814FF47A70BDE87040184717F0DC
:100FB0002BF800284ED104F5AE75284617F024F81A
:100FC000002840F0AE8004F5B275284617F01CF8F2
:100FD00060B904F5B674204617F016F8002888D0DA
:100FE000204617F057F80028A6D170BD284617F004
:100FF00051F80028EDD0604B002204F5B674DA6099
:10100000204617F001F800283FF473AFE8E72846C0
:1010100017F040F800283FF45CAF584B002204F56D
:10102000B275DA60284616F0EFFF00283FF459AF9A
:10103000A8E0284617F02EF8002895D04E4B002245
:1010400004F5B674DA60204616F0DEFF00283FF49F
:1010500050AF90E7284617F01DF80028ABD0454B5D
:10106000002204F5AE75DA60284616F0CDFF0028A0
:10107000A9D056E0284617F00DF800283FF44FAFEE
:101080003D4B002204F5B674DA60204616F0BCFF32
:1010900000283FF42EAF49E7204616F0FBFF00285A
:1010A0007FF44AAF70BD284616F0F4FF00283FF4E5
:1010B00026AF304A636A0021D160002B3FF41FAF96
:1010C0004FF47A7098471AE7284616F0E3FF002895
:1010D0003FF4F7AE2A480BF08BFC421E54FA82F222
:1010E00092F8A03183F0010382F8A031002B5BD18C
:1010F00000F10F01C9B204F1800013F037F80123A9
:1011000084F87531DDE6284616F0C4FF00283FF468
:101110001CAF1B480BF06CFC17E7284616F0BAFF13
:10112000F5E6284616F0B6FF00283FF44CAF134B07
:10113000002204F5B275DA60284616F065FF002833
:101140003FF447AF52E7284616F0A4FF00283FF4CB
:1011500004AF0A4B002204F5B275DA60284616F097
:1011600053FF00283FF400AF63E700BFBC6FFF1FD1
:10117000407CFF1F107CFF1F307CFF1F207CFF1F67
:1011800008310020284616F085FF00283FF4A9AE5C
:101190000B4B002204F5B674DA60204616F034FFDB
:1011A00000283FF4A6AE77E700F10F01C9B204F1C1
:1011B000800012F0BDFFA2E770BD70BD70BD00BF22
:1011C000307CFF1FA1F57A71032906D8DFE801F012
:1011D0000E0A0602074B0022DA607047064B002217
:1011E000DA607047054B0022DA607047044B00223A
:1011F000DA607047407CFF1F307CFF1F207CFF1FA0
:10120000107CFF1F70B500F586750446284616F061
:10121000FBFE00B970BD284616F03CFF0028F9D04F
:10122000A36ABDE87040184708B590F8A40017F00D
:1012300007FE084A1368C0F58040A3F164018842A4
:1012400002DB6433984201DD106008BD4FF0FF30CF
:1012500008BD00BF6C7CFF1F08B590F8A80017F010
:10126000EFFD074A1368A3F16401884202DB64338F
:10127000984201DD106008BD4FF0FF3008BD00BF8F
:10128000647CFF1F30B500F58A7483B005462046A4
:1012900016F0BAFE30B9204616F0F2FE80B90020F2
:1012A00003B030BD204616F0F5FE0028F3D00A4BFF
:1012B0001B680193019BC5F8B030012003B030BD1D
:1012C00095F824320020042BC5F8B000E7D185F84A
:1012D0002402A5F82602E3E7D0940020054B82B053
:1012E0001B680193019B03F5FA63C0F8283202B032
:1012F000704700BFD0940020054B82B01B6801935B
:10130000019B03F5FA63C0F82C3202B0704700BFAE
:10131000D0940020F0B5B1B007462849284E684661
:10132000144617F033FB274904A817F02FFB264972
:1013300008A817F02BFB25490CA817F027FB244918
:1013400010A817F023FB234914A817F01FFB22490C
:1013500018A817F01BFB21491CA817F017FB204900
:1013600020A817F013FB1F4924A817F00FFB1E49F4
:1013700028A817F00BFB1D492CA817F007FB86FBCC
:101380000426E317C3EB660606EB4601A4EB8101D6
:10139000C9B20DEB0111384617F00CFBF1B238461B
:1013A00017F09CFB6D4630AC103C204617F0AEFAAF
:1013B000AC42F9D1384631B0F0BD00BFA4580200AC
:1013C000ABAAAA2AA8580200F8590200AC58020099
:1013D00004580200C85B0200B0580200EC5C020036
:1013E000B4580200B8580200BC580200C0580200AD
:1013F000F0B5144DDFF854E00E4617460FCD8FB010
:1014000002AC0FC40FCD0FC495E80F008EFB065E33
:10141000F517C5EB6E0584E80F0005EB450EA6EB4E
:101420008E060EABF6B203EB8606EDB256F8303CF4
:10143000054A0095384604211EF0F8FC38460FB0E6
:10144000F0BD00BF74580200C4580200ABAAAA2A1B
:1014500010B5012200210D48FFF7ACF9032202214B
:101460000B48FFF7A7F9052204210A48FFF7A2F964
:10147000082206210848FFF79DF921232322222173
:101480000648BDE8104012F0B3BA00BF107CFF1F41
:10149000207CFF1F307CFF1F407CFF1F907CFF1FC4
:1014A00010B586B00B460A4C0A4A684615211EF054
:1014B000BDFC00221146204612F0C6FB68461EF015
:1014C0003FFF69460246204617F038F806B010BDC7
:1014D000907CFF1FCC5802002DE9F04F354D83B0B2
:1014E000804635480D40894604F05EF8002D82465E
:1014F0004EDB554543DC08F1800608F29F1B1024A3
:10150000002703E00134E4B2202C0DD01BF8013F8A
:10151000002BF7D0214601343046E4B212F026FE0B
:10152000202C8BF80070F1D1554536D0ECB2214615
:10153000214803F0EBFEB0B1214606221E4803F01D
:101540000DFF1E4B1B680193019BC8F8D430454426
:1015500001235FFA89F1304685F8A03112F0E8FDE9
:1015600003B0BDE8F08F40461549FFF799FF5FFAD9
:1015700089F1304612F0FAFD03B0BDE8F08F5FFA52
:1015800089F108F1800012F0F1FD03B0BDE8F08FA1
:10159000013D65F00F050135ABE7E9B208220648C9
:1015A00003F0DCFE054B1B680093009BC8F8D830A5
:1015B0004544CDE70F000080A82D0020D0940020E6
:1015C000E05802002DE9F84F4E4D04464E480BF00E
:1015D000B7FA2B68033B0646042B00F28280DFE853
:1015E00003F032681C80030070B104F29F140025E0
:1015F000294645480BF010FB0135003018BF01208B
:10160000B54204F8010FF3D10B21404819F00AF953
:101610003F48BDE8F84F16F0CDBF58B104F29F1413
:101620000025294638480BF0E5FA0135B54204F8A3
:10163000010FF6D10921374819F0F4F83448BDE814
:10164000F84F16F0B7BF344803F0AEFF064638B384
:1016500000F110085FFA88FA04F1800704F29F1B7A
:1016600010254FF00109294601350BF8019F384636
:10167000EDB212F05DFDAA45F5D1102E88BF002510
:1016800002D80DE006F11008A31901365FFA88F1BF
:1016900083F8A0513846F6B212F068FD102EF1D84A
:1016A0000A211E4819F0BEF81948BDE8F84F16F097
:1016B00081BF68B104F29F140025294612480BF03F
:1016C00087FA013580F00100B54204F8010FF4D12A
:1016D0000921134819F0A6F80D48BDE8F84F16F097
:1016E00069BF20460F49FFF7DBFE06210E4819F0BF
:1016F00099F82968064816F0ADFF0548BDE8F84F8F
:1017000016F058BFBC6FFF1F08310020F4580200CC
:101710001871FF1F00590200A82D0020185902005F
:101720000C590200245902003859020038B500F55E
:10173000D0750446C0F8105200F29F13002200F248
:10174000AF1003F8012F8342FBD12046FFF73AFF89
:1017500029462046BDE83840FFF704BB10B588B0E5
:101760000B4600920A4C0B4A02A815211EF05EFBA4
:1017700000221146204612F067FA02A81EF0E0FD92
:1017800002A90246204616F0D9FE08B010BD00BFDF
:10179000907CFF1F4059020030B5D0F818120C4C55
:1017A0000C4A87B00546013168461EF03FFB002118
:1017B000C5F828122046022212F046FA68461EF0AA
:1017C000BFFD69460246204616F0B8FE07B030BDA0
:1017D000907CFF1F5459020030B5D0F81C120C4CFD
:1017E0000C4A87B00546013168461EF01FFB0021F8
:1017F000C5F82C122046012212F026FA68461EF087
:101800009FFD69460246204616F098FE07B030BD9F
:10181000907CFF1F5459020010B5D0F8283282B0D6
:1018200004462BB10E4A12680092009A934210D3DC
:10183000D4F82C325BB10A4A12680192019A9342A1
:1018400005D22046FFF7C8FF0023C4F82C3202B0AF
:1018500010BDFFF7A1FF0023C4F82832E8E700BF5E
:10186000D094002070B50D4D0C460646FFF794FF4E
:1018700002220021284612F0E7F920461EF060FD02
:1018800021460246284616F059FE20461EF058FD15
:10189000142828BF1420C6F8180270BD907CFF1FC2
:1018A00070B5114D0C460646FFF776FF284602221A
:1018B000002112F0C9F920461EF042FD21460246E1
:1018C000284616F03BFE20461EF03AFDC6F81802E8
:1018D00020461EF035FD0146204618F0A3FF0348C0
:1018E000BDE8704016F066BE907CFF1F1871FF1FA8
:1018F00010B586B00B460D4A0D4C152168461EF0FA
:1019000095FA68461EF01CFDC0F11001C9B22046D0
:10191000002212F099F968461EF012FD694602464F
:10192000204616F00BFE06B010BD00BF6C59020039
:10193000907CFF1F70B50E4C05460E4620460122D6
:10194000002112F081F913220A49204616F0F6FD13
:1019500020460222002112F077F93146204616F087
:1019600003FE1323C5F81832C5F81C3270BD00BF42
:10197000907CFF1F705902002DE9F04F2DED028B76
:1019800091B000F5C07103907C480AF009FF00286F
:1019900040F09180039B0290FF27064680468146D7
:1019A00001900446BB463D46009703F27F1AB7EE0E
:1019B000008A02E00134102C4FD01AF8012F002ABF
:1019C000F8D0224608A86D490AF09CFC9DF8242016
:1019D0000098824208D001990131CBB29042019324
:1019E000034628BF13460093DDED0D7AF4EE487AE6
:1019F000F1EE10FA03D0029A0132D3B20293F4EE60
:101A0000C87AF1EE10FA21465C48D8BFB0EE678A7A
:101A10000BF0BAF8A84207D0854209F1010928BFA6
:101A200005465FFA89F9EDB29DF839205A4506D08E
:101A300008F1010893455FFA88F828BF93469DF89E
:101A40003820BA42B6D0974204F1010406F10106EB
:101A500028BF1746102CF6B2AFD10122002148480A
:101A600012F0F2F812224749454816F067FD294660
:101A700004A816F0BDFFB9F1010F25D9424920E0B5
:101A8000424904A817F01CF8069B112BF8D9022232
:101A900000213B4812F0D8F804A9394816F064FD3B
:101AA000039C102312220DEB0300C4F81822C4F883
:101AB0001C3216F02BFF11B0BDEC028BBDE8F08F8D
:101AC000324904A816F0FCFF069B022BF8D95946B0
:101AD00008A816F08DFF08A904A816F0EDFF08A8C5
:101AE00016F014FFB8F1010F05D9274900E0274986
:101AF00004A816F0E5FF069B052BF8D9394608A87F
:101B000016F076FF08A904A816F0D6FF08A816F06C
:101B1000FDFE012E05D91C4900E01C4904A816F061
:101B2000CFFF069B082BF8D9009A039908A8FFF766
:101B3000F1FB08A904A816F0BFFF08A816F0E6FEFE
:101B4000019B012B05D9104900E0104904A816F0AB
:101B5000B7FF069B0C2BF8D9B0EE480A022108A863
:101B600016F05AFF08A904A816F0A6FF08A816F058
:101B7000CDFE029B012B87D9034982E70831002063
:101B8000907CFF1F98590200AC590200F0590200E6
:101B900010B502220C460B48122112F055F80A49E2
:101BA0000848022216F0CAFC082CD4BF13211221C7
:101BB0000448022212F048F821460248BDE81040CD
:101BC00016F048BD907CFF1FDC58020038B5044673
:101BD0000E480AF0B5FB04F5D0710546C4F81012A2
:101BE00004F29F1304F2AF10002203F8012F834286
:101BF000FBD163190122204683F8A021FFF7B2F838
:101C000029462046BDE83840FFF7C2BF0831002012
:101C100010B503220C460B48122112F015F80A49A0
:101C20000848022216F08AFC082C94BF13211221C6
:101C30000448032212F008F8611C0248BDE8104075
:101C400016F008BD907CFF1FDC58020030B5204B19
:101C50001B7883B004460D461BB91E4B1B68092B2D
:101C600012D01D48A46B0AF079FB1C4929400029B9
:101C7000024604DBC9B20220A04703B030BD0139DF
:101C800061F00F010131F5E7FFF738F813492940FA
:101C9000002918DBCDB229460F480AF077FB0E4821
:101CA0000AF040FB01462046FFF7FAFD0C4B1B688B
:101CB0000193019B03F5FA632946C4F828322046B4
:101CC000FFF7A6FFD9E7013961F00F010131E1E724
:101CD00001670020BC6FFF1F083100200F0000804B
:101CE000D094002010B502220C460D480F2111F0AF
:101CF000ABFF0C490A48022216F020FC092C4FF0D9
:101D0000020294BF10210F21054811F09DFF2146CA
:101D100000230A220248BDE8104016F05BBC00BF59
:101D2000907CFF1FDC58020038B504460E480AF0CC
:101D300015FB04F5D0710546C4F8101204F29F1388
:101D400004F2AF10002203F8012F8342FBD1631984
:101D50000122204683F89F21FFF704F829462046F8
:101D6000BDE83840FFF7BEBF0831002038B5524DFE
:101D70002B68013B04460C2B00F29380DFE803F054
:101D80005F6B6D07071A0726313C4A867B000023EC
:101D900000F5D075026A4362012380F83132C0F841
:101DA00010528262FFF70EFC29462046BDE83840FB
:101DB000FEF7D8BF036A8362002200F5C071426259
:101DC000C0F81012BDE83840FEF7CCBF8368026A45
:101DD0004362012380F831328262BDE83840FEF769
:101DE000E1BF0023026A4362012380F8313282623C
:101DF000BDE83840FEF7F4BFC36A026A43620123BC
:101E000080F831328262FFF709F82C48BDE838408B
:101E10000CF0C2BB036A836200F5D07100224262FB
:101E2000C0F8101200F29F1300F2AF1003F8012F58
:101E30008342FBD12046BDE83840FEF793BFC3681C
:101E4000226A63620123A26284F831322046BDE82F
:101E50003840FFF7BBBE0369F2E70023026A436222
:101E6000012380F831328262FFF760FC1448BDE83C
:101E7000384003F01FBF0023026A4362012380F849
:101E800031328262BDE83840FEF7E6BF436B026A3A
:101E90004362012380F831328262BDE83840FFF7A7
:101EA00043BF2921074818F0BDFC29680648BDE852
:101EB000384016F0CFBB00BFBC6FFF1FB0670020DB
:101EC000A82D0020B05902001871FF1F134A144BAF
:101ED000126870B553F82250124C86B00646284658
:101EE0001EF02EFAD6F820120F4AC6F820028142C0
:101EF000B8BF01462B46013168461DF097FF2046CA
:101F00000122002111F0A0FE68461EF019FA694670
:101F10000246204616F012FB06B070BDBC6FFF1FD4
:101F20007C6FFF1F907CFF1FDC59020070B500F52D
:101F3000927586B00446284616F066F800284CD103
:101F4000284616F09DF8002840F04D8104F59A755A
:101F5000284616F059F800286ED1284616F090F859
:101F6000002840F04C8104F59675284616F04CF890
:101F7000002840F08E80284616F082F8002840F0B5
:101F80002A8104F59E75284616F03EF8002840F098
:101F9000AB80284616F074F8002840F0208104F544
:101FA000A275284616F030F8002840F0C080284678
:101FB00016F066F8002840F02E8104F5A675284634
:101FC00016F022F8002840F0D580284616F058F880
:101FD000002840F0EC8006B070BD284616F05AF894
:101FE0000028ADD02046FFF7D7FBA34A1368012B8A
:101FF00000F01581022B00F02181032B00F0E1801D
:102000000A2B00F030819D4B1B6813602046FFF7C0
:10201000ADFE2046FFF75AFF994B1B680093009BCB
:10202000C4F8B83004F59A75012384F814322846B0
:1020300015F0EAFF002890D0284616F02BF800286B
:102040008BD02046FFF7A8FB8B4A1368062B00F0C5
:10205000F0800C2B00F001810D2B00F0AD80894B3E
:102060001B6813602046FFF781FE2046FFF72EFF16
:10207000834B1B680193019BC4F8C03004F596752F
:10208000012384F81432284615F0BEFF00283FF4DF
:1020900072AF284615F0FEFF00283FF46CAF2046D3
:1020A000FFF77AFB744B1A68052A00F0BD80042AFA
:1020B00000F0CE80744A12681A602046FFF756FE80
:1020C0002046FFF703FF6E4B1B680293029BC4F888
:1020D000BC3004F59E75012384F81432284615F0AF
:1020E00093FF00283FF455AF284615F0D3FF002892
:1020F0003FF44FAF2046FFF74FFB5F4B07222046D0
:102100001A60FFF733FE2046FFF7E0FE5C4B1B68CA
:102110000393039BC4F8C43004F5A275012384F82B
:102120001432284615F070FF00283FF440AF2846CF
:1021300015F0B0FF00283FF43AAF2046FFF72CFB24
:102140004D4B082220461A60FFF710FE2046FFF78D
:10215000BDFE4B4B1B680493049BC4F8C83004F5C8
:10216000A675012384F81432284615F04DFF002887
:102170003FF42BAF284615F08DFF00283FF425AF24
:102180002046FFF709FB3C4B092220461A60FFF767
:10219000EDFD2046FFF79AFE394B1B680593059B22
:1021A000C4F8CC30012384F8143206B070BD00238B
:1021B000C4F8CC3006B070BD324906230B60136002
:1021C00050E72E4D314901264FF0FF300A232E6093
:1021D000086013601AE70023C4F8BC30D1E600237E
:1021E000C4F8C430DBE694F824220023022AC4F8A1
:1021F000B83004BF84F82432A4F82632A6E694F856
:1022000024220023032AC4F8C03004BF84F82432F7
:10221000A4F82632A7E60023C4F8C830CDE6174854
:10222000022103601160F1E6174904220A601A6076
:1022300043E714480C210360116013E70F4D134965
:1022400001264FF0FF3003232E6008601360DDE6A7
:102250000D4905220A601A602FE70A4906200D235E
:1022600008601360FEE6054D084901234FF0FF307A
:102270002B6013600860C9E6BC6FFF1F3C6FFF1F37
:10228000D0940020346FFF1F386FFF1FB86FFF1FFF
:1022900070B5044616480E460AF060F806F00F03C3
:1022A0000133984206D004F5D0712046BDE8704055
:1022B000FEF758BD054631462046FEF71FFD29466C
:1022C0002046FFF70FFD0A480AF0DCFC01462046D5
:1022D000FFF79EFC074B062220461A60FFF746FDDB
:1022E0002046FFF7F3FD012384F8143270BD00BFD0
:1022F00008310020BC6FFF1F10B500220C461248A9
:10230000112111F0A1FC032210490F4816F016F913
:10231000632C4FF000020CDC092CCCBF12211321DE
:10232000094811F091FC21460748BDE8104016F01D
:1023300091B91121044811F087FC21460248BDE8FB
:10234000104016F087B900BF907CFF1F9059020023
:1023500010B501220C461248112111F075FC032220
:1023600010490F4816F0EAF8092C4FF001020CDD75
:10237000632CD4BF12211121094811F065FC2146BC
:102380000748BDE8104016F065B91321044811F064
:102390005BFC21460248BDE8104016F05BB900BF67
:1023A000907CFF1F90590200F0B587B005460C9F46
:1023B0000D9E0E9C0F9829606A601499159AAB6067
:1023C000EF60109B119F2E616C61129E139C6963DC
:1023D000AA63EB61A8612F62EE622C6305F1A8038A
:1023E00005F1D001002243F8042F9942FBD105F2F8
:1023F0007F1205F28F13002102F8011F9A42FBD1D0
:1024000005F29F11002203F8012F9942FBD105F537
:10241000D67305F5F671002243F8042F9942FBD1DB
:1024200005F2EF1305F20F21002203F8012F994264
:10243000FBD1762475217422732305F1800677275A
:102440000394029101920093304672230497712203
:10245000702111F083FFEB6B002BC8BF002420DD3F
:102460002146304611F064FE304611F0D1FF0A20BB
:1024700017F04CF90134EB6BE4B29C42F0DB002B1B
:102480000FDD00242146304611F070FE304611F079
:10249000BFFF0A2017F03AF90134EB6BE4B29C421B
:1024A000F0DB142017F032F92846FFF75FFC2846CE
:1024B000FFF70CFD0F480FF0F5F801462846FFF72F
:1024C0001BFF0C480FF0F0F801462846FFF740FFCD
:1024D00009480AF0D7FB01462846FFF799FB064852
:1024E00009F03CFF0146284607B0BDE8F040FFF781
:1024F000F9BB00BFD490002008310020F8B51F4C74
:102500001F4F154600220E462046114611F09CFB37
:10251000204611221B4916F011F8002211462046D0
:1025200011F092FB30461DF00BFF3146024620466B
:1025300016F004F820460122002111F085FB284600
:102540001DF0FEFE29460246204615F0F7FF3046F4
:102550001DF0F6FE0146304618F064F9384616F0D4
:1025600029F828461DF0ECFE0146284618F05AF9D5
:102570003846BDE8F84016F01DB800BF907CFF1F3C
:102580001871FF1FE0590200B0B588B002AF0446D1
:102590000B4600921521164A164D38461DF046FC92
:1025A00038461DF0CDFED4F81832C4F8180298420F
:1025B0000146B8BF194601F1080323F00703ADEB4C
:1025C000030D02AC3B460C4A013120461DF02EFCA7
:1025D00028460222002111F037FB20461DF0B0FEF4
:1025E00021460246284615F0A9FF1837BD46B0BD62
:1025F000F4590200907CFF1FDC5902002DE9F047DE
:1026000090F8313282B00546002B40F08280584E5F
:10261000584A3068D46892F809E092E8880019783E
:1026200097F800C0137A534F1CEA0E0F01EA03011A
:102630005AD0BB7A03F0030309B143F0040343F01B
:1026400008039910013B91720D2B0AD8DFE803F0C3
:102650005E075807095B5E5E5B090758075E013C31
:10266000D460C31EA34202DC0330A04239DA4248E0
:1026700009F074FE3368E31A48BF033300EBA30785
:10268000002F39DC0127DFF80081D8F800309F42A5
:1026900026D05FFA87F94946374809F08BFF3A465A
:1026A00036492846FFF770FF354B364A1B680193C1
:1026B000019B126803F5FA630C2AC5F8283239D059
:1026C00049462846FFF70EFB2B480AF0DBFA014685
:1026D0002846FFF79DFA2846FFF748FBC8F8007028
:1026E000346002B0BDE8F087BB7A03F00303002931
:1026F000A7D043F00403A4E7022FA8BF0227C2E734
:102700000234D460ADE7023CD460AAE70134D4605F
:10271000A7E7002380F831321748154E09F01EFE56
:102720001949144A086003B29B001C4618463360DE
:10273000D36070E7D8F80030E8192B44002209F183
:102740000F014FF0010A05F1800980F89FA1C9B27D
:1027500083F89F21484611F0EBFCD8F800100F31A8
:102760004846C9B211F002FD85F875A1B6E700BF71
:10277000807CFF1F107CFF1F08310020F46C0200DA
:10278000D0940020BC6FFF1FF07BFF1F2DE9F041AC
:10279000A84D2DED028B2B68DA0782B0044640F17C
:1027A000EB81A54D2B68DB0740F1D78194F81432FB
:1027B000002B40F0AF81A14DA14E2B6869681A78BB
:1027C000687A0F782B7A9D49074202EA03021DD0EE
:1027D0008B7A03F003030AB143F0040343F00803C8
:1027E0009A10013BAA720D2B00F26881DFE813F00A
:1027F000540150014C01500166011600540154016E
:102800001600660150014C01500154018B7A03F00F
:102810000303002AE4D043F00403E1E7EB68023B42
:10282000EB6007EE903A9FED876A96ED007ADFED58
:10283000866AF8EEE77A87EE868A77EE267AB4EE35
:10284000E78AF1EE10FA06DA37EE667AB4EEC78A56
:10285000F1EE10FA40D87D4BDFED7D7AD3ED006AC2
:10286000B1EE007AE6EEC77AB4EEE78AF1EE10FA3E
:1028700040F13A81B9EE008A26EE888ADFED717A5E
:1028800068EE277AFDEEE77AC5ED037A714D724F57
:1028900095ED000AF5EE007A68EE277AF4EE407ABC
:1028A000F1EE10FAC7ED007A40F075819FED650AF0
:1028B0006A4967EE807A2046FDEEE77A17EE902AA5
:1028C000FFF762FE664B86ED008A1B680193019B51
:1028D00003F5FA63C4F82832624A1368506819781D
:1028E0000578507A137A054201EA030100F0F3807B
:1028F000937A03F0030309B143F0040343F00803A0
:102900009910013B91720D2B00F2D680DFE813F095
:10291000D000C800CC00C800D4000E00D000D00009
:102920000E00D400C800CC00C800D000D568023D1D
:10293000D5604D4E3368DA1EAA4202DCDA1CAA4288
:102940001DDA4A4FDFF83C81EA1A3B68D8F80010DC
:1029500048BF033203EBA203082BA8BF082323EAD6
:10296000E37399423B6006D0194641480EF094FE4D
:102970003968C8F800102046FFF7EAFC35603D4A88
:102980001368506819780578507A137A054201EA7D
:10299000030100F09780937A03F0030309B143F039
:1029A000040343F008039910013B91720D2B00F2D0
:1029B0008780DFE803F03B37333785073B3B0785EC
:1029C0003733373BD568023DD5602B4E3068C31E88
:1029D000AB4202DCC31CAB421BDA284A281A13683C
:1029E00048BF033003EBA000002840F3E280B0F5BD
:1029F000967FA8BF4FF49670214F10603B68DFF8B8
:102A00007C80984204D063699847D8F800303B60D6
:102A1000356002B0BDEC028BBDE8F081D5680235AF
:102A2000D560D2E7D568013DD560CEE7D5680135E0
:102A3000D560CAE70C7CFF1F047CFF1F207CFF1FB2
:102A4000687CFF1F0000C8420AD7233D707CFF1F2F
:102A500000000000AC7CFF1FE47BFF1FFC5902005C
:102A6000D0940020307CFF1FBC7CFF1F007CFF1F28
:102A7000D4900020407CFF1F087CFF1F787CFF1F44
:102A8000E87BFF1FFC7BFF1FEB680233EB60C8E6AF
:102A9000EB68013BEB60C4E6EB680133EB60C0E63A
:102AA000D568013DD56044E7D5680235D56040E77B
:102AB000D5680135D5603CE7D5683AE7EB68B0E604
:102AC000D56882E7937A03F0030300293FF46BAFE4
:102AD00043F0040367E7937A03F0030300293FF40C
:102AE0000FAF43F004030BE7334BD3ED007A27EE2F
:102AF000877AB4EEC78AF1EE10FA7FF7C7AEDFED42
:102B00002F7A67EE277AB0EE478AFDEEE77AC5EDB9
:102B1000037ABBE62A482B4DDFF8C4E02A4E002397
:102B2000002204F5C077036084F81422EA60394675
:102B30002648CEF8003033600AF014F9244B2348BD
:102B400083ED000A39460AF04BF9F7EE007A37EECA
:102B5000C00A194B83ED000A2FE6284616F0D8FA72
:102B600000283FF423AE1B480EF09EFD1A4B186060
:102B7000284616F0D3FA19E6284616F0C9FA0028B6
:102B80003FF40FAE13480EF08BFD144B186028462F
:102B900016F0C4FA05E637EEC00A94F830220B4866
:102BA00004F5C0710AF0A0FAD7ED007AC5ED007AFD
:102BB0007CE6012020E700BF747CFF1F0000C842B4
:102BC000E47BFF1F207CFF1F687CFF1F0831002073
:102BD000707CFF1FD4900020007CFF1F787CFF1FBB
:102BE000AC7CFF1F384B1B680D2B00D070472DE9C4
:102BF000F041364BCFB20B4007F00F06002B82B0EE
:102C000006F1010639DBC418054694F8A0317BB102
:102C10002F4B93F80080B8F1000F33D14246314674
:102C20002C4809F087FE002838D102B0BDE8F081B9
:102C3000274B1B78DBB901223146264809F07AFE82
:102C400030B3012384F8A031394605F1800011F03A
:102C50006FFA324620492846FFF796FC1F4B1B6847
:102C60000193019B03F5FA63C5F82832DDE7836B16
:102C70003246012104209847D7E7013B63F00F0358
:102C80000133C0E7836B3246002104209847CCE72C
:102C9000394605F1800011F069FAC6E7394605F1B9
:102CA000800084F8A08111F061FA32460C49284670
:102CB000FFF76AFC094B1B680093009B03F5FA635E
:102CC000C5F82832B1E700BFBC6FFF1F0F000080BE
:102CD0000167002008310020185A0200D09400201B
:102CE000085A020010B5013A92B00446052A00F2D3
:102CF000B280DFE802F0203A57728C0340F6B83316
:102D0000994200F0138140F29C8041F2883399424D
:102D100000F0C98041F65833994240F097809649B7
:102D2000FEF7BEFD954B1B681193119B03F5FA63EB
:102D3000C4F8283288E0924801910AF079FC0199A0
:102D400040F6B833994200F0EB807AD941F28833EB
:102D5000994200F0A28041F65833994276D102465A
:102D600088492046FFF710FC6EE0874A40F6B833EA
:102D70009942126800F0C88063D941F288339942C1
:102D800000F0AA8041F6583399425FD17F49FEF79F
:102D900087FD7A4B1B680593059B03F5FA63C4F81E
:102DA000283251E040F6B833994200F0A18048D96A
:102DB00041F28833994200F0838041F658339942BA
:102DC00044D17349FEF76CFD6C4B1B680893089B5C
:102DD00003F5FA63C4F8283236E040F6B833994276
:102DE00000F0BE802DD941F28833994249D041F696
:102DF000583399422AD16749FEF752FD5F4B1B6851
:102E00000B930B9B03F5FA63C4F828321CE040F6E1
:102E1000B833994200F0978013D941F28833994230
:102E200022D041F65833994210D15A49FEF738FD65
:102E3000524B1B680E930E9B03F5FA63C4F82832BD
:102E400002E0B1F57A7F01D112B010BD2046FEF745
:102E5000A3FC12B010BD5049FEF722FB3A214F48A7
:102E600017F0E0FC12B010BD00224D49FFF78CFBBB
:102E7000424B1B680D930D9B03F5FA63C4F828328F
:102E8000E2E74849FEF70CFD3C4B1B680A930A9B9E
:102E900003F5FA63C4F82832D6E7024642492046D1
:102EA000FFF772FBD0E700224049FFF76DFB334B81
:102EB0001B681093109B03F5FA63C4F82832C3E72C
:102EC0003B49FEF7EDFC2D4B1B680793079B03F571
:102ED000FA63C4F82832B7E73649FFF755FB274BAA
:102EE0001B680493049B03F5FA63C4F82832ABE72C
:102EF0003149FEF7D5FC214B1B680693069B03F571
:102F0000FA63C4F828329FE72C49FFF73DFB1B4BBF
:102F10001B680393039B03F5FA63C4F8283293E715
:102F2000024626492046FFF72FFB8DE70022244961
:102F3000FFF72AFB114B1B680F930F9B03F5FA63F6
:102F4000C4F8283280E700221E49FFF71DFB0B4B17
:102F50001B680C930C9B03F5FA63C4F8283273E7E3
:102F60001949FEF79DFC054B1B680993099B03F566
:102F7000FA63C4F8283267E71C5B0200D094002093
:102F8000B0670020445A0200B86FFF1F645A020065
:102F9000985A0200CC5A02002C5B02003C5B0200F3
:102FA000E85A0200BC5A0200345A02000C5B0200CC
:102FB000885A0200545A0200745A0200245A02002D
:102FC000F85A0200D45A0200A45A0200B1F57A7FDE
:102FD00038B504D8B0F8264294B3002038BD40F686
:102FE000B834A14212D8B0F82612B1F57A7FF4D1E4
:102FF000A0F826422146FFF775FE0821284817F061
:1030000011FC284815F0D6FA002038BD41F2883569
:10301000A94222D941F65834A142B0F826122ED83E
:10302000A942DAD1A0F826422146FFF75BFE04212F
:103030001D4817F0F7FB1B4815F0BCFA002038BDFF
:103040004FF47A72A0F826220B21184817F0EAFBF9
:10305000144815F0AFFA204638BDB0F82612A14248
:10306000BBD1A0F826522946FFF73CFE06211048A6
:1030700017F0D8FB0B4815F09DFA012038BDA1428E
:10308000ABD10024A0F826422146FFF72BFE0821F1
:10309000084817F0C7FB034815F08CFA204638BDE6
:1030A000845B02001871FF1F985B0200785B0200CE
:1030B000905B0200A05B0200B0B588B002AF04468E
:1030C000019300920B46174A174D152138461CF004
:1030D000ADFE38461DF034F9D4F81832C4F81802A1
:1030E00098420146B8BF194601F1080323F00703CF
:1030F000ADEB030D02AC3B460C4A013120461CF0FF
:1031000095FE28460222002110F09EFD20461DF06B
:1031100017F921460246284615F010FA1837BD4621
:10312000B0BD00BFAC5B0200907CFF1FDC59020009
:103130002DE9F04190F8143282B00546002B40F0A2
:1031400082804E4F4E4E3B6879681A78787A0C78B8
:103150003B7A4A49044202EA030215D08B7A03F013
:1031600003030AB143F0040343F008039A10013B40
:10317000BA720D2B65D8DFE803F058605C60640F0D
:1031800058580F64605C60588B7A03F00303002A80
:10319000ECD043F00403E9E7FC68023CFC603368D0
:1031A000DA1CA24202DB033BA3423BDD354B1B781A
:1031B000C3EB83739B00A34204DC334B1B789B005F
:1031C000A34201DAFB601C46304FDFF8D0803A683A
:1031D000002C2346B8BFE31C9B109342C8F8003074
:1031E0001FD09A1AD2B295F83032294805F5C0712D
:1031F00009F0F6FED8F80080C7F8008001466A465C
:103200002846FEF7F5F84246034622492846FFF7CE
:1032100053FF214B1B680193019B03F5FA63C5F82B
:103220002832346002B0BDE8F081FC680134FC60F3
:10323000B5E7FC680234FC60B1E7FC68013CFC6067
:10324000ADE7FC68ABE715490C4F104A0C4E10482F
:10325000002305F5C0740B60FB60214613603360EA
:1032600009F020FD074B21461870094809F04AFD76
:10327000054BC0F17F00187065E700BF107CFF1F91
:10328000F87BFF1F507CFF1FF47BFF1FE07BFF1FBD
:1032900008310020B85B0200D0940020EC7BFF1FB7
:1032A000134B1A680D2A10B5044609D80123934020
:1032B00043F2B6321A405AB91A0714D45B050ED439
:1032C0002046FFF735FF2046BDE81040FFF75EBA05
:1032D000FFF794F92046BDE81040FFF757BABDE864
:1032E0001040FDF799BABDE81040FDF7A5BB00BF3F
:1032F000BC6FFF1FF0B58DB01D4D9DF848409DF887
:103300004CE09DF85070CDF80CE001340193064676
:103310004B1C00920294049707A8164A164C1421DD
:103320001CF084FD28460222002110F08DFC07A825
:103330001DF006F807A90246284615F0FFF807A871
:103340001CF0FEFFC6F81802204615F033F91421D0
:103350000A4817F067FA07A81CF0F2FF014607A811
:1033600017F060FA204615F025F90DB0F0BD00BF4A
:10337000907CFF1FCC5B02001871FF1FE45B020012
:10338000F8B5184D0C4617460646FEF705FA022218
:103390000021284610F058FC20461CF0D1FF2146A1
:1033A0000246284615F0CAF820461CF0C9FF022242
:1033B000C1B2284610F048FC3946284615F04AF9B3
:1033C00020461CF0BDFF0222C1B2284610F03CFC92
:1033D00020461CF0B5FF0630142828BF1420C6F87C
:1033E0001802F8BD907CFF1F70B51E4D82B00C46D0
:1033F0008DED010A0646FEF7CFF92846022200218C
:1034000010F022FC20461CF09BFF21460246284675
:1034100015F094F820461CF093FF0222C1B2284612
:1034200010F012FC9DED010A10EE100A1BF030FBAB
:1034300041EC100B0221284615F016F920461CF02D
:103440007FFF0222C1B2284610F0FEFB20461CF08E
:1034500077FF0630142828BF1420C6F8180202B0DF
:1034600070BD00BF907CFF1FF8B51C4D0C46164682
:103470000746FEF791F902220021284610F0E4FBEE
:1034800020461CF05DFF21460246284615F056F8FE
:1034900020461CF055FF0222C1B2284610F0D4FB92
:1034A00030461CF04DFF31460246284615F046F8DE
:1034B00020461CF045FF0222C1B2284610F0C4FB92
:1034C00020461CF03DFF044630461CF039FF2044E6
:1034D000142828BF1420C7F81802F8BD907CFF1FDD
:1034E0002DE9F0411D4D1F460C4616468046FEF75D
:1034F00053F902220021284610F0A6FB20461CF0BA
:103500001FFF21460246284615F018F820461CF0F9
:1035100017FF0222C1B2284610F096FB30461CF07D
:103520000FFF31460246284615F008F820461CF0E9
:1035300007FFC119C9B20222284610F085FB2046B8
:103540001CF0FEFE044630461CF0FAFE204414280F
:1035500028BF1420C8F81802BDE8F081907CFF1F36
:1035600008B503221121094810F06EFB084B1B78A7
:1035700001222BB907490548BDE8084014F0DEBF19
:1035800005490248BDE8084014F0D8BF907CFF1FF1
:1035900044910020F0590200FC5B020010B5044683
:1035A000032290F878110B4810F04EFBD4F810224B
:1035B000D4F87831D35C01222BB907490548BDE81E
:1035C000104014F0BBBF05490248BDE8104014F09C
:1035D000B5BF00BF907CFF1FF0590200005C0200E5
:1035E0002DE9F04F0446102300F1440720268FB048
:1035F000036404F16208E6633846002510F014FD08
:10360000404610F011FD4246394604950395029557
:10361000019500952B4604F1800010F007FDC4F8D9
:1036200004611A26C4F8E860192604F58673C4F804
:10363000EC601B264FF0250C4FF0240E1E21079343
:103640001F220523C4F8F0604FF0420B4FF0430AED
:103650004FF027094FF0260818271D201C26C4F814
:10366000DCC0C4F8E0E0C4F80831C4F8FC10C4F8C9
:103670000021C4F8A4B0C4F8A8A0C4F8D49004F5FC
:103680008A7AC4F8D880C4F8E470C4F8F460C4F846
:10369000F800079814F098FC504614F095FC04F5D7
:1036A0008E7904F592721646484614F08DFC04F5A6
:1036B000967230461746089614F086FC04F59A7107
:1036C0000E463846099714F07FFC04F59E7130468B
:1036D0000F460A9614F078FC04F5A27006463846A8
:1036E0000B9714F071FC04F5A6700746304604F5FC
:1036F000AA7B0C9614F068FC384604F5AE780D975A
:1037000014F062FC584614F05FFC04F5B2774046B2
:1037100014F05AFC04F5B676384614F055FC3046E1
:1037200014F052FCFF22012384F8302284F8313255
:1037300084F8745184F8755184F8145284F8155241
:10374000C4F81852C4F81C52C4F8205284F8245209
:10375000A4F826524A21714817F064F8704814F012
:1037600029FF2B466F480422142110F091FA0A22F7
:103770006D496C4814F0E2FE94F8A400022115F0A3
:1037800075FF94F8A800022115F070FF94F8D80096
:10379000022115F06BFF94F8D400022115F066FFAA
:1037A00094F8DC00022115F061FF94F8E00002219A
:1037B00015F05CFF94F8E400022115F057FF94F82F
:1037C000E800022115F052FF94F8EC00022115F0F8
:1037D0004DFF94F8F000022115F048FF94F8F40032
:1037E000022115F043FF0798D4F8D81014F0F4FB29
:1037F0005046D4F8D41014F0EFFB4846D4F8DC104F
:1038000014F0EAFB0898D4F8E01014F0E5FB0998EE
:10381000D4F8E41014F0E0FB0A98D4F8E81014F09F
:10382000DBFB0B98D4F8EC1014F0D6FB0C98D4F812
:10383000F01014F0D1FB0D9DD4F8F410284614F0CC
:10384000CBFB0798B4F8081114F0DCFB5046B4F831
:10385000081114F0D7FB4846B4F8081114F0D2FB55
:103860000898B4F8081114F0CDFB0998B4F80811C1
:1038700014F0C8FB0A98B4F8081114F0C3FB0B98B5
:10388000B4F8081114F0BEFB0C98B4F8081114F049
:10389000B9FB2846B4F8081114F0B4FB94F8F8000A
:1038A000022115F0E3FE94F8FC00022115F0DEFE83
:1038B00094F80001022115F0D9FE94F804010221C8
:1038C00015F0D4FE5846D4F8F81014F085FB4046A5
:1038D000D4F8FC1014F080FB3846D4F8001114F032
:1038E0007BFB3046D4F8041114F076FB5846B4F84C
:1038F000081114F087FB4046B4F8081114F082FB5D
:103900003846B4F8081114F07DFB3046B4F80811BD
:1039100014F078FB20460FB0BDE8F08F045C020085
:103920001871FF1F907CFF1F505C020070B5164697
:103930000C460546C9B203221F4810F085F9FEB9AE
:103940002B1993F88061D5F878317EB99C422BD041
:1039500021461A4809F02AF9012818D933460146A8
:103960000A221548BDE8704014F034BE9C424FF066
:10397000010213D012491048BDE8704014F0DEBDBA
:10398000012210490C48BDE8704014F0D7BD012257
:103990000D490948BDE8704014F0D0BD0B490648F8
:1039A000BDE8704014F0CABD012209490248BDE8D3
:1039B000704014F0C3BD00BF907CFF1F0831002091
:1039C000005C0200AC590200F05902005C5C02008D
:1039D0007493020070B5451800220F29044685F83B
:1039E000F02121D901F00F060D463146FFF79EFF69
:1039F0001221334816F016FF3146324814F02AFEE1
:103A0000304814F0D7FD94F83032AB4204BFFF23A6
:103A100084F830322C4B1B680A2B0BD00B2B02D0B6
:103A2000032B1ED070BD294604F18000BDE8704014
:103A300010F09CBB2046FDF7AFFE94F824222348EB
:103A40000023012AC4F8D03004BF84F82432A4F83B
:103A5000263231460AF0D6FD2046BDE87040FDF71B
:103A6000DDB91B4801F0A0FD864294F824324FF0E6
:103A700000021BD0052BC4F8D4201BD004F5D07550
:103A800004F29F1304F2AF10002203F8012F9842B2
:103A9000FBD10F4801F0A2FD231801222946204640
:103AA00083F8A021BDE87040FDF75CB9062BC4F88F
:103AB000D820E3D1002384F82432A4F82632DDE7AD
:103AC000605C02001871FF1FBC6FFF1FB067002011
:103AD000A82D002070B50D461646D0F87C110022A6
:103AE0000446FFF723FF0322E9B2094810F0ACF8BF
:103AF000012236B90749064814F020FDC4F87C516C
:103B000070BD0549024814F019FDC4F87C5170BD20
:103B1000907CFF1F749302005C5C0200D0F81032AE
:103B200070B55D5CC0F87811103104461646C9B214
:103B3000803095B110F01AFB0122D4F8781120469C
:103B4000FFF7C8FFD4F878316C33012244F82360C2
:103B500084F8742184F8752170BD10F0E9FA2A46C2
:103B6000D4F878112046FFF7B5FFEBE72DE9F041D7
:103B7000012186B0054648480FF08AFD0021122039
:103B800015F074FD0121132015F070FD01211320A3
:103B900015F058FD0B26122015F05AFD30B9013EE4
:103BA00001464FF496744FF0130067D175217422CB
:103BB000732305F180067727762402910192009302
:103BC00030467223049703947122702110F0C6FBD3
:103BD000EB6B002B09DD00242146304610F0C6FABD
:103BE0000134EB6BE4B29C42F6DB304610F010FC83
:103BF00005F29F1305F2AF11002203F8012F8B424B
:103C0000FBD16FF4BF76761B05F27F1405F28F1897
:103C10000027311904F8017F00222846FFF786FEAD
:103C20004445F6D105F5D67305F5F670002143F845
:103C3000041F83424FF00002F9D1184B85F815227A
:103C400001240622284685F814421A60FEF78EF8F1
:103C50002846FEF73BF912480DF024FD01462846A0
:103C6000FEF74AFB0E480DF01FFD01462846FEF701
:103C70006FFB85F8744106B0BDE8F08115F0E2FCF9
:103C80002346013BFDD10121132015F0DBFC234627
:103C9000013BFDD17FE700BF3070FF1FBC6FFF1FEE
:103CA000D490002030B5D0F8B83089B00446A3B124
:103CB0004D4A126802920299C91A0ED04B4D2B68D8
:103CC0000222013380F824226FD002222046FFF71F
:103CD0007DF9002848D109B030BDD4F8D030ABB15F
:103CE000414A126803920399C91A0FD0012284F83D
:103CF00024222046FFF76AF90028ECD03C4809F05E
:103D000097FC01463A4809F08FFDE4E7D4F8C0304B
:103D10008BB1354A126804920499C91A0BD0032258
:103D200084F824222046FFF751F90028D3D02046FA
:103D3000FFF71CFFCFE7D4F8B03013BBD4F8D43072
:103D4000002B39D0284A126806920699C91A33D036
:103D5000052284F824222046FFF738F90028BAD03B
:103D6000244801F0CFFBB6E72968234808F00AF998
:103D700020462968FDF70CFF4FF0FF332B6009B098
:103D800030BD194A126805920599C91AD6D0042285
:103D900084F824222046FFF719F900289BD0164802
:103DA00008F03AFCE369984795E71348019108F059
:103DB000C7FA0199286088E7D4F8D830002B8AD058
:103DC000094A126807920799C91A84D0062284F812
:103DD00024222046FFF7FAF800283FF47CAF05487C
:103DE00001F09EFB77E700BFD0940020B86FFF1F63
:103DF000B0670020A82D0020083100202DE9F04FE9
:103E000000F58E7585B00446284614F0FDF810B90B
:103E100005B0BDE8F08F284614F03CF90028F7D033
:103E20008C4E3368013B0A2B57D8DFE803F0411E64
:103E300018565656560D0D560600874D2B78002BFA
:103E400054D1E3699847E3E7844A1378204683F026
:103E500001031370FFF784FB05B0BDE8F08F8048C5
:103E600002F07EF905B0BDE8F08F7E4D29684B1C4D
:103E700000F0D7807C4808F085F82A687B49204606
:103E8000FEF782FB7A4B1B680393039B03F5FA63EF
:103E9000C4F8283201274FF0FF3320462B603760EB
:103EA000FDF764FF2046FEF711F884F81472AFE7BF
:103EB0006D4808F0A3F930B36B4808F041FA6D493A
:103EC00002462046FEF760FB694B1B680193019B8D
:103ED00003F5FA63C4F828329AE794F81532032BF5
:103EE00000F2AA80DFE803F076593F200127204640
:103EF0003760FDF73BFF2046FDF7E8FF002384F81D
:103F000014722B7084E7584808F01AFA5A4902468E
:103F10002046FEF739FB564B1B680293029B03F5C4
:103F2000FA63C4F8283273E704F28F196FF4BF778D
:103F3000C8463F1B04F27F154FF0010A791915F8A6
:103F4000013F08F8013F002285F800A02046FFF756
:103F5000EDFC4D454FF0010BF0D1022384F814B273
:103F600084F8153253E06FF4BF773F1B04F27F15DE
:103F700004F28F1A4FF0000979194FF0000805F884
:103F8000019F42462046FFF7D1FC5545F4D101235D
:103F900084F8158284F8143239E004F28F196FF432
:103FA000BF77C8463F1B04F27F15791915F8013F0A
:103FB00008F8013F83F001032B7000222046FFF731
:103FC000B5FCA945F1D10322012384F8152284F818
:103FD00014321CE06FF4C778C4EB080804F28F15A4
:103FE00004F27F1704F29F1908EB050115F8013F51
:103FF00083F0010307F8013F00222046FFF796FCFB
:10400000A945F1D1012384F8153284F814323368BC
:10401000062B7FF4FDAE04F5C0712046FCF7A2FE2E
:10402000F6E6012520463560FDF7A0FE2046FDF7A7
:104030004DFF84F81452EBE63121104816F0F2FBE4
:1040400094F815120E4814F005FB0D4814F0B2FA5E
:10405000DDE700BFBC6FFF1F942E002044910020BD
:10406000A82D0020B86FFF1F08310020945C0200CB
:10407000D0940020745C0200845C0200A45C020006
:104080001871FF1F70B504460D4696B0803010F0D1
:104090004FF86319012283F8F0210F2D00F23F81C0
:1040A000DFE815F0240040005C00780094009D00DB
:1040B000A600AF00F100CB00DE00B8002A01040129
:1040C00017011000B9492046FDF7EAFBB84BB94883
:1040D0001B681293129B03F5FA63C4F8283204F5A7
:1040E000C071042208F0BAFE16B070BDB24B1A6857
:1040F000511E012940F2D0810A2A00F0CD812046CC
:10410000AE49FDF7CDFBAA4BAA481B680293029B60
:1041100003F5FA63C4F8283204F5C071002208F0F0
:10412000C3FEE1E7A44B1A68511E012940F2C08189
:104130000B2A00F0BD812046A149FDF7B1FB9C4B45
:104140009C481B680193019B03F5FA63C4F828326D
:1041500004F5C071012208F0A7FEC5E7964B1B6865
:10416000012B00F06C81083B012B40F26881204656
:104170009449FDF795FB8E4B8E481B680493049B76
:1041800003F5FA63C4F8283204F5C071022208F07E
:104190008BFEA9E7884B1B68012B00F06881083B68
:1041A000012B40F2648120468749FDF779FB804B63
:1041B00080481B680693069B03F5FA63C4F828320F
:1041C00004F5C071032208F06FFE8DE77F4B1B786A
:1041D000002B00F01A81A3690120984784E77B4BEC
:1041E0001B78002B00F00481A369022098477BE72D
:1041F000764B1B78002B00F01581A36903209847AC
:1042000072E7724B1B78002B00F0C280A369042078
:10421000984769E720466E49FDF742FB644B6548C5
:104220001B680E930E9B03F5FA63C4F8283204F55D
:10423000C071032208F058FE56E720466549FDF795
:104240002FFB5B4B5B481B680C930C9B03F5FA63DD
:10425000C4F8283204F5C071012208F045FE43E796
:1042600020465D49FDF71CFB514B52481B680D93DE
:104270000D9B03F5FA63C4F8283204F5C0710222DD
:1042800008F032FE30E720465449FDF709FB484B61
:1042900048481B680B930B9B03F5FA63C4F828325C
:1042A00004F5C071002208F01FFE1DE720464C49AE
:1042B000FDF7F6FA3E4B3F481B681093109B03F541
:1042C000FA63C4F8283204F5C071022208F0C6FD72
:1042D0000AE720464349FDF7E3FA354B35481B68AA
:1042E0001193119B03F5FA63C4F8283204F5C071E9
:1042F000032208F0B3FDF7E620463B49FDF7D0FA6C
:104300002B4B2C481B680F930F9B03F5FA63C4F8E3
:10431000283204F5C071012208F0A0FDE4E60F2D5B
:104320007FF6E2AE05F00F06314601222046FFF788
:10433000FDFA94F83032AB42636A88BF84F8305299
:1043400013B1A5F1100098471B4B1B68013B0C2BC8
:1043500000F2EC8001A252F823F000BFB544000047
:10436000C7440000FB44000023450000194500003D
:104370002D4500000F450000B54400000545000034
:10438000DB440000E9400000D1440000F14400009B
:1043900016492046FDF784FA054B1B680A930A9BD1
:1043A00003F5FA63C4F8283230E700BFD05D02009D
:1043B000D094002008310020BC6FFF1FE45C020095
:1043C000D85C02000C5D0200385D0200016700202D
:1043D000A45D02008C5D0200985D0200805D020019
:1043E000B85D0200C45D0200B05D0200745D0200B1
:1043F00061492046FDF754FA604B1B680893089BFF
:1044000003F5FA63C4F82832EEE65D492046FDF76D
:1044100047FA5A4B1B680793079B03F5FA63C4F8E6
:104420002832D8E657492046FDF73AFA534B1B6825
:104430000993099B03F5FA63C4F82832DDE6524A72
:1044400052491378002083F0010313700870002B89
:1044500000F08D804E492046FDF722FA474B1B683D
:104460000393039B03F5FA63C4F828323CE6474BF9
:104470001A78002A72D0444D4649002220462A70FC
:104480001A70FDF70DFA3D4B1B680593059B03F56C
:10449000FA63C4F8283227E60B2220461A60FDF79B
:1044A00065FC2046FDF712FD012384F814321BE65B
:1044B0000A22F2E7344B384A1B784FF0FF31116083
:1044C000002B7FF411AE29462046FCF717FC0BE6C3
:1044D00029462046FDF7DCFE06E629462046FCF785
:1044E0000DFC264B1B681393139BC4F8D030FBE5DF
:1044F00029462046FEF776FBF6E529462046FCF7DE
:10450000EBFFF1E529462046FDF7A0FBECE5294647
:104510002046FCF797FBE7E529462046FCF764FBBD
:10452000E2E529462046FCF731FBDDE52946204639
:10453000FCF7B6FB31462046FDF71EFA0F4B1A6812
:104540001592159A1B681493149B02F5FA6203F5F1
:10455000FA63C4F82C22C4F82832C5E50A480F498A
:104560000270012220461A70FDF79AF98BE70C4978
:104570002046FDF795F971E7545D0200D0940020C4
:10458000445D0200645D02000167002000670020B6
:10459000F05C0200185D0200B86FFF1F285D02008A
:1045A000005D0200F8B5344C2368DB07054646D5AC
:1045B000324E15F087F83368304A984234D900F506
:1045C000EA4395F8741130331360002947D105F19F
:1045D000800738460FF034FE18B3EB6B002B24DD58
:1045E0000026344605E00134EB6BE4B29C422646DB
:1045F0001BDA214638460FF059FD2E4430B196F8AB
:10460000F031214628460BB9FFF73CFD21463846DC
:104610000FF05CFD0028E6D021462846FFF7DAF9C6
:10462000E1E795F875311BB9F8BD012385F87531BF
:1046300038460FF0EDFE002385F87531F8BD2046B1
:1046400014F066FD0028B3D015F03CF80B4E00F5D1
:10465000EA4330332046336014F060FDA9E7014699
:1046600005F180072846FCF755FA38460FF0E8FDBB
:104670000028D6D0B1E700BF887CFF1FB87CFF1FA1
:1046800010B500230360436083600446162104488C
:1046900016F0C8F8034813F08DFF204610BD00BF88
:1046A000E05D02001871FF1F38B505461A210F485A
:1046B00016F0B8F82C6864B1A36A2B6020462C2150
:1046C00014F068FD2C680A48042116F0ABF8002CA1
:1046D000F2D100232B606B60AB600421054816F01B
:1046E000A1F8054813F066FF284638BDF85D0200C2
:1046F0001C5E0200145E02001871FF1F38B50546EB
:1047000015210F4816F08EF82C6864B1A36A2B604F
:1047100020462C2114F03EFD2C680A48042116F096
:1047200081F8002CF2D100232B606B60AB60042178
:10473000054816F077F80548BDE8384013F03ABF51
:10474000245E02001C5E0200145E02001871FF1F4E
:1047500038B52E4C05460A212D4816F063F8204640
:1047600013F028FF0E212B4816F05CF86B682046EA
:10477000196813F06FFF0B21274816F053F86B6888
:104780000A2219792046002313F024FF204613F053
:1047900011FF0821214816F045F86B682046D968BA
:1047A00013F058FF07211E4816F03CF86B68D869D3
:1047B0001AF06EF941EC100B2046022113F054FF61
:1047C0000B21184816F02EF86B680A2293F8201077
:1047D0002046002313F0FEFE1621134816F022F89F
:1047E0006B682046597A13F035FF0E210F4816F0FA
:1047F00019F86B68204693F824100A22002313F05E
:10480000E9FE2046BDE8384013F0D4BE1871FF1F02
:104810003C5E0200485E0200585E0200645E0200D8
:10482000705E0200785E0200845E02009C5E020000
:1048300038B54368002B6BD09A6A934204460D4604
:1048400018BF012066D0A36823B1226812B19B6A09
:104850009A4274D06368444A1B68934202DC013375
:104860002DD038BD2A4641494148FDF747FE312148
:10487000404815F0D7FF28461BF062FD0146284648
:1048800015F0D0FF3C4813F095FE07213B4815F08A
:10489000C9FF6168384813F0DDFE0E21384815F075
:1048A000C1FF63683448196813F0D4FE324813F02E
:1048B00081FE63681B6801334FF00000D1D12A46A6
:1048C00030492B48FDF71AFE34212F4815F0AAFF76
:1048D00028461BF035FD0146284615F0A3FF264863
:1048E00013F068FE0721254815F09CFF61682248F7
:1048F00013F0B0FE0E21224815F094FF63681E48A5
:10490000196813F0A7FE1C4813F054FE002038BDB0
:10491000012038BD0A4616481C49FDF7EFFD262147
:104920001B4815F07FFF28461BF00AFD014628466C
:1049300015F078FF104813F03DFE002083E72A466B
:1049400014490B48FDF7DAFD3921134815F06AFFC9
:1049500028461BF0F5FC0146284615F063FF064883
:1049600013F028FE002075E780969800305F020063
:10497000CC2E0020485F02001871FF1F7C5F0200F0
:10498000845F0200945F0200AC5F0200AC5E020034
:10499000BC5E0200E45E0200F45E02000368436055
:1049A000704700BF10B544680CB1206810BD0349C2
:1049B0000348FCF775FD204610BD00BFE45F020010
:1049C000CC2E002010B544680CB1207910BD0349ED
:1049D0000348FCF765FD204610BD00BFF85F0200EC
:1049E000CC2E00202DE9F0418846002707700646AE
:1049F0001121144815F016FFD8F80440ECB1083422
:104A00000FCC35460FC594E80F0085E80F0071689C
:104A10000D4813F01FFE08210C4815F003FFD8F8CD
:104A20000430094819790A223B4613F0D3FD0648A1
:104A300013F0C0FD3046BDE8F08105490548FCF79C
:104A40002FFDF7E70C6002001871FF1F9879020034
:104A500020600200CC2E00204068003018BF0120EA
:104A6000704700BF70B5044616213648666815F0D9
:104A7000D9FE354813F09EFD0721344815F0D2FECB
:104A80006168314813F0E6FD0821314815F0CAFE8F
:104A900021682D4813F0DEFD08212E4815F0C2FED6
:104AA000A168294813F0D6FD23686360642538E0C7
:104AB00013F080FD0E21284815F0B4FE63682248EB
:104AC000196813F0C7FD0D21244815F0ABFE61688D
:104AD0001D48083113F0BEFD0921214815F0A2FE42
:104AE00063681948197913F0B5FD0B211D4815F0BD
:104AF00099FE6168144813F0ADFD08211A4815F0BD
:104B000091FE63681048996A13F0A4FD1749204686
:104B1000FFF78EFE40B1204600F0C6F8013D08D0F8
:104B200063680948002BC3D1074813F043FD666052
:104B300070BD0F490F48FCF7B3FC034813F03AFD72
:104B4000666070BD386002001871FF1F7C5F020054
:104B5000506002005C600200845F02006860020036
:104B60007860020084600200906002009C60020095
:104B7000A4600200CC2E0020036810B504466BB17F
:104B80004268934204BF002242609A6A8AB10021BF
:104B90000260996218462C2114F0FCFA0A4920465A
:104BA000FFF746FE00B110BD2046BDE81040FFF7FC
:104BB00059BF81688B4208BF82602C21184614F0CF
:104BC000E9FA00232360E9E7B460020038B503681E
:104BD000044673B11A6891420D4603DC0AE01A6874
:104BE000AA4207DA2046FFF7C7FF23686360002B5D
:104BF000F5D10023636005492046FFF719FE00B197
:104C000038BD2046BDE83840FFF72CBFC460020025
:104C100082B02DE9F04106AC074644F8043F0D464A
:104C20001E481421904615F0FDFD214600230A225E
:104C30001B4813F0CFFC1A4813F0BCFC2C2014F0D6
:104C4000A5FA2C22002106461AF094FE0FCCB06083
:104C5000F160326173610FCCBC68356086F8048006
:104C6000B061F1613262736214B1A64218BFA662EC
:104C70007B68BE607BB13B685BB10A493846FFF791
:104C8000D7FD10B93846FFF7EDFEBDE8F04102B0A0
:104C900070473E60F1E77E60EDE700BFF060020024
:104CA0001871FF1F08610200436810B5044673B114
:104CB0009A6A934213D062600C492046FFF7B8FD10
:104CC00000B110BD2046BDE81040FFF7CBBE192152
:104CD000074815F0A7FD074813F06CFCECE7064900
:104CE0000648FCF7DDFB63689A6AE4E7446102006A
:104CF000286102001871FF1F14610200CC2E0020F1
:104D000070B590E8480005460024436006E0013491
:104D1000FFF7CAFFB4F57A7F06D06B682846002BF0
:104D2000F5D16E60204670BD03490448FCF7B8FB1E
:104D30006E60204670BD00BF4C610200CC2E00208A
:104D40000022026042608260704700BF38B50446AE
:104D50001721094815F066FD23685BB10025DA6864
:104D600022601846DD6010219D6014F013FA23685C
:104D7000002BF4D1204638BD5C61020038B5436891
:104D800004460D4683B1DA68934218BF012036D03D
:104D90009A689A4248D0E3682BB1DA68934219D0F6
:104DA0009A689A4202D038BD0120F4E72849294880
:104DB000FCF776FB1F21284815F034FD274813F037
:104DC000F9FB28461BF0BCFA0146284615F02AFDDF
:104DD0000020E8E722491F48FCF762FB2B2121480D
:104DE00015F020FD28461BF0ABFA0146284615F0C9
:104DF00019FD1A4813F0DEFBE3680020D0E71A49DA
:104E00001448FCF74DFB2321184815F00BFD2846EC
:104E10001BF096FA0146284615F004FD0F4813F0E2
:104E2000C9FB63680020B3E711490A48FCF738FB67
:104E30001721104815F0F6FC084813F0BBFB284674
:104E40001BF07EFA0146284615F0ECFC0020A2E794
:104E500010620200CC2E0020246202001871FF1F95
:104E6000D0610200E461020074610200846102000A
:104E7000A8610200B861020010B507490446FFF7B7
:104E80007DFF20B163680BB1DB68636010BD204615
:104E900000F004F8F6E700BF4461020038B50021D5
:104EA0000446434815F0BEFC424813F083FB0D2135
:104EB000414815F0B7FC3F4813F07CFB07213F4801
:104EC000656815F0AFFC21683A4813F0C3FB062172
:104ED0003B4815F0A7FC6168364813F0BBFB07217F
:104EE000384815F09FFCA168324813F0B3FB0A2143
:104EF000354815F097FCE1682E4813F0ABFB2D48C0
:104F000013F058FB204600F0DFF863682BB945E04A
:104F1000FFF7B2FF6368002B40D005212B4815F046
:104F200081FC6368234819680A22002313F052FBAE
:104F30000421274815F076FC63681E4819790A2277
:104F4000002313F047FB0421224815F06BFC636833
:104F5000184859790A22002313F03CFB05211E480A
:104F600015F060FC6168134813F074FB06211B48C0
:104F700015F058FC63680F48D96813F06BFB0D48B7
:104F800013F018FB6368DA6893422046C0D11A21F7
:104F9000134815F047FC074813F00CFB00210448A8
:104FA00015F040FC034813F005FB656038BD00BFF9
:104FB000685902001871FF1F446202005462020027
:104FC0005C620200646202006C62020078620200AD
:104FD0008062020088620200906202009862020011
:104FE000A062020038B50446C068002838D060606E
:104FF0002368834226D0A368834216D08568C3689D
:10500000EB60C36882689A60102114F0C3F8656091
:105010002B46E36014492046FFF7B0FE00B138BDCF
:105020002046BDE83840FFF739BF82681AB1826870
:1050300062600021D1601846102114F0ABF863685B
:10504000A360E6E7C268626062B10021916000225D
:10505000DA601846102114F09DF863682360D8E7E1
:105060006068C5E7A260F2E7BC6202002DE9F84380
:1050700004461020894690461F4614F087F8A6681B
:1050800000254560856080F80490C56080F8058043
:1050900007600EB1F06086606368A0607BB1236832
:1050A0005BB108492046FFF769FE08B1BDE8F88307
:1050B0002046BDE8F843FFF7F1BE2060F1E76060ED
:1050C000EDE700BFC862020010B505490446FFF7CE
:1050D00055FE10B92046FFF7E1FE2368636010BD5E
:1050E000D0620200C3681879704700BFC36858795E
:1050F000704700BFC3681868704700BFC0680030C1
:1051000018BF0120704700BF10B505490446FFF7DE
:1051100035FE10B92046FFF7C1FE2368E36010BDDD
:10512000D862020010B507490446FFF727FE20B1F8
:10513000E3680BB1DB68E36010BD2046FFF7AEFE0D
:10514000F6E700BFE462020070B511490546FFF7BB
:1051500015FE90B128466E680024FFF7B5FF05E004
:105160000134FFF789FEB4F57A7F0AD06B682846D0
:10517000002BF5D16E60204670BD2846FFF78EFEED
:10518000E8E704490448FCF78BF96E60204670BDDF
:10519000F0620200F8620200CC2E002038B50A4D01
:1051A000002304460360436029464FF4A072083090
:1051B00013F0CCFE05F5A07104F5A4704FF48072D5
:1051C00013F0C4FE204638BD0863020010B490E816
:1051D0001800013400EB031394FBF1F202FB1141C0
:1051E0000B44416093F848015DF8044B704700BFE1
:1051F00010B490E8180094FBF1F200EB031302FBEB
:1052000011410B44416093F848015DF8044B70472D
:10521000436810B40468194400EB041091FBF2F3E6
:1052200003FB121250FA82F25DF8044B92F8480127
:10523000704700BF406801308842B4BF00200120A1
:10524000704700BF054B0B40002B01DB036070472C
:10525000013B63F00F030133036070470F000080D0
:10526000036803EB830300EB83000830704700BF43
:1052700000234360704700BF38B501250446056729
:1052800058220E497C3013F061FE0D4A84F86D50AF
:105290000023157084F8D83084F8E03084F8E930C1
:1052A00084F8E830C4F8D430C4F8DC3084F8EA304C
:1052B000C4F8E4306367A367204638BD4865020040
:1052C000C87CFF1F2DE9F0418046064600F16007CB
:1052D000337D5BB13546002455F8040F013418B115
:1052E0001C2113F057FF337DA342F5DC1836BE4274
:1052F000EED14046BDE8F08101EB410300EBC30372
:1053000080F8D810C0F8D4300120704710B5D0F81C
:10531000D44084B1227D8A420B46D8BF002304EBDF
:105320008304D8BF19466468C0F8DC404CB180F8EB
:10533000E010012010BD06490648FCF7B1F82046F0
:1053400010BD05490348FCF7ABF8204610BD00BF6F
:10535000A0650200CC2E0020B4650200F0B5D0F8A4
:10536000D430002483B080F8EA40002B42D00E46AF
:10537000054618212948174615F054FA23460A22F3
:105380003146274813F026F9254813F013F9062F64
:105390000DD0082F09D1D5F8D4301B7DB3421CD0D5
:1053A00020482149FCF77CF8204603B0F0BDD5F831
:1053B000D4301A7DB24225DD03EB86035C683CB332
:1053C00095F8D83085F8E960012085F8EB7085F80C
:1053D000E83085F8EA0003B0F0BD95F8D82085F8EC
:1053E000E930012085F8EB7085F8E82085F8EA00BF
:1053F00003B0F0BD0B480D490193FCF751F8019B38
:105400001846D2E707480A49FCF74AF82046CCE795
:1054100004480849FCF744F82046C6E7DC6502006A
:105420001871FF1FCC2E00201C660200C865020008
:10543000F86502000866020090F8EA306BB110B51A
:10544000D0F8D44090F8D8204CB190F8E8309B1AAE
:10545000B3FA83F35B09184610BD18467047034939
:105460000348FCF71DF82346F5E700BF2C66020051
:10547000CC2E0020F8B501EB410710EBC7062AD06F
:10548000D0F8D43015461A7DAA4204461DDD03EB40
:1054900085035E682EB30121154807F031F905EB4D
:1054A000470504EB8504034600226068012100F0F3
:1054B000BBFE02210E4807F023F900220346022119
:1054C000606800F0B1FE0120F8BD0A490A48FBF708
:1054D000E7FF0020F8BD09490748FBF7E1FF304628
:1054E000F8BD07490448FBF7DBFF3046F8BD00BFB5
:1054F0000831002054660200CC2E002040660200D5
:105500006866020008B51821034815F08BF90348B6
:10551000BDE8084013F04EB87C6602001871FF1F0A
:1055200008B51821034815F07DF90348BDE8084087
:1055300013F040B8986602001871FF1F38B5044692
:1055400060B101EB410110EBC1050DD002EB42004F
:1055500014EBC0040ED06A75012038BD0849094813
:10556000FBF79EFF204638BD07490648FBF798FF2A
:10557000284638BD05490348FBF792FF204638BD51
:10558000B4660200CC2E0020C8660200DC66020071
:10559000D0F8D4300BB11960704780F8D83003468A
:1055A000C0F8D40019607047D0F8D41009B1087D54
:1055B000704710B50246FFF79FFE044628B905491B
:1055C0000548FBF76DFF204610BDD2F8D410087DCA
:1055D00010BD00BFF0660200CC2E002090F8E00065
:1055E000704700BFD0F8D41070B5054631B30B7DBD
:1055F000032B1DD81C2013F0C9FD044600F0FCFD50
:10560000D5F8D4301E1D2ED0197D39B153F82100A4
:10561000F0B100F08BFED5F8D430197D03EB810298
:10562000013154602046197500F0F4FD204670BD2C
:1056300012491348FBF734FF002070BDFFF75CFEF2
:10564000044668B90F490E48FBF72AFF204670BD93
:105650000D490B48FBF724FFD5F8D430197DDDE761
:10566000D5F8D410C3E709490548FBF719FF2046D0
:105670001C2113F08FFD304670BD00BF146702007F
:10568000CC2E002048670200386702002467020021
:105690002DE9F043044685B01A4804F05BF80E216A
:1056A000194815F0BFF8194812F084FFD4F8DC004F
:1056B00008B300F075FED4F8D430D4F8DC0093F8C9
:1056C000009094F8D85094F8E46094F8E07000F0FA
:1056D000B5FD8046D4F8DC0000F0B2FDC0B2029007
:1056E0004B468DE88001324629460948FDF702FE07
:1056F00005B0BDE8F0830749054805B0BDE8F043B3
:10570000FBF7CEBE04670020586702001871FF1F28
:10571000CC2E00206867020070B5044633216F4824
:1057200015F080F8D4F8DC0000F088FD00230A2290
:1057300001466B4812F04EFF01216A4815F072F8DD
:10574000D4F8DC0000F07CFD0146654812F082FFD1
:105750000921654815F066F800230A2294F8E01044
:105760005F4812F037FF1421604815F05BF8D4F859
:10577000DC0000F0E1FD002301460A22584812F047
:1057800029FF574812F016FFD4F8DC30002B00F048
:105790009080D4F8D450002D00F08680184600F098
:1057A000CDFD054678B31921514815F03BF8D4F8E2
:1057B000DC0000F0C1FD102106464E4815F032F81D
:1057C000002331460A22464812F004FFD4F8D430B0
:1057D0001B7DB34224D92121474815F023F8D4F882
:1057E000D43084F8E06003EB86067068C4F8DC000F
:1057F00000F09EFD2121414815F014F8384812F0C0
:10580000D9FE284670BDD4F8DC0000F0C5FD3D216E
:105810003B4815F007F8324812F0CCFE284670BD20
:105820001821384814F0FEFFD4F8D430D4F8E4201E
:105830001B689A4224DB1021334814F0F3FFD4F89C
:10584000D4305E7DFF2E3AD006EB4606132104EBE2
:10585000C6062E4814F0E6FFC4F8D46015212C4883
:1058600014F0E0FFD4F8D430002284F8E020586827
:10587000C4F8DC000123C4F8E43000F059FDB9E7B6
:105880001A21244814F0CEFF002384F8E030D4F825
:10589000D420D4F8E4305068C4F8DC000133C4F8F4
:1058A000E43000F045FDA5E71B491C48FBF7F8FD77
:1058B000B4E71B4919481D46FBF7F2FDAEE700218E
:1058C000184814F0AFFF064812F074FE1321164872
:1058D00014F0A8FF236E98478CE700BF7C67020096
:1058E0001871FF1FB0670200B4670200C0670200B2
:1058F000006802001C68020030680200E0680200D4
:1059000004690200546802008C680200A06802006A
:10591000B468020070680200EC670200CC2E002020
:10592000D867020068590200CC6802002DE9F043F4
:10593000D0F8D430044685B0D0F8DC0093F800905D
:1059400094F8D86094F8E47094F8E08000F076FC65
:105950000546D4F8DC0000F073FCC0B202904B4660
:10596000CDF800803A46314601950348FDF7C2FC68
:1059700005B0BDE8F08300BFCC2E002010B5142187
:105980000446094814F04EFF084812F013FED4F8FC
:10599000DC0018B1BDE8104000F002BD0449054824
:1059A000BDE81040FBF77CBD446902001871FF1F81
:1059B0005C690200CC2E002003460022C3F8D4000C
:1059C00080F8D82048B1406883F8E0200122C3F86D
:1059D000DC00C3F8E42000F0ABBC02490248FBF74E
:1059E0005FBD00BF70690200CC2E002070B5504E24
:1059F000504D0166044600F1150132602B60753090
:105A0000FF2200230A7001F8013C41F8153C1831CF
:105A10008142F7D12046FFF7E5FD054690B100230E
:105A20001A46012100F000FC00231A4602212846F4
:105A300000F0FAFB0121284600F06EFC2846022106
:105A400000F048FC2046FFF7CDFD054690B101224D
:105A50001146002300F0E8FB002301220221284622
:105A600000F0E2FB0121284600F056FC2846022106
:105A700000F030FC2046FFF7B5FD054690B100234D
:105A80000222012100F0D0FB022211460023284609
:105A900000F0CAFB0121284600F03EFC2846022106
:105AA00000F018FC01212046FFF772FD01220021C1
:105AB0002046FFF743FD01212046FFF71DFC022190
:105AC0002046FFF765FD2046FFF78CFD054690B1A7
:105AD00000230322012100F0A7FB0023032202215F
