:1000000000000320D1010000B986010071860100C3
:100010007186010071860100718601007186010000
:10002000718601007186010071860100B9860100A8
:10003000B986010071860100C1A10100C5A20100BD
:10004000B9860100B9860100B9860100B9860100B0
:10005000B9860100B9860100B9860100B9860100A0
:10006000B9860100B9860100B9860100B986010090
:10007000B9860100B9860100B9860100B986010080
:10008000B9860100B9860100B9860100B986010070
:10009000B9860100B9860100B9860100B986010060
:1000A000B92F0100C52F0100B9860100B9860100F2
:1000B000B9860100B9860100B98601000DA30100CF
:1000C000B986010039A40100B986010065A50100C7
:1000D000B98601005DA60100B9860100B98601005C
:1000E000B9860100B9860100B9860100B986010010
:1000F000B9860100B9860100B9860100B986010000
:10010000B9860100B9860100B9860100B9860100EF
:10011000B9860100C1900100B9860100B9860100CD
:10012000B9860100B9860100B9860100B9860100CF
:10013000B9860100B9860100B9860100B9860100BF
:10014000A5790100B986010055A70100B986010013
:10015000B9860100B9860100B9860100B98601009F
:10016000B9860100B9860100D12F0100B9860100CE
:10017000B9860100B9860100B9860100B98601007F
:10018000B9860100B9860100B9860100B98601006F
:10019000B9860100B98601004DA80100B9860100A9
:1001A000B9860100B9860100B9860100B98601004F
:1001B000B9860100B9860100B9860100B98601003F
:1001C000B9860100B9860100B9860100B98601002F
:1001D0005C4B4CF2205210B51A804DF628121A8052
:1001E00000BF00BF18F06CFA574B4FF030621A6036
:1001F000564A9A60564ADA60564B4FF470021A60BB
:10020000554B564A1A60564B1A78110703D51A787F
:1002100042F008021A70534B5349AA221A70534AEB
:10022000534B8B4204D252F8040F43F8040BF8E707
:10023000504B514900228B4202D243F8042BFAE77B
:100240004E494F4A002352F8230041F8230001335E
:10025000742BF8D14B4B4C4A802103F8011B93427D
:10026000FBD14A4B454A1A60494B8A221A70A3F5C2
:10027000805324225A70A0221A709A799207FCD5D2
:100280009A79D406FCD4434A937903F00C03082BE3
:10029000FAD1414B60221A7002331A78802AFCD1BD
:1002A0003C4B01221A715D225A719A799006FCD555
:1002B0009979384A4906FBD5384B394919600021EC
:1002C000596020231370937903F00C030C2BFAD19F
:1002D000344B354A1A60354A354C136813F4807331
:1002E00003D123604FF4A8531360324B324A1A6093
:1002F00000225A60072243F8042C304AC3F80C2D20
:1003000062B618F04DFD2368DA0705D52C4818F0C1
:100310007FFC2C4B2C4A1A602C4B1B785B0609D5B2
:10032000284C294B22689A4204D1254818F070FCC9
:10033000002323601EF076FA18F0C8F918F0F6F8DA
:10034000FEE700BF0E20054030800440823F0400DD
:100350000100002B88ED00E0002008E0030000858C
:1003600002D0074000E00740C07BFF1F309D020025
:10037000306FFF1FC07BFF1F34990020006AFF1FF2
:100380000000000000E400E064E400E008ED00E0AC
:10039000005006400040064001E007404480044011
:1003A0000000060204800440C010070010D0034083
:1003B00014D0034014E000E01FBF02000000202022
:1003C0002066AC5E1CE00340A5C3945A00F00740D1
:1003D000FFFFFFFFFFFFFFFFFFFFFFFFFFFFFFFF2D
:1003E000FFFFFFFFFFFFFFFFFFFFFFFFFFFFFFFF1D
:1003F000FFFFFFFFFFFFFFFFFFFFFFFFFFFFFFFF0D
:10040000FFFFFFFFFFFFFFFFFFFFFFFFDEF9FFFF23
:1004100010B5054C237833B9044B13B10448AFF33E
:1004200000800123237010BDC07BFF1F000000006F
:100430002C9D0200084B10B51BB108490848AFF3CA
:1004400000800848036803B910BD074B002BFBD0A0
:10045000BDE81040184700BF00000000C47BFF1F2C
:100460002C9D0200C07BFF1F0000000010B524225D
:10047000044600211EF076FD002384F8243084F821
:100480002530204610BD00BFF8B5074690F824007F
:100490000D461646E0B13A46002404E00134844299
:1004A00002F1030212D01178A942F7D19178994252
:1004B000F4D104EB44043C446670A370062D5ED86E
:1004C000DFE805F031161D242B1031000A2C2BDC3F
:1004D00000EB40017A18013087F824007D545670F3
:1004E0009370EBE72E492F48BDE8F84001F02AB998
:1004F00032462D492B48BDE8F84001F0BDBF3246D9
:100500002A492848BDE8F84001F0B6BF32462849DC
:100510002448BDE8F84001F0AFBF26492148BDE8B6
:10052000F84001F00FB9F8BD23491E4800F0B8FFAC
:100530000421224819F06EFC2146214817F082FB65
:100540001721204819F066FC00230A2297F824108E
:100550001B4817F037FB10211B4819F05BFC0C21DE
:10056000174817F06FFB0B21184819F053FC294668
:10057000134817F067FB124817F014FB9EE7144965
:10058000084800F08DFF1521124819F043FC294658
:100590000B4817F057FB0A48BDE8F84017F002BBBC
:1005A000E44D0200C82E0020A44D0200B44D02000C
:1005B000C04D0200D04D0200504D0200644D0200BB
:1005C0001871FF1F6C4D0200844D0200984D02000F
:1005D000F44D0200084E020038B590F825300B2B80
:1005E000044627D91F49204800F05AFF17211F4809
:1005F00019F010FC00230A2294F825101C4817F06B
:10060000E1FA17211B4819F005FC00230A2294F88F
:100610002410174817F0D6FA1021174819F0FAFBE2
:100620000C21134817F00EFB0025114817F0BAFAF9
:10063000284638BD03EB430317210C48E55C19F04D
:10064000E9FB00230A2294F82510094817F0BAFAAA
:100650000B210A4819F0DEFB2946054817F0F2FA8B
:10066000284638BD384E0200C82E0020204E020019
:100670001871FF1F6C4D0200844D0200984D02005E
:1006800090F825300B2B04D803EB43031844407833
:10069000704710B513490446134800F001FF1721B5
:1006A000124819F0B7FB00230A2294F825101048CD
:1006B00017F088FA17210F4819F0ACFB00230A2223
:1006C00094F824100A4817F07DFA10210A4819F00E
:1006D000A1FB0C21064817F0B5FA054817F062FA9D
:1006E000002010BD4C4E0200C82E0020204E0200FB
:1006F0001871FF1F6C4D0200844D020090F82530E8
:100700000B2B04D803EB430318448078704710B5D3
:1007100013490446134800F0C3FE1721124819F08C
:1007200079FB00230A2294F82510104817F04AFAA2
:1007300017210F4819F06EFB00230A2294F82410A9
:100740000A4817F03FFA10210A4819F063FB0C2100
:10075000064817F077FA054817F024FA002010BD74
:10076000604E0200C82E0020204E02001871FF1FAC
:100770006C4D0200844D020090F825300133DBB24D
:100780000B2B80F825308CBF00200120704700BF64
:10079000002380F8253070470022134680F824207B
:1007A00080F82520C2540333242BFBD1704700BFAF
:1007B000FFF7F2BF70B5044615460E460846022103
:1007C00018F04CFA2846022118F048FA104A114B4A
:1007D00052F83610012001F500762072266052F89A
:1007E0003520607202F5007500206560E060013B15
:1007F000FDD191F8003292F8002203F00103D207F4
:1008000044BF43F00203DBB2A372204670BD00BFB9
:10081000F8910200C0D4010090F814322DE9F0479D
:100820000746002B7CD1DFF80C82794AD8F800000B
:10083000D468784D784E92F809E092E80A0091F871
:10084000009093F800C0117A714B1CEA0E0F09EA70
:1008500001015DD09B7A03F0030309B143F0040367
:1008600043F008039910013B91720D2B0AD8DFE881
:1008700003F075077207096F75756F0907720775C1
:10088000013CD460A04219D0DFF89891DFF890A124
:10089000D9F80030002C2246B8BFE21C92109A42D0
:1008A000CAF8002008D04FF47A715C480EF096FA2E
:1008B000DAF80030C9F80030C8F800402B686968E1
:1008C0001A78687A0C782B7A5249044202EA0302B9
:1008D00016D08B7A03F003030AB143F0040343F00C
:1008E00008039A10013BAA720D2B00F28180DFE809
:1008F00003F07B7766777F387B7B387F7766777B03
:100900008B7A03F00303002AEBD043F00403E8E7FB
:100910009B7A03F003030029A4D043F00403A1E76A
:100920003F4E404C40484149394ADFF80881394D33
:1009300000233360384E2360036087F814321C466E
:100940000B601846D360C8F80030EB60336072E784
:10095000023CD46096E70234D46093E70134D4605B
:1009600090E7EC68023CEC6007F5AE7016F07CFE98
:100970002F4B00282DD11A68042A3BDC3268A41AB8
:1009800004EB840402EB44049442EC6026D01A6821
:10099000264D254F0132002C1A6022462B68B8BF25
:1009A000E21C92109A423A6006D040F2E9311B48AC
:1009B0000EF014FA3B682B603460BDE8F087EC68F9
:1009C0000234EC6007F5AE7016F04EFE184B0028AE
:1009D000D1D03268002194421960D8D1BDE8F087A7
:1009E000EC68013CEC60BFE7EC680134EC60BBE70D
:1009F000EC68B9E7092A326805DCA41A04EB840420
:100A000002EB8404C0E76421A41A01FB0424BBE7C1
:100A1000107CFF1F207CFF1F847CFF1FAC67002021
:100A2000547CFF1F5C7CFF1F587CFF1F607CFF1FF6
:100A3000DC7BFF1F7C7CFF1FF8B590F81432002B85
:100A400047D12F4D2F4A2868D468577A92E848003A
:100A5000197896F800E0137A2A4E1EEA070F01EA89
:100A600003012ED0B37A03F0030309B143F004036A
:100A700043F008039910013B91720D2B0AD8DFE86F
:100A800003F03C07390709363C3C36090739073C77
:100A9000013CD460A04213D01B4E1C4F3368002C85
:100AA0002246B8BFE21C92109A423A6006D04FF438
:100AB0007A71174804F0FAFE3B6833602C60F8BD89
:100AC000F8BDB37A03F003030029D3D043F0040345
:100AD000D0E70E4E0C490B4A094D002380F8143222
:100AE0001C4633600B601846D3602B60ADE7023CB8
:100AF000D460CFE70234D460CCE70134D460C9E7D6
:100B00008C7CFF1F107CFF1FB47CFF1FB07CFF1F7D
:100B1000A82D00202DE9F84F002383461D460E46E0
:100B200080F87431994600F5D67A00F180081024D7
:100B3000012706E08BF8747101350134102DE4B201
:100B400016D05AF8043F002BF6D0B342F2D8DBF8A7
:100B50001032CAF800905B5D2146404653B901351A
:100B600012F0FCFD0134102D8BF87571E4B2E8D160
:100B7000BDE8F88F12F0B2FD0028DDD121464046D5
:100B800012F0CEFD8BF87571D6E700BF38B5144C66
:100B90000C40002C1FDB031993F8A0516DB9012202
:100BA00083F8A021C9B2803012F0BAFD2A4621464E
:100BB0000C48BDE838400BF0C3BC002283F8A021EC
:100BC000C9B2803012F0CAFD214601220548BDE8B5
:100BD00038400BF0B5BC013C64F00F040134DAE797
:100BE0000F0000800431002038B5144C0C40002C5C
:100BF0001FDB031993F8A0216AB90125C9B280301F
:100C000083F8A05112F08CFD2A4621460C48BDE81D
:100C100038400BF0A9BC0025C9B2803083F8A05140
:100C200012F09CFD2A4621460548BDE838400BF0ED
:100C30009BBC013C64F00F040134DAE70F00008034
:100C40000431002038B5144C0C40002C1FDB031974
:100C500093F8A0216AB90125C9B2803083F8A05168
:100C600012F05EFD2A4621460C48BDE838400BF0E4
:100C70001BBE0025C9B2803083F8A05112F06EFD72
:100C80002A4621460548BDE838400BF00DBE013C20
:100C900064F00F040134DAE70F0000800431002013
:100CA000154B0B40002B10B504461FDB234493F873
:100CB00080216AB9012283F88021C9B204F1800041
:100CC00012F02EFD012384F8153284F8143210BD81
:100CD000002283F88021C9B204F1800012F03EFDA9
:100CE000012384F8153284F8143210BD013B63F0FF
:100CF0000F030133DAE700BF0F0000802DE9F8434E
:100D000080460F4600F1800600F29F1510244FF038
:100D1000000903E00134E4B2202C0DD015F8013FA6
:100D2000002BF7D0214601343046E4B212F016FD14
:100D3000202C85F80090F1D1094B3B40002B09DBBA
:100D400043440122F9B2304683F8A021BDE8F843BC
:100D500012F0E6BC013B63F00F030133F0E700BF84
:100D60000F000080F8B507464D1E00F180061024E4
:100D700005E00134E4B212F0D3FC202C0DD015F8BC
:100D8000013F21463046002BF3D121460134304645
:100D9000E4B212F0E3FC202CF1D1012387F8753185
:100DA000F8BD00BF38B500F5D0750446C0F8105244
:100DB00000F29F13002200F2AF1003F8012F8342CC
:100DC000FBD106480BF0A4F923180122294620463E
:100DD00083F89F21BDE83840FFF7C4BF04310020ED
:100DE00038B505460C480BF045FA05F5D071C5F845
:100DF000101205F29F1305F2AF14002203F8012F21
:100E0000A342FBD12B180122284683F8A021BDE87C
:100E10003840FFF7A7BF00BF0431002038B50546B2
:100E20000C480CF035F805F5D071C5F8101205F234
:100E30009F1305F2AF14002203F8012FA342FBD148
:100E40002B180122284683F8A021BDE83840FFF77F
:100E500089BF00BFAC67002038B500F5D0750446E7
:100E6000C0F8105200F29F1300F2AF11002203F8F5
:100E7000012F8B42FBD12946044810220AF0DCFFE7
:100E800029462046BDE83840FFF76CBF04310020FA
:100E9000B64B1B6870B5013B00F5AA7504462846A1
:100EA0000C2B00F28480DFE803F04B4B6C4B4B8241
:100EB0004B4B4B25824B070016F09EFB002840F061
:100EC000038104F5AE75284616F096FB002840F025
:100ED0009E8004F5B275284616F08EFB002840F07F
:100EE000518104F5B674204616F086FB002840F0C8
:100EF000D38070BD16F080FB002840F0D48004F54C
:100F0000AE75284616F078FB002840F0068104F5FF
:100F1000B275284616F070FB002840F0AB8004F54F
:100F2000B674204616F068FB0028E2D0204616F082
:100F3000A9FB002800F040818D4B0022DA6070BDD3
:100F400016F05AFB002840F0DE8004F5AE75284606
:100F500016F052FB002840F0F68004F5B2752846E2
:100F600016F04AFB002864D104F5B674204616F04A
:100F700043FB0028BDD0204616F084FB0028DBD1BF
:100F800070BD16F039FB0028B3D0284616F07AFB66
:100F9000002800F01281774A636A0021D160002B9B
:100FA00000F00C814FF47A70BDE87040184716F0DD
:100FB00023FB00284ED104F5AE75284616F01CFB25
:100FC000002840F0AE8004F5B275284616F014FBF8
:100FD00060B904F5B674204616F00EFB002888D0E0
:100FE000204616F04FFB0028A6D170BD284616F00B
:100FF00049FB0028EDD0604B002204F5B674DA609E
:10100000204616F0F9FA00283FF473AFE8E72846C7
:1010100016F038FB00283FF45CAF584B002204F573
:10102000B275DA60284616F0E7FA00283FF459AFA7
:10103000A8E0284616F026FB002895D04E4B00224B
:1010400004F5B674DA60204616F0D6FA00283FF4AC
:1010500050AF90E7284616F015FB0028ABD0454B63
:10106000002204F5AE75DA60284616F0C5FA0028AD
:10107000A9D056E0284616F005FB00283FF44FAFF4
:101080003D4B002204F5B674DA60204616F0B4FA3F
:1010900000283FF42EAF49E7204616F0F3FA002867
:1010A0007FF44AAF70BD284616F0ECFA00283FF4F2
:1010B00026AF304A636A0021D160002B3FF41FAF96
:1010C0004FF47A7098471AE7284616F0DBFA0028A2
:1010D0003FF4F7AE2A480AF083FF421E54FA82F228
:1010E00092F8A03183F0010382F8A031002B5BD18C
:1010F00000F10F01C9B204F1800012F02FFB0123AF
:1011000084F87531DDE6284616F0BCFA00283FF475
:101110001CAF1B480AF064FF17E7284616F0B2FA26
:10112000F5E6284616F0AEFA00283FF44CAF134B14
:10113000002204F5B275DA60284616F05DFA002840
:101140003FF447AF52E7284616F09CFA00283FF4D8
:1011500004AF0A4B002204F5B275DA60284616F097
:101160004BFA00283FF400AF63E700BFBC6FFF1FDE
:10117000407CFF1F107CFF1F307CFF1F207CFF1F67
:1011800004310020284616F07DFA00283FF4A9AE6D
:101190000B4B002204F5B674DA60204616F02CFAE8
:1011A00000283FF4A6AE77E700F10F01C9B204F1C1
:1011B000800012F0B5FAA2E770BD70BD70BD00BF2F
:1011C000307CFF1FA1F57A71032906D8DFE801F012
:1011D0000E0A0602074B0022DA607047064B002217
:1011E000DA607047054B0022DA607047044B00223A
:1011F000DA607047407CFF1F307CFF1F207CFF1FA0
:10120000107CFF1F70B500F586750446284616F061
:10121000F3F900B970BD284616F034FA0028F9D069
:10122000A36ABDE87040184708B590F8A40017F00D
:10123000FFF8084A1368C0F58040A3F164018842B2
:1012400002DB6433984201DD106008BD4FF0FF30CF
:1012500008BD00BF6C7CFF1F08B590F8A80017F010
:10126000E7F8074A1368A3F16401884202DB64339C
:10127000984201DD106008BD4FF0FF3008BD00BF8F
:10128000647CFF1F30B500F58A7483B005462046A4
:1012900016F0B2F930B9204616F0EAF980B900200C
:1012A00003B030BD204616F0EDF90028F3D00A4B0C
:1012B0001B680193019BC5F8B030012003B030BD1D
:1012C00095F824320020042BC5F8B000E7D185F84A
:1012D0002402A5F82602E3E7CC940020054B82B057
:1012E0001B680193019B03F5FA63C0F8283202B032
:1012F000704700BFCC940020054B82B01B6801935F
:10130000019B03F5FA63C0F82C3202B0704700BFAE
:10131000CC940020F0B5B1B007462849284E684665
:10132000144616F02BFE274904A816F027FE26497E
:1013300008A816F023FE25490CA816F01FFE244924
:1013400010A816F01BFE234914A816F017FE224918
:1013500018A816F013FE21491CA816F00FFE20490C
:1013600020A816F00BFE1F4924A816F007FE1E4900
:1013700028A816F003FE1D492CA816F0FFFD86FBD9
:101380000426E317C3EB660606EB4601A4EB8101D6
:10139000C9B20DEB0111384616F004FEF1B2384621
:1013A00016F094FE6D4630AC103C204616F0A6FDBB
:1013B000AC42F9D1384631B0F0BD00BFA44E0200B6
:1013C000ABAAAA2AA84E0200F44F0200AC4E0200BB
:1013D000044E020074510200B04E02009852020006
:1013E000B44E0200B84E0200BC4E0200C04E0200D5
:1013F000F0B5144DDFF854E00E4617460FCD8FB010
:1014000002AC0FC40FCD0FC495E80F008EFB065E33
:10141000F517C5EB6E0584E80F0005EB450EA6EB4E
:101420008E060EABF6B203EB8606EDB256F8303CF4
:10143000054A0095384604211DF0F0FF38460FB0EC
:10144000F0BD00BF744E0200C44E0200ABAAAA2A2F
:1014500010B5012200210D48FFF7ACF9032202214B
:101460000B48FFF7A7F9052204210A48FFF7A2F964
:10147000082206210848FFF79DF921232322222173
:101480000648BDE8104011F0ABBD00BF107CFF1F47
:10149000207CFF1F307CFF1F407CFF1F907CFF1FC4
:1014A00010B586B00B460A4C0A4A684615211DF055
:1014B000B5FF00221146204611F0BEFE68461EF020
:1014C0003FFA69460246204616F030FB06B010BDD2
:1014D000907CFF1FCC4E020070B5324D044632485E
:1014E0000AF026FE2B68052B064645D0072B2AD08E
:1014F000042B10D020462D49FFF7D2FF06212C489F
:1015000018F088FC29682B4816F09CFB2948BDE898
:10151000704016F047BB68B104F29F1400252946BD
:1015200021480AF04DFE013580F00100B54204F873
:10153000010FF4D10921204818F06CFC1D48BDE8CA
:10154000704016F02FBB70B104F29F14002529469D
:1015500015480AF059FE0135003018BF0120B54288
:1015600004F8010FF3D10B21144818F053FC114873
:10157000BDE8704016F016BB58B104F29F14002568
:10158000294609480AF02EFE0135B54204F8010F3C
:10159000F6D109210A4818F03DFC0648BDE8704024
:1015A00016F000BBBC6FFF1F04310020044F020087
:1015B000344F02001871FF1FF84E0200E04E020087
:1015C000EC4E020010B588B00B4600920A4C0B4A54
:1015D00002A815211DF022FF00221146204611F01D
:1015E0002BFE02A81EF0ACF902A90246204616F016
:1015F0009DFA08B010BD00BF907CFF1F3C4F020059
:1016000010B588B00B4600920A4C0B4A02A815216F
:101610001DF004FF00221146204611F00DFE02A825
:101620001EF08EF902A90246204616F07FFA08B095
:1016300010BD00BF907CFF1F3C4F020030B5D0F8BA
:1016400018120C4C0C4A87B00546013168461DF053
:10165000E5FE0021C5F828122046022211F0ECFD1B
:1016600068461EF06DF969460246204616F05EFA9D
:1016700007B030BD907CFF1F504F020030B5D0F84E
:101680001C120C4C0C4A87B00546013168461DF00F
:10169000C5FE0021C5F82C122046012211F0CCFD18
:1016A00068461EF04DF969460246204616F03EFA9D
:1016B00007B030BD907CFF1F504F020010B5D0F82E
:1016C000283282B004462BB10E4A12680092009A6A
:1016D000934210D3D4F82C325BB10A4A12680192BB
:1016E000019A934205D22046FFF7C8FF0023C4F8B1
:1016F0002C3202B010BDFFF7A1FF0023C4F828323E
:10170000E8E700BFCC94002070B50D4D0C460646AE
:10171000FFF794FF02220021284611F08DFD20469C
:101720001EF00EF921460246284616F0FFF9204623
:101730001EF006F9142828BF1420C6F8180270BD40
:10174000907CFF1F70B5114D0C460646FFF776FFE3
:1017500028460222002111F06FFD20461EF0F0F80D
:1017600021460246284616F0E1F920461EF0E8F828
:10177000C6F8180220461EF0E3F80146204618F08D
:1017800049FB0348BDE8704016F00CBA907CFF1F7F
:101790001871FF1F10B586B00B460D4A0D4C152170
:1017A00068461DF03BFE68461EF0CAF8C0F1100105
:1017B000C9B22046002211F03FFD68461EF0C0F875
:1017C00069460246204616F0B1F906B010BD00BFCA
:1017D000684F0200907CFF1F70B50E4C05460E4608
:1017E00020460122002111F027FD13220A4920463C
:1017F00016F09CF920460222002111F01DFD314611
:10180000204616F0A9F91323C5F81832C5F81C3282
:1018100070BD00BF907CFF1F6C4F02002DE9F04FA0
:101820002DED028B91B000F5C07103907C480AF059
:10183000AFFA002840F09180039B0290FF270646F4
:101840008046814601900446BB463D46009703F220
:101850007F1AB7EE008A02E00134102C4FD01AF83C
:10186000012F002AF8D0224608A86D490AF092F804
:101870009DF824200098824208D001990131CBB212
:1018800090420193034628BF13460093DDED0D7A85
:10189000F4EE487AF1EE10FA03D0029A0132D3B294
:1018A0000293F4EEC87AF1EE10FA21465C48D8BFF4
:1018B000B0EE678A0AF060FCA84207D0854209F1C1
:1018C000010928BF05465FFA89F9EDB29DF8392074
:1018D0005A4506D008F1010893455FFA88F828BFF9
:1018E00093469DF83820BA42B6D0974204F10104DD
:1018F00006F1010628BF1746102CF6B2AFD101221F
:101900000021484811F098FC12224749454816F03A
:101910000DF9294604A816F063FBB9F1010F25D98A
:10192000424920E0424904A816F0C2FB069B112B55
:10193000F8D9022200213B4811F07EFC04A9394865
:1019400016F00AF9039C102312220DEB0300C4F8D1
:101950001822C4F81C3216F0D1FA11B0BDEC028B7B
:10196000BDE8F08F324904A816F0A2FB069B022BBB
:10197000F8D9594608A816F033FB08A904A816F0B0
:1019800093FB08A816F0BAFAB8F1010F05D9274958
:1019900000E0274904A816F08BFB069B052BF8D91D
:1019A000394608A816F01CFB08A904A816F07CFB11
:1019B00008A816F0A3FA012E05D91C4900E01C491D
:1019C00004A816F075FB069B082BF8D9009A03991A
:1019D00008A8FFF79FFC08A904A816F065FB08A853
:1019E00016F08CFA019B012B05D9104900E0104933
:1019F00004A816F05DFB069B0C2BF8D9B0EE480A44
:101A0000022108A816F000FB08A904A816F04CFB58
:101A100008A816F073FA029B012B87D9034982E7C5
:101A200004310020907CFF1F944F0200A84F020059
:101A3000EC4F020010B502220C460B48122111F0A7
:101A4000FBFB0A490848022216F070F8082CD4BFA4
:101A5000132112210448022211F0EEFB2146024814
:101A6000BDE8104016F0EEB8907CFF1FDC4E02007F
:101A700038B504460E4809F0ABFF04F5D0710546B1
:101A8000C4F8101204F29F1304F2AF10002203F8FE
:101A9000012F8342FBD163190122204683F8A02144
:101AA000FFF760F929462046BDE83840FFF7C2BF7E
:101AB0000431002010B503220C460B48122111F00E
:101AC000BBFB0A490848022216F030F8082C94BFE4
:101AD000132112210448032211F0AEFB611C0248BD
:101AE000BDE8104016F0AEB8907CFF1FDC4E02003F
:101AF00030B5204B1B7883B004460D461BB91E4BF6
:101B00001B68092B12D01D48A46B09F06FFF1C49FC
:101B100029400029024604DBC9B20220A04703B0D5
:101B200030BD013961F00F010131F5E7FFF7E6F84B
:101B300013492940002918DBCDB229460F4809F086
:101B40006DFF0E4809F036FF01462046FFF7FAFD0B
:101B50000C4B1B680193019B03F5FA632946C4F8FB
:101B600028322046FFF7A6FFD9E7013961F00F01BF
:101B70000131E1E7FD660020BC6FFF1F043100204A
:101B80000F000080CC94002010B502220C460D48B6
:101B90000F2111F051FB0C490A48022215F0C6FF33
:101BA000092C4FF0020294BF10210F21054811F0BB
:101BB00043FB214600230A220248BDE8104016F0EC
:101BC00001B800BF907CFF1FDC4E020038B5044610
:101BD0000E4809F00BFF04F5D0710546C4F8101249
:101BE00004F29F1304F2AF10002203F8012F834286
:101BF000FBD163190122204683F89F21FFF7B2F839
:101C000029462046BDE83840FFF7BEBF043100201A
:101C100038B5594D2B68013B04460C2B00F2A180CE
:101C2000DFE803F05F6B6D07071A0726313C4A9423
:101C30008900002300F5D075026A4362012380F811
:101C40003132C0F810528262FFF746FC2946204626
:101C5000BDE83840FFF786B8036A8362002200F5CA
:101C6000C0714262C0F81012BDE83840FFF77AB880
:101C70008368026A4362012380F831328262BDE8E0
:101C80003840FFF78FB80023026A4362012380F8CF
:101C900031328262BDE83840FFF7A2B8C36A026AF7
:101CA0004362012380F831328262FFF7B7F833488C
:101CB000BDE838400BF068BF036A836200F5D0715D
:101CC00000224262C0F8101200F29F1300F2AF101F
:101CD00003F8012F8342FBD12046BDE83840FFF7CF
:101CE00041B8C368226A63620123A26284F8313278
:101CF0002046BDE83840FFF7BBBE0369F2E7036B3F
:101D0000026A436200F5D0710123826280F83132A9
:101D1000C0F8101200F29F13002200F2AF1003F877
:101D2000012F8342FBD12046FFF71CF81448BDE881
:101D3000384003F073BC0023026A4362012380F839
:101D400031328262BDE83840FFF786B8436B026AE1
:101D50004362012380F831328262BDE83840FFF7E8
:101D600035BF2921074818F055F829680648BDE80D
:101D7000384015F067BF00BFBC6FFF1FAC67002085
:101D8000A82D0020AC4F02001871FF1F134A144BFE
:101D9000126870B553F82250124C86B00646284699
:101DA0001DF0CEFDD6F820120F4AC6F8200281425F
:101DB000B8BF01462B46013168461DF02FFB204677
:101DC0000122002111F038FA68461DF0B9FD69467C
:101DD0000246204615F0AAFE06B070BDBC6FFF1F7C
:101DE0007C6FFF1F907CFF1FD84F020070B500F57D
:101DF000927586B00446284615F0FEFB002840F098
:101E00002581284615F034FC002840F0E88004F5D0
:101E10009A75284615F0F0FB002840F0F38028461C
:101E200015F026FC002840F0A38004F5967528469E
:101E300015F0E2FB002840F0AE80284615F018FCB3
:101E4000002870D104F59E75284615F0D5FB0028B2
:101E500073D1284615F00CFC00283FD104F5A2757B
:101E6000284615F0C9FB002842D1284615F000FC91
:101E700070B904F5A675284615F0BEFB90B9284642
:101E800015F0F6FB10B10023C4F8CC3006B070BDDD
:101E9000002304F5A675C4F8C830284615F0ACFB3D
:101EA0000028ECD0284615F0EDFB0028E7D02046AE
:101EB000FFF7C4FB964B092220461A60FFF7A8FEE5
:101EC0002046FFF763FF934B1B680593059BC4F8FF
:101ED000CC30012384F8143206B070BD002304F521
:101EE000A275C4F8C430284615F086FB0028BCD083
:101EF000284615F0C7FB0028B7D02046FFF79EFB09
:101F0000834B082220461A60FFF782FE2046FFF727
:101F10003DFF804B1B680493049BC4F8C830012329
:101F200084F81432A5E7002304F59E75C4F8BC308C
:101F3000284615F061FB00288BD0284615F0A2FB3F
:101F4000002886D02046FFF779FB714B07222046F8
:101F50001A60FFF75DFE2046FFF718FF6D4B1B6808
:101F60000393039BC4F8C430012384F8143275E74B
:101F700094F824220023032A04F5967504BF84F8FC
:101F80002432A4F82632C4F8C030284615F034FBB9
:101F900000283FF452AF284615F074FB00283FF4A8
:101FA0004CAF2046FFF74AFB594B1A68052A00F050
:101FB0008C80042A00F09480574A12681A602046E8
:101FC000FFF726FE2046FFF7E1FE524B1B68029307
:101FD000029BC4F8BC30012384F8143232E794F831
:101FE00024220023022A04F59A7504BF84F82432BF
:101FF000A4F82632C4F8B830284615F0FDFA0028B7
:102000003FF40DAF284615F03DFB00283FF407AF25
:102010002046FFF713FB3E4A1368062B50D00C2BCB
:1020200058D00D2B42D03D4B1B6813602046FFF764
:10203000EFFD2046FFF7AAFE364B1B680193019B7C
:10204000C4F8C030012384F81432EEE6284615F0B7
:1020500019FB00283FF4D5AE2046FFF7EFFA2C4AD3
:102060001368012B27D0022B3FD0032B14D00A2B4F
:1020700045D02B4B1B6813602046FFF7C9FD204657
:10208000FFF784FE234B1B680093009BC4F8B83015
:10209000012384F81432BAE6214D224901264FF07B
:1020A000FF300A232E6008601360E5E71B49062312
:1020B0000B601360BAE71A48022103601160DBE786
:1020C00016480C2103601160B0E7134904220A602E
:1020D0001A6074E7114906200D2308601360A5E714
:1020E0000D4905220A601A6069E70D4D0D49012668
:1020F0004FF0FF3003232E6008601360BCE7084DEB
:10210000084901234FF0FF302B6013600860B3E7EC
:10211000BC6FFF1FCC940020386FFF1F346FFF1F70
:102120003C6FFF1FB86FFF1F70B5044616480E4680
:1021300009F05CFC06F00F030133984206D004F569
:10214000D0712046BDE87040FEF70CBE0546314612
:102150002046FEF7D3FD29462046FFF715FD0A4825
:102160000AF088F801462046FFF7A4FC074B062238
:1021700020461A60FFF74CFD2046FFF707FE0123BB
:1021800084F8143270BD00BF04310020BC6FFF1F03
:1021900010B500220C461248112111F04DF803220F
:1021A00010490F4815F0C2FC632C4FF000020CDC04
:1021B000092CCCBF12211321094811F03DF821460A
:1021C0000748BDE8104015F03DBD1121044811F04D
:1021D00033F821460248BDE8104015F033BD00BF7A
:1021E000907CFF1F8C4F020010B501220C46124854
:1021F000112111F021F8032210490F4815F096FC27
:10220000092C4FF001020CDD632CD4BF12211121E7
:10221000094811F011F821460748BDE8104015F0B3
:1022200011BD1321044811F007F821460248BDE80A
:10223000104015F007BD00BF907CFF1F8C4F0200BF
:10224000F0B587B005460C9F0D9E0E9C0F98296037
:102250006A601499159AAB60EF60109B119F2E6114
:102260006C61129E139C6963AA63EB61A8612F6283
:10227000EE622C6305F1A80305F1D001002243F8BA
:10228000042F9942FBD105F27F1205F28F13002132
:1022900002F8011F9A42FBD105F29F11002203F8B8
:1022A000012F9942FBD105F5D67305F5F671002291
:1022B00043F8042F9942FBD105F2EF1305F20F21E9
:1022C000002203F8012F9942FBD176247521742254
:1022D000732305F1800677270394029101920093FE
:1022E0003046722304977122702111F02FFBEB6BA3
:1022F000002BC8BF002420DD2146304611F010FA23
:10230000304611F07DFB0A2016F0F8FC0134EB6B2F
:10231000E4B29C42F0DB002B0FDD00242146304666
:1023200011F01CFA304611F06BFB0A2016F0E6FCA7
:102330000134EB6BE4B29C42F0DB142016F0DEFCBF
:102340002846FFF765FC2846FFF720FD0F480EF0F2
:10235000A1FC01462846FFF71BFF0C480EF09CFC31
:1023600001462846FFF740FF094809F083FF014670
:102370002846FFF79FFB064809F038FB0146284630
:1023800007B0BDE8F040FFF7FFBB00BFD0900020D2
:1023900004310020F8B5144D0C4617460646FFF7E9
:1023A0004DF902220021284610F046FF20461DF07C
:1023B000C7FA21460246284615F0B8FB20461DF014
:1023C000BFFA0222C1B2284610F036FF394628462D
:1023D00015F038FC20461DF0B3FA0630142828BF4B
:1023E0001420C6F81802F8BD907CFF1FF8B51F4CEA
:1023F0001F4F154600220E462046114610F01CFFC6
:10240000204611221B4915F091FB0022114620465F
:1024100010F012FF30461DF093FA31460246204676
:1024200015F084FB20460122002110F005FF28460C
:102430001DF086FA29460246204615F077FB304605
:102440001DF07EFA0146304617F0E4FC384615F0E0
:10245000A9FB28461DF074FA0146284617F0DAFC5D
:102460003846BDE8F84015F09DBB00BF907CFF1FCB
:102470001871FF1FDC4F0200B0B588B002AF0446F0
:102480000B4600921521164A164D38461CF0C6FF21
:1024900038461DF055FAD4F81832C4F8180298429C
:1024A0000146B8BF194601F1080323F00703ADEB5D
:1024B000030D02AC3B460C4A013120461CF0AEFF36
:1024C00028460222002110F0B7FE20461DF038FAFF
:1024D00021460246284615F029FB1837BD46B0BDF7
:1024E000F04F0200907CFF1FD84F02002DE9F0470B
:1024F00090F8313282B00546002B40F08280584E71
:10250000584A3068D46892F809E092E8880019784F
:1025100097F800C0137A534F1CEA0E0F01EA03012B
:102520005AD0BB7A03F0030309B143F0040343F02C
:1025300008039910013B91720D2B0AD8DFE803F0D4
:102540005E075807095B5E5E5B090758075E013C42
:10255000D460C31EA34202DC0330A04239DA4248F1
:1025600009F044FA3368E31A48BF033300EBA307CA
:10257000002F39DC0127DFF80081D8F800309F42B6
:1025800026D05FFA87F94946374809F05BFB3A469F
:1025900036492846FFF770FF354B364A1B680193D2
:1025A000019B126803F5FA630C2AC5F8283239D06A
:1025B00049462846FFF7E8FA2B4809F05BFE01463A
:1025C0002846FFF777FA2846FFF722FBC8F8007085
:1025D000346002B0BDE8F087BB7A03F00303002942
:1025E000A7D043F00403A4E7022FA8BF0227C2E745
:1025F0000234D460ADE7023CD460AAE70134D46071
:10260000A7E7002380F831321748154E09F0EEF99C
:102610001949144A086003B29B001C4618463360EF
:10262000D36070E7D8F80030E8192B44002209F194
:102630000F014FF0010A05F1800980F89FA1C9B28E
:1026400083F89F21484611F06BF8D8F800100F313D
:102650004846C9B211F082F885F875A1B6E700BF07
:10266000807CFF1F107CFF1F04310020F84F020008
:10267000CC940020BC6FFF1FF07BFF1F2DE9F041C1
:10268000A84D2DED028B2B68DA0782B0044640F18D
:10269000EB81A54D2B68DB0740F1D78194F814320C
:1026A000002B40F0AF81A14DA14E2B6869681A78CC
:1026B000687A0F782B7A9D49074202EA03021DD0FF
:1026C0008B7A03F003030AB143F0040343F00803D9
:1026D0009A10013BAA720D2B00F26881DFE813F01B
:1026E000540150014C01500166011600540154017F
:1026F0001600660150014C01500154018B7A03F021
:102700000303002AE4D043F00403E1E7EB68023B53
:10271000EB6007EE903A9FED876A96ED007ADFED69
:10272000866AF8EEE77A87EE868A77EE267AB4EE46
:10273000E78AF1EE10FA06DA37EE667AB4EEC78A67
:10274000F1EE10FA40D87D4BDFED7D7AD3ED006AD3
:10275000B1EE007AE6EEC77AB4EEE78AF1EE10FA4F
:1027600040F13A81B9EE008A26EE888ADFED717A6F
:1027700068EE277AFDEEE77AC5ED037A714D724F68
:1027800095ED000AF5EE007A68EE277AF4EE407ACD
:10279000F1EE10FAC7ED007A40F075819FED650A01
:1027A0006A4967EE807A2046FDEEE77A17EE902AB6
:1027B000FFF762FE664B86ED008A1B680193019B62
:1027C00003F5FA63C4F82832624A1368506819782E
:1027D0000578507A137A054201EA030100F0F3808C
:1027E000937A03F0030309B143F0040343F00803B1
:1027F0009910013B91720D2B00F2D680DFE813F0A7
:10280000D000C800CC00C800D4000E00D000D0001A
:102810000E00D400C800CC00C800D000D568023D2E
:10282000D5604D4E3368DA1EAA4202DCDA1CAA4299
:102830001DDA4A4FDFF83C81EA1A3B68D8F80010ED
:1028400048BF033203EBA203082BA8BF082323EAE7
:10285000E37399423B6006D0194641480EF014FAE2
:102860003968C8F800102046FFF7BEFC35603D4AC5
:102870001368506819780578507A137A054201EA8E
:10288000030100F09780937A03F0030309B143F04A
:10289000040343F008039910013B91720D2B00F2E1
:1028A0008780DFE803F03B37333785073B3B0785FD
:1028B0003733373BD568023DD5602B4E3068C31E99
:1028C000AB4202DCC31CAB421BDA284A281A13684D
:1028D00048BF033003EBA000002840F3E280B0F5CE
:1028E000967FA8BF4FF49670214F10603B68DFF8C9
:1028F0007C80984204D063699847D8F800303B60E8
:10290000356002B0BDEC028BBDE8F081D5680235C0
:10291000D560D2E7D568013DD560CEE7D5680135F1
:10292000D560CAE70C7CFF1F047CFF1F207CFF1FC3
:10293000687CFF1F0000C8420AD7233D707CFF1F40
:1029400000000000AC7CFF1FE47BFF1F0050020072
:10295000CC940020307CFF1FBC7CFF1F007CFF1F3D
:10296000D0900020407CFF1F087CFF1F787CFF1F59
:10297000E87BFF1FFC7BFF1FEB680233EB60C8E6C0
:10298000EB68013BEB60C4E6EB680133EB60C0E64B
:10299000D568013DD56044E7D5680235D56040E78C
:1029A000D5680135D5603CE7D5683AE7EB68B0E615
:1029B000D56882E7937A03F0030300293FF46BAFF5
:1029C00043F0040367E7937A03F0030300293FF41D
:1029D0000FAF43F004030BE7334BD3ED007A27EE40
:1029E000877AB4EEC78AF1EE10FA7FF7C7AEDFED53
:1029F0002F7A67EE277AB0EE478AFDEEE77AC5EDCB
:102A0000037ABBE62A482B4DDFF8C4E02A4E0023A8
:102A1000002204F5C077036084F81422EA60394686
:102A20002648CEF80030336009F094FC244B23484C
:102A300083ED000A394609F0CBFCF7EE007A37EE59
:102A4000C00A194B83ED000A2FE6284615F058FE00
:102A500000283FF423AE1B480EF01EF91A4B1860F5
:102A6000284615F053FE19E6284615F049FE0028C1
:102A70003FF40FAE13480EF00BF9144B18602846C4
:102A800015F044FE05E637EEC00A94F830220B48F4
:102A900004F5C07109F020FED7ED007AC5ED007A8B
:102AA0007CE6012020E700BF747CFF1F0000C842C5
:102AB000E47BFF1F207CFF1F687CFF1F0431002088
:102AC000707CFF1FD0900020007CFF1F787CFF1FD0
:102AD000AC7CFF1F384B1B680D2B00D070472DE9D5
:102AE000F041364BCFB20B4007F00F06002B82B0FF
:102AF00006F1010639DBC418054694F8A0317BB114
:102B00002F4B93F80080B8F1000F33D14246314685
:102B10002C4809F007FA002838D102B0BDE8F0814E
:102B2000274B1B78DBB901223146264809F0FAF918
:102B300030B3012384F8A031394605F1800010F04C
:102B4000EFFD324620492846FFF796FC1F4B1B68D5
:102B50000193019B03F5FA63C5F82832DDE7836B27
:102B60003246012104209847D7E7013B63F00F0369
:102B70000133C0E7836B3246002104209847CCE73D
:102B8000394605F1800010F0E9FDC6E7394605F148
:102B9000800084F8A08110F0E1FD32460C492846FF
:102BA000FFF76AFC094B1B680093009B03F5FA636F
:102BB000C5F82832B1E700BFBC6FFF1F0F000080CF
:102BC000FD660020043100201C500200CC9400203F
:102BD0000C50020010B5013A8CB00446032A6BD8A1
:102BE000DFE802F052371D0240F6B833994200F098
:102BF00086806AD941F28833994200F0AA8041F672
:102C00005833994264D15F49FEF79CFD5E4B1B68C7
:102C10000B930B9B03F5FA63C4F8283253E040F69C
:102C2000B833994277D050D941F28833994200F0B5
:102C30009C8041F6583399424AD15449FEF782FDAF
:102C4000514B1B680893089B03F5FA63C4F82832BC
:102C500039E04F4A40F6B833994212683DD034D932
:102C600041F28833994262D041F6583399422FD1CC
:102C70004849FEF767FD444B1B680593059B03F528
:102C8000FA63C4F828321EE04348019109F0C8FFF6
:102C9000019940F6B83399422BD016D941F28833C6
:102CA000994250D041F65833994211D102463B49DE
:102CB0002046FFF7E1FB06E03949FEF7F1FB3A2138
:102CC000384817F0A7F80CB010BDB1F57A7FFAD0EC
:102CD0002046FEF7B3FC0CB010BD3349FFF7CCFB28
:102CE000294B1B680393039B03F5FA63C4F828324E
:102CF000E9E702462C492046FFF7BEFBE3E72B49F4
:102D0000FEF720FD204B1B680993099B03F5FA632E
:102D1000C4F82832D7E72649FEF714FD1A4B1B6882
:102D20000693069B03F5FA63C4F82832CBE72149E2
:102D3000FFF7A2FB144B1B680493049B03F5FA6393
:102D4000C4F82832BFE702461B492046FFF794FB30
:102D5000B9E71A49FEF7F6FC0B4B1B680A930A9B6E
:102D600003F5FA63C4F82832ADE71549FEF7EAFC2B
:102D7000054B1B680793079B03F5FA63C4F82832D9
:102D8000A1E700BFD0500200CC9400209C5002006C
:102D9000B86FFF1F68500200AC6700204850020067
:102DA000D8500200E850020028500200A85002004B
:102DB000785002005850020038500200C050020003
:102DC0008C500200B1F57A7F38B504D8B0F82642AD
:102DD00094B3002038BD40F6B834A14212D8B0F800
:102DE0002612B1F57A7FF4D1A0F826422146FFF7EA
:102DF000F1FE0821284817F00DF8284814F0D2FEFB
:102E0000002038BD41F28835A94222D941F6583414
:102E1000A142B0F826122ED8A942DAD1A0F8264253
:102E20002146FFF7D7FE04211D4816F0F3FF1B488B
:102E300014F0B8FE002038BD4FF47A72A0F82622B4
:102E40000B21184816F0E6FF144814F0ABFE20469C
:102E500038BDB0F82612A142BBD1A0F826522946AF
:102E6000FFF7B8FE0621104816F0D4FF0B4814F007
:102E700099FE012038BDA142ABD10024A0F8264222
:102E80002146FFF7A7FE0821084816F0C3FF0348B4
:102E900014F088FE204638BD305102001871FF1F23
:102EA00044510200245102003C5102004C510200E6
:102EB00070B51A4D82B08DED010A0C460646FEF73C
:102EC000BDFB28460222002110F0B6F920461CF076
:102ED00037FD21460246284614F028FE20461CF005
:102EE0002FFD0222C1B2284610F0A6F99DED010A7D
:102EF00010EE100A1BF0C4F841EC100B022128461A
:102F000014F0AAFE20461CF01BFD0630142828BF32
:102F10001420C6F8180202B070BD00BF907CFF1FDD
:102F2000F8B5184D0C4616460746FEF787FB0222F9
:102F30000021284610F080F920461CF001FD2146B2
:102F40000246284614F0F2FD20461CF0F9FC02224D
:102F5000C1B2284610F070F930461CF0F1FC314641
:102F60000246284614F0E2FD20461CF0E9FC044627
:102F700030461CF0E5FC2044142828BF1420C7F874
:102F80001802F8BD907CFF1FB0B588B002AF0446B0
:102F9000019300920B46174A174D152138461CF035
:102FA0003DFA38461CF0CCFCD4F81832C4F81802AC
:102FB00098420146B8BF194601F1080323F0070300
:102FC000ADEB030D02AC3B460C4A013120461CF030
:102FD00025FA28460222002110F02EF920461CF086
:102FE000AFFC21460246284614F0A0FD1837BD4626
:102FF000B0BD00BF58510200907CFF1FD84F0200A7
:103000002DE9F04190F8143282B00546002B40F0D3
:1030100082804E4F4E4E3B6879681A78787A0C78E9
:103020003B7A4A49044202EA030215D08B7A03F044
:1030300003030AB143F0040343F008039A10013B71
:10304000BA720D2B65D8DFE803F058605C60640F3E
:1030500058580F64605C60588B7A03F00303002AB1
:10306000ECD043F00403E9E7FC68023CFC60336801
:10307000DA1CA24202DB033BA3423BDD354B1B784B
:10308000C3EB83739B00A34204DC334B1B789B0090
:10309000A34201DAFB601C46304FDFF8D0803A686B
:1030A000002C2346B8BFE31C9B109342C8F80030A5
:1030B0001FD09A1AD2B295F83032294805F5C0715E
:1030C00009F086FAD8F80080C7F8008001466A4601
:1030D0002846FEF78DF94246034622492846FFF767
:1030E00053FF214B1B680193019B03F5FA63C5F85D
:1030F0002832346002B0BDE8F081FC680134FC6025
:10310000B5E7FC680234FC60B1E7FC68013CFC6098
:10311000ADE7FC68ABE715490C4F104A0C4E104860
:10312000002305F5C0740B60FB602146136033601B
:1031300009F0B0F8074B21461870094809F0DAF891
:10314000054BC0F17F00187065E700BF107CFF1FC2
:10315000F87BFF1F507CFF1FF47BFF1FE07BFF1FEE
:103160000431002064510200CC940020EC7BFF1F4E
:10317000134B1A680D2A10B5044609D80123934051
:1031800043F2B6321A405AB91A0714D45B050ED46A
:103190002046FFF735FF2046BDE81040FFF76EBA26
:1031A000FFF7A4F92046BDE81040FFF767BABDE875
:1031B0001040FDF731BBBDE81040FDF73DBC00BF3E
:1031C000BC6FFF1FF0B58DB01D4D9DF848409DF8B8
:1031D0004CE09DF85070CDF80CE0013401930646A8
:1031E0004B1C00920294049707A8164A164C14210F
:1031F0001CF014F928460222002110F01DF807A83F
:103200001CF09EFB07A90246284614F08FFC07A875
:103210001CF096FBC6F81802204614F0C3FC1421DB
:103220000A4816F0F7FD07A81CF08AFB014607A81C
:1032300016F0F0FD204614F0B5FC0DB0F0BD00BF57
:10324000907CFF1F785102001871FF1F90510200FF
:1032500008B50322112109480FF0EEFF084B1B7837
:1032600001222BB907490548BDE8084014F05EBCAF
:1032700005490248BDE8084014F058BC907CFF1F87
:1032800040910020EC4F0200A851020010B5044606
:10329000032290F878110B480FF0CEFFD4F81022DB
:1032A000D4F87831D35C01222BB907490548BDE831
:1032B000104014F03BBC05490248BDE8104014F032
:1032C00035BC00BF907CFF1FEC4F0200AC510200E8
:1032D0002DE9F04F0446102300F1440720268FB05B
:1032E000036404F16208E6633846002510F094F99F
:1032F000404610F091F942463946049503950295EF
:10330000019500952B4604F1800010F087F9C4F870
:1033100004611A26C4F8E860192604F58673C4F817
:10332000EC601B264FF0250C4FF0240E1E21079356
:103330001F220523C4F8F0604FF0420B4FF0430A00
:103340004FF027094FF0260818271D201C26C4F827
:10335000DCC0C4F8E0E0C4F80831C4F8FC10C4F8DC
:103360000021C4F8A4B0C4F8A8A0C4F8D49004F50F
:103370008A7AC4F8D880C4F8E470C4F8F460C4F859
:10338000F800079814F018F9504614F015F904F5F0
:103390008E7904F592721646484614F00DF904F53C
:1033A000967230461746089614F006F904F59A719D
:1033B0000E463846099714F0FFF804F59E71304622
:1033C0000F460A9614F0F8F804F5A270064638463F
:1033D0000B9714F0F1F804F5A6700746304604F593
:1033E000AA7B0C9614F0E8F8384604F5AE780D97F1
:1033F00014F0E2F8584614F0DFF804F5B2774046CE
:1034000014F0DAF804F5B676384614F0D5F83046FC
:1034100014F0D2F8FF22012384F8302284F83132EC
:1034200084F8745184F8755184F8145284F8155254
:10343000C4F81852C4F81C52C4F8205284F824521C
:10344000A4F826524A21714816F0E4FC704814F0A2
:10345000A9FB2B466F48042214210FF011FF0A220A
:103460006D496C4814F062FB94F8A400022115F039
:10347000F5FB94F8A800022115F0F0FB94F8D800B1
:10348000022115F0EBFB94F8D400022115F0E6FBC5
:1034900094F8DC00022115F0E1FB94F8E000022131
:1034A00015F0DCFB94F8E400022115F0D7FB94F84A
:1034B000E800022115F0D2FB94F8EC00022115F08F
:1034C000CDFB94F8F000022115F0C8FB94F8F4004D
:1034D000022115F0C3FB0798D4F8D81014F074F843
:1034E0005046D4F8D41014F06FF84846D4F8DC10E5
:1034F00014F06AF80898D4F8E01014F065F8099808
:10350000D4F8E41014F060F80A98D4F8E81014F035
:103510005BF80B98D4F8EC1014F056F80C98D4F82B
:10352000F01014F051F80D9DD4F8F410284614F062
:103530004BF80798B4F8081114F05CF85046B4F84A
:10354000081114F057F84846B4F8081114F052F86E
:103550000898B4F8081114F04DF80998B4F8081157
:1035600014F048F80A98B4F8081114F043F80B98CE
:10357000B4F8081114F03EF80C98B4F8081114F0DF
:1035800039F82846B4F8081114F034F894F8F80023
:10359000022115F063FB94F8FC00022115F05EFB9C
:1035A00094F80001022115F059FB94F8040102215E
:1035B00015F054FB5846D4F8F81014F005F84046BE
:1035C000D4F8FC1014F000F83846D4F8001113F0C9
:1035D000FBFF3046D4F8041113F0F6FF5846B4F858
:1035E000081114F007F84046B4F8081114F002F876
:1035F0003846B4F8081113F0FDFF3046B4F808114E
:1036000013F0F8FF20460FB0BDE8F08FB051020074
:103610001871FF1F907CFF1FFC51020070B5164609
:103620000C460546C9B203221F480FF005FEFEB93D
:103630002B1993F88061D5F878317EB99C422BD054
:1036400021461A4808F0AAFD012818D93346014638
:103650000A221548BDE8704014F0B4BA9C424FF0FD
:10366000010213D012491048BDE8704014F05EBA50
:10367000012210490C48BDE8704014F057BA0122ED
:103680000D490948BDE8704014F050BA0B4906488E
:10369000BDE8704014F04ABA012209490248BDE869
:1036A000704014F043BA00BF907CFF1F043100202B
:1036B000AC510200A84F0200EC4F02000852020079
:1036C0000087020070B5441800220F29054684F8CF
:1036D000F0211FD901F00F060C463146FFF79EFF7F
:1036E00012211B4816F096FB31461A4814F0AAFA2C
:1036F000184814F057FA95F83032A34204BFFF235C
:1037000085F83032144B1B680A2B09D00B2B00D0E4
:1037100070BD214605F18000BDE8704010F01EB874
:103720002846FDF78BFF95F824220C480023012A38
:10373000C5F8D03004BF85F82432A5F826323146CA
:103740000AF058FA2846BDE87040FDF767BB00BF95
:103750000C5202001871FF1FBC6FFF1FAC670020E6
:1037600070B50D461646D0F87C1100220446FFF7CE
:1037700055FF0322E9B209480FF05EFD012236B978
:103780000749064814F0D2F9C4F87C5170BD0549C8
:10379000024814F0CBF9C4F87C5170BD907CFF1F37
:1037A0000087020008520200D0F8103270B55D5C4C
:1037B000C0F87811103104461646C9B2803095B170
:1037C0000FF0CCFF0122D4F878112046FFF7C8FF94
:1037D000D4F878316C33012244F8236084F87421E2
:1037E00084F8752170BD0FF09BFF2A46D4F878113C
:1037F0002046FFF7B5FFEBE72DE9F041012186B048
:10380000054648480FF03CFA0021122015F026FA30
:103810000121132015F022FA0121132015F00AFAD4
:103820000B26122015F00CFA30B9013E01464FF478
:1038300096744FF0130067D175217422732305F13C
:1038400080067727762402910192009330467223F6
:10385000049703947122702110F078F8EB6B002B21
:1038600009DD0024214630460FF078FF0134EB6B70
:10387000E4B29C42F6DB304610F0C2F805F29F132A
:1038800005F2AF11002203F8012F8B42FBD16FF438
:10389000BF76761B05F27F1405F28F1800273119C9
:1038A00004F8017F00222846FFF7B8FE4445F6D110
:1038B00005F5D67305F5F670002143F8041F834221
:1038C0004FF00002F9D1184B85F815220124062289
:1038D000284685F814421A60FEF79AF92846FEF742
:1038E00055FA12480DF0D6F901462846FEF750FC6D
:1038F0000E480DF0D1F901462846FEF775FC85F813
:10390000744106B0BDE8F08115F094F92346013BFF
:10391000FDD10121132015F08DF92346013BFDD186
:103920007FE700BF3070FF1FBC6FFF1FD0900020EB
:1039300030B5D0F8B83087B00446A3B1374A126822
:1039400002920299C91A0ED0354D2B68022201331A
:1039500080F824225AD002222046FFF733FA0028AA
:1039600047D107B030BDD4F8D030ABB12B4A126884
:1039700003920399C91A0FD0012284F82422204609
:10398000FFF720FA0028ECD0264809F049F9014653
:10399000244809F041FAE4E7D4F8C0308BB11F4A5B
:1039A000126804920499C91A0BD0032284F82422C5
:1039B0002046FFF707FA0028D3D02046FFF71CFF68
:1039C000CFE7D4F8B030002BCBD0144A1268059260
:1039D0000599C91AC5D0042284F824222046FFF78D
:1039E000F1F90028BDD0104808F05EF9E369984766
:1039F000B7E729680C4807F00DFE20462968FEF756
:103A000019F84FF0FF332B6007B030BD0648019125
:103A100007F0DEFF019928609DE700BFCC940020ED
:103A2000B86FFF1FAC670020043100202DE9F04F74
:103A300000F58E7585B00446284613F0DDFD10B9FB
:103A400005B0BDE8F08F284613F01CFE0028F7D023
:103A50008C4E3368013B0A2B57D8DFE803F0411E38
:103A600018565656560D0D560600874D2B78002BCE
:103A700054D1E3699847E3E7844A1378204683F0FA
:103A800001031370FFF7E4FB05B0BDE8F08F804839
:103A900001F016FE05B0BDE8F08F7E4D29684B1C85
:103AA00000F0D7807C4807F0B5FD2A687B492046A6
:103AB000FEF7E2FC7A4B1B680393039B03F5FA6362
:103AC000C4F8283201274FF0FF3320462B603760BF
:103AD000FEF79EF82046FEF759F984F81472AFE716
:103AE0006D4807F0D3FE30B36B4807F071FF6D49A6
:103AF00002462046FEF7C0FC694B1B680193019B00
:103B000003F5FA63C4F828329AE794F81532032BC8
:103B100000F2AA80DFE803F076593F200127204613
:103B20003760FEF775F82046FEF730F9002384F879
:103B300014722B7084E7584807F04AFF5A4902462E
:103B40002046FEF799FC564B1B680293029B03F537
:103B5000FA63C4F8283273E704F28F196FF4BF7761
:103B6000C8463F1B04F27F154FF0010A791915F87A
:103B7000013F08F8013F002285F800A02046FFF72A
:103B80004DFD4D454FF0010BF0D1022384F814B2E6
:103B900084F8153253E06FF4BF773F1B04F27F15B2
:103BA00004F28F1A4FF0000979194FF0000805F858
:103BB000019F42462046FFF731FD5545F4D10123D0
:103BC00084F8158284F8143239E004F28F196FF406
:103BD000BF77C8463F1B04F27F15791915F8013FDE
:103BE00008F8013F83F001032B7000222046FFF705
:103BF00015FDA945F1D10322012384F8152284F88B
:103C000014321CE06FF4C778C4EB080804F28F1577
:103C100004F27F1704F29F1908EB050115F8013F24
:103C200083F0010307F8013F00222046FFF7F6FC6E
:103C3000A945F1D1012384F8153284F81432336890
:103C4000062B7FF4FDAE04F5C0712046FDF78AF81F
:103C5000F6E6012520463560FDF7DAFF2046FEF73F
:103C600095F884F81452EBE63121104816F0D2F89A
:103C700094F815120E4813F0E5FF0D4813F092FF6B
:103C8000DDE700BFBC6FFF1F902E00204091002099
:103C9000A82D0020B86FFF1F043100204052020001
:103CA000CC940020205202003052020050520200F8
:103CB0001871FF1F70B504460D4696B080300FF0A6
:103CC0002FFD6319012283F8F0210F2D00F23F81AF
:103CD000DFE815F0240040005C00780094009D00AF
:103CE000A600AF00F100CB00DE00B8002A010401FD
:103CF00017011000B9492046FDF724FDB84BB9481B
:103D00001B681293129B03F5FA63C4F8283204F57A
:103D1000C071042208F09AFB16B070BDB24B1A684D
:103D2000511E012940F2D0810A2A00F0CD8120469F
:103D3000AE49FDF707FDAA4BAA481B680293029BF8
:103D400003F5FA63C4F8283204F5C071002208F0C4
:103D5000A3FBE1E7A44B1A68511E012940F2C08180
:103D60000B2A00F0BD812046A149FDF7EBFC9C4BDE
:103D70009C481B680193019B03F5FA63C4F8283241
:103D800004F5C071012208F087FBC5E7964B1B685C
:103D9000012B00F06C81083B012B40F2688120462A
:103DA0009449FDF7CFFC8E4B8E481B680493049B0F
:103DB00003F5FA63C4F8283204F5C071022208F052
:103DC0006BFBA9E7884B1B68012B00F06881083B5F
:103DD000012B40F2648120468749FDF7B3FC804BFC
:103DE00080481B680693069B03F5FA63C4F82832E3
:103DF00004F5C071032208F04FFB8DE77F4B1B7861
:103E0000002B00F02781A3690120984784E77B4BB2
:103E10001B78002B00F01181A369022098477BE7F3
:103E2000764B1B78002B00F0FB80A369032098479A
:103E300072E7724B1B78002B00F0C280A36904204C
:103E4000984769E720466E49FDF77CFC644B65485E
:103E50001B680E930E9B03F5FA63C4F8283204F531
:103E6000C071032208F038FB56E720466549FDF78C
:103E700069FC5B4B5B481B680C930C9B03F5FA6376
:103E8000C4F8283204F5C071012208F025FB43E78D
:103E900020465D49FDF756FC514B52481B680D9377
:103EA0000D9B03F5FA63C4F8283204F5C0710222B1
:103EB00008F012FB30E720465449FDF743FC484B1D
:103EC00048481B680B930B9B03F5FA63C4F8283230
:103ED00004F5C071002208F0FFFA1DE720464C49A6
:103EE000FDF730FC3E4B3F481B681093109B03F5D9
:103EF000FA63C4F8283204F5C071022208F0A6FA69
:103F00000AE720464349FDF71DFC354B35481B6841
:103F10001193119B03F5FA63C4F8283204F5C071BC
:103F2000032208F093FAF7E620463B49FDF70AFC26
:103F30002B4B2C481B680F930F9B03F5FA63C4F8B7
:103F4000283204F5C071012208F080FAE4E60F2D52
:103F50007FF6E2AE05F00F06314601222046FFF75C
:103F60005DFB94F83032AB42636A88BF84F830520C
:103F700013B1A5F1100098471B4B1B68013B0C2B9C
:103F800000F2E78001A252F823F000BFE5400000F4
:103F9000F74000005341000001410000494100008A
:103FA000534100003F410000E54000003541000062
:103FB0001F410000193D0000154100000B410000A9
:103FC00016492046FDF7BEFB054B1B680A930A9B6A
:103FD00003F5FA63C4F8283230E700BF7C530200CF
:103FE000CC94002004310020BC6FFF1F90520200CF
:103FF00084520200B8520200E4520200FD66002022
:104000005053020038530200445302002C53020064
:1040100064530200705302005C53020020530200FC
:104020005F492046FDF78EFB5E4B1B680993099B99
:1040300003F5FA63C4F82832F7E65B492046FDF73A
:1040400081FB584B1B680893089B03F5FA63C4F87F
:104050002832E1E655492046FDF774FB514B1B68B9
:104060000793079B03F5FA63C4F82832CBE6504A5E
:1040700050491378002083F0010313700870002B5F
:1040800000F088804C492046FDF75CFB454B1B68DF
:104090000393039B03F5FA63C4F828323CE6454BCF
:1040A0001A78002A6DD0424D4449002220462A70D9
:1040B0001A70FDF747FB3B4B1B680593059B03F507
:1040C000FA63C4F8283227E60B2220461A60FDF76F
:1040D0009FFD2046FDF75AFE012384F814321BE6AB
:1040E0000A22F2E7324B364A1B784FF0FF3111605B
:1040F000002B7FF411AE29462046FCF7FFFD0BE6AE
:1041000029462046FCF742FD06E629462046FEF7F2
:10411000E1FC01E629462046FEF706F8FCE52946C3
:104120002046FCF7EBFD1F4B1B681393139BC4F851
:10413000D030F1E529462046FDF7DAFCECE52946CA
:104140002046FCF77FFDE7E529462046FCF74CFDBD
:10415000E2E529462046FCF7A3FD31462046FDF75F
:104160005DFB104B1A681592159A1B681493149BEB
:1041700002F5FA6203F5FA63C4F82C22C4F8283277
:10418000CAE50B480F490270012220461A70FDF75C
:10419000D9FA90E70C492046FDF7D4FA76E700BF3C
:1041A00010530200CC94002000530200F052020091
:1041B000FD660020FC6600209C520200C4520200F2
:1041C000B86FFF1FD4520200AC520200F8B5344C55
:1041D0002368DB07054646D5324E14F06BFD336885
:1041E000304A984234D900F5EA4395F874113033D7
:1041F0001360002947D105F1800738460FF018FBFE
:1042000018B3EB6B002B24DD0026344605E00134A7
:10421000EB6BE4B29C4226461BDA214638460FF08F
:104220003DFA2E4430B196F8F031214628460BB9BC
:10423000FFF740FD214638460FF040FA0028E6D04F
:1042400021462846FFF73EFAE1E795F875311BB99C
:10425000F8BD012385F8753138460FF0D1FB0023F6
:1042600085F87531F8BD204614F04AFA0028B3D01D
:1042700014F020FD0B4E00F5EA4330332046336046
:1042800014F044FAA9E7014605F180072846FCF737
:1042900041FC38460FF0CCFA0028D6D0B1E700BF79
:1042A000887CFF1FB87CFF1F10B5002303604360AC
:1042B000836004461621044815F0ACFD034813F052
:1042C00071FC204610BD00BF8C5302001871FF1F07
:1042D00038B505461A210F4815F09CFD2C6864B1CD
:1042E000A36A2B6020462C2114F04CFA2C680A4853
:1042F000042115F08FFD002CF2D100232B606B60A0
:10430000AB600421054815F085FD054813F04AFC13
:10431000284638BDA4530200C8530200C05302000F
:104320001871FF1F38B5054615210F4815F072FDAD
:104330002C6864B1A36A2B6020462C2114F022FA69
:104340002C680A48042115F065FD002CF2D10023E9
:104350002B606B60AB600421054815F05BFD0548E0
:10436000BDE8384013F01EBCD0530200C853020011
:10437000C05302001871FF1F38B52E4C05460A21A4
:104380002D4815F047FD204613F00CFC0E212B485C
:1043900015F040FD6B682046196813F053FC0B21A3
:1043A000274815F037FD6B680A221979204600234B
:1043B00013F008FC204613F0F5FB0821214815F006
:1043C00029FD6B682046D96813F03CFC07211E4884
:1043D00015F020FD6B68D86919F052FE41EC100B06
:1043E0002046022113F038FC0B21184815F012FD6D
:1043F0006B680A2293F820102046002313F0E2FB9A
:104400001621134815F006FD6B682046597A13F003
:1044100019FC0E210F4815F0FDFC6B68204693F83F
:1044200024100A22002313F0CDFB2046BDE83840BB
:1044300013F0B8BB1871FF1FE8530200F4530200D9
:1044400004540200105402001C54020024540200C0
:10445000305402004854020038B54368002B6BD03A
:104460009A6A934204460D4618BF012066D0A3689D
:1044700023B1226812B19B6A9A4274D06368444A9D
:104480001B68934202DC01332DD038BD2A464149D6
:104490004148FDF7ABFF3121404815F0BBFC2846F1
:1044A0001BF04EFA0146284615F0B4FC3C4813F0C8
:1044B00079FB07213B4815F0ADFC6168384813F0E3
:1044C000C1FB0E21384815F0A5FC63683448196813
:1044D00013F0B8FB324813F065FB63681B680133C7
:1044E0004FF00000D1D12A4630492B48FDF77EFF1E
:1044F00034212F4815F08EFC28461BF021FA014686
:10450000284615F087FC264813F04CFB0721254868
:1045100015F080FC6168224813F094FB0E212248BC
:1045200015F078FC63681E48196813F08BFB1C4873
:1045300013F038FB002038BD012038BD0A4616486C
:104540001C49FDF753FF26211B4815F063FC284644
:104550001BF0F6F90146284615F05CFC104813F0F4
:1045600021FB002083E72A4614490B48FDF73EFF54
:104570003921134815F04EFC28461BF0E1F901469D
:10458000284615F047FC064813F00CFB002075E7A1
:1045900080969800DC540200C82E0020F4540200DB
:1045A0001871FF1F285502003055020040550200C7
:1045B00058550200585402006854020090540200FA
:1045C000A054020003684360704700BF10B5446800
:1045D0000CB1206810BD03490348FCF761FF204679
:1045E00010BD00BF90550200C82E002010B54468D1
:1045F0000CB1207910BD03490348FCF751FF204658
:1046000010BD00BFA4550200C82E00202DE9F041C6
:1046100088460027077006461121144815F0FAFB5A
:10462000D8F80440ECB108340FCC35460FC594E8F7
:104630000F0085E80F0071680D4813F003FB082197
:104640000C4815F0E7FBD8F80430094819790A221C
:104650003B4613F0B7FA064813F0A4FA3046BDE81B
:10466000F08105490548FCF71BFFF7E7B855020044
:104670001871FF1F4C6D0200CC550200C82E00209F
:104680004068003018BF0120704700BF70B5044675
:1046900016213648666815F0BDFB354813F082FADE
:1046A0000721344815F0B6FB6168314813F0CAFAA7
:1046B0000821314815F0AEFB21682D4813F0C2FAED
:1046C00008212E4815F0A6FBA168294813F0BAFA74
:1046D00023686360642538E013F064FA0E212848EB
:1046E00015F098FB63682248196813F0ABFA0D21A6
:1046F000244815F08FFB61681D48083113F0A2FAB9
:104700000921214815F086FB63681948197913F0CF
:1047100099FA0B211D4815F07DFB6168144813F0D0
:1047200091FA08211A4815F075FB63681048996AD8
:1047300013F088FA17492046FFF78EFE40B1204655
:1047400000F0C6F8013D08D063680948002BC3D1CA
:10475000074813F027FA666070BD0F490F48FCF751
:104760009FFE034813F01EFA666070BDE455020018
:104770001871FF1F28550200FC5502000856020060
:104780003055020014560200245602003056020032
:104790003C5602004856020050560200C82E002027
:1047A000036810B504466BB14268934204BF00220F
:1047B00042609A6A8AB100210260996218462C21EF
:1047C00013F0E0FF0A492046FFF746FE00B110BD96
:1047D0002046BDE81040FFF759BF81688B4208BFF3
:1047E00082602C21184613F0CDFF00232360E9E7F7
:1047F0006056020038B50368044673B11A689142E6
:104800000D4603DC0AE01A68AA4207DA2046FFF7E1
:10481000C7FF23686360002BF5D10023636005495F
:104820002046FFF719FE00B138BD2046BDE83840EC
:10483000FFF72CBF7056020082B02DE9F04106ACA4
:10484000074644F8043F0D461E481421904615F0D3
:10485000E1FA214600230A221B4813F0B3F91A4853
:1048600013F0A0F92C2013F089FF2C22002106461A
:104870001AF078FB0FCCB060F160326173610FCC3D
:10488000BC68356086F80480B061F16132627362A1
:1048900014B1A64218BFA6627B68BE607BB13B68BC
:1048A0005BB10A493846FFF7D7FD10B93846FFF724
:1048B000EDFEBDE8F04102B070473E60F1E77E607A
:1048C000EDE700BF9C5602001871FF1FB4560200AE
:1048D000436810B5044673B19A6A934213D062607C
:1048E0000C492046FFF7B8FD00B110BD2046BDE8D9
:1048F0001040FFF7CBBE1921074815F08BFA074887
:1049000013F050F9ECE706490648FCF7C9FD636867
:104910009A6AE4E7F0560200D45602001871FF1FAD
:10492000C0560200C82E002070B590E84800054629
:104930000024436006E00134FFF7CAFFB4F57A7F34
:1049400006D06B682846002BF5D16E60204670BDFE
:1049500003490448FCF7A4FD6E60204670BD00BF0B
:10496000F8560200C82E00200022026042608260D9
:10497000704700BF38B504461721094815F04AFAB8
:1049800023685BB10025DA6822601846DD601021DB
:104990009D6013F0F7FE2368002BF4D1204638BD4C
:1049A0000857020038B5436804460D4683B1DA68FB
:1049B000934218BF012036D09A689A4248D0E368E3
:1049C0002BB1DA68934219D09A689A4202D038BD66
:1049D0000120F4E728492948FCF762FD1F212848F7
:1049E00015F018FA274813F0DDF828461AF0A8FF4A
:1049F0000146284615F00EFA0020E8E722491F4834
:104A0000FCF74EFD2B21214815F004FA28461AF038
:104A100097FF0146284615F0FDF91A4813F0C2F831
:104A2000E3680020D0E71A491448FCF739FD232138
:104A3000184815F0EFF928461AF082FF014628467B
:104A400015F0E8F90F4813F0ADF863680020B3E7FC
:104A500011490A48FCF724FD1721104815F0DAF92E
:104A6000084813F09FF828461AF06AFF01462846C6
:104A700015F0D0F90020A2E7BC570200C82E002094
:104A8000D05702001871FF1F7C5702009057020098
:104A900020570200305702005457020064570200AA
:104AA00010B507490446FFF77DFF20B163680BB1DD
:104AB000DB68636010BD204600F004F8F6E700BF35
:104AC000F056020038B500210446434815F0A2F91B
:104AD000424813F067F80D21414815F09BF93F4813
:104AE00013F060F807213F48656815F093F92168D5
:104AF0003A4813F0A7F806213B4815F08BF9616896
:104B0000364813F09FF80721384815F083F9A1685B
:104B1000324813F097F80A21354815F07BF9E1681F
:104B20002E4813F08FF82D4813F03CF8204600F083
:104B3000DFF863682BB945E0FFF7B2FF6368002B2D
:104B400040D005212B4815F065F9636823481968A2
:104B50000A22002313F036F80421274815F05AF9E9
:104B600063681E4819790A22002313F02BF80421E8
:104B7000224815F04FF96368184859790A22002332
:104B800013F020F805211E4815F044F96168134818
:104B900013F058F806211B4815F03CF963680F48DC
:104BA000D96813F04FF80D4812F0FCFF6368DA681B
:104BB00093422046C0D11A21134815F02BF907481B
:104BC00012F0F0FF0021044815F024F9034812F018
:104BD000E9FF656038BD00BF644F02001871FF1F18
:104BE000F057020000580200085802001058020056
:104BF00018580200245802002C58020034580200B1
:104C00003C580200445802004C58020038B5044693
:104C1000C068002838D060602368834226D0A3682B
:104C2000834216D08568C368EB60C36882689A6067
:104C3000102113F0A7FD65602B46E3601449204660
:104C4000FFF7B0FE00B138BD2046BDE83840FFF7A1
:104C500039BF82681AB1826862600021D16018464B
:104C6000102113F08FFD6368A360E6E7C2686260FD
:104C700062B1002191600022DA601846102113F021
:104C800081FD63682360D8E76068C5E7A260F2E74A
:104C9000685802002DE9F8430446102089469046E2
:104CA0001F4613F06BFDA66800254560856080F8FF
:104CB0000490C56080F8058007600EB1F0608660E2
:104CC0006368A0607BB123685BB108492046FFF7A9
:104CD00069FE08B1BDE8F8832046BDE8F843FFF758
:104CE000F1BE2060F1E76060EDE700BF745802009C
:104CF00010B505490446FFF755FE10B92046FFF7E9
:104D0000E1FE2368636010BD7C580200C368187917
:104D1000704700BFC3685879704700BFC368186800
:104D2000704700BFC068003018BF0120704700BF47
:104D300010B505490446FFF735FE10B92046FFF7C8
:104D4000C1FE2368E36010BD8458020010B5074916
:104D50000446FFF727FE20B1E3680BB1DB68E36090
:104D600010BD2046FFF7AEFEF6E700BF90580200E8
:104D700070B511490546FFF715FE90B128466E68DB
:104D80000024FFF7B5FF05E00134FFF789FEB4F515
:104D90007A7F0AD06B682846002BF5D16E602046DA
:104DA00070BD2846FFF78EFEE8E704490448FCF78B
:104DB00077FB6E60204670BD9C580200A45802002C
:104DC000C82E002038B50A4D002304460360436016
:104DD00029464FF4A072083013F0B0FB05F5A0711E
:104DE00004F5A4704FF4807213F0A8FB204638BD80
:104DF000B458020010B490E81800013400EB03131B
:104E000094FBF1F202FB11410B44416093F848011D
:104E10005DF8044B704700BF10B490E8180094FB95
:104E2000F1F200EB031302FB11410B44416093F8D4
:104E300048015DF8044B7047436810B40468194496
:104E400000EB041091FBF2F303FB121250FA82F212
:104E50005DF8044B92F84801704700BF406801308C
:104E60008842B4BF00200120704700BF054B0B40B3
:104E7000002B01DB03607047013B63F00F0301333C
:104E8000036070470F000080036803EB830300EBAF
:104E900083000830704700BF00234360704700BFA5
:104EA00038B501250446056758220B497C3013F0BC
:104EB00045FB0A4A84F86D500023157084F8D830F9
:104EC00084F8E030C4F8D430C4F8DC30C4F8E430FE
:104ED0006367A367204638BDF45A0200C87CFF1FF1
:104EE0002DE9F0418046064600F16007337D5BB155
:104EF0003546002455F8040F013418B1182113F079
:104F000041FC337DA342F5DC1836BE42EED140466B
:104F1000BDE8F08101EB410300EBC30380F8D8103A
:104F2000C0F8D4300120704710B5D0F8D44084B117
:104F3000227D8A420B46D8BF002304EB8304D8BFEE
:104F400019466468C0F8DC404CB180F8E0100120DC
:104F500010BD06490648FCF7A3FA204610BD0549D6
:104F60000348FCF79DFA204610BD00BF4C5B0200D1
:104F7000C82E0020605B020038B5044660B101EB2A
:104F8000410110EBC1050DD002EB420014EBC0044F
:104F90000ED06A75012038BD08490948FCF780FA2F
:104FA000204638BD07490648FCF77AFA284638BD3E
:104FB00005490348FCF774FA204638BD745B0200CB
:104FC000C82E0020885B02009C5B0200D0F8D43021
:104FD0000BB11960704780F8D8300346C0F8D40090
:104FE00019607047D0F8D41070B5054631B30B7D09
:104FF000032B1DD8182013F0C1FB044600F0A0FCC1
:10500000D5F8D4301E1D28D0197D39B153F82100B0
:10501000C0B100F00DFDD5F8D430197D03EB81024D
:10502000013154602046197500F092FC204670BD95
:105030000F491048FCF734FA002070BDFFF76AFFF3
:1050400040B970BD0C490B48FCF72AFAD5F8D430AA
:10505000197DE3E7D5F8D410C9E708490548FCF7FE
:105060001FFA2046182113F08DFB304670BD00BF9B
:10507000B05B0200C82E0020D45B0200C05B0200BF
:105080002DE9F043044685B01A4803F0C1FE0E2115
:10509000194814F0BFFE194812F084FDD4F8DC0062
:1050A00008B300F0FFFCD4F8D430D4F8DC0093F857
:1050B000009094F8D85094F8E46094F8E07000F010
:1050C0005BFC8046D4F8DC0000F058FCC0B20290D3
:1050D0004B468DE88001324629460948FEF772F8B2
:1050E00005B0BDE8F0830749054805B0BDE8F043C9
:1050F000FCF7D6B900670020E45B02001871FF1FBF
:10510000C82E0020F45B020070B5044633216F48BE
:1051100014F080FED4F8DC0000F02EFC00230A22FC
:1051200001466B4812F04EFD01216A4814F072FEF0
:10513000D4F8DC0000F022FC0146654812F082FD44
:105140000921654814F066FE00230A2294F8E01055
:105150005F4812F037FD1421604814F05BFED4F86C
:10516000DC0000F06BFC002301460A22584812F0D4
:1051700029FD574812F016FDD4F8DC30002B00F062
:105180009080D4F8D450002D00F08680184600F0AE
:1051900057FC054678B31921514814F03BFED4F86A
:1051A000DC0000F04BFC102106464E4814F032FEA5
:1051B000002331460A22464812F004FDD4F8D430C8
:1051C0001B7DB34224D92121474814F023FED4F893
:1051D000D43084F8E06003EB86067068C4F8DC0025
:1051E00000F028FC2121414814F014FE384812F048
:1051F000D9FC284670BDD4F8DC0000F04FFC3D21FE
:105200003B4814F007FE324812F0CCFC284670BD33
:105210001821384814F0FEFDD4F8D430D4F8E42036
:105220001B689A4224DB1021334814F0F3FDD4F8B4
:10523000D4305E7DFF2E3AD006EB4606132104EBF8
:10524000C6062E4814F0E6FDC4F8D46015212C489B
:1052500014F0E0FDD4F8D430002284F8E02058683F
:10526000C4F8DC000123C4F8E43000F0E3FBB9E744
:105270001A21244814F0CEFD002384F8E030D4F83D
:10528000D420D4F8E4305068C4F8DC000133C4F80A
:10529000E43000F0CFFBA5E71B491C48FCF700F900
:1052A000B4E71B4919481D46FCF7FAF8AEE70021A0
:1052B000184814F0AFFD064812F074FC132116488C
:1052C00014F0A8FD236E98478CE700BF085C02002D
:1052D0001871FF1F3C5C0200405C02004C5C020045
:1052E0008C5C0200A85C0200BC5C02006C5D0200E9
:1052F000905D0200E05C0200185D02002C5D02007F
:10530000405D0200FC5C0200785C0200C82E0020B8
:10531000645C0200644F0200585D02002DE9F04316
:10532000D0F8D430044685B0D0F8DC0093F8009073
:1053300094F8D86094F8E47094F8E08000F01CFBD6
:105340000546D4F8DC0000F019FBC0B202904B46D1
:10535000CDF800803A46314601950348FDF732FF0B
:1053600005B0BDE8F08300BFC82E002010B51421A1
:105370000446094814F04EFD084812F013FCD4F816
:10538000DC0018B1BDE8104000F08CBB04490548B2
:10539000BDE81040FCF784B8D05D02001871FF1F13
:1053A000E85D0200C82E002003460022C3F8D400A6
:1053B00080F8D82048B1406883F8E0200122C3F883
:1053C000DC00C3F8E42000F035BB02490248FCF7DA
:1053D00067B800BFFC5D0200C82E002070B5504EBB
:1053E000504D0166044600F1150132602B607530A6
:1053F000FF2200230A7001F8013C41F8153C1831E6
:105400008142F7D12046FFF7EDFD054690B100231C
:105410001A46012100F0A6FA00231A460221284666
:1054200000F0A0FA0121284600F0F8FA28460221EF
:1054300000F0D2FA2046FFF7D5FD054690B10122D3
:105440001146002300F08EFA002301220221284693
:1054500000F088FA0121284600F0E0FA28460221EF
:1054600000F0BAFA2046FFF7BDFD054690B10023D3
:105470000222012100F076FA02221146002328467A
:1054800000F070FA0121284600F0C8FA28460221EF
:1054900000F0A2FA01212046FFF798FD0122002129
:1054A0002046FFF769FD01212046FFF733FD022169
:1054B0002046FFF78BFD2046FFF794FD054690B18F
:1054C00000230322012100F04DFA002303220221D0
:1054D000284600F047FA0121284600F09FFA2846A6
:1054E000022100F079FA2046FFF77CFD054690B1D5
:1054F00000230422012100F035FA002304220221B6
:10550000284600F02FFA0121284600F087FA2846A5
:10551000022100F061FA2046BDE87040FFF744BF69
:10552000C47CFF1FC07CFF1F426E38B500EB8203B6
:10553000DC6F132A5DD8DFE802F04D51550A5C5C40
:105540005C5C5C5C5C5C5C5C0A2F363F46212E4AEE
:105550006FF0010521462D48FDF7E2FC20461AF0C8
:10556000EFF90146204614F055FC2946284812F070
:1055700069FB2748BDE8384012F014BBD0F8DC00C6
:1055800000F004FA234A0546AB1CE3D02A46214624
:105590001E48FCF7FFFEE1E7D0F8DC0000F0F0F970
:1055A0001C4A0546F0E7D0F8DC0000F0E7F90546B4
:1055B0006A1C22D0174AE7E7D0F8DC0000F0E2F9D5
:1055C000144A0546E0E7D0F8DC0000F0DDF9114AA6
:1055D0000546D9E790F8D8500E4AD5E790F8E05044
:1055E0000C4AD1E790F8D83003EB430350F833501E
:1055F000DEE709490548FBF7E5FF21460348FCF7CC
:1056000083F84FF0FF35A9E73C5E0200C82E00206A
:105610001871FF1F504F0200445E020010B51721A1
:105620000446084814F0F6FB074812F0BBFA0022C3
:105630000123626684F86D302046BDE81040FFF714
:1056400073BF00BF585E02001871FF1F08B5436E9C
:10565000132B32D8DFE803F00F121531313131311D
:10566000313131313131311C21272C0AD0F8DC00A5
:1056700000F08CF908BD90F8D80008BD90F8E00063
:1056800008BD90F8D83003EB430350F8330008BD51
:10569000D0F8DC0000F074F908BDD0F8DC00BDE8FB
:1056A000084000F06BB9D0F8DC0000F06BF908BDE1
:1056B000D0F8DC0000F068F908BD002008BD00BF8C
:1056C00008B51621034814F0A5FB0348BDE80840BF
:1056D00012F068BA705E02001871FF1F10B5B1F5C4
:1056E0007A7F82B008D1026F012A0DD001220267B1
:1056F00080F86D2002B010BD074A41671268019220
:10570000019A826702B010BD022303670446FFF7C7
:105710009DFFA066F6E700BFCC940020994238B503
:105720000C4603DA002901DAA418FDD494FBF2F543
:1057300002FB1545AB424FF00B010B48C8BFAD183B
:1057400014F068FB2146094812F07CFA0121084850
:1057500014F060FB2946054812F074FA034812F071
:1057600021FA284638BD00BF885E02001871FF1F6D
:10577000EC4F020038B504460D464648212114F08E
:1057800049FB616E444812F05DFA636E132B7AD8C0
:10579000DFE803F01B273579797979797979797997
:1057A000797979414E5B680A294600231022204608
:1057B000FFF7B4FF0146D4F8DC0000F0FBF802214B
:1057C0003648BDE8384014F025BB29460023204662
:1057D0000422FFF7A3FFC1B22046BDE83840FFF71F
:1057E00099BBD4F8D43029461A7D20460023FFF710
:1057F00095FFC1B22046BDE83840FFF795BB29466A
:10580000012320461022FFF789FFC1B22046BDE8E0
:105810003840FFF7DBBB2946002320461022FFF764
:105820007DFFC1B2D4F8DC00BDE8384000F0F6B826
:105830002946012320461022FFF770FF0146D4F8C5
:10584000DC00BDE8384000F0C7B8294600232046F8
:105850000522FFF763FF0146D4F8DC00BDE83840BD
:1058600000F0BCB82946012310222046FFF756FF5E
:10587000C1B2D4F8DC0000F08BF802210848BDE882
:10588000384014F0C7BA2A4606490748BDE83840F0
:10589000FBF798BE945E02001871FF1FBC5E020009
:1058A000B85E0200C05E0200C82E002070B50D4632
:1058B000044611211F48164614F0ACFA1E4812F097
:1058C00071F9B5F57A7F00D070BD94F86D30EBB901
:1058D000236F012B20D0022B2AD1A16E2046314408
:1058E000FFF748FF3146144812F0ACF90121134884
:1058F00014F090FAA16E104812F0A4F90E4812F0BC
:1059000051F92046BDE87040FFF70EBE002384F831
:105910006D30236F012BDED1314620460023162245
:10592000FFF7FCFE60662046BDE87040FFF7FCBD57
:1059300070BD00BFD05E02001871FF1FEC4F020067
:10594000FF220021017381608273C273026170477C
:105950000023FF22037183704371C3700270427091
:10596000704700BF30B40139C9B244180125A37093
:105970002571425430BC7047007D70478068704785
:10598000407B7047007B7047C07B7047007C70474E
:1059900008B54B1E0F2B02D8C173012008BD0A4663
:1059A00002480349FBF72CFE002008BDC82E00204A
:1059B0003C6002000F2902DC01610120704708B53C
:1059C0000A4603480349FBF7FDFD002008BD00BF60
:1059D000C82E00205060020081607047042913D84F
:1059E000DFE801F006090C0F03000423037370477E
:1059F000002303737047012303737047022303736B
:105A000070470323037370470A4602480249FBF7B5
:105A1000D9BD00BFC82E0020646002004B1E50FAA2
:105A200083F31B7913B14173012070471846704707
:105A30008173704700234361704700BF807B7047CC
:105A4000426983689A421DD01ADD10B50E4904469A
:105A50000E48FBF725FD12210D4814F0DBF96169B2
:105A60000C4812F0EFF814210B4814F0D3F9A16898
:105A7000084812F0E7F8074812F094F8012010BD2A
:105A8000002070470120704778600200C82E002077
:105A90008C6002001871FF1FA0600200436901338F
:105AA00043617047F8B5112106466B4814F0B2F90E
:105AB0006A4812F077F8307B002878D13446012507
:105AC000237967480821002B5ED014F0A3F92946FA
:105AD000624812F0B7F82378FF2B3AD006216148CC
