:1000000000000320D1010000B984010071840100C7
:100010007184010071840100718401007184010008
:10002000718401007184010071840100B9840100B0
:10003000B984010071840100C19F0100C5A00100C5
:10004000B9840100B9840100B9840100B9840100B8
:10005000B9840100B9840100B9840100B9840100A8
:10006000B9840100B9840100B9840100B984010098
:10007000B9840100B9840100B9840100B984010088
:10008000B9840100B9840100B9840100B984010078
:10009000B9840100B9840100B9840100B984010068
:1000A000B92D0100C52D0100B9840100B9840100FA
:1000B000B9840100B9840100B98401000DA10100D7
:1000C000B984010039A20100B984010065A30100CF
:1000D000B98401005DA40100B9840100B984010064
:1000E000B9840100B9840100B9840100B984010018
:1000F000B9840100B9840100B9840100B984010008
:10010000B9840100B9840100B9840100B9840100F7
:10011000B9840100C18E0100B9840100B9840100D5
:10012000B9840100B9840100B9840100B9840100D7
:10013000B9840100B9840100B9840100B9840100C7
:10014000A5770100B984010055A50100B98401001B
:10015000B9840100B9840100B9840100B9840100A7
:10016000B9840100B9840100D12D0100B9840100D6
:10017000B9840100B9840100B9840100B984010087
:10018000B9840100B9840100B9840100B984010077
:10019000B9840100B98401004DA60100B9840100B1
:1001A000B9840100B9840100B9840100B984010057
:1001B000B9840100B9840100B9840100B984010047
:1001C000B9840100B9840100B9840100B984010037
:1001D0005C4B4CF2205210B51A804DF628121A8052
:1001E00000BF00BF18F06CF9574B4FF030621A6037
:1001F000564A9A60564ADA60564B4FF470021A60BB
:10020000554B564A1A60564B1A78110703D51A787F
:1002100042F008021A70534B5349AA221A70534AEB
:10022000534B8B4204D252F8040F43F8040BF8E707
:10023000504B514900228B4202D243F8042BFAE77B
:100240004E494F4A002352F8230041F8230001335E
:10025000742BF8D14B4B4C4A802103F8011B93427D
:10026000FBD14A4B454A1A60494B8A221A70A3F5C2
:10027000805324225A70A0221A709A799207FCD5D2
:100280009A79D406FCD4434A937903F00C03082BE3
:10029000FAD1414B60221A7002331A78802AFCD1BD
:1002A0003C4B01221A715D225A719A799006FCD555
:1002B0009979384A4906FBD5384B394919600021EC
:1002C000596020231370937903F00C030C2BFAD19F
:1002D000344B354A1A60354A354C136813F4807331
:1002E00003D123604FF4A8531360324B324A1A6093
:1002F00000225A60072243F8042C304AC3F80C2D20
:1003000062B618F04DFC2368DA0705D52C4818F0C2
:100310007FFB2C4B2C4A1A602C4B1B785B0609D5B3
:10032000284C294B22689A4204D1254818F070FBCA
:10033000002323601EF076F918F0C8F817F0F6FFD6
:10034000FEE700BF0E20054030800440823F0400DD
:100350000100002B88ED00E0002008E0030000858C
:1003600002D0074000E00740C07BFF1FD89A020080
:10037000306FFF1FC07BFF1F28990020006AFF1FFE
:100380000000000000E400E064E400E008ED00E0AC
:10039000005006400040064001E007404480044011
:1003A0000000060204800440C010070010D0034083
:1003B00014D0034014E000E01FBF02000000202022
:1003C0004D8BAB5E1CE00340A5C3945A00F0074080
:1003D000FFFFFFFFFFFFFFFFFFFFFFFFFFFFFFFF2D
:1003E000FFFFFFFFFFFFFFFFFFFFFFFFFFFFFFFF1D
:1003F000FFFFFFFFFFFFFFFFFFFFFFFFFFFFFFFF0D
:10040000FFFFFFFFFFFFFFFFFFFFFFFFDEF9FFFF23
:1004100010B5054C237833B9044B13B10448AFF33E
:1004200000800123237010BDC07BFF1F000000006F
:10043000D49A0200084B10B51BB108490848AFF325
:1004400000800848036803B910BD074B002BFBD0A0
:10045000BDE81040184700BF00000000C47BFF1F2C
:10046000D49A0200C07BFF1F0000000010B52422B8
:10047000044600211EF076FC002384F8243084F822
:100480002530204610BD00BFF8B5074690F824007F
:100490000D461646E0B13A46002404E00134844299
:1004A00002F1030212D01178A942F7D19178994252
:1004B000F4D104EB44043C446670A370062D5ED86E
:1004C000DFE805F031161D242B1031000A2C2BDC3F
:1004D00000EB40017A18013087F824007D545670F3
:1004E0009370EBE72E492F48BDE8F84001F0FCB8C7
:1004F00032462D492B48BDE8F84001F083BF324613
:100500002A492848BDE8F84001F07CBF3246284916
:100510002448BDE8F84001F075BF26492148BDE8F0
:10052000F84001F0E1B8F8BD23491E4800F064FF2F
:100530000421224819F06EFB2146214817F082FA67
:100540001721204819F066FB00230A2297F824108F
:100550001B4817F037FA10211B4819F05BFB0C21E0
:10056000174817F06FFA0B21184819F053FB29466A
:10057000134817F067FA124817F014FA9EE7144967
:10058000084800F039FF1521124819F043FB2946AD
:100590000B4817F057FA0A48BDE8F84017F002BABE
:1005A000E44B0200BC2E0020A44B0200B44B02001E
:1005B000C04B0200D04B0200504B0200644B0200C3
:1005C0001871FF1F6C4B0200844B0200984B020015
:1005D000F44B0200084C020038B590F825300B2B84
:1005E000044627D91F49204800F006FF17211F485D
:1005F00019F010FB00230A2294F825101C4817F06C
:10060000E1F917211B4819F005FB00230A2294F891
:100610002410174817F0D6F91021174819F0FAFAE4
:100620000C21134817F00EFA0025114817F0BAF9FB
:10063000284638BD03EB430317210C48E55C19F04D
:10064000E9FA00230A2294F82510094817F0BAF9AC
:100650000B210A4819F0DEFA2946054817F0F2F98D
:10066000284638BD384C0200BC2E0020204C020029
:100670001871FF1F6C4B0200844B0200984B020064
:1006800090F825300B2B04D803EB43031844407833
:10069000704710B513490446134800F0ADFE17210A
:1006A000124819F0B7FA00230A2294F825101048CE
:1006B00017F088F917210F4819F0ACFA00230A2225
:1006C00094F824100A4817F07DF910210A4819F00F
:1006D000A1FA0C21064817F0B5F9054817F062F9A0
:1006E000002010BD4C4C0200BC2E0020204C02000B
:1006F0001871FF1F6C4B0200844B020090F82530EC
:100700000B2B04D803EB430318448078704710B5D3
:1007100013490446134800F06FFE1721124819F0E0
:1007200079FA00230A2294F82510104817F04AF9A4
:1007300017210F4819F06EFA00230A2294F82410AA
:100740000A4817F03FF910210A4819F063FA0C2102
:10075000064817F077F9054817F024F9002010BD76
:10076000604C0200BC2E0020204C02001871FF1FBC
:100770006C4B0200844B020090F825300133DBB251
:100780000B2B80F825308CBF00200120704700BF64
:10079000002380F8253070470022134680F824207B
:1007A00080F82520C2540333242BFBD1704700BFAF
:1007B000FFF7F2BF70B5044615460E460846022103
:1007C00018F04CF92846022118F048F9104A114B4C
:1007D00052F83610012001F500762072266052F89A
:1007E0003520607202F5007500206560E060013B15
:1007F000FDD191F8003292F8002203F00103D207F4
:1008000044BF43F00203DBB2A372204670BD00BFB9
:100810009C8F0200C0D4010090F814322DE9F047FB
:100820000746002B7CD1DFF80C82794AD8F800000B
:10083000D468784D784E92F809E092E80A0091F871
:10084000009093F800C0117A714B1CEA0E0F09EA70
:1008500001015DD09B7A03F0030309B143F0040367
:1008600043F008039910013B91720D2B0AD8DFE881
:1008700003F075077207096F75756F0907720775C1
:10088000013CD460A04219D0DFF89891DFF890A124
:10089000D9F80030002C2246B8BFE21C92109A42D0
:1008A000CAF8002008D04FF47A715C480EF096F92F
:1008B000DAF80030C9F80030C8F800402B686968E1
:1008C0001A78687A0C782B7A5249044202EA0302B9
:1008D00016D08B7A03F003030AB143F0040343F00C
:1008E00008039A10013BAA720D2B00F28180DFE809
:1008F00003F07B7766777F387B7B387F7766777B03
:100900008B7A03F00303002AEBD043F00403E8E7FB
:100910009B7A03F003030029A4D043F00403A1E76A
:100920003F4E404C40484149394ADFF80881394D33
:1009300000233360384E2360036087F814321C466E
:100940000B601846D360C8F80030EB60336072E784
:10095000023CD46096E70234D46093E70134D4605B
:1009600090E7EC68023CEC6007F5AE7016F07CFD99
:100970002F4B00282DD11A68042A3BDC3268A41AB8
:1009800004EB840402EB44049442EC6026D01A6821
:10099000264D254F0132002C1A6022462B68B8BF25
:1009A000E21C92109A423A6006D040F2E9311B48AC
:1009B0000EF014F93B682B603460BDE8F087EC68FA
:1009C0000234EC6007F5AE7016F04EFD184B0028AF
:1009D000D1D03268002194421960D8D1BDE8F087A7
:1009E000EC68013CEC60BFE7EC680134EC60BBE70D
:1009F000EC68B9E7092A326805DCA41A04EB840420
:100A000002EB8404C0E76421A41A01FB0424BBE7C1
:100A1000107CFF1F207CFF1F847CFF1FA06700202D
:100A2000547CFF1F5C7CFF1F587CFF1F607CFF1FF6
:100A3000DC7BFF1F7C7CFF1FF8B590F81432002B85
:100A400047D12F4D2F4A2868D468577A92E848003A
:100A5000197896F800E0137A2A4E1EEA070F01EA89
:100A600003012ED0B37A03F0030309B143F004036A
:100A700043F008039910013B91720D2B0AD8DFE86F
:100A800003F03C07390709363C3C36090739073C77
:100A9000013CD460A04213D01B4E1C4F3368002C85
:100AA0002246B8BFE21C92109A423A6006D04FF438
:100AB0007A71174804F000FE3B6833602C60F8BD83
:100AC000F8BDB37A03F003030029D3D043F0040345
:100AD000D0E70E4E0C490B4A094D002380F8143222
:100AE0001C4633600B601846D3602B60ADE7023CB8
:100AF000D460CFE70234D460CCE70134D460C9E7D6
:100B00008C7CFF1F107CFF1FB47CFF1FB07CFF1F7D
:100B1000A82D00202DE9F84F002383461D460E46E0
:100B200080F87431994600F5D67A00F180081024D7
:100B3000012706E08BF8747101350134102DE4B201
:100B400016D05AF8043F002BF6D0B342F2D8DBF8A7
:100B50001032CAF800905B5D2146404653B901351A
:100B600012F0FCFC0134102D8BF87571E4B2E8D161
:100B7000BDE8F88F12F0B2FC0028DDD121464046D6
:100B800012F0CEFC8BF87571D6E700BF38B5144C67
:100B90000C40002C1FDB031993F8A0516DB9012202
:100BA00083F8A021C9B2803012F0BAFC2A4621464F
:100BB0000C48BDE838400BF0C3BB002283F8A021ED
:100BC000C9B2803012F0CAFC214601220548BDE8B6
:100BD00038400BF0B5BB013C64F00F040134DAE798
:100BE0000F000080F830002038B5144C0C40002C69
:100BF0001FDB031993F8A0216AB90125C9B280301F
:100C000083F8A05112F08CFC2A4621460C48BDE81E
:100C100038400BF0A9BB0025C9B2803083F8A05141
:100C200012F09CFC2A4621460548BDE838400BF0EE
:100C30009BBB013C64F00F040134DAE70F00008035
:100C4000F830002038B5144C0C40002C1FDB031981
:100C500093F8A0216AB90125C9B2803083F8A05168
:100C600012F05EFC2A4621460C48BDE838400BF0E5
:100C70001BBD0025C9B2803083F8A05112F06EFC74
:100C80002A4621460548BDE838400BF00DBD013C21
:100C900064F00F040134DAE70F000080F830002020
:100CA000154B0B40002B10B504461FDB234493F873
:100CB00080216AB9012283F88021C9B204F1800041
:100CC00012F02EFC012384F8153284F8143210BD82
:100CD000002283F88021C9B204F1800012F03EFCAA
:100CE000012384F8153284F8143210BD013B63F0FF
:100CF0000F030133DAE700BF0F0000802DE9F8434E
:100D000080460F4600F1800600F29F1510244FF038
:100D1000000903E00134E4B2202C0DD015F8013FA6
:100D2000002BF7D0214601343046E4B212F016FC15
:100D3000202C85F80090F1D1094B3B40002B09DBBA
:100D400043440122F9B2304683F8A021BDE8F843BC
:100D500012F0E6BB013B63F00F030133F0E700BF85
:100D60000F000080F8B507464D1E00F180061024E4
:100D700005E00134E4B212F0D3FB202C0DD015F8BD
:100D8000013F21463046002BF3D121460134304645
:100D9000E4B212F0E3FB202CF1D1012387F8753186
:100DA000F8BD00BF38B500F5D0750446C0F8105244
:100DB00000F29F13002200F2AF1003F8012F8342CC
:100DC000FBD106480BF0A4F823180122294620463F
:100DD00083F89F21BDE83840FFF7C4BFF8300020FA
:100DE00038B505460C480BF045F905F5D071C5F846
:100DF000101205F29F1305F2AF14002203F8012F21
:100E0000A342FBD12B180122284683F8A021BDE87C
:100E10003840FFF7A7BF00BFF830002038B50546BF
:100E20000C480BF035FF05F5D071C5F8101205F22E
:100E30009F1305F2AF14002203F8012FA342FBD148
:100E40002B180122284683F8A021BDE83840FFF77F
:100E500089BF00BFA067002038B500F5D0750446F3
:100E6000C0F8105200F29F1300F2AF11002203F8F5
:100E7000012F8B42FBD12946044810220AF0DCFEE8
:100E800029462046BDE83840FFF76CBFF830002007
:100E90009C4B1A680D2A70B504460CD80123934068
:100EA00041F2B6321A40002A52D113F4005540F0F4
:100EB00097805B056DD404F5AA75284616F09CFA58
:100EC000C0B904F5AE75284616F096FA08BB04F5CD
:100ED000B275284616F090FA50BB04F5B674204659
:100EE00016F08AFA00B970BD204616F0CBFA002839
:100EF00072D170BD284616F0C5FA0028E1D0824BA9
:100F0000002204F5AE75DA60284616F075FA00285E
:100F1000DDD0284616F0B6FA0028D8D07B4B002248
:100F200004F5B275DA60284616F066FA0028D4D0C7
:100F3000284616F0A7FA0028CFD0754B002204F5FA
:100F4000B674DA60204616F057FA0028CBD0CBE70B
:100F500000F5AA75284616F04FFA002862D104F56C
:100F6000AE75284616F048FA002864D104F5B2752B
:100F7000284616F041FA002866D104F5B6742046DA
:100F800016F03AFA0028AED0204616F07BFA18BBCD
:100F900070BD00F5AA76304616F02EFA002840F013
:100FA000998004F5AE75284616F026FA002840F020
:100FB0008D8004F5B275284616F01EFA00287BD104
:100FC00004F5B674204616F017FA00288BD0204698
:100FD00016F058FA00B970BD4E4B0022DA6070BDB1
:100FE00000F5AA75284616F007FA002847D104F53F
:100FF000AE75284616F000FA002837D104F5B27510
:10100000284616F0F9F940BB04F5B674204616F0F0
:10101000F3F900283FF467AF204616F033FA0028B2
:10102000DAD170BD284616F02DFA002897D03A483C
:101030000AF0D6FE93E7284616F024FA002895D049
:10104000324B0022DA6091E7284616F01BFA00289E
:1010500093D02F4B0022DA608FE7284616F012FA61
:101060000028D1D02A4B0022DA60CDE7284616F0BE
:1010700009FA0028C2D0254B0022DA60BEE72846D4
:1010800016F000FA0028B2D023480AF0A9FE421E4A
:1010900054FA82F292F8A03183F0010382F8A03171
:1010A00043B300F10F01C9B204F1800012F038FA25
:1010B000012384F875319AE7284616F0E3F90028F1
:1010C0003FF47EAF124B0022DA6079E7284616F033
:1010D000D9F96EE7304616F0D5F900283FF461AF34
:1010E000094A636AD560002B3FF45BAF4FF47A7016
:1010F000984756E700F10F01C9B204F1800012F0E1
:101100002DFAD5E7BC6FFF1F107CFF1F207CFF1F4F
:10111000307CFF1F407CFF1FF8300020A1F57A7162
:10112000032906D8DFE801F00E0A0602074B002269
:10113000DA607047064B0022DA607047054B0022E8
:10114000DA607047044B0022DA607047407CFF1F72
:10115000307CFF1F207CFF1F107CFF1F70B500F547
:1011600086750446284616F047F900B970BD284632
:1011700016F088F90028F9D0A36ABDE87040184736
:1011800008B590F8A40017F053F8084A1368C0F5A2
:101190008040A3F16401884202DB6433984201DDA0
:1011A000106008BD4FF0FF3008BD00BF6C7CFF1F12
:1011B00008B590F8A80017F03BF8074A1368A3F1A8
:1011C0006401884202DB6433984201DD106008BD8F
:1011D0004FF0FF3008BD00BF647CFF1F30B500F545
:1011E0008A7483B00546204616F006F930B92046C9
:1011F00016F03EF980B9002003B030BD204616F04D
:1012000041F90028F3D00A4B1B680193019BC5F8F4
:10121000B030012003B030BD95F824320020042BFB
:10122000C5F8B000E7D185F82402A5F82602E3E767
:10123000C0940020054B82B01B680193019B03F50D
:10124000FA63C0F8283202B0704700BFC094002093
:10125000054B82B01B680193019B03F5FA63C0F84C
:101260002C3202B0704700BFC0940020F0B5B1B07E
:1012700007462849284E6846144616F07FFD274940
:1012800004A816F07BFD264908A816F077FD25492D
:101290000CA816F073FD244910A816F06FFD234921
:1012A00014A816F06BFD224918A816F067FD214915
:1012B0001CA816F063FD204920A816F05FFD1F4909
:1012C00024A816F05BFD1E4928A816F057FD1D49FD
:1012D0002CA816F053FD86FB0426E317C3EB660625
:1012E00006EB4601A4EB8101C9B20DEB01113846B2
:1012F00016F058FDF1B2384616F0E8FD6D4630ACF8
:10130000103C204616F0FAFCAC42F9D1384631B018
:10131000F0BD00BFA44C0200ABAAAA2AA84C020050
:10132000F44D0200AC4C0200044C0200744F020069
:10133000B04C020098500200B44C0200B84C0200BD
:10134000BC4C0200C04C0200F0B5144DDFF854E074
:101350000E4617460FCD8FB002AC0FC40FCD0FC491
:1013600095E80F008EFB065EF517C5EB6E0584E869
:101370000F0005EB450EA6EB8E060EABF6B203EBA7
:101380008606EDB256F8303C054A009538460421F1
:101390001DF044FF38460FB0F0BD00BF744C020092
:1013A000C44C0200ABAAAA2A10B5012200210D48A4
:1013B000FFF700FA032202210B48FFF7FBF9052291
:1013C00004210A48FFF7F6F9082206210848FFF72A
:1013D000F1F92123232222210648BDE8104011F013
:1013E000FFBC00BF107CFF1F207CFF1F307CFF1F55
:1013F000407CFF1F907CFF1F10B586B00B460A4C47
:101400000A4A684615211DF009FF002211462046B0
:1014100011F012FE68461EF093F969460246204616
:1014200016F084FA06B010BD907CFF1FCC4C020071
:1014300070B5324D044632480AF07AFD2B68052B10
:10144000064645D0072B2AD0042B10D020462D4924
:10145000FFF7D2FF06212C4818F0DCFB29682B4847
:1014600016F0F0FA2948BDE8704016F09BBA68B152
:1014700004F29F140025294621480AF0A1FD0135F8
:1014800080F00100B54204F8010FF4D10921204891
:1014900018F0C0FB1D48BDE8704016F083BA70B16B
:1014A00004F29F140025294615480AF0ADFD0135C8
:1014B000003018BF0120B54204F8010FF3D10B2111
:1014C000144818F0A7FB1148BDE8704016F06ABA3E
:1014D00058B104F29F140025294609480AF082FDFC
:1014E0000135B54204F8010FF6D109210A4818F078
:1014F00091FB0648BDE8704016F054BABC6FFF1F60
:10150000F8300020044D0200344D02001871FF1F16
:10151000F84C0200E04C0200EC4C020010B588B020
:101520000B4600920A4C0B4A02A815211DF076FECC
:1015300000221146204611F07FFD02A81EF000F99E
:1015400002A90246204616F0F1F908B010BD00BF0E
:10155000907CFF1F3C4D020030B5D0F818120C4CA7
:101560000C4A87B00546013168461DF057FE002140
:10157000C5F828122046022211F05EFD68461EF0D2
:10158000DFF869460246204616F0D0F907B030BDB4
:10159000907CFF1F504D020030B5D0F81C120C4C4F
:1015A0000C4A87B00546013168461DF037FE002120
:1015B000C5F82C122046012211F03EFD68461EF0AF
:1015C000BFF869460246204616F0B0F907B030BDB4
:1015D000907CFF1F504D020010B5D0F8283282B029
:1015E00004462BB10E4A12680092009A934210D31F
:1015F000D4F82C325BB10A4A12680192019A9342E4
:1016000005D22046FFF7C8FF0023C4F82C3202B0F1
:1016100010BDFFF7A1FF0023C4F82832E8E700BFA0
:10162000C094002070B50D4D0C460646FFF794FFA0
:1016300002220021284611F0FFFC20461EF080F80F
:1016400021460246284616F071F920461EF078F829
:10165000142828BF1420C6F8180270BD907CFF1F04
:1016600070B50E4C05460E4620460122002111F0B1
:10167000E3FC13220A49204616F058F920460222BC
:10168000002111F0D9FC3146204616F065F91323EC
:10169000C5F81832C5F81C3270BD00BF907CFF1F22
:1016A000684D020010B586B00B460D4A0D4C152151
:1016B00068461DF0B3FD68461EF042F8C0F1100107
:1016C000C9B22046002211F0B7FC68461EF038F877
:1016D00069460246204616F029F906B010BD00BF43
:1016E0007C4D0200907CFF1F70B5114D0C460646E4
:1016F000FFF732FF28460222002111F09DFC204610
:101700001EF01EF821460246284616F00FF9204624
:101710001EF016F8C6F8180220461EF011F8014611
:10172000204618F077FA0348BDE8704016F03AB941
:10173000907CFF1F1871FF1F2DE9F04F2DED028BDC
:1017400091B000F5C07103907C480AF021FA00289E
:1017500040F09180039B0290FF2706468046814619
:1017600001900446BB463D46009703F27F1AB7EE50
:10177000008A02E00134102C4FD01AF8012F002A01
:10178000F8D0224608A86D490AF004F89DF82420F4
:101790000098824208D001990131CBB29042019366
:1017A000034628BF13460093DDED0D7AF4EE487A28
:1017B000F1EE10FA03D0029A0132D3B20293F4EEA2
:1017C000C87AF1EE10FA21465C48D8BFB0EE678ABD
:1017D0000AF0D2FBA84207D0854209F1010928BFCF
:1017E00005465FFA89F9EDB29DF839205A4506D0D1
:1017F00008F1010893455FFA88F828BF93469DF8E1
:101800003820BA42B6D0974204F1010406F101062D
:1018100028BF1746102CF6B2AFD10122002148484C
:1018200011F00AFC12224749454816F07FF8294674
:1018300004A816F0D5FAB9F1010F25D9424920E0E4
:10184000424904A816F034FB069B112BF8D902225A
:1018500000213B4811F0F0FB04A9394816F07CF850
:10186000039C102312220DEB0300C4F81822C4F8C5
:101870001C3216F043FA11B0BDEC028BBDE8F08FBC
:10188000324904A816F014FB069B022BF8D95946DE
:1018900008A816F0A5FA08A904A816F005FB08A8E0
:1018A00016F02CFAB8F1010F05D9274900E02749B5
:1018B00004A816F0FDFA069B052BF8D9394608A8AE
:1018C00016F08EFA08A904A816F0EEFA08A816F089
:1018D00015FA012E05D91C4900E01C4904A816F090
:1018E000E7FA069B082BF8D9009A039908A8FFF796
:1018F000BDFC08A904A816F0D7FA08A816F0FEF94E
:10190000019B012B05D9104900E0104904A816F0ED
:10191000CFFA069B0C2BF8D9B0EE480A022108A892
:1019200016F072FA08A904A816F0BEFA08A816F074
:10193000E5F9029B012B87D9034982E7F8300020A3
:10194000907CFF1F944D0200A84D0200EC4D020058
:1019500010B502220C460B48122111F06DFB0A490A
:101960000848022215F0E2FF082CD4BF13211221EF
:101970000448022211F060FB21460248BDE81040F5
:1019800016F060B8907CFF1FDC4C020038B50446AE
:101990000E4809F01DFF04F5D0710546C4F8101279
:1019A00004F29F1304F2AF10002203F8012F8342C8
:1019B000FBD163190122204683F8A021FFF7D2F959
:1019C00029462046BDE83840FFF7C2BFF830002066
:1019D00010B503220C460B48122111F02DFB0A49C9
:1019E0000848022215F0A2FF082C94BF13211221EF
:1019F0000448032211F020FB611C0248BDE810409E
:101A000016F020B8907CFF1FDC4C020030B5204B54
:101A10001B7883B004460D461BB91E4B1B68092B6F
:101A200012D01D48A46B09F0E1FE1C492940002991
:101A3000024604DBC9B20220A04703B030BD013921
:101A400061F00F010131F5E7FFF758F9134929401B
:101A5000002918DBCDB229460F4809F0DFFE0E48F9
:101A600009F0A8FE01462046FFF73EFE0C4B1B681E
:101A70000193019B03F5FA632946C4F828322046F6
:101A8000FFF7A6FFD9E7013961F00F010131E1E766
:101A9000F1660020BC6FFF1FF83000200F000080AF
:101AA000C094002010B502220C460D480F2111F001
:101AB000C3FA0C490A48022215F038FF092C4FF0EE
:101AC000020294BF10210F21054811F0B5FA2146FA
:101AD00000230A220248BDE8104015F073BF00BF82
:101AE000907CFF1FDC4C020038B504460E4809F01C
:101AF0007DFE04F5D0710546C4F8101204F29F1360
:101B000004F2AF10002203F8012F8342FBD16319C6
:101B10000122204683F89F21FFF724F92946204619
:101B2000BDE83840FFF7BEBFF830002038B5594D4A
:101B30002B68013B04460C2B00F2A180DFE803F088
:101B40005F6B6D07071A0726313C4A948900002312
:101B500000F5D075026A4362012380F83132C0F883
:101B600010528262FFF764FC29462046BDE83840E7
:101B7000FFF7F8B8036A8362002200F5C071426281
:101B8000C0F81012BDE83840FFF7ECB88368026A6D
:101B90004362012380F831328262BDE83840FFF7AA
:101BA00001B90023026A4362012380F83132826264
:101BB000BDE83840FFF714B9C36A026A43620123E3
:101BC00080F831328262FFF729F93348BDE83840A6
:101BD0000BF0DABE036A836200F5D0710022426224
:101BE000C0F8101200F29F1300F2AF1003F8012F9B
:101BF0008342FBD12046BDE83840FFF7B3B8C36845
:101C0000226A63620123A26284F831322046BDE871
:101C10003840FFF7BBBE0369F2E7036B026A436219
:101C200000F5D0710123826280F83132C0F81012C1
:101C300000F29F13002200F2AF1003F8012F83423D
:101C4000FBD12046FFF78EF81448BDE8384003F07A
:101C50006FBC0023026A4362012380F83132826242
:101C6000BDE83840FFF7F8B8436B026A43620123CE
:101C700080F831328262BDE83840FFF735BF292154
:101C8000074817F0C7FF29680648BDE8384015F037
:101C9000D9BE00BFBC6FFF1FA0670020A82D002089
:101CA000AC4D02001871FF1F134A144B126870B537
:101CB00053F82250124C86B0064628461DF040FDCF
:101CC000D6F820120F4AC6F820028142B8BF01465A
:101CD0002B46013168461DF0A1FA20460122002161
:101CE00011F0AAF968461DF02BFD69460246204610
:101CF00015F01CFE06B070BDBC6FFF1F7C6FFF1F90
:101D0000907CFF1FD84D020070B500F5927586B02B
:101D10000446284615F070FB002840F0258128462F
:101D200015F0A6FB002840F0E88004F59A752846D7
:101D300015F062FB002840F0F380284615F098FB70
:101D4000002840F0A38004F59675284615F054FB52
:101D5000002840F0AE80284615F08AFB002870D19C
:101D600004F59E75284615F047FB002873D12846D8
:101D700015F07EFB00283FD104F5A275284615F02A
:101D80003BFB002842D1284615F072FB70B904F5E0
:101D9000A675284615F030FB90B9284615F068FB6B
:101DA00010B10023C4F8CC3006B070BD002304F598
:101DB000A675C4F8C830284615F01EFB0028ECD0E4
:101DC000284615F05FFB0028E7D02046FFF7C4FB4C
:101DD000964B092220461A60FFF7A8FE2046FFF71F
:101DE00063FF934B1B680593059BC4F8CC3001231C
:101DF00084F8143206B070BD002304F5A275C4F84F
:101E0000C430284615F0F8FA0028BCD0284615F052
:101E100039FB0028B7D02046FFF79EFB834B0822F2
:101E200020461A60FFF782FE2046FFF73DFF804BF9
:101E30001B680493049BC4F8C830012384F814324F
:101E4000A5E7002304F59E75C4F8BC30284615F0BC
:101E5000D3FA00288BD0284615F014FB002886D032
:101E60002046FFF779FB714B072220461A60FFF7E7
:101E70005DFE2046FFF718FF6D4B1B680393039B25
:101E8000C4F8C430012384F8143275E794F824228E
:101E90000023032A04F5967504BF84F82432A4F8BD
:101EA0002632C4F8C030284615F0A6FA00283FF4C0
:101EB00052AF284615F0E6FA00283FF44CAF204612
:101EC000FFF74AFB594B1A68052A00F08C80042A58
:101ED00000F09480574A12681A602046FFF726FEE9
:101EE0002046FFF7E1FE524B1B680293029BC4F8A9
:101EF000BC30012384F8143232E794F82422002302
:101F0000022A04F59A7504BF84F82432A4F8263214
:101F1000C4F8B830284615F06FFA00283FF40DAF2A
:101F2000284615F0AFFA00283FF407AF2046FFF728
:101F300013FB3E4A1368062B50D00C2B58D00D2BA8
:101F400042D03D4B1B6813602046FFF7EFFD204653
:101F5000FFF7AAFE364B1B680193019BC4F8C03003
:101F6000012384F81432EEE6284615F08BFA002897
:101F70003FF4D5AE2046FFF7EFFA2C4A1368012B49
:101F800027D0022B3FD0032B14D00A2B45D02B4B4C
:101F90001B6813602046FFF7C9FD2046FFF784FE4B
:101FA000234B1B680093009BC4F8B830012384F8CE
:101FB0001432BAE6214D224901264FF0FF300A23A0
:101FC0002E6008601360E5E71B4906230B60136071
:101FD000BAE71A48022103601160DBE716480C21BA
:101FE00003601160B0E7134904220A601A6074E7C5
:101FF000114906200D2308601360A5E70D4905224D
:102000000A601A6069E70D4D0D4901264FF0FF3057
:1020100003232E6008601360BCE7084D08490123C4
:102020004FF0FF302B6013600860B3E7BC6FFF1FF9
:10203000C0940020386FFF1F346FFF1F3C6FFF1FDD
:10204000B86FFF1F70B5044616480E4609F0CEFB68
:1020500006F00F030133984206D004F5D0712046F4
:10206000BDE87040FEF77EBE054631462046FEF7CD
:1020700045FE29462046FFF715FD0A4809F0FAFFFC
:1020800001462046FFF7A4FC074B062220461A60B3
:10209000FFF74CFD2046FFF707FE012384F81432BA
:1020A00070BD00BFF8300020BC6FFF1F10B50022CC
:1020B0000C461248112110F0BFFF032210490F48AF
:1020C00015F034FC632C4FF000020CDC092CCCBF63
:1020D00012211321094810F0AFFF21460748BDE83F
:1020E000104015F0AFBC1121044810F0A5FF2146A7
:1020F0000248BDE8104015F0A5BC00BF907CFF1F52
:102100008C4D020010B501220C461248112110F02E
:1021100093FF032210490F4815F008FC092C4FF0DB
:1021200001020CDD632CD4BF12211121094810F0EB
:1021300083FF21460748BDE8104015F083BC1321FA
:10214000044810F079FF21460248BDE8104015F020
:1021500079BC00BF907CFF1F8C4D0200F0B587B0AA
:1021600005460C9F0D9E0E9C0F9829606A6014997D
:10217000159AAB60EF60109B119F2E616C61129EEF
:10218000139C6963AA63EB61A8612F62EE622C6302
:1021900005F1A80305F1D001002243F8042F99426C
:1021A000FBD105F27F1205F28F13002102F8011F07
:1021B0009A42FBD105F29F11002203F8012F9942A8
:1021C000FBD105F5D67305F5F671002243F8042F0F
:1021D0009942FBD105F2EF1305F20F21002203F81B
:1021E000012F9942FBD1762475217422732305F1C6
:1021F0008006772703940291019200933046722360
:1022000004977122702111F0A1FAEB6B002BC8BF6B
:10221000002420DD2146304611F082F9304611F0CD
:10222000EFFA0A2016F06AFC0134EB6BE4B29C4230
:10223000F0DB002B0FDD00242146304611F08EF933
:10224000304611F0DDFA0A2016F058FC0134EB6B31
:10225000E4B29C42F0DB142016F050FC2846FFF755
:1022600065FC2846FFF720FD0F480EF013FC0146E1
:102270002846FFF71BFF0C480EF00EFC01462846CF
:10228000FFF740FF094809F0F5FE01462846FFF731
:102290009FFB064809F0AAFA0146284607B0BDE8A8
:1022A000F040FFF7FFBB00BFC4900020F8300020D3
:1022B000F8B5144D0C4617460646FFF74DF90222B5
:1022C0000021284610F0B8FE20461DF039FA2146BC
:1022D0000246284615F02AFB20461DF031FA02225C
:1022E000C1B2284610F0A8FE3946284615F0AAFBD0
:1022F00020461DF025FA0630142828BF1420C6F801
:102300001802F8BD907CFF1FF8B51F4C1F4F1546F3
:1023100000220E462046114610F08EFE2046112265
:102320001B4915F003FB00221146204610F084FEE5
:1023300030461DF005FA31460246204615F0F6FA01
:1023400020460122002110F077FE28461DF0F8F902
:1023500029460246204615F0E9FA30461DF0F0F90C
:102360000146304617F056FC384615F01BFB284650
:102370001DF0E6F90146284617F04CFC3846BDE84A
:10238000F84015F00FBB00BF907CFF1F1871FF1FB6
:10239000DC4D020070B51A4D82B08DED010A0C467D
:1023A0000646FFF7D9F828460222002110F044FE25
:1023B00020461DF0C5F921460246284615F0B6FA1A
:1023C00020461DF0BDF90222C1B2284610F034FEAD
:1023D0009DED010A10EE100A1BF052FD41EC100BAE
:1023E0000221284615F038FB20461DF0A9F90630D9
:1023F000142828BF1420C6F8180202B070BD00BF10
:10240000907CFF1FB0B588B002AF04460B46009227
:102410001521164A164D38461CF000FF38461DF0AF
:102420008FF9D4F81832C4F8180298420146B8BFA0
:10243000194601F1080323F00703ADEB030D02ACCD
:102440003B460C4A013120461CF0E8FE2846022299
:10245000002110F0F1FD20461DF072F921460246E0
:10246000284615F063FA1837BD46B0BDF04D02009E
:10247000907CFF1FD84D02002DE9F04790F83132D3
:1024800082B00546002B40F08280584E584A306892
:10249000D46892F809E092E88800197897F800C0AB
:1024A000137A534F1CEA0E0F01EA03015AD0BB7A8C
:1024B00003F0030309B143F0040343F00803991048
:1024C000013B91720D2B0AD8DFE803F05E07580735
:1024D000095B5E5E5B090758075E013CD460C31E62
:1024E000A34202DC0330A04239DA424809F07EF907
:1024F0003368E31A48BF033300EBA307002F39DC2E
:102500000127DFF80081D8F800309F4226D05FFA1B
:1025100087F94946374809F095FA3A463649284638
:10252000FFF770FF354B364A1B680193019B126819
:1025300003F5FA630C2AC5F8283239D049462846F3
:10254000FFF7B0FA2B4809F095FD01462846FFF742
:102550003FFA2846FFF7EAFAC8F80070346002B084
:10256000BDE8F087BB7A03F003030029A7D043F04E
:102570000403A4E7022FA8BF0227C2E70234D460F5
:10258000ADE7023CD460AAE70134D460A7E700239A
:1025900080F831321748154E09F028F91949144AC4
:1025A000086003B29B001C4618463360D36070E796
:1025B000D8F80030E8192B44002209F10F014FF040
:1025C000010A05F1800980F89FA1C9B283F89F2113
:1025D000484610F0A5FFD8F800100F314846C9B2A0
:1025E00010F0BCFF85F875A1B6E700BF807CFF1F27
:1025F000107CFF1FF8300020F84D0200C09400202E
:10260000BC6FFF1FF07BFF1F2DE9F041A84D2DEDA2
:10261000028B2B68DA0782B0044640F1EB81A54DAE
:102620002B68DB0740F1D78194F81432002B40F07F
:10263000AF81A14DA14E2B6869681A78687A0F782E
:102640002B7A9D49074202EA03021DD08B7A03F0E0
:1026500003030AB143F0040343F008039A10013B5B
:10266000AA720D2B00F26881DFE813F054015001CB
:102670004C01500166011600540154011600660118
:1026800050014C01500154018B7A03F00303002ADE
:10269000E4D043F00403E1E7EB68023BEB6007EEB4
:1026A000903A9FED876A96ED007ADFED866AF8EE44
:1026B000E77A87EE868A77EE267AB4EEE78AF1EE3D
:1026C00010FA06DA37EE667AB4EEC78AF1EE10FA3F
:1026D00040D87D4BDFED7D7AD3ED006AB1EE007A14
:1026E000E6EEC77AB4EEE78AF1EE10FA40F13A81ED
:1026F000B9EE008A26EE888ADFED717A68EE277AD5
:10270000FDEEE77AC5ED037A714D724F95ED000A43
:10271000F5EE007A68EE277AF4EE407AF1EE10FAE0
:10272000C7ED007A40F075819FED650A6A4967EE52
:10273000807A2046FDEEE77A17EE902AFFF762FED8
:10274000664B86ED008A1B680193019B03F5FA63D3
:10275000C4F82832624A1368506819780578507AAC
:10276000137A054201EA030100F0F380937A03F043
:10277000030309B143F0040343F008039910013B3C
:1027800091720D2B00F2D680DFE813F0D000C80064
:10279000CC00C800D4000E00D000D0000E00D40041
:1027A000C800CC00C800D000D568023DD5604D4EB1
:1027B0003368DA1EAA4202DCDA1CAA421DDA4A4F4A
:1027C000DFF83C81EA1A3B68D8F8001048BF0332B2
:1027D00003EBA203082BA8BF082323EAE373994263
:1027E0003B6006D0194641480EF04EF93968C8F8EA
:1027F00000102046FFF786FC35603D4A136850689C
:1028000019780578507A137A054201EA030100F03D
:102810009780937A03F0030309B143F0040343F074
:1028200008039910013B91720D2B00F28780DFE8BD
:1028300003F03B37333785073B3B07853733373B5F
:10284000D568023DD5602B4E3068C31EAB4202DC1A
:10285000C31CAB421BDA284A281A136848BF03304E
:1028600003EBA000002840F3E280B0F5967FA8BFFC
:102870004FF49670214F10603B68DFF87C809842DF
:1028800004D063699847D8F800303B60356002B0E7
:10289000BDEC028BBDE8F081D5680235D560D2E78A
:1028A000D568013DD560CEE7D5680135D560CAE76A
:1028B0000C7CFF1F047CFF1F207CFF1F687CFF1F18
:1028C0000000C8420AD7233D707CFF1F00000000B3
:1028D000AC7CFF1FE47BFF1F004E0200C094002071
:1028E000307CFF1FBC7CFF1F007CFF1FC4900020BA
:1028F000407CFF1F087CFF1F787CFF1FE87BFF1FC9
:10290000FC7BFF1FEB680233EB60C8E6EB68013B22
:10291000EB60C4E6EB680133EB60C0E6D568013DCF
:10292000D56044E7D5680235D56040E7D568013504
:10293000D5603CE7D5683AE7EB68B0E6D56882E752
:10294000937A03F0030300293FF46BAF43F00403D1
:1029500067E7937A03F0030300293FF40FAF43F0D6
:1029600004030BE7334BD3ED007A27EE877AB4EEFE
:10297000C78AF1EE10FA7FF7C7AEDFED2F7A67EE68
:10298000277AB0EE478AFDEEE77AC5ED037ABBE61B
:102990002A482B4DDFF8C4E02A4E0023002204F51C
:1029A000C077036084F81422EA6039462648CEF8DE
:1029B0000030336009F0CEFB244B234883ED000A3E
:1029C000394609F005FCF7EE007A37EEC00A194BDC
:1029D00083ED000A2FE6284615F092FD00283FF40B
:1029E00023AE1B480EF058F81A4B1860284615F015
:1029F0008DFD19E6284615F083FD00283FF40FAE43
:102A000013480EF045F8144B1860284615F07EFD6B
:102A100005E637EEC00A94F830220B4804F5C07181
:102A200009F05AFDD7ED007AC5ED007A7CE6012069
:102A300020E700BF747CFF1F0000C842E47BFF1F3B
:102A4000207CFF1F687CFF1FF8300020707CFF1F78
:102A5000C4900020007CFF1F787CFF1FAC7CFF1F10
:102A6000384B1B680D2B00D070472DE9F041364BD9
:102A7000CFB20B4007F00F06002B82B006F1010623
:102A800039DBC418054694F8A0317BB12F4B93F87D
:102A90000080B8F1000F33D1424631462C4809F08E
:102AA00041F9002838D102B0BDE8F081274B1B78EE
:102AB000DBB901223146264809F034F930B301234D
:102AC00084F8A031394605F1800010F029FD324626
:102AD00020492846FFF796FC1F4B1B680193019B7A
:102AE00003F5FA63C5F82832DDE7836B324601212E
:102AF00004209847D7E7013B63F00F030133C0E799
:102B0000836B3246002104209847CCE7394605F113
:102B1000800010F023FDC6E7394605F1800084F8F7
:102B2000A08110F01BFD32460C492846FFF76AFCD5
:102B3000094B1B680093009B03F5FA63C5F8283224
:102B4000B1E700BFBC6FFF1F0F000080F1660020DF
:102B5000F83000201C4E0200C09400200C4E0200F1
:102B600010B5013A8CB00446032A6BD8DFE802F0B6
:102B700052371D0240F6B833994200F086806AD978
:102B800041F28833994200F0AA8041F658339942C5
:102B900064D15F49FEF7A8FD5E4B1B680B930B9B4E
:102BA00003F5FA63C4F8283253E040F6B83399428B
:102BB00077D050D941F28833994200F09C8041F699
:102BC000583399424AD15449FEF78EFD514B1B6848
:102BD0000893089B03F5FA63C4F8283239E04F4A9A
:102BE00040F6B833994212683DD034D941F2883367
:102BF000994262D041F6583399422FD14849FEF7A5
:102C000073FD444B1B680593059B03F5FA63C4F8F9
:102C100028321EE04348019109F002FF019940F675
:102C2000B83399422BD016D941F28833994250D00B
:102C300041F65833994211D102463B492046FFF7ED
:102C4000E1FB06E03949FEF7D7FB3A21384816F098
:102C5000E1FF0CB010BDB1F57A7FFAD02046FEF747
:102C60007BFC0CB010BD3349FFF7CCFB294B1B6834
:102C70000393039B03F5FA63C4F82832E9E702469D
:102C80002C492046FFF7BEFBE3E72B49FEF72CFD5E
:102C9000204B1B680993099B03F5FA63C4F828329B
:102CA000D7E72649FEF720FD1A4B1B680693069BC3
:102CB00003F5FA63C4F82832CBE72149FFF7A2FBFA
:102CC000144B1B680493049B03F5FA63C4F8283281
:102CD000BFE702461B492046FFF794FBB9E71A49B4
:102CE000FEF702FD0B4B1B680A930A9B03F5FA6380
:102CF000C4F82832ADE71549FEF7F6FC054B1B6812
:102D00000793079B03F5FA63C4F82832A1E700BFD5
:102D1000D04E0200C09400209C4E0200B86FFF1FEE
:102D2000684E0200A0670020484E0200D84E020004
:102D3000E84E0200284E0200A84E0200784E020023
:102D4000584E0200384E0200C04E02008C4E020067
:102D5000B1F57A7F38B504D8B0F8264294B3002094
:102D600038BD40F6B834A14212D8B0F82612B1F5F9
:102D70007A7FF4D1A0F826422146FFF7F1FE082120
:102D8000284816F047FF284814F00CFE002038BDF4
:102D900041F28835A94222D941F65834A142B0F80F
:102DA00026122ED8A942DAD1A0F826422146FFF7F2
:102DB000D7FE04211D4816F02DFF1B4814F0F2FD2C
:102DC000002038BD4FF47A72A0F826220B21184853
:102DD00016F020FF144814F0E5FD204638BDB0F889
:102DE0002612A142BBD1A0F826522946FFF7B8FE11
:102DF0000621104816F00EFF0B4814F0D3FD0120F9
:102E000038BDA142ABD10024A0F826422146FFF7ED
:102E1000A7FE0821084816F0FDFE034814F0C2FD85
:102E2000204638BD304F02001871FF1F444F02008A
:102E3000244F02003C4F02004C4F0200B0B588B056
:102E400002AF0446019300920B46174A174D152115
:102E500038461CF0E3F938461CF072FCD4F81832FE
:102E6000C4F8180298420146B8BF194601F1080398
:102E700023F00703ADEB030D02AC3B460C4A0131D6
:102E800020461CF0CBF928460222002110F0D4F88D
:102E900020461CF055FC21460246284614F046FD0B
:102EA0001837BD46B0BD00BF584F0200907CFF1FD1
:102EB000D84D02002DE9F04190F8143282B0054659
:102EC000002B40F082804E4F4E4E3B6879681A7856
:102ED000787A0C783B7A4A49044202EA030215D018
:102EE0008B7A03F003030AB143F0040343F00803B1
:102EF0009A10013BBA720D2B65D8DFE803F05860D9
:102F00005C60640F58580F64605C60588B7A03F003
:102F10000303002AECD043F00403E9E7FC68023C19
:102F2000FC603368DA1CA24202DB033BA3423BDDB8
:102F3000354B1B78C3EB83739B00A34204DC334BFC
:102F40001B789B00A34201DAFB601C46304FDFF880
:102F5000D0803A68002C2346B8BFE31C9B109342F4
:102F6000C8F800301FD09A1AD2B295F830322948EA
:102F700005F5C07109F02CFAD8F80080C7F8008078
:102F800001466A462846FEF7DFF9424603462249D3
:102F90002846FFF753FF214B1B680193019B03F564
:102FA000FA63C5F82832346002B0BDE8F081FC68ED
:102FB0000134FC60B5E7FC680234FC60B1E7FC68F2
:102FC000013CFC60ADE7FC68ABE715490C4F104ACB
:102FD0000C4E1048002305F5C0740B60FB602146C1
:102FE0001360336009F056F8074B21461870094802
:102FF00009F080F8054BC0F17F00187065E700BF4D
:10300000107CFF1FF87BFF1F507CFF1FF47BFF1F0E
:10301000E07BFF1FF8300020644F0200C0940020C6
:10302000EC7BFF1F134B1A680D2A10B5044609D814
:103030000123934043F2B6321A405AB91A0714D406
:103040005B050ED42046FFF735FF2046BDE8104053
:10305000FFF7DABAFFF710FA2046BDE81040FFF795
:10306000D3BABDE81040FDF7D7BBBDE81040FDF76F
:10307000E3BC00BFBC6FFF1FF8B5184D0C461646E9
:103080000746FEF769FA0222002128460FF0D4FF16
:1030900020461CF055FB21460246284614F046FC0B
:1030A00020461CF04DFB0222C1B228460FF0C4FF9F
:1030B00030461CF045FB31460246284614F036FCEB
:1030C00020461CF03DFB044630461CF039FB2044F2
:1030D000142828BF1420C7F81802F8BD907CFF1FE1
:1030E000F0B58DB01D4D9DF848409DF84CE09DF821
:1030F0005070CDF80CE00134019306464B1C009251
:103100000294049707A8164A164C14211CF086F85E
:103110002846022200210FF08FFF07A81CF010FBA9
:1031200007A90246284614F001FC07A81CF008FB7A
:10313000C6F81802204614F035FC14210A4816F08F
:1031400069FD07A81CF0FCFA014607A816F062FD0D
:10315000204614F027FC0DB0F0BD00BF907CFF1F8F
:10316000784F02001871FF1F904F020008B503222C
:10317000112109480FF060FF084B1B7801222BB981
:1031800007490548BDE8084014F0D0BB054902488E
:10319000BDE8084014F0CABB907CFF1F34910020AA
:1031A000EC4D0200A84F020010B50446032290F82F
:1031B00078110B480FF040FFD4F81022D4F8783182
:1031C000D35C01222BB907490548BDE8104014F033
:1031D000ADBB05490248BDE8104014F0A7BB00BFD5
:1031E000907CFF1FEC4D0200AC4F02002DE9F04F28
:1031F0000446102300F1440720268FB0036404F135
:103200006208E6633846002510F006F9404610F0E3
:1032100003F94246394604950395029501950095B8
:103220002B4604F1800010F0F9F8C4F804611A2666
:10323000C4F8E860192604F58673C4F8EC601B2610
:103240004FF0250C4FF0240E1E2107931F2205235B
:10325000C4F8F0604FF0420B4FF0430A4FF02709DB
:103260004FF0260818271D201C26C4F8DCC0C4F81F
:10327000E0E0C4F80831C4F8FC10C4F80021C4F838
:10328000A4B0C4F8A8A0C4F8D49004F58A7AC4F80D
:10329000D880C4F8E470C4F8F460C4F8F800079863
:1032A00014F08AF8504614F087F804F58E7904F586
:1032B00092721646484614F07FF804F5967230462E
:1032C0001746089614F078F804F59A710E463846B9
:1032D000099714F071F804F59E7130460F460A966E
:1032E00014F06AF804F5A270064638460B9714F0FD
:1032F00063F804F5A6700746304604F5AA7B0C96E1
:1033000014F05AF8384604F5AE780D9714F054F8D6
:10331000584614F051F804F5B277404614F04CF8D2
:1033200004F5B676384614F047F8304614F044F801
:10333000FF22012384F8302284F8313284F874515A
:1033400084F8755184F8145284F81552C4F8185250
:10335000C4F81C52C4F8205284F82452A4F826520F
:103360004A21714816F056FC704814F01BFB2B469E
:103370006F48042214210FF083FE0A226D496C4825
:1033800014F0D4FA94F8A400022115F067FB94F825
:10339000A800022115F062FB94F8D800022115F074
:1033A0005DFB94F8D400022115F058FB94F8DC0082
:1033B000022115F053FB94F8E000022115F04EFBBA
:1033C00094F8E400022115F049FB94F8E80002218A
:1033D00015F044FB94F8EC00022115F03FFB94F843
:1033E000F000022115F03AFB94F8F400022115F0E8
:1033F00035FB0798D4F8D81013F0E6FF5046D4F800
:10340000D41013F0E1FF4846D4F8DC1013F0DCFFD1
:103410000898D4F8E01013F0D7FF0998D4F8E41016
:1034200013F0D2FF0A98D4F8E81013F0CDFF0B98F0
:10343000D4F8EC1013F0C8FF0C98D4F8F01013F087
:10344000C3FF0D9DD4F8F410284613F0BDFF079874
:10345000B4F8081113F0CEFF5046B4F8081113F079
:10346000C9FF4846B4F8081113F0C4FF0898B4F82F
:10347000081113F0BFFF0998B4F8081113F0BAFF50
:103480000A98B4F8081113F0B5FF0B98B4F80811B6
:1034900013F0B0FF0C98B4F8081113F0ABFF2846F6
:1034A000B4F8081113F0A6FF94F8F800022115F003
:1034B000D5FA94F8FC00022115F0D0FA94F8000136
:1034C000022115F0CBFA94F80401022115F0C6FA96
:1034D0005846D4F8F81013F077FF4046D4F8FC10A3
:1034E00013F072FF3846D4F8001113F06DFF304628
:1034F000D4F8041113F068FF5846B4F8081113F01B
:1035000079FF4046B4F8081113F074FF3846B4F858
:10351000081113F06FFF3046B4F8081113F06AFF7A
:1035200020460FB0BDE8F08FB04F02001871FF1FAA
:10353000907CFF1FFC4F020070B516460C460546F6
:10354000C9B203221F480FF077FDFEB92B1993F87B
:103550008061D5F878317EB99C422BD021461A483B
:1035600008F01CFD012818D9334601460A221548E7
:10357000BDE8704014F026BA9C424FF0010213D00F
:1035800012491048BDE8704014F0D0B9012210492A
:103590000C48BDE8704014F0C9B901220D49094832
:1035A000BDE8704014F0C2B90B490648BDE8704050
:1035B00014F0BCB9012209490248BDE8704014F07A
:1035C000B5B900BF907CFF1FF8300020AC4F02005F
:1035D000A84D0200EC4D020008500200A484020035
:1035E00070B5441800220F29054684F8F0211FD930
:1035F00001F00F060C463146FFF79EFF12211B48D3
:1036000016F008FB31461A4814F01CFA184814F05A
:10361000C9F995F83032A34204BFFF2385F8303250
:10362000144B1B680A2B09D00B2B00D070BD214610
:1036300005F18000BDE870400FF090BF2846FDF70F
:103640008BFF95F824220C480023012AC5F8D030BE
:1036500004BF85F82432A5F8263231460AF0CAF9AB
:103660002846BDE87040FDF7D9BB00BF0C500200F2
:103670001871FF1FBC6FFF1FA067002070B50D46BB
:103680001646D0F87C1100220446FFF755FF0322AE
:10369000E9B209480FF0D0FC012236B907490648C3
:1036A00014F044F9C4F87C5170BD0549024814F087
:1036B0003DF9C4F87C5170BD907CFF1FA4840200CA
:1036C00008500200D0F8103270B55D5CC0F8781177
:1036D000103104461646C9B2803095B10FF03EFF56
:1036E0000122D4F878112046FFF7C8FFD4F87831CA
:1036F0006C33012244F8236084F8742184F8752126
:1037000070BD0FF00DFF2A46D4F878112046FFF760
:10371000B5FFEBE72DE9F041012186B005464848A9
:103720000FF0AEF90021122015F098F901211320B5
:1037300015F094F90121132015F07CF90B261220C5
:1037400015F07EF930B9013E01464FF496744FF002
:10375000130067D175217422732305F18006772742
:1037600076240291019200933046722304970394C9
:10377000712270210FF0EAFFEB6B002B09DD0024B2
:10378000214630460FF0EAFE0134EB6BE4B29C4276
:10379000F6DB304610F034F805F29F1305F2AF1156
:1037A000002203F8012F8B42FBD16FF4BF76761B0A
:1037B00005F27F1405F28F180027311904F8017FF4
:1037C00000222846FFF7B8FE4445F6D105F5D6732A
:1037D00005F5F670002143F8041F83424FF0000204
:1037E000F9D1184B85F8152201240622284685F8C0
:1037F00014421A60FEF79AF92846FEF755FA124865
:103800000DF048F901462846FEF750FC0E480DF031
:1038100043F901462846FEF775FC85F8744106B069
:10382000BDE8F08115F006F92346013BFDD10121E9
:10383000132015F0FFF82346013BFDD17FE700BFC1
:103840003070FF1FBC6FFF1FC490002030B5D0F850
:10385000B83087B00446A3B1374A12680292029981
:10386000C91A0ED0354D2B680222013380F824226C
:103870005AD002222046FFF76BFA002847D107B042
:1038800030BDD4F8D030ABB12B4A12680392039903
:10389000C91A0FD0012284F824222046FFF758FAD3
:1038A0000028ECD0264809F0BBF80146244809F06E
:1038B000B3F9E4E7D4F8C0308BB11F4A1268049220
:1038C0000499C91A0BD0032284F824222046FFF75A
:1038D0003FFA0028D3D02046FFF71CFFCFE7D4F8EB
:1038E000B030002BCBD0144A126805920599C91A42
:1038F000C5D0042284F824222046FFF729FA0028A4
:10390000BDD0104808F0D0F8E3699847B7E72968B8
:103910000C4807F07FFD20462968FEF719F84FF0A4
:10392000FF332B6007B030BD0648019107F050FF10
:10393000019928609DE700BFC0940020B86FFF1F69
:10394000A0670020F83000202DE9F04F00F58E75BB
:1039500085B00446284613F04FFD10B905B0BDE808
:10396000F08F284613F08EFD0028F7D08C4E336878
:10397000013B0A2B57D8DFE803F0411E1856565674
:10398000560D0D560600874D2B78002B54D1E36958
:103990009847E3E7844A1378204683F001031370C5
:1039A000FFF7E4FB05B0BDE8F08F804801F076FE3C
:1039B00005B0BDE8F08F7E4D29684B1C00F0D78024
:1039C0007C4807F027FD2A687B492046FEF71AFD50
:1039D0007A4B1B680393039B03F5FA63C4F8283200
:1039E00001274FF0FF3320462B603760FEF79EF82B
:1039F0002046FEF759F984F81472AFE76D4807F0D6
:103A000045FE30B36B4807F0E3FE6D4902462046A1
:103A1000FEF7F8FC694B1B680193019B03F5FA6301
:103A2000C4F828329AE794F81532032B00F2AA80E2
:103A3000DFE803F076593F20012720463760FEF784
:103A400075F82046FEF730F9002384F814722B70C5
:103A500084E7584807F0BCFE5A4902462046FEF764
:103A6000D1FC564B1B680293029B03F5FA63C4F822
:103A7000283273E704F28F196FF4BF77C8463F1BF3
:103A800004F27F154FF0010A791915F8013F08F883
:103A9000013F002285F800A02046FFF74DFD4D456F
:103AA0004FF0010BF0D1022384F814B284F81532E0
:103AB00053E06FF4BF773F1B04F27F1504F28F1AB7
:103AC0004FF0000979194FF0000805F8019F4246B0
:103AD0002046FFF731FD5545F4D1012384F81582C6
:103AE00084F8143239E004F28F196FF4BF77C846B6
:103AF0003F1B04F27F15791915F8013F08F8013FC3
:103B000083F001032B7000222046FFF715FDA94525
:103B1000F1D10322012384F8152284F814321CE029
:103B20006FF4C778C4EB080804F28F1504F27F170E
:103B300004F29F1908EB050115F8013F83F001031A
:103B400007F8013F00222046FFF7F6FCA945F1D116
:103B5000012384F8153284F814323368062B7FF47D
:103B6000FDAE04F5C0712046FDF7FCF8F6E6012530
:103B700020463560FDF7DAFF2046FEF795F884F819
:103B80001452EBE63121104816F044F894F815125F
:103B90000E4813F057FF0D4813F004FFDDE700BF98
:103BA000BC6FFF1F842E002034910020A82D002020
:103BB000B86FFF1FF830002040500200C094002072
:103BC0002050020030500200505002001871FF1FB8
:103BD00070B504460D4696B080300FF0A1FC631915
:103BE000012283F8F0210F2D00F23F81DFE815F06C
:103BF000240040005C00780094009D00A600AF0007
:103C0000F100CB00DE00B8002A010401170110000A
:103C1000B9492046FDF768FDB84BB9481B681293B7
:103C2000129B03F5FA63C4F8283204F5C07104222C
:103C300008F00CFB16B070BDB24B1A68511E01297A
:103C400040F2D0810A2A00F0CD812046AE49FDF72E
:103C50004BFDAA4BAA481B680293029B03F5FA632B
:103C6000C4F8283204F5C071002208F015FBE1E722
:103C7000A44B1A68511E012940F2C0810B2A00F0A2
:103C8000BD812046A149FDF72FFD9C4B9C481B6838
:103C90000193019B03F5FA63C4F8283204F5C0715F
:103CA000012208F0F9FAC5E7964B1B68012B00F0DA
:103CB0006C81083B012B40F2688120469449FDF756
:103CC00013FD8E4B8E481B680493049B03F5FA6327
:103CD000C4F8283204F5C071022208F0DDFAA9E721
:103CE000884B1B68012B00F06881083B012B40F2D8
:103CF000648120468749FDF7F7FC804B80481B68AC
:103D00000693069B03F5FA63C4F8283204F5C071E4
:103D1000032208F0C1FA8DE77F4B1B78002B00F0DF
:103D20002781A3690120984784E77B4B1B78002BF0
:103D300000F01181A369022098477BE7764B1B783E
:103D4000002B00F0FB80A3690320984772E7724BB9
:103D50001B78002B00F0C280A3690420984769E714
:103D600020466E49FDF7C0FC644B65481B680E9306
:103D70000E9B03F5FA63C4F8283204F5C0710322E0
:103D800008F0AAFA56E720466549FDF7ADFC5B4B03
:103D90005B481B680C930C9B03F5FA63C4F828324C
:103DA00004F5C071012208F097FA43E720465D4907
:103DB000FDF79AFC514B52481B680D930D9B03F580
:103DC000FA63C4F8283204F5C071022208F084FABC
:103DD00030E720465449FDF787FC484B48481B68AC
:103DE0000B930B9B03F5FA63C4F8283204F5C071FA
:103DF000002208F071FA1DE720464C49FDF774FCDB
:103E00003E4B3F481B681093109B03F5FA63C4F8C0
:103E1000283204F5C071022208F018FA0AE7204699
:103E20004349FDF761FC354B35481B681193119BE5
:103E300003F5FA63C4F8283204F5C071032208F0D0
:103E400005FAF7E620463B49FDF74EFC2B4B2C4884
:103E50001B680F930F9B03F5FA63C4F8283204F52F
:103E6000C071012208F0F2F9E4E60F2D7FF6E2AE10
:103E700005F00F06314601222046FFF75DFB94F85E
:103E80003032AB42636A88BF84F8305213B1A5F177
:103E9000100098471B4B1B68013B0C2B00F2E7807E
:103EA00001A252F823F000BF0140000013400000BF
:103EB0006F4000001D400000654000006F400000A2
:103EC0005B40000001400000514000003B4000000A
:103ED000353C0000314000002740000016492046D4
:103EE000FDF702FC054B1B680A930A9B03F5FA6376
:103EF000C4F8283230E700BF7C510200C094002093
:103F0000F8300020BC6FFF1F905002008450020068
:103F1000B8500200E4500200F16600205051020047
:103F200038510200445102002C5102006451020039
:103F3000705102005C510200205102005F4920468E
:103F4000FDF7D2FB5E4B1B680993099B03F5FA63EF
:103F5000C4F82832F7E65B492046FDF7C5FB584B0D
:103F60001B680893089B03F5FA63C4F82832E1E65E
:103F700055492046FDF7B8FB514B1B680793079B3B
:103F800003F5FA63C4F82832CBE6504A5049137857
:103F9000002083F0010313700870002B00F088806C
:103FA0004C492046FDF7A0FB454B1B680393039B40
:103FB00003F5FA63C4F828323CE6454B1A78002A28
:103FC0006DD0424D4449002220462A701A70FDF7F8
:103FD0008BFB3B4B1B680593059B03F5FA63C4F809
:103FE000283227E60B2220461A60FDF79FFD204667
:103FF000FDF75AFE012384F814321BE60A22F2E789
:10400000324B364A1B784FF0FF311160002B7FF4A2
:1040100011AE29462046FCF771FE0BE629462046E4
:10402000FCF7B4FD06E629462046FEF719FD01E639
:1040300029462046FEF706F8FCE529462046FCF70F
:104040005DFE1F4B1B681393139BC4F8D030F1E542
:1040500029462046FDF7DAFCECE529462046FCF728
:10406000F1FDE7E529462046FCF7BEFDE2E52946DD
:104070002046FCF715FE31462046FDF75DFB104B50
:104080001A681592159A1B681493149B02F5FA622C
:1040900003F5FA63C4F82C22C4F82832CAE50B48A9
:1040A0000F490270012220461A70FDF71DFB90E7B0
:1040B0000C492046FDF718FB76E700BF10510200BF
:1040C000C094002000510200F0500200F166002070
:1040D000F06600209C500200C4500200B86FFF1F21
:1040E000D4500200AC500200F8B5344C2368DB0712
:1040F000054646D5324E14F0DDFC3368304A98420E
:1041000034D900F5EA4395F874113033136000296F
:1041100047D105F1800738460FF08AFA18B3EB6BE8
:10412000002B24DD0026344605E00134EB6BE4B2BD
:104130009C4226461BDA214638460FF0AFF92E4442
:1041400030B196F8F031214628460BB9FFF740FD13
:10415000214638460FF0B2F90028E6D0214628461D
:10416000FFF73EFAE1E795F875311BB9F8BD012379
:1041700085F8753138460FF043FB002385F875311B
:10418000F8BD204614F0BCF90028B3D014F092FC1E
:104190000B4E00F5EA4330332046336014F0B6F995
:1041A000A9E7014605F180072846FCF7B3FC38462D
:1041B0000FF03EFA0028D6D0B1E700BF887CFF1F81
:1041C000B87CFF1F10B50023036043608360044682
:1041D0001621044815F01EFD034813F0E3FB2046AA
:1041E00010BD00BF8C5102001871FF1F38B5054685
:1041F0001A210F4815F00EFD2C6864B1A36A2B60DC
:1042000020462C2114F0BEF92C680A48042115F030
:1042100001FD002CF2D100232B606B60AB60042108
:10422000054815F0F7FC054813F0BCFB284638BDDF
:10423000A4510200C8510200C05102001871FF1FB2
:1042400038B5054615210F4815F0E4FC2C6864B11B
:10425000A36A2B6020462C2114F094F92C680A489C
:10426000042115F0D7FC002CF2D100232B606B60E9
:10427000AB600421054815F0CDFC0548BDE8384089
:1042800013F090BBD0510200C8510200C05102008F
:104290001871FF1F38B52E4C05460A212D4815F020
:1042A000B9FC204613F07EFB0E212B4815F0B2FC22
:1042B0006B682046196813F0C5FB0B21274815F0E1
:1042C000A9FC6B680A2219792046002313F07AFBB7
:1042D000204613F067FB0821214815F09BFC6B6812
:1042E0002046D96813F0AEFB07211E4815F092FC5A
:1042F0006B68D86919F0C4FD41EC100B204602210F
:1043000013F0AAFB0B21184815F084FC6B680A22F5
:1043100093F820102046002313F054FB1621134875
:1043200015F078FC6B682046597A13F08BFB0E2150
:104330000F4815F06FFC6B68204693F824100A2292
:10434000002313F03FFB2046BDE8384013F02ABBA2
:104350001871FF1FE8510200F451020004520200DC
:10436000105202001C52020024520200305202007D
:104370004852020038B54368002B6BD09A6A9342CA
:1043800004460D4618BF012066D0A36823B12268F9
:1043900012B19B6A9A4274D06368444A1B68934284
:1043A00002DC01332DD038BD2A4641494148FDF792
:1043B000ABFF3121404815F02DFC28461BF0C0F919
:1043C0000146284615F026FC3C4813F0EBFA07217D
:1043D0003B4815F01FFC6168384813F033FB0E2191
:1043E000384815F017FC63683448196813F02AFB45
:1043F000324813F0D7FA63681B6801334FF00000AE
:10440000D1D12A4630492B48FDF77EFF34212F4871
:1044100015F000FC28461BF093F90146284615F0DC
:10442000F9FB264813F0BEFA0721254815F0F2FBE8
:104430006168224813F006FB0E21224815F0EAFBC2
:1044400063681E48196813F0FDFA1C4813F0AAFAB5
:10445000002038BD012038BD0A4616481C49FDF72A
:1044600053FF26211B4815F0D5FB28461BF068F9A1
:104470000146284615F0CEFB104813F093FA0020B1
:1044800083E72A4614490B48FDF73EFF39211348BC
:1044900015F0C0FB28461BF053F90146284615F0DD
:1044A000B9FB064813F07EFA002075E78096980065
:1044B000DC520200BC2E0020F45202001871FF1FD3
:1044C00028530200305302004053020058530200A8
:1044D000585202006852020090520200A05202009C
:1044E00003684360704700BF10B544680CB1206892
:1044F00010BD03490348FCF77FFF204610BD00BFF5
:1045000090530200BC2E002010B544680CB12079F5
:1045100010BD03490348FCF76FFF204610BD00BFE4
:10452000A4530200BC2E00202DE9F041884600274C
:10453000077006461121144815F06CFBD8F80440AA
:10454000ECB108340FCC35460FC594E80F0085E870
:104550000F0071680D4813F075FA08210C4815F02A
:1045600059FBD8F80430094819790A223B4613F060
:1045700029FA064813F016FA3046BDE8F0810549DD
:104580000548FCF739FFF7E7B85302001871FF1F21
:10459000F06A0200CC530200BC2E002040680030BC
:1045A00018BF0120704700BF70B504461621364879
:1045B000666815F02FFB354813F0F4F907213448ED
:1045C00015F028FB6168314813F03CFA08213148A6
:1045D00015F020FB21682D4813F034FA08212E48ED
:1045E00015F018FBA168294813F02CFA23686360C2
:1045F000642538E013F0D6F90E21284815F00AFB9F
:1046000063682248196813F01DFA0D21244815F03B
:1046100001FB61681D48083113F014FA0921214893
:1046200015F0F8FA63681948197913F00BFA0B21A1
:104630001D4815F0EFFA6168144813F003FA0821D9
:104640001A4815F0E7FA63681048996A13F0FAF906
:1046500017492046FFF78EFE40B1204600F0C6F80D
:10466000013D08D063680948002BC3D1074813F007
:1046700099F9666070BD0F490F48FCF7BDFE03480D
:1046800013F090F9666070BDE45302001871FF1FCB
:1046900028530200FC530200085402003053020069
:1046A0001454020024540200305402003C5402000E
:1046B0004854020050540200BC2E0020036810B57C
:1046C00004466BB14268934204BF002242609A6A7A
:1046D0008AB100210260996218462C2113F052FF22
:1046E0000A492046FFF746FE00B110BD2046BDE84E
:1046F0001040FFF759BF81688B4208BF82602C21B0
:10470000184613F03FFF00232360E9E760540200DE
:1047100038B50368044673B11A6891420D4603DC4C
:104720000AE01A68AA4207DA2046FFF7C7FF2368A3
:104730006360002BF5D10023636005492046FFF735
:1047400019FE00B138BD2046BDE83840FFF72CBF48
:104750007054020082B02DE9F04106AC074644F8DF
:10476000043F0D461E481421904615F053FA214689
:1047700000230A221B4813F025F91A4813F012F9F6
:104780002C2013F0FBFE2C22002106461AF0EAFA38
:104790000FCCB060F160326173610FCCBC683560E2
:1047A00086F80480B061F1613262736214B1A6428E
:1047B00018BFA6627B68BE607BB13B685BB10A49EB
:1047C0003846FFF7D7FD10B93846FFF7EDFEBDE8D4
:1047D000F04102B070473E60F1E77E60EDE700BF58
:1047E0009C5402001871FF1FB4540200436810B5B6
:1047F000044673B19A6A934213D062600C49204612
:10480000FFF7B8FD00B110BD2046BDE81040FFF72E
:10481000CBBE1921074815F0FDF9074813F0C2F87F
:10482000ECE706490648FCF7E7FD63689A6AE4E7A7
:10483000F0540200D45402001871FF1FC05402004B
:10484000BC2E002070B590E8480005460024436067
:1048500006E00134FFF7CAFFB4F57A7F06D06B6833
:104860002846002BF5D16E60204670BD03490448F0
:10487000FCF7C2FD6E60204670BD00BFF854020018
:10488000BC2E00200022026042608260704700BFA0
:1048900038B504461721094815F0BCF923685BB107
:1048A0000025DA6822601846DD6010219D6013F053
:1048B00069FE2368002BF4D1204638BD085502005C
:1048C00038B5436804460D4683B1DA68934218BF91
:1048D000012036D09A689A4248D0E3682BB1DA6852
:1048E000934219D09A689A4202D038BD0120F4E769
:1048F00028492948FCF780FD1F21284815F08AF92E
:10490000274813F04FF828461AF01AFF01462846A8
:1049100015F080F90020E8E722491F48FCF76CFDFC
:104920002B21214815F076F928461AF009FF014697
:10493000284615F06FF91A4813F034F8E3680020A0
:10494000D0E71A491448FCF757FD2321184815F001
:1049500061F928461AF0F4FE0146284615F05AF986
:104960000F4813F01FF863680020B3E711490A48A5
:10497000FCF742FD1721104815F04CF9084813F0D8
:1049800011F828461AF0DCFE0146284615F042F9D7
:104990000020A2E7BC550200BC2E0020D05502002A
:1049A0001871FF1F7C55020090550200205502002F
:1049B00030550200545502006455020010B50749F5
:1049C0000446FFF77DFF20B163680BB1DB686360CD
:1049D00010BD204600F004F8F6E700BFF0540200D6
:1049E00038B500210446434815F014F9424812F046
:1049F000D9FF0D21414815F00DF93F4812F0D2FFC3
:104A000007213F48656815F005F921683A4813F019
:104A100019F806213B4815F0FDF86168364813F097
:104A200011F80721384815F0F5F8A168324813F05D
:104A300009F80A21354815F0EDF8E1682E4813F021
:104A400001F82D4812F0AEFF204600F0DFF8636851
:104A50002BB945E0FFF7B2FF6368002B40D005217A
:104A60002B4815F0D7F86368234819680A220023F9
:104A700012F0A8FF0421274815F0CCF863681E48FF
:104A800019790A22002312F09DFF0421224815F013
:104A9000C1F86368184859790A22002312F092FF7E
:104AA00005211E4815F0B6F86168134812F0CAFFD8
:104AB00006211B4815F0AEF863680F48D96812F05C
:104AC000C1FF0D4812F06EFF6368DA68934220461A
:104AD000C0D11A21134815F09DF8074812F062FF63
:104AE0000021044815F096F8034812F05BFF65605A
:104AF00038BD00BF644D02001871FF1FF055020061
:104B00000056020008560200105602001856020015
:104B1000245602002C560200345602003C56020075
:104B2000445602004C56020038B50446C0680028BE
:104B300038D060602368834226D0A368834216D0B1
:104B40008568C368EB60C36882689A60102113F0BF
:104B500019FD65602B46E36014492046FFF7B0FE5F
:104B600000B138BD2046BDE83840FFF739BF826844
:104B70001AB1826862600021D1601846102113F0DA
:104B800001FD6368A360E6E7C268626062B100216C
:104B900091600022DA601846102113F0F3FC63687C
:104BA0002360D8E76068C5E7A260F2E768560200B4
:104BB0002DE9F84304461020894690461F4613F01D
:104BC000DDFCA66800254560856080F80490C5601E
:104BD00080F8058007600EB1F06086606368A060B1
:104BE0007BB123685BB108492046FFF769FE08B135
:104BF000BDE8F8832046BDE8F843FFF7F1BE20602A
:104C0000F1E76060EDE700BF7456020010B505499A
:104C10000446FFF755FE10B92046FFF7E1FE236872
:104C2000636010BD7C560200C3681879704700BFEE
:104C3000C3685879704700BFC3681868704700BFE1
:104C4000C068003018BF0120704700BF10B505498B
:104C50000446FFF735FE10B92046FFF7C1FE236872
:104C6000E36010BD8456020010B507490446FFF703
:104C700027FE20B1E3680BB1DB68E36010BD20467E
:104C8000FFF7AEFEF6E700BF9056020070B511497F
:104C90000546FFF715FE90B128466E680024FFF721
:104CA000B5FF05E00134FFF789FEB4F57A7F0AD03D
:104CB0006B682846002BF5D16E60204670BD2846F3
:104CC000FFF78EFEE8E704490448FCF795FB6E60A9
:104CD000204670BD9C560200A4560200BC2E002047
:104CE00038B50A4D002304460360436029464FF45B
:104CF000A072083013F022FB05F5A07104F5A47032
:104D00004FF4807213F01AFB204638BDB4560200EF
:104D100010B490E81800013400EB031394FBF1F297
:104D200002FB11410B44416093F848015DF8044BCC
:104D3000704700BF10B490E8180094FBF1F200EB4C
:104D4000031302FB11410B44416093F848015DF8E5
:104D5000044B7047436810B40468194400EB041016
:104D600091FBF2F303FB121250FA82F25DF8044B4E
:104D700092F84801704700BF406801308842B4BFD4
:104D800000200120704700BF054B0B40002B01DBCA
:104D900003607047013B63F00F030133036070470A
:104DA0000F000080036803EB830300EB83000830EF
:104DB000704700BF00234360704700BF10B5012358
:104DC0000446C36658220349703013F0B7FA2046F0
:104DD00010BD00BFF45802002DE9F04180460646A0
:104DE00000F16007337D5BB13546002455F8040FB0
:104DF000013418B1182113F0C5FB337DA342F5DC53
:104E00001836BE42EED14046BDE8F08101EB4103C9
:104E100000EBC30380F8CC10C0F8C8300120704705
:104E200010B5D0F8C84084B1227D8A420B46D8BF65
:104E3000002304EB8304D8BF19466468C0F8D0404F
:104E40004CB180F8D410012010BD06490648FCF78B
:104E5000D3FA204610BD05490348FCF7CDFA204699
:104E600010BD00BF4C590200BC2E0020605902004A
:104E700038B5044660B101EB410110EBC1050DD01E
:104E800002EB420014EBC0040ED06A75012038BD5D
:104E900008490948FCF7B0FA204638BD07490648DA
:104EA000FCF7AAFA284638BD05490348FCF7A4FADE
:104EB000204638BD74590200BC2E002088590200DB
:104EC0009C590200D0F8C8300BB11960704780F8C7
:104ED000CC300346C0F8C80019607047D0F8C8103D
:104EE00070B5054631B30B7D032B1DD8182013F088
:104EF00045FB044600F022FCD5F8C8301E1D28D022
:104F0000197D39B153F82100C0B100F08FFCD5F8FC
:104F1000C830197D03EB81020131546020461975B8
:104F200000F014FC204670BD0F491048FCF764FAED
:104F3000002070BDFFF76AFF40B970BD0C490B48F7
:104F4000FCF75AFAD5F8C830197DE3E7D5F8C81050
:104F5000C9E708490548FCF74FFA2046182113F025
:104F600011FB304670BD00BFB0590200BC2E0020BE
:104F7000D4590200C05902002DE9F043044685B01F
:104F80001A4803F043FE0E21194814F043FE194855
:104F900012F008FDD4F8D00000B300F081FCD4F882
:104FA000C830D4F8D00093F8009094F8CC5094F81E
:104FB000D86094F8D47000F0DDFB8046D4F8D000BF
:104FC00000F0DAFB4B4602908DE88001324629461C
:104FD0000948FEF785F805B0BDE8F08307490648A3
:104FE00005B0BDE8F043FCF707BA00BFF466002047
:104FF000E45902001871FF1FBC2E0020F459020072
:1050000070B504463321704814F004FED4F8D00083
:1050100000F0B0FB00230A2201466C4812F0D2FCDB
:1050200001216B4814F0F6FDD4F8D00000F0A4FB89
:10503000002301460A22654812F0C4FC0921654894
:1050400014F0E8FD00230A2294F8D4105F4812F00F
:10505000B9FC1421604814F0DDFDD4F8D00000F054
:10506000EBFB002301460A22584812F0ABFC5748DC
:1050700012F098FCD4F8D030002B00F09080D4F8D7
:10508000C850002D00F08680184600F0D7FB05467A
:1050900078B31921514814F0BDFDD4F8D00000F0C8
:1050A000CBFB102106464E4814F0B4FD00233146D8
:1050B0000A22464812F086FCD4F8C8301B7DB34261
:1050C00024D92121474814F0A5FDD4F8C83084F82C
:1050D000D46003EB86067068C4F8D00000F0A8FB2B
:1050E0002121414814F096FD384812F05BFC284617
:1050F00070BDD4F8D00000F0CFFB3D213B4814F048
:1051000089FD324812F04EFC284670BD18213848FF
:1051100014F080FDD4F8C830D4F8D8201B689A4227
:1051200024DB1021334814F075FDD4F8C8305E7DBF
:10513000FF2E3AD006EB4606132104EBC6062E4896
:1051400014F068FDC4F8C86015212C4814F062FD05
:10515000D4F8C830002284F8D4205868C4F8D000AD
:105160000123C4F8D83000F063FBB9E71A212448C2
:1051700014F050FD002384F8D430D4F8C820D4F8BB
:10518000D8305068C4F8D0000133C4F8D83000F0EB
:105190004FFBA5E71B491C48FCF72EF9B4E71B4958
:1051A00019481D46FCF728F9AEE70021184814F00D
:1051B00031FD064812F0F6FB1321164814F02AFDC3
:1051C000236E98478CE700BF085A02001871FF1F32
:1051D0003C5A0200405A02004C5A02008C5A02000B
:1051E000A85A0200BC5A02006C5B0200905B0200ED
:1051F000E05A0200185B02002C5B0200405B0200D8
:10520000FC5A0200785A0200BC2E0020645A0200A8
:10521000644D0200585B02002DE9F043D0F8C8301D
:10522000044685B0D0F8D00093F8009094F8CC6094
:1052300094F8D87094F8D48000F09CFA0546D4F81D
:10524000D00000F099FA4B460290CDF800803A4623
:10525000314601950248FDF743FF05B0BDE8F083F4
:10526000BC2E002010B514210446094814F0D2FCCD
:10527000084812F097FBD4F8D00018B1BDE81040F0
:1052800000F00EBB04490548BDE81040FCF7B4B877
:10529000D05B02001871FF1FE85B0200BC2E0020EB
:1052A00003460022C3F8C80080F8CC2048B140680B
:1052B00083F8D4200122C3F8D000C3F8D82000F02E
:1052C000B7BA02490248FCF797B800BFFC5B02007E
:1052D000BC2E0020F8B5594E594D0166044600F128
:1052E000150132602B607530FF2200230A7001F82F
:1052F000013C41F8153C183181424FF00005F5D1D1
:10530000504BC4F8C850012684F8CC50C4F8D05093
:1053100084F8D450C4F8D85084F8686020461E70D1
:10532000FFF7DCFD074690B12B462A46314600F0D8
:1053300017FA2B462A460221384600F011FA314668
:10534000384600F069FA3846022100F043FA204658
:10535000FFF7C4FD054690B101221146002300F07D
:10536000FFF9002301220221284600F0F9F901216A
:10537000284600F051FA2846022100F02BFA204678
:10538000FFF7ACFD054690B100230222012100F099
:10539000E7F9022211460023284600F0E1F9012135
:1053A000284600F039FA2846022100F013FA0121BC
:1053B0002046FFF787FD012200212046FFF758FD18
:1053C00001212046FFF722FD02212046FFF77AFD4A
:1053D0002046FFF783FD054690B1002303220121FB
:1053E00000F0BEF9002303220221284600F0B8F99C
:1053F0000121284600F010FA2846022100F0EAF9BF
:105400002046FFF76BFD054690B1002304220121E1
:1054100000F0A6F9002304220221284600F0A0F99A
:105420000121284600F0F8F92846022100F0D2F9BF
:105430002046BDE8F840FFF733BF00BFC47CFF1F24
:10544000C07CFF1FC87CFF1F38B5436E03F11C02F0
:1054500050F82240132B5CD8DFE803F04B4F530A7F
:105460005B5B5B5B5B5B5B5B5B5B0A2F363D44219D
:105470002B4A6FF0010521462A48FDF7FDFD204625
:105480001AF05EF90146204614F0C4FB294626486E
:1054900012F0D8FA2448BDE8384012F083BAD0F8A8
:1054A000D00000F071F9214A0546AB1CE3D02A4632
:1054B00021461C48FCF7FCFEE1E7D0F8D00000F0E4
:1054C0005DF91A4A0546F0E7D0F8D00000F054F92B
:1054D000164A0546E9E7D0F8D00000F051F9134A22
:1054E0000546E2E7D0F8D00000F04CF905460F4A37
:1054F000DBE790F8CC500D4AD7E790F8D4500B4A30
:10550000D3E790F8CC3003EB430350F833506A1CD8
:10551000EDD121460348FCF785F84FF0FF35AEE7A3
:105520003C5C0200BC2E00201871FF1F504D020091
:1055300010B517210446084814F06CFB074812F018
:1055400031FA00220123626684F868302046BDE803
:105550001040FFF779BF00BF445C02001871FF1FC5
:10556000436E132B00F29480DFE803F01C3E5B9245
:1055700092929292929292929292922B6C4E7F0A77
:10558000002901DA0F31FDD4424AD0F8D00081FB66
:105590000223CA18CB17C3EBE203C3EB0313C91AE8
:1055A00000F006B9002901DA0331FDD43A4B83FB40
:1055B0000123A3EBE17303EB4303C91AC9B2FFF75D
:1055C00025BC002901DA0F31FDD4324AD0F8D000D1
:1055D00081FB0223CA18CB17C3EBE203C3EB03130F
:1055E000C91AC9B200F018B9D0F8C8301B7D00291B
:1055F00003F1FF3301DAC918FDD491FBF3F203FB89
:105600001211C9B2FFF70CBC002904DACB4323F016
:1056100003030431194401F00301D0F8D00000F075
:10562000DBB8002901DA0F31FDD41A4A81FB0223CD
:10563000CA18CB17C3EBE203C3EB0313C91AC9B2F1
:10564000FFF740BC002901DA0F31FDD4114AD0F830
:10565000D00081FB0223CA18CB17C3EBE203C3EBD4
:105660000313C91AC9B200F0B5B8002901DA0F3125
:10567000FDD4084AD0F8D00081FB0223CA18CB170A
:10568000C3EBE203C3EB0313C91AC9B200F07EB83F
:10569000704700BF898888885655555508B516212A
:1056A000034814F0B7FA0348BDE8084012F07AB98D
:1056B0005C5C02001871FF1F70B50E460546112193
:1056C0001A48144614F0A6FA194812F06BF9B6F508
:1056D0007A7F00D070BD95F868306BB9EB6E012B06
:1056E00010D0022B21D128462146FFF739FF28464A
:1056F000BDE87040FFF7A8BE002385F86830EB6E68
:10570000012BEED1002C01DA1634FDD4094BE2173F
:1057100083FB0413C2EBA303162202FB13446C6643
:105720002846BDE87040FFF78FBE70BD745C020074
:105730001871FF1FE9A28B2E704700BFFF220021C6
:10574000017381608273C273026170470023FF227C
:10575000037183704371C37002704270704700BF61
:1057600030B40139C9B244180125A37025714254DF
:1057700030BC7047007D7047007A7047407B7047AF
:10578000007B7047C07B7047007C704708B54B1E9C
:105790000F2B02D8C173012008BD0A4602480349F5
:1057A000FBF7BCFE002008BDBC2E0020E05D02001F
:1057B0000F2902DC01610120704708B5CAB2034815
:1057C0000349FBF7ABFE002008BD00BFBC2E002044
:1057D000F45D020081607047042913D8DFE801F00E
:1057E00006090C0F0300042303737047002303739F
:1057F0007047012303737047022303737047032329
:1058000003737047CAB202480249FBF787BE00BF64
:10581000BC2E0020085E02004B1E50FA83F31B7959
:1058200013B1417301207047184670478173704768
:1058300000234361704700BF807B704742698368E3
:105840009A421DD01ADD10B50E4904460E48FBF7EA
:10585000D3FD12210D4814F0DDF961690C4812F0F6
:10586000F1F814210B4814F0D5F9A168084812F09A
:10587000E9F8074812F096F8012010BD00207047A3
:10588000012070471C5E0200BC2E0020305E02002A
:105890001871FF1F445E0200436901334361704782
:1058A000F8B5112106466B4814F0B4F96A4812F0B5
:1058B00079F8307B002878D1344601252379674870
:1058C0000821002B5ED014F0A5F92946624812F099
:1058D000B9F82378FF2B3AD00621614814F09AF9E1
:1058E00000230A2221785C4812F06CF8A378002B80
:1058F00053D10A215B4814F08DF9574812F052F841
:10590000EFB23946584806F09DF8584B20781B688E
:1059100098473946A278544806F004FA737BAB42A4
:1059200066D0534B1B68013B0C2B10D8DFE803F00B
:105930005A0F5A0F0F0F0F07470F0F0F41004A481A
:1059400006F0E6FA00F10F014A48FBF7D7F90135F6
:10595000032D04F10104B1D1717B434806F072F8C4
:10596000012373611521444814F054F93A4812F0A8
:1059700019F80021414814F04DF93748BDE8F840C6
:1059800012F010B814F046F92946334812F05AF8CC
:1059900009213B4814F03EF9D9E70821394814F0B1
:1059A00039F92D4811F0FEFFAAE7374B1B689847DD
:1059B00082E705F10F012F48FDF752F8C7E72A48A3
:1059C00006F058FB00F110012A48FCF71FF82648A2
:1059D00005F0F0FE01462748FBF786FE2548FBF759
:1059E00029FCB4E7217823481031FBF787F9AEE7AB
:1059F0003369FE2B12DDF37BFF2B92D01A4806F0A1
:105A000097FAF27B904204D31146174806F0E2FD64
:105A100087E71E491748FBF781FD82E71C491940BB
:105A200000290DDBC9B2104805F0F8FE33691849AA
:105A30001940002909DBC9B20E48FBF7C9FFDAE7B4
:105A4000013961F00F010131ECE7013961F00F011B
:105A50000131F0E75C5E02001871FF1FF06A02007E
:105A6000705E0200845E0200F8300020C47CFF1FDC
:105A7000BC6FFF1FBC2E0020AC5E0200644D020014
:105A8000A05E0200785E0200C07CFF1F905E0200F4
:105A90000F00008010B528210446074814F0BAF81A
:105AA000204619F04DFE0146204614F0B3F8034895
:105AB000BDE8104011F076BFC45E02001871FF1FF0
:105AC00010B50023036043608360C36004461D215A
:105AD000034814F09FF8034811F064FF204610BDFE
