:1000000000000320D1010000F9730100B173010069
:10001000B1730100B1730100B1730100B17301004C
:10002000B1730100B1730100B1730100F9730100F4
:10003000F9730100B17301002594010029950100B5
:10004000F9730100F9730100F9730100F9730100FC
:10005000F9730100F9730100F9730100F9730100EC
:10006000F9730100F9730100F9730100F9730100DC
:10007000F9730100F9730100F9730100F9730100CC
:10008000F9730100F9730100F9730100F9730100BC
:10009000F9730100F9730100F9730100F9730100AC
:1000A000FD1C0100091D0100F9730100F973010035
:1000B000F9730100F9730100F973010071950100F2
:1000C000F97301009D960100F9730100C9970100C1
:1000D000F9730100C1980100F9730100F97301007F
:1000E000F9730100F9730100F9730100F97301005C
:1000F000F9730100F9730100F9730100F97301004C
:10010000F9730100F9730100F9730100F97301003B
:10011000F9730100017E0100F9730100F973010018
:10012000F9730100F9730100F9730100F97301001B
:10013000F9730100F9730100F9730100F97301000B
:10014000E9660100F9730100B9990100F973010032
:10015000F9730100F9730100F9730100F9730100EB
:10016000F9730100F9730100151D0100F973010015
:10017000F9730100F9730100F9730100F9730100CB
:10018000F9730100F9730100F9730100F9730100BB
:10019000F9730100F9730100B19A0100F9730100CC
:1001A000F9730100F9730100F9730100F97301009B
:1001B000F9730100F9730100F9730100F97301008B
:1001C000F9730100F9730100F9730100F97301007B
:1001D0005C4B4CF2205210B51A804DF628121A8052
:1001E00000BF00BF17F00CF9574B4FF030621A6098
:1001F000564A9A60564ADA60564B4FF470021A60BB
:10020000554B564A1A60564B1A78110703D51A787F
:1002100042F008021A70534B5349AA221A70534AEB
:10022000534B8B4204D252F8040F43F8040BF8E707
:10023000504B514900228B4202D243F8042BFAE77B
:100240004E494F4A002352F8230041F8230001335E
:10025000742BF8D14B4B4C4A802103F8011B93427D
:10026000FBD14A4B454A1A60494B8A221A70A3F5C2
:10027000805324225A70A0221A709A799207FCD5D2
:100280009A79D406FCD4434A937903F00C03082BE3
:10029000FAD1414B60221A7002331A78802AFCD1BD
:1002A0003C4B01221A715D225A719A799006FCD555
:1002B0009979384A4906FBD5384B394919600021EC
:1002C000596020231370937903F00C030C2BFAD19F
:1002D000344B354A1A60354A354C136813F4807331
:1002E00003D123604FF4A8531360324B324A1A6093
:1002F00000225A60072243F8042C304AC3F80C2D20
:1003000062B617F0EDFB2368DA0705D52C4817F025
:100310001FFB2C4B2C4A1A602C4B1B785B0609D513
:10032000284C294B22689A4204D1254817F010FB2B
:10033000002323601DF0A6FB17F068F816F096FF67
:10034000FEE700BF0E20054030800440823F0400DD
:100350000100002B88ED00E0002008E0030000858C
:1003600002D0074000E00740387DFF1F10870200E1
:100370005070FF1F387DFF1FAC9B0020006AFF1FDD
:100380000000000000E400E064E400E008ED00E0AC
:10039000005006400040064001E007404480044011
:1003A0000000060204800440C010070010D0034083
:1003B00014D0034014E000E01FBF02000000202022
:1003C000272BA65E1CE00340A5C3945A00F007400B
:1003D000FFFFFFFFFFFFFFFFFFFFFFFFFFFFFFFF2D
:1003E000FFFFFFFFFFFFFFFFFFFFFFFFFFFFFFFF1D
:1003F000FFFFFFFFFFFFFFFFFFFFFFFFFFFFFFFF0D
:10040000FFFFFFFFFFFFFFFFFFFFFFFFDEF9FFFF23
:1004100010B5054C237833B9044B13B10448AFF33E
:1004200000800123237010BD387DFF1F00000000F5
:100430000C870200084B10B51BB108490848AFF300
:1004400000800848036803B910BD074B002BFBD0A0
:10045000BDE81040184700BF000000003C7DFF1FB2
:100460000C870200387DFF1F0000000010B5242219
:10047000044600211DF0A6FE002384F8243084F8F1
:100480002530204610BD00BFF8B5074690F824007F
:100490000D461646E0B13A46002404E00134844299
:1004A00002F1030212D01178A942F7D19178994252
:1004B000F4D104EB44043C446670A370062D5ED86E
:1004C000DFE805F031161D242B1031000A2C2BDC3F
:1004D00000EB40017A18013087F824007D545670F3
:1004E0009370EBE72E492F48BDE8F84001F070B853
:1004F00032462D492B48BDE8F84001F081BE324616
:100500002A492848BDE8F84001F07ABE3246284919
:100510002448BDE8F84001F073BE26492148BDE8F3
:10052000F84001F055B8F8BD23491E4800F0F6FE2A
:100530000421224818F0A6FD2146214816F024FA8D
:100540001721204818F09EFD00230A2297F8241056
:100550001B4816F0D9F910211B4818F093FD0C2107
:10056000174816F011FA0B21184818F08BFD294690
:10057000134816F009FA124816F0B6F99EE7144926
:10058000084800F0CBFE1521124818F07BFD2946E3
:100590000B4816F0F9F90A48BDE8F84016F0A4B97E
:1005A00064400200CC2F00202440020034400200AE
:1005B0004040020050400200D03F0200E43F0200F1
:1005C0003C72FF1FEC3F0200044002001840020092
:1005D000744002008840020038B590F825300B2B9B
:1005E000044627D91F49204800F098FE17211F48CC
:1005F00018F048FD00230A2294F825101C4816F034
:1006000083F917211B4818F03DFD00230A2294F8B6
:100610002410174816F078F91021174818F032FD09
:100620000C21134816F0B0F90025114816F05CF9BA
:10063000284638BD03EB430317210C48E55C18F04E
:1006400021FD00230A2294F82510094816F05CF9D0
:100650000B210A4818F016FD2946054816F094F9B2
:10066000284638BDB8400200CC2F0020A040020030
:100670003C72FF1FEC3F02000440020018400200E1
:1006800090F825300B2B04D803EB43031844407833
:10069000704710B513490446134800F03FFE172178
:1006A000124818F0EFFC00230A2294F82510104895
:1006B00016F02AF917210F4818F0E4FC00230A224B
:1006C00094F824100A4816F01FF910210A4818F06F
:1006D000D9FC0C21064816F057F9054816F004F924
:1006E000002010BDCC400200CC2F0020A040020012
:1006F0003C72FF1FEC3F02000440020090F82530DE
:100700000B2B04D803EB430318448078704710B5D3
:1007100013490446134800F001FE1721124818F04F
:10072000B1FC00230A2294F82510104816F0ECF8CA
:1007300017210F4818F0A6FC00230A2294F8241071
:100740000A4816F0E1F810210A4818F09BFC0C2129
:10075000064816F019F9054816F0C6F8002010BD35
:10076000E0400200CC2F0020A04002003C72FF1F9E
:10077000EC3F02000440020090F825300133DBB268
:100780000B2B80F825308CBF00200120704700BF64
:10079000002380F8253070470022134680F824207B
:1007A00080F82520C2540333242BFBD1704700BFAF
:1007B000FFF7F2BF70B5044615460E460846022103
:1007C00017F0ECF82846022117F0E8F8104A114B10
:1007D00052F83610012001F500762072266052F89A
:1007E0003520607202F5007500206560E060013B15
:1007F000FDD191F8003292F8002203F00103D207F4
:1008000044BF43F00203DBB2A372204670BD00BFB9
:10081000C07B0200C0D4010090F810322DE9F047EF
:100820000746002B7CD1DFF80C82794AD8F800000B
:10083000D468784D784E92F809E092E80A0091F871
:10084000009093F800C0117A714B1CEA0E0F09EA70
:1008500001015DD09B7A03F0030309B143F0040367
:1008600043F008039910013B91720D2B0AD8DFE881
:1008700003F075077207096F75756F0907720775C1
:10088000013CD460A04219D0DFF89891DFF890A124
:10089000D9F80030002C2246B8BFE21C92109A42D0
:1008A000CAF8002008D04FF47A715C480DF042FA83
:1008B000DAF80030C9F80030C8F800402B686968E1
:1008C0001A78687A0C782B7A5249044202EA0302B9
:1008D00016D08B7A03F003030AB143F0040343F00C
:1008E00008039A10013BAA720D2B00F28180DFE809
:1008F00003F07B7766777F387B7B387F7766777B03
:100900008B7A03F00303002AEBD043F00403E8E7FB
:100910009B7A03F003030029A4D043F00403A1E76A
:100920003F4E404C40484149394ADFF80881394D33
:1009300000233360384E2360036087F810321C4672
:100940000B601846D360C8F80030EB60336072E784
:10095000023CD46096E70234D46093E70134D4605B
:1009600090E7EC68023CEC6007F5AC7015F01EFDFA
:100970002F4B00282DD11A68042A3BDC3268A41AB8
:1009800004EB840402EB44049442EC6026D01A6821
:10099000264D254F0132002C1A6022462B68B8BF25
:1009A000E21C92109A423A6006D040F2E9311B48AC
:1009B0000DF0C0F93B682B603460BDE8F087EC684F
:1009C0000234EC6007F5AC7015F0F0FC184B002811
:1009D000D1D03268002194421960D8D1BDE8F087A7
:1009E000EC68013CEC60BFE7EC680134EC60BBE70D
:1009F000EC68B9E7092A326805DCA41A04EB840420
:100A000002EB8404C0E76421A41A01FB0424BBE7C1
:100A1000847DFF1FD07DFF1FF87DFF1FA868002089
:100A2000BC7DFF1FC47DFF1FC07DFF1FC87DFF1F52
:100A3000547DFF1FF07DFF1F2DE9F84F00238346F3
:100A40001D460E4680F87031994600F5D47A00F1C3
:100A50007C081024012706E08BF870710135013401
:100A6000102DE4B216D05AF8043F002BF6D0B34252
:100A7000F2D8DBF80C32CAF800905B5D21464046A4
:100A800053B9013511F00CFD0134102D8BF8717143
:100A9000E4B2E8D1BDE8F88F11F0C2FC0028DDD146
:100AA0002146404611F0DEFC8BF87171D6E700BF9D
:100AB00038B5144C0C40002C1FDB031993F89C51E3
:100AC0006DB9012283F89C21C9B27C3011F0CAFCB7
:100AD0002A4621460C48BDE838400AF097BC00225F
:100AE00083F89C21C9B27C3011F0DAFC2146012246
:100AF0000548BDE838400AF089BC013C64F00F04A9
:100B00000134DAE70F0000800432002038B5144CBD
:100B10000C40002C1FDB031993F89C216AB90125B6
:100B2000C9B27C3083F89C5111F09CFC2A462146C6
:100B30000C48BDE838400AF07DBC0025C9B27C30C5
:100B400083F89C5111F0ACFC2A4621460548BDE8CB
:100B500038400AF06FBC013C64F00F040134DAE75E
:100B60000F0000800432002038B5144C0C40002CDB
:100B70001FDB031993F89C216AB90125C9B27C30A7
:100B800083F89C5111F06EFC2A4621460C48BDE8C2
:100B900038400AF0EFBD0025C9B27C3083F89C5183
:100BA00011F07EFC2A4621460548BDE838400AF08F
:100BB000E1BD013C64F00F040134DAE70F0000806E
:100BC00004320020154B0B40002B10B504461FDBF0
:100BD000234493F87C216AB9012283F87C21C9B2AD
:100BE00004F17C0011F03EFC012384F8113284F8FA
:100BF000103210BD002283F87C21C9B204F17C00C0
:100C000011F04EFC012384F8113284F8103210BD2B
:100C1000013B63F00F030133DAE700BF0F000080F0
:100C20002DE9F84380460F4600F17C0600F29B1543
:100C300010244FF0000903E00134E4B2202C0DD061
:100C400015F8013F002BF7D0214601343046E4B2BD
:100C500011F026FC202C85F80090F1D1094B3B4087
:100C6000002B09DB43440122F9B2304683F89C2172
:100C7000BDE8F84311F0F6BB013B63F00F0301330D
:100C8000F0E700BF0F000080F8B507464D1E00F1E9
:100C90007C06102405E00134E4B211F0E3FB202CC3
:100CA0000DD015F8013F21463046002BF3D12146E7
:100CB00001343046E4B211F0F3FB202CF1D10123D2
:100CC00087F87131F8BD00BF38B500F5CE75044620
:100CD000C0F80C5200F29B13002200F2AB1003F894
:100CE000012F8342FBD106480AF078F9231801222C
:100CF0002946204683F89B21BDE83840FFF7C4BF52
:100D00000432002038B505460C480AF019FA05F5FA
:100D1000CE71C5F80C1205F29B1305F2AB1400223C
:100D200003F8012FA342FBD12B180122284683F898
:100D30009C21BDE83840FFF7A7BF00BF0432002068
:100D400038B505460C480BF05BF805F5CE71C5F8D3
:100D50000C1205F29B1305F2AB14002203F8012FCD
:100D6000A342FBD12B180122284683F89C21BDE821
:100D70003840FFF789BF00BFA868002038B500F5EC
:100D8000CE750446C0F80C5200F29B1300F2AB1172
:100D9000002203F8012F8B42FBD129460448102280
:100DA00009F0B0FF29462046BDE83840FFF76CBF88
:100DB000043200209C4B1A680D2A70B504460CD8EA
:100DC0000123934041F2B6321A40002A52D113F463
:100DD000005540F097805B056DD404F5A875284652
:100DE00015F0ACFAC0B904F5AC75284615F0A6FAB2
:100DF00008BB04F5B075284615F0A0FA50BB04F501
:100E0000B474204615F09AFA00B970BD204615F06A
:100E1000DBFA002872D170BD284615F0D5FA0028FB
:100E2000E1D0824B002204F5AC75DA60284615F05B
:100E300085FA0028DDD0284615F0C6FA0028D8D05B
:100E40007B4B002204F5B075DA60284615F076FA7F
:100E50000028D4D0284615F0B7FA0028CFD0754B1B
:100E6000002204F5B474DA60204615F067FA002811
:100E7000CBD0CBE700F5A875284615F05FFA00281F
:100E800062D104F5AC75284615F058FA002864D1F3
:100E900004F5B075284615F051FA002866D104F51E
:100EA000B474204615F04AFA0028AED0204615F05A
:100EB0008BFA18BB70BD00F5A876304615F03EFAE7
:100EC000002840F0998004F5AC75284615F036FAF4
:100ED000002840F08D8004F5B075284615F02EFAF4
:100EE00000287BD104F5B474204615F027FA0028B9
:100EF0008BD0204615F068FA00B970BD4E4B002229
:100F0000DA6070BD00F5A875284615F017FA0028BC
:100F100047D104F5AC75284615F010FA002837D1F2
:100F200004F5B075284615F009FA40BB04F5B47411
:100F3000204615F003FA00283FF467AF204615F06D
:100F400043FA0028DAD170BD284615F03DFA002892
:100F500097D03A4809F0AAFF93E7284615F034FAEB
:100F6000002895D0324B0022DA6091E7284615F030
:100F70002BFA002893D02F4B0022DA608FE7284607
:100F800015F022FA0028D1D02A4B0022DA60CDE7F2
:100F9000284615F019FA0028C2D0254B0022DA6045
:100FA000BEE7284615F010FA0028B2D0234809F011
:100FB0007DFF421E54FA82F292F89C3183F00103C5
:100FC00082F89C3143B300F10F01C9B204F17C00F7
:100FD00011F048FA012384F871319AE7284615F098
:100FE000F3F900283FF47EAF124B0022DA6079E774
:100FF000284615F0E9F96EE7304615F0E5F90028C6
:101000003FF461AF094A636AD560002B3FF45BAFE0
:101010004FF47A70984756E700F10F01C9B204F116
:101020007C0011F03DFAD5E7E070FF1F847DFF1FC3
:10103000D07DFF1F987DFF1FA87DFF1F0432002079
:10104000A1F57A71032906D8DFE801F00E0A06023D
:10105000074B0022DA607047064B0022DA607047C7
:10106000054B0022DA607047044B0022DA607047BB
:10107000A87DFF1F987DFF1FD07DFF1F847DFF1F70
:1010800070B500F584750446284615F057F900B987
:1010900070BD284615F098F90028F9D0A36ABDE87C
:1010A0007040184708B590F8A00016F061F8084A9B
:1010B0001368C0F58040A3F16401884202DB643309
:1010C000984201DD106008BD4FF0FF3008BD00BF41
:1010D000E47DFF1F08B590F8A40016F049F8074A10
:1010E0001368A3F16401884202DB6433984201DD96
:1010F000106008BD4FF0FF3008BD00BFCC7DFF1F62
:1011000030B500F5887483B00546204615F016F911
:1011100030B9204615F04EF980B9002003B030BD3B
:10112000204615F051F90028F3D00A4B1B680193B3
:10113000019BC5F8AC30012003B030BD95F82032DA
:101140000020042BC5F8AC00E7D185F82002A5F8F3
:101150002202E3E7C4950020054B82B01B6801938F
:10116000019B03F5FA63C0F8243202B0704700BF58
:10117000C4950020054B82B01B680193019B03F5C9
:10118000FA63C0F8283202B0704700BFC49500204F
:10119000F0B5B1B007462849284E6846144615F008
:1011A0008DFD274904A815F089FD264908A815F0EA
:1011B00085FD25490CA815F081FD244910A815F0DE
:1011C0007DFD234914A815F079FD224918A815F0D2
:1011D00075FD21491CA815F071FD204920A815F0C6
:1011E0006DFD1F4924A815F069FD1E4928A815F0BA
:1011F00065FD1D492CA815F061FD86FB0426E3174B
:10120000C3EB660606EB4601A4EB8101C9B20DEB08
:101210000111384615F066FDF1B2384615F0F6FDBD
:101220006D4630AC103C204615F008FDAC42F9D1BB
:10123000384631B0F0BD00BF24410200ABAAAA2A53
:1012400028410200744202002C4102008440020046
:10125000F44302003041020018450200344102000C
:10126000384102003C41020040410200F0B5144DFB
:10127000DFF854E00E4617460FCD8FB002AC0FC416
:101280000FCD0FC495E80F008EFB065EF517C5EB7A
:101290006E0584E80F0005EB450EA6EB8E060EAB3F
:1012A000F6B203EB8606EDB256F8303C054A0095DF
:1012B000384604211DF0E2F938460FB0F0BD00BFFA
:1012C000F440020044410200ABAAAA2A10B5012250
:1012D00000210D48FFF76EFA032202210B48FFF7A9
:1012E00069FA052204210A48FFF764FA0822062158
:1012F0000848FFF75FFA2123232222210648BDE890
:10130000104010F00FBD00BF847DFF1FD07DFF1F78
:10131000987DFF1FA87DFF1F007EFF1F10B586B0C0
:101320000B460A4C0A4A684615211DF0A7F900220F
:101330001146204610F022FE68461DF041FC694629
:101340000246204615F094FA06B010BD007EFF1F3D
:101350004C41020070B5324D0446324809F04EFE51
:101360002B68052B064645D0072B2AD0042B10D01E
:1013700020462D49FFF7D2FF06212C4817F082FEA8
:1013800029682B4815F000FB2948BDE8704015F08E
:10139000ABBA68B104F29B1400252946214809F034
:1013A00075FE013580F00100B54204F8010FF4D15B
:1013B0000921204817F066FE1D48BDE8704015F071
:1013C00093BA70B104F29B1400252946154809F020
:1013D00081FE0135003018BF0120B54204F8010F2D
:1013E000F3D10B21144817F04DFE1148BDE87040B1
:1013F00015F07ABA58B104F29B1400252946094821
:1014000009F056FE0135B54204F8010FF6D1092165
:101410000A4817F037FE0648BDE8704015F064BA78
:10142000E070FF1F0432002084410200B44102003A
:101430003C72FF1F78410200604102006C410200D3
:1014400010B588B00B4600920A4C0B4A02A8152131
:101450001DF014F900221146204610F08FFD02A85D
:101460001DF0AEFB02A90246204615F001FA08B0B5
:1014700010BD00BF007EFF1FBC41020030B5D0F898
:1014800014120C4C0C4A87B00546013168461DF019
:10149000F5F80021C5F824122046022210F06EFD56
:1014A00068461DF08DFB69460246204615F0E0F9BE
:1014B00007B030BD007EFF1FD041020030B5D0F82C
:1014C00018120C4C0C4A87B00546013168461DF0D5
:1014D000D5F80021C5F828122046012210F04EFD53
:1014E00068461DF06DFB69460246204615F0C0F9BE
:1014F00007B030BD007EFF1FD041020010B5D0F80C
:10150000243282B004462BB10E4A12680092009A2F
:10151000934210D3D4F828325BB10A4A1268019280
:10152000019A934205D22046FFF7C8FF0023C4F872
:10153000283202B010BDFFF7A1FF0023C4F8243207
:10154000E8E700BFC495002070B50E4C05460E4676
:1015500020460122002110F011FD13220A492046E5
:1015600015F086F920460222002110F007FD3146D1
:10157000204615F093F91323C5F81432C5F8183234
:1015800070BD00BF007EFF1FE841020010B586B0AD
:101590000B460D4A0D4C152168461DF06FF8684644
:1015A0001DF00EFBC0F11001C9B22046002210F060
:1015B000E5FC68461DF004FB69460246204615F02E
:1015C00057F906B010BD00BFFC410200007EFF1FAE
:1015D00070B5114D0C460646FFF750FF2846022213
:1015E000002110F0CBFC20461DF0EAFA214602460D
:1015F000284615F03DF920461DF0E2FAC6F814021F
:1016000020461DF0DDFA0146204617F03BFD034859
:10161000BDE8704015F068B9007EFF1F3C72FF1FE7
:101620002DE9F04F2DED028B91B000F5BE710390C6
:101630007C4809F013FB002840F09180039B029046
:10164000FF2706468046814601900446BB463D463C
:10165000009703F27B1AB7EE008A02E00134102CE7
:101660004FD01AF8012F002AF8D0224608A86D4959
:1016700009F0F6F89DF824200098824208D00199DC
:101680000131CBB290420193034628BF1346009329
:10169000DDED0D7AF4EE487AF1EE10FA03D0029AFD
:1016A0000132D3B20293F4EEC87AF1EE10FA214679
:1016B0005C48D8BFB0EE678A09F0C4FCA84207D0E6
:1016C000854209F1010928BF05465FFA89F9EDB2A3
:1016D0009DF839205A4506D008F1010893455FFA74
:1016E00088F828BF93469DF83820BA42B6D0974272
:1016F00004F1010406F1010628BF1746102CF6B2CA
:10170000AFD101220021484810F038FC122247498D
:10171000454815F0ADF8294604A815F001FBB9F1CC
:10172000010F25D9424920E0424904A815F060FB89
:10173000069B112BF8D9022200213B4810F01EFC19
:1017400004A9394815F0AAF8039C102312220DEBC6
:101750000300C4F81422C4F8183215F06FFA11B05F
:10176000BDEC028BBDE8F08F324904A815F040FBB8
:10177000069B022BF8D9594608A815F0D1FA08A9FA
:1017800004A815F031FB08A815F058FAB8F1010FBC
:1017900005D9274900E0274904A815F029FB069B35
:1017A000052BF8D9394608A815F0BAFA08A904A8F3
:1017B00015F01AFB08A815F041FA012E05D91C49AD
:1017C00000E01C4904A815F013FB069B082BF8D970
:1017D000009A039908A8FFF7DBFC08A904A815F0F4
:1017E00003FB08A815F02AFA019B012B05D9104923
:1017F00000E0104904A815F0FBFA069B0C2BF8D961
:10180000B0EE480A022108A815F09EFA08A904A81B
:1018100015F0EAFA08A815F011FA029B012B87D9F6
:10182000034982E704320020007EFF1F14420200B9
:10183000284202006C42020010B502220C460B48FE
:10184000122110F09BFB0A490848022215F010F8FB
:10185000082CD4BF132112210448022210F08EFB61
:1018600021460248BDE8104015F08EB8007EFF1FEB
:101870005C41020038B504460E4809F00FF804F543
:10188000CE710546C4F80C1204F29B1304F2AB109F
:10189000002203F8012F8342FBD163190122204665
:1018A00083F89C21FFF7F0F929462046BDE838402F
:1018B000FFF7C2BF0432002010B503220C460B48CC
:1018C000122110F05BFB0A490848022214F0D0FFF5
:1018D000082C94BF132112210448032210F04EFB60
:1018E000611C0248BDE8104015F04EB8007EFF1F95
:1018F0005C41020030B5204B1B7883B004460D4696
:101900001BB91E4B1B68092B12D01D48646B08F0D5
:10191000D3FF1C4929400029024604DBC9B202203A
:10192000A04703B030BD013961F00F010131F5E787
:10193000FFF776F913492940002918DBCDB2294673
:101940000F4808F0D1FF0E4808F09AFF01462046E4
:10195000FFF73EFE0C4B1B680193019B03F5FA63F6
:101960002946C4F824322046FFF7A6FFD9E70139FB
:1019700061F00F010131E1E7FD670020E070FF1F1A
:10198000043200200F000080C495002010B5022210
:101990000C460D480F2110F0F1FA0C490A480222BA
:1019A00014F066FF092C4FF0020294BF10210F21A2
:1019B000054810F0E3FA214600230A220248BDE858
:1019C000104014F0A1BF00BF007EFF1F5C41020069
:1019D00038B504460E4808F06FFF04F5CE71054691
:1019E000C4F80C1204F29B1304F2AB10002203F8AB
:1019F000012F8342FBD163190122204683F89B21EA
:101A0000FFF742F929462046BDE83840FFF7BEBF40
:101A10000432002038B5534D2B68013B04460C2B93
:101A200000F29680DFE803F05C686A07071A072671
:101A3000313C47897E00002300F5CE75026A43627F
:101A4000012380F82D32C0F80C528262FFF782FC2D
:101A500029462046BDE83840FFF716B9036A83627D
:101A6000002200F5BE714262C0F80C12BDE8384099
:101A7000FFF70AB98368026A4362012380F82D32B6
:101A80008262BDE83840FFF71FB90023026A436253
:101A9000012380F82D328262BDE83840FFF732B969
:101AA000C36A026A4362012380F82D328262BDE874
:101AB0003840FFF745B9036A836200F5CE71002212
:101AC0004262C0F80C1200F29B1300F2AB1003F854
:101AD000012F8342FBD12046BDE83840FFF7D4B840
:101AE000C368226A63620123A26284F82D32204611
:101AF000BDE83840FFF7BEBE0369F2E7006AA062A6
:101B00000123002204F5CE7184F82D326262C4F8FC
:101B10000C1204F29B1304F2AB1003F8012F834262
:101B2000FBD1D8E70023026A4362012380F82D32FB
:101B30008262BDE83840FFF721B9036B026A436255
:101B4000012380F82D328262BDE83840FFF740BFA4
:101B50002921054817F096FA29680448BDE838405D
:101B600014F012BFE070FF1F2C4202003C72FF1FF6
:101B7000134A144B126870B553F82250124C86B0B9
:101B8000064628461DF01CF8D6F81C120F4AC6F867
:101B90001C028142B8BF01462B46013168461CF049
:101BA0006DFD20460122002110F0E8F968461DF085
:101BB00007F869460246204614F05AFE06B070BD8A
:101BC000E070FF1FA070FF1F007EFF1F5842020041
:101BD000F0B500F5907587B00446284614F0AEFBCA
:101BE000002840F0E680284614F0E4FB002840F08E
:101BF000058104F59875284614F0A0FB002840F0F4
:101C0000B780284614F0D6FB002840F0038104F585
:101C10009475284614F092FB002840F089802846ED
:101C200014F0C8FB002840F0E58004F59C752846B8
:101C300014F084FB002863D1284614F0BBFB002875
:101C40003CD104F5A075284614F078FB00283FD15C
:101C5000284614F0AFFB70B904F5A475284614F0BB
:101C60006DFB90B9284614F0A5FB10B10023C4F811
:101C7000C83007B0F0BD002304F5A475C4F8C43023
:101C8000284614F05BFB0028ECD0284614F09CFB9F
:101C90000028E7D0814B092220461A60FFF7BAFEE0
:101CA0002046FFF765FF7E4B1B680593059BC4F834
:101CB000C830012384F8103207B0F0BD002304F5CA
:101CC000A075C4F8C030284614F038FB0028BFD0F7
:101CD000284614F079FB0028BAD0704B0822204621
:101CE0001A60FFF797FE2046FFF742FF6C4B1B6818
:101CF0000493049BC4F8C430012384F81032ABE78A
:101D0000284614F061FB002896D0644B0722204639
:101D10001A60FFF77FFE2046FFF72AFF604B1B6823
:101D20000393039BC4F8C030012384F8103288E782
:101D3000284614F049FB00283FF471AF574B1A684E
:101D4000052A73D0042A00F08680564A12681A6069
:101D50002046FFF75FFE2046FFF70AFF504B1B6847
:101D60000293029BC4F8B830012384F810325CE778
:101D7000284614F029FB00283FF443AF474A136874
:101D8000062B5DD00C2B60D00D2B69D0464B1B6809
:101D900013602046FFF73EFE2046FFF7E9FE404B6A
:101DA0001B680193019BC4F8BC30012384F81032F6
:101DB0002DE7284614F008FB00283FF414AF374AFB
:101DC0001368012B37D0022B4FD0032B5AD0374B3F
:101DD0001B6813602046FFF71DFE2046FFF7C8FE74
:101DE0002F4B1B680093009BC4F8B430012384F888
:101DF0001032FEE60023C4F8B83016E794F820222B
:101E00000023022AC4F8B43004BF84F82032A4F8B6
:101E10002232EEE694F820220023032AC4F8BC30D4
:101E200004BF84F82032A4F82232F0E61D490422CF
:101E30000A601A608CE71D48022103601160C9E73F
:101E400019480C2103601160A3E7174906200D23F0
:101E5000086013609DE7134905220A601A6077E75E
:101E6000114906230B60136093E7104E10490127B8
:101E70004FF0FF350323204637600D601360FFF7F6
:101E8000FDFAA7E7094E0A4901234FF0FF35204626
:101E9000336013600D60FFF7F1FA9BE7E070FF1FFE
:101EA000C49500205870FF1F5470FF1F5C70FF1F07
:101EB000DC70FF1F70B5044616480E4608F0FCFCA7
:101EC00006F00F030133984206D004F5CE71204688
:101ED000BDE87040FEF7D8BE054631462046FEF705
:101EE0009FFE29462046FFF751FD0A4809F028F9D0
:101EF00001462046FFF7E0FC074B062220461A6009
:101F0000FFF788FD2046FFF733FE012384F81032E7
:101F100070BD00BF04320020E070FF1F10B500222A
:101F20000C461248112110F029F8032210490F48DD
:101F300014F09EFC632C4FF000020CDC092CCCBF8B
:101F400012211321094810F019F821460748BDE86D
:101F5000104014F019BD1121044810F00FF821466B
:101F60000248BDE8104014F00FBD00BF007EFF1F07
:101F70000C42020010B501220C46124811210FF04C
:101F8000FDFF032210490F4814F072FC092C4FF09A
:101F900001020CDD632CD4BF1221112109480FF07E
:101FA000EDFF21460748BDE8104014F0EDBC1321B9
:101FB00004480FF0E3FF21460248BDE8104014F04A
:101FC000E3BC00BF007EFF1F0C420200F0B587B0EB
:101FD00005460C9F0D9E0E9C0F9829606A60139910
:101FE000149AAB60EF60109B119F2E61129E2963C3
:101FF0006A63EB616C61A8612F62EE6205F1A40374
:1020000005F1CC01002243F8042F9942FBD105F2DF
:102010007B1205F28B13002102F8011F9A42FBD1BB
:1020200005F29B11002203F8012F9942FBD105F51F
:10203000D47305F5F471002243F8042F9942FBD1C3
:1020400005F2EB1305F20B21002203F8012F994250
:10205000FBD1762475217422732305F17C06772742
:1020600003940291019200933046722304977122E7
:10207000702110F00DFBAB6B002BC8BF002420DDDE
:102080002146304610F0EEF9304610F05BFB0A2096
:1020900015F0D4FC0134AB6BE4B29C42F0DB002BB6
:1020A0000FDD00242146304610F0FAF9304610F0DA
:1020B00049FB0A2015F0C2FC0134AB6BE4B29C4230
:1020C000F0DB142015F0BAFC2846FFF7A3FC2846E5
:1020D000FFF74EFD0F480DF0BFFD01462846FFF704
:1020E0001DFF0C480DF0BAFD01462846FFF742FFE0
:1020F000094809F025F801462846FFF7DDFB0648A8
:1021000008F0DAFB0146284607B0BDE8F040FFF7CB
:102110003DBC00BFD091002004320020F8B5144D22
:102120000C4617460646FFF7A9F902220021284669
:102130000FF024FF20461CF043FD214602462846AE
:1021400014F096FB20461CF03BFD0222C1B228464B
:102150000FF014FF3946284614F016FC20461CF0F8
:102160002FFD0630142828BF1420C6F81402F8BD2D
:10217000007EFF1FF8B51F4C1F4F154600220E466C
:10218000204611460FF0FAFE204611221B4914F09A
:102190006FFB0022114620460FF0F0FE30461CF087
:1021A0000FFD31460246204614F062FB2046012214
:1021B00000210FF0E3FE28461CF002FD29460246EE
:1021C000204614F055FB30461CF0FAFC0146304620
:1021D00016F058FF384614F087FB28461CF0F0FC38
:1021E0000146284616F04EFF3846BDE8F84014F088
:1021F0007BBB00BF007EFF1F3C72FF1F5C420200E2
:10220000B0B588B002AF04460B4600921521164ABD
:10221000164D38461CF032FA38461CF0D1FCD4F882
:102220001432C4F8140298420146B8BF194601F1AD
:10223000080323F00703ADEB030D02AC3B460C4A49
:10224000013120461CF01AFA2846022200210FF024
:1022500095FE20461CF0B4FC21460246284614F0A8
:1022600007FB1837BD46B0BD70420200007EFF1F5D
:10227000584202002DE9F04790F82D3282B0054611
:10228000002B40F08280584E584A3068D46892F84B
:1022900009E092E88800197897F800C0137A534F44
:1022A0001CEA0E0F01EA03015AD0BB7A03F00303C4
:1022B00009B143F0040343F008039910013B917204
:1022C0000D2B0AD8DFE803F05E075807095B5E5E56
:1022D0005B090758075E013CD460C31EA34202DCC1
:1022E0000330A04239DA424808F0E6FA3368E31ACC
:1022F00048BF033300EBA307002F39DC0127DFF8C9
:102300000081D8F800309F4226D05FFA87F949460D
:10231000374808F0FDFB3A4636492846FFF770FF7C
:10232000354B364A1B680193019B126803F5FA632B
:102330000C2AC5F8243239D049462846FFF726FB37
:102340002B4808F0FDFE01462846FFF7B5FA28465F
:10235000FFF760FBC8F80070346002B0BDE8F0879A
:10236000BB7A03F003030029A7D043F00403A4E7DA
:10237000022FA8BF0227C2E70234D460ADE7023CB7
:10238000D460AAE70134D460A7E7002380F82D3297
:102390001748154E08F090FA1949144A086003B21C
:1023A0009B001C4618463360D36070E7D8F80030B5
:1023B000E8192B44002209F10F014FF0010A05F141
:1023C0007C0980F89BA1C9B283F89B21484610F094
:1023D00049F8D8F800100F314846C9B210F060F83B
:1023E00085F871A1B6E700BFF47DFF1F847DFF1F54
:1023F0000432002078420200C4950020E070FF1FE4
:10240000947DFF1F2DE9F041A84D2DED028B2B6827
:10241000DA0782B0044640F1EB81A54D2B68DB075B
:1024200040F1D78194F81032002B40F0AF81A14DDC
:10243000A14E2B6869681A78687A0F782B7A9D49C3
:10244000074202EA03021DD08B7A03F003030AB1AC
:1024500043F0040343F008039A10013BAA720D2BCA
:1024600000F26881DFE813F0540150014C01500183
:1024700066011600540154011600660150014C011A
:10248000500154018B7A03F00303002AE4D043F097
:102490000403E1E7EB68023BEB6007EE903A9FED47
:1024A000876A96ED007ADFED866AF8EEE77A87EEC6
:1024B000868A77EE267AB4EEE78AF1EE10FA06DA2B
:1024C00037EE667AB4EEC78AF1EE10FA40D87D4B4B
:1024D000DFED7D7AD3ED006AB1EE007AE6EEC77AE1
:1024E000B4EEE78AF1EE10FA40F13A81B9EE008AD3
:1024F00026EE888ADFED717A68EE277AFDEEE77ABC
:10250000C5ED037A714D724F95ED000AF5EE007A34
:1025100068EE277AF4EE407AF1EE10FAC7ED007A11
:1025200040F075819FED650A6A4967EE807A204622
:10253000FDEEE77A17EE902AFFF762FE664B86ED16
:10254000008A1B680193019B03F5FA63C4F82432E7
:10255000624A1368506819780578507A137A0542F0
:1025600001EA030100F0F380937A03F0030309B159
:1025700043F0040343F008039910013B91720D2BC3
:1025800000F2D680DFE813F0D000C800CC00C8000D
:10259000D4000E00D000D0000E00D400C800CC0043
:1025A000C800D000D568023DD5604D4E3368DA1EB4
:1025B000AA4202DCDA1CAA421DDA4A4FDFF83C814B
:1025C000EA1A3B68D8F8001048BF033203EBA203B5
:1025D000082BA8BF082323EAE37399423B6006D087
:1025E000194641480DF032FB3968C8F80010204602
:1025F000FFF7C0FC35603D4A1368506819780578CC
:10260000507A137A054201EA030100F09780937A29
:1026100003F0030309B143F0040343F008039910E6
:10262000013B91720D2B00F28780DFE803F03B370E
:10263000333785073B3B07853733373BD568023D4A
:10264000D5602B4E3068C31EAB4202DCC31CAB42CC
:102650001BDA284A281A136848BF033003EBA0008E
:10266000002840F3E280B0F5967FA8BF4FF4967043
:10267000214F10603B68DFF87C80984204D063698A
:102680009847D8F800303B60356002B0BDEC028B53
:10269000BDE8F081D5680235D560D2E7D568013D47
:1026A000D560CEE7D5680135D560CAE7807DFF1FCC
:1026B000787DFF1FD07DFF1FE07DFF1F0000C84217
:1026C0000AD7233DE87DFF1F000000001C7EFF1F8E
:1026D0005C7DFF1F80420200C4950020987DFF1F93
:1026E000207EFF1F247EFF1FD0910020A87DFF1FAA
:1026F0007C7DFF1FEC7DFF1F607DFF1F707DFF1F36
:10270000EB680233EB60C8E6EB68013BEB60C4E6C4
:10271000EB680133EB60C0E6D568013DD56044E766
:10272000D5680235D56040E7D5680135D5603CE70E
:10273000D5683AE7EB68B0E6D56882E7937A03F0AC
:10274000030300293FF46BAF43F0040367E7937A78
:1027500003F0030300293FF40FAF43F004030BE73A
:10276000334BD3ED007A27EE877AB4EEC78AF1EEC9
:1027700010FA7FF7C7AEDFED2F7A67EE277AB0EE5B
:10278000478AFDEEE77AC5ED037ABBE62A482B4D72
:10279000DFF8C4E02A4E0023002204F5BE77036070
:1027A00084F81022EA6039462648CEF800303360BB
:1027B00008F036FD244B234883ED000A394608F023
:1027C0006DFDF7EE007A37EEC00A194B83ED000A73
:1027D0002FE6284614F034FE00283FF423AE1B48B1
:1027E0000DF03CFA1A4B1860284614F02FFE19E63B
:1027F000284614F025FE00283FF40FAE13480DF0D4
:1028000029FA144B1860284614F020FE05E637EE2E
:10281000C00A94F82C220B4804F5BE7108F0C2FEE1
:10282000D7ED007AC5ED007A7CE6012020E700BFF5
:10283000747DFF1F0000C8425C7DFF1FD07DFF1F1D
:10284000E07DFF1F04320020E87DFF1FD0910020B3
:10285000247EFF1FEC7DFF1F1C7EFF1F384B1B6873
:102860000D2B00D070472DE9F041364BCFB20B4015
:1028700007F00F06002B82B006F1010639DBC41801
:10288000054694F89C317BB12F4B93F80080B8F14A
:10289000000F33D1424631462C4808F0A9FA0028EF
:1028A00038D102B0BDE8F081274B1B78DBB901229B
:1028B0003146264808F09CFA30B3012384F89C3155
:1028C000394605F17C000FF0CDFD324620492846FF
:1028D000FFF796FC1F4B1B680193019B03F5FA63FE
:1028E000C5F82432DDE7436B3246012104209847C6
:1028F000D7E7013B63F00F030133C0E7436B324678
:10290000002104209847CCE7394605F17C000FF000
:10291000C7FDC6E7394605F17C0084F89C810FF0BD
:10292000BFFD32460C492846FFF76AFC094B1B687D
:102930000093009B03F5FA63C5F82432B1E700BFAA
:10294000E070FF1F0F000080FD67002004320020B0
:102950009C420200C49500208C42020010B5013A4E
:102960008CB00446032A6BD8DFE802F052371D0210
:1029700040F6B833994200F086806AD941F2883334
:10298000994200F0AA8041F65833994264D15F49D8
:10299000FEF71EFE5E4B1B680B930B9B03F5FA6361
:1029A000C4F8243253E040F6B833994277D050D976
:1029B00041F28833994200F09C8041F658339942A5
:1029C0004AD15449FEF704FE514B1B680893089BFB
:1029D00003F5FA63C4F8243239E04F4A40F6B833BD
:1029E000994212683DD034D941F28833994262D07D
:1029F00041F6583399422FD14849FEF7E9FD444B3F
:102A00001B680593059B03F5FA63C4F824321EE0A6
:102A10004348019109F0C8F8019940F6B83399424A
:102A20002BD016D941F28833994250D041F6583311
:102A3000994211D102463B492046FFF7E1FB06E0EF
:102A40003949FEF76BFC3A21384816F01BFB0CB0F5
:102A500010BDB1F57A7FFAD02046FEF70FFD0CB01D
:102A600010BD3349FFF7CCFB294B1B680393039B35
:102A700003F5FA63C4F82432E9E702462C492046FC
:102A8000FFF7BEFBE3E72B49FEF7A2FD204B1B68D7
:102A90000993099B03F5FA63C4F82432D7E7264962
:102AA000FEF796FD1A4B1B680693069B03F5FA6327
:102AB000C4F82432CBE72149FFF7A2FB144B1B6873
:102AC0000493049B03F5FA63C4F82432BFE702467B
:102AD0001B492046FFF794FBB9E71A49FEF778FD3A
:102AE0000B4B1B680A930A9B03F5FA63C4F8243264
:102AF000ADE71549FEF76CFD054B1B680793079B77
:102B000003F5FA63C4F82432A1E700BF5043020082
:102B1000C49500201C430200DC70FF1FE842020045
:102B2000A8680020C842020058430200684302001F
:102B3000A842020028430200F8420200D8420200E4
:102B4000B8420200404302000C430200B1F57A7F14
:102B500038B504D8B0F8224294B3002038BD40F60E
:102B6000B834A14212D8B0F82212B1F57A7FF4D16C
:102B7000A0F822422146FFF7F1FE0821284816F06E
:102B800081FA284813F0B0FE002038BD41F28835A4
:102B9000A94222D941F65834A142B0F822122ED8C7
:102BA000A942DAD1A0F822422146FFF7D7FE04213C
:102BB0001D4816F067FA1B4813F096FE002038BD3A
:102BC0004FF47A72A0F822220B21184816F05AFA14
:102BD000144813F089FE204638BDB0F82212A142F5
:102BE000BBD1A0F822522946FFF7B8FE06211048B3
:102BF00016F048FA0B4813F077FE012038BDA142C9
:102C0000ABD10024A0F822422146FFF7A7FE0821FD
:102C1000084816F037FA034813F066FE204638BD20
:102C2000B04302003C72FF1FC4430200A4430200F1
:102C3000BC430200CC43020070B51A4D82B08DED4A
:102C4000010A0C460646FEF719FC2846022200211E
:102C50000FF094F920461BF0B3FF214602462846A8
:102C600013F006FE20461BF0ABFF0122C1B228463E
:102C70000FF084F99DED010A10EE100A1AF030FBF6
:102C800041EC100B0221284613F086FE20461BF073
:102C900097FF0630142828BF1420C6F8140202B08B
:102CA00070BD00BF007EFF1FB0B588B002AF044604
:102CB000019300920B46174A174D152138461BF019
:102CC000DDFC38461BF07CFFD4F81432C4F8140243
:102CD00098420146B8BF194601F1080323F00703E3
:102CE000ADEB030D02AC3B460C4A013120461BF014
:102CF000C5FC2846022200210FF040F920461BF0B7
:102D00005FFF21460246284613F0B2FD1837BD4644
:102D1000B0BD00BFD8430200007EFF1F5842020032
:102D20002DE9F04190F8103282B00546002B40F0BA
:102D300082804E4F4E4E3B6879681A78787A0C78CC
:102D40003B7A4A49044202EA030215D08B7A03F027
:102D500003030AB143F0040343F008039A10013B54
:102D6000BA720D2B65D8DFE803F058605C60640F21
:102D700058580F64605C60588B7A03F00303002A94
:102D8000ECD043F00403E9E7FC68023CFC603368E4
:102D9000DA1CA24202DB033BA3423BDD354B1B782E
:102DA000C3EB83739B00A34204DC334B1B789B0073
:102DB000A34201DAFB601C46304FDFF8D0803A684E
:102DC000002C2346B8BFE31C9B109342C8F8003088
:102DD0001FD09A1AD2B295F82C32294805F5BE7147
:102DE00008F05CFBD8F80080C7F8008001466A460E
:102DF0002846FEF73BFA4246034622492846FFF79B
:102E000053FF214B1B680193019B03F5FA63C5F83F
:102E10002432346002B0BDE8F081FC680134FC600B
:102E2000B5E7FC680234FC60B1E7FC68013CFC607B
:102E3000ADE7FC68ABE715490C4F104A0C4E104843
:102E4000002305F5BE740B60FB6021461360336000
:102E500008F086F9074B21461870094808F0B0F9C8
:102E6000054BC0F17F00187065E700BF847DFF1F30
:102E70006C7DFF1FB87DFF1F687DFF1F587DFF1F02
:102E800004320020E4430200C4950020647DFF1F4B
:102E9000104B1B680D2B10B5044608D8012202FA0E
:102EA00003F343F2B6321A404AB95B050ED420460A
:102EB000FFF736FF2046BDE81040FFF7A3BAFFF743
:102EC000D9F92046BDE81040FFF79CBABDE8104094
:102ED000FDF7A2BCE070FF1FF0B58DB01D4D9DF851
:102EE00048409DF84CE09DF85070CDF80CE001345E
:102EF000019306464B1C00920294049707A8164AB9
:102F0000164C14211BF0BAFB2846022200210FF0B8
:102F100035F807A81BF054FE07A90246284613F00F
:102F2000A7FC07A81BF04CFEC6F81402204613F0BD
:102F3000DBFC14210A4816F0A5F807A81BF040FE98
:102F4000014607A816F09EF8204613F0CDFC0DB000
:102F5000F0BD00BF007EFF1FF84302003C72FF1F60
:102F60001044020008B50322112109480FF006F8A9
:102F7000084B1B7801222BB907490548BDE80840DA
:102F800013F076BC05490248BDE8084013F070BC58
:102F9000007EFF1F3A9200206C420200284402008B
:102FA00010B50446032290F874110B480EF0E6FFAA
:102FB000D4F80C22D4F87431D35C01222BB9074920
:102FC0000548BDE8104013F053BC05490248BDE870
:102FD000104013F04DBC00BF007EFF1F6C4202008A
:102FE0002C4402002DE9F04F0446102300F1400765
:102FF00020268FB0C36304F15E08A663384600251F
:103000000FF0ACF940460FF0A9F942463946049555
:1030100003950295019500952B4604F17C000FF075
:103020009FF9C4F800611A26C4F8E460192604F573
:103030008473C4F8E8601B264FF0250C4FF0240E73
:103040001E2107931F220523C4F8EC604FF0420BAA
:103050004FF0430A4FF027094FF0260818271D208C
:103060001C26C4F8D8C0C4F8DCE0C4F80431C4F8A5
:10307000F810C4F8FC20C4F8A0B0C4F8A4A0C4F8A8
:10308000D09004F5887AC4F8D480C4F8E070C4F80D
:10309000F060C4F8F400079813F030F9504613F0CC
:1030A0002DF904F58C7904F590721646484613F014
:1030B00025F904F5947230461746089613F01EF968
:1030C00004F598710E463846099713F017F904F580
:1030D0009C7130460F460A9613F010F904F5A07063
:1030E000064638460B9713F009F904F5A470074615
:1030F000304604F5A87B0C9613F000F9384604F529
:10310000AC780D9713F0FAF8584613F0F7F804F579
:10311000B077404613F0F2F804F5B476384613F071
:10312000EDF8304613F0EAF8FF22012384F82C2250
:1031300084F82D3284F8705184F8715184F810525B
:1031400084F81152C4F81452C4F81852C4F81C522E
:1031500084F82052A4F822524A21714815F092FFB7
:10316000704813F0C1FB2B466F48042214210EF067
:1031700029FF0A226D496C4813F07AFB94F8A000ED
:10318000022114F00BFC94F8A400022114F006FCB8
:1031900094F8D400022114F001FC94F8D00002212C
:1031A00014F0FCFB94F8D800022114F0F7FB94F81B
:1031B000DC00022114F0F2FB94F8E000022114F08C
:1031C000EDFB94F8E400022114F0E8FB94F8E80029
:1031D000022114F0E3FB94F8EC00022114F0DEFB72
:1031E00094F8F000022114F0D9FB0798D4F8D41019
:1031F00013F08CF85046D4F8D01013F087F84846F6
:10320000D4F8D81013F082F80898D4F8DC1013F032
:103210007DF80998D4F8E01013F078F80A98D4F8FB
:10322000E41013F073F80B98D4F8E81013F06EF86C
:103230000C98D4F8EC1013F069F80D9DD4F8F01048
:10324000284613F063F80798B4F8041113F074F8E3
:103250005046B4F8041113F06FF84846B4F804115E
:1032600013F06AF80898B4F8041113F065F8099897
:10327000B4F8041113F060F80A98B4F8041113F0CC
:103280005BF80B98B4F8041113F056F80C98B4F8E6
:10329000041113F051F82846B4F8041113F04CF857
:1032A00094F8F400022114F079FB94F8F80002215C
:1032B00014F074FB94F8FC00022114F06FFB94F8F6
:1032C0000001022114F06AFB5846D4F8F41013F000
:1032D0001DF84046D4F8F81013F018F83846D4F822
:1032E000FC1013F013F83046D4F8001113F00EF868
:1032F0005846B4F8041113F01FF84046B4F804110E
:1033000013F01AF83846B4F8041113F015F83046E3
:10331000B4F8041113F010F820460FB0BDE8F08F98
:10332000304402003C72FF1F007EFF1F7C440200FD
:1033300070B516460C460546C9B203221F480EF06A
:103340001DFEFEB92B1993F87C61D5F874317EB956
:103350009C422BD021461A4807F086FE012818D936
:10336000334601460A221548BDE8704013F0CCBA36
:103370009C424FF0010213D012491048BDE8704042
:1033800013F076BA012210490C48BDE8704013F0E2
:103390006FBA01220D490948BDE8704013F068BAC0
:1033A0000B490648BDE8704013F062BA0122094992
:1033B0000248BDE8704013F05BBA00BF007EFF1FFB
:1033C000043200202C440200284202006C42020019
:1033D000884402001C4F020070B5441800220F29D7
:1033E000054684F8EC211FD901F00F060C46314642
:1033F000FFF79EFF12211B4815F044FE31461A4884
:1034000013F0C2FA184813F06FFA95F82C32A34261
:1034100004BFFF2385F82C32144B1B680A2B09D0FC
:103420000B2B00D070BD214605F17C00BDE870403B
:103430000FF036B82846FEF721F895F820220C4800
:103440000023012AC5F8CC3004BF85F82032A5F846
:103450002232314609F07AFB2846BDE87040FDF77C
:103460006FBC00BF8C4402003C72FF1FE070FF1F66
:10347000A868002070B50D461646D0F878110022D5
:103480000446FFF755FF0322E9B209480EF076FD26
:10349000012236B90749064813F0EAF9C4F8785111
:1034A00070BD0549024813F0E3F9C4F8785170BDC6
:1034B000007EFF1F1C4F020088440200D0F80C322F
:1034C00070B55D5CC0F87411103104461646C9B27F
:1034D0007C309DB10EF0E4FF0122D4F87411204637
:1034E000FFF7C8FFD4F8743104EB83030122C3F85B
:1034F000AC6184F8702184F8712170BD0EF0B2FFC8
:103500002A46D4F874112046FFF7B4FFEAE700BF5B
:103510002DE9F041012186B0054648480EF052FAE7
:103520000021122014F03AFA0121132014F036FA87
:103530000121132014F01EFA0B26122014F020FA99
:1035400030B9013E01464FF496744FF0130067D135
:1035500075217422732305F17C0677277624029166
:1035600001920093304672230497039471227021D4
:103570000FF08EF8AB6B002B09DD0024214630469E
:103580000EF08EFF0134AB6BE4B29C42F6DB3046AA
:103590000FF0D8F805F29B1305F2AB11002203F8E7
:1035A000012F8B42FBD16FF4BD76761B05F27B14A5
:1035B00005F28B180027311904F8017F00222846F4
:1035C000FFF7B6FE4445F6D105F5D47305F5F47062
:1035D000002143F8041F83424FF00002F9D1184B39
:1035E00085F8112201240622284685F810421A6027
:1035F000FEF710FA2846FEF7BBFA12480CF02CFB37
:1036000001462846FEF78AFC0E480CF027FB0146CF
:103610002846FEF7AFFC85F8704106B0BDE8F081A2
:1036200014F0A8F92346013BFDD10121132014F029
:10363000A1F92346013BFDD17FE700BF5471FF1F75
:10364000E070FF1FD091002030B5D0F8B43087B0C3
:103650000446A3B1374A126802920299C91A0ED0E1
:10366000354D2B680222013380F820225AD00222E5
:103670002046FFF76BFA002847D107B030BDD4F8D9
:10368000CC30ABB12B4A126803920399C91A0FD000
:10369000012284F820222046FFF758FA0028ECD0B7
:1036A000264808F081FA0146244808F06DFBE4E75B
:1036B000D4F8BC308BB11F4A126804920499C91A1D
:1036C0000BD0032284F820222046FFF73FFA00287F
:1036D000D3D02046FFF71CFFCFE7D4F8AC30002B47
:1036E000CBD0144A126805920599C91AC5D0042294
:1036F00084F820222046FFF729FA0028BDD0104880
:1037000007F038FAE3699847B7E729680C4806F0EC
:10371000E7FE20462968FEF78FF84FF0FF332B6055
:1037200007B030BD0648019107F0B8F8019928604C
:103730009DE700BFC4950020DC70FF1FA868002033
:10374000043200202DE9F04F00F58C7585B0044659
:10375000284612F0F3FD10B905B0BDE8F08F2846F9
:1037600012F032FE0028F7D0894E3368013B0A2B55
:1037700052D8DFE803F0182E51515151510D0D511F
:103780000600844D2B78002B4FD1E3699847E3E77F
:10379000814A1378204683F001031370FFF7E2FBA0
:1037A00005B0BDE8F08F7D4806F0D6FF002849D06F
:1037B0007A4807F073F87A4902462046FEF720FD62
:1037C000784B1B680193019B03F5FA63C4F824321C
:1037D000C2E7754D29684B1C00F0C2806F4806F0A7
:1037E0007FFE2A6871492046FEF70AFD6D4B1B6873
:1037F0000393039B03F5FA63C4F8243201274FF0C7
:10380000FF3320462B603760FEF704F92046FEF7B1
:10381000AFF984F810729FE794F81132032B00F28D
:10382000AA80DFE803F076593F2001272046376061
:10383000FEF7F0F82046FEF79BF9002384F810729B
:103840002B7089E7554807F029F859490246204668
:10385000FEF7D6FC534B1B680293029B03F5FA63F9
:10386000C4F8243278E704F28B196FF4BD77C846A8
:103870003F1B04F27B154FF0010A791915F8013F3F
:1038800008F8013F002285F800A02046FFF750FD10
:103890004D454FF0010BF0D1022384F810B284F8AB
:1038A000113253E06FF4BD773F1B04F27B1504F235
:1038B0008B1A4FF0000979194FF0000805F8019FA5
:1038C00042462046FFF734FD5545F4D1012384F8E4
:1038D000118284F8103239E004F28B196FF4BD774D
:1038E000C8463F1B04F27B15791915F8013F08F80B
:1038F000013F83F001032B7000222046FFF718FDE3
:10390000A945F1D10322012384F8112284F8103251
:103910001CE06FF4C578C4EB080804F28B1504F2C0
:103920007B1704F29B1908EB050115F8013F83F0A2
:10393000010307F8013F00222046FFF7F9FCA945E3
:10394000F1D1012384F8113284F810323368062B48
:103950007FF402AF04F5BE712046FDF795F9FBE652
:10396000012520463560FEF755F82046FEF700F9A0
:1039700084F81052F0E631210E4815F083FB94F8DC
:1039800011120D4813F000F80B4812F0ADFFDDE7FF
:10399000E070FF1F942F00203A9200200432002094
:1039A000A0440200C4950020DC70FF1FC044020048
:1039B000B0440200D04402003C72FF1F70B50446C0
:1039C0000D4696B07C300EF04DFD6319012283F850
:1039D000EC210F2D00F23F81DFE815F024004000BC
:1039E0005C00780094009D00A600AF00F100CB00C1
:1039F000DE00B8002A01040117011000B949204671
:103A0000FDF7E6FDB84BB9481B681293129B03F50E
:103A1000FA63C4F8243204F5BE71042207F07CFC7A
:103A200016B070BDB24B1A68511E012940F2D08108
:103A30000A2A00F0CD812046AE49FDF7C9FDAA4B08
:103A4000AA481B680293029B03F5FA63C4F8243268
:103A500004F5BE71002207F085FCE1E7A44B1A686B
:103A6000511E012940F2C0810B2A00F0BD81204681
:103A7000A149FDF7ADFD9C4B9C481B680193019B40
:103A800003F5FA63C4F8243204F5BE71012207F08D
:103A900069FCC5E7964B1B68012B00F06C81083B65
:103AA000012B40F2688120469449FDF791FD8E4B31
:103AB0008E481B680493049B03F5FA63C4F8243210
:103AC00004F5BE71022207F04DFCA9E7884B1B6884
:103AD000012B00F06881083B012B40F264812046F5
:103AE0008749FDF775FD804B80481B680693069B50
:103AF00003F5FA63C4F8243204F5BE71032207F01B
:103B000031FC8DE77F4B1B78002B00F02781A369E8
:103B10000120984784E77B4B1B78002B00F0118134
:103B2000A369022098477BE7764B1B78002B00F0B7
:103B3000FB80A3690320984772E7724B1B78002B28
:103B400000F0C280A3690420984769E720466E49C7
:103B5000FDF73EFD644B65481B680E930E9B03F515
:103B6000FA63C4F8243204F5BE71032207F01AFC8C
:103B700056E720466549FDF72BFD5B4B5B481B680C
:103B80000C930C9B03F5FA63C4F8243204F5BE7160
:103B9000012207F007FC43E720465D49FDF718FDC9
:103BA000514B52481B680D930D9B03F5FA63C4F803
:103BB000243204F5BE71022207F0F4FB30E7204600
:103BC0005449FDF705FD484B48481B680B930B9B78
:103BD00003F5FA63C4F8243204F5BE71002207F03D
:103BE000E1FB1DE720464C49FDF7F2FC3E4B3F4808
:103BF0001B681093109B03F5FA63C4F8243204F594
:103C0000BE71022207F088FB0AE720464349FDF710
:103C1000DFFC354B35481B681193119B03F5FA63A4
:103C2000C4F8243204F5BE71032207F075FBF7E6F1
:103C300020463B49FDF7CCFC2B4B2C481B680F93CF
:103C40000F9B03F5FA63C4F8243204F5BE71012218
:103C500007F062FBE4E60F2D7FF6E2AE05F00F06FB
:103C6000314601222046FFF763FB94F82C32AB4229
:103C7000636A88BF84F82C5213B1A5F110009847ED
:103C80001B4B1B68013B0C2B00F2E78001A252F892
:103C900023F000BFED3D0000FF3D00005B3E000053
:103CA000093E0000513E00005B3E0000473E000020
:103CB000ED3D00003D3E0000273E0000213A00009F
:103CC0001D3E0000133E000016492046FDF780FC13
:103CD000054B1B680A930A9B03F5FA63C4F8243268
:103CE00030E700BFFC450200C495002004320020EC
:103CF000E070FF1F10450200044502003845020035
:103D000064450200FD670020D0450200B84502006E
:103D1000C4450200AC450200E4450200F045020043
:103D2000DC450200A04502005F492046FDF750FC3B
:103D30005E4B1B680993099B03F5FA63C4F82432B0
:103D4000F7E65B492046FDF743FC584B1B68089398
:103D5000089B03F5FA63C4F82432E1E6554920468E
:103D6000FDF736FC514B1B680793079B03F5FA637D
:103D7000C4F82432CBE6504A50491378002083F02F
:103D8000010313700870002B00F088804C49204616
:103D9000FDF71EFC454B1B680393039B03F5FA6379
:103DA000C4F824323CE6454B1A78002A6DD0424DC7
:103DB0004449002220462A701A70FDF709FC3B4B4B
:103DC0001B680593059B03F5FA63C4F8243227E6C4
:103DD0000B2220461A60FDF71DFE2046FDF7C8FEA7
:103DE000012384F810321BE60A22F2E7324B364AEE
:103DF0001B784FF0FF311160002B7FF411AE294684
:103E00002046FCF70DFF0BE629462046FCF750FE46
:103E100006E629462046FEF721FD01E62946204612
:103E2000FEF748F8FCE529462046FCF7F9FE1F4B53
:103E30001B681393139BC4F8CC30F1E52946204648
:103E4000FDF758FDECE529462046FCF78DFEE7E539
:103E500029462046FCF75AFEE2E529462046FCF7B3
:103E6000B1FE31462046FDF7DBFB104B1A68159278
:103E7000159A1B681493149B02F5FA6203F5FA6312
:103E8000C4F82822C4F82432CAE50B480F4902704E
:103E9000012220461A70FDF79BFB90E70C49204653
:103EA000FDF796FB76E700BF90450200C495002021
:103EB0008045020070450200FD670020FC6700207D
:103EC0001C45020044450200DC70FF1F54450200FF
:103ED0002C450200F8B5344C2368DB07054646D56F
:103EE000324E13F087FD3368304A984234D900F5DA
:103EF000EA4395F8701130331360002947D105F17A
:103F00007C0738460EF036FB18B3AB6B002B24DD74
:103F10000026344605E00134AB6BE4B29C422646F1
:103F20001BDA214638460EF05BFA2E4430B196F883
:103F3000EC31214628460BB9FFF740FD21463846B3
:103F40000EF05EFA0028E6D021462846FFF744FA34
:103F5000E1E795F871311BB9F8BD012385F871319E
:103F600038460EF0EFFB002385F87131F8BD20468E
:103F700013F066FA0028B3D013F03CFD0B4E00F5A9
:103F8000EA4330332046336013F060FAA9E7014674
:103F900005F17C072846FCF74FFD38460EF0EAFA9B
:103FA0000028D6D0B1E700BFFC7DFF1F287EFF1F91
:103FB00010B5002303604360836004461621044863
:103FC00015F060F8034812F08FFC204610BD00BFCA
:103FD0000C4602003C72FF1F10B50446006838B161
:103FE000836A23602C2113F06DFA20680028F7D132
:103FF000204610BD10B50446006838B1836A2360BE
:104000002C2113F05FFA20680028F7D100232360E9
:104010006360A36010BD00BF38B54368002B6BD050
:104020009A6A934204460D4618BF012066D0A368E1
:1040300023B1226812B19B6A9A4274D06368444AE1
:104040001B68934202DC01332DD038BD2A4641491A
:104050004148FEF78FF83121404815F013F8284603
:104060001AF0AEFD0146284615F00CF83C4812F057
:104070003BFC07213B4815F005F86168384812F011
:1040800083FC0E21384814F0FDFF6368344819683A
:1040900012F07AFC324812F027FC63681B68013387
:1040A0004FF00000D1D12A4630492B48FEF762F884
:1040B00034212F4814F0E6FF28461AF081FD01460E
:1040C000284614F0DFFF264812F00EFC0721254891
:1040D00014F0D8FF6168224812F056FC0E212248E5
:1040E00014F0D0FF63681E48196812F04DFC1C489C
:1040F00012F0FAFB002038BD012038BD0A461648F0
:104100001C49FEF737F826211B4814F0BBFF284650
:104110001AF056FD0146284614F0B4FF104812F07C
:10412000E3FB002083E72A4614490B48FEF722F8F8
:104130003921134814F0A6FF28461AF041FD014624
:10414000284614F09FFF064812F0CEFB002075E7CA
:104150008096980018470200CC2F002030470200BC
:104160003C72FF1F644702006C4702007C4702005C
:104170009447020094460200A4460200CC46020086
:10418000DC46020003684360704700BF10B5446816
:104190000CB1206810BD03490348FDF7BFF8204665
:1041A00010BD00BFCC470200CC2F002010B54468E2
:1041B0000CB1207910BD03490348FDF7AFF8204644
:1041C00010BD00BFE0470200CC2F002070B54C6846
:1041D0000023064603704CB108340FCC35460FC59A
:1041E00094E80F0085E80F00304670BD024903488F
:1041F000FDF794F8F8E700BFF4470200CC2F002049
:104200004068003018BF0120704700BF70B50446F9
:1042100016213648666814F035FF354812F064FB05
:104220000721344814F02EFF6168314812F0ACFBCE
:104230000821314814F026FF21682D4812F0A4FB14
:1042400008212E4814F01EFFA168294812F09CFB9B
:1042500023686360642538E012F046FB0E2128488D
:1042600014F010FF63682248196812F08DFB0D21CD
:10427000244814F007FF61681D48083112F084FBE0
:104280000921214814F0FEFE63681948197912F0DB
:104290007BFB0B211D4814F0F5FE6168144812F0F9
:1042A00073FB08211A4814F0EDFE63681048996A00
:1042B00012F06AFB17492046FFF7AEFE40B12046D8
:1042C00000F0B4F8013D08D063680948002BC3D161
:1042D000074812F009FB666070BD0F490F48FDF7F3
:1042E0001DF8034812F000FB666070BD0C48020028
:1042F0003C72FF1F6447020024480200304802005D
:104300006C4702003C4802004C480200584802003A
:10431000644802007048020078480200CC2F002058
:10432000036810B504466BB14268934204BF002293
:1043300042609A6A8AB100210260996218462C2173
:1043400013F0C0F80A492046FFF766FE00B110BD21
:104350002046BDE81040FFF759BF81688B4208BF77
:1043600082602C21184613F0ADF800232360E9E7A2
:104370008848020038B50368044673B11A68914250
:104380000D4603DC0AE01A68AA4207DA2046FFF766
:10439000C7FF23686360002BF5D1002363600549E4
:1043A0002046FFF739FE00B138BD2046BDE8384051
:1043B000FFF72CBF9848020082B02DE9F04106AC0F
:1043C00007462C2044F8043F0D46904613F076F83B
:1043D0002C220021064619F0F5FE0FCCB060F160EA
:1043E000326173610FCCBC68356086F80480B061BF
:1043F000F1613262736214B1A64218BFA6627B6893
:10440000BE607BB13B685BB107493846FFF704FEED
:1044100010B93846FFF7FAFEBDE8F04102B0704728
:104420003E60F1E77E60EDE7C4480200436810B5E6
:10443000044673B19A6A934213D062600C492046D5
:10444000FFF7EAFD00B110BD2046BDE81040FFF7C0
:10445000DDBE1921074814F015FE074812F044FA92
:10446000ECE706490648FCF759FF63689A6AE4E7F7
:1044700000490200E44802003C72FF1FD0480200DD
:10448000CC2F00200022026042608260704700BF93
:1044900038B504461721094814F0F4FD23685BB1D0
:1044A0000025DA6822601846DD6010219D6013F057
:1044B00009F82368002BF4D1204638BD18490200C2
:1044C00038B5436804460D4683B1DA68934218BF95
:1044D000012036D09A689A4248D0E3682BB1DA6856
:1044E000934219D09A689A4202D038BD0120F4E76D
:1044F00028492948FCF712FF1F21284814F0C2FD63
:10450000274812F0F1F928461AF05AFB01462846CE
:1045100014F0B8FD0020E8E722491F48FCF7FEFE32
:104520002B21214814F0AEFD28461AF049FB014624
:10453000284614F0A7FD1A4812F0D6F9E3680020C7
:10454000D0E71A491448FCF7E9FE2321184814F073
:1045500099FD28461AF034FB0146284614F092FDD6
:104560000F4812F0C1F963680020B3E711490A4807
:10457000FCF7D4FE1721104814F084FD084812F00F
:10458000B3F928461AF01CFB0146284614F07AFDC0
:104590000020A2E7CC490200CC2F0020E049020015
:1045A0003C72FF1F8C490200A04902003049020002
:1045B00040490200644902007449020010B50749ED
:1045C0000446FFF77DFF20B163680BB1DB686360D1
:1045D00010BD204600F004F8F6E700BF00490200D5
:1045E00038B500210446434814F04CFD424812F00F
:1045F0007BF90D21414814F045FD3F4812F074F954
:1046000007213F48656814F03DFD21683A4812F0E3
:10461000BBF906213B4814F035FD6168364812F0BD
:10462000B3F90721384814F02DFDA168324812F083
:10463000ABF90A21354814F025FDE1682E4812F047
:10464000A3F92D4812F050F9204600F0DFF8636816
:104650002BB945E0FFF7B2FF6368002B40D005217E
:104660002B4814F00FFD6368234819680A220023C1
:1046700012F04AF90421274814F004FD63681E482B
:1046800019790A22002312F03FF90421224814F07C
:10469000F9FC6368184859790A22002312F034F9AA
:1046A00005211E4814F0EEFC6168134812F06CF905
:1046B00006211B4814F0E6FC63680F48D96812F025
:1046C00063F90D4812F010F96368DA6893422046E6
:1046D000C0D11A21134814F0D5FC074812F004F990
:1046E0000021044814F0CEFC034812F0FDF8656088
:1046F00038BD00BFE44102003C72FF1F004A0200C7
:10470000104A0200184A0200204A0200284A020009
:10471000344A02003C4A0200444A02004C4A020069
:10472000544A02005C4A020038B50446C0680028BA
:1047300038D060602368834226D0A368834216D0B5
:104740008568C368EB60C36882689A60102112F0C4
:10475000B9FE65602B46E36014492046FFF7B0FEC2
:1047600000B138BD2046BDE83840FFF739BF826848
:104770001AB1826862600021D1601846102112F0DF
:10478000A1FE6368A360E6E7C268626062B10021CF
:1047900091600022DA601846102112F093FE6368DF
:1047A0002360D8E76068C5E7A260F2E7784A0200B4
:1047B0002DE9F84304461020894690461F4612F022
:1047C0007DFEA66800254560856080F80490C56080
:1047D00080F8058007600EB1F06086606368A060B5
:1047E0007BB123685BB108492046FFF769FE08B139
:1047F000BDE8F8832046BDE8F843FFF7F1BE20602E
:10480000F1E76060EDE700BF844A020010B505499A
:104810000446FFF755FE10B92046FFF7E1FE236876
:10482000636010BD8C4A0200C3681879704700BFEE
:10483000C3685879704700BFC3681868704700BFE5
:10484000C068003018BF0120704700BF10B505498F
:104850000446FFF735FE10B92046FFF7C1FE236876
:10486000E36010BD944A020010B507490446FFF703
:1048700027FE20B1E3680BB1DB68E36010BD204682
:10488000FFF7AEFEF6E700BFA04A020038B50A4DBA
:10489000002304460360436029464FF4A0720830A9
:1048A00012F0ECFC05F5A07104F5A4704FF48072D1
:1048B00012F0E4FC204638BDC44A020010B490E86F
:1048C0001800013400EB031394FBF1F202FB1141D9
:1048D0000B44416093F848015DF8044B704700BFFA
:1048E00010B490E8180094FBF1F200EB031302FB04
:1048F00011410B44416093F848015DF8044B704747
:10490000436810B40468194400EB041091FBF2F3FF
:1049100003FB121250FA82F25DF8044B92F8480140
:10492000704700BF406801308842B4BF00200120BA
:10493000704700BF054B0B40002B01DB0360704745
:10494000013B63F00F030133036070470F000080E9
:10495000036803EB830300EB83000830704700BF5C
:1049600000234360704700BF704700BF2DE9F0414E
:104970008046064600F16007337D5BB13546002472
:1049800055F8040F013418B1182112F09BFD337D46
:10499000A342F5DC1836BE42EED14046BDE8F081B8
:1049A00001EB410300EBC30380F86810436601206C
:1049B000704700BF38B5044660B101EB410110EB10
:1049C000C1050DD002EB420014EBC0040ED06A7595
:1049D000012038BD08490948FCF7A0FC204638BD35
:1049E00007490648FCF79AFC284638BD05490348A4
:1049F000FCF794FC204638BD044D0200CC2F00206B
:104A0000184D02002C4D0200436E0BB11960704727
:104A100080F868300346406619607047416E70B593
:104A2000054621B30B7D032B1BD8182012F046FD41
:104A3000044600F07BFA6B6E1E1D25D0197D31B146
:104A400053F82100B8B100F09DFA6B6E197D03EBAD
:104A50008102013154602046197500F06FFA20463A
:104A600070BD0E490E48FCF759FC002070BDFFF7E1
:104A700097FF38B970BD0B490948FCF74FFC6B6EC6
:104A8000197DE4E7696ECDE707490548FCF746FC68
:104A90002046182112F016FD304670BD404D020030
:104AA000CC2F0020644D0200504D02002DE9F04350
:104AB000044685B0184803F0B5FB0E21174814F0E2
:104AC000E1FA174811F010FFE06EE8B100F094FA37
:104AD000636EE06E93F8009094F8685094F87460F8
:104AE00094F8707000F03EFA8046E06E00F03CFAF8
:104AF0004B4602908DE88001324629460948FEF770
:104B0000EBF905B0BDE8F0830749064805B0BDE8FC
:104B1000F043FCF703BC00BF00680020744D0200A6
:104B20003C72FF1FCC2F0020844D020070B504465C
:104B30003321644814F0A6FAE06E00F013FA002363
:104B40000A220146604811F0DFFE01215F4814F09F
:104B500099FAE06E00F008FA002301460A225A484A
:104B600011F0D2FE09215A4814F08CFA00230A22CF
:104B700094F87010544811F0C7FE1421554814F0F1
:104B800081FAE06E00F004FA002301460A224E4842
:104B900011F0BAFE4C4811F0A7FEE36E002B7DD059
:104BA000656E002D75D0184600F0F4F9054658B32F
:104BB0001921494814F066FAE06E00F0E9F9102175
:104BC0000646464814F05EFA002331460A223E4863
:104BD00011F09AFE636E1B7DB34221D9212140481A
:104BE00014F050FA636E84F8706003EB8606706808
:104BF000E06600F0C9F921213A4814F043FA32483E
:104C000011F072FE284670BDE06E00F0F1F93D2112
:104C1000354814F037FA2C4811F066FE284670BD6E
:104C20001821324814F02EFA636E626F1B689A42A4
:104C30001FDB10212E4814F025FA636E5E7DFF2ED7
:104C400032D006EB4606132104EBC606294814F0C1
:104C500019FA66661521284814F014FA636E0022CA
:104C600084F870205868E0660123636700F08CF9CF
:104C7000C1E71A21214814F005FA002384F87030A6
:104C8000626E636F5068E0660133636700F07CF921
:104C9000B1E71B491B48FCF741FBBFE71A4919481C
:104CA0001D46FCF73BFBB9E70021184814F0EAF970
:104CB000054811F019FE1321154814F0E3F9236E8D
:104CC000984798E7984D02003C72FF1FCC4D0200B8
:104CD000D04D0200DC4D02001C4E0200384E020096
:104CE0004C4E0200FC4E0200204F0200704E0200AB
:104CF000A84E0200BC4E0200D04E02008C4E0200B4
:104D0000084E0200CC2F0020F44D0200E4410200C6
:104D1000E84E02002DE9F043436E044685B0C06EB4
:104D200093F8009094F8686094F8747094F8708028
:104D300000F018F90546E06E00F016F94B460290B7
:104D4000CDF800803A46314601950348FEF7C4F895
:104D500005B0BDE8F08300BFCC2F002010B51421B2
:104D60000446094814F08EF9084811F0BDFDE06EC4
:104D700018B1BDE8104000F03FB905490548BDE84D
:104D80001040FCF7CBBA00BF604F02003C72FF1F1F
:104D9000784F0200CC2F002003460022586680F88E
:104DA000682038B1406883F870200122D8665A67BD
:104DB00000F0EAB801490248FCF7B0BA8C4F020093
:104DC000CC2F0020F8B5564E564D0166044600F132
:104DD000150132602B607530FF2200230A7001F844
:104DE000013C41F8153C183181424FF00005F5D1E6
:104DF0004D4B656684F86850E56684F870506567C9
:104E0000012620461E70FFF709FE074690B12B468B
:104E10002A46314600F09CF82B462A4602213846A5
:104E200000F096F83146384600F0A2F838460221E4
:104E300000F09CF82046FFF7F1FD054690B10122F5
:104E40001146002300F084F80023012202212846A5
:104E500000F07EF80121284600F08AF82846022159
:104E600000F084F82046FFF7D9FD054690B10023F5
:104E70000222012100F06CF802221146002328468C
:104E800000F066F80121284600F072F82846022159
:104E900000F06CF801212046FFF7B6FD0122002149
:104EA0002046FFF787FD01212046FFF779FD02210B
:104EB0002046FFF7A9FD2046FFF7B0FD054690B15B
:104EC00000230322012100F043F8002303220221E2
:104ED000284600F03DF80121284600F049F8284610
:104EE000022100F043F82046FFF798FD054690B1F7
:104EF00000230422012100F02BF8002304220221C8
:104F0000284600F025F80121284600F031F828460F
:104F1000022100F02BF82046BDE8F840FFF73CBF27
:104F2000307EFF1F2C7EFF1F347EFF1FFF220021DB
:104F3000017381608273C273026170470023FF2294
:104F4000037183704371C37002704270704700BF79
:104F500030B40139C9B244180125A37025714254F7
:104F600030BC7047007D7047007A704781607047A1
:104F70004B1E50FA83F31B7913B141730120704724
:104F8000184670478173704700234361704700BF24
:104F9000807B7047426983689A421DD01ADD10B544
:104FA0000E4904460E48FCF7B9F912210D4814F0D9
:104FB00069F861690C4811F0E7FC14210B4814F002
:104FC00061F8A168084811F0DFFC074811F08CFC7B
:104FD000012010BD0020704701207047F44F0200EF
:104FE000CC2F0020085002003C72FF1F1C50020012
:104FF0004369013343617047F8B5112106466B4898
:1050000014F040F86A4811F06FFC307B002878D12A
:1050100034460125237967480821002B5ED014F01F
:1050200031F82946624811F0AFFC2378FF2B3AD0C3
:105030000621614814F026F800230A2221785C48F2
:1050400011F062FCA378002B53D10A215B4814F0C5
:1050500019F8574811F048FCEFB23946584805F0A6
:1050600057FD584B20781B6898473946A27854481A
:1050700005F0BEFE737BAB4266D0534B1B68013B11
:105080000C2B10D8DFE803F05A0F5A0F0F0F0F0741
:10509000470F0F0F41004A4805F0A0FF00F10F0134
:1050A0004A48FBF7BDFD0135032D04F10104B1D1E0
:1050B000717B434805F02CFD0123736115214448A1
:1050C00013F0E0FF3A4811F00FFC0021414813F0C3
:1050D000D9FF3748BDE8F84011F006BC13F0D2FF05
:1050E0002946334811F050FC09213B4813F0CAFF10
:1050F000D9E70821394813F0C5FF2D4811F0F4FB1A
:10510000AAE7374B1B68984782E705F10F012F4844
:10511000FDF7A4FBC7E72A4806F012F800F11001DA
:105120002A48FCF7E7FB264805F0AAFB014627487A
:10513000FCF74EFA2548FCF70FF8B4E7217823482E
:105140001031FBF76DFDAEE73369FE2B12DDF37B0B
:10515000FF2B92D01A4805F051FFF27B904204D306
:105160001146174806F09CFA87E71E491748FCF7D6
:1051700067F982E71C49194000290DDBC9B21048C4
:1051800005F0B2FB336918491940002909DBC9B29F
:105190000E48FCF791FBDAE7013961F00F010131AC
:1051A000ECE7013961F00F010131F0E73450020002
:1051B0003C72FF1F505C0200485002005C5002002D
:1051C00004320020307EFF1FE070FF1FCC2F002034
:1051D00084500200E4410200785002005050020066
:1051E0002C7EFF1F685002000F00008010B52821A0
:1051F0000446074813F046FF204619F0E1FC01463B
:10520000204613F03FFF0348BDE8104011F06CBB8F
:105210009C5002003C72FF1F0022026042608260CC
:10522000C260704710B50446006838B1836A2360D5
:105230002C2112F047F920680028F7D1204610BD34
:1052400084B02DE9F843074609AC2C2084E80E0011
:105250009DF84490DDF8488012F030F92C220021AE
:10526000064618F0AFFF0FCC35460FC594E80F0087
:10527000BC6885E80F0086F82490C6F8208004B149
:10528000A6627B68BE6043B13A6862B19A6A9A428C
:105290000BD0BDE8F84304B070473B687E600BB1AB
:1052A0003346F3E733463E60F0E7BDE8F843024893
:1052B00004B0FFF79BBF00BF844A020070B54C6882
:1052C00000230646037044B10FCC35460FC594E861
:1052D0000F0085E80F00304670BD03490348FCF716
:1052E0001DF8304670BD00BFE8500200CC2F0020F2
:1052F000436810B51BB193F82440204610BD034904
:105300000348FCF70BF8204610BD00BFE44702003D
:10531000CC2F00204068003018BF0120704700BF2C
:10532000436810B513B11C6A204610BD02490348FA
:10533000FBF7F4FF204610BD1C510200CC2F0020CB
:1053400003684360704700BF436833B19A6A934271
:1053500010B5044602D0626010BD70470348FFF7E5
:1053600045FF6368002BF7D09A6AF4E70049020012
:10537000436999420AD08368C268994203DB91422B
:105380000B46A8BF134643610120704700207047B9
:105390000020704781600120704700BF00207047E7
:1053A000C1600120704700BF0020704701610120EB
:1053B000704700BF002070474068704790ED050AB5
:1053C000B8EEC00A704700BF90ED040AB8EEC00AFC
:1053D000704700BF90ED020AB8EEC00A704700BFE8
:1053E00090ED030AB8EEC00A704700BF007E704718
:1053F00000207047D0ED057AB4EE670AF1EE10FA9E
:1054000019D0D0ED027A90ED037AB4EEE70AF1EE0E
:1054100010FA03D5C0ED057A01207047B4EEC70A33
:10542000F1EE10FAD4BFF0EE407AF0EE477AC0ED1C
:10543000057A012070470020704700BF80ED020A06
:10544000012070470020704780ED030A012070475B
:105450000020704780ED040A01207047002070474B
:105460004068704790ED050A704700BF90ED040A50
:10547000704700BF90ED020A704700BF90ED030A2D
:10548000704700BF007E704710B5FE23044640F809
:10549000043B0DF0FBF904F124000DF0F7F9204670
:1054A00010BD00BF10B5044617210D4813F0EAFDEA
:1054B00021780C480DF0B6FA40B114210A4813F0D7
:1054C000E1FD0A48BDE8104011F00EBA1621084867
:1054D00013F0D8FD0548BDE8104011F005BA00BF33
:1054E0001852020090920020485202003C72FF1FA6
:1054F00030520200F0B5084683B0B4491AF0EEFB12
:10550000002800F085800446B14900201AF0E6FB2F
:1055100000287DD0AE4900201AF0E0FB05460028A7
:1055200076D0AC49204619F06FF90646002800F005
:105530009C800021204619F067F900286AD1A6490D
:10554000204619F061F9002864D0A449204619F0DA
:105550005BF9002800F0BA80A149204619F054F9FF
:10556000002800F0BB809F49204619F04DF9002823
:1055700000F0C7809C49204619F046F9002800F049
:10558000C8809A49204619F03FF9002800F0C780EA
:105590009749204619F038F9002800F0CB8095494A
:1055A000204619F031F9002800F0D48092492046B5
:1055B00019F02AF9002800F099809049204619F046
:1055C00023F9002800F0D1808D49204619F01CF9FC
:1055D000002800F0D7808B49204619F015F90028E3
:1055E00000F0DD808849204619F00EF9002800F00F
:1055F000E1802046854919F007F948B9844B2846CF
:105600001C6818F01DFA2146C2B2824806F0E4F880
:1056100003B0F0BD0821804813F034FD284619F08E
:10562000CFFA0146284613F02DFD7C4811F05CF9B5
:10563000284618F005FA0146764805F0B7F9072123
:10564000774813F01FFD012018F048FA044618F0BF
:105650004DFA01A9091B00230A22704811F054F9E0
:105660006E4811F041F903B0F0BD06216D4813F00A
:1056700009FD284619F0A4FA0146284613F002FD58
:10568000664811F031F9284618F0DAF9C1B26148DC
:1056900005F03EFA0721624813F0F4FC012018F0EF
:1056A0001DFA074618F022FA01A9C91B33460A223F
:1056B0005A4811F029F9594811F016F900212046ED
:1056C00019F0A2F800283FF43AAFA3E7284618F0F3
:1056D000B7F9C1B24F4805F0E3FF99E7284618F043
:1056E000AFF9C1B24B4805F0C9FF91E7484B2846D6
:1056F0001C6818F0A5F92146C2B2464805F0A4FF7F
:1057000086E7284618F09CF9C1B2424805F0ECF84B
:105710007EE7284618F094F93D4B186078E73C4B3B
:1057200028461C6818F08CF92146C2B2394805F0A9
:1057300059FE6DE7364B28461C6818F07DF951EC90
:10574000100B18F0F1F8214600EE100A314805F070
:105750000DFF5DE72E4B28461C6818F071F92146B5
:10576000C2B22C4805F05CFF52E7294B28461C6862
:1057700018F066F9021C214618BF0122254805F0E1
:1057800045FE45E7224B28461C6818F059F9021CD3
:10579000214618BF01221F4805F04CFE38E71C4B7C
:1057A00028461C6818F04CF92146C2B2194805F089
:1057B000E1FF2DE7164B28461C6818F041F92146F9
:1057C000C2B2144805F0F4FF22E700BF60520200A5
:1057D0006C420200A05B0200745202008852020078
:1057E00090520200A0520200A8520200B4520200DD
:1057F000BC520200C8520200D4520200DC52020025
:10580000E4520200EC520200F4520200FC52020088
:105810004C7EFF1F043200207C5202003C72FF1FAE
:105820006C520200645202002DE9F047084691498B
:105830001AF054FA00286BD004468F4900201AF061
:105840004DFA002864D08C4900201AF047FA05462A
:1058500000285DD08949204618F0D6FF002869D07D
:105860008749204618F0D0FF00287CD08549204683
:1058700018F0CAFF002800F082808349204618F003
:10588000C3FF002800F08A808049204618F0BCFF42
:10589000002800F093807E49204618F0B5FF0028CC
:1058A00000F09C807B49204618F0AEFF002831D0E4
:1058B0002046794918F0A8FF50BB784B1C78002C83
:1058C00040F09D807648774D7749784A784BD0F8FC
:1058D0000090D5F800A0D1F8008017681E681C2041
:1058E00011F0ECFD734B2A681B687349C0F804A0E3
:1058F00003EB8305C3EB05131344704A41F82300FF
:10590000C0F80890C0F80C80076146610476026018
:10591000BDE8F087284618F08FF851EC100B18F00E
:1059200003F8634B5C491860204618F06DFF0028AF
:10593000C3D0EDE7284618F083F85E4E306060482B
:1059400010F0D2FF06215F4813F09CFB31685C48E1
:1059500011F01AF85A4810F0C7FF4949204618F0CC
:1059600053FF002882D1284618F06AF84D4B45496C
:105970001860204618F048FF00287FF47EAF2846C4
:1059800018F05EF8454B4049003018BF01201870F0
:10599000204618F039FF00287FF476AF284618F02B
:1059A0004BF851EC100B17F0BFFF3D4B3749186017
:1059B000204618F029FF00287FF46DAF284618F024
:1059C0003BF851EC100B17F0AFFF374B3049186024
:1059D000204618F019FF00287FF464AF284618F01D
:1059E0002BF851EC100B17F09FFF304B2949186032
:1059F000204618F009FF00287FF45AAF8AE72A49A9
:105A00002A4A2B4B2648D1ED006A90ED006A92EDB0
:105A1000007AD3ED007ADFF88C80BDEEC66AFDEE29
:105A2000E66ABDEEC77AFDEEE77A1C2016EE107A24
:105A300016EE906A17EE105A17EE904AD8F80090BA
:105A400011F03CFD1B4BD8F800201B68876003EB6E
:105A50008301C3EB01131344174F1B49C660012296
:105A600005614461C0F8049047F8230001600276A4
:105A7000BDE8F087605202006C4202000853020049
:105A80001053020018530200205302002453020056
:105A90002853020030530200385302003C7EFF1F9F
:105AA000447EFF1F547EFF1F487EFF1F407EFF1F66
:105AB000387EFF1F507EFF1FA8680020E0510200C3
:105AC0003C72FF1FA8690200A0510200F0B57C499A
:105AD000ADF2044D04467B480DF0C4F8002800F0F8
