:1000000000000320D1010000798501003185010045
:100010003185010031850100318501003185010004
:1000200031850100318501003185010079850100AC
:10003000798501003185010081A0010085A10100C1
:1000400079850100798501007985010079850100B4
:1000500079850100798501007985010079850100A4
:100060007985010079850100798501007985010094
:100070007985010079850100798501007985010084
:100080007985010079850100798501007985010074
:100090007985010079850100798501007985010064
:1000A000792E0100852E01007985010079850100F6
:1000B000798501007985010079850100CDA10100D4
:1000C00079850100F9A201007985010025A40100CC
:1000D000798501001DA50100798501007985010060
:1000E0007985010079850100798501007985010014
:1000F0007985010079850100798501007985010004
:1001000079850100798501007985010079850100F3
:1001100079850100818F01007985010079850100D1
:1001200079850100798501007985010079850100D3
:1001300079850100798501007985010079850100C3
:10014000657801007985010015A601007985010017
:1001500079850100798501007985010079850100A3
:100160007985010079850100912E010079850100D2
:100170007985010079850100798501007985010083
:100180007985010079850100798501007985010073
:1001900079850100798501000DA7010079850100AD
:1001A0007985010079850100798501007985010053
:1001B0007985010079850100798501007985010043
:1001C0007985010079850100798501007985010033
:1001D0005C4B4CF2205210B51A804DF628121A8052
:1001E00000BF00BF18F0CCF9574B4FF030621A60D7
:1001F000564A9A60564ADA60564B4FF470021A60BB
:10020000554B564A1A60564B1A78110703D51A787F
:1002100042F008021A70534B5349AA221A70534AEB
:10022000534B8B4204D252F8040F43F8040BF8E707
:10023000504B514900228B4202D243F8042BFAE77B
:100240004E494F4A002352F8230041F8230001335E
:10025000742BF8D14B4B4C4A802103F8011B93427D
:10026000FBD14A4B454A1A60494B8A221A70A3F5C2
:10027000805324225A70A0221A709A799207FCD5D2
:100280009A79D406FCD4434A937903F00C03082BE3
:10029000FAD1414B60221A7002331A78802AFCD1BD
:1002A0003C4B01221A715D225A719A799006FCD555
:1002B0009979384A4906FBD5384B394919600021EC
:1002C000596020231370937903F00C030C2BFAD19F
:1002D000344B354A1A60354A354C136813F4807331
:1002E00003D123604FF4A8531360324B324A1A6093
:1002F00000225A60072243F8042C304AC3F80C2D20
:1003000062B618F0ADFC2368DA0705D52C4818F062
:10031000DFFB2C4B2C4A1A602C4B1B785B0609D553
:10032000284C294B22689A4204D1254818F0D0FB6A
:10033000002323601EF0D6F918F028F918F056F8BB
:10034000FEE700BF0E20054030800440823F0400DD
:100350000100002B88ED00E0002008E0030000858C
:1003600002D0074000E00740C07BFF1FC09B020097
:10037000306FFF1FC07BFF1F34990020006AFF1FF2
:100380000000000000E400E064E400E008ED00E0AC
:10039000005006400040064001E007404480044011
:1003A0000000060204800440C010070010D0034083
:1003B00014D0034014E000E01FBF02000000202022
:1003C00087D0AB5E1CE00340A5C3945A00F0074001
:1003D000FFFFFFFFFFFFFFFFFFFFFFFFFFFFFFFF2D
:1003E000FFFFFFFFFFFFFFFFFFFFFFFFFFFFFFFF1D
:1003F000FFFFFFFFFFFFFFFFFFFFFFFFFFFFFFFF0D
:10040000FFFFFFFFFFFFFFFFFFFFFFFFDEF9FFFF23
:1004100010B5054C237833B9044B13B10448AFF33E
:1004200000800123237010BDC07BFF1F000000006F
:10043000BC9B0200084B10B51BB108490848AFF33C
:1004400000800848036803B910BD074B002BFBD0A0
:10045000BDE81040184700BF00000000C47BFF1F2C
:10046000BC9B0200C07BFF1F0000000010B52422CF
:10047000044600211EF0D6FC002384F8243084F8C2
:100480002530204610BD00BFF8B5074690F824007F
:100490000D461646E0B13A46002404E00134844299
:1004A00002F1030212D01178A942F7D19178994252
:1004B000F4D104EB44043C446670A370062D5ED86E
:1004C000DFE805F031161D242B1031000A2C2BDC3F
:1004D00000EB40017A18013087F824007D545670F3
:1004E0009370EBE72E492F48BDE8F84001F050B972
:1004F00032462D492B48BDE8F84001F0D7BF3246BF
:100500002A492848BDE8F84001F0D0BF32462849C2
:100510002448BDE8F84001F0C9BF26492148BDE89C
:10052000F84001F035B9F8BD23491E4800F0B8FF86
:100530000421224819F0CEFB2146214817F0E2FAA7
:100540001721204819F0C6FB00230A2297F824102F
:100550001B4817F097FA10211B4819F0BBFB0C2120
:10056000174817F0CFFA0B21184819F0B3FB2946AA
:10057000134817F0C7FA124817F074FA9EE71449A7
:10058000084800F08DFF1521124819F0A3FB2946F9
:100590000B4817F0B7FA0A48BDE8F84017F062BAFE
:1005A000A44C0200C82E0020644C0200744C0200CF
:1005B000804C0200904C0200104C0200244C0200BF
:1005C0001871FF1F2C4C0200444C0200584C0200D2
:1005D000B44C0200C84C020038B590F825300B2B03
:1005E000044627D91F49204800F05AFF17211F4809
:1005F00019F070FB00230A2294F825101C4817F00C
:1006000041FA17211B4819F065FB00230A2294F8D0
:100610002410174817F036FA1021174819F05AFB22
:100620000C21134817F06EFA0025114817F01AFA3A
:10063000284638BD03EB430317210C48E55C19F04D
:1006400049FB00230A2294F82510094817F01AFAEA
:100650000B210A4819F03EFB2946054817F052FACB
:10066000284638BDF84C0200C82E0020E04C02009D
:100670001871FF1F2C4C0200444C0200584C020021
:1006800090F825300B2B04D803EB43031844407833
:10069000704710B513490446134800F001FF1721B5
:1006A000124819F017FB00230A2294F8251010486D
:1006B00017F0E8F917210F4819F00CFB00230A2264
:1006C00094F824100A4817F0DDF910210A4819F0AF
:1006D00001FB0C21064817F015FA054817F0C2F97E
:1006E000002010BD0C4D0200C82E0020E04C02007E
:1006F0001871FF1F2C4C0200444C020090F825306A
:100700000B2B04D803EB430318448078704710B5D3
:1007100013490446134800F0C3FE1721124819F08C
:10072000D9FA00230A2294F82510104817F0AAF9E4
:1007300017210F4819F0CEFA00230A2294F824104A
:100740000A4817F09FF910210A4819F0C3FA0C2142
:10075000064817F0D7F9054817F084F9002010BDB6
:10076000204D0200C82E0020E04C02001871FF1F2F
:100770002C4C0200444C020090F825300133DBB2CF
:100780000B2B80F825308CBF00200120704700BF64
:10079000002380F8253070470022134680F824207B
:1007A00080F82520C2540333242BFBD1704700BFAF
:1007B000FFF7F2BF70B5044615460E460846022103
:1007C00018F0ACF92846022118F0A8F9104A114B8C
:1007D00052F83610012001F500762072266052F89A
:1007E0003520607202F5007500206560E060013B15
:1007F000FDD191F8003292F8002203F00103D207F4
:1008000044BF43F00203DBB2A372204670BD00BFB9
:1008100088900200C0D4010090F814322DE9F0470E
:100820000746002B7CD1DFF80C82794AD8F800000B
:10083000D468784D784E92F809E092E80A0091F871
:10084000009093F800C0117A714B1CEA0E0F09EA70
:1008500001015DD09B7A03F0030309B143F0040367
:1008600043F008039910013B91720D2B0AD8DFE881
:1008700003F075077207096F75756F0907720775C1
:10088000013CD460A04219D0DFF89891DFF890A124
:10089000D9F80030002C2246B8BFE21C92109A42D0
:1008A000CAF8002008D04FF47A715C480EF0F6F9CF
:1008B000DAF80030C9F80030C8F800402B686968E1
:1008C0001A78687A0C782B7A5249044202EA0302B9
:1008D00016D08B7A03F003030AB143F0040343F00C
:1008E00008039A10013BAA720D2B00F28180DFE809
:1008F00003F07B7766777F387B7B387F7766777B03
:100900008B7A03F00303002AEBD043F00403E8E7FB
:100910009B7A03F003030029A4D043F00403A1E76A
:100920003F4E404C40484149394ADFF80881394D33
:1009300000233360384E2360036087F814321C466E
:100940000B601846D360C8F80030EB60336072E784
:10095000023CD46096E70234D46093E70134D4605B
:1009600090E7EC68023CEC6007F5AE7016F0DCFD39
:100970002F4B00282DD11A68042A3BDC3268A41AB8
:1009800004EB840402EB44049442EC6026D01A6821
:10099000264D254F0132002C1A6022462B68B8BF25
:1009A000E21C92109A423A6006D040F2E9311B48AC
:1009B0000EF074F93B682B603460BDE8F087EC689A
:1009C0000234EC6007F5AE7016F0AEFD184B00284F
:1009D000D1D03268002194421960D8D1BDE8F087A7
:1009E000EC68013CEC60BFE7EC680134EC60BBE70D
:1009F000EC68B9E7092A326805DCA41A04EB840420
:100A000002EB8404C0E76421A41A01FB0424BBE7C1
:100A1000107CFF1F207CFF1F847CFF1FAC67002021
:100A2000547CFF1F5C7CFF1F587CFF1F607CFF1FF6
:100A3000DC7BFF1F7C7CFF1FF8B590F81432002B85
:100A400047D12F4D2F4A2868D468577A92E848003A
:100A5000197896F800E0137A2A4E1EEA070F01EA89
:100A600003012ED0B37A03F0030309B143F004036A
:100A700043F008039910013B91720D2B0AD8DFE86F
:100A800003F03C07390709363C3C36090739073C77
:100A9000013CD460A04213D01B4E1C4F3368002C85
:100AA0002246B8BFE21C92109A423A6006D04FF438
:100AB0007A71174804F09EFE3B6833602C60F8BDE5
:100AC000F8BDB37A03F003030029D3D043F0040345
:100AD000D0E70E4E0C490B4A094D002380F8143222
:100AE0001C4633600B601846D3602B60ADE7023CB8
:100AF000D460CFE70234D460CCE70134D460C9E7D6
:100B00008C7CFF1F107CFF1FB47CFF1FB07CFF1F7D
:100B1000A82D00202DE9F84F002383461D460E46E0
:100B200080F87431994600F5D67A00F180081024D7
:100B3000012706E08BF8747101350134102DE4B201
:100B400016D05AF8043F002BF6D0B342F2D8DBF8A7
:100B50001032CAF800905B5D2146404653B901351A
:100B600012F05CFD0134102D8BF87571E4B2E8D100
:100B7000BDE8F88F12F012FD0028DDD12146404675
:100B800012F02EFD8BF87571D6E700BF38B5144C06
:100B90000C40002C1FDB031993F8A0516DB9012202
:100BA00083F8A021C9B2803012F01AFD2A462146EE
:100BB0000C48BDE838400BF023BC002283F8A0218C
:100BC000C9B2803012F02AFD214601220548BDE855
:100BD00038400BF015BC013C64F00F040134DAE737
:100BE0000F0000800431002038B5144C0C40002C5C
:100BF0001FDB031993F8A0216AB90125C9B280301F
:100C000083F8A05112F0ECFC2A4621460C48BDE8BE
:100C100038400BF009BC0025C9B2803083F8A051E0
:100C200012F0FCFC2A4621460548BDE838400BF08E
:100C3000FBBB013C64F00F040134DAE70F000080D5
:100C40000431002038B5144C0C40002C1FDB031974
:100C500093F8A0216AB90125C9B2803083F8A05168
:100C600012F0BEFC2A4621460C48BDE838400BF085
:100C70007BBD0025C9B2803083F8A05112F0CEFCB4
:100C80002A4621460548BDE838400BF06DBD013CC1
:100C900064F00F040134DAE70F0000800431002013
:100CA000154B0B40002B10B504461FDB234493F873
:100CB00080216AB9012283F88021C9B204F1800041
:100CC00012F08EFC012384F8153284F8143210BD22
:100CD000002283F88021C9B204F1800012F09EFC4A
:100CE000012384F8153284F8143210BD013B63F0FF
:100CF0000F030133DAE700BF0F0000802DE9F8434E
:100D000080460F4600F1800600F29F1510244FF038
:100D1000000903E00134E4B2202C0DD015F8013FA6
:100D2000002BF7D0214601343046E4B212F076FCB5
:100D3000202C85F80090F1D1094B3B40002B09DBBA
:100D400043440122F9B2304683F8A021BDE8F843BC
:100D500012F046BC013B63F00F030133F0E700BF24
:100D60000F000080F8B507464D1E00F180061024E4
:100D700005E00134E4B212F033FC202C0DD015F85C
:100D8000013F21463046002BF3D121460134304645
:100D9000E4B212F043FC202CF1D1012387F8753125
:100DA000F8BD00BF38B500F5D0750446C0F8105244
:100DB00000F29F13002200F2AF1003F8012F8342CC
:100DC000FBD106480BF004F92318012229462046DE
:100DD00083F89F21BDE83840FFF7C4BF04310020ED
:100DE00038B505460C480BF0A5F905F5D071C5F8E6
:100DF000101205F29F1305F2AF14002203F8012F21
:100E0000A342FBD12B180122284683F8A021BDE87C
:100E10003840FFF7A7BF00BF0431002038B50546B2
:100E20000C480BF095FF05F5D071C5F8101205F2CE
:100E30009F1305F2AF14002203F8012FA342FBD148
:100E40002B180122284683F8A021BDE83840FFF77F
:100E500089BF00BFAC67002038B500F5D0750446E7
:100E6000C0F8105200F29F1300F2AF11002203F8F5
:100E7000012F8B42FBD12946044810220AF03CFF87
:100E800029462046BDE83840FFF76CBF04310020FA
:100E9000B64B1B6870B5013B00F5AA7504462846A1
:100EA0000C2B00F28480DFE803F04B4B6C4B4B8241
:100EB0004B4B4B25824B070016F0FEFA002840F002
:100EC000038104F5AE75284616F0F6FA002840F0C6
:100ED0009E8004F5B275284616F0EEFA002840F020
:100EE000518104F5B674204616F0E6FA002840F069
:100EF000D38070BD16F0E0FA002840F0D48004F5ED
:100F0000AE75284616F0D8FA002840F0068104F5A0
:100F1000B275284616F0D0FA002840F0AB8004F5F0
:100F2000B674204616F0C8FA0028E2D0204616F023
:100F300009FB002800F040818D4B0022DA6070BD73
:100F400016F0BAFA002840F0DE8004F5AE752846A7
:100F500016F0B2FA002840F0F68004F5B275284683
:100F600016F0AAFA002864D104F5B674204616F0EB
:100F7000A3FA0028BDD0204616F0E4FA0028DBD101
:100F800070BD16F099FA0028B3D0284616F0DAFAA8
:100F9000002800F01281774A636A0021D160002B9B
:100FA00000F00C814FF47A70BDE87040184716F0DD
:100FB00083FA00284ED104F5AE75284616F07CFA67
:100FC000002840F0AE8004F5B275284616F074FA99
:100FD00060B904F5B674204616F06EFA002888D081
:100FE000204616F0AFFA0028A6D170BD284616F0AC
:100FF000A9FA0028EDD0604B002204F5B674DA603F
:10100000204616F059FA00283FF473AFE8E7284667
:1010100016F098FA00283FF45CAF584B002204F514
:10102000B275DA60284616F047FA00283FF459AF47
:10103000A8E0284616F086FA002895D04E4B0022EC
:1010400004F5B674DA60204616F036FA00283FF44C
:1010500050AF90E7284616F075FA0028ABD0454B04
:10106000002204F5AE75DA60284616F025FA00284D
:10107000A9D056E0284616F065FA00283FF44FAF95
:101080003D4B002204F5B674DA60204616F014FADF
:1010900000283FF42EAF49E7204616F053FA002807
:1010A0007FF44AAF70BD284616F04CFA00283FF492
:1010B00026AF304A636A0021D160002B3FF41FAF96
:1010C0004FF47A7098471AE7284616F03BFA002842
:1010D0003FF4F7AE2A480AF0E3FE421E54FA82F2C9
:1010E00092F8A03183F0010382F8A031002B5BD18C
:1010F00000F10F01C9B204F1800012F08FFA012350
:1011000084F87531DDE6284616F01CFA00283FF415
:101110001CAF1B480AF0C4FE17E7284616F012FA67
:10112000F5E6284616F00EFA00283FF44CAF134BB4
:10113000002204F5B275DA60284616F0BDF90028E1
:101140003FF447AF52E7284616F0FCF900283FF479
:1011500004AF0A4B002204F5B275DA60284616F097
:10116000ABF900283FF400AF63E700BFBC6FFF1F7F
:10117000407CFF1F107CFF1F307CFF1F207CFF1F67
:1011800004310020284616F0DDF900283FF4A9AE0E
:101190000B4B002204F5B674DA60204616F08CF989
:1011A00000283FF4A6AE77E700F10F01C9B204F1C1
:1011B000800012F015FAA2E770BD70BD70BD00BFCF
:1011C000307CFF1FA1F57A71032906D8DFE801F012
:1011D0000E0A0602074B0022DA607047064B002217
:1011E000DA607047054B0022DA607047044B00223A
:1011F000DA607047407CFF1F307CFF1F207CFF1FA0
:10120000107CFF1F70B500F586750446284616F061
:1012100053F900B970BD284616F094F90028F9D0AA
:10122000A36ABDE87040184708B590F8A40017F00D
:101230005FF8084A1368C0F58040A3F16401884252
:1012400002DB6433984201DD106008BD4FF0FF30CF
:1012500008BD00BF6C7CFF1F08B590F8A80017F010
:1012600047F8074A1368A3F16401884202DB64333C
:10127000984201DD106008BD4FF0FF3008BD00BF8F
:10128000647CFF1F30B500F58A7483B005462046A4
:1012900016F012F930B9204616F04AF980B900204C
:1012A00003B030BD204616F04DF90028F3D00A4BAC
:1012B0001B680193019BC5F8B030012003B030BD1D
:1012C00095F824320020042BC5F8B000E7D185F84A
:1012D0002402A5F82602E3E7CC940020054B82B057
:1012E0001B680193019B03F5FA63C0F8283202B032
:1012F000704700BFCC940020054B82B01B6801935F
:10130000019B03F5FA63C0F82C3202B0704700BFAE
:10131000CC940020F0B5B1B007462849284E684665
:10132000144616F08BFD274904A816F087FD2649C0
:1013300008A816F083FD25490CA816F07FFD244966
:1013400010A816F07BFD234914A816F077FD22495A
:1013500018A816F073FD21491CA816F06FFD20494E
:1013600020A816F06BFD1F4924A816F067FD1E4942
:1013700028A816F063FD1D492CA816F05FFD86FB1A
:101380000426E317C3EB660606EB4601A4EB8101D6
:10139000C9B20DEB0111384616F064FDF1B23846C2
:1013A00016F0F4FD6D4630AC103C204616F006FDFC
:1013B000AC42F9D1384631B0F0BD00BF644D0200F7
:1013C000ABAAAA2A684D0200B44E02006C4D02007E
:1013D000C44C020034500200704D0200585102000B
:1013E000744D0200784D02007C4D0200804D0200D9
:1013F000F0B5144DDFF854E00E4617460FCD8FB010
:1014000002AC0FC40FCD0FC495E80F008EFB065E33
:10141000F517C5EB6E0584E80F0005EB450EA6EB4E
:101420008E060EABF6B203EB8606EDB256F8303CF4
:10143000054A0095384604211DF050FF38460FB08C
:10144000F0BD00BF344D0200844D0200ABAAAA2AB1
:1014500010B5012200210D48FFF7ACF9032202214B
:101460000B48FFF7A7F9052204210A48FFF7A2F964
:10147000082206210848FFF79DF921232322222173
:101480000648BDE8104011F00BBD00BF107CFF1FE7
:10149000207CFF1F307CFF1F407CFF1F907CFF1FC4
:1014A00010B586B00B460A4C0A4A684615211DF055
:1014B00015FF00221146204611F01EFE68461EF060
:1014C0009FF969460246204616F090FA06B010BD14
:1014D000907CFF1F8C4D020070B5324D044632489F
:1014E0000AF086FD2B68052B064645D0072B2AD02F
:1014F000042B10D020462D49FFF7D2FF06212C489F
:1015000018F0E8FB29682B4816F0FCFA2948BDE8DA
:10151000704016F0A7BA68B104F29F14002529465E
:1015200021480AF0ADFD013580F00100B54204F814
:10153000010FF4D10921204818F0CCFB1D48BDE86B
:10154000704016F08FBA70B104F29F14002529463E
:1015500015480AF0B9FD0135003018BF0120B54229
:1015600004F8010FF3D10B21144818F0B3FB114814
:10157000BDE8704016F076BA58B104F29F14002509
:10158000294609480AF08EFD0135B54204F8010FDD
:10159000F6D109210A4818F09DFB0648BDE87040C5
:1015A00016F060BABC6FFF1F04310020C44D02006A
:1015B000F44D02001871FF1FB84D0200A04D02004B
:1015C000AC4D020010B588B00B4600920A4C0B4A95
:1015D00002A815211DF082FE00221146204611F0BE
:1015E0008BFD02A81EF00CF902A90246204616F057
:1015F000FDF908B010BD00BF907CFF1FFC4D02003C
:1016000030B5D0F818120C4C0C4A87B005460131A1
:1016100068461DF063FE0021C5F82812204602220C
:1016200011F06AFD68461EF0EBF869460246204656
:1016300016F0DCF907B030BD907CFF1F104E0200A1
:1016400030B5D0F81C120C4C0C4A87B0054601315D
:1016500068461DF043FE0021C5F82C1220460122E9
:1016600011F04AFD68461EF0CBF869460246204656
:1016700016F0BCF907B030BD907CFF1F104E020081
:1016800010B5D0F8283282B004462BB10E4A126849
:101690000092009A934210D3D4F82C325BB10A4ADC
:1016A00012680192019A934205D22046FFF7C8FFC3
:1016B0000023C4F82C3202B010BDFFF7A1FF0023B5
:1016C000C4F82832E8E700BFCC94002070B50D4D77
:1016D0000C460646FFF794FF02220021284611F02F
:1016E0000BFD20461EF08CF821460246284616F0D7
:1016F0007DF920461EF084F8142828BF1420C6F86F
:10170000180270BD907CFF1F70B50E4C05460E464A
:1017100020460122002111F0EFFC13220A49204645
:1017200016F064F920460222002111F0E5FC314652
:10173000204616F071F91323C5F81832C5F81C328B
:1017400070BD00BF907CFF1F284E020010B586B010
:101750000B460D4A0D4C152168461DF0BFFD68462D
:101760001EF04EF8C0F11001C9B22046002211F05F
:10177000C3FC68461EF044F869460246204616F04F
:1017800035F906B010BD00BF3C4E0200907CFF1F33
:1017900070B5114D0C460646FFF732FF284602226F
:1017A000002111F0A9FC20461EF02AF8214602462D
:1017B000284616F01BF920461EF022F8C6F818023B
:1017C00020461EF01DF80146204618F083FA034813
:1017D000BDE8704016F046B9907CFF1F1871FF1FDE
:1017E0002DE9F04F2DED028B91B000F5C071039003
:1017F0007C480AF02DFA002840F09180039B02906B
:10180000FF2706468046814601900446BB463D467A
:10181000009703F27F1AB7EE008A02E00134102C21
:101820004FD01AF8012F002AF8D0224608A86D4997
:101830000AF010F89DF824200098824208D00199FF
:101840000131CBB290420193034628BF1346009367
:10185000DDED0D7AF4EE487AF1EE10FA03D0029A3B
:101860000132D3B20293F4EEC87AF1EE10FA2146B7
:101870005C48D8BFB0EE678A0AF0DEFBA84207D00A
:10188000854209F1010928BF05465FFA89F9EDB2E1
:101890009DF839205A4506D008F1010893455FFAB2
:1018A00088F828BF93469DF83820BA42B6D09742B0
:1018B00004F1010406F1010628BF1746102CF6B208
:1018C000AFD101220021484811F016FC12224749ED
:1018D000454816F08BF8294604A816F0E1FAB9F14C
:1018E000010F25D9424920E0424904A816F040FBE7
:1018F000069B112BF8D9022200213B4811F0FCFB7A
:1019000004A9394816F088F8039C102312220DEB25
:101910000300C4F81822C4F81C3216F04FFA11B0B4
:10192000BDEC028BBDE8F08F324904A816F020FB15
:10193000069B022BF8D9594608A816F0B1FA08A957
:1019400004A816F011FB08A816F038FAB8F1010F38
:1019500005D9274900E0274904A816F009FB069B92
:10196000052BF8D9394608A816F09AFA08A904A850
:1019700016F0FAFA08A816F021FA012E05D91C492A
:1019800000E01C4904A816F0F3FA069B082BF8D9CE
:10199000009A039908A8FFF7BDFC08A904A816F04F
:1019A000E3FA08A816F00AFA019B012B05D91049A1
:1019B00000E0104904A816F0DBFA069B0C2BF8D9BE
:1019C000B0EE480A022108A816F07EFA08A904A879
:1019D00016F0CAFA08A816F0F1F9029B012B87D974
:1019E000034982E704310020907CFF1F544E02001F
:1019F000684E0200AC4E020010B502220C460B48A5
:101A0000122111F079FB0A490848022215F0EEFF75
:101A1000082CD4BF132112210448022211F06CFBC0
:101A200021460248BDE8104016F06CB8907CFF1FBC
:101A30009C4D020038B504460E4809F029FF04F514
:101A4000D0710546C4F8101204F29F1304F2AF10CF
:101A5000002203F8012F8342FBD1631901222046A3
:101A600083F8A021FFF77EF929462046BDE83840DB
:101A7000FFF7C2BF0431002010B503220C460B480B
:101A8000122111F039FB0A490848022215F0AEFF75
:101A9000082C94BF132112210448032211F02CFBBF
:101AA000611C0248BDE8104016F02CB8907CFF1F66
:101AB0009C4D020030B5204B1B7883B004460D4688
:101AC0001BB91E4B1B68092B12D01D48A46B09F0D3
:101AD000EDFE1C4929400029024604DBC9B2022060
:101AE000A04703B030BD013961F00F010131F5E7C6
:101AF000FFF704F913492940002918DBCDB2294624
:101B00000F4809F0EBFE0E4809F0B4FE01462046EE
:101B1000FFF73EFE0C4B1B680193019B03F5FA6334
:101B20002946C4F828322046FFF7A6FFD9E7013935
:101B300061F00F010131E1E7FD660020BC6FFF1F7E
:101B4000043100200F000080CC94002010B5022248
:101B50000C460D480F2111F0CFFA0C490A48022219
:101B600015F044FF092C4FF0020294BF10210F2101
:101B7000054811F0C1FA214600230A220248BDE8B7
:101B8000104015F07FBF00BF907CFF1F9C4D0200EE
:101B900038B504460E4809F089FE04F5D0710546B3
:101BA000C4F8101204F29F1304F2AF10002203F8DD
:101BB000012F8342FBD163190122204683F89F2124
:101BC000FFF7D0F829462046BDE83840FFF7BEBFF2
:101BD0000431002038B5594D2B68013B04460C2BCD
:101BE00000F2A180DFE803F05F6B6D07071A07269C
:101BF000313C4A948900002300F5D075026A4362A3
:101C0000012380F83132C0F810528262FFF764FC81
:101C100029462046BDE83840FFF7A4B8036A83622E
:101C2000002200F5C0714262C0F81012BDE83840D1
:101C3000FFF798B88368026A4362012380F8313263
:101C40008262BDE83840FFF7ADB80023026A436204
:101C5000012380F831328262BDE83840FFF7C0B816
:101C6000C36A026A4362012380F831328262FFF75D
:101C7000D5F83348BDE838400BF0E6BE036A83620E
:101C800000F5D07100224262C0F8101200F29F13DA
:101C900000F2AF1003F8012F8342FBD12046BDE8CC
:101CA0003840FFF75FB8C368226A63620123A2620B
:101CB00084F831322046BDE83840FFF7BBBE0369E7
:101CC000F2E7036B026A436200F5D071012382627E
:101CD00080F83132C0F8101200F29F13002200F297
:101CE000AF1003F8012F8342FBD12046FFF73AF8EB
:101CF0001448BDE8384003F06DBC0023026A43621B
:101D0000012380F831328262BDE83840FFF7A4B881
:101D1000436B026A4362012380F831328262BDE87C
:101D20003840FFF735BF2921074817F0D3FF29684E
:101D30000648BDE8384015F0E5BE00BFBC6FFF1F88
:101D4000AC670020A82D00206C4E02001871FF1F08
:101D5000134A144B126870B553F82250124C86B0D7
:101D6000064628461DF04CFDD6F820120F4AC6F84C
:101D700020028142B8BF01462B46013168461DF062
:101D8000ADFA20460122002111F0B6F968461DF097
:101D900037FD69460246204615F028FE06B070BDA4
:101DA000BC6FFF1F7C6FFF1F907CFF1F984E0200CF
:101DB00070B500F5927586B00446284615F07CFB98
:101DC000002840F02581284615F0B2FB002840F09D
:101DD000E88004F59A75284615F06EFB002840F05F
:101DE000F380284615F0A4FB002840F0A38004F5FA
:101DF0009675284615F060FB002840F0AE80284616
:101E000015F096FB002870D104F59E75284615F054
:101E100053FB002873D1284615F08AFB00283FD1D8
:101E200004F5A275284615F047FB002842D1284644
:101E300015F07EFB70B904F5A675284615F03CFB3D
:101E400090B9284615F074FB10B10023C4F8CC30CB
:101E500006B070BD002304F5A675C4F8C830284646
:101E600015F02AFB0028ECD0284615F06BFB002863
:101E7000E7D02046FFF7C4FB964B092220461A60A4
:101E8000FFF7A8FE2046FFF763FF934B1B680593FF
:101E9000059BC4F8CC30012384F8143206B070BD21
:101EA000002304F5A275C4F8C430284615F004FBDD
:101EB0000028BCD0284615F045FB0028B7D02046A6
:101EC000FFF79EFB834B082220461A60FFF782FE35
:101ED0002046FFF73DFF804B1B680493049BC4F82A
:101EE000C830012384F81432A5E7002304F59E7559
:101EF000C4F8BC30284615F0DFFA00288BD02846FD
:101F000015F020FB002886D02046FFF779FB714BA7
:101F1000072220461A60FFF75DFE2046FFF718FFF4
:101F20006D4B1B680393039BC4F8C430012384F8F2
:101F3000143275E794F824220023032A04F59675D9
:101F400004BF84F82432A4F82632C4F8C0302846EE
:101F500015F0B2FA00283FF452AF284615F0F2FA15
:101F600000283FF44CAF2046FFF74AFB594B1A6854
:101F7000052A00F08C80042A00F09480574A1268E9
:101F80001A602046FFF726FE2046FFF7E1FE524B7F
:101F90001B680293029BC4F8BC30012384F81432FE
:101FA00032E794F824220023022A04F59A7504BF2C
:101FB00084F82432A4F82632C4F8B830284615F044
:101FC0007BFA00283FF40DAF284615F0BBFA002835
:101FD0003FF407AF2046FFF713FB3E4A1368062B7A
:101FE00050D00C2B58D00D2B42D03D4B1B681360AA
:101FF0002046FFF7EFFD2046FFF7AAFE364B1B6891
:102000000193019BC4F8C030012384F81432EEE63A
:10201000284615F097FA00283FF4D5AE2046FFF782
:10202000EFFA2C4A1368012B27D0022B3FD0032B49
:1020300014D00A2B45D02B4B1B6813602046FFF7AA
:10204000C9FD2046FFF784FE234B1B680093009BCD
:10205000C4F8B830012384F81432BAE6214D22497D
:1020600001264FF0FF300A232E6008601360E5E779
:102070001B4906230B601360BAE71A48022103606C
:102080001160DBE716480C2103601160B0E71349CB
:1020900004220A601A6074E7114906200D230860C3
:1020A0001360A5E70D4905220A601A6069E70D4D26
:1020B0000D4901264FF0FF3003232E6008601360A6
:1020C000BCE7084D084901234FF0FF302B60136037
:1020D0000860B3E7BC6FFF1FCC940020386FFF1F70
:1020E000346FFF1F3C6FFF1FB86FFF1F70B50446B2
:1020F00016480E4609F0DAFB06F00F03013398424A
:1021000006D004F5D0712046BDE87040FEF72ABE27
:10211000054631462046FEF7F1FD29462046FFF7E9
:1021200015FD0A480AF006F801462046FFF7A4FC10
:10213000074B062220461A60FFF74CFD2046FFF7AA
:1021400007FE012384F8143270BD00BF0431002063
:10215000BC6FFF1F10B500220C461248112110F071
:10216000CBFF032210490F4815F040FC632C4FF0C1
:1021700000020CDC092CCCBF12211321094810F0FD
:10218000BBFF21460748BDE8104015F0BBBC11213C
:10219000044810F0B1FF21460248BDE8104015F098
:1021A000B1BC00BF907CFF1F4C4E020010B5012255
:1021B0000C461248112110F09FFF032210490F48CE
:1021C00015F014FC092C4FF001020CDD632CD4BF78
:1021D00012211121094810F08FFF21460748BDE860
:1021E000104015F08FBC1321044810F085FF2146E4
:1021F0000248BDE8104015F085BC00BF907CFF1F71
:102200004C4E0200F0B587B005460C9F0D9E0E9C0B
:102210000F9829606A601499159AAB60EF60109B63
:10222000119F2E616C61129E139C6963AA63EB611E
:10223000A8612F62EE622C6305F1A80305F1D001BD
:10224000002243F8042F9942FBD105F27F1205F2D8
:102250008F13002102F8011F9A42FBD105F29F1152
:10226000002203F8012F9942FBD105F5D67305F53D
:10227000F671002243F8042F9942FBD105F2EF13C7
:1022800005F20F21002203F8012F9942FBD1762499
:1022900075217422732305F1800677270394029138
:1022A000019200933046722304977122702111F03D
:1022B000ADFAEB6B002BC8BF002420DD2146304671
:1022C00011F08EF9304611F0FBFA0A2016F076FC78
:1022D0000134EB6BE4B29C42F0DB002B0FDD0024F9
:1022E0002146304611F09AF9304611F0E9FA0A20F9
:1022F00016F064FC0134EB6BE4B29C42F0DB14207A
:1023000016F05CFC2846FFF765FC2846FFF720FD29
:102310000F480EF01FFC01462846FFF71BFF0C4834
:102320000EF01AFC01462846FFF740FF094809F065
:1023300001FF01462846FFF79FFB064809F0B6FA61
:102340000146284607B0BDE8F040FFF7FFBB00BFDD
:10235000D090002004310020F8B5144D0C461746EB
:102360000646FFF74DF902220021284610F0C4FE70
:1023700020461DF045FA21460246284615F036FB58
:1023800020461DF03DFA0222C1B2284610F0B4FEEC
:102390003946284615F0B6FB20461DF031FA0630C6
:1023A000142828BF1420C6F81802F8BD907CFF1F1F
:1023B000F8B51F4C1F4F154600220E462046114609
:1023C00010F09AFE204611221B4915F00FFB002247
:1023D0001146204610F090FE30461DF011FA3146AD
:1023E0000246204615F002FB20460122002110F093
:1023F00083FE28461DF004FA29460246204615F0C1
:10240000F5FA30461DF0FCF90146304617F062FC43
:10241000384615F027FB28461DF0F2F901462846FC
:1024200017F058FC3846BDE8F84015F01BBB00BF5C
:10243000907CFF1F1871FF1F9C4E020070B51A4D53
:1024400082B08DED010A0C460646FFF7D9F8284602
:102450000222002110F050FE20461DF0D1F9214645
:102460000246284615F0C2FA20461DF0C9F902229C
:10247000C1B2284610F040FE9DED010A10EE100A90
:102480001BF05EFD41EC100B0221284615F044FBC9
:1024900020461DF0B5F90630142828BF1420C6F8D0
:1024A000180202B070BD00BF907CFF1FB0B588B0AD
:1024B00002AF04460B4600921521164A164D3846C7
:1024C0001CF00CFF38461DF09BF9D4F81832C4F804
:1024D000180298420146B8BF194601F1080323F0DB
:1024E0000703ADEB030D02AC3B460C4A013120461D
:1024F0001CF0F4FE28460222002110F0FDFD2046CB
:102500001DF07EF921460246284615F06FFA18376D
:10251000BD46B0BDB04E0200907CFF1F984E020039
:102520002DE9F04790F8313282B00546002B40F09B
:102530008280584E584A3068D46892F809E092E890
:102540008800197897F800C0137A534F1CEA0E0FD1
:1025500001EA03015AD0BB7A03F0030309B143F047
:10256000040343F008039910013B91720D2B0AD824
:10257000DFE803F05E075807095B5E5E5B090758FA
:10258000075E013CD460C31EA34202DC0330A042BC
:1025900039DA424809F08AF93368E31A48BF03334D
:1025A00000EBA307002F39DC0127DFF80081D8F802
:1025B00000309F4226D05FFA87F94946374809F034
:1025C000A1FA3A4636492846FFF770FF354B364A9E
:1025D0001B680193019B126803F5FA630C2AC5F886
:1025E000283239D049462846FFF7B0FA2B4809F07F
:1025F000A1FD01462846FFF73FFA2846FFF7EAFA11
:10260000C8F80070346002B0BDE8F087BB7A03F010
:1026100003030029A7D043F00403A4E7022FA8BFB7
:102620000227C2E70234D460ADE7023CD460AAE7D7
:102630000134D460A7E7002380F831321748154EE3
:1026400009F034F91949144A086003B29B001C468A
:1026500018463360D36070E7D8F80030E8192B448F
:10266000002209F10F014FF0010A05F1800980F8FD
:102670009FA1C9B283F89F21484610F0B1FFD8F856
:1026800000100F314846C9B210F0C8FF85F875A197
:10269000B6E700BF807CFF1F107CFF1F04310020C5
:1026A000B84E0200CC940020BC6FFF1FF07BFF1FD0
:1026B0002DE9F041A84D2DED028B2B68DA0782B091
:1026C000044640F1EB81A54D2B68DB0740F1D78133
:1026D00094F81432002B40F0AF81A14DA14E2B682D
:1026E00069681A78687A0F782B7A9D49074202EA5E
:1026F00003021DD08B7A03F003030AB143F00403F5
:1027000043F008039A10013BAA720D2B00F2688176
:10271000DFE813F0540150014C015001660116002E
:10272000540154011600660150014C01500154013E
:102730008B7A03F00303002AE4D043F00403E1E7BB
:10274000EB68023BEB6007EE903A9FED876A96EDEF
:10275000007ADFED866AF8EEE77A87EE868A77EE12
:10276000267AB4EEE78AF1EE10FA06DA37EE667AE8
:10277000B4EEC78AF1EE10FA40D87D4BDFED7D7ADA
:10278000D3ED006AB1EE007AE6EEC77AB4EEE78ADE
:10279000F1EE10FA40F13A81B9EE008A26EE888A0D
:1027A000DFED717A68EE277AFDEEE77AC5ED037A00
:1027B000714D724F95ED000AF5EE007A68EE277ABA
:1027C000F4EE407AF1EE10FAC7ED007A40F0758130
:1027D0009FED650A6A4967EE807A2046FDEEE77A4A
:1027E00017EE902AFFF762FE664B86ED008A1B68A3
:1027F0000193019B03F5FA63C4F82832624A136817
:10280000506819780578507A137A054201EA030175
:1028100000F0F380937A03F0030309B143F004035B
:1028200043F008039910013B91720D2B00F2D68002
:10283000DFE813F0D000C800CC00C800D4000E00C0
:10284000D000D0000E00D400C800CC00C800D000DA
:10285000D568023DD5604D4E3368DA1EAA4202DCCF
:10286000DA1CAA421DDA4A4FDFF83C81EA1A3B68BB
:10287000D8F8001048BF033203EBA203082BA8BF0F
:10288000082323EAE37399423B6006D01946414886
:102890000EF05AF93968C8F800102046FFF786FC98
:1028A00035603D4A1368506819780578507A137A74
:1028B000054201EA030100F09780937A03F00303D5
:1028C00009B143F0040343F008039910013B9172EE
:1028D0000D2B00F28780DFE803F03B3733378507A5
:1028E0003B3B07853733373BD568023DD5602B4EE0
:1028F0003068C31EAB4202DCC31CAB421BDA284A61
:10290000281A136848BF033003EBA000002840F3E7
:10291000E280B0F5967FA8BF4FF49670214F10600B
:102920003B68DFF87C80984204D063699847D8F808
:1029300000303B60356002B0BDEC028BBDE8F08139
:10294000D5680235D560D2E7D568013DD560CEE7C0
:10295000D5680135D560CAE70C7CFF1F047CFF1FDA
:10296000207CFF1F687CFF1F0000C8420AD7233D60
:10297000707CFF1F00000000AC7CFF1FE47BFF1F8A
:10298000C04E0200CC940020307CFF1FBC7CFF1F97
:10299000007CFF1FD0900020407CFF1F087CFF1FA1
:1029A000787CFF1FE87BFF1FFC7BFF1FEB68023377
:1029B000EB60C8E6EB68013BEB60C4E6EB68013313
:1029C000EB60C0E6D568013DD56044E7D5680235C7
:1029D000D56040E7D5680135D5603CE7D5683AE772
:1029E000EB68B0E6D56882E7937A03F00303002929
:1029F0003FF46BAF43F0040367E7937A03F00303FC
:102A000000293FF40FAF43F004030BE7334BD3ED42
:102A1000007A27EE877AB4EEC78AF1EE10FA7FF7D4
:102A2000C7AEDFED2F7A67EE277AB0EE478AFDEE6C
:102A3000E77AC5ED037ABBE62A482B4DDFF8C4E000
:102A40002A4E0023002204F5C077036084F8142284
:102A5000EA6039462648CEF80030336009F0DAFBE8
:102A6000244B234883ED000A394609F011FCF7EEA8
:102A7000007A37EEC00A194B83ED000A2FE628468C
:102A800015F09EFD00283FF423AE1B480EF064F8BD
:102A90001A4B1860284615F099FD19E6284615F0DE
:102AA0008FFD00283FF40FAE13480EF051F8144B81
:102AB0001860284615F08AFD05E637EEC00A94F83E
:102AC00030220B4804F5C07109F066FDD7ED007A9D
:102AD000C5ED007A7CE6012020E700BF747CFF1F73
:102AE0000000C842E47BFF1F207CFF1F687CFF1FA3
:102AF00004310020707CFF1FD0900020007CFF1F5D
:102B0000787CFF1FAC7CFF1F384B1B680D2B00D05F
:102B100070472DE9F041364BCFB20B4007F00F065E
:102B2000002B82B006F1010639DBC418054694F883
:102B3000A0317BB12F4B93F80080B8F1000F33D157
:102B4000424631462C4809F04DF9002838D102B0F0
:102B5000BDE8F081274B1B78DBB9012231462648BE
:102B600009F040F930B3012384F8A031394605F16A
:102B7000800010F035FD324620492846FFF796FCCC
:102B80001F4B1B680193019B03F5FA63C5F82832BC
:102B9000DDE7836B3246012104209847D7E7013BEC
:102BA00063F00F030133C0E7836B3246002104203A
:102BB0009847CCE7394605F1800010F02FFDC6E7B5
:102BC000394605F1800084F8A08110F027FD3246D7
:102BD0000C492846FFF76AFC094B1B680093009BD1
:102BE00003F5FA63C5F82832B1E700BFBC6FFF1FD9
:102BF0000F000080FD66002004310020DC4E020042
:102C0000CC940020CC4E020010B5013A8CB00446A2
:102C1000032A6BD8DFE802F052371D0240F6B833C2
:102C2000994200F086806AD941F28833994200F0D7
:102C3000AA8041F65833994264D15F49FEF7A8FD56
:102C40005E4B1B680B930B9B03F5FA63C4F82832A9
:102C500053E040F6B833994277D050D941F28833E7
:102C6000994200F09C8041F6583399424AD1544928
:102C7000FEF78EFD514B1B680893089B03F5FA6322
:102C8000C4F8283239E04F4A40F6B8339942126806
:102C90003DD034D941F28833994262D041F658335D
:102CA00099422FD14849FEF773FD444B1B680593A9
:102CB000059B03F5FA63C4F828321EE043480191EE
:102CC00009F00EFF019940F6B83399422BD016D97E
:102CD00041F28833994250D041F65833994211D18C
:102CE00002463B492046FFF7E1FB06E03949FEF783
:102CF000D7FB3A21384816F0EDFF0CB010BDB1F506
:102D00007A7FFAD02046FEF77BFC0CB010BD334929
:102D1000FFF7CCFB294B1B680393039B03F5FA6376
:102D2000C4F82832E9E702462C492046FFF7BEFBEB
:102D3000E3E72B49FEF72CFD204B1B680993099B09
:102D400003F5FA63C4F82832D7E72649FEF720FDD9
:102D50001A4B1B680693069B03F5FA63C4F82832E6
:102D6000CBE72149FFF7A2FB144B1B680493049B9C
:102D700003F5FA63C4F82832BFE702461B49204630
:102D8000FFF794FBB9E71A49FEF702FD0B4B1B68EE
:102D90000A930A9B03F5FA63C4F82832ADE7154994
:102DA000FEF7F6FC054B1B680793079B03F5FA63D8
:102DB000C4F82832A1E700BF904F0200CC94002055
:102DC0005C4F0200B86FFF1F284F0200AC67002065
:102DD000084F0200984F0200A84F0200E84E020080
:102DE000684F0200384F0200184F0200F84E0200F0
:102DF000804F02004C4F0200B1F57A7F38B504D8FD
:102E0000B0F8264294B3002038BD40F6B834A14251
:102E100012D8B0F82612B1F57A7FF4D1A0F8264284
:102E20002146FFF7F1FE0821284816F053FF2848F5
:102E300014F018FE002038BD41F28835A94222D98D
:102E400041F65834A142B0F826122ED8A942DAD160
:102E5000A0F826422146FFF7D7FE04211D4816F0B0
:102E600039FF1B4814F0FEFD002038BD4FF47A7284
:102E7000A0F826220B21184816F02CFF144814F055
:102E8000F1FD204638BDB0F82612A142BBD1A0F812
:102E900026522946FFF7B8FE0621104816F01AFF01
:102EA0000B4814F0DFFD012038BDA142ABD1002456
:102EB000A0F826422146FFF7A7FE0821084816F091
:102EC00009FF034814F0CEFD204638BDF04F020044
:102ED0001871FF1F04500200E44F0200FC4F020073
:102EE0000C500200B0B588B002AF044601930092C6
:102EF0000B46174A174D152138461CF0EFF9384696
:102F00001CF07EFCD4F81832C4F81802984201462E
:102F1000B8BF194601F1080323F00703ADEB030D19
:102F200002AC3B460C4A013120461CF0D7F928463A
:102F30000222002110F0E0F820461CF061FC21463E
:102F40000246284614F052FD1837BD46B0BD00BFFA
:102F500018500200907CFF1F984E02002DE9F041AE
:102F600090F8143282B00546002B40F082804E4F1C
:102F70004E4E3B6879681A78787A0C783B7A4A49E1
:102F8000044202EA030215D08B7A03F003030AB16C
:102F900043F0040343F008039A10013BBA720D2B6F
:102FA00065D8DFE803F058605C60640F58580F6420
:102FB000605C60588B7A03F00303002AECD043F086
:102FC0000403E9E7FC68023CFC603368DA1CA242B7
:102FD00002DB033BA3423BDD354B1B78C3EB837322
:102FE0009B00A34204DC334B1B789B00A34201DA15
:102FF000FB601C46304FDFF8D0803A68002C234637
:10300000B8BFE31C9B109342C8F800301FD09A1A37
:10301000D2B295F83032294805F5C07109F038FA76
:10302000D8F80080C7F8008001466A462846FEF7B7
:10303000DFF94246034622492846FFF753FF214B5A
:103040001B680193019B03F5FA63C5F828323460CD
:1030500002B0BDE8F081FC680134FC60B5E7FC68B3
:103060000234FC60B1E7FC68013CFC60ADE7FC6841
:10307000ABE715490C4F104A0C4E1048002305F5DC
:10308000C0740B60FB6021461360336009F062F886
:10309000074B21461870094809F08CF8054BC0F120
:1030A0007F00187065E700BF107CFF1FF87BFF1FD3
:1030B000507CFF1FF47BFF1FE07BFF1F04310020CB
:1030C00024500200CC940020EC7BFF1F134B1A68A5
:1030D0000D2A10B5044609D80123934043F2B632B5
:1030E0001A405AB91A0714D45B050ED42046FFF7CC
:1030F00035FF2046BDE81040FFF7DABAFFF710FAB7
:103100002046BDE81040FFF7D3BABDE81040FDF7F8
:1031100083BBBDE81040FDF78FBC00BFBC6FFF1F35
:10312000F8B5184D0C4616460746FEF769FA022216
:10313000002128460FF0E0FF20461CF061FB2146ED
:103140000246284614F052FC20461CF059FB02228D
:10315000C1B228460FF0D0FF30461CF051FB31467B
:103160000246284614F042FC20461CF049FB044667
:1031700030461CF045FB2044142828BF1420C7F813
:103180001802F8BD907CFF1FF0B58DB01D4D9DF865
:1031900048409DF84CE09DF85070CDF80CE00134AB
:1031A000019306464B1C00920294049707A8164A06
:1031B000164C14211CF092F82846022200210FF030
:1031C0009BFF07A81CF01CFB07A90246284614F029
:1031D0000DFC07A81CF014FBC6F81802204614F0DA
:1031E00041FC14210A4816F075FD07A81CF008FBE5
:1031F000014607A816F06EFD204614F033FC0DB012
:10320000F0BD00BF907CFF1F385002001871FF1FF7
:103210005050020008B50322112109480FF06CFF3D
:10322000084B1B7801222BB907490548BDE8084027
:1032300014F0DCBB05490248BDE8084014F0D6BBD9
:10324000907CFF1F40910020AC4E020068500200AD
:1032500010B50446032290F878110B480FF04CFF8C
:10326000D4F81022D4F87831D35C01222BB9074965
:103270000548BDE8104014F0B9BB05490248BDE857
:10328000104014F0B3BB00BF907CFF1FAC4E020097
:103290006C5002002DE9F04F0446102300F1440762
:1032A00020268FB0036404F16208E66338460025E7
:1032B00010F012F9404610F00FF9424639460495D5
:1032C00003950295019500952B4604F1800010F0BE
:1032D00005F9C4F804611A26C4F8E860192604F553
:1032E0008673C4F8EC601B264FF0250C4FF0240EBB
:1032F0001E2107931F220523C4F8F0604FF0420BF4
:103300004FF0430A4FF027094FF0260818271D20D9
:103310001C26C4F8DCC0C4F8E0E0C4F80831C4F8E6
:10332000FC10C4F80021C4F8A4B0C4F8A8A0C4F8E4
:10333000D49004F58A7AC4F8D880C4F8E470C4F84C
:10334000F460C4F8F800079814F096F8504614F0AA
:1033500093F804F58E7904F592721646484614F0F7
:103360008BF804F5967230461746089614F084F8E8
:1033700004F59A710E463846099714F07DF804F565
:103380009E7130460F460A9614F076F804F5A27046
:10339000064638460B9714F06FF804F5A6700746FA
:1033A000304604F5AA7B0C9614F066F8384604F50E
:1033B000AE780D9714F060F8584614F05DF804F5F7
:1033C000B277404614F058F804F5B676384614F053
:1033D00053F8304614F050F8FF22012384F83022CD
:1033E00084F8313284F8745184F8755184F8145299
:1033F00084F81552C4F81852C4F81C52C4F820526C
:1034000084F82452A4F826524A21714816F062FC2E
:10341000704814F027FB2B466F48042214210FF04C
:103420008FFE0A226D496C4814F0E0FA94F8A4006B
:10343000022115F073FB94F8A800022115F06EFB31
:1034400094F8D800022115F069FB94F8D400022109
:1034500015F064FB94F8DC00022115F05FFB94F892
:10346000E000022115F05AFB94F8E400022115F067
:1034700055FB94F8E800022115F050FB94F8EC009D
:10348000022115F04BFB94F8F000022115F046FBE9
:1034900094F8F400022115F041FB0798D4F8D810F5
:1034A00013F0F2FF5046D4F8D41013F0EDFF484665
:1034B000D4F8DC1013F0E8FF0898D4F8E01013F00B
:1034C000E3FF0998D4F8E41013F0DEFF0A98D4F86B
:1034D000E81013F0D9FF0B98D4F8EC1013F0D4FFD8
:1034E0000C98D4F8F01013F0CFFF0D9DD4F8F41021
:1034F000284613F0C9FF0798B4F8081113F0DAFF53
:103500005046B4F8081113F0D5FF4846B4F8081136
:1035100013F0D0FF0898B4F8081113F0CBFF099806
:10352000B4F8081113F0C6FF0A98B4F8081113F0A4
:10353000C1FF0B98B4F8081113F0BCFF0C98B4F855
:10354000081113F0B7FF2846B4F8081113F0B2FFC2
:1035500094F8F800022115F0E1FA94F8FC00022139
:1035600015F0DCFA94F80001022115F0D7FA94F86E
:103570000401022115F0D2FA5846D4F8F81013F0DD
:1035800083FF4046D4F8FC1013F07EFF3846D4F891
:10359000001113F079FF3046D4F8041113F074FFD2
:1035A0005846B4F8081113F085FF4046B4F80811E6
:1035B00013F080FF3846B4F8081113F07BFF304653
:1035C000B4F8081113F076FF20460FB0BDE8F08F75
:1035D000705002001871FF1F907CFF1FBC5002004A
:1035E00070B516460C460546C9B203221F480FF0B7
:1035F00083FDFEB92B1993F88061D5F878317EB937
:103600009C422BD021461A4808F028FD012818D9E1
:10361000334601460A221548BDE8704014F032BA1C
:103620009C424FF0010213D012491048BDE870408F
:1036300014F0DCB9012210490C48BDE8704014F0C8
:10364000D5B901220D490948BDE8704014F0CEB942
:103650000B490648BDE8704014F0C8B90122094979
:103660000248BDE8704014F0C1B900BF907CFF1F54
:10367000043100206C500200684E0200AC4E020083
:10368000C85002009085020070B5441800220F292E
:10369000054684F8F0211FD901F00F060C4631468B
:1036A000FFF79EFF12211B4816F014FB31461A4803
:1036B00014F028FA184814F0D5F995F83032A342DE
:1036C00004BFFF2385F83032144B1B680A2B09D046
:1036D0000B2B00D070BD214605F18000BDE8704085
:1036E0000FF09CBF2846FDF78BFF95F824220C486D
:1036F0000023012AC5F8D03004BF85F82432A5F88C
:10370000263231460AF0D6F92846BDE87040FDF76A
:1037100085BB00BFCC5002001871FF1FBC6FFF1F9C
:10372000AC67002070B50D461646D0F87C1100221B
:103730000446FFF755FF0322E9B209480FF0DCFC0D
:10374000012236B90749064814F050F9C4F87C51F3
:1037500070BD0549024814F049F9C4F87C5170BDA8
:10376000907CFF1F90850200C8500200D0F81032F4
:1037700070B55D5CC0F87811103104461646C9B2C8
:10378000803095B10FF04AFF0122D4F8781120461D
:10379000FFF7C8FFD4F878316C33012244F8236076
:1037A00084F8742184F8752170BD0FF019FF2A4642
:1037B000D4F878112046FFF7B5FFEBE72DE9F0418B
:1037C000012186B0054648480FF0BAF900211220C1
:1037D00015F0A4F90121132015F0A0F901211320FF
:1037E00015F088F90B26122015F08AF930B9013E40
:1037F00001464FF496744FF0130067D1752174227F
:10380000732305F1800677277624029101920093B5
:103810003046722304970394712270210FF0F6FF53
:10382000EB6B002B09DD0024214630460FF0F6FE3D
:103830000134EB6BE4B29C42F6DB304610F040F80A
:1038400005F29F1305F2AF11002203F8012F8B42FE
:10385000FBD16FF4BF76761B05F27F1405F28F184B
:103860000027311904F8017F00222846FFF7B8FE2F
:103870004445F6D105F5D67305F5F670002143F8F9
:10388000041F83424FF00002F9D1184B85F815222E
:1038900001240622284685F814421A60FEF79AF998
:1038A0002846FEF755FA12480DF054F9014628460D
:1038B000FEF750FC0E480DF04FF901462846FEF782
:1038C00075FC85F8744106B0BDE8F08115F012F979
:1038D0002346013BFDD10121132015F00BF92346AE
:1038E000013BFDD17FE700BF3070FF1FBC6FFF1FA2
:1038F000D090002030B5D0F8B83087B00446A3B1DE
:10390000374A126802920299C91A0ED0354D2B68B7
:103910000222013380F824225AD002222046FFF7E7
:103920006BFA002847D107B030BDD4F8D030ABB126
:103930002B4A126803920399C91A0FD0012284F806
:1039400024222046FFF758FA0028ECD0264809F038
:10395000C7F80146244809F0BFF9E4E7D4F8C030BD
:103960008BB11F4A126804920499C91A0BD0032222
:1039700084F824222046FFF73FFA0028D3D02046BF
:10398000FFF71CFFCFE7D4F8B030002BCBD0144AA0
:10399000126805920599C91AC5D0042284F8242218
:1039A0002046FFF729FA0028BDD0104808F0DCF8BF
:1039B000E3699847B7E729680C4807F08BFD204674
:1039C0002968FEF719F84FF0FF332B6007B030BDC0
:1039D0000648019107F05CFF019928609DE700BF50
:1039E000CC940020B86FFF1FAC670020043100208A
:1039F0002DE9F04F00F58E7585B00446284613F08A
:103A00005BFD10B905B0BDE8F08F284613F09AFDB4
:103A10000028F7D08C4E3368013B0A2B57D8DFE8DB
:103A200003F0411E18565656560D0D560600874D8A
:103A30002B78002B54D1E3699847E3E7844A137845
:103A4000204683F001031370FFF7E4FB05B0BDE8E7
:103A5000F08F804801F010FE05B0BDE8F08F7E4D7C
:103A600029684B1C00F0D7807C4807F033FD2A689A
:103A70007B492046FEF71AFD7A4B1B680393039B94
:103A800003F5FA63C4F8283201274FF0FF332046CC
:103A90002B603760FEF79EF82046FEF759F984F850
:103AA0001472AFE76D4807F051FE30B36B4807F072
:103AB000EFFE6D4902462046FEF7F8FC694B1B6895
:103AC0000193019B03F5FA63C4F828329AE794F84E
:103AD0001532032B00F2AA80DFE803F076593F206D
:103AE000012720463760FEF775F82046FEF730F9CB
:103AF000002384F814722B7084E7584807F0C8FE3E
:103B00005A4902462046FEF7D1FC564B1B680293E9
:103B1000029B03F5FA63C4F8283273E704F28F19A5
:103B20006FF4BF77C8463F1B04F27F154FF0010AC0
:103B3000791915F8013F08F8013F002285F800A027
:103B40002046FFF74DFD4D454FF0010BF0D102230C
:103B500084F814B284F8153253E06FF4BF773F1B3A
:103B600004F27F1504F28F1A4FF0000979194FF013
:103B7000000805F8019F42462046FFF731FD5545F4
:103B8000F4D1012384F8158284F8143239E004F268
:103B90008F196FF4BF77C8463F1B04F27F15791960
:103BA00015F8013F08F8013F83F001032B70002254
:103BB0002046FFF715FDA945F1D10322012384F822
:103BC000152284F814321CE06FF4C778C4EB08089F
:103BD00004F28F1504F27F1704F29F1908EB050118
:103BE00015F8013F83F0010307F8013F002220464A
:103BF000FFF7F6FCA945F1D1012384F8153284F8CA
:103C000014323368062B7FF4FDAE04F5C0712046F4
:103C1000FDF7A8F8F6E6012520463560FDF7DAFF46
:103C20002046FEF795F884F81452EBE6312110484F
:103C300016F050F894F815120E4813F063FF0D4873
:103C400013F010FFDDE700BFBC6FFF1F902E0020B8
:103C500040910020A82D0020B86FFF1F04310020E4
:103C600000510200CC940020E0500200F05002000D
:103C7000105102001871FF1F70B504460D4696B032
:103C800080300FF0ADFC6319012283F8F0210F2D75
:103C900000F23F81DFE815F0240040005C0078006E
:103CA00094009D00A600AF00F100CB00DE00B8003C
:103CB0002A01040117011000B9492046FDF768FDEB
:103CC000B84BB9481B681293129B03F5FA63C4F80A
:103CD000283204F5C071042208F018FB16B070BD3C
:103CE000B24B1A68511E012940F2D0810A2A00F015
:103CF000CD812046AE49FDF74BFDAA4BAA481B6873
:103D00000293029B03F5FA63C4F8283204F5C071EC
:103D1000002208F021FBE1E7A44B1A68511E01299B
:103D200040F2C0810B2A00F0BD812046A149FDF779
:103D30002FFD9C4B9C481B680193019B03F5FA6384
:103D4000C4F8283204F5C071012208F005FBC5E76C
:103D5000964B1B68012B00F06C81083B012B40F255
:103D6000688120469449FDF713FD8E4B8E481B68F1
:103D70000493049B03F5FA63C4F8283204F5C07178
:103D8000022208F0E9FAA9E7884B1B68012B00F032
:103D90006881083B012B40F2648120468749FDF78A
:103DA000F7FC804B80481B680693069B03F5FA637B
:103DB000C4F8283204F5C071032208F0CDFA8DE76B
:103DC0007F4B1B78002B00F02781A36901209847C7
:103DD00084E77B4B1B78002B00F01181A369022044
:103DE00098477BE7764B1B78002B00F0FB80A3699C
:103DF0000320984772E7724B1B78002B00F0C280BB
:103E0000A3690420984769E720466E49FDF7C0FC86
:103E1000644B65481B680E930E9B03F5FA63C4F868
:103E2000283204F5C071032208F0B6FA56E720469E
:103E30006549FDF7ADFC5B4B5B481B680C930C9B25
:103E400003F5FA63C4F8283204F5C071012208F0C2
:103E5000A3FA43E720465D49FDF79AFC514B5248CF
:103E60001B680D930D9B03F5FA63C4F8283204F523
:103E7000C071022208F090FA30E720465449FDF75D
:103E800087FC484B48481B680B930B9B03F5FA6370
:103E9000C4F8283204F5C071002208F07DFA1DE74D
:103EA00020464C49FDF774FC3E4B3F481B6810937D
:103EB000109B03F5FA63C4F8283204F5C07102229E
:103EC00008F024FA0AE720464349FDF761FC354B28
:103ED00035481B681193119B03F5FA63C4F8283227
:103EE00004F5C071032208F011FAF7E620463B49B9
:103EF000FDF74EFC2B4B2C481B680F930F9B03F5D3
:103F0000FA63C4F8283204F5C071012208F0FEF902
:103F1000E4E60F2D7FF6E2AE05F00F0631460122F2
:103F20002046FFF75DFB94F83032AB42636A88BFEE
:103F300084F8305213B1A5F1100098471B4B1B6851
:103F4000013B0C2B00F2E78001A252F823F000BFE6
:103F5000A9400000BB40000017410000C540000020
:103F60000D4100001741000003410000A94000007E
:103F7000F9400000E3400000DD3C0000D9400000B3
:103F8000CF40000016492046FDF702FC054B1B6898
:103F90000A930A9B03F5FA63C4F8283230E700BF9E
:103FA0003C520200CC94002004310020BC6FFF1F63
:103FB000505102004451020078510200A451020005
:103FC000FD66002010520200F85102000452020067
:103FD000EC51020024520200305202001C52020036
:103FE000E05102005F492046FDF7D2FB5E4B1B68A3
:103FF0000993099B03F5FA63C4F82832F7E65B4995
:104000002046FDF7C5FB584B1B680893089B03F53A
:10401000FA63C4F82832E1E655492046FDF7B8FBBB
:10402000514B1B680793079B03F5FA63C4F82832CA
:10403000CBE6504A50491378002083F001031370F7
:104040000870002B00F088804C492046FDF7A0FB4B
:10405000454B1B680393039B03F5FA63C4F82832AE
:104060003CE6454B1A78002A6DD0424D4449002267
:1040700020462A701A70FDF78BFB3B4B1B6805939B
:10408000059B03F5FA63C4F8283227E60B22204685
:104090001A60FDF79FFD2046FDF75AFE012384F8C4
:1040A00014321BE60A22F2E7324B364A1B784FF0F5
:1040B000FF311160002B7FF411AE29462046FCF73A
:1040C0001DFE0BE629462046FCF760FD06E6294664
:1040D0002046FEF719FD01E629462046FEF706F8C0
:1040E000FCE529462046FCF709FE1F4B1B6813938D
:1040F000139BC4F8D030F1E529462046FDF7DAFCE1
:10410000ECE529462046FCF79DFDE7E529462046DB
:10411000FCF76AFDE2E529462046FCF7C1FD314681
:104120002046FDF75DFB104B1A681592159A1B6827
:104130001493149B02F5FA6203F5FA63C4F82C2277
:10414000C4F82832CAE50B480F4902700122204604
:104150001A70FDF71DFB90E70C492046FDF718FB90
:1041600076E700BFD0510200CC940020C05102007D
:10417000B0510200FD660020FC6600205C51020088
:1041800084510200B86FFF1F945102006C5102006D
:10419000F8B5344C2368DB07054646D5324E14F09B
:1041A000E9FC3368304A984234D900F5EA4395F87F
:1041B000741130331360002947D105F18007384668
:1041C0000FF096FA18B3EB6B002B24DD0026344673
:1041D00005E00134EB6BE4B29C4226461BDA214633
:1041E00038460FF0BBF92E4430B196F8F031214635
:1041F00028460BB9FFF740FD214638460FF0BEF9BF
:104200000028E6D021462846FFF73EFAE1E795F878
:1042100075311BB9F8BD012385F8753138460FF0AB
:104220004FFB002385F87531F8BD204614F0C8F91E
:104230000028B3D014F09EFC0B4E00F5EA43303357
:104240002046336014F0C2F9A9E7014605F1800762
:104250002846FCF75FFC38460FF04AFA0028D6D013
:10426000B1E700BF887CFF1FB87CFF1F10B500239B
:1042700003604360836004461621044815F02AFD5C
:10428000034813F0EFFB204610BD00BF4C52020064
:104290001871FF1F38B505461A210F4815F01AFD91
:1042A0002C6864B1A36A2B6020462C2114F0CAF953
:1042B0002C680A48042115F00DFD002CF2D10023D2
:1042C0002B606B60AB600421054815F003FD0548C9
:1042D00013F0C8FB284638BD645202008852020021
:1042E000805202001871FF1F38B5054615210F488E
:1042F00015F0F0FC2C6864B1A36A2B6020462C21D9
:1043000014F0A0F92C680A48042115F0E3FC002CF5
:10431000F2D100232B606B60AB600421054815F0DF
:10432000D9FC0548BDE8384013F09CBB9052020010
:1043300088520200805202001871FF1F38B52E4CBF
:1043400005460A212D4815F0C5FC204613F08AFBCE
:104350000E212B4815F0BEFC6B682046196813F03F
:10436000D1FB0B21274815F0B5FC6B680A2219799F
:104370002046002313F086FB204613F073FB082130
:10438000214815F0A7FC6B682046D96813F0BAFBEA
:1043900007211E4815F09EFC6B68D86919F0D0FD06
:1043A00041EC100B2046022113F0B6FB0B211848FC
:1043B00015F090FC6B680A2293F820102046002329
:1043C00013F060FB1621134815F084FC6B6820463F
:1043D000597A13F097FB0E210F4815F07BFC6B68A0
:1043E000204693F824100A22002313F04BFB2046AA
:1043F000BDE8384013F036BB1871FF1FA852020009
:10440000B4520200C4520200D0520200DC52020038
:10441000E4520200F05202000853020038B543682B
:10442000002B6BD09A6A934204460D4618BF0120B8
:1044300066D0A36823B1226812B19B6A9A4274D0F5
:104440006368444A1B68934202DC01332DD038BDB7
:104450002A4641494148FDF7ABFF3121404815F05C
:1044600039FC28461BF0CCF90146284615F032FCF1
:104470003C4813F0F7FA07213B4815F02BFC616824
:10448000384813F03FFB0E21384815F023FC6368D1
:104490003448196813F036FB324813F0E3FA6368C6
:1044A0001B6801334FF00000D1D12A4630492B4818
:1044B000FDF77EFF34212F4815F00CFC28461BF039
:1044C0009FF90146284615F005FC264813F0CAFA64
:1044D0000721254815F0FEFB6168224813F012FB06
:1044E0000E21224815F0F6FB63681E48196813F088
:1044F00009FB1C4813F0B6FA002038BD012038BD76
:104500000A4616481C49FDF753FF26211B4815F0A3
:10451000E1FB28461BF074F90146284615F0DAFB4A
:10452000104813F09FFA002083E72A4614490B48ED
:10453000FDF73EFF3921134815F0CCFB28461BF050
:104540005FF90146284615F0C5FB064813F08AFAC4
:10455000002075E7809698009C530200C82E00202A
:10456000B45302001871FF1FE8530200F053020019
:10457000005402001854020018530200285302008D
:10458000505302006053020003684360704700BF4D
:1045900010B544680CB1206810BD03490348FCF70E
:1045A0007FFF204610BD00BF50540200C82E0020DF
:1045B00010B544680CB1207910BD03490348FCF7DD
:1045C0006FFF204610BD00BF64540200C82E0020BB
:1045D0002DE9F0418846002707700646112114484E
:1045E00015F078FBD8F80440ECB108340FCC354610
:1045F0000FC594E80F0085E80F0071680D4813F0AF
:1046000081FA08210C4815F065FBD8F804300948F8
:1046100019790A223B4613F035FA064813F022FABC
:104620003046BDE8F08105490548FCF739FFF7E75A
:10463000785402001871FF1FDC6B02008C540200DA
:10464000C82E00204068003018BF0120704700BF0E
:1046500070B5044616213648666815F03BFB3548B0
:1046600013F000FA0721344815F034FB6168314833
:1046700013F048FA0821314815F02CFB21682D4829
:1046800013F040FA08212E4815F024FBA1682948B0
:1046900013F038FA23686360642538E013F0E2F918
:1046A0000E21284815F016FB63682248196813F09C
:1046B00029FA0D21244815F00DFB61681D480831C9
:1046C00013F020FA0921214815F004FB636819480A
:1046D000197913F017FA0B211D4815F0FBFA6168E0
:1046E000144813F00FFA08211A4815F0F3FA63681A
:1046F0001048996A13F006FA17492046FFF78EFE14
:1047000040B1204600F0C6F8013D08D06368094872
:10471000002BC3D1074813F0A5F9666070BD0F499F
:104720000F48FCF7BDFE034813F09CF9666070BDAE
:10473000A45402001871FF1FE8530200BC54020089
:10474000C8540200F0530200D4540200E4540200A2
:10475000F0540200FC5402000855020010550200FB
:10476000C82E0020036810B504466BB1426893421E
:1047700004BF002242609A6A8AB1002102609962F5
:1047800018462C2113F05EFF0A492046FFF746FE2B
:1047900000B110BD2046BDE81040FFF759BF816849
:1047A0008B4208BF82602C21184613F04BFF002378
:1047B0002360E9E72055020038B50368044673B169
:1047C0001A6891420D4603DC0AE01A68AA4207DA29
:1047D0002046FFF7C7FF23686360002BF5D1002355
:1047E000636005492046FFF719FE00B138BD204639
:1047F000BDE83840FFF72CBF3055020082B02DE9EC
:10480000F04106AC074644F8043F0D461E4814210B
:10481000904615F05FFA214600230A221B4813F048
:1048200031F91A4813F01EF92C2013F007FF2C223F
:10483000002106461AF0F6FA0FCCB060F160326142
:1048400073610FCCBC68356086F80480B061F1619B
:104850003262736214B1A64218BFA6627B68BE6062
:104860007BB13B685BB10A493846FFF7D7FD10B909
:104870003846FFF7EDFEBDE8F04102B070473E60FC
:10488000F1E77E60EDE700BF5C5502001871FF1F85
:1048900074550200436810B5044673B19A6A934296
:1048A00013D062600C492046FFF7B8FD00B110BD7F
:1048B0002046BDE81040FFF7CBBE1921074815F090
:1048C00009FA074813F0CEF8ECE706490648FCF76A
:1048D000E7FD63689A6AE4E7B05502009455020068
:1048E0001871FF1F80550200C82E002070B590E897
:1048F000480005460024436006E00134FFF7CAFF84
:10490000B4F57A7F06D06B682846002BF5D16E602F
:10491000204670BD03490448FCF7C2FD6E60204686
:1049200070BD00BFB8550200C82E002000220260F2
:1049300042608260704700BF38B5044617210948BD
:1049400015F0C8F923685BB10025DA6822601846C3
:10495000DD6010219D6013F075FE2368002BF4D1FB
:10496000204638BDC855020038B5436804460D4698
:1049700083B1DA68934218BF012036D09A689A4210
:1049800048D0E3682BB1DA68934219D09A689A420A
:1049900002D038BD0120F4E728492948FCF780FD02
:1049A0001F21284815F096F9274813F05BF8284690
:1049B0001AF026FF0146284615F08CF90020E8E79A
:1049C00022491F48FCF76CFD2B21214815F082F984
:1049D00028461AF015FF0146284615F07BF91A48BB
:1049E00013F040F8E3680020D0E71A491448FCF7B8
:1049F00057FD2321184815F06DF928461AF000FFDD
:104A00000146284615F066F90F4813F02BF8636845
:104A10000020B3E711490A48FCF742FD172110486E
:104A200015F058F9084813F01DF828461AF0E8FE6A
:104A30000146284615F04EF90020A2E77C560200F8
:104A4000C82E0020905602001871FF1F3C5602002D
:104A500050560200E0550200F055020014560200C4
:104A60002456020010B507490446FFF77DFF20B128
:104A700063680BB1DB68636010BD204600F004F88A
:104A8000F6E700BFB055020038B5002104464348A0
:104A900015F020F9424812F0E5FF0D21414815F0CC
:104AA00019F93F4812F0DEFF07213F48656815F00D
:104AB00011F921683A4813F025F806213B4815F012
:104AC00009F96168364813F01DF80721384815F0D8
:104AD00001F9A168324813F015F80A21354815F09C
:104AE000F9F8E1682E4813F00DF82D4812F0BAFFDE
:104AF000204600F0DFF863682BB945E0FFF7B2FF0E
:104B00006368002B40D005212B4815F0E3F863685B
:104B1000234819680A22002312F0B4FF0421274811
:104B200015F0D8F863681E4819790A22002312F09C
:104B3000A9FF0421224815F0CDF863681848597977
:104B40000A22002312F09EFF05211E4815F0C2F82C
:104B50006168134812F0D6FF06211B4815F0BAF819
:104B600063680F48D96812F0CDFF0D4812F07AFF44
:104B70006368DA6893422046C0D11A21134815F0C1
:104B8000A9F8074812F06EFF0021044815F0A2F8BA
:104B9000034812F067FF656038BD00BF244E020075
:104BA0001871FF1FB0560200C0560200C85602001E
:104BB000D0560200D8560200E4560200EC5602001D
:104BC000F4560200FC560200045702000C57020083
:104BD00038B50446C068002838D060602368834236
:104BE00026D0A368834216D08568C368EB60C3688B
:104BF00082689A60102113F025FD65602B46E36002
:104C000014492046FFF7B0FE00B138BD2046BDE88C
:104C10003840FFF739BF82681AB1826862600021AC
:104C2000D1601846102113F00DFD6368A360E6E71C
:104C3000C268626062B1002191600022DA601846A9
:104C4000102113F0FFFC63682360D8E76068C5E7B4
:104C5000A260F2E7285702002DE9F843044610202D
:104C6000894690461F4613F0E9FCA668002545607A
:104C7000856080F80490C56080F8058007600EB1FB
:104C8000F06086606368A0607BB123685BB108490F
:104C90002046FFF769FE08B1BDE8F8832046BDE86D
:104CA000F843FFF7F1BE2060F1E76060EDE700BF79
:104CB0003457020010B505490446FFF755FE10B9F8
:104CC0002046FFF7E1FE2368636010BD3C570200F9
:104CD000C3681879704700BFC3685879704700BF30
:104CE000C3681868704700BFC068003018BF012053
:104CF000704700BF10B505490446FFF735FE10B9EF
:104D00002046FFF7C1FE2368E36010BD4457020050
:104D100010B507490446FFF727FE20B1E3680BB141
:104D2000DB68E36010BD2046FFF7AEFEF6E700BF8C
:104D30005057020070B511490546FFF715FE90B1B6
:104D400028466E680024FFF7B5FF05E00134FFF741
:104D500089FEB4F57A7F0AD06B682846002BF5D11E
:104D60006E60204670BD2846FFF78EFEE8E70449D6
:104D70000448FCF795FB6E60204670BD5C5702004E
:104D800064570200C82E002038B50A4D002304469F
:104D90000360436029464FF4A072083013F02EFBE5
:104DA00005F5A07104F5A4704FF4807213F026FB92
:104DB000204638BD7457020010B490E81800013442
:104DC00000EB031394FBF1F202FB11410B44416031
:104DD00093F848015DF8044B704700BF10B490E8A9
:104DE000180094FBF1F200EB031302FB11410B449A
:104DF000416093F848015DF8044B7047436810B474
:104E00000468194400EB041091FBF2F303FB121247
:104E100050FA82F25DF8044B92F84801704700BFE7
:104E2000406801308842B4BF00200120704700BFB5
:104E3000054B0B40002B01DB03607047013B63F027
:104E40000F030133036070470F000080036803EB1A
:104E5000830300EB83000830704700BF00234360EA
:104E6000704700BF38B501250446056758220B4935
:104E70007C3013F0C3FA0A4A84F86D500023157091
:104E800084F8D83084F8E030C4F8D430C4F8DC308A
:104E9000C4F8E4306367A367204638BDB459020004
:104EA000C87CFF1F2DE9F0418046064600F16007EF
:104EB000337D5BB13546002455F8040F013418B139
:104EC000182113F0BFFB337DA342F5DC1836BE4238
:104ED000EED14046BDE8F08101EB410300EBC30396
:104EE00080F8D810C0F8D4300120704710B5D0F841
:104EF000D44084B1227D8A420B46D8BF002304EB04
:104F00008304D8BF19466468C0F8DC404CB180F80F
:104F1000E010012010BD06490648FCF7C1FA204602
:104F200010BD05490348FCF7BBFA204610BD00BF81
:104F30000C5A0200C82E0020205A020038B5044640
:104F400060B101EB410110EBC1050DD002EB420055
:104F500014EBC0040ED06A75012038BD0849094819
:104F6000FCF79EFA204638BD07490648FCF798FA38
:104F7000284638BD05490348FCF792FA204638BD5B
:104F8000345A0200C82E0020485A02005C5A02001F
:104F9000D0F8D4300BB11960704780F8D830034690
:104FA000C0F8D40019607047D0F8D41070B5054629
:104FB00031B30B7D032B1DD8182013F03FFB0446A3
:104FC00000F062FCD5F8D4301E1D28D0197D39B10F
:104FD00053F82100C0B100F08BFCD5F8D430197D16
:104FE00003EB8102013154602046197500F054FC36
:104FF000204670BD0F491048FCF752FA002070BDE2
:10500000FFF76AFF40B970BD0C490B48FCF748FA3E
:10501000D5F8D430197DE3E7D5F8D410C9E70849AD
:105020000548FCF73DFA2046182113F00BFB3046EB
:1050300070BD00BF705A0200C82E0020945A0200B2
:10504000805A02002DE9F043044685B01A4803F067
:105050003FFE0E21194814F03DFE194812F002FDE2
:10506000D4F8DC0008B300F07DFCD4F8D430D4F8D8
:10507000DC0093F8009094F8D85094F8E46094F829
:10508000E07000F01DFC8046D4F8DC0000F01AFC53
:10509000C0B202904B468DE880013246294609484D
:1050A000FEF772F805B0BDE8F0830749054805B082
:1050B000BDE8F043FCF7F4B900670020A45A0200F1
:1050C0001871FF1FC82E0020B45A020070B50446A4
:1050D00033216F4814F0FEFDD4F8DC0000F0F0FB43
:1050E00000230A2201466B4812F0CCFC01216A48D9
:1050F00014F0F0FDD4F8DC0000F0E4FB0146654854
:1051000012F000FD0921654814F0E4FD00230A2295
:1051100094F8E0105F4812F0B5FC1421604814F0D8
:10512000D9FDD4F8DC0000F0E9FB002301460A2297
:10513000584812F0A7FC574812F094FCD4F8DC3021
:10514000002B00F09080D4F8D450002D00F0868021
:10515000184600F0D5FB054678B31921514814F0E4
:10516000B9FDD4F8DC0000F0C9FB102106464E481A
:1051700014F0B0FD002331460A22464812F082FCAA
:10518000D4F8D4301B7DB34224D92121474814F0F0
:10519000A1FDD4F8D43084F8E06003EB8606706893
:1051A000C4F8DC0000F0A6FB2121414814F092FD78
:1051B000384812F057FC284670BDD4F8DC0000F0E7
:1051C000CDFB3D213B4814F085FD324812F04AFCEE
:1051D000284670BD1821384814F07CFDD4F8D4302E
:1051E000D4F8E4201B689A4224DB1021334814F0E1
:1051F00071FDD4F8D4305E7DFF2E3AD006EB460622
:10520000132104EBC6062E4814F064FDC4F8D460E4
:1052100015212C4814F05EFDD4F8D430002284F817
:10522000E0205868C4F8DC000123C4F8E43000F042
:1052300061FBB9E71A21244814F04CFD002384F8DF
:10524000E030D4F8D420D4F8E4305068C4F8DC005E
:105250000133C4F8E43000F04DFBA5E71B491C48BE
:10526000FCF71EF9B4E71B4919481D46FCF718F96D
:10527000AEE70021184814F02DFD064812F0F2FBAD
:105280001321164814F026FD236E98478CE700BFC3
:10529000C85A02001871FF1FFC5A0200005B02008E
:1052A0000C5B02004C5B0200685B02007C5B02004E
:1052B0002C5C0200505C0200A05B0200D85B020084
:1052C000EC5B0200005C0200BC5B0200385B020089
:1052D000C82E0020245B0200244E0200185C02004D
:1052E0002DE9F043D0F8D430044685B0D0F8DC0086
:1052F00093F8009094F8D86094F8E47094F8E08003
:1053000000F0DEFA0546D4F8DC0000F0DBFAC0B2AB
:1053100002904B46CDF800803A463146019503484D
:10532000FDF732FF05B0BDE8F08300BFC82E0020B6
:1053300010B514210446094814F0CCFC084812F0BA
:1053400091FBD4F8DC0018B1BDE8104000F00ABBB6
:1053500004490548BDE81040FCF7A2B8905C020083
:105360001871FF1FA85C0200C82E0020034600220F
:10537000C3F8D40080F8D82048B1406883F8E02012
:105380000122C3F8DC00C3F8E42000F0B3BA0249FC
:105390000248FCF785B800BFBC5C0200C82E0020A4
:1053A00070B5504E504D0166044600F11501326053
:1053B0002B607530FF2200230A7001F8013C41F890
:1053C000153C18318142F7D12046FFF7EDFD054627
:1053D00090B100231A46012100F068FA00231A4612
:1053E0000221284600F062FA0121284600F076FAF0
:1053F0002846022100F070FA2046FFF7D5FD054649
:1054000090B101221146002300F050FA002301223E
:105410000221284600F04AFA0121284600F05EFAEF
:105420002846022100F058FA2046FFF7BDFD054648
:1054300090B100230222012100F038FA0222114625
:105440000023284600F032FA0121284600F046FAEF
:105450002846022100F040FA01212046FFF798FD7E
:10546000012200212046FFF769FD01212046FFF7B8
:1054700033FD02212046FFF78BFD2046FFF794FD08
:10548000054690B100230322012100F00FFA00230A
:1054900003220221284600F009FA0121284600F0E3
:1054A0001DFA2846022100F017FA2046FFF77CFD7E
:1054B000054690B100230422012100F0F7F90023F2
:1054C00004220221284600F0F1F90121284600F0CB
:1054D00005FA2846022100F0FFF92046BDE8704099
:1054E000FFF744BFC47CFF1FC07CFF1F38B5436E6D
:1054F00000EB8302D46F132B5DD8DFE803F04D512E
:10550000550A5C5C5C5C5C5C5C5C5C5C0A2F363FF6
:1055100046212C4A6FF0010521462B48FDF700FE7D
:1055200020461AF06DF90146204614F0D3FB2946B7
:10553000264812F0E7FA2548BDE8384012F092BA42
:10554000D0F8DC0000F0C6F9214A0546AB1CE3D0D8
:105550002A4621461C48FCF7FFFEE1E7D0F8DC00B4
:1055600000F0B2F91A4A0546F0E7D0F8DC0000F086
:10557000A9F905466A1C1ED0154AE7E7D0F8DC00F9
:1055800000F0A4F9124A0546E0E7D0F8DC0000F08C
:105590009FF90F4A0546D9E790F8D8500C4AD5E74D
:1055A00090F8E0500A4AD1E790F8D83003EB430373
:1055B00050F83350DEE721460348FCF787F84FF0F8
:1055C000FF35ADE7FC5C0200C82E00201871FF1FFC
:1055D000104E020010B517210446084814F07AFB5B
:1055E000074812F03FFA00220123626684F86D300A
:1055F0002046BDE81040FFF779BF00BF045D020000
:105600001871FF1F08B5436E132B32D8DFE803F083
:105610000F12153131313131313131313131311CEC
:1056200021272C0AD0F8DC0000F054F908BD90F8CE
:10563000D80008BD90F8E00008BD90F8D83003EB22
:10564000430350F8330008BDD0F8DC0000F03CF90B
:1056500008BDD0F8DC00BDE8084000F033B9D0F850
:10566000DC0000F033F908BDD0F8DC0000F030F9C0
:1056700008BD002008BD00BF08B51621034814F07E
:1056800029FB0348BDE8084012F0ECB91C5D02009C
:105690001871FF1F10B5B1F57A7F82B008D1026F83
:1056A000012A0DD00122026780F86D2002B010BDE2
:1056B000074A416712680192019A826702B010BDE1
:1056C000022303670446FFF79DFFA066F6E700BFCD
:1056D000CC940020994238B50C4603DA002901DA4F
:1056E000A418FDD494FBF2F502FB1545AB424FF034
:1056F0000B010B48C8BFAD1814F0ECFA214609485D
:1057000012F000FA0121084814F0E4FA294605488D
:1057100012F0F8F9034812F0A5F9284638BD00BF89
:10572000345D02001871FF1FAC4E020038B5436EA5
:1057300005460C460F2B17D8DFE803F0413123163E
:10574000161616161616161616161608002310220A
:10575000FFF7C0FFC1B20446D5F8DC0000F0BEF888
:1057600002211E4814F0B6FA0D211D4814F0B2FAB9
:1057700021461C4812F0C6F91A48BDE8384012F01C
:1057800071B901231022FFF7A5FFC1B204462846D4
:10579000FFF7FEFB0221144814F09CFAE4E7D0F86E
:1057A000D4301A7D0023FFF795FFC1B20446284686
:1057B000FFF79CFB02210D4814F08CFAD4E700237C
:1057C0000422FFF787FFC1B204462846FFF784FB97
:1057D0000221074814F07EFAC6E700BF4C5D0200C4
:1057E000505D02001871FF1F485D0200445D020019
:1057F000405D020070B50D46044611211F48164653
:1058000014F068FA1E4812F02DF9B5F57A7F00D031
:1058100070BD94F86D30EBB9236F012B20D0022BB3
:105820002AD1A16E20463144FFF780FF314614484B
:1058300012F068F90121134814F04CFAA16E1048D7
:1058400012F060F90E4812F00DF92046BDE87040E4
:10585000FFF74CBE002384F86D30236F012BDED19F
:105860003146204600231622FFF734FF60662046AB
:10587000BDE87040FFF73ABE70BD00BF605D02003A
:105880001871FF1FAC4E0200FF22002101738160DE
:105890008273C273026170470023FF220371837019
:1058A0004371C37002704270704700BF30B4013959
:1058B000C9B244180125A3702571425430BC704709
:1058C000007D704780687047407B7047007B704761
:1058D000C07B7047007C7047816070474B1E50FA58
:1058E00083F31B7913B14173012070471846704749
:1058F0008173704700234361704700BF807B70470E
:10590000426983689A421DD01ADD10B50E490446DB
:105910000E48FBF7C5FD12210D4814F0DBF9616953
:105920000C4812F0EFF814210B4814F0D3F9A168D9
:10593000084812F0E7F8074812F094F8012010BD6B
:105940000020704701207047085F0200C82E002029
:105950001C5F02001871FF1F305F020043690133B2
:1059600043617047F8B5112106466B4814F0B2F94F
:105970006A4812F077F8307B002878D13446012548
:10598000237967480821002B5ED014F0A3F929463B
:10599000624812F0B7F82378FF2B3AD0062161480D
:1059A00014F098F900230A2221785C4812F06AF872
:1059B000A378002B53D10A215B4814F08BF9574888
:1059C00012F050F8EFB23946584806F09BF8584BA1
:1059D00020781B6898473946A278544806F002FAA6
:1059E000737BAB4266D0534B1B68013B0C2B10D82A
:1059F000DFE803F05A0F5A0F0F0F0F07470F0F0F73
:105A000041004A4806F0E4FA00F10F014A48FBF76A
:105A100075F90135032D04F10104B1D1717B4348BF
:105A200006F070F8012373611521444814F052F90F
:105A30003A4812F017F80021414814F04BF9374862
:105A4000BDE8F84012F00EB814F044F92946334886
:105A500012F058F809213B4814F03CF9D9E7082125
:105A6000394814F037F92D4811F0FCFFAAE7374BFD
:105A70001B68984782E705F10F012F48FDF744F8AE
:105A8000C7E72A4806F056FB00F110012A48FCF748
:105A900011F8264805F0EEFE01462748FBF778FE90
:105AA0002548FBF71BFCB4E7217823481031FBF7AE
:105AB00025F9AEE73369FE2B12DDF37BFF2B92D085
:105AC0001A4806F095FAF27B904204D31146174823
:105AD00006F0E0FD87E71E491748FBF773FD82E7F4
