:1000000000000320D101000011890100C98801000E
:10001000C9880100C9880100C9880100C988010098
:10002000C9880100C9880100C9880100118901003F
:1000300011890100C988010019A401001DA5010052
:100040001189010011890100118901001189010044
:100050001189010011890100118901001189010034
:100060001189010011890100118901001189010024
:100070001189010011890100118901001189010014
:100080001189010011890100118901001189010004
:1000900011890100118901001189010011890100F4
:1000A000E9310100F53101001189010011890100D8
:1000B00011890100118901001189010065A5010064
:1000C0001189010091A6010011890100BDA701005D
:1000D00011890100B5A801001189010011890100F1
:1000E00011890100118901001189010011890100A4
:1000F0001189010011890100118901001189010094
:100100001189010011890100118901001189010083
:100110001189010019930100118901001189010061
:100120001189010011890100118901001189010063
:100130001189010011890100118901001189010053
:10014000017C010011890100ADA9010011890100A4
:100150001189010011890100118901001189010033
:10016000118901001189010001320100118901008A
:100170001189010011890100118901001189010013
:100180001189010011890100118901001189010003
:100190001189010011890100A5AA0100118901003E
:1001A00011890100118901001189010011890100E3
:1001B00011890100118901001189010011890100D3
:1001C00011890100118901001189010011890100C3
:1001D0005C4B4CF2205210B51A804DF628121A8052
:1001E00000BF00BF18F098FB574B4FF030621A6009
:1001F000564A9A60564ADA60564B4FF470021A60BB
:10020000554B564A1A60564B1A78110703D51A787F
:1002100042F008021A70534B5349AA221A70534AEB
:10022000534B8B4204D252F8040F43F8040BF8E707
:10023000504B514900228B4202D243F8042BFAE77B
:100240004E494F4A002352F8230041F8230001335E
:10025000742BF8D14B4B4C4A802103F8011B93427D
:10026000FBD14A4B454A1A60494B8A221A70A3F5C2
:10027000805324225A70A0221A709A799207FCD5D2
:100280009A79D406FCD4434A937903F00C03082BE3
:10029000FAD1414B60221A7002331A78802AFCD1BD
:1002A0003C4B01221A715D225A719A799006FCD555
:1002B0009979384A4906FBD5384B394919600021EC
:1002C000596020231370937903F00C030C2BFAD19F
:1002D000344B354A1A60354A354C136813F4807331
:1002E00003D123604FF4A8531360324B324A1A6093
:1002F00000225A60072243F8042C304AC3F80C2D20
:1003000062B618F079FE2368DA0705D52C4818F094
:10031000ABFD2C4B2C4A1A602C4B1B785B0609D585
:10032000284C294B22689A4204D1254818F09CFD9C
:10033000002323601EF0A2FB18F0F4FA18F022FA52
:10034000FEE700BF0E20054030800440823F0400DD
:100350000100002B88ED00E0002008E0030000858C
:1003600002D0074000E00740C07BFF1FE89F02006B
:10037000306FFF1FC07BFF1F34990020006AFF1FF2
:100380000000000000E400E064E400E008ED00E0AC
:10039000005006400040064001E007404480044011
:1003A0000000060204800440C010070010D0034083
:1003B00014D0034014E000E01FBF02000000202022
:1003C0004EE0AC5E1CE00340A5C3945A00F0074029
:1003D000FFFFFFFFFFFFFFFFFFFFFFFFFFFFFFFF2D
:1003E000FFFFFFFFFFFFFFFFFFFFFFFFFFFFFFFF1D
:1003F000FFFFFFFFFFFFFFFFFFFFFFFFFFFFFFFF0D
:10040000FFFFFFFFFFFFFFFFFFFFFFFFDEF9FFFF23
:1004100010B5054C237833B9044B13B10448AFF33E
:1004200000800123237010BDC07BFF1F000000006F
:10043000E49F0200084B10B51BB108490848AFF310
:1004400000800848036803B910BD074B002BFBD0A0
:10045000BDE81040184700BF00000000C47BFF1F2C
:10046000E49F0200C07BFF1F0000000010B52422A3
:10047000044600211EF0A2FE002384F8243084F8F4
:100480002530204610BD00BFF8B5074690F824007F
:100490000D461646E0B13A46002404E00134844299
:1004A00002F1030212D01178A942F7D19178994252
:1004B000F4D104EB44043C446670A370062D5ED86E
:1004C000DFE805F031161D242B1031000A2C2BDC3F
:1004D00000EB40017A18013087F824007D545670F3
:1004E0009370EBE72E492F48BDE8F84001F018B9AA
:1004F00032462D492B48BDE8F84001F07FBF324617
:100500002A492848BDE8F84001F078BF324628491A
:100510002448BDE8F84001F071BF26492148BDE8F4
:10052000F84001F0FDB8F8BD23491E4800F0C4FFB3
:100530000421224819F09AFD2146214817F0B0FC09
:100540001721204819F092FD00230A2297F8241061
:100550001B4817F065FC10211B4819F087FD0C2182
:10056000174817F09DFC0B21184819F07FFD29460C
:10057000134817F095FC124817F042FC9EE7144907
:10058000084800F099FF1521124819F06FFD29461F
:100590000B4817F085FC0A48BDE8F84017F030BC5E
:1005A00024500200C82E0020E44F0200F44F020045
:1005B0000050020010500200904F0200A44F0200B1
:1005C0001871FF1FAC4F0200C44F0200D84F020049
:1005D000345002004850020038B590F825300B2BFB
:1005E000044627D91F49204800F066FF17211F48FD
:1005F00019F03CFD00230A2294F825101C4817F03E
:100600000FFC17211B4819F031FD00230A2294F832
:100610002410174817F004FC1021174819F026FD84
:100620000C21134817F03CFC0025114817F0E8FB9B
:10063000284638BD03EB430317210C48E55C19F04D
:1006400015FD00230A2294F82510094817F0E8FB4D
:100650000B210A4819F00AFD2946054817F020FC2D
:10066000284638BD78500200C82E00206050020095
:100670001871FF1FAC4F0200C44F0200D84F020098
:1006800090F825300B2B04D803EB43031844407833
:10069000704710B513490446134800F00DFF1721A9
:1006A000124819F0E3FC00230A2294F825101048A0
:1006B00017F0B6FB17210F4819F0D8FC00230A22C7
:1006C00094F824100A4817F0ABFB10210A4819F0DF
:1006D000CDFC0C21064817F0E3FB054817F090FB12
:1006E000002010BD8C500200C82E00206050020077
:1006F0001871FF1FAC4F0200C44F020090F8253064
:100700000B2B04D803EB430318448078704710B5D3
:1007100013490446134800F0CFFE1721124819F080
:10072000A5FC00230A2294F82510104817F078FB46
:1007300017210F4819F09AFC00230A2294F824107C
:100740000A4817F06DFB10210A4819F08FFC0C21A4
:10075000064817F0A5FB054817F052FB002010BD16
:10076000A0500200C82E0020605002001871FF1F28
:10077000AC4F0200C44F020090F825300133DBB2C9
:100780000B2B80F825308CBF00200120704700BF64
:10079000002380F8253070470022134680F824207B
:1007A00080F82520C2540333242BFBD1704700BFAF
:1007B000FFF7F2BF70B5044615460E460846022103
:1007C00018F078FB2846022118F074FB104A114BF0
:1007D00052F83610012001F500762072266052F89A
:1007E0003520607202F5007500206560E060013B15
:1007F000FDD191F8003292F8002203F00103D207F4
:1008000044BF43F00203DBB2A372204670BD00BFB9
:10081000AC940200C0D4010090F814322DE9F047E6
:100820000746002B7CD1DFF80C82794AD8F800000B
:10083000D468784D784E92F809E092E80A0091F871
:10084000009093F800C0117A714B1CEA0E0F09EA70
:1008500001015DD09B7A03F0030309B143F0040367
:1008600043F008039910013B91720D2B0AD8DFE881
:1008700003F075077207096F75756F0907720775C1
:10088000013CD460A04219D0DFF89891DFF890A124
:10089000D9F80030002C2246B8BFE21C92109A42D0
:1008A000CAF8002008D04FF47A715C480EF0AEFB15
:1008B000DAF80030C9F80030C8F800402B686968E1
:1008C0001A78687A0C782B7A5249044202EA0302B9
:1008D00016D08B7A03F003030AB143F0040343F00C
:1008E00008039A10013BAA720D2B00F28180DFE809
:1008F00003F07B7766777F387B7B387F7766777B03
:100900008B7A03F00303002AEBD043F00403E8E7FB
:100910009B7A03F003030029A4D043F00403A1E76A
:100920003F4E404C40484149394ADFF80881394D33
:1009300000233360384E2360036087F814321C466E
:100940000B601846D360C8F80030EB60336072E784
:10095000023CD46096E70234D46093E70134D4605B
:1009600090E7EC68023CEC6007F5AE7016F0AAFF69
:100970002F4B00282DD11A68042A3BDC3268A41AB8
:1009800004EB840402EB44049442EC6026D01A6821
:10099000264D254F0132002C1A6022462B68B8BF25
:1009A000E21C92109A423A6006D040F2E9311B48AC
:1009B0000EF02CFB3B682B603460BDE8F087EC68E0
:1009C0000234EC6007F5AE7016F07CFF184B00287F
:1009D000D1D03268002194421960D8D1BDE8F087A7
:1009E000EC68013CEC60BFE7EC680134EC60BBE70D
:1009F000EC68B9E7092A326805DCA41A04EB840420
:100A000002EB8404C0E76421A41A01FB0424BBE7C1
:100A1000107CFF1F207CFF1F847CFF1FAC67002021
:100A2000547CFF1F5C7CFF1F587CFF1F607CFF1FF6
:100A3000DC7BFF1F7C7CFF1FF8B590F81432002B85
:100A400047D12F4D2F4A2868D468577A92E848003A
:100A5000197896F800E0137A2A4E1EEA070F01EA89
:100A600003012ED0B37A03F0030309B143F004036A
:100A700043F008039910013B91720D2B0AD8DFE86F
:100A800003F03C07390709363C3C36090739073C77
:100A9000013CD460A04213D01B4E1C4F3368002C85
:100AA0002246B8BFE21C92109A423A6006D04FF438
:100AB0007A71174804F0C6FF3B6833602C60F8BDBC
:100AC000F8BDB37A03F003030029D3D043F0040345
:100AD000D0E70E4E0C490B4A094D002380F8143222
:100AE0001C4633600B601846D3602B60ADE7023CB8
:100AF000D460CFE70234D460CCE70134D460C9E7D6
:100B00008C7CFF1F107CFF1FB47CFF1FB07CFF1F7D
:100B1000A82D00202DE9F84F002383461D460E46E0
:100B200080F87431994600F5D67A00F180081024D7
:100B3000012706E08BF8747101350134102DE4B201
:100B400016D05AF8043F002BF6D0B342F2D8DBF8A7
:100B50001032CAF800905B5D2146404653B901351A
:100B600012F02AFF0134102D8BF87571E4B2E8D130
:100B7000BDE8F88F12F0E0FE0028DDD121464046A6
:100B800012F0FCFE8BF87571D6E700BF38B5144C37
:100B90000C40002C1FDB031993F8A0516DB9012202
:100BA00083F8A021C9B2803012F0E8FE2A4621461F
:100BB0000C48BDE838400BF0DBBD002283F8A021D3
:100BC000C9B2803012F0F8FE214601220548BDE886
:100BD00038400BF0CDBD013C64F00F040134DAE77E
:100BE0000F0000800431002038B5144C0C40002C5C
:100BF0001FDB031993F8A0216AB90125C9B280301F
:100C000083F8A05112F0BAFE2A4621460C48BDE8EE
:100C100038400BF0C1BD0025C9B2803083F8A05127
:100C200012F0CAFE2A4621460548BDE838400BF0BE
:100C3000B3BD013C64F00F040134DAE70F0000801B
:100C40000431002038B5144C0C40002C1FDB031974
:100C500093F8A0216AB90125C9B2803083F8A05168
:100C600012F08CFE2A4621460C48BDE838400BF0B5
:100C700033BF0025C9B2803083F8A05112F09CFE2A
:100C80002A4621460548BDE838400BF025BF013C07
:100C900064F00F040134DAE70F0000800431002013
:100CA000154B0B40002B10B504461FDB234493F873
:100CB00080216AB9012283F88021C9B204F1800041
:100CC00012F05CFE012384F8153284F8143210BD52
:100CD000002283F88021C9B204F1800012F06CFE7A
:100CE000012384F8153284F8143210BD013B63F0FF
:100CF0000F030133DAE700BF0F0000802DE9F8434E
:100D000080460F4600F1800600F29F1510244FF038
:100D1000000903E00134E4B2202C0DD015F8013FA6
:100D2000002BF7D0214601343046E4B212F044FEE5
:100D3000202C85F80090F1D1094B3B40002B09DBBA
:100D400043440122F9B2304683F8A021BDE8F843BC
:100D500012F014BE013B63F00F030133F0E700BF54
:100D60000F000080F8B507464D1E00F180061024E4
:100D700005E00134E4B212F001FE202C0DD015F88C
:100D8000013F21463046002BF3D121460134304645
:100D9000E4B212F011FE202CF1D1012387F8753155
:100DA000F8BD00BF38B500F5D0750446C0F8105244
:100DB00000F29F13002200F2AF1003F8012F8342CC
:100DC000FBD106480BF0BCFA231801222946204625
:100DD00083F89F21BDE83840FFF7C4BF04310020ED
:100DE00038B505460C480BF05DFB05F5D071C5F82C
:100DF000101205F29F1305F2AF14002203F8012F21
:100E0000A342FBD12B180122284683F8A021BDE87C
:100E10003840FFF7A7BF00BF0431002038B50546B2
:100E20000C480CF04DF905F5D071C5F8101205F21B
:100E30009F1305F2AF14002203F8012FA342FBD148
:100E40002B180122284683F8A021BDE83840FFF77F
:100E500089BF00BFAC67002038B500F5D0750446E7
:100E6000C0F8105200F29F1300F2AF11002203F8F5
:100E7000012F8B42FBD12946044810220BF0F4F8D5
:100E800029462046BDE83840FFF76CBF04310020FA
:100E9000B64B1B6870B5013B00F5AA7504462846A1
:100EA0000C2B00F28480DFE803F04B4B6C4B4B8241
:100EB0004B4B4B25824B070016F0CCFC002840F032
:100EC000038104F5AE75284616F0C4FC002840F0F6
:100ED0009E8004F5B275284616F0BCFC002840F050
:100EE000518104F5B674204616F0B4FC002840F099
:100EF000D38070BD16F0AEFC002840F0D48004F51D
:100F0000AE75284616F0A6FC002840F0068104F5D0
:100F1000B275284616F09EFC002840F0AB8004F520
:100F2000B674204616F096FC0028E2D0204616F053
:100F3000D7FC002800F040818D4B0022DA6070BDA4
:100F400016F088FC002840F0DE8004F5AE752846D7
:100F500016F080FC002840F0F68004F5B2752846B3
:100F600016F078FC002864D104F5B674204616F01B
:100F700071FC0028BDD0204616F0B2FC0028DBD161
:100F800070BD16F067FC0028B3D0284616F0A8FC08
:100F9000002800F01281774A636A0021D160002B9B
:100FA00000F00C814FF47A70BDE87040184716F0DD
:100FB00051FC00284ED104F5AE75284616F04AFCC7
:100FC000002840F0AE8004F5B275284616F042FCC9
:100FD00060B904F5B674204616F03CFC002888D0B1
:100FE000204616F07DFC0028A6D170BD284616F0DC
:100FF00077FC0028EDD0604B002204F5B674DA606F
:10100000204616F027FC00283FF473AFE8E7284697
:1010100016F066FC00283FF45CAF584B002204F544
:10102000B275DA60284616F015FC00283FF459AF77
:10103000A8E0284616F054FC002895D04E4B00221C
:1010400004F5B674DA60204616F004FC00283FF47C
:1010500050AF90E7284616F043FC0028ABD0454B34
:10106000002204F5AE75DA60284616F0F3FB00287E
:10107000A9D056E0284616F033FC00283FF44FAFC5
:101080003D4B002204F5B674DA60204616F0E2FB10
:1010900000283FF42EAF49E7204616F021FC002837
:1010A0007FF44AAF70BD284616F01AFC00283FF4C2
:1010B00026AF304A636A0021D160002B3FF41FAF96
:1010C0004FF47A7098471AE7284616F009FC002872
:1010D0003FF4F7AE2A480BF09BF8421E54FA82F216
:1010E00092F8A03183F0010382F8A031002B5BD18C
:1010F00000F10F01C9B204F1800012F05DFC012380
:1011000084F87531DDE6284616F0EAFB00283FF446
:101110001CAF1B480BF07CF817E7284616F0E0FBE5
:10112000F5E6284616F0DCFB00283FF44CAF134BE5
:10113000002204F5B275DA60284616F08BFB002811
:101140003FF447AF52E7284616F0CAFB00283FF4A9
:1011500004AF0A4B002204F5B275DA60284616F097
:1011600079FB00283FF400AF63E700BFBC6FFF1FAF
:10117000407CFF1F107CFF1F307CFF1F207CFF1F67
:1011800004310020284616F0ABFB00283FF4A9AE3E
:101190000B4B002204F5B674DA60204616F05AFBB9
:1011A00000283FF4A6AE77E700F10F01C9B204F1C1
:1011B000800012F0E3FBA2E770BD70BD70BD00BF00
:1011C000307CFF1FA1F57A71032906D8DFE801F012
:1011D0000E0A0602074B0022DA607047064B002217
:1011E000DA607047054B0022DA607047044B00223A
:1011F000DA607047407CFF1F307CFF1F207CFF1FA0
:10120000107CFF1F70B500F586750446284616F061
:1012100021FB00B970BD284616F062FB0028F9D00A
:10122000A36ABDE87040184708B590F8A40017F00D
:101230002BFA084A1368C0F58040A3F16401884284
:1012400002DB6433984201DD106008BD4FF0FF30CF
:1012500008BD00BF6C7CFF1F08B590F8A80017F010
:1012600013FA074A1368A3F16401884202DB64336E
:10127000984201DD106008BD4FF0FF3008BD00BF8F
:10128000647CFF1F30B500F58A7483B005462046A4
:1012900016F0E0FA30B9204616F018FB80B90020AD
:1012A00003B030BD204616F01BFB0028F3D00A4BDC
:1012B0001B680193019BC5F8B030012003B030BD1D
:1012C00095F824320020042BC5F8B000E7D185F84A
:1012D0002402A5F82602E3E7CC940020054B82B057
:1012E0001B680193019B03F5FA63C0F8283202B032
:1012F000704700BFCC940020054B82B01B6801935F
:10130000019B03F5FA63C0F82C3202B0704700BFAE
:10131000CC940020F0B5B1B007462849284E684665
:10132000144616F057FF274904A816F053FF264924
:1013300008A816F04FFF25490CA816F04BFF2449CA
:1013400010A816F047FF234914A816F043FF2249BE
:1013500018A816F03FFF21491CA816F03BFF2049B2
:1013600020A816F037FF1F4924A816F033FF1E49A6
:1013700028A816F02FFF1D492CA816F02BFF86FB7E
:101380000426E317C3EB660606EB4601A4EB8101D6
:10139000C9B20DEB0111384616F030FFF1B23846F4
:1013A00016F0C0FF6D4630AC103C204616F0D2FE61
:1013B000AC42F9D1384631B0F0BD00BFE450020074
:1013C000ABAAAA2AE850020034520200EC500200F4
:1013D00044500200B4530200F0500200D8540200FE
:1013E000F4500200F8500200FC50020000510200CC
:1013F000F0B5144DDFF854E00E4617460FCD8FB010
:1014000002AC0FC40FCD0FC495E80F008EFB065E33
:10141000F517C5EB6E0584E80F0005EB450EA6EB4E
:101420008E060EABF6B203EB8606EDB256F8303CF4
:10143000054A0095384604211EF01CF938460FB0C5
:10144000F0BD00BFB450020004510200ABAAAA2AAA
:10145000014812F00BB900BF907CFF1F014812F049
:10146000FBB800BF907CFF1F10B5012200210D4882
:10147000FFF7A0F9032202210B48FFF79BF9052291
:1014800004210A48FFF796F9082206210848FFF7C9
:1014900091F92123232222210648BDE8104011F0B2
:1014A000B7BE00BF107CFF1F207CFF1F307CFF1FDA
:1014B000407CFF1F907CFF1F10B586B00B460A4C86
:1014C0000A4A684615211EF0D5F80022114620462A
:1014D00011F0CAFF68461EF053FB694602462046DB
:1014E00016F052FC06B010BD907CFF1F0C5102009C
:1014F00070B5324D044632480AF032FF2B68052B96
:10150000064645D0072B2AD0042B10D020462D4963
:10151000FFF7D2FF06212C4818F0A8FD29682B48B8
:1015200016F0BEFC2948BDE8704016F069BC68B1F1
:1015300004F29F140025294621480AF059FF01357D
:1015400080F00100B54204F8010FF4D109212048D0
:1015500018F08CFD1D48BDE8704016F051BC70B10C
:1015600004F29F140025294615480AF065FF01354D
:10157000003018BF0120B54204F8010FF3D10B2150
:10158000144818F073FD1148BDE8704016F038BCDF
:1015900058B104F29F140025294609480AF03AFF81
:1015A0000135B54204F8010FF6D109210A4818F0B7
:1015B0005DFD0648BDE8704016F022BCBC6FFF1F01
:1015C0000431002044510200745102001871FF1FC1
:1015D00038510200205102002C51020010B588B091
:1015E0000B4600920A4C0B4A02A815211EF042F845
:1015F00000221146204611F037FF02A81EF0C0FA63
:1016000002A90246204616F0BFFB08B010BD00BF7D
:10161000907CFF1F7C51020030B5D0F818120C4CA2
:101620000C4A87B00546013168461EF023F80021B8
:10163000C5F828122046022211F016FF68461EF057
:101640009FFA69460246204616F09EFB07B030BD61
:10165000907CFF1F9051020030B5D0F81C120C4C4A
:101660000C4A87B00546013168461EF003F8002198
:10167000C5F82C122046012211F0F6FE68461EF035
:101680007FFA69460246204616F07EFB07B030BD61
:10169000907CFF1F9051020010B5D0F8283282B024
:1016A00004462BB10E4A12680092009A934210D35E
:1016B000D4F82C325BB10A4A12680192019A934223
:1016C00005D22046FFF7C8FF0023C4F82C3202B031
:1016D00010BDFFF7A1FF0023C4F82832E8E700BFE0
:1016E000CC94002070B50D4D0C460646FFF794FFD4
:1016F00002220021284611F0B7FE20461EF040FAD3
:1017000021460246284616F03FFB20461EF038FAD6
:10171000142828BF1420C6F8180270BD907CFF1F43
:1017200070B5114D0C460646FFF776FF284602229B
:10173000002111F099FE20461EF022FA21460246B1
:10174000284616F021FB20461EF01AFAC6F81802A9
:1017500020461EF015FA0146204618F087FC034883
:10176000BDE8704016F04CBB907CFF1F1871FF1F46
:1017700010B586B00B460D4A0D4C152168461DF07C
:1017800079FF68461EF0FCF9C0F11001C9B220468D
:10179000002211F069FE68461EF0F2F96946024621
:1017A000204616F0F1FA06B010BD00BFA8510200A5
:1017B000907CFF1F70B50E4C05460E462046012258
:1017C000002111F051FE13220A49204616F0DCFADE
:1017D00020460222002111F047FE3146204616F035
:1017E000E9FA1323C5F81832C5F81C3270BD00BFE2
:1017F000907CFF1FAC5102002DE9F04F2DED028BC4
:1018000091B000F5C07103907C480AF0D9FB002824
:1018100040F09180039B0290FF2706468046814658
:1018200001900446BB463D46009703F27F1AB7EE8F
:10183000008A02E00134102C4FD01AF8012F002A40
:10184000F8D0224608A86D490AF0BCF99DF824207A
:101850000098824208D001990131CBB290420193A5
:10186000034628BF13460093DDED0D7AF4EE487A67
:10187000F1EE10FA03D0029A0132D3B20293F4EEE1
:10188000C87AF1EE10FA21465C48D8BFB0EE678AFC
:101890000AF08AFDA84207D0854209F1010928BF54
:1018A00005465FFA89F9EDB29DF839205A4506D010
:1018B00008F1010893455FFA88F828BF93469DF820
:1018C0003820BA42B6D0974204F1010406F101066D
:1018D00028BF1746102CF6B2AFD10122002148488C
:1018E00011F0C2FD12224749454816F04DFA29462B
:1018F00004A816F0A1FCB9F1010F25D9424920E056
:10190000424904A816F000FD069B112BF8D90222CB
:1019100000213B4811F0A8FD04A9394816F04AFA05
:10192000039C102312220DEB0300C4F81822C4F804
:101930001C3216F00FFC11B0BDEC028BBDE8F08F2D
:10194000324904A816F0E0FC069B022BF8D9594650
:1019500008A816F071FC08A904A816F0D1FC08A884
:1019600016F0F8FBB8F1010F05D9274900E0274927
:1019700004A816F0C9FC069B052BF8D9394608A81F
:1019800016F05AFC08A904A816F0BAFC08A816F02C
:10199000E1FB012E05D91C4900E01C4904A816F002
:1019A000B3FC069B082BF8D9009A039908A8FFF707
:1019B000B1FC08A904A816F0A3FC08A816F0CAFBFD
:1019C000019B012B05D9104900E0104904A816F02D
:1019D0009BFC069B0C2BF8D9B0EE480A022108A804
:1019E00016F03EFC08A904A816F08AFC08A816F018
:1019F000B1FB029B012B87D9034982E70431002008
:101A0000907CFF1FD4510200E85102002C520200CA
:101A100010B502220C460B48122111F025FD0A498F
:101A20000848022216F0B0F9082CD4BF1321122165
:101A30000448022211F018FD21460248BDE810407A
:101A400016F02EBA907CFF1F1C51020038B50446D8
:101A50000E480AF0D5F804F5D0710546C4F8101206
:101A600004F29F1304F2AF10002203F8012F834207
:101A7000FBD163190122204683F8A021FFF772F9F8
:101A800029462046BDE83840FFF7C2BF0431002098
:101A900010B503220C460B48122111F0E5FC0A494F
:101AA0000848022216F070F9082C94BF1321122165
:101AB0000448032211F0D8FC611C0248BDE8104024
:101AC00016F0EEB9907CFF1F1C51020030B5204B80
:101AD0001B7883B004460D461BB91E4B1B68092BAF
:101AE00012D01D48A46B0AF099F81C49294000291E
:101AF000024604DBC9B20220A04703B030BD013961
:101B000061F00F010131F5E7FFF7F8F813492940BB
:101B1000002918DBCDB229460F480AF097F80E4885
:101B20000AF060F801462046FFF7FAFD0C4B1B68EF
:101B30000193019B03F5FA632946C4F82832204635
:101B4000FFF7A6FFD9E7013961F00F010131E1E7A5
:101B5000FD660020BC6FFF1F043100200F000080D5
:101B6000CC94002010B502220C460D480F2111F034
:101B70007BFC0C490A48022216F006F9092C4FF0AA
:101B8000020294BF10210F21054811F06DFC21467F
:101B900000230A220248BDE8104016F041B900BFF8
:101BA000907CFF1F1C51020038B504460E480AF015
:101BB00035F804F5D0710546C4F8101204F29F13ED
:101BC00004F2AF10002203F8012F8342FBD1631906
:101BD0000122204683F89F21FFF7C4F829462046BA
:101BE000BDE83840FFF7BEBF0431002038B5594D7D
:101BF0002B68013B04460C2B00F2A180DFE803F0C8
:101C00005F6B6D07071A0726313C4A948900002351
:101C100000F5D075026A4362012380F83132C0F8C2
:101C200010528262FFF764FC29462046BDE8384026
:101C3000FFF798B8036A8362002200F5C071426220
:101C4000C0F81012BDE83840FFF78CB88368026A0C
:101C50004362012380F831328262BDE83840FFF7E9
:101C6000A1B80023026A4362012380F83132826204
:101C7000BDE83840FFF7B4B8C36A026A4362012383
:101C800080F831328262FFF7C9F83348BDE8384046
:101C90000CF092B8036A836200F5D07100224262B0
:101CA000C0F8101200F29F1300F2AF1003F8012FDA
:101CB0008342FBD12046BDE83840FFF753B8C368E4
:101CC000226A63620123A26284F831322046BDE8B1
:101CD0003840FFF7BBBE0369F2E7036B026A436259
:101CE00000F5D0710123826280F83132C0F8101201
:101CF00000F29F13002200F2AF1003F8012F83427D
:101D0000FBD12046FFF72EF81448BDE8384003F019
:101D1000F5BC0023026A4362012380F831328262FB
:101D2000BDE83840FFF798B8436B026A436201236D
:101D300080F831328262BDE83840FFF735BF292193
:101D4000074818F093F929680648BDE8384016F0AE
:101D5000A7B800BFBC6FFF1FAC670020A82D0020F4
:101D6000EC5102001871FF1F134A144B126870B532
:101D700053F82250124C86B0064628461DF000FF4C
:101D8000D6F820120F4AC6F820028142B8BF014699
:101D90002B46013168461DF06DFC204601220021D2
:101DA00011F062FB68461DF0EBFE694602462046D4
:101DB00015F0EAFF06B070BDBC6FFF1F7C6FFF1F00
:101DC000907CFF1F1852020070B500F5927586B026
:101DD0000446284615F03EFD002840F0258128469F
:101DE00015F074FD002840F0E88004F59A75284647
:101DF00015F030FD002840F0F380284615F066FD10
:101E0000002840F0A38004F59675284615F022FDC1
:101E1000002840F0AE80284615F058FD002870D10B
:101E200004F59E75284615F015FD002873D1284647
:101E300015F04CFD00283FD104F5A275284615F099
:101E400009FD002842D1284615F040FD70B904F57F
:101E5000A675284615F0FEFC90B9284615F036FD0B
:101E600010B10023C4F8CC3006B070BD002304F5D7
:101E7000A675C4F8C830284615F0ECFC0028ECD054
:101E8000284615F02DFD0028E7D02046FFF7C4FBBB
:101E9000964B092220461A60FFF7A8FE2046FFF75E
:101EA00063FF934B1B680593059BC4F8CC3001235B
:101EB00084F8143206B070BD002304F5A275C4F88E
:101EC000C430284615F0C6FC0028BCD0284615F0C2
:101ED00007FD0028B7D02046FFF79EFB834B082262
:101EE00020461A60FFF782FE2046FFF73DFF804B39
:101EF0001B680493049BC4F8C830012384F814328F
:101F0000A5E7002304F59E75C4F8BC30284615F0FB
:101F1000A1FC00288BD0284615F0E2FC002886D0D2
:101F20002046FFF779FB714B072220461A60FFF726
:101F30005DFE2046FFF718FF6D4B1B680393039B64
:101F4000C4F8C430012384F8143275E794F82422CD
:101F50000023032A04F5967504BF84F82432A4F8FC
:101F60002632C4F8C030284615F074FC00283FF42F
:101F700052AF284615F0B4FC00283FF44CAF204681
:101F8000FFF74AFB594B1A68052A00F08C80042A97
:101F900000F09480574A12681A602046FFF726FE28
:101FA0002046FFF7E1FE524B1B680293029BC4F8E8
:101FB000BC30012384F8143232E794F82422002341
:101FC000022A04F59A7504BF84F82432A4F8263254
:101FD000C4F8B830284615F03DFC00283FF40DAF9A
:101FE000284615F07DFC00283FF407AF2046FFF798
:101FF00013FB3E4A1368062B50D00C2B58D00D2BE8
:1020000042D03D4B1B6813602046FFF7EFFD204692
:10201000FFF7AAFE364B1B680193019BC4F8C03042
:10202000012384F81432EEE6284615F059FC002806
:102030003FF4D5AE2046FFF7EFFA2C4A1368012B88
:1020400027D0022B3FD0032B14D00A2B45D02B4B8B
:102050001B6813602046FFF7C9FD2046FFF784FE8A
:10206000234B1B680093009BC4F8B830012384F80D
:102070001432BAE6214D224901264FF0FF300A23DF
:102080002E6008601360E5E71B4906230B601360B0
:10209000BAE71A48022103601160DBE716480C21F9
:1020A00003601160B0E7134904220A601A6074E704
:1020B000114906200D2308601360A5E70D4905228C
:1020C0000A601A6069E70D4D0D4901264FF0FF3097
:1020D00003232E6008601360BCE7084D0849012304
:1020E0004FF0FF302B6013600860B3E7BC6FFF1F39
:1020F000CC940020386FFF1F346FFF1F3C6FFF1F11
:10210000B86FFF1F70B5044616480E4609F086FDED
:1021100006F00F030133984206D004F5D071204633
:10212000BDE87040FEF71EBE054631462046FEF76C
:10213000E5FD29462046FFF715FD0A480AF0B2F9E9
:1021400001462046FFF7A4FC074B062220461A60F2
:10215000FFF74CFD2046FFF707FE012384F81432F9
:1021600070BD00BF04310020BC6FFF1F10B50022FE
:102170000C461248112111F077F9032210490F483B
:1021800015F002FE632C4FF000020CDC092CCCBFD2
:1021900012211321094811F067F921460748BDE8CB
:1021A000104015F07DBE1121044811F05DF9214663
:1021B0000248BDE8104015F073BE00BF907CFF1FC1
:1021C000CC51020010B501220C461248112111F029
:1021D0004BF9032210490F4815F0D6FD092C4FF09A
:1021E00001020CDD632CD4BF12211121094811F02A
:1021F0003BF921460748BDE8104015F051BE1321B8
:10220000044811F031F921460248BDE8104015F0AC
:1022100047BE00BF907CFF1FCC510200F0B587B0D5
:1022200005460C9F0D9E0E9C0F9829606A601499BC
:10223000159AAB60EF60109B119F2E616C61129E2E
:10224000139C6963AA63EB61A8612F62EE622C6341
:1022500005F1A80305F1D001002243F8042F9942AB
:10226000FBD105F27F1205F28F13002102F8011F46
:102270009A42FBD105F29F11002203F8012F9942E7
:10228000FBD105F5D67305F5F671002243F8042F4E
:102290009942FBD105F2EF1305F20F21002203F85A
:1022A000012F9942FBD1762475217422732305F105
:1022B000800677270394029101920093304672239F
:1022C00004977122702111F06FFCEB6B002BC8BFDB
:1022D000002420DD2146304611F050FB304611F03D
:1022E000BDFC0A2016F036FE0134EB6BE4B29C42D2
:1022F000F0DB002B0FDD00242146304611F05CFBA3
:10230000304611F0ABFC0A2016F024FE0134EB6BD2
:10231000E4B29C42F0DB142016F01CFE2846FFF7C6
:1023200065FC2846FFF720FD0F480EF0CBFD014667
:102330002846FFF71BFF0C480EF0C6FD0146284655
:10234000FFF740FF09480AF0ADF801462846FFF7BD
:102350009FFB064809F062FC0146284607B0BDE82D
:10236000F040FFF7FFBB00BFD090002004310020F9
:10237000F8B51F4C1F4F154600220E462046114649
:1023800011F072F8204611221B4915F0FDFC0022C5
:102390001146204611F068F830461DF0F1FB314639
:1023A0000246204615F0F0FC20460122002111F0E3
:1023B0005BF828461DF0E4FB29460246204615F04E
:1023C000E3FC30461DF0DCFB0146304617F04EFEC4
:1023D000384615F015FD28461DF0D2FB014628466B
:1023E00017F044FE3846BDE8F84015F009BD00BFBF
:1023F000907CFF1F1871FF1F1C520200B0B588B0FF
:1024000002AF04460B4600921521164A164D384677
:102410001DF030F938461DF0B3FBD4F81832C4F87B
:10242000180298420146B8BF194601F1080323F08B
:102430000703ADEB030D02AC3B460C4A01312046CD
:102440001DF018F928460222002111F00DF820464F
:102450001DF096FB21460246284615F095FC1837DC
:10246000BD46B0BD30520200907CFF1F18520200E2
:102470002DE9F04790F8313282B00546002B40F04C
:102480008280584E584A3068D46892F809E092E841
:102490008800197897F800C0137A534F1CEA0E0F82
:1024A00001EA03015AD0BB7A03F0030309B143F0F8
:1024B000040343F008039910013B91720D2B0AD8D5
:1024C000DFE803F05E075807095B5E5E5B090758AB
:1024D000075E013CD460C31EA34202DC0330A0426D
:1024E00039DA424809F09AFB3368E31A48BF0333EC
:1024F00000EBA307002F39DC0127DFF80081D8F8B3
:1025000000309F4226D05FFA87F94946374809F0E4
:10251000B1FC3A4636492846FFF770FF354B364A3C
:102520001B680193019B126803F5FA630C2AC5F836
:10253000283239D049462846FFF714FB2B4809F0CA
:10254000B1FF01462846FFF7A3FA2846FFF74EFBE6
:10255000C8F80070346002B0BDE8F087BB7A03F0C1
:1025600003030029A7D043F00403A4E7022FA8BF68
:102570000227C2E70234D460ADE7023CD460AAE788
:102580000134D460A7E7002380F831321748154E94
:1025900009F044FB1949144A086003B29B001C4629
:1025A00018463360D36070E7D8F80030E8192B4440
:1025B000002209F10F014FF0010A05F1800980F8AE
:1025C0009FA1C9B283F89F21484611F0D7F9D8F8E6
:1025D00000100F314846C9B211F0EEF985F875A127
:1025E000B6E700BF807CFF1F107CFF1F0431002076
:1025F00038520200CC940020BC6FFF1FF07BFF1FFD
:102600002DE9F041A84D2DED028B2B68DA0782B041
:10261000044640F1EB81A54D2B68DB0740F1D781E3
:1026200094F81432002B40F0AF81A14DA14E2B68DD
:1026300069681A78687A0F782B7A9D49074202EA0E
:1026400003021DD08B7A03F003030AB143F00403A5
:1026500043F008039A10013BAA720D2B00F2688127
:10266000DFE813F0540150014C01500166011600DF
:10267000540154011600660150014C0150015401EF
:102680008B7A03F00303002AE4D043F00403E1E76C
:10269000EB68023BEB6007EE903A9FED876A96EDA0
:1026A000007ADFED866AF8EEE77A87EE868A77EEC3
:1026B000267AB4EEE78AF1EE10FA06DA37EE667A99
:1026C000B4EEC78AF1EE10FA40D87D4BDFED7D7A8B
:1026D000D3ED006AB1EE007AE6EEC77AB4EEE78A8F
:1026E000F1EE10FA40F13A81B9EE008A26EE888ABE
:1026F000DFED717A68EE277AFDEEE77AC5ED037AB1
:10270000714D724F95ED000AF5EE007A68EE277A6A
:10271000F4EE407AF1EE10FAC7ED007A40F07581E0
:102720009FED650A6A4967EE807A2046FDEEE77AFA
:1027300017EE902AFFF762FE664B86ED008A1B6853
:102740000193019B03F5FA63C4F82832624A1368C7
:10275000506819780578507A137A054201EA030126
:1027600000F0F380937A03F0030309B143F004030C
:1027700043F008039910013B91720D2B00F2D680B3
:10278000DFE813F0D000C800CC00C800D4000E0071
:10279000D000D0000E00D400C800CC00C800D0008B
:1027A000D568023DD5604D4E3368DA1EAA4202DC80
:1027B000DA1CAA421DDA4A4FDFF83C81EA1A3B686C
:1027C000D8F8001048BF033203EBA203082BA8BFC0
:1027D000082323EAE37399423B6006D01946414837
:1027E0000EF06AFB3968C8F800102046FFF7EAFCD3
:1027F00035603D4A1368506819780578507A137A25
:10280000054201EA030100F09780937A03F0030385
:1028100009B143F0040343F008039910013B91729E
:102820000D2B00F28780DFE803F03B373337850755
:102830003B3B07853733373BD568023DD5602B4E90
:102840003068C31EAB4202DCC31CAB421BDA284A11
:10285000281A136848BF033003EBA000002840F398
:10286000E280B0F5967FA8BF4FF49670214F1060BC
:102870003B68DFF87C80984204D063699847D8F8B9
:1028800000303B60356002B0BDEC028BBDE8F081EA
:10289000D5680235D560D2E7D568013DD560CEE771
:1028A000D5680135D560CAE70C7CFF1F047CFF1F8B
:1028B000207CFF1F687CFF1F0000C8420AD7233D11
:1028C000707CFF1F00000000AC7CFF1FE47BFF1F3B
:1028D00040520200CC940020307CFF1FBC7CFF1FC4
:1028E000007CFF1FD0900020407CFF1F087CFF1F52
:1028F000787CFF1FE87BFF1FFC7BFF1FEB68023328
:10290000EB60C8E6EB68013BEB60C4E6EB680133C3
:10291000EB60C0E6D568013DD56044E7D568023577
:10292000D56040E7D5680135D5603CE7D5683AE722
:10293000EB68B0E6D56882E7937A03F003030029D9
:102940003FF46BAF43F0040367E7937A03F00303AC
:1029500000293FF40FAF43F004030BE7334BD3EDF3
:10296000007A27EE877AB4EEC78AF1EE10FA7FF785
:10297000C7AEDFED2F7A67EE277AB0EE478AFDEE1D
:10298000E77AC5ED037ABBE62A482B4DDFF8C4E0B1
:102990002A4E0023002204F5C077036084F8142235
:1029A000EA6039462648CEF80030336009F0EAFD87
:1029B000244B234883ED000A394609F021FEF7EE47
:1029C000007A37EEC00A194B83ED000A2FE628463D
:1029D00015F0C2FF00283FF423AE1B480EF074FA36
:1029E0001A4B1860284615F0BDFF19E6284615F069
:1029F000B3FF00283FF40FAE13480EF061FA144BFA
:102A00001860284615F0AEFF05E637EEC00A94F8C8
:102A100030220B4804F5C07109F076FFD7ED007A3B
:102A2000C5ED007A7CE6012020E700BF747CFF1F23
:102A30000000C842E47BFF1F207CFF1F687CFF1F53
:102A400004310020707CFF1FD0900020007CFF1F0D
:102A5000787CFF1FAC7CFF1F384B1B680D2B00D010
:102A600070472DE9F041364BCFB20B4007F00F060F
:102A7000002B82B006F1010639DBC418054694F834
:102A8000A0317BB12F4B93F80080B8F1000F33D108
:102A9000424631462C4809F05DFB002838D102B08F
:102AA000BDE8F081274B1B78DBB90122314626486F
:102AB00009F050FB30B3012384F8A031394605F109
:102AC000800010F05BFF324620492846FFF796FC55
:102AD0001F4B1B680193019B03F5FA63C5F828326D
:102AE000DDE7836B3246012104209847D7E7013B9D
:102AF00063F00F030133C0E7836B324600210420EB
:102B00009847CCE7394605F1800010F055FFC6E73D
:102B1000394605F1800084F8A08110F04DFF32465F
:102B20000C492846FFF76AFC094B1B680093009B81
:102B300003F5FA63C5F82832B1E700BFBC6FFF1F89
:102B40000F000080FD660020043100205C5202006E
:102B5000CC9400204C52020010B5013A8CB00446CF
:102B6000032A6BD8DFE802F052371D0240F6B83373
:102B7000994200F086806AD941F28833994200F088
:102B8000AA8041F65833994264D15F49FEF7C8FDE7
:102B90005E4B1B680B930B9B03F5FA63C4F828325A
:102BA00053E040F6B833994277D050D941F2883398
:102BB000994200F09C8041F6583399424AD15449D9
:102BC000FEF7AEFD514B1B680893089B03F5FA63B3
:102BD000C4F8283239E04F4A40F6B83399421268B7
:102BE0003DD034D941F28833994262D041F658330E
:102BF00099422FD14849FEF793FD444B1B6805933A
:102C0000059B03F5FA63C4F828321EE0434801919E
:102C10000AF01EF9019940F6B83399422BD016D923
:102C200041F28833994250D041F65833994211D13C
:102C300002463B492046FFF7E1FB06E03949FEF733
:102C40003BFC3A21384817F011FA0CB010BDB1F531
:102C50007A7FFAD02046FEF7DFFC0CB010BD334976
:102C6000FFF7CCFB294B1B680393039B03F5FA6327
:102C7000C4F82832E9E702462C492046FFF7BEFB9C
:102C8000E3E72B49FEF74CFD204B1B680993099B9A
:102C900003F5FA63C4F82832D7E72649FEF740FD6A
:102CA0001A4B1B680693069B03F5FA63C4F8283297
:102CB000CBE72149FFF7A2FB144B1B680493049B4D
:102CC00003F5FA63C4F82832BFE702461B492046E1
:102CD000FFF794FBB9E71A49FEF722FD0B4B1B687F
:102CE0000A930A9B03F5FA63C4F82832ADE7154945
:102CF000FEF716FD054B1B680793079B03F5FA6368
:102D0000C4F82832A1E700BF10530200CC94002081
:102D1000DC520200B86FFF1FA8520200AC6700200F
:102D20008852020018530200285302006852020021
:102D3000E8520200B8520200985202007852020093
:102D400000530200CC520200B1F57A7F38B504D8A6
:102D5000B0F8264294B3002038BD40F6B834A14202
:102D600012D8B0F82612B1F57A7FF4D1A0F8264235
:102D70002146FFF7F1FE0821284817F077F9284887
:102D800015F03EF8002038BD41F28835A94222D91D
:102D900041F65834A142B0F826122ED8A942DAD111
:102DA000A0F826422146FFF7D7FE04211D4817F060
:102DB0005DF91B4815F024F8002038BD4FF47A72F5
:102DC000A0F826220B21184817F050F9144815F0E6
:102DD00017F8204638BDB0F82612A142BBD1A0F8A2
:102DE00026522946FFF7B8FE0621104817F03EF993
:102DF0000B4815F005F8012038BDA142ABD10024E5
:102E0000A0F826422146FFF7A7FE0821084817F040
:102E10002DF9034814F0F4FF204638BD705302002A
:102E20001871FF1F84530200645302007C53020098
:102E30008C530200B0B588B002AF044601930092F3
:102E40000B46174A174D152138461CF013FC38461F
:102E50001CF096FED4F81832C4F8180298420146C5
:102E6000B8BF194601F1080323F00703ADEB030DCA
:102E700002AC3B460C4A013120461CF0FBFB2846C5
:102E80000222002110F0F0FA20461CF079FE2146C3
:102E90000246284614F078FF1837BD46B0BD00BF83
:102EA00098530200907CFF1F185202002DE9F04158
:102EB00090F8143282B00546002B40F082804E4FCD
:102EC0004E4E3B6879681A78787A0C783B7A4A4992
:102ED000044202EA030215D08B7A03F003030AB11D
:102EE00043F0040343F008039A10013BBA720D2B20
:102EF00065D8DFE803F058605C60640F58580F64D1
:102F0000605C60588B7A03F00303002AECD043F036
:102F10000403E9E7FC68023CFC603368DA1CA24267
:102F200002DB033BA3423BDD354B1B78C3EB8373D2
:102F30009B00A34204DC334B1B789B00A34201DAC5
:102F4000FB601C46304FDFF8D0803A68002C2346E7
:102F5000B8BFE31C9B109342C8F800301FD09A1AE8
:102F6000D2B295F83032294805F5C07109F048FC15
:102F7000D8F80080C7F8008001466A462846FEF768
:102F800037FA4246034622492846FFF753FF214BB2
:102F90001B680193019B03F5FA63C5F8283234607E
:102FA00002B0BDE8F081FC680134FC60B5E7FC6864
:102FB0000234FC60B1E7FC68013CFC60ADE7FC68F2
:102FC000ABE715490C4F104A0C4E1048002305F58D
:102FD000C0740B60FB6021461360336009F072FA25
:102FE000074B21461870094809F09CFA054BC0F1BF
:102FF0007F00187065E700BF107CFF1FF87BFF1F84
:10300000507CFF1FF47BFF1FE07BFF1F043100207B
:10301000A4530200CC940020EC7BFF1F134B1A68D2
:103020000D2A10B5044609D80123934043F2B63265
:103030001A405AB91A0714D45B050ED42046FFF77C
:1030400035FF2046BDE81040FFF7DABAFFF710FA67
:103050002046BDE81040FFF7D3BABDE81040FDF7A9
:10306000DBBBBDE81040FDF7E7BC00BFBC6FFF1F36
:10307000F0B58DB01D4D9DF848409DF84CE09DF891
:103080005070CDF80CE00134019306464B1C0092C1
:103090000294049707A8164A164C14211CF0EAFA69
:1030A00028460222002110F0DFF907A81CF068FD75
:1030B00007A90246284614F067FE07A81CF060FD29
:1030C000C6F81802204614F09BFE14210A4816F098
:1030D000CDFF07A81CF054FD014607A816F0C6FF57
:1030E000204614F08DFE0DB0F0BD00BF907CFF1F98
:1030F000B85302001871FF1FD0530200F8B5184DE5
:103100000C4617460646FEF787FA0222002128469B
:1031100010F0AAF920461CF033FD2146024628464D
:1031200014F032FE20461CF02BFD0222C1B22846CC
:1031300010F09AF93946284614F0B2FE20461CF0E9
:103140001FFD0222C1B2284610F08EF920461CF065
:1031500017FD0630142828BF1420C6F81802F8BD41
:10316000907CFF1F70B51E4D82B00C468DED010A9C
:103170000646FEF751FA28460222002110F074F9A3
:1031800020461CF0FDFC21460246284614F0FCFDBA
:1031900020461CF0F5FC0222C1B2284610F064F96A
:1031A0009DED010A10EE100A1BF096F841EC100B91
:1031B0000221284614F07CFE20461CF0E1FC02228D
:1031C000C1B2284610F050F920461CF0D9FC063058
:1031D000142828BF1420C6F8180202B070BD00BF22
:1031E000907CFF1FF8B51C4D0C4616460746FEF7AF
:1031F00013FA02220021284610F036F920461CF06E
:10320000BFFC21460246284614F0BEFD20461CF0B5
:10321000B7FC0222C1B2284610F026F930461CF055
:10322000AFFC31460246284614F0AEFD20461CF0A5
:10323000A7FC0222C1B2284610F016F920461CF065
:103240009FFC044630461CF09BFC2044142828BFF9
:103250001420C7F81802F8BD907CFF1F2DE9F0413B
:103260001D4D1F460C4616468046FEF7D5F9022234
:103270000021284610F0F8F820461CF081FC214679
:103280000246284614F080FD20461CF079FC0222FC
:10329000C1B2284610F0E8F830461CF071FC314607
:1032A0000246284614F070FD20461CF069FCC11946
:1032B000C9B20222284610F0D7F820461CF060FC64
:1032C000044630461CF05CFC2044142828BF14201F
:1032D000C8F81802BDE8F081907CFF1F08B50322F2
:1032E0001121094810F0C0F8084B1B7801222BB9B6
:1032F00007490548BDE8084014F046BD05490248A5
:10330000BDE8084014F040BD907CFF1F40910020B4
:103310002C520200E853020010B50446032290F834
:1033200078110B4810F0A0F8D4F81022D4F87831B6
:10333000D35C01222BB907490548BDE8104014F0C1
:1033400023BD05490248BDE8104014F01DBD00BF73
:10335000907CFF1F2C520200EC5302002DE9F04F2D
:103360000446102300F1440720268FB0036404F1C3
:103370006208E6633846002510F07CFA404610F0FB
:1033800079FA4246394604950395029501950095D0
:103390002B4604F1800010F06FFAC4F804611A267D
:1033A000C4F8E860192604F58673C4F8EC601B269F
:1033B0004FF0250C4FF0240E1E2107931F220523EA
:1033C000C4F8F0604FF0420B4FF0430A4FF027096A
:1033D0004FF0260818271D201C26C4F8DCC0C4F8AE
:1033E000E0E0C4F80831C4F8FC10C4F80021C4F8C7
:1033F000A4B0C4F8A8A0C4F8D49004F58A7AC4F89C
:10340000D880C4F8E470C4F8F460C4F8F8000798F1
:1034100014F000FA504614F0FDF904F58E7904F525
:1034200092721646484614F0F5F904F59672304645
:103430001746089614F0EEF904F59A710E463846D0
:10344000099714F0E7F904F59E7130460F460A9685
:1034500014F0E0F904F5A270064638460B9714F014
:10346000D9F904F5A6700746304604F5AA7B0C96F8
:1034700014F0D0F9384604F5AE780D9714F0CAF977
:10348000584614F0C7F904F5B277404614F0C2F973
:1034900004F5B676384614F0BDF9304614F0BAF9A2
:1034A000FF22012384F8302284F8313284F87451E9
:1034B00084F8755184F8145284F81552C4F81852DF
:1034C000C4F81C52C4F8205284F82452A4F826529E
:1034D0004A21714816F0CAFD704814F091FC2B4641
:1034E0006F48042214210FF0E3FF0A226D496C4853
:1034F00014F04AFC94F8A400022115F0DBFC94F8C7
:10350000A800022115F0D6FC94F8D800022115F08D
:10351000D1FC94F8D400022115F0CCFC94F8DC0026
:10352000022115F0C7FC94F8E000022115F0C2FC5E
:1035300094F8E400022115F0BDFC94F8E8000221A3
:1035400015F0B8FC94F8EC00022115F0B3FC94F8E7
:10355000F000022115F0AEFC94F8F400022115F001
:10356000A9FC0798D4F8D81014F05CF95046D4F8A8
:10357000D41014F057F94846D4F8DC1014F052F97E
:103580000898D4F8E01014F04DF90998D4F8E41034
:1035900014F048F90A98D4F8E81014F043F90B989D
:1035A000D4F8EC1014F03EF90C98D4F8F01014F0A4
:1035B00039F90D9DD4F8F410284614F033F9079822
:1035C000B4F8081114F044F95046B4F8081114F096
:1035D0003FF94846B4F8081114F03AF90898B4F8DD
:1035E000081114F035F90998B4F8081114F030F9FD
:1035F0000A98B4F8081114F02BF90B98B4F80811D4
:1036000014F026F90C98B4F8081114F021F92846A2
:10361000B4F8081114F01CF994F8F800022115F020
:1036200049FC94F8FC00022115F044FC94F80001D8
:10363000022115F03FFC94F80401022115F03AFC38
:103640005846D4F8F81014F0EDF84046D4F8FC10C1
:1036500014F0E8F83846D4F8001114F0E3F83046D6
:10366000D4F8041114F0DEF85846B4F8081114F038
:10367000EFF84046B4F8081114F0EAF83846B4F808
:10368000081114F0E5F83046B4F8081114F0E0F829
:1036900020460FB0BDE8F08FF05302001871FF1FF5
:1036A000907CFF1F3C54020070B516460C46054640
:1036B000C9B203221F480FF0D7FEFEB92B1993F8A9
:1036C0008061D5F878317EB99C422BD021461A48CA
:1036D00008F07CFE012818D9334601460A22154815
:1036E000BDE8704014F09CBB9C424FF0010213D027
:1036F00012491048BDE8704014F046BB0122104941
:103700000C48BDE8704014F03FBB01220D49094848
:10371000BDE8704014F038BB0B490648BDE8704066
:1037200014F032BB012209490248BDE8704014F090
:103730002BBB00BF907CFF1F04310020EC53020024
:10374000E85102002C52020048540200B4890200E1
:1037500070B5441800220F29054684F8F0211FD9BE
:1037600001F00F060C463146FFF79EFF12211B4861
:1037700016F07CFC31461A4814F092FB184814F0FD
:103780003FFB95F83032A34204BFFF2385F8303267
:10379000144B1B680A2B09D00B2B00D070BD21469F
:1037A00005F18000BDE8704010F006B92846FDF72D
:1037B00033FF95F824220C480023012AC5F8D030A5
:1037C00004BF85F82432A5F8263231460AF02AFBD8
:1037D0002846BDE87040FDF721BB00BF4C540200F5
:1037E0001871FF1FBC6FFF1FAC67002070B50D463E
:1037F0001646D0F87C1100220446FFF755FF03223D
:10380000E9B209480FF030FE012236B907490648EF
:1038100014F0BAFAC4F87C5170BD0549024814F09E
:10382000B3FAC4F87C5170BD907CFF1FB4890200CC
:1038300048540200D0F8103270B55D5CC0F87811C1
:10384000103104461646C9B2803095B110F0B4F874
:103850000122D4F878112046FFF7C8FFD4F8783158
:103860006C33012244F8236084F8742184F87521B4
:1038700070BD10F083F82A46D4F878112046FFF77F
:10388000B5FFEBE72DE9F041012186B00546484838
:103890000FF00EFB0021122015F00CFB012113206C
:1038A00015F008FB0121132015F0F0FA0B26122069
:1038B00015F0F2FA30B9013E01464FF496744FF01C
:1038C000130067D175217422732305F180067727D1
:1038D0007624029101920093304672230497039458
:1038E0007122702110F060F9EB6B002B09DD0024D0
:1038F0002146304610F060F80134EB6BE4B29C4294
:10390000F6DB304610F0AAF905F29F1305F2AF116D
:10391000002203F8012F8B42FBD16FF4BF76761B98
:1039200005F27F1405F28F180027311904F8017F82
:1039300000222846FFF7B8FE4445F6D105F5D673B8
:1039400005F5F670002143F8041F83424FF0000292
:10395000F9D1184B85F8152201240622284685F84E
:1039600014421A60FEF742F92846FEF7FDF91248A4
:103970000DF0A8FA01462846FEF7F8FB0E480DF0B8
:10398000A3FA01462846FEF71DFC85F8744106B0EF
:10399000BDE8F08115F07AFA2346013BFDD1012103
:1039A000132015F073FA2346013BFDD17FE700BFDA
:1039B0003070FF1FBC6FFF1FD090002030B5D0F8D3
:1039C000B83087B00446A3B1374A12680292029910
:1039D000C91A0ED0354D2B680222013380F82422FB
:1039E0005AD002222046FFF7AFF9002847D107B08E
:1039F00030BDD4F8D030ABB12B4A12680392039992
:103A0000C91A0FD0012284F824222046FFF79CF91E
:103A10000028ECD0264809F01BFA0146244809F09A
:103A200013FBE4E7D4F8C0308BB11F4A126804924C
:103A30000499C91A0BD0032284F824222046FFF7E8
:103A400083F90028D3D02046FFF71CFFCFE7D4F836
:103A5000B030002BCBD0144A126805920599C91AD0
:103A6000C5D0042284F824222046FFF76DF90028EF
:103A7000BDD0104808F030FAE3699847B7E72968E5
:103A80000C4807F0DFFE20462968FDF7C1FF4FF024
:103A9000FF332B6007B030BD0648019108F0B0F845
:103AA000019928609DE700BFCC940020B86FFF1FEC
:103AB000AC670020043100202DE9F04F00F58E7531
:103AC00085B00446284613F0C5FE10B905B0BDE820
:103AD000F08F284613F004FF0028F7D08C4E33688F
:103AE000013B0A2B57D8DFE803F0411E1856565603
:103AF000560D0D560600874D2B78002B54D1E369E7
:103B00009847E3E7844A1378204683F00103137053
:103B1000FFF7E4FB05B0BDE8F08F804801F068FED8
:103B200005B0BDE8F08F7E4D29684B1C00F0D780B2
:103B30007C4807F087FE2A687B492046FEF75EFC3A
:103B40007A4B1B680393039B03F5FA63C4F828328E
:103B500001274FF0FF3320462B603760FEF746F811
:103B60002046FEF701F984F81472AFE76D4807F0BC
:103B7000A5FF30B36B4808F043F86D490246204674
:103B8000FEF73CFC694B1B680193019B03F5FA634C
:103B9000C4F828329AE794F81532032B00F2AA8071
:103BA000DFE803F076593F20012720463760FEF713
:103BB0001DF82046FEF7D8F8002384F814722B7005
:103BC00084E7584808F01CF85A4902462046FEF798
:103BD00015FC564B1B680293029B03F5FA63C4F86D
:103BE000283273E704F28F196FF4BF77C8463F1B82
:103BF00004F27F154FF0010A791915F8013F08F812
:103C0000013F002285F800A02046FFF74DFD4D45FD
:103C10004FF0010BF0D1022384F814B284F815326E
:103C200053E06FF4BF773F1B04F27F1504F28F1A45
:103C30004FF0000979194FF0000805F8019F42463E
:103C40002046FFF731FD5545F4D1012384F8158254
:103C500084F8143239E004F28F196FF4BF77C84644
:103C60003F1B04F27F15791915F8013F08F8013F51
:103C700083F001032B7000222046FFF715FDA945B4
:103C8000F1D10322012384F8152284F814321CE0B8
:103C90006FF4C778C4EB080804F28F1504F27F179D
:103CA00004F29F1908EB050115F8013F83F00103A9
:103CB00007F8013F00222046FFF7F6FCA945F1D1A5
:103CC000012384F8153284F814323368062B7FF40C
:103CD000FDAE04F5C0712046FDF744F8F6E6012577
:103CE00020463560FDF782FF2046FEF73DF884F858
:103CF0001452EBE63121104816F0B8F994F8151279
:103D00000E4814F0CDF80D4814F07AF8DDE700BF46
:103D1000BC6FFF1F902E002040910020A82D002096
:103D2000B86FFF1F0431002080540200CC940020A3
:103D30006054020070540200905402001871FF1F7A
:103D400070B504460D4696B080300FF017FE63192B
:103D5000012283F8F0210F2D00F23F81DFE815F0FA
:103D6000240040005C00780094009D00A600AF0095
:103D7000F100CB00DE00B8002A0104011701100099
:103D8000B9492046FDF7CCFCB84BB9481B681293E3
:103D9000129B03F5FA63C4F8283204F5C0710422BB
:103DA00008F06CFC16B070BDB24B1A68511E0129A8
:103DB00040F2D0810A2A00F0CD812046AE49FDF7BD
:103DC000AFFCAA4BAA481B680293029B03F5FA6357
:103DD000C4F8283204F5C071002208F075FCE1E750
:103DE000A44B1A68511E012940F2C0810B2A00F031
:103DF000BD812046A149FDF793FC9C4B9C481B6864
:103E00000193019B03F5FA63C4F8283204F5C071ED
:103E1000012208F059FCC5E7964B1B68012B00F006
:103E20006C81083B012B40F2688120469449FDF7E4
:103E300077FC8E4B8E481B680493049B03F5FA6352
:103E4000C4F8283204F5C071022208F03DFCA9E74D
:103E5000884B1B68012B00F06881083B012B40F266
:103E6000648120468749FDF75BFC804B80481B68D6
:103E70000693069B03F5FA63C4F8283204F5C07173
:103E8000032208F021FC8DE77F4B1B78002B00F00C
:103E90002781A3690120984784E77B4B1B78002B7F
:103EA00000F01181A369022098477BE7764B1B78CD
:103EB000002B00F0FB80A3690320984772E7724B48
:103EC0001B78002B00F0C280A3690420984769E7A3
:103ED00020466E49FDF724FC644B65481B680E9331
:103EE0000E9B03F5FA63C4F8283204F5C07103226F
:103EF00008F00AFC56E720466549FDF711FC5B4BCC
:103F00005B481B680C930C9B03F5FA63C4F82832DA
:103F100004F5C071012208F0F7FB43E720465D4934
:103F2000FDF7FEFB514B52481B680D930D9B03F5AB
:103F3000FA63C4F8283204F5C071022208F0E4FBE9
:103F400030E720465449FDF7EBFB484B48481B68D7
:103F50000B930B9B03F5FA63C4F8283204F5C07188
:103F6000002208F0D1FB1DE720464C49FDF7D8FBA5
:103F70003E4B3F481B681093109B03F5FA63C4F84F
:103F8000283204F5C071022208F078FB0AE72046C7
:103F90004349FDF7C5FB354B35481B681193119B11
:103FA00003F5FA63C4F8283204F5C071032208F05F
:103FB00065FBF7E620463B49FDF7B2FB2B4B2C484F
:103FC0001B680F930F9B03F5FA63C4F8283204F5BE
:103FD000C071012208F052FBE4E60F2D7FF6E2AE3D
:103FE00005F00F06314601222046FFF75DFB94F8ED
:103FF0003032AB42636A88BF84F8305213B1A5F106
:10400000100098471B4B1B68013B0C2B00F2E7800C
:1040100001A252F823F000BF71410000834100006B
:10402000DF4100008D410000D5410000DF4100006C
:10403000CB41000071410000C1410000AB410000D4
:10404000A53D0000A141000097410000164920460F
:10405000FDF766FB054B1B680A930A9B03F5FA63A1
:10406000C4F8283230E700BFBC550200CC940020D1
:1040700004310020BC6FFF1FD0540200C454020062
:10408000F854020024550200FD66002090550200FD
:1040900078550200845502006C550200A4550200B8
:1040A000B05502009C550200605502005F49204651
:1040B000FDF736FB5E4B1B680993099B03F5FA631A
:1040C000C4F82832F7E65B492046FDF729FB584B38
:1040D0001B680893089B03F5FA63C4F82832E1E6ED
:1040E00055492046FDF71CFB514B1B680793079B66
:1040F00003F5FA63C4F82832CBE6504A50491378E6
:10410000002083F0010313700870002B00F08880FA
:104110004C492046FDF704FB454B1B680393039B6A
:1041200003F5FA63C4F828323CE6454B1A78002AB6
:104130006DD0424D4449002220462A701A70FDF786
:10414000EFFA3B4B1B680593059B03F5FA63C4F834
:10415000283227E60B2220461A60FDF747FD20464D
:10416000FDF702FE012384F814321BE60A22F2E76F
:10417000324B364A1B784FF0FF311160002B7FF431
:1041800011AE29462046FCF7B9FD0BE6294620462C
:10419000FCF7FCFC06E629462046FEF75DFC01E63E
:1041A00029462046FDF7AEFFFCE529462046FCF7F0
:1041B000A5FD1F4B1B681393139BC4F8D030F1E58A
:1041C00029462046FDF782FCECE529462046FCF70F
:1041D00039FDE7E529462046FCF706FDE2E52946DC
:1041E0002046FCF75DFD31462046FDF705FB104BF0
:1041F0001A681592159A1B681493149B02F5FA62BB
:1042000003F5FA63C4F82C22C4F82832CAE50B4837
:104210000F490270012220461A70FDF781FA90E7DB
:104220000C492046FDF77CFA76E700BF50550200A6
:10423000CC9400204055020030550200FD6600205D
:10424000FC660020DC54020004550200B86FFF1F1A
:1042500014550200EC540200F8B5344C2368DB0717
:10426000054646D5324E14F051FE3368304A984226
:1042700034D900F5EA4395F87411303313600029FE
:1042800047D105F1800738460FF000FC18B3EB6BFF
:10429000002B24DD0026344605E00134EB6BE4B24C
:1042A0009C4226461BDA214638460FF025FB2E4459
:1042B00030B196F8F031214628460BB9FFF740FDA2
:1042C000214638460FF028FB0028E6D02146284634
:1042D000FFF73EFAE1E795F875311BB9F8BD012308
:1042E00085F8753138460FF0B9FC002385F8753133
:1042F000F8BD204614F030FB0028B3D014F006FEC1
:104300000B4E00F5EA4330332046336014F02AFBAD
:10431000A9E7014605F180072846FCF7FBFB384674
:104320000FF0B4FB0028D6D0B1E700BF887CFF1F98
:10433000B87CFF1F10B50023036043608360044610
:104340001621044815F092FE034813F059FD20464B
:1043500010BD00BFCC5502001871FF1F38B50546CF
:104360001A210F4815F082FE2C6864B1A36A2B60F5
:1043700020462C2114F032FB2C680A48042115F049
:1043800075FE002CF2D100232B606B60AB60042122
:10439000054815F06BFE054813F032FD284638BD80
:1043A000E455020008560200005602001871FF1F73
:1043B00038B5054615210F4815F058FE2C6864B134
:1043C000A36A2B6020462C2114F008FB2C680A48B5
:1043D000042115F04BFE002CF2D100232B606B6002
:1043E000AB600421054815F041FE0548BDE83840A2
:1043F00013F006BD105602000856020000560200D7
:104400001871FF1F38B52E4C05460A212D4815F0AE
:104410002DFE204613F0F4FC0E212B4815F026FE4D
:104420006B682046196813F03BFD0B21274815F0F7
:104430001DFE6B680A2219792046002313F0F0FC58
:10444000204613F0DDFC0821214815F00FFE6B68B3
:104450002046D96813F024FD07211E4815F006FEFA
:104460006B68D86919F038FF41EC100B2046022127
:1044700013F01EFD0B21184815F0F8FD6B680A2299
:1044800093F820102046002313F0CAFC162113488D
:1044900015F0ECFD6B682046597A13F001FD0E21F2
:1044A0000F4815F0E3FD6B68204693F824100A22AC
:1044B000002313F0B5FC2046BDE8384013F0A0BC43
:1044C0001871FF1F2856020034560200445602009D
:1044D000505602005C5602006456020070560200FC
:1044E0008856020038B54368002B6BD09A6A934215
:1044F00004460D4618BF012066D0A36823B1226888
:1045000012B19B6A9A4274D06368444A1B68934212
:1045100002DC01332DD038BD2A4641494148FDF720
:1045200027FF3121404815F0A1FD28461BF028FB4C
:104530000146284615F09AFD3C4813F061FC07211E
:104540003B4815F093FD6168384813F0A9FC0E2133
:10455000384815F08BFD63683448196813F0A0FCE7
:10456000324813F04DFC63681B6801334FF00000C4
:10457000D1D12A4630492B48FDF7FAFE34212F4885
:1045800015F074FD28461BF0FBFA0146284615F08D
:104590006DFD264813F034FC0721254815F066FD13
:1045A0006168224813F07CFC0E21224815F05EFD64
:1045B00063681E48196813F073FC1C4813F020FC54
:1045C000002038BD012038BD0A4616481C49FDF7B9
:1045D000CFFE26211B4815F049FD28461BF0D0FAD6
:1045E0000146284615F042FD104813F009FC002052
:1045F00083E72A4614490B48FDF7BAFE39211348D0
:1046000015F034FD28461BF0BBFA0146284615F08C
:104610002DFD064813F0F4FB002075E78096980006
:104620001C570200C82E0020345702001871FF1FCB
:104630006857020070570200805702009857020026
:1046400098560200A8560200D0560200E05602001A
:1046500003684360704700BF10B544680CB1206820
:1046600010BD03490348FCF727FF204610BD00BFDB
:10467000D0570200C82E002010B544680CB1207934
:1046800010BD03490348FCF717FF204610BD00BFCB
:10469000E4570200C82E00202DE9F041884600278B
:1046A000077006461121144815F0E0FCD8F80440C4
:1046B000ECB108340FCC35460FC594E80F0085E8FF
:1046C0000F0071680D4813F0EBFB08210C4815F042
:1046D000CDFCD8F80430094819790A223B4613F07A
:1046E0009FFB064813F08CFB3046BDE8F08105497E
:1046F0000548FCF7E1FEF7E7F85702001871FF1FC5
:10470000007002000C580200C82E002040680030E3
:1047100018BF0120704700BF70B504461621364807
:10472000666815F0A3FC354813F06AFB072134488E
:1047300015F09CFC6168314813F0B2FB0821314848
:1047400015F094FC21682D4813F0AAFB08212E488F
:1047500015F08CFCA168294813F0A2FB2368636064
:10476000642538E013F04CFB0E21284815F07EFC40
:1047700063682248196813F093FB0D21244815F053
:1047800075FC61681D48083113F08AFB0921214836
:1047900015F06CFC63681948197913F081FB0B2143
:1047A0001D4815F063FC6168144813F079FB08217B
:1047B0001A4815F05BFC63681048996A13F070FBA7
:1047C00017492046FFF78EFE40B1204600F0C6F89C
:1047D000013D08D063680948002BC3D1074813F096
:1047E0000FFB666070BD0F490F48FCF765FE03487C
:1047F00013F006FB666070BD245802001871FF1F9D
:10480000685702003C5802004858020070570200E6
:104810005458020064580200705802007C5802008C
:104820008858020090580200C82E0020036810B576
:1048300004466BB14268934204BF002242609A6A08
:104840008AB100210260996218462C2114F0C6F842
:104850000A492046FFF746FE00B110BD2046BDE8DC
:104860001040FFF759BF81688B4208BF82602C213E
:10487000184614F0B3F800232360E9E7A0580200BB
:1048800038B50368044673B11A6891420D4603DCDB
:104890000AE01A68AA4207DA2046FFF7C7FF236832
:1048A0006360002BF5D10023636005492046FFF7C4
:1048B00019FE00B138BD2046BDE83840FFF72CBFD7
:1048C000B058020082B02DE9F04106AC074644F82A
:1048D000043F0D461E481421904615F0C7FB2146A3
:1048E00000230A221B4813F09BFA1A4813F088FA97
:1048F0002C2014F06FF82C22002106461AF05EFCE2
:104900000FCCB060F160326173610FCCBC68356070
:1049100086F80480B061F1613262736214B1A6421C
:1049200018BFA6627B68BE607BB13B685BB10A4979
:104930003846FFF7D7FD10B93846FFF7EDFEBDE862
:10494000F04102B070473E60F1E77E60EDE700BFE6
:10495000DC5802001871FF1FF4580200436810B5BC
:10496000044673B19A6A934213D062600C492046A0
:10497000FFF7B8FD00B110BD2046BDE81040FFF7BD
:10498000CBBE1921074815F071FB074813F038FA20
:10499000ECE706490648FCF78FFD63689A6AE4E78E
:1049A00030590200145902001871FF1F005902000B
:1049B000C82E002070B590E84800054600244360EA
:1049C00006E00134FFF7CAFFB4F57A7F06D06B68C2
:1049D0002846002BF5D16E60204670BD034904487F
:1049E000FCF76AFD6E60204670BD00BF38590200BA
:1049F000C82E00200022026042608260704700BF23
:104A000038B504461721094815F030FB23685BB11F
:104A10000025DA6822601846DD6010219D6013F0E1
:104A2000DDFF2368002BF4D1204638BD4859020031
:104A300038B5436804460D4683B1DA68934218BF1F
:104A4000012036D09A689A4248D0E3682BB1DA68E0
:104A5000934219D09A689A4202D038BD0120F4E7F7
:104A600028492948FCF728FD1F21284815F0FEFA9F
:104A7000274813F0C5F928461BF082F8014628465E
:104A800015F0F4FA0020E8E722491F48FCF714FD6E
:104A90002B21214815F0EAFA28461BF071F801464F
:104AA000284615F0E3FA1A4813F0AAF9E368002043
:104AB000D0E71A491448FCF7FFFC2321184815F0E9
:104AC000D5FA28461BF05CF80146284615F0CEFAC8
:104AD0000F4813F095F963680020B3E711490A48BD
:104AE000FCF7EAFC1721104815F0C0FA084813F04B
:104AF00087F928461BF044F80146284615F0B6FA17
:104B00000020A2E7FC590200C82E0020105A020023
:104B10001871FF1FBC590200D059020060590200F1
:104B20007059020094590200A459020010B50749B7
:104B30000446FFF77DFF20B163680BB1DB6863605B
:104B400010BD204600F004F8F6E700BF305902001F
:104B500038B500210446434815F088FA424813F05E
:104B60004FF90D21414815F081FA3F4813F048F9FB
:104B700007213F48656815F079FA21683A4813F033
:104B80008FF906213B4815F071FA6168364813F039
:104B900087F90721384815F069FAA168324813F0FF
:104BA0007FF90A21354815F061FAE1682E4813F0C3
:104BB00077F92D4813F024F9204600F0DFF86368F8
:104BC0002BB945E0FFF7B2FF6368002B40D0052109
:104BD0002B4815F04BFA6368234819680A22002312
:104BE00013F01EF90421274815F040FA63681E48A7
:104BF00019790A22002313F013F90421224815F031
:104C000035FA6368184859790A22002313F008F925
:104C100005211E4815F02AFA6168134813F040F97F
:104C200006211B4815F022FA63680F48D96813F073
:104C300037F90D4813F0E4F86368DA6893422046C8
:104C4000C0D11A21134815F011FA074813F0D8F80B
:104C50000021044815F00AFA034813F0D1F8656002
:104C600038BD00BFA45102001871FF1F305A020066
:104C7000405A0200485A0200505A0200585A020094
:104C8000645A02006C5A0200745A02007C5A0200F4
:104C9000845A02008C5A020038B50446C0680028C5
:104CA00038D060602368834226D0A368834216D040
:104CB0008568C368EB60C36882689A60102113F04E
:104CC0008DFE65602B46E36014492046FFF7B0FE79
:104CD00000B138BD2046BDE83840FFF739BF8268D3
:104CE0001AB1826862600021D1601846102113F069
:104CF00075FE6368A360E6E7C268626062B1002186
:104D000091600022DA601846102113F067FE636894
:104D10002360D8E76068C5E7A260F2E7A85A0200FE
:104D20002DE9F84304461020894690461F4613F0AB
:104D300051FEA66800254560856080F80490C56036
:104D400080F8058007600EB1F06086606368A0603F
:104D50007BB123685BB108492046FFF769FE08B1C3
:104D6000BDE8F8832046BDE8F843FFF7F1BE2060B8
:104D7000F1E76060EDE700BFB45A020010B50549E5
:104D80000446FFF755FE10B92046FFF7E1FE236801
:104D9000636010BDBC5A0200C3681879704700BF39
:104DA000C3685879704700BFC3681868704700BF70
:104DB000C068003018BF0120704700BF10B505491A
:104DC0000446FFF735FE10B92046FFF7C1FE236801
:104DD000E36010BDC45A020010B507490446FFF74E
:104DE00027FE20B1E3680BB1DB68E36010BD20460D
:104DF000FFF7AEFEF6E700BFD05A020070B51149CA
:104E00000546FFF715FE90B128466E680024FFF7AF
:104E1000B5FF05E00134FFF789FEB4F57A7F0AD0CB
:104E20006B682846002BF5D16E60204670BD284681
:104E3000FFF78EFEE8E704490448FCF73DFB6E608F
:104E4000204670BDDC5A0200E45A0200C82E002041
:104E500038B50A4D002304460360436029464FF4E9
:104E6000A072083013F096FC05F5A07104F5A4704B
:104E70004FF4807213F08EFC204638BDF45A0200C5
:104E800010B490E81800013400EB031394FBF1F226
:104E900002FB11410B44416093F848015DF8044B5B
:104EA000704700BF10B490E8180094FBF1F200EBDB
:104EB000031302FB11410B44416093F848015DF874
:104EC000044B7047436810B40468194400EB0410A5
:104ED00091FBF2F303FB121250FA82F25DF8044BDD
:104EE00092F84801704700BF406801308842B4BF63
:104EF00000200120704700BF054B0B40002B01DB59
:104F000003607047013B63F00F0301330360704798
:104F10000F000080036803EB830300EB830008307D
:104F2000704700BF00234360704700BF38B50125BC
:104F30000446056758220B497C3013F02BFC0A4AC3
:104F400084F86D500023157084F8D83084F8E03070
:104F5000C4F8D430C4F8DC30C4F8E4306367A36725
:104F6000204638BD345D0200C87CFF1F2DE9F041AA
:104F70008046064600F16007337D5BB1354600246C
:104F800055F8040F013418B11C2113F027FD337DAF
:104F9000A342F5DC1836BE42EED14046BDE8F081B2
:104FA00001EB410300EBC30380F8D810C0F8D43004
:104FB0000120704710B5D0F8D44084B1227D8A42D8
:104FC0000B46D8BF002304EB8304D8BF194664689E
:104FD000C0F8DC404CB180F8E010012010BD06495B
:104FE0000648FCF769FA204610BD05490348FCF75E
:104FF00063FA204610BD00BF8C5D0200C82E002061
:10500000A05D020038B5044660B101EB410110EB30
:10501000C1050DD002EB420014EBC0040ED06A753E
:10502000012038BD08490948FCF746FA204638BD3A
:1050300007490648FCF740FA284638BD05490348A9
:10504000FCF73AFA204638BDB45D0200C82E0020B5
:10505000C85D0200DC5D0200D0F8D4300BB11960ED
:10506000704780F8D8300346C0F8D4001960704704
:10507000D0F8D41070B5054631B30B7D032B1DD885
:105080001C2013F0A7FC044600F042FDD5F8D430F4
:105090001E1D28D0197D39B153F82100C0B100F090
:1050A000D1FDD5F8D430197D03EB81020131546074
:1050B0002046197500F03AFD204670BD0F49104892
:1050C000FCF7FAF9002070BDFFF76AFF40B970BD28
:1050D0000C490B48FCF7F0F9D5F8D430197DE3E71B
:1050E000D5F8D410C9E708490548FCF7E5F920468A
:1050F0001C2113F073FC304670BD00BFF05D020050
:10510000C82E0020145E0200005E02002DE9F0436C
:10511000044685B01A4803F07DFF0E21194814F0AB
:10512000A5FF194812F06CFED4F8DC0008B300F0BB
:10513000C3FDD4F8D430D4F8DC0093F8009094F890
:10514000D85094F8E46094F8E07000F003FD8046D5
:10515000D4F8DC0000F000FDC0B202904B468DE8B0
:105160008001324629460948FDF782FF05B0BDE8B7
:10517000F0830749054805B0BDE8F043FCF79CB94A
:1051800000670020245E02001871FF1FC82E002057
:10519000345E020070B5044633216F4814F066FF98
:1051A000D4F8DC0000F0D6FC00230A2201466B484C
:1051B00012F036FE01216A4814F058FFD4F8DC00E2
:1051C00000F0CAFC0146654812F06AFE09216548F4
:1051D00014F04CFF00230A2294F8E0105F4812F00C
:1051E0001FFE1421604814F041FFD4F8DC0000F0E9
:1051F0002FFD002301460A22584812F011FE57489D
:1052000012F0FEFDD4F8DC30002B00F09080D4F8D2
:10521000D450002D00F08680184600F01BFD054696
:1052200078B31921514814F021FFD4F8DC0000F0C4
:105230000FFD102106464E4814F018FF002331469A
:105240000A22464812F0ECFDD4F8D4301B7DB3425C
:1052500024D92121474814F009FFD4F8D43084F828
:10526000E06003EB86067068C4F8DC0000F0ECFC3C
:105270002121414814F0FAFE384812F0C1FD2846B9
:1052800070BDD4F8DC0000F013FD3D213B4814F064
:10529000EDFE324812F0B4FD284670BD18213848A2
:1052A00014F0E4FED4F8D430D4F8E4201B689A4219
:1052B00024DB1021334814F0D9FED4F8D4305E7DBD
:1052C000FF2E3AD006EB4606132104EBC6062E4805
:1052D00014F0CCFEC4F8D46015212C4814F0C6FE9E
:1052E000D4F8D430002284F8E0205868C4F8DC00F8
:1052F0000123C4F8E43000F0A7FCB9E71A212448E0
:1053000014F0B4FE002384F8E030D4F8D420D4F8AC
:10531000E4305068C4F8DC000133C4F8E43000F035
:1053200093FCA5E71B491C48FCF7C6F8B4E71B49EA
:1053300019481D46FCF7C0F8AEE70021184814F0E4
:1053400095FE064812F05CFD1321164814F08EFEFF
:10535000236E98478CE700BF485E02001871FF1F5C
:105360007C5E0200805E02008C5E0200CC5E020069
:10537000E85E0200FC5E0200AC5F0200D05F02004B
:10538000205F0200585F02006C5F0200805F020035
:105390003C5F0200B85E0200C82E0020A45E02003E
:1053A000A4510200985F02002DE9F043D0F8D430F8
:1053B000044685B0D0F8DC0093F8009094F8D860EB
:1053C00094F8E47094F8E08000F0C4FB0546D4F84B
:1053D000DC0000F0C1FBC0B202904B46CDF800806B
:1053E0003A46314601950348FDF742FE05B0BDE857
:1053F000F08300BFC82E002010B5142104460948D0
:1054000014F034FE084812F0FBFCD4F8DC0018B1AC
:10541000BDE8104000F050BC04490548BDE810400C
:10542000FCF74AB8106002001871FF1F28600200E4
:10543000C82E002003460022C3F8D40080F8D820EC
:1054400048B1406883F8E0200122C3F8DC00C3F8CB
:10545000E42000F0F9BB02490248FCF72DB800BF78
:105460003C600200C82E002070B5504E504D0166C1
:10547000044600F1150132602B607530FF220023D5
:105480000A7001F8013C41F8153C18318142F7D10E
:105490002046FFF7EDFD054690B100231A46012195
:1054A00000F04EFB00231A460221284600F048FB7C
:1054B0000121284600F0BCFB2846022100F096FBA3
:1054C0002046FFF7D5FD054690B101221146002385
:1054D00000F036FB002301220221284600F030FBB9
:1054E0000121284600F0A4FB2846022100F07EFBA3
:1054F0002046FFF7BDFD054690B1002302220121A1
:1055000000F01EFB022211460023284600F018FB83
:105510000121284600F08CFB2846022100F066FBA2
:1055200001212046FFF798FD012200212046FFF7C8
:1055300069FD01212046FFF733FD02212046FFF7D8
:105540008BFD2046FFF794FD054690B10023032212
:10555000012100F0F5FA002303220221284600F081
:10556000EFFA0121284600F063FB2846022100F0F3
:105570003DFB2046FFF77CFD054690B10023042249
:10558000012100F0DDFA002304220221284600F068
:10559000D7FA0121284600F04BFB2846022100F0F3
:1055A00025FB2046BDE87040FFF744BFC47CFF1FC9
:1055B000C07CFF1F30B5436E00EB83028DB0D46F0B
:1055C000132B21D8DFE803F0610A5A26202020207F
:1055D00020202020202026542D38434C90F8E01025
:1055E00090F8D8303A4A0131009107A80C211AF0FE
:1055F00041F807A81AF0C4FA07AA0346214635481D
:10560000FDF72CFE0DB030BD21463248FCF76AF89C
:105610000DB030BD304A2F482146FDF7E3FD0DB0F7
:1056200030BDD0F8DC0000F097FA02462146294848
:10563000FDF764FD0DB030BDD0F8DC0000F096FA47
:10564000042843D8DFE800F00A403E3C3A00D0F896
:10565000DC0000F08DFA411C0246E7D11F4ADAE770
:10566000D0F8DC0000F086FA431CF7D0421CDDE7DE
:10567000D0F8DC0000F072FA0246D7E790F8D83094
:1056800003EB430350F83320D0E790F8D83003EB16
:10569000430200EBC2000133027D03AD32B9104A70
:1056A00028460E2119F0E6FF2A46B4E70092284664
:1056B0000C4A0E2119F0DEFF2A46ACE70A4AAAE797
:1056C0000A4AA8E70A4AA6E70A4AA4E70A4AA2E75A
:1056D000C4600200C82E0020A06002007C600200AE
:1056E000A8600200B46002009860020090600200AE
:1056F00088600200806002009051020010B51721FE
:105700000446084814F0B2FC074812F079FB002266
:105710000123626684F86D302046BDE81040FFF733
:1057200049BF00BFD06002001871FF1F436E10B563
:10573000132B52D8DFE803F0212529515151515143
:105740005151515151515131383E450AD0F8DC0088
:1057500000F010FAB0F1FF3F14BF044610242048B7
:10576000112114F083FC21461E4812F099FB0121FF
:105770001D4814F07BFC204610BD90F8D840204610
:1057800010BD90F8E040204610BD90F8D83003EBF3
:10579000430350F83340204610BDD0F8DC0000F041
:1057A000DDF90446204610BDD0F8DC00BDE810400D
:1057B00000F0D2B9D0F8DC0000F0D8F90446204659
:1057C00010BDD0F8DC0000F0D3F91321B0F1FF3F99
:1057D00014BF044611240548C3E70024CBE700BFEB
:1057E000FC6002001871FF1F2C520200E8600200EA
:1057F00008B51621034814F039FC0348BDE80840F9
:1058000012F0FEBA106102001871FF1F10B5B1F559
:105810007A7F82B00CD1036F012B044610D0012394
:10582000036780F86D300B48FBF718FE02B010BD1F
:10583000094A416712680192019A826702B010BD5D
:1058400002230367FFF772FFA0660248FBF700FE22
:1058500002B010BDC82E0020CC940020994238B56B
:105860000D4603DA002901DA8918FDD491FBF2F420
:1058700002FB1414A3424FF00B010B48C8BFA4183D
:1058800014F0F4FB2946094812F00AFB01210848EC
:1058900014F0ECFB2146054812F002FB034812F01D
:1058A000AFFA204638BD00BF286102001871FF1F03
:1058B0002C520200F8B504460D465C48112114F044
:1058C000D5FB29465A4812F0EBFA594812F098FADB
:1058D000636E132B00F28480DFE803F01A6876828F
:1058E0008282828282828282828282263F4C590A0E
:1058F0002946002311222046FFF7B0FF0F2800F3AE
:1059000083800146D4F8DC00BDE8F84000F05CB9C3
:105910002946002320460422FFF7A0FFC1B22046FB
:10592000BDE8F840FFF73CBB0327294601230222CC
:105930002046FFF793FF06460146D4F8DC0000F04E
:105940000FF9751C002852D1013FEED12A46394982
:105950003948BDE8F840FBF741BE294601232046FF
:105960001022FFF77BFF0146D4F8DC00BDE8F840C9
:1059700000F03CB92946002320460522FFF76EFFC0
:105980000146D4F8DC00BDE8F84000F031B9294602
:10599000012311222046FFF761FF10283CDC01465D
:1059A000D4F8DC00BDE8F84000F0E6B8D4F8D43014
:1059B00029461A7D20460023FFF750FFC1B220463A
:1059C000BDE8F840FFF7F6BA294601232046102229
:1059D000FFF744FFC1B22046BDE8F840FFF73CBBEB
:1059E0002A4616491448BDE8F840FBF7F7BDD4F83D
:1059F000DC00F1B200F01CF9B0B9324610490E4893
:105A0000BDE8F840FBF7EABDD4F8DC004FF0FF3109
:105A1000BDE8F84000F0D8B8D4F8DC004FF0FF3112
:105A2000BDE8F84000F0A8B8F8BD00BF346102003E
:105A30001871FF1F58610200C82E00206861020023
:105A40004861020070B50D46044611212B481646E8
:105A500014F00CFB2A4812F0D3F9B5F57A7F00D088
:105A600070BD94F86D30002B34D1236F012B37D0EB
:105A7000022B41D10D21234814F0F8FA3146204879
:105A800012F00EFA0121204814F0F0FAA16E1C4821
:105A900012F006FA1A4812F0B3F9A16E204631440A
:105AA000FFF708FF0C21194814F0E0FA31461448BA
:105AB00012F0F6F90121144814F0D8FAA16E10483A
:105AC00012F0EEF90E4812F09BF92046BDE8704046
:105AD000FFF770BD002384F86D30236F012BC7D111
