:1000000000000320D1010000C987010081870100A1
:1000100081870100818701008187010081870100BC
:10002000818701008187010081870100C987010064
:10003000C987010081870100D1A20100D5A3010079
:10004000C9870100C9870100C9870100C98701006C
:10005000C9870100C9870100C9870100C98701005C
:10006000C9870100C9870100C9870100C98701004C
:10007000C9870100C9870100C9870100C98701003C
:10008000C9870100C9870100C9870100C98701002C
:10009000C9870100C9870100C9870100C98701001C
:1000A000C9300100D5300100C9870100C9870100AE
:1000B000C9870100C9870100C98701001DA401008B
:1000C000C987010049A50100C987010075A6010083
:1000D000C98701006DA70100C9870100C987010018
:1000E000C9870100C9870100C9870100C9870100CC
:1000F000C9870100C9870100C9870100C9870100BC
:10010000C9870100C9870100C9870100C9870100AB
:10011000C9870100D1910100C9870100C987010089
:10012000C9870100C9870100C9870100C98701008B
:10013000C9870100C9870100C9870100C98701007B
:10014000B57A0100C987010065A80100C9870100CF
:10015000C9870100C9870100C9870100C98701005B
:10016000C9870100C9870100E1300100C98701008A
:10017000C9870100C9870100C9870100C98701003B
:10018000C9870100C9870100C9870100C98701002B
:10019000C9870100C98701005DA90100C987010065
:1001A000C9870100C9870100C9870100C98701000B
:1001B000C9870100C9870100C9870100C9870100FB
:1001C000C9870100C9870100C9870100C9870100EB
:1001D0005C4B4CF2205210B51A804DF628121A8052
:1001E00000BF00BF18F0F4FA574B4FF030621A60AE
:1001F000564A9A60564ADA60564B4FF470021A60BB
:10020000554B564A1A60564B1A78110703D51A787F
:1002100042F008021A70534B5349AA221A70534AEB
:10022000534B8B4204D252F8040F43F8040BF8E707
:10023000504B514900228B4202D243F8042BFAE77B
:100240004E494F4A002352F8230041F8230001335E
:10025000742BF8D14B4B4C4A802103F8011B93427D
:10026000FBD14A4B454A1A60494B8A221A70A3F5C2
:10027000805324225A70A0221A709A799207FCD5D2
:100280009A79D406FCD4434A937903F00C03082BE3
:10029000FAD1414B60221A7002331A78802AFCD1BD
:1002A0003C4B01221A715D225A719A799006FCD555
:1002B0009979384A4906FBD5384B394919600021EC
:1002C000596020231370937903F00C030C2BFAD19F
:1002D000344B354A1A60354A354C136813F4807331
:1002E00003D123604FF4A8531360324B324A1A6093
:1002F00000225A60072243F8042C304AC3F80C2D20
:1003000062B618F0D5FD2368DA0705D52C4818F039
:1003100007FD2C4B2C4A1A602C4B1B785B0609D529
:10032000284C294B22689A4204D1254818F0F8FC41
:10033000002323601EF0FEFA18F050FA18F07EF940
:10034000FEE700BF0E20054030800440823F0400DD
:100350000100002B88ED00E0002008E0030000858C
:1003600002D0074000E00740C07BFF1F789E0200DC
:10037000306FFF1FC07BFF1F34990020006AFF1FF2
:100380000000000000E400E064E400E008ED00E0AC
:10039000005006400040064001E007404480044011
:1003A0000000060204800440C010070010D0034083
:1003B00014D0034014E000E01FBF02000000202022
:1003C00043B5AC5E1CE00340A5C3945A00F007405F
:1003D000FFFFFFFFFFFFFFFFFFFFFFFFFFFFFFFF2D
:1003E000FFFFFFFFFFFFFFFFFFFFFFFFFFFFFFFF1D
:1003F000FFFFFFFFFFFFFFFFFFFFFFFFFFFFFFFF0D
:10040000FFFFFFFFFFFFFFFFFFFFFFFFDEF9FFFF23
:1004100010B5054C237833B9044B13B10448AFF33E
:1004200000800123237010BDC07BFF1F000000006F
:10043000749E0200084B10B51BB108490848AFF381
:1004400000800848036803B910BD074B002BFBD0A0
:10045000BDE81040184700BF00000000C47BFF1F2C
:10046000749E0200C07BFF1F0000000010B5242214
:10047000044600211EF0FEFD002384F8243084F899
:100480002530204610BD00BFF8B5074690F824007F
:100490000D461646E0B13A46002404E00134844299
:1004A00002F1030212D01178A942F7D19178994252
:1004B000F4D104EB44043C446670A370062D5ED86E
:1004C000DFE805F031161D242B1031000A2C2BDC3F
:1004D00000EB40017A18013087F824007D545670F3
:1004E0009370EBE72E492F48BDE8F84001F00CB9B6
:1004F00032462D492B48BDE8F84001F09FBF3246F7
:100500002A492848BDE8F84001F098BF32462849FA
:100510002448BDE8F84001F091BF26492148BDE8D4
:10052000F84001F0F1B8F8BD23491E4800F0B8FFCB
:100530000421224819F0F6FC2146214817F00AFC54
:100540001721204819F0EEFC00230A2297F8241006
:100550001B4817F0BFFB10211B4819F0E3FC0C21CE
:10056000174817F0F7FB0B21184819F0DBFC294658
:10057000134817F0EFFB124817F09CFB9EE7144955
:10058000084800F08DFF1521124819F0CBFC2946D0
:100590000B4817F0DFFB0A48BDE8F84017F08ABBAC
:1005A000E44E0200C82E0020A44E0200B44E020009
:1005B000C04E0200D04E0200504E0200644E0200B7
:1005C0001871FF1F6C4E0200844E0200984E02000C
:1005D000F44E0200084F020038B590F825300B2B7E
:1005E000044627D91F49204800F05AFF17211F4809
:1005F00019F098FC00230A2294F825101C4817F0E3
:1006000069FB17211B4819F08DFC00230A2294F87E
:100610002410174817F05EFB1021174819F082FCD0
:100620000C21134817F096FB0025114817F042FBE8
:10063000284638BD03EB430317210C48E55C19F04D
:1006400071FC00230A2294F82510094817F042FB98
:100650000B210A4819F066FC2946054817F07AFB79
:10066000284638BD384F0200C82E0020204F020017
:100670001871FF1F6C4E0200844E0200984E02005B
:1006800090F825300B2B04D803EB43031844407833
:10069000704710B513490446134800F001FF1721B5
:1006A000124819F03FFC00230A2294F82510104844
:1006B00017F010FB17210F4819F034FC00230A2211
:1006C00094F824100A4817F005FB10210A4819F085
:1006D00029FC0C21064817F03DFB054817F0EAFA03
:1006E000002010BD4C4F0200C82E0020204F0200F9
:1006F0001871FF1F6C4E0200844E020090F82530E6
:100700000B2B04D803EB430318448078704710B5D3
:1007100013490446134800F0C3FE1721124819F08C
:1007200001FC00230A2294F82510104817F0D2FA91
:1007300017210F4819F0F6FB00230A2294F8241021
:100740000A4817F0C7FA10210A4819F0EBFB0C21F0
:10075000064817F0FFFA054817F0ACFA002010BD64
:10076000604F0200C82E0020204F02001871FF1FAA
:100770006C4E0200844E020090F825300133DBB24B
:100780000B2B80F825308CBF00200120704700BF64
:10079000002380F8253070470022134680F824207B
:1007A00080F82520C2540333242BFBD1704700BFAF
:1007B000FFF7F2BF70B5044615460E460846022103
:1007C00018F0D4FA2846022118F0D0FA104A114B3A
:1007D00052F83610012001F500762072266052F89A
:1007E0003520607202F5007500206560E060013B15
:1007F000FDD191F8003292F8002203F00103D207F4
:1008000044BF43F00203DBB2A372204670BD00BFB9
:100810003C930200C0D4010090F814322DE9F04757
:100820000746002B7CD1DFF80C82794AD8F800000B
:10083000D468784D784E92F809E092E80A0091F871
:10084000009093F800C0117A714B1CEA0E0F09EA70
:1008500001015DD09B7A03F0030309B143F0040367
:1008600043F008039910013B91720D2B0AD8DFE881
:1008700003F075077207096F75756F0907720775C1
:10088000013CD460A04219D0DFF89891DFF890A124
:10089000D9F80030002C2246B8BFE21C92109A42D0
:1008A000CAF8002008D04FF47A715C480EF01EFBA5
:1008B000DAF80030C9F80030C8F800402B686968E1
:1008C0001A78687A0C782B7A5249044202EA0302B9
:1008D00016D08B7A03F003030AB143F0040343F00C
:1008E00008039A10013BAA720D2B00F28180DFE809
:1008F00003F07B7766777F387B7B387F7766777B03
:100900008B7A03F00303002AEBD043F00403E8E7FB
:100910009B7A03F003030029A4D043F00403A1E76A
:100920003F4E404C40484149394ADFF80881394D33
:1009300000233360384E2360036087F814321C466E
:100940000B601846D360C8F80030EB60336072E784
:10095000023CD46096E70234D46093E70134D4605B
:1009600090E7EC68023CEC6007F5AE7016F004FF0F
:100970002F4B00282DD11A68042A3BDC3268A41AB8
:1009800004EB840402EB44049442EC6026D01A6821
:10099000264D254F0132002C1A6022462B68B8BF25
:1009A000E21C92109A423A6006D040F2E9311B48AC
:1009B0000EF09CFA3B682B603460BDE8F087EC6871
:1009C0000234EC6007F5AE7016F0D6FE184B002826
:1009D000D1D03268002194421960D8D1BDE8F087A7
:1009E000EC68013CEC60BFE7EC680134EC60BBE70D
:1009F000EC68B9E7092A326805DCA41A04EB840420
:100A000002EB8404C0E76421A41A01FB0424BBE7C1
:100A1000107CFF1F207CFF1F847CFF1FAC67002021
:100A2000547CFF1F5C7CFF1F587CFF1F607CFF1FF6
:100A3000DC7BFF1F7C7CFF1FF8B590F81432002B85
:100A400047D12F4D2F4A2868D468577A92E848003A
:100A5000197896F800E0137A2A4E1EEA070F01EA89
:100A600003012ED0B37A03F0030309B143F004036A
:100A700043F008039910013B91720D2B0AD8DFE86F
:100A800003F03C07390709363C3C36090739073C77
:100A9000013CD460A04213D01B4E1C4F3368002C85
:100AA0002246B8BFE21C92109A423A6006D04FF438
:100AB0007A71174804F034FF3B6833602C60F8BD4E
:100AC000F8BDB37A03F003030029D3D043F0040345
:100AD000D0E70E4E0C490B4A094D002380F8143222
:100AE0001C4633600B601846D3602B60ADE7023CB8
:100AF000D460CFE70234D460CCE70134D460C9E7D6
:100B00008C7CFF1F107CFF1FB47CFF1FB07CFF1F7D
:100B1000A82D00202DE9F84F002383461D460E46E0
:100B200080F87431994600F5D67A00F180081024D7
:100B3000012706E08BF8747101350134102DE4B201
:100B400016D05AF8043F002BF6D0B342F2D8DBF8A7
:100B50001032CAF800905B5D2146404653B901351A
:100B600012F084FE0134102D8BF87571E4B2E8D1D7
:100B7000BDE8F88F12F03AFE0028DDD1214640464C
:100B800012F056FE8BF87571D6E700BF38B5144CDD
:100B90000C40002C1FDB031993F8A0516DB9012202
:100BA00083F8A021C9B2803012F042FE2A462146C5
:100BB0000C48BDE838400BF04BBD002283F8A02163
:100BC000C9B2803012F052FE214601220548BDE82C
:100BD00038400BF03DBD013C64F00F040134DAE70E
:100BE0000F0000800431002038B5144C0C40002C5C
:100BF0001FDB031993F8A0216AB90125C9B280301F
:100C000083F8A05112F014FE2A4621460C48BDE894
:100C100038400BF031BD0025C9B2803083F8A051B7
:100C200012F024FE2A4621460548BDE838400BF064
:100C300023BD013C64F00F040134DAE70F000080AB
:100C40000431002038B5144C0C40002C1FDB031974
:100C500093F8A0216AB90125C9B2803083F8A05168
:100C600012F0E6FD2A4621460C48BDE838400BF05C
:100C7000A3BE0025C9B2803083F8A05112F0F6FD62
:100C80002A4621460548BDE838400BF095BE013C98
:100C900064F00F040134DAE70F0000800431002013
:100CA000154B0B40002B10B504461FDB234493F873
:100CB00080216AB9012283F88021C9B204F1800041
:100CC00012F0B6FD012384F8153284F8143210BDF9
:100CD000002283F88021C9B204F1800012F0C6FD21
:100CE000012384F8153284F8143210BD013B63F0FF
:100CF0000F030133DAE700BF0F0000802DE9F8434E
:100D000080460F4600F1800600F29F1510244FF038
:100D1000000903E00134E4B2202C0DD015F8013FA6
:100D2000002BF7D0214601343046E4B212F09EFD8C
:100D3000202C85F80090F1D1094B3B40002B09DBBA
:100D400043440122F9B2304683F8A021BDE8F843BC
:100D500012F06EBD013B63F00F030133F0E700BFFB
:100D60000F000080F8B507464D1E00F180061024E4
:100D700005E00134E4B212F05BFD202C0DD015F833
:100D8000013F21463046002BF3D121460134304645
:100D9000E4B212F06BFD202CF1D1012387F87531FC
:100DA000F8BD00BF38B500F5D0750446C0F8105244
:100DB00000F29F13002200F2AF1003F8012F8342CC
:100DC000FBD106480BF02CFA2318012229462046B5
:100DD00083F89F21BDE83840FFF7C4BF04310020ED
:100DE00038B505460C480BF0CDFA05F5D071C5F8BD
:100DF000101205F29F1305F2AF14002203F8012F21
:100E0000A342FBD12B180122284683F8A021BDE87C
:100E10003840FFF7A7BF00BF0431002038B50546B2
:100E20000C480CF0BDF805F5D071C5F8101205F2AC
:100E30009F1305F2AF14002203F8012FA342FBD148
:100E40002B180122284683F8A021BDE83840FFF77F
:100E500089BF00BFAC67002038B500F5D0750446E7
:100E6000C0F8105200F29F1300F2AF11002203F8F5
:100E7000012F8B42FBD12946044810220BF064F865
:100E800029462046BDE83840FFF76CBF04310020FA
:100E9000B64B1B6870B5013B00F5AA7504462846A1
:100EA0000C2B00F28480DFE803F04B4B6C4B4B8241
:100EB0004B4B4B25824B070016F026FC002840F0D8
:100EC000038104F5AE75284616F01EFC002840F09C
:100ED0009E8004F5B275284616F016FC002840F0F6
:100EE000518104F5B674204616F00EFC002840F03F
:100EF000D38070BD16F008FC002840F0D48004F5C3
:100F0000AE75284616F000FC002840F0068104F576
:100F1000B275284616F0F8FB002840F0AB8004F5C7
:100F2000B674204616F0F0FB0028E2D0204616F0FA
:100F300031FC002800F040818D4B0022DA6070BD4A
:100F400016F0E2FB002840F0DE8004F5AE7528467E
:100F500016F0DAFB002840F0F68004F5B27528465A
:100F600016F0D2FB002864D104F5B674204616F0C2
:100F7000CBFB0028BDD0204616F00CFC0028DBD1AE
:100F800070BD16F0C1FB0028B3D0284616F002FC55
:100F9000002800F01281774A636A0021D160002B9B
:100FA00000F00C814FF47A70BDE87040184716F0DD
:100FB000ABFB00284ED104F5AE75284616F0A4FB15
:100FC000002840F0AE8004F5B275284616F09CFB70
:100FD00060B904F5B674204616F096FB002888D058
:100FE000204616F0D7FB0028A6D170BD284616F083
:100FF000D1FB0028EDD0604B002204F5B674DA6016
:10100000204616F081FB00283FF473AFE8E728463E
:1010100016F0C0FB00283FF45CAF584B002204F5EB
:10102000B275DA60284616F06FFB00283FF459AF1E
:10103000A8E0284616F0AEFB002895D04E4B0022C3
:1010400004F5B674DA60204616F05EFB00283FF423
:1010500050AF90E7284616F09DFB0028ABD0454BDB
:10106000002204F5AE75DA60284616F04DFB002824
:10107000A9D056E0284616F08DFB00283FF44FAF6C
:101080003D4B002204F5B674DA60204616F03CFBB6
:1010900000283FF42EAF49E7204616F07BFB0028DE
:1010A0007FF44AAF70BD284616F074FB00283FF469
:1010B00026AF304A636A0021D160002B3FF41FAF96
:1010C0004FF47A7098471AE7284616F063FB002819
:1010D0003FF4F7AE2A480BF00BF8421E54FA82F2A6
:1010E00092F8A03183F0010382F8A031002B5BD18C
:1010F00000F10F01C9B204F1800012F0B7FB012327
:1011000084F87531DDE6284616F044FB00283FF4EC
:101110001CAF1B480AF0ECFF17E7284616F03AFB15
:10112000F5E6284616F036FB00283FF44CAF134B8B
:10113000002204F5B275DA60284616F0E5FA0028B8
:101140003FF447AF52E7284616F024FB00283FF44F
:1011500004AF0A4B002204F5B275DA60284616F097
:10116000D3FA00283FF400AF63E700BFBC6FFF1F56
:10117000407CFF1F107CFF1F307CFF1F207CFF1F67
:1011800004310020284616F005FB00283FF4A9AEE4
:101190000B4B002204F5B674DA60204616F0B4FA60
:1011A00000283FF4A6AE77E700F10F01C9B204F1C1
:1011B000800012F03DFBA2E770BD70BD70BD00BFA6
:1011C000307CFF1FA1F57A71032906D8DFE801F012
:1011D0000E0A0602074B0022DA607047064B002217
:1011E000DA607047054B0022DA607047044B00223A
:1011F000DA607047407CFF1F307CFF1F207CFF1FA0
:10120000107CFF1F70B500F586750446284616F061
:101210007BFA00B970BD284616F0BCFA0028F9D058
:10122000A36ABDE87040184708B590F8A40017F00D
:1012300087F9084A1368C0F58040A3F16401884229
:1012400002DB6433984201DD106008BD4FF0FF30CF
:1012500008BD00BF6C7CFF1F08B590F8A80017F010
:101260006FF9074A1368A3F16401884202DB643313
:10127000984201DD106008BD4FF0FF3008BD00BF8F
:10128000647CFF1F30B500F58A7483B005462046A4
:1012900016F03AFA30B9204616F072FA80B90020FA
:1012A00003B030BD204616F075FA0028F3D00A4B83
:1012B0001B680193019BC5F8B030012003B030BD1D
:1012C00095F824320020042BC5F8B000E7D185F84A
:1012D0002402A5F82602E3E7CC940020054B82B057
:1012E0001B680193019B03F5FA63C0F8283202B032
:1012F000704700BFCC940020054B82B01B6801935F
:10130000019B03F5FA63C0F82C3202B0704700BFAE
:10131000CC940020F0B5B1B007462849284E684665
:10132000144616F0B3FE274904A816F0AFFE26496E
:1013300008A816F0ABFE25490CA816F0A7FE244914
:1013400010A816F0A3FE234914A816F09FFE224908
:1013500018A816F09BFE21491CA816F097FE2049FC
:1013600020A816F093FE1F4924A816F08FFE1E49F0
:1013700028A816F08BFE1D492CA816F087FE86FBC8
:101380000426E317C3EB660606EB4601A4EB8101D6
:10139000C9B20DEB0111384616F08CFEF1B2384699
:1013A00016F01CFF6D4630AC103C204616F02EFEA9
:1013B000AC42F9D1384631B0F0BD00BFA44F0200B5
:1013C000ABAAAA2AA84F0200F4500200AC4F0200B8
:1013D000044F020074520200B04F02009853020002
:1013E000B44F0200B84F0200BC4F0200C04F0200D1
:1013F000F0B5144DDFF854E00E4617460FCD8FB010
:1014000002AC0FC40FCD0FC495E80F008EFB065E33
:10141000F517C5EB6E0584E80F0005EB450EA6EB4E
:101420008E060EABF6B203EB8606EDB256F8303CF4
:10143000054A0095384604211EF078F838460FB06A
:10144000F0BD00BF744F0200C44F0200ABAAAA2A2D
:1014500010B5012200210D48FFF7ACF9032202214B
:101460000B48FFF7A7F9052204210A48FFF7A2F964
:10147000082206210848FFF79DF921232322222173
:101480000648BDE8104011F033BE00BF107CFF1FBE
:10149000207CFF1F307CFF1F407CFF1F907CFF1FC4
:1014A00010B586B00B460A4C0A4A684615211EF054
:1014B0003DF800221146204611F046FF68461EF016
:1014C000BFFA69460246204616F0B8FB06B010BDCA
:1014D000907CFF1FCC4F020070B5324D044632485D
:1014E0000AF0AEFE2B68052B064645D0072B2AD006
:1014F000042B10D020462D49FFF7D2FF06212C489F
:1015000018F010FD29682B4816F024FC2948BDE886
:10151000704016F0CFBB68B104F29F140025294635
:1015200021480AF0D5FE013580F00100B54204F8EB
:10153000010FF4D10921204818F0F4FC1D48BDE842
:10154000704016F0B7BB70B104F29F140025294615
:1015500015480AF0E1FE0135003018BF0120B54200
:1015600004F8010FF3D10B21144818F0DBFC1148EB
:10157000BDE8704016F09EBB58B104F29F140025E0
:10158000294609480AF0B6FE0135B54204F8010FB4
:10159000F6D109210A4818F0C5FC0648BDE870409C
:1015A00016F088BBBC6FFF1F0431002004500200FE
:1015B000345002001871FF1FF84F0200E04F020084
:1015C000EC4F020010B588B00B4600920A4C0B4A53
:1015D00002A815211DF0AAFF00221146204611F095
:1015E000B3FE02A81EF02CFA02A90246204616F00D
:1015F00025FB08B010BD00BF907CFF1F3C500200CF
:1016000030B5D0F818120C4C0C4A87B005460131A1
:1016100068461DF08BFF0021C5F8281220460222E3
:1016200011F092FE68461EF00BFA6946024620460B
:1016300016F004FB07B030BD907CFF1F5050020035
:1016400030B5D0F81C120C4C0C4A87B0054601315D
:1016500068461DF06BFF0021C5F82C1220460122C0
:1016600011F072FE68461EF0EBF96946024620460C
:1016700016F0E4FA07B030BD907CFF1F5050020016
:1016800010B5D0F8283282B004462BB10E4A126849
:101690000092009A934210D3D4F82C325BB10A4ADC
:1016A00012680192019A934205D22046FFF7C8FFC3
:1016B0000023C4F82C3202B010BDFFF7A1FF0023B5
:1016C000C4F82832E8E700BFCC94002070B50D4D77
:1016D0000C460646FFF794FF02220021284611F02F
:1016E00033FE20461EF0ACF921460246284616F08D
:1016F000A5FA20461EF0A4F9142828BF1420C6F825
:10170000180270BD907CFF1F70B5114D0C46064647
:10171000FFF776FF28460222002111F015FE204631
:101720001EF08EF921460246284616F087FA20461A
:101730001EF086F9C6F8180220461EF081F901460F
:10174000204618F0EFFB0348BDE8704016F0B2BA2F
:10175000907CFF1F1871FF1F10B586B00B460D4A15
:101760000D4C152168461DF0E1FE68461EF068F933
:10177000C0F11001C9B22046002211F0E5FD684613
:101780001EF05EF969460246204616F057FA06B08A
:1017900010BD00BF68500200907CFF1F70B50E4C5A
:1017A00005460E4620460122002111F0CDFD1322F0
:1017B0000A49204616F042FA20460222002111F082
:1017C000C3FD3146204616F04FFA1323C5F81832F0
:1017D000C5F81C3270BD00BF907CFF1F6C5002002A
:1017E0002DE9F04F2DED028B91B000F5C071039003
:1017F0007C480AF055FB002840F09180039B029042
:10180000FF2706468046814601900446BB463D467A
:10181000009703F27F1AB7EE008A02E00134102C21
:101820004FD01AF8012F002AF8D0224608A86D4997
:101830000AF038F99DF824200098824208D00199D6
:101840000131CBB290420193034628BF1346009367
:10185000DDED0D7AF4EE487AF1EE10FA03D0029A3B
:101860000132D3B20293F4EEC87AF1EE10FA2146B7
:101870005C48D8BFB0EE678A0AF006FDA84207D0E0
:10188000854209F1010928BF05465FFA89F9EDB2E1
:101890009DF839205A4506D008F1010893455FFAB2
:1018A00088F828BF93469DF83820BA42B6D09742B0
:1018B00004F1010406F1010628BF1746102CF6B208
:1018C000AFD101220021484811F03EFD12224749C4
:1018D000454816F0B3F9294604A816F009FCB9F1F9
:1018E000010F25D9424920E0424904A816F068FCBE
:1018F000069B112BF8D9022200213B4811F024FD50
:1019000004A9394816F0B0F9039C102312220DEBFC
:101910000300C4F81822C4F81C3216F077FB11B08B
:10192000BDEC028BBDE8F08F324904A816F048FCEC
:10193000069B022BF8D9594608A816F0D9FB08A92E
:1019400004A816F039FC08A816F060FBB8F1010FE6
:1019500005D9274900E0274904A816F031FC069B69
:10196000052BF8D9394608A816F0C2FB08A904A827
:1019700016F022FC08A816F049FB012E05D91C49D7
:1019800000E01C4904A816F01BFC069B082BF8D9A4
:10199000009A039908A8FFF7BDFC08A904A816F04F
:1019A0000BFC08A816F032FB019B012B05D910494E
:1019B00000E0104904A816F003FC069B0C2BF8D994
:1019C000B0EE480A022108A816F0A6FB08A904A850
:1019D00016F0F2FB08A816F019FB029B012B87D921
:1019E000034982E704310020907CFF1F94500200DD
:1019F000A8500200EC50020010B502220C460B4821
:101A0000122111F0A1FC0A490848022216F016F929
:101A1000082CD4BF132112210448022211F094FC97
:101A200021460248BDE8104016F094B9907CFF1F93
:101A3000DC4F020038B504460E480AF051F804F5B0
:101A4000D0710546C4F8101204F29F1304F2AF10CF
:101A5000002203F8012F8342FBD1631901222046A3
:101A600083F8A021FFF77EF929462046BDE83840DB
:101A7000FFF7C2BF0431002010B503220C460B480B
:101A8000122111F061FC0A490848022216F0D6F82A
:101A9000082C94BF132112210448032211F054FC96
:101AA000611C0248BDE8104016F054B9907CFF1F3D
:101AB000DC4F020030B5204B1B7883B004460D4646
:101AC0001BB91E4B1B68092B12D01D48A46B0AF0D2
:101AD00015F81C4929400029024604DBC9B202203E
:101AE000A04703B030BD013961F00F010131F5E7C6
:101AF000FFF704F913492940002918DBCDB2294624
:101B00000F480AF013F80E4809F0DCFF01462046A2
:101B1000FFF7FAFD0C4B1B680193019B03F5FA6379
:101B20002946C4F828322046FFF7A6FFD9E7013935
:101B300061F00F010131E1E7FD660020BC6FFF1F7E
:101B4000043100200F000080CC94002010B5022248
:101B50000C460D480F2111F0F7FB0C490A480222F0
:101B600016F06CF8092C4FF0020294BF10210F21DF
:101B7000054811F0E9FB214600230A220248BDE88E
:101B8000104016F0A7B800BF907CFF1FDC4F02008A
:101B900038B504460E4809F0B1FF04F5D07105468A
:101BA000C4F8101204F29F1304F2AF10002203F8DD
:101BB000012F8342FBD163190122204683F89F2124
:101BC000FFF7D0F829462046BDE83840FFF7BEBFF2
:101BD0000431002038B5594D2B68013B04460C2BCD
:101BE00000F2A180DFE803F05F6B6D07071A07269C
:101BF000313C4A948900002300F5D075026A4362A3
:101C0000012380F83132C0F810528262FFF764FC81
:101C100029462046BDE83840FFF7A4B8036A83622E
:101C2000002200F5C0714262C0F81012BDE83840D1
:101C3000FFF798B88368026A4362012380F8313263
:101C40008262BDE83840FFF7ADB80023026A436204
:101C5000012380F831328262BDE83840FFF7C0B816
:101C6000C36A026A4362012380F831328262FFF75D
:101C7000D5F83348BDE838400CF00EB8036A8362EB
:101C800000F5D07100224262C0F8101200F29F13DA
:101C900000F2AF1003F8012F8342FBD12046BDE8CC
:101CA0003840FFF75FB8C368226A63620123A2620B
:101CB00084F831322046BDE83840FFF7BBBE0369E7
:101CC000F2E7036B026A436200F5D071012382627E
:101CD00080F83132C0F8101200F29F13002200F297
:101CE000AF1003F8012F8342FBD12046FFF73AF8EB
:101CF0001448BDE8384003F077BC0023026A436211
:101D0000012380F831328262BDE83840FFF7A4B881
:101D1000436B026A4362012380F831328262BDE87C
:101D20003840FFF735BF2921074818F0FBF829682C
:101D30000648BDE8384016F00DB800BFBC6FFF1F65
:101D4000AC670020A82D0020AC5002001871FF1FC6
:101D5000134A144B126870B553F82250124C86B0D7
:101D6000064628461DF06CFED6F820120F4AC6F82B
:101D700020028142B8BF01462B46013168461DF062
:101D8000D5FB20460122002111F0DEFA68461DF045
:101D900057FE69460246204615F050FF06B070BD5A
:101DA000BC6FFF1F7C6FFF1F907CFF1FD85002008D
:101DB00070B500F5927586B00446284615F0A4FC6F
:101DC000002840F02581284615F0DAFC002840F074
:101DD000E88004F59A75284615F096FC002840F036
:101DE000F380284615F0CCFC002840F0A38004F5D1
:101DF0009675284615F088FC002840F0AE802846ED
:101E000015F0BEFC002870D104F59E75284615F02B
:101E10007BFC002873D1284615F0B2FC00283FD186
:101E200004F5A275284615F06FFC002842D128461B
:101E300015F0A6FC70B904F5A675284615F064FCEB
:101E400090B9284615F09CFC10B10023C4F8CC30A2
:101E500006B070BD002304F5A675C4F8C830284646
:101E600015F052FC0028ECD0284615F093FC002811
:101E7000E7D02046FFF7C4FB964B092220461A60A4
:101E8000FFF7A8FE2046FFF763FF934B1B680593FF
:101E9000059BC4F8CC30012384F8143206B070BD21
:101EA000002304F5A275C4F8C430284615F02CFCB4
:101EB0000028BCD0284615F06DFC0028B7D020467D
:101EC000FFF79EFB834B082220461A60FFF782FE35
:101ED0002046FFF73DFF804B1B680493049BC4F82A
:101EE000C830012384F81432A5E7002304F59E7559
:101EF000C4F8BC30284615F007FC00288BD02846D3
:101F000015F048FC002886D02046FFF779FB714B7E
:101F1000072220461A60FFF75DFE2046FFF718FFF4
:101F20006D4B1B680393039BC4F8C430012384F8F2
:101F3000143275E794F824220023032A04F59675D9
:101F400004BF84F82432A4F82632C4F8C0302846EE
:101F500015F0DAFB00283FF452AF284615F01AFCC2
:101F600000283FF44CAF2046FFF74AFB594B1A6854
:101F7000052A00F08C80042A00F09480574A1268E9
:101F80001A602046FFF726FE2046FFF7E1FE524B7F
:101F90001B680293029BC4F8BC30012384F81432FE
:101FA00032E794F824220023022A04F59A7504BF2C
:101FB00084F82432A4F82632C4F8B830284615F044
:101FC000A3FB00283FF40DAF284615F0E3FB0028E3
:101FD0003FF407AF2046FFF713FB3E4A1368062B7A
:101FE00050D00C2B58D00D2B42D03D4B1B681360AA
:101FF0002046FFF7EFFD2046FFF7AAFE364B1B6891
:102000000193019BC4F8C030012384F81432EEE63A
:10201000284615F0BFFB00283FF4D5AE2046FFF759
:10202000EFFA2C4A1368012B27D0022B3FD0032B49
:1020300014D00A2B45D02B4B1B6813602046FFF7AA
:10204000C9FD2046FFF784FE234B1B680093009BCD
:10205000C4F8B830012384F81432BAE6214D22497D
:1020600001264FF0FF300A232E6008601360E5E779
:102070001B4906230B601360BAE71A48022103606C
:102080001160DBE716480C2103601160B0E71349CB
:1020900004220A601A6074E7114906200D230860C3
:1020A0001360A5E70D4905220A601A6069E70D4D26
:1020B0000D4901264FF0FF3003232E6008601360A6
:1020C000BCE7084D084901234FF0FF302B60136037
:1020D0000860B3E7BC6FFF1FCC940020386FFF1F70
:1020E000346FFF1F3C6FFF1FB86FFF1F70B50446B2
:1020F00016480E4609F002FD06F00F030133984220
:1021000006D004F5D0712046BDE87040FEF72ABE27
:10211000054631462046FEF7F1FD29462046FFF7E9
:1021200015FD0A480AF02EF901462046FFF7A4FCE7
:10213000074B062220461A60FFF74CFD2046FFF7AA
:1021400007FE012384F8143270BD00BF0431002063
:10215000BC6FFF1F10B500220C461248112111F070
:10216000F3F8032210490F4815F068FD632C4FF077
:1021700000020CDC092CCCBF12211321094811F0FC
:10218000E3F821460748BDE8104015F0E3BD1121F2
:10219000044811F0D9F821460248BDE8104015F076
:1021A000D9BD00BF907CFF1F8C50020010B50122EA
:1021B0000C461248112111F0C7F8032210490F48AC
:1021C00015F03CFD092C4FF001020CDD632CD4BF4F
:1021D00012211121094811F0B7F821460748BDE83E
:1021E000104015F0B7BD1321044811F0ADF8214699
:1021F0000248BDE8104015F0ADBD00BF907CFF1F48
:102200008C500200F0B587B005460C9F0D9E0E9CC9
:102210000F9829606A601499159AAB60EF60109B63
:10222000119F2E616C61129E139C6963AA63EB611E
:10223000A8612F62EE622C6305F1A80305F1D001BD
:10224000002243F8042F9942FBD105F27F1205F2D8
:102250008F13002102F8011F9A42FBD105F29F1152
:10226000002203F8012F9942FBD105F5D67305F53D
:10227000F671002243F8042F9942FBD105F2EF13C7
:1022800005F20F21002203F8012F9942FBD1762499
:1022900075217422732305F1800677270394029138
:1022A000019200933046722304977122702111F03D
:1022B000D5FBEB6B002BC8BF002420DD2146304648
:1022C00011F0B6FA304611F023FC0A2016F09EFDFC
:1022D0000134EB6BE4B29C42F0DB002B0FDD0024F9
:1022E0002146304611F0C2FA304611F011FC0A20A6
:1022F00016F08CFD0134EB6BE4B29C42F0DB142051
:1023000016F084FD2846FFF765FC2846FFF720FD00
:102310000F480EF047FD01462846FFF71BFF0C480B
:102320000EF042FD01462846FFF740FF09480AF03B
:1023300029F801462846FFF79FFB064809F0DEFB17
:102340000146284607B0BDE8F040FFF7FFBB00BFDD
:10235000D090002004310020F8B5144D0C461746EB
:102360000646FFF74DF902220021284610F0ECFF47
:1023700020461DF065FB21460246284615F05EFC0E
:1023800020461DF05DFB0222C1B2284610F0DCFFA2
:102390003946284615F0DEFC20461DF051FB06307C
:1023A000142828BF1420C6F81802F8BD907CFF1F1F
:1023B000F8B51F4C1F4F154600220E462046114609
:1023C00010F0C2FF204611221B4915F037FC0022F5
:1023D0001146204610F0B8FF30461DF031FB314663
:1023E0000246204615F02AFC20460122002110F06A
:1023F000ABFF28461DF024FB29460246204615F077
:102400001DFC30461DF01CFB0146304617F08AFDCE
:10241000384615F04FFC28461DF012FB01462846B1
:1024200017F080FD3846BDE8F84015F043BC00BF0A
:10243000907CFF1F1871FF1FDC500200B0B588B000
:1024400002AF04460B4600921521164A164D384637
:102450001DF06CF838461DF0F3FAD4F81832C4F8C1
:10246000180298420146B8BF194601F1080323F04B
:102470000703ADEB030D02AC3B460C4A013120468D
:102480001DF054F828460222002110F05DFF20467E
:102490001DF0D6FA21460246284615F0CFFB183724
:1024A000BD46B0BDF0500200907CFF1FD850020026
:1024B0002DE9F04790F8313282B00546002B40F00C
:1024C0008280584E584A3068D46892F809E092E801
:1024D0008800197897F800C0137A534F1CEA0E0F42
:1024E00001EA03015AD0BB7A03F0030309B143F0B8
:1024F000040343F008039910013B91720D2B0AD895
:10250000DFE803F05E075807095B5E5E5B0907586A
:10251000075E013CD460C31EA34202DC0330A0422C
:1025200039DA424809F0EAFA3368E31A48BF03335C
:1025300000EBA307002F39DC0127DFF80081D8F872
:1025400000309F4226D05FFA87F94946374809F0A4
:1025500001FC3A4636492846FFF770FF354B364AAC
:102560001B680193019B126803F5FA630C2AC5F8F6
:10257000283239D049462846FFF7E8FA2B4809F0B7
:1025800001FF01462846FFF777FA2846FFF722FBAE
:10259000C8F80070346002B0BDE8F087BB7A03F081
:1025A00003030029A7D043F00403A4E7022FA8BF28
:1025B0000227C2E70234D460ADE7023CD460AAE748
:1025C0000134D460A7E7002380F831321748154E54
:1025D00009F094FA1949144A086003B29B001C469A
:1025E00018463360D36070E7D8F80030E8192B4400
:1025F000002209F10F014FF0010A05F1800980F86E
:102600009FA1C9B283F89F21484611F011F9D8F86B
:1026100000100F314846C9B211F028F985F875A1AC
:10262000B6E700BF807CFF1F107CFF1F0431002035
:10263000F8500200CC940020BC6FFF1FF07BFF1FFE
:102640002DE9F041A84D2DED028B2B68DA0782B001
:10265000044640F1EB81A54D2B68DB0740F1D781A3
:1026600094F81432002B40F0AF81A14DA14E2B689D
:1026700069681A78687A0F782B7A9D49074202EACE
:1026800003021DD08B7A03F003030AB143F0040365
:1026900043F008039A10013BAA720D2B00F26881E7
:1026A000DFE813F0540150014C015001660116009F
:1026B000540154011600660150014C0150015401AF
:1026C0008B7A03F00303002AE4D043F00403E1E72C
:1026D000EB68023BEB6007EE903A9FED876A96ED60
:1026E000007ADFED866AF8EEE77A87EE868A77EE83
:1026F000267AB4EEE78AF1EE10FA06DA37EE667A59
:10270000B4EEC78AF1EE10FA40D87D4BDFED7D7A4A
:10271000D3ED006AB1EE007AE6EEC77AB4EEE78A4E
:10272000F1EE10FA40F13A81B9EE008A26EE888A7D
:10273000DFED717A68EE277AFDEEE77AC5ED037A70
:10274000714D724F95ED000AF5EE007A68EE277A2A
:10275000F4EE407AF1EE10FAC7ED007A40F07581A0
:102760009FED650A6A4967EE807A2046FDEEE77ABA
:1027700017EE902AFFF762FE664B86ED008A1B6813
:102780000193019B03F5FA63C4F82832624A136887
:10279000506819780578507A137A054201EA0301E6
:1027A00000F0F380937A03F0030309B143F00403CC
:1027B00043F008039910013B91720D2B00F2D68073
:1027C000DFE813F0D000C800CC00C800D4000E0031
:1027D000D000D0000E00D400C800CC00C800D0004B
:1027E000D568023DD5604D4E3368DA1EAA4202DC40
:1027F000DA1CAA421DDA4A4FDFF83C81EA1A3B682C
:10280000D8F8001048BF033203EBA203082BA8BF7F
:10281000082323EAE37399423B6006D019464148F6
:102820000EF0BAFA3968C8F800102046FFF7BEFC6F
:1028300035603D4A1368506819780578507A137AE4
:10284000054201EA030100F09780937A03F0030345
:1028500009B143F0040343F008039910013B91725E
:102860000D2B00F28780DFE803F03B373337850715
:102870003B3B07853733373BD568023DD5602B4E50
:102880003068C31EAB4202DCC31CAB421BDA284AD1
:10289000281A136848BF033003EBA000002840F358
:1028A000E280B0F5967FA8BF4FF49670214F10607C
:1028B0003B68DFF87C80984204D063699847D8F879
:1028C00000303B60356002B0BDEC028BBDE8F081AA
:1028D000D5680235D560D2E7D568013DD560CEE731
:1028E000D5680135D560CAE70C7CFF1F047CFF1F4B
:1028F000207CFF1F687CFF1F0000C8420AD7233DD1
:10290000707CFF1F00000000AC7CFF1FE47BFF1FFA
:1029100000510200CC940020307CFF1FBC7CFF1FC4
:10292000007CFF1FD0900020407CFF1F087CFF1F11
:10293000787CFF1FE87BFF1FFC7BFF1FEB680233E7
:10294000EB60C8E6EB68013BEB60C4E6EB68013383
:10295000EB60C0E6D568013DD56044E7D568023537
:10296000D56040E7D5680135D5603CE7D5683AE7E2
:10297000EB68B0E6D56882E7937A03F00303002999
:102980003FF46BAF43F0040367E7937A03F003036C
:1029900000293FF40FAF43F004030BE7334BD3EDB3
:1029A000007A27EE877AB4EEC78AF1EE10FA7FF745
:1029B000C7AEDFED2F7A67EE277AB0EE478AFDEEDD
:1029C000E77AC5ED037ABBE62A482B4DDFF8C4E071
:1029D0002A4E0023002204F5C077036084F81422F5
:1029E000EA6039462648CEF80030336009F03AFDF7
:1029F000244B234883ED000A394609F071FDF7EEB8
:102A0000007A37EEC00A194B83ED000A2FE62846FC
:102A100015F0FEFE00283FF423AE1B480EF0C4F96B
:102A20001A4B1860284615F0F9FE19E6284615F0ED
:102A3000EFFE00283FF40FAE13480EF0B1F9144B2F
:102A40001860284615F0EAFE05E637EEC00A94F84D
:102A500030220B4804F5C07109F0C6FED7ED007AAC
:102A6000C5ED007A7CE6012020E700BF747CFF1FE3
:102A70000000C842E47BFF1F207CFF1F687CFF1F13
:102A800004310020707CFF1FD0900020007CFF1FCD
:102A9000787CFF1FAC7CFF1F384B1B680D2B00D0D0
:102AA00070472DE9F041364BCFB20B4007F00F06CF
:102AB000002B82B006F1010639DBC418054694F8F4
:102AC000A0317BB12F4B93F80080B8F1000F33D1C8
:102AD000424631462C4809F0ADFA002838D102B000
:102AE000BDE8F081274B1B78DBB90122314626482F
:102AF00009F0A0FA30B3012384F8A031394605F17A
:102B0000800010F095FE324620492846FFF796FCDB
:102B10001F4B1B680193019B03F5FA63C5F828322C
:102B2000DDE7836B3246012104209847D7E7013B5C
:102B300063F00F030133C0E7836B324600210420AA
:102B40009847CCE7394605F1800010F08FFEC6E7C4
:102B5000394605F1800084F8A08110F087FE3246E6
:102B60000C492846FFF76AFC094B1B680093009B41
:102B700003F5FA63C5F82832B1E700BFBC6FFF1F49
:102B80000F000080FD660020043100201C5102006F
:102B9000CC9400200C51020010B5013A8CB00446D0
:102BA000032A6BD8DFE802F052371D0240F6B83333
:102BB000994200F086806AD941F28833994200F048
:102BC000AA8041F65833994264D15F49FEF79CFDD3
:102BD0005E4B1B680B930B9B03F5FA63C4F828321A
:102BE00053E040F6B833994277D050D941F2883358
:102BF000994200F09C8041F6583399424AD1544999
:102C0000FEF782FD514B1B680893089B03F5FA639E
:102C1000C4F8283239E04F4A40F6B8339942126876
:102C20003DD034D941F28833994262D041F65833CD
:102C300099422FD14849FEF767FD444B1B68059325
:102C4000059B03F5FA63C4F828321EE0434801915E
:102C50000AF06EF8019940F6B83399422BD016D994
:102C600041F28833994250D041F65833994211D1FC
:102C700002463B492046FFF7E1FB06E03949FEF7F3
:102C80000FFC3A21384817F04DF90CB010BDB1F5E2
:102C90007A7FFAD02046FEF7B3FC0CB010BD334962
:102CA000FFF7CCFB294B1B680393039B03F5FA63E7
:102CB000C4F82832E9E702462C492046FFF7BEFB5C
:102CC000E3E72B49FEF720FD204B1B680993099B86
:102CD00003F5FA63C4F82832D7E72649FEF714FD56
:102CE0001A4B1B680693069B03F5FA63C4F8283257
:102CF000CBE72149FFF7A2FB144B1B680493049B0D
:102D000003F5FA63C4F82832BFE702461B492046A0
:102D1000FFF794FBB9E71A49FEF7F6FC0B4B1B686B
:102D20000A930A9B03F5FA63C4F82832ADE7154904
:102D3000FEF7EAFC054B1B680793079B03F5FA6354
:102D4000C4F82832A1E700BFD0510200CC94002083
:102D50009C510200B86FFF1F68510200AC67002051
:102D600048510200D8510200E851020028510200E7
:102D7000A851020078510200585102003851020057
:102D8000C05102008C510200B1F57A7F38B504D8E9
:102D9000B0F8264294B3002038BD40F6B834A142C2
:102DA00012D8B0F82612B1F57A7FF4D1A0F82642F5
:102DB0002146FFF7F1FE0821284817F0B3F828480C
:102DC00014F078FF002038BD41F28835A94222D99D
:102DD00041F65834A142B0F826122ED8A942DAD1D1
:102DE000A0F826422146FFF7D7FE04211D4817F020
:102DF00099F81B4814F05EFF002038BD4FF47A723A
:102E0000A0F826220B21184817F08CF8144814F06B
:102E100051FF204638BDB0F82612A142BBD1A0F820
:102E200026522946FFF7B8FE0621104817F07AF817
:102E30000B4814F03FFF012038BDA142ABD1002464
:102E4000A0F826422146FFF7A7FE0821084817F000
:102E500069F8034814F02EFF204638BD30520200B6
:102E60001871FF1F44520200245202003C5202001B
:102E70004C52020070B51A4D82B08DED010A0C461D
:102E80000646FEF7BDFB28460222002110F05CFA40
:102E900020461CF0D5FD21460246284614F0CEFE01
:102EA00020461CF0CDFD0222C1B2284610F04CFA9B
:102EB0009DED010A10EE100A1BF06AF941EC100BAF
:102EC0000221284614F050FF20461CF0B9FD0630C0
:102ED000142828BF1420C6F8180202B070BD00BF25
:102EE000907CFF1FF8B5184D0C4616460746FEF7B6
:102EF00087FB02220021284610F026FA20461CF00B
:102F00009FFD21460246284614F098FE20461CF0FC
:102F100097FD0222C1B2284610F016FA30461CF086
:102F20008FFD31460246284614F088FE20461CF0EC
:102F300087FD044630461CF083FD2044142828BF3A
:102F40001420C7F81802F8BD907CFF1FB0B588B0F8
:102F500002AF0446019300920B46174A174D152104
:102F600038461CF0E3FA38461CF06AFDD4F81832F3
:102F7000C4F8180298420146B8BF194601F1080387
:102F800023F00703ADEB030D02AC3B460C4A0131C5
:102F900020461CF0CBFA28460222002110F0D4F97A
:102FA00020461CF04DFD21460246284614F046FE00
:102FB0001837BD46B0BD00BF58520200907CFF1FBD
:102FC000D85002002DE9F04190F8143282B0054645
:102FD000002B40F082804E4F4E4E3B6879681A7845
:102FE000787A0C783B7A4A49044202EA030215D007
:102FF0008B7A03F003030AB143F0040343F00803A0
:103000009A10013BBA720D2B65D8DFE803F05860C7
:103010005C60640F58580F64605C60588B7A03F0F2
:103020000303002AECD043F00403E9E7FC68023C08
:10303000FC603368DA1CA24202DB033BA3423BDDA7
:10304000354B1B78C3EB83739B00A34204DC334BEB
:103050001B789B00A34201DAFB601C46304FDFF86F
:10306000D0803A68002C2346B8BFE31C9B109342E3
:10307000C8F800301FD09A1AD2B295F830322948D9
:1030800005F5C07109F02CFBD8F80080C7F8008066
:1030900001466A462846FEF7ABF9424603462249F6
:1030A0002846FFF753FF214B1B680193019B03F553
:1030B000FA63C5F82832346002B0BDE8F081FC68DC
:1030C0000134FC60B5E7FC680234FC60B1E7FC68E1
:1030D000013CFC60ADE7FC68ABE715490C4F104ABA
:1030E0000C4E1048002305F5C0740B60FB602146B0
:1030F0001360336009F056F9074B214618700948F0
:1031000009F080F9054BC0F17F00187065E700BF3A
:10311000107CFF1FF87BFF1F507CFF1FF47BFF1FFD
:10312000E07BFF1F0431002064520200CC94002099
:10313000EC7BFF1F134B1A680D2A10B5044609D803
:103140000123934043F2B6321A405AB91A0714D4F5
:103150005B050ED42046FFF735FF2046BDE8104042
:10316000FFF76EBAFFF7A4F92046BDE81040FFF75D
:1031700067BABDE81040FDF74FBBBDE81040FDF752
:103180005BBC00BFBC6FFF1FF0B58DB01D4D9DF83F
:1031900048409DF84CE09DF85070CDF80CE00134AB
:1031A000019306464B1C00920294049707A8164A06
:1031B000164C14211CF0BAF928460222002110F006
:1031C000C3F807A81CF03CFC07A90246284614F0E7
:1031D00035FD07A81CF034FCC6F81802204614F090
:1031E00069FD14210A4816F09DFE07A81CF028FC72
:1031F000014607A816F096FE204614F05BFD0DB0C0
:10320000F0BD00BF907CFF1F785202001871FF1FB5
:103210009052020008B503221121094810F094F8D9
:10322000084B1B7801222BB907490548BDE8084027
:1032300014F004BD05490248BDE8084014F0FEBC86
:10324000907CFF1F40910020EC500200A852020029
:1032500010B50446032290F878110B4810F074F86A
:10326000D4F81022D4F87831D35C01222BB9074965
:103270000548BDE8104014F0E1BC05490248BDE82E
:10328000104014F0DBBC00BF907CFF1FEC5002002C
:10329000AC5202002DE9F04F0446102300F1440720
:1032A00020268FB0036404F16208E66338460025E7
:1032B00010F03AFA404610F037FA42463946049583
:1032C00003950295019500952B4604F1800010F0BE
:1032D0002DFAC4F804611A26C4F8E860192604F52A
:1032E0008673C4F8EC601B264FF0250C4FF0240EBB
:1032F0001E2107931F220523C4F8F0604FF0420BF4
:103300004FF0430A4FF027094FF0260818271D20D9
:103310001C26C4F8DCC0C4F8E0E0C4F80831C4F8E6
:10332000FC10C4F80021C4F8A4B0C4F8A8A0C4F8E4
:10333000D49004F58A7AC4F8D880C4F8E470C4F84C
:10334000F460C4F8F800079814F0BEF9504614F081
:10335000BBF904F58E7904F592721646484614F0CE
:10336000B3F904F5967230461746089614F0ACF996
:1033700004F59A710E463846099714F0A5F904F53C
:103380009E7130460F460A9614F09EF904F5A2701D
:10339000064638460B9714F097F904F5A6700746D1
:1033A000304604F5AA7B0C9614F08EF9384604F5E5
:1033B000AE780D9714F088F9584614F085F904F5A5
:1033C000B277404614F080F904F5B676384614F02A
:1033D0007BF9304614F078F9FF22012384F830227B
:1033E00084F8313284F8745184F8755184F8145299
:1033F00084F81552C4F81852C4F81C52C4F820526C
:1034000084F82452A4F826524A21714816F08AFD05
:10341000704814F04FFC2B466F48042214210FF023
:10342000B7FF0A226D496C4814F008FC94F8A40018
:10343000022115F09BFC94F8A800022115F096FCDF
:1034400094F8D800022115F091FC94F8D4000221E0
:1034500015F08CFC94F8DC00022115F087FC94F840
:10346000E000022115F082FC94F8E400022115F03E
:103470007DFC94F8E800022115F078FC94F8EC004B
:10348000022115F073FC94F8F000022115F06EFC97
:1034900094F8F400022115F069FC0798D4F8D810CC
:1034A00014F01AF95046D4F8D41014F015F948461F
:1034B000D4F8DC1014F010F90898D4F8E01014F0E7
:1034C0000BF90998D4F8E41014F006F90A98D4F826
:1034D000E81014F001F90B98D4F8EC1014F0FCF893
:1034E0000C98D4F8F01014F0F7F80D9DD4F8F410FF
:1034F000284614F0F1F80798B4F8081114F002F90E
:103500005046B4F8081114F0FDF84846B4F8081114
:1035100014F0F8F80898B4F8081114F0F3F80998C2
:10352000B4F8081114F0EEF80A98B4F8081114F081
:10353000E9F80B98B4F8081114F0E4F80C98B4F812
:10354000081114F0DFF82846B4F8081114F0DAF87E
:1035500094F8F800022115F009FC94F8FC0002210F
:1035600015F004FC94F80001022115F0FFFB94F81B
:103570000401022115F0FAFB5846D4F8F81014F0B3
:10358000ABF84046D4F8FC1014F0A6F83846D4F84E
:10359000001114F0A1F83046D4F8041114F09CF88E
:1035A0005846B4F8081114F0ADF84046B4F80811C4
:1035B00014F0A8F83846B4F8081114F0A3F830460F
:1035C000B4F8081114F09EF820460FB0BDE8F08F53
:1035D000B05202001871FF1F907CFF1FFC520200C6
:1035E00070B516460C460546C9B203221F480FF0B7
:1035F000ABFEFEB92B1993F88061D5F878317EB90E
:103600009C422BD021461A4808F050FE012818D9B8
:10361000334601460A221548BDE8704014F05ABBF3
:103620009C424FF0010213D012491048BDE870408F
:1036300014F004BB012210490C48BDE8704014F09E
:10364000FDBA01220D490948BDE8704014F0F6BAF0
:103650000B490648BDE8704014F0F0BA0122094950
:103660000248BDE8704014F0E9BA00BF907CFF1F2B
:1036700004310020AC520200A8500200EC500200BD
:10368000085302004488020070B5441800220F2934
:10369000054684F8F0211FD901F00F060C4631468B
:1036A000FFF79EFF12211B4816F03CFC31461A48DA
:1036B00014F050FB184814F0FDFA95F83032A3428C
:1036C00004BFFF2385F83032144B1B680A2B09D046
:1036D0000B2B00D070BD214605F18000BDE8704085
:1036E00010F0C4B82846FDF78BFF95F824220C484B
:1036F0000023012AC5F8D03004BF85F82432A5F88C
:10370000263231460AF0FEFA2846BDE87040FDF741
:1037100085BB00BF0C5302001871FF1FBC6FFF1F59
:10372000AC67002070B50D461646D0F87C1100221B
:103730000446FFF755FF0322E9B209480FF004FEE3
:10374000012236B90749064814F078FAC4F87C51CA
:1037500070BD0549024814F071FAC4F87C5170BD7F
:10376000907CFF1F4488020008530200D0F81032FA
:1037700070B55D5CC0F87811103104461646C9B2C8
:10378000803095B110F072F80122D4F878112046FB
:10379000FFF7C8FFD4F878316C33012244F8236076
:1037A00084F8742184F8752170BD10F041F82A4620
:1037B000D4F878112046FFF7B5FFEBE72DE9F0418B
:1037C000012186B0054648480FF0E2FA0021122098
:1037D00015F0CCFA0121132015F0C8FA01211320AD
:1037E00015F0B0FA0B26122015F0B2FA30B9013EEE
:1037F00001464FF496744FF0130067D1752174227F
:10380000732305F1800677277624029101920093B5
:1038100030467223049703947122702110F01EF930
:10382000EB6B002B09DD00242146304610F01EF81A
:103830000134EB6BE4B29C42F6DB304610F068F9E1
:1038400005F29F1305F2AF11002203F8012F8B42FE
:10385000FBD16FF4BF76761B05F27F1405F28F184B
:103860000027311904F8017F00222846FFF7B8FE2F
:103870004445F6D105F5D67305F5F670002143F8F9
:10388000041F83424FF00002F9D1184B85F815222E
:1038900001240622284685F814421A60FEF79AF998
:1038A0002846FEF755FA12480DF07CFA01462846E4
:1038B000FEF750FC0E480DF077FA01462846FEF759
:1038C00075FC85F8744106B0BDE8F08115F03AFA50
:1038D0002346013BFDD10121132015F033FA234685
:1038E000013BFDD17FE700BF3070FF1FBC6FFF1FA2
:1038F000D090002030B5D0F8B83087B00446A3B1DE
:10390000374A126802920299C91A0ED0354D2B68B7
:103910000222013380F824225AD002222046FFF7E7
:1039200033FA002847D107B030BDD4F8D030ABB15E
:103930002B4A126803920399C91A0FD0012284F806
:1039400024222046FFF720FA0028ECD0264809F070
:10395000EFF90146244809F0E7FAE4E7D4F8C0306B
:103960008BB11F4A126804920499C91A0BD0032222
:1039700084F824222046FFF707FA0028D3D02046F7
:10398000FFF71CFFCFE7D4F8B030002BCBD0144AA0
:10399000126805920599C91AC5D0042284F8242218
:1039A0002046FFF7F1F90028BDD0104808F004FACE
:1039B000E3699847B7E729680C4807F0B3FE20464B
:1039C0002968FEF719F84FF0FF332B6007B030BDC0
:1039D0000648019108F084F8019928609DE700BF2E
:1039E000CC940020B86FFF1FAC670020043100208A
:1039F0002DE9F04F00F58E7585B00446284613F08A
:103A000083FE10B905B0BDE8F08F284613F0C2FE62
:103A10000028F7D08C4E3368013B0A2B57D8DFE8DB
:103A200003F0411E18565656560D0D560600874D8A
:103A30002B78002B54D1E3699847E3E7844A137845
:103A4000204683F001031370FFF7E4FB05B0BDE8E7
:103A5000F08F804801F042FE05B0BDE8F08F7E4D4A
:103A600029684B1C00F0D7807C4807F05BFE2A6871
:103A70007B492046FEF7E2FC7A4B1B680393039BCD
:103A800003F5FA63C4F8283201274FF0FF332046CC
:103A90002B603760FEF79EF82046FEF759F984F850
:103AA0001472AFE76D4807F079FF30B36B4808F048
:103AB00017F86D4902462046FEF7C0FC694B1B68AB
:103AC0000193019B03F5FA63C4F828329AE794F84E
:103AD0001532032B00F2AA80DFE803F076593F206D
:103AE000012720463760FEF775F82046FEF730F9CB
:103AF000002384F814722B7084E7584807F0F0FF15
:103B00005A4902462046FEF799FC564B1B68029321
:103B1000029B03F5FA63C4F8283273E704F28F19A5
:103B20006FF4BF77C8463F1B04F27F154FF0010AC0
:103B3000791915F8013F08F8013F002285F800A027
:103B40002046FFF74DFD4D454FF0010BF0D102230C
:103B500084F814B284F8153253E06FF4BF773F1B3A
:103B600004F27F1504F28F1A4FF0000979194FF013
:103B7000000805F8019F42462046FFF731FD5545F4
:103B8000F4D1012384F8158284F8143239E004F268
:103B90008F196FF4BF77C8463F1B04F27F15791960
:103BA00015F8013F08F8013F83F001032B70002254
:103BB0002046FFF715FDA945F1D10322012384F822
:103BC000152284F814321CE06FF4C778C4EB08089F
:103BD00004F28F1504F27F1704F29F1908EB050118
:103BE00015F8013F83F0010307F8013F002220464A
:103BF000FFF7F6FCA945F1D1012384F8153284F8CA
:103C000014323368062B7FF4FDAE04F5C0712046F4
:103C1000FDF7A8F8F6E6012520463560FDF7DAFF46
:103C20002046FEF795F884F81452EBE6312110484F
:103C300016F078F994F815120E4814F08BF80D4828
:103C400014F038F8DDE700BFBC6FFF1F902E002096
:103C500040910020A82D0020B86FFF1F04310020E4
:103C600040530200CC940020205302003053020045
:103C7000505302001871FF1F70B504460D4696B0F0
:103C800080300FF0D5FD6319012283F8F0210F2D4C
:103C900000F23F81DFE815F0240040005C0078006E
:103CA00094009D00A600AF00F100CB00DE00B8003C
:103CB0002A01040117011000B9492046FDF724FD2F
:103CC000B84BB9481B681293129B03F5FA63C4F80A
:103CD000283204F5C071042208F040FC16B070BD13
:103CE000B24B1A68511E012940F2D0810A2A00F015
:103CF000CD812046AE49FDF707FDAA4BAA481B68B7
:103D00000293029B03F5FA63C4F8283204F5C071EC
:103D1000002208F049FCE1E7A44B1A68511E012972
:103D200040F2C0810B2A00F0BD812046A149FDF779
:103D3000EBFC9C4B9C481B680193019B03F5FA63C9
:103D4000C4F8283204F5C071012208F02DFCC5E743
:103D5000964B1B68012B00F06C81083B012B40F255
:103D6000688120469449FDF7CFFC8E4B8E481B6836
:103D70000493049B03F5FA63C4F8283204F5C07178
:103D8000022208F011FCA9E7884B1B68012B00F008
:103D90006881083B012B40F2648120468749FDF78A
:103DA000B3FC804B80481B680693069B03F5FA63BF
:103DB000C4F8283204F5C071032208F0F5FB8DE742
:103DC0007F4B1B78002B00F02781A36901209847C7
:103DD00084E77B4B1B78002B00F01181A369022044
:103DE00098477BE7764B1B78002B00F0FB80A3699C
:103DF0000320984772E7724B1B78002B00F0C280BB
:103E0000A3690420984769E720466E49FDF77CFCCA
:103E1000644B65481B680E930E9B03F5FA63C4F868
:103E2000283204F5C071032208F0DEFB56E7204675
:103E30006549FDF769FC5B4B5B481B680C930C9B69
:103E400003F5FA63C4F8283204F5C071012208F0C2
:103E5000CBFB43E720465D49FDF756FC514B5248EA
:103E60001B680D930D9B03F5FA63C4F8283204F523
:103E7000C071022208F0B8FB30E720465449FDF734
:103E800043FC484B48481B680B930B9B03F5FA63B4
:103E9000C4F8283204F5C071002208F0A5FB1DE724
:103EA00020464C49FDF730FC3E4B3F481B681093C1
:103EB000109B03F5FA63C4F8283204F5C07102229E
:103EC00008F04CFB0AE720464349FDF71DFC354B43
:103ED00035481B681193119B03F5FA63C4F8283227
:103EE00004F5C071032208F039FBF7E620463B4990
:103EF000FDF70AFC2B4B2C481B680F930F9B03F517
:103F0000FA63C4F8283204F5C071012208F026FBD8
:103F1000E4E60F2D7FF6E2AE05F00F0631460122F2
:103F20002046FFF75DFB94F83032AB42636A88BFEE
:103F300084F8305213B1A5F1100098471B4B1B6851
:103F4000013B0C2B00F2E78001A252F823F000BFE6
:103F5000A9400000BB40000017410000C540000020
:103F60000D4100001741000003410000A94000007E
:103F7000F9400000E3400000DD3C0000D9400000B3
:103F8000CF40000016492046FDF7BEFB054B1B68DD
:103F90000A930A9B03F5FA63C4F8283230E700BF9E
:103FA0007C540200CC94002004310020BC6FFF1F21
:103FB0009053020084530200B8530200E4530200FD
:103FC000FD660020505402003854020044540200A0
:103FD0002C54020064540200705402005C5402002D
:103FE000205402005F492046FDF78EFB5E4B1B68A4
:103FF0000993099B03F5FA63C4F82832F7E65B4995
:104000002046FDF781FB584B1B680893089B03F57E
:10401000FA63C4F82832E1E655492046FDF774FBFF
:10402000514B1B680793079B03F5FA63C4F82832CA
:10403000CBE6504A50491378002083F001031370F7
:104040000870002B00F088804C492046FDF75CFB8F
:10405000454B1B680393039B03F5FA63C4F82832AE
:104060003CE6454B1A78002A6DD0424D4449002267
:1040700020462A701A70FDF747FB3B4B1B680593DF
:10408000059B03F5FA63C4F8283227E60B22204685
:104090001A60FDF79FFD2046FDF75AFE012384F8C4
:1040A00014321BE60A22F2E7324B364A1B784FF0F5
:1040B000FF311160002B7FF411AE29462046FCF73A
:1040C0001DFE0BE629462046FCF760FD06E6294664
:1040D0002046FEF7E1FC01E629462046FEF706F8F9
:1040E000FCE529462046FCF709FE1F4B1B6813938D
:1040F000139BC4F8D030F1E529462046FDF7DAFCE1
:10410000ECE529462046FCF79DFDE7E529462046DB
:10411000FCF76AFDE2E529462046FCF7C1FD314681
:104120002046FDF75DFB104B1A681592159A1B6827
:104130001493149B02F5FA6203F5FA63C4F82C2277
:10414000C4F82832CAE50B480F4902700122204604
:104150001A70FDF7D9FA90E70C492046FDF7D4FA1A
:1041600076E700BF10540200CC94002000540200F7
:10417000F0530200FD660020FC6600209C53020004
:10418000C4530200B86FFF1FD4530200AC530200A7
:10419000F8B5344C2368DB07054646D5324E14F09B
:1041A00011FE3368304A984234D900F5EA4395F855
:1041B000741130331360002947D105F18007384668
:1041C0000FF0BEFB18B3EB6B002B24DD002634464A
:1041D00005E00134EB6BE4B29C4226461BDA214633
:1041E00038460FF0E3FA2E4430B196F8F03121460C
:1041F00028460BB9FFF740FD214638460FF0E6FA96
:104200000028E6D021462846FFF73EFAE1E795F878
:1042100075311BB9F8BD012385F8753138460FF0AB
:1042200077FC002385F87531F8BD204614F0F0FACC
:104230000028B3D014F0C6FD0B4E00F5EA4330332E
:104240002046336014F0EAFAA9E7014605F1800739
:104250002846FCF75FFC38460FF072FB0028D6D0EA
:10426000B1E700BF887CFF1FB87CFF1F10B500239B
:1042700003604360836004461621044815F052FE33
:10428000034813F017FD204610BD00BF8C540200F8
:104290001871FF1F38B505461A210F4815F042FE68
:1042A0002C6864B1A36A2B6020462C2114F0F2FA2A
:1042B0002C680A48042115F035FE002CF2D10023A9
:1042C0002B606B60AB600421054815F02BFE0548A0
:1042D00013F0F0FC284638BDA4540200C854020074
:1042E000C05402001871FF1F38B5054615210F484C
:1042F00015F018FE2C6864B1A36A2B6020462C21AF
:1043000014F0C8FA2C680A48042115F00BFE002CA2
:10431000F2D100232B606B60AB600421054815F0DF
:1043200001FE0548BDE8384013F0C4BCD05402007B
:10433000C8540200C05402001871FF1F38B52E4C3B
:1043400005460A212D4815F0EDFD204613F0B2FC7C
:104350000E212B4815F0E6FD6B682046196813F016
:10436000F9FC0B21274815F0DDFD6B680A2219794D
:104370002046002313F0AEFC204613F09BFC0821DE
:10438000214815F0CFFD6B682046D96813F0E2FC98
:1043900007211E4815F0C6FD6B68D86919F0F8FEB4
:1043A00041EC100B2046022113F0DEFC0B211848D3
:1043B00015F0B8FD6B680A2293F820102046002300
:1043C00013F088FC1621134815F0ACFD6B682046ED
:1043D000597A13F0BFFC0E210F4815F0A3FD6B684E
:1043E000204693F824100A22002313F073FC204681
:1043F000BDE8384013F05EBC1871FF1FE85402009E
:10440000F454020004550200105502001C5502002D
:1044100024550200305502004855020038B5436863
:10442000002B6BD09A6A934204460D4618BF0120B8
:1044300066D0A36823B1226812B19B6A9A4274D0F5
:104440006368444A1B68934202DC01332DD038BDB7
:104450002A4641494148FDF7ABFF3121404815F05C
:1044600061FD28461BF0ECFA0146284615F05AFD7E
:104470003C4813F01FFC07213B4815F053FD6168D1
:10448000384813F067FC0E21384815F04BFD63687F
:104490003448196813F05EFC324813F00BFC636873
:1044A0001B6801334FF00000D1D12A4630492B4818
:1044B000FDF77EFF34212F4815F034FD28461BF010
:1044C000BFFA0146284615F02DFD264813F0F2FBF1
:1044D0000721254815F026FD6168224813F03AFCB3
:1044E0000E21224815F01EFD63681E48196813F05E
:1044F00031FC1C4813F0DEFB002038BD012038BD24
:104500000A4616481C49FDF753FF26211B4815F0A3
:1045100009FD28461BF094FA0146284615F002FDD5
:10452000104813F0C7FB002083E72A4614490B48C4
:10453000FDF73EFF3921134815F0F4FC28461BF027
:104540007FFA0146284615F0EDFC064813F0B2FB51
:10455000002075E780969800DC550200C82E0020E8
:10456000F45502001871FF1F285602003056020051
:104570004056020058560200585502006855020085
:1045800090550200A055020003684360704700BFC9
:1045900010B544680CB1206810BD03490348FCF70E
:1045A0007FFF204610BD00BF90560200C82E00209D
:1045B00010B544680CB1207910BD03490348FCF7DD
:1045C0006FFF204610BD00BFA4560200C82E002079
:1045D0002DE9F0418846002707700646112114484E
:1045E00015F0A0FCD8F80440ECB108340FCC3546E7
:1045F0000FC594E80F0085E80F0071680D4813F0AF
:10460000A9FB08210C4815F08DFCD8F804300948A6
:1046100019790A223B4613F05DFB064813F04AFB6A
:104620003046BDE8F08105490548FCF739FFF7E75A
:10463000B85602001871FF1F906E0200CC5602009F
:10464000C82E00204068003018BF0120704700BF0E
:1046500070B5044616213648666815F063FC354887
:1046600013F028FB0721344815F05CFC61683148E1
:1046700013F070FB0821314815F054FC21682D48D7
:1046800013F068FB08212E4815F04CFCA16829485E
:1046900013F060FB23686360642538E013F00AFBC5
:1046A0000E21284815F03EFC63682248196813F073
:1046B00051FB0D21244815F035FC61681D48083177
:1046C00013F048FB0921214815F02CFC63681948B8
:1046D000197913F03FFB0B211D4815F023FC61688D
:1046E000144813F037FB08211A4815F01BFC6368C7
:1046F0001048996A13F02EFB17492046FFF78EFEEB
:1047000040B1204600F0C6F8013D08D06368094872
:10471000002BC3D1074813F0CDFA666070BD0F4976
:104720000F48FCF7BDFE034813F0C4FA666070BD85
:10473000E45602001871FF1F28560200FC560200C2
:104740000857020030560200145702002457020096
:10475000305702003C5702004857020050570200F1
:10476000C82E0020036810B504466BB1426893421E
:1047700004BF002242609A6A8AB1002102609962F5
:1047800018462C2114F086F80A492046FFF746FE09
:1047900000B110BD2046BDE81040FFF759BF816849
:1047A0008B4208BF82602C21184614F073F8002356
:1047B0002360E9E76057020038B50368044673B127
:1047C0001A6891420D4603DC0AE01A68AA4207DA29
:1047D0002046FFF7C7FF23686360002BF5D1002355
:1047E000636005492046FFF719FE00B138BD204639
:1047F000BDE83840FFF72CBF7057020082B02DE9AA
:10480000F04106AC074644F8043F0D461E4814210B
:10481000904615F087FB214600230A221B4813F01F
:1048200059FA1A4813F046FA2C2014F02FF82C22CB
:10483000002106461AF01EFC0FCCB060F160326118
:1048400073610FCCBC68356086F80480B061F1619B
:104850003262736214B1A64218BFA6627B68BE6062
:104860007BB13B685BB10A493846FFF7D7FD10B909
:104870003846FFF7EDFEBDE8F04102B070473E60FC
:10488000F1E77E60EDE700BF9C5702001871FF1F43
:10489000B4570200436810B5044673B19A6A934254
:1048A00013D062600C492046FFF7B8FD00B110BD7F
:1048B0002046BDE81040FFF7CBBE1921074815F090
:1048C00031FB074813F0F6F9ECE706490648FCF718
:1048D000E7FD63689A6AE4E7F0570200D4570200E4
:1048E0001871FF1FC0570200C82E002070B590E855
:1048F000480005460024436006E00134FFF7CAFF84
:10490000B4F57A7F06D06B682846002BF5D16E602F
:10491000204670BD03490448FCF7C2FD6E60204686
:1049200070BD00BFF8570200C82E002000220260B0
:1049300042608260704700BF38B5044617210948BD
:1049400015F0F0FA23685BB10025DA68226018469A
:10495000DD6010219D6013F09DFF2368002BF4D1D2
:10496000204638BD0858020038B5436804460D4655
:1049700083B1DA68934218BF012036D09A689A4210
:1049800048D0E3682BB1DA68934219D09A689A420A
:1049900002D038BD0120F4E728492948FCF780FD02
:1049A0001F21284815F0BEFA274813F083F928463E
:1049B0001BF046F80146284615F0B4FA0020E8E757
:1049C00022491F48FCF76CFD2B21214815F0AAFA5B
:1049D00028461BF035F80146284615F0A3FA1A4878
:1049E00013F068F9E3680020D0E71A491448FCF78F
:1049F00057FD2321184815F095FA28461BF020F89A
:104A00000146284615F08EFA0F4813F053F96368F3
:104A10000020B3E711490A48FCF742FD172110486E
:104A200015F080FA084813F045F928461BF008F8FD
:104A30000146284615F076FA0020A2E7BC5802008D
:104A4000C82E0020D05802001871FF1F7C580200A9
:104A500090580200205802003058020054580200BA
:104A60006458020010B507490446FFF77DFF20B1E6
:104A700063680BB1DB68636010BD204600F004F88A
:104A8000F6E700BFF057020038B50021044643485E
:104A900015F048FA424813F00DF90D21414815F080
:104AA00041FA3F4813F006F907213F48656815F0C1
:104AB00039FA21683A4813F04DF906213B4815F0C0
:104AC00031FA6168364813F045F90721384815F086
:104AD00029FAA168324813F03DF90A21354815F04A
:104AE00021FAE1682E4813F035F92D4813F0E2F869
:104AF000204600F0DFF863682BB945E0FFF7B2FF0E
:104B00006368002B40D005212B4815F00BFA636831
:104B1000234819680A22002313F0DCF804212748EF
:104B200015F000FA63681E4819790A22002313F071
:104B3000D1F80421224815F0F5F96368184859792D
:104B40000A22002313F0C6F805211E4815F0EAF9E1
:104B50006168134813F0FEF806211B4815F0E2F9CE
:104B600063680F48D96813F0F5F80D4813F0A2F800
:104B70006368DA6893422046C0D11A21134815F0C1
:104B8000D1F9074813F096F80021044815F0CAF946
:104B9000034813F08FF8656038BD00BF6450020011
:104BA0001871FF1FF0580200005902000859020056
:104BB0001059020018590200245902002C59020011
:104BC000345902003C590200445902004C59020079
:104BD00038B50446C068002838D060602368834236
:104BE00026D0A368834216D08568C368EB60C3688B
:104BF00082689A60102113F04DFE65602B46E360D9
:104C000014492046FFF7B0FE00B138BD2046BDE88C
:104C10003840FFF739BF82681AB1826862600021AC
:104C2000D1601846102113F035FE6368A360E6E7F3
:104C3000C268626062B1002191600022DA601846A9
:104C4000102113F027FE63682360D8E76068C5E78A
:104C5000A260F2E7685902002DE9F84304461020EB
:104C6000894690461F4613F011FEA6680025456050
:104C7000856080F80490C56080F8058007600EB1FB
:104C8000F06086606368A0607BB123685BB108490F
:104C90002046FFF769FE08B1BDE8F8832046BDE86D
:104CA000F843FFF7F1BE2060F1E76060EDE700BF79
:104CB0007459020010B505490446FFF755FE10B9B6
:104CC0002046FFF7E1FE2368636010BD7C590200B7
:104CD000C3681879704700BFC3685879704700BF30
:104CE000C3681868704700BFC068003018BF012053
:104CF000704700BF10B505490446FFF735FE10B9EF
:104D00002046FFF7C1FE2368E36010BD845902000E
:104D100010B507490446FFF727FE20B1E3680BB141
:104D2000DB68E36010BD2046FFF7AEFEF6E700BF8C
:104D30009059020070B511490546FFF715FE90B174
:104D400028466E680024FFF7B5FF05E00134FFF741
:104D500089FEB4F57A7F0AD06B682846002BF5D11E
:104D60006E60204670BD2846FFF78EFEE8E70449D6
:104D70000448FCF795FB6E60204670BD9C5902000C
:104D8000A4590200C82E002038B50A4D002304465D
:104D90000360436029464FF4A072083013F056FCBC
:104DA00005F5A07104F5A4704FF4807213F04EFC69
:104DB000204638BDB459020010B490E81800013400
:104DC00000EB031394FBF1F202FB11410B44416031
:104DD00093F848015DF8044B704700BF10B490E8A9
:104DE000180094FBF1F200EB031302FB11410B449A
:104DF000416093F848015DF8044B7047436810B474
:104E00000468194400EB041091FBF2F303FB121247
:104E100050FA82F25DF8044B92F84801704700BFE7
:104E2000406801308842B4BF00200120704700BFB5
:104E3000054B0B40002B01DB03607047013B63F027
:104E40000F030133036070470F000080036803EB1A
:104E5000830300EB83000830704700BF00234360EA
:104E6000704700BF38B501250446056758220B4935
:104E70007C3013F0EBFB0A4A84F86D500023157068
:104E800084F8D83084F8E030C4F8D430C4F8DC308A
:104E9000C4F8E4306367A367204638BDF45B0200C2
:104EA000C87CFF1F2DE9F0418046064600F16007EF
:104EB000337D5BB13546002455F8040F013418B139
:104EC0001C2113F0E7FC337DA342F5DC1836BE420B
:104ED000EED14046BDE8F08101EB410300EBC30396
:104EE00080F8D810C0F8D4300120704710B5D0F841
:104EF000D44084B1227D8A420B46D8BF002304EB04
:104F00008304D8BF19466468C0F8DC404CB180F80F
:104F1000E010012010BD06490648FCF7C1FA204602
:104F200010BD05490348FCF7BBFA204610BD00BF81
:104F30004C5C0200C82E0020605C020038B50446BC
:104F400060B101EB410110EBC1050DD002EB420055
:104F500014EBC0040ED06A75012038BD0849094819
:104F6000FCF79EFA204638BD07490648FCF798FA38
:104F7000284638BD05490348FCF792FA204638BD5B
:104F8000745C0200C82E0020885C02009C5C020059
:104F9000D0F8D4300BB11960704780F8D830034690
:104FA000C0F8D40019607047D0F8D41070B5054629
:104FB00031B30B7D032B1DD81C2013F067FC044676
:104FC00000F014FDD5F8D4301E1D28D0197D39B15C
:104FD00053F82100C0B100F0A3FDD5F8D430197DFD
:104FE00003EB8102013154602046197500F00CFD7D
:104FF000204670BD0F491048FCF752FA002070BDE2
:10500000FFF76AFF40B970BD0C490B48FCF748FA3E
:10501000D5F8D430197DE3E7D5F8D410C9E70849AD
:105020000548FCF73DFA20461C2113F033FC3046BE
:1050300070BD00BFB05C0200C82E0020D45C02002E
:10504000C05C02002DE9F043044685B01A4803F025
:105050004FFF0E21194814F065FF194812F02AFE7F
:10506000D4F8DC0008B300F095FDD4F8D430D4F8BF
:10507000DC0093F8009094F8D85094F8E46094F829
:10508000E07000F0D5FC8046D4F8DC0000F0D2FCE3
:10509000C0B202904B468DE880013246294609484D
:1050A000FEF772F805B0BDE8F0830749054805B082
:1050B000BDE8F043FCF7F4B900670020E45C0200AF
:1050C0001871FF1FC82E0020F45C020070B5044662
:1050D00033216F4814F026FFD4F8DC0000F0A8FC60
:1050E00000230A2201466B4812F0F4FD01216A48B0
:1050F00014F018FFD4F8DC0000F09CFC0146654871
:1051000012F028FE0921654814F00CFF00230A2242
:1051100094F8E0105F4812F0DDFD1421604814F0AF
:1051200001FFD4F8DC0000F001FD002301460A2253
:10513000584812F0CFFD574812F0BCFDD4F8DC30CF
:10514000002B00F09080D4F8D450002D00F0868021
:10515000184600F0EDFC054678B31921514814F0CB
:10516000E1FED4F8DC0000F0E1FC102106464E48D8
:1051700014F0D8FE002331460A22464812F0AAFD58
:10518000D4F8D4301B7DB34224D92121474814F0F0
:10519000C9FED4F8D43084F8E06003EB860670686A
:1051A000C4F8DC0000F0BEFC2121414814F0BAFE36
:1051B000384812F07FFD284670BDD4F8DC0000F0BE
:1051C000E5FC3D213B4814F0ADFE324812F072FD83
:1051D000284670BD1821384814F0A4FED4F8D43005
:1051E000D4F8E4201B689A4224DB1021334814F0E1
:1051F00099FED4F8D4305E7DFF2E3AD006EB4606F9
:10520000132104EBC6062E4814F08CFEC4F8D460BB
:1052100015212C4814F086FED4F8D430002284F8EE
:10522000E0205868C4F8DC000123C4F8E43000F042
:1052300079FCB9E71A21244814F074FE002384F89D
:10524000E030D4F8D420D4F8E4305068C4F8DC005E
:105250000133C4F8E43000F065FCA5E71B491C48A5
:10526000FCF71EF9B4E71B4919481D46FCF718F96D
:10527000AEE70021184814F055FE064812F01AFD5A
:105280001321164814F04EFE236E98478CE700BF9A
:10529000085D02001871FF1F3C5D0200405D0200C6
:1052A0004C5D02008C5D0200A85D0200BC5D020046
:1052B0006C5E0200905E0200E05D0200185E02007B
:1052C0002C5E0200405E0200FC5D0200785D020080
:1052D000C82E0020645D020064500200585E020087
:1052E0002DE9F043D0F8D430044685B0D0F8DC0086
:1052F00093F8009094F8D86094F8E47094F8E08003
:1053000000F096FB0546D4F8DC0000F093FBC0B239
:1053100002904B46CDF800803A463146019503484D
:10532000FDF732FF05B0BDE8F08300BFC82E0020B6
:1053300010B514210446094814F0F4FD084812F091
:10534000B9FCD4F8DC0018B1BDE8104000F022BC74
:1053500004490548BDE81040FCF7A2B8D05E020041
:105360001871FF1FE85E0200C82E002003460022CD
:10537000C3F8D40080F8D82048B1406883F8E02012
:105380000122C3F8DC00C3F8E42000F0CBBB0249E3
:105390000248FCF785B800BFFC5E0200C82E002062
:1053A00070B5504E504D0166044600F11501326053
:1053B0002B607530FF2200230A7001F8013C41F890
:1053C000153C18318142F7D12046FFF7EDFD054627
:1053D00090B100231A46012100F020FB00231A4659
:1053E0000221284600F01AFB0121284600F08EFB1E
:1053F0002846022100F068FB2046FFF7D5FD054650
:1054000090B101221146002300F008FB0023012285
:105410000221284600F002FB0121284600F076FB1D
:105420002846022100F050FB2046FFF7BDFD05464F
:1054300090B100230222012100F0F0FA022211466D
:105440000023284600F0EAFA0121284600F05EFB1E
:105450002846022100F038FB01212046FFF798FD85
:10546000012200212046FFF769FD01212046FFF7B8
:1054700033FD02212046FFF78BFD2046FFF794FD08
:10548000054690B100230322012100F0C7FA002352
:1054900003220221284600F0C1FA0121284600F02B
:1054A00035FB2846022100F00FFB2046FFF77CFD6C
:1054B000054690B100230422012100F0AFFA002339
:1054C00004220221284600F0A9FA0121284600F012
:1054D0001DFB2846022100F0F7FA2046BDE8704087
:1054E000FFF744BFC47CFF1FC07CFF1F38B5436E6D
:1054F00000EB8302D46F132B0BD8DFE803F060635B
:1055000066100A0A0A0A0A0A0A0A0A0A10454B51D0
:10551000572921463048BDE83840FCF7D7B82F4D11
:105520002D482A462146FDF7DDFC20461AF088FA70
:105530000146204614F0F6FC28461AF081FA01468E
:10554000284614F0EFFC2648BDE8384012F0B2BB04
:10555000D0F8DC0000F07CFA431C05462DD02A462A
:1055600021461D48FCF7F8FE20461AF069FA01466C
:10557000204614F0D7FC2946194812F0EBFB1848D6
:10558000BDE8384012F096BBD0F8DC0000F054FAC9
:105590000546E4E7D0F8DC0000F04CFA0546DEE70B
:1055A000D0F8DC0000F050FA0546D8E7D0F8DC006F
:1055B00000F04CFA421C0546D1D10A4DB0E790F8F4
:1055C000D850CCE790F8E050C9E790F8D83003EB1A
:1055D000430350F83350C2E7C82E00203C5F02005E
:1055E0001871FF1F445F020010B5172104460848D8
:1055F00014F098FC074812F05DFB0022012362665C
:1056000084F86D302046BDE81040FFF76FBF00BF43
:10561000485F02001871FF1F436E10B5132B52D85C
:10562000DFE803F021252951515151515151515178
:1056300051515131383E450AD0F8DC0000F008FAEB
:10564000B0F1FF3F14BF044610242048112114F08C
:1056500069FC21461E4812F07DFB01211D4814F013
:1056600061FC204610BD90F8D840204610BD90F84F
:10567000E040204610BD90F8D83003EB430350F8CB
:105680003340204610BDD0F8DC0000F0D5F90446C8
:10569000204610BDD0F8DC00BDE8104000F0CAB9CB
:1056A000D0F8DC0000F0D0F90446204610BDD0F858
:1056B000DC0000F0CBF91321B0F1FF3F14BF04462A
:1056C00011240548C3E70024CBE700BF745F020044
:1056D0001871FF1FEC500200605F020008B5162130
:1056E000034814F01FFC0348BDE8084012F0E2BA7A
:1056F000885F02001871FF1F10B5B1F57A7F82B084
:1057000008D1026F012A0DD00122026780F86D20B6
:1057100002B010BD074A416712680192019A826780
:1057200002B010BD022303670446FFF775FFA066B1
:10573000F6E700BFCC940020994238B50D4603DA55
:10574000002901DA8918FDD491FBF2F402FB14144C
:10575000A3424FF00B010B48C8BFA41814F0E2FBA2
:105760002946094812F0F6FA0121084814F0DAFB3C
:105770002146054812F0EEFA034812F09BFA204643
:1057800038BD00BFA05F02001871FF1FEC5002007F
:10579000F8B504460D465C48112114F0C3FB2946B8
:1057A0005A4812F0D7FA594812F084FA636E132B54
:1057B00000F28480DFE803F01A68768282828282B7
:1057C00082828282828282263F4C590A29460023A5
:1057D00011222046FFF7B0FF0F2800F38380014617
:1057E000D4F8DC00BDE8F84000F05CB9294600239D
:1057F00020460422FFF7A0FFC1B22046BDE8F840D2
:10580000FFF76ABB03272946012302222046FFF740
:1058100093FF06460146D4F8DC0000F00FF9751C32
:10582000002852D1013FEED12A4639493948BDE816
:10583000F840FBF7C7BE2946012320461022FFF798
:105840007BFF0146D4F8DC00BDE8F84000F03CB92D
:105850002946002320460522FFF76EFF0146D4F8B3
:10586000DC00BDE8F84000F031B9294601231122DF
:105870002046FFF761FF10283CDC0146D4F8DC002D
:10588000BDE8F84000F0E6B8D4F8D43029461A7DD7
:1058900020460023FFF750FFC1B22046BDE8F84084
:1058A000FFF724BB2946012320461022FFF744FFBF
:1058B000C1B22046BDE8F840FFF76ABB2A46164948
:1058C0001448BDE8F840FBF77DBED4F8DC00F1B227
:1058D00000F01CF9B0B9324610490E48BDE8F84056
:1058E000FBF770BED4F8DC004FF0FF31BDE8F840A4
:1058F00000F0D8B8D4F8DC004FF0FF31BDE8F84034
:1059000000F0A8B8F8BD00BFAC5F02001871FF1F1F
:10591000D05F0200C82E0020E45F0200C05F0200DA
:1059200070B50D46044611212B48164614F0FAFABC
:105930002A4812F0BFF9B5F57A7F00D070BD94F80F
:105940006D30002B34D1236F012B37D0022B41D186
:105950000D21234814F0E6FA3146204812F0FAF9F6
:105960000121204814F0DEFAA16E1C4812F0F2F971
:105970001A4812F09FF9A16E20463144FFF708FF44
:105980000C21194814F0CEFA3146144812F0E2F90D
:105990000121144814F0C6FAA16E104812F0DAF989
:1059A0000E4812F087F92046BDE87040FFF79EBD13
:1059B000002384F86D30236F012BC7D13146204678
:1059C00000231622FFF7B8FE60662046BDE870404F
:1059D000FFF78CBD70BD00BFF45F02001871FF1FA0
:1059E00008600200EC5002001860020010B4FF24AE
:1059F00000214FF0FF3284730173816002614261C4
:105A00005DF8044B704700BF0023FF2203718370D1
:105A10004371C37002704270704700BF30B40139E7
:105A2000C9B244180125A3702571425430BC704797
:105A3000007E704780687047407B70470229DABF5C
:105A40000918087900207047007B7047006970478B
:105A5000406970474B1E0F2B10B50C4608D94B1CE4
:105A600006D00A460A480B49FBF7ACFD002010BDE2
:105A700004610321084814F055FA2146074812F042
:105A800069F90121064814F04DFA012010BD00BF4C
:105A9000C82E002084610200806102001871FF1F7F
:105AA000EC5002000F2902DC41610120704708B56B
:105AB0000A4603480349FBF785FD002008BD00BFE7
:105AC000C82E00209861020081607047042913D815
:105AD000DFE801F006090C0F03000423037370478D
