:1000000000000320D1010000D98D0100918D010075
:10001000918D0100918D0100918D0100918D010064
:10002000918D0100918D0100918D0100D98D01000C
:10003000D98D0100918D0100E1A80100E5A9010021
:10004000D98D0100D98D0100D98D0100D98D010014
:10005000D98D0100D98D0100D98D0100D98D010004
:10006000D98D0100D98D0100D98D0100D98D0100F4
:10007000D98D0100D98D0100D98D0100D98D0100E4
:10008000D98D0100D98D0100D98D0100D98D0100D4
:10009000D98D0100D98D0100D98D0100D98D0100C4
:1000A000D9360100E5360100D98D0100D98D010056
:1000B000D98D0100D98D0100D98D01002DAA010033
:1000C000D98D010059AB0100D98D010085AC01002B
:1000D000D98D01007DAD0100D98D0100D98D0100C0
:1000E000D98D0100D98D0100D98D0100D98D010074
:1000F000D98D0100D98D0100D98D0100D98D010064
:10010000D98D0100D98D0100D98D0100D98D010053
:10011000D98D0100E1970100D98D0100D98D010031
:10012000D98D0100D98D0100D98D0100D98D010033
:10013000D98D0100D98D0100D98D0100D98D010023
:10014000C5800100D98D010075AE0100D98D010077
:10015000D98D0100D98D0100D98D0100D98D010003
:10016000D98D0100D98D0100F1360100D98D010032
:10017000D98D0100D98D0100D98D0100D98D0100E3
:10018000D98D0100D98D0100D98D0100D98D0100D3
:10019000D98D0100D98D01006DAF0100D98D01000D
:1001A000D98D0100D98D0100D98D0100D98D0100B3
:1001B000D98D0100D98D0100D98D0100D98D0100A3
:1001C000D98D0100D98D0100D98D0100D98D010093
:1001D0005C4B4CF2205210B51A804DF628121A8052
:1001E00000BF00BF18F0FCFD574B4FF030621A60A3
:1001F000564A9A60564ADA60564B4FF470021A60BB
:10020000554B564A1A60564B1A78110703D51A787F
:1002100042F008021A70534B5349AA221A70534AEB
:10022000534B8B4204D252F8040F43F8040BF8E707
:10023000504B514900228B4202D243F8042BFAE77B
:100240004E494F4A002352F8230041F8230001335E
:10025000742BF8D14B4B4C4A802103F8011B93427D
:10026000FBD14A4B454A1A60494B8A221A70A3F5C2
:10027000805324225A70A0221A709A799207FCD5D2
:100280009A79D406FCD4434A937903F00C03082BE3
:10029000FAD1414B60221A7002331A78802AFCD1BD
:1002A0003C4B01221A715D225A719A799006FCD555
:1002B0009979384A4906FBD5384B394919600021EC
:1002C000596020231370937903F00C030C2BFAD19F
:1002D000344B354A1A60354A354C136813F4807331
:1002E00003D123604FF4A8531360324B324A1A6093
:1002F00000225A60072243F8042C304AC3F80C2D20
:1003000062B619F0DDF82368DA0705D52C4819F034
:100310000FF82C4B2C4A1A602C4B1B785B0609D526
:10032000284C294B22689A4204D1254819F000F83C
:10033000002323601EF006FE18F058FD18F086FC1E
:10034000FEE700BF0E20054030800440823F0400DD
:100350000100002B88ED00E0002008E0030000858C
:1003600002D0074000E00740C07BFF1F08A6020044
:10037000306FFF1FC07BFF1F38990020006AFF1FEE
:100380000000000000E400E064E400E008ED00E0AC
:10039000005006400040064001E007404480044011
:1003A0000000060204800440C010070010D0034083
:1003B00014D0034014E000E01FBF02000000202022
:1003C00041B2B05E1CE00340A5C3945A00F0074060
:1003D000FFFFFFFFFFFFFFFFFFFFFFFFFFFFFFFF2D
:1003E000FFFFFFFFFFFFFFFFFFFFFFFFFFFFFFFF1D
:1003F000FFFFFFFFFFFFFFFFFFFFFFFFFFFFFFFF0D
:10040000FFFFFFFFFFFFFFFFFFFFFFFFDEF9FFFF23
:1004100010B5054C237833B9044B13B10448AFF33E
:1004200000800123237010BDC07BFF1F000000006F
:1004300004A60200084B10B51BB108490848AFF3E9
:1004400000800848036803B910BD074B002BFBD0A0
:10045000BDE81040184700BF00000000C47BFF1F2C
:1004600004A60200C07BFF1F0000000010B524227C
:10047000044600211FF006F9002384F8243084F894
:100480002530204610BD00BFF8B5074690F824007F
:100490000D461646E0B13A46002404E00134844299
:1004A00002F1030212D01178A942F7D19178994252
:1004B000F4D104EB44043C446670A370062D5ED86E
:1004C000DFE805F031161D242B1031000A2C2BDC3F
:1004D00000EB40017A18013087F824007D545670F3
:1004E0009370EBE72E492F48BDE8F84001F0A6B91C
:1004F00032462D492B48BDE8F84001F0FFBF324697
:100500002A492848BDE8F84001F0F8BF324628499A
:100510002448BDE8F84001F0F1BF26492148BDE874
:10052000F84001F08BB9F8BD23491E4800F0FCFFEC
:100530000421224819F0FEFF2146214817F012FF3E
:100540001721204819F0F6FF00230A2297F82410FB
:100550001B4817F0C7FE10211B4819F0EBFF0C21B8
:10056000174817F0FFFE0B21184819F0E3FF294642
:10057000134817F0F7FE124817F0A4FE9EE714493F
:10058000084800F0D1FF1521124819F0D3FF294681
:100590000B4817F0E7FE0A48BDE8F84017F092BE96
:1005A00024550200CC2E0020E4540200F454020032
:1005B000005502001055020090540200A45402009D
:1005C0001871FF1FAC540200C4540200D85402003A
:1005D000345502004855020038B590F825300B2BF1
:1005E000044627D91F49204800F09EFF17211F48C5
:1005F00019F0A0FF00230A2294F825101C4817F0D8
:1006000071FE17211B4819F095FF00230A2294F868
:100610002410174817F066FE1021174819F08AFFBA
:100620000C21134817F09EFE0025114817F04AFED2
:10063000284638BD03EB430317210C48E55C19F04D
:1006400079FF00230A2294F82510094817F04AFE82
:100650000B210A4819F06EFF2946054817F082FE63
:10066000284638BD78550200CC2E00206055020087
:100670001871FF1FAC540200C4540200D854020089
:1006800090F825300B2B04D803EB43031844407833
:10069000704710B513490446134800F045FF172171
:1006A000124819F047FF00230A2294F82510104839
:1006B00017F018FE17210F4819F03CFF00230A22FB
:1006C00094F824100A4817F00DFE10210A4819F07A
:1006D00031FF0C21064817F045FE054817F0F2FDE2
:1006E000002010BD8C550200CC2E00206055020069
:1006F0001871FF1FAC540200C454020090F825305A
:100700000B2B04D803EB430318448078704710B5D3
:1007100013490446134800F007FF1721124819F047
:1007200009FF00230A2294F82510104817F0DAFD7B
:1007300017210F4819F0FEFE00230A2294F8241016
:100740000A4817F0CFFD10210A4819F0F3FE0C21DA
:10075000064817F007FE054817F0B4FD002010BD4D
:10076000A0550200CC2E0020605502001871FF1F1A
:10077000AC540200C454020090F825300133DBB2BF
:100780000B2B80F825308CBF00200120704700BF64
:10079000002380F8253070470022134680F824207B
:1007A00080F82520C2540333242BFBD1704700BFAF
:1007B000FFF7F2BF70B5044615460E460846022103
:1007C00018F0DCFD2846022118F0D8FD104A114B24
:1007D00052F83610012001F500762072266052F89A
:1007E0003520607202F5007500206560E060013B15
:1007F000FDD191F8003292F8002203F00103D207F4
:1008000044BF43F00203DBB2A372204670BD00BFB9
:10081000CC9A0200C0D4010090F814322DE9F047C0
:100820000746002B7CD1DFF80C82794AD8F800000B
:10083000D468784D784E92F809E092E80A0091F871
:10084000009093F800C0117A714B1CEA0E0F09EA70
:1008500001015DD09B7A03F0030309B143F0040367
:1008600043F008039910013B91720D2B0AD8DFE881
:1008700003F075077207096F75756F0907720775C1
:10088000013CD460A04219D0DFF89891DFF890A124
:10089000D9F80030002C2246B8BFE21C92109A42D0
:1008A000CAF8002008D04FF47A715C480EF026FE9A
:1008B000DAF80030C9F80030C8F800402B686968E1
:1008C0001A78687A0C782B7A5249044202EA0302B9
:1008D00016D08B7A03F003030AB143F0040343F00C
:1008E00008039A10013BAA720D2B00F28180DFE809
:1008F00003F07B7766777F387B7B387F7766777B03
:100900008B7A03F00303002AEBD043F00403E8E7FB
:100910009B7A03F003030029A4D043F00403A1E76A
:100920003F4E404C40484149394ADFF80881394D33
:1009300000233360384E2360036087F814321C466E
:100940000B601846D360C8F80030EB60336072E784
:10095000023CD46096E70234D46093E70134D4605B
:1009600090E7EC68023CEC6007F5AE7017F00CFA0B
:100970002F4B00282DD11A68042A3BDC3268A41AB8
:1009800004EB840402EB44049442EC6026D01A6821
:10099000264D254F0132002C1A6022462B68B8BF25
:1009A000E21C92109A423A6006D040F2E9311B48AC
:1009B0000EF0A4FD3B682B603460BDE8F087EC6866
:1009C0000234EC6007F5AE7017F0DEF9184B002822
:1009D000D1D03268002194421960D8D1BDE8F087A7
:1009E000EC68013CEC60BFE7EC680134EC60BBE70D
:1009F000EC68B9E7092A326805DCA41A04EB840420
:100A000002EB8404C0E76421A41A01FB0424BBE7C1
:100A1000107CFF1F207CFF1F847CFF1FB06700201D
:100A2000547CFF1F5C7CFF1F587CFF1F607CFF1FF6
:100A3000DC7BFF1F7C7CFF1FF8B590F81432002B85
:100A400047D12F4D2F4A2868D468577A92E848003A
:100A5000197896F800E0137A2A4E1EEA070F01EA89
:100A600003012ED0B37A03F0030309B143F004036A
:100A700043F008039910013B91720D2B0AD8DFE86F
:100A800003F03C07390709363C3C36090739073C77
:100A9000013CD460A04213D01B4E1C4F3368002C85
:100AA0002246B8BFE21C92109A423A6006D04FF438
:100AB0007A71174805F022F93B6833602C60F8BD65
:100AC000F8BDB37A03F003030029D3D043F0040345
:100AD000D0E70E4E0C490B4A094D002380F8143222
:100AE0001C4633600B601846D3602B60ADE7023CB8
:100AF000D460CFE70234D460CCE70134D460C9E7D6
:100B00008C7CFF1F107CFF1FB47CFF1FB07CFF1F7D
:100B1000A82D00202DE9F84F002383461D460E46E0
:100B200080F87431994600F5D67A00F180081024D7
:100B3000012706E08BF8747101350134102DE4B201
:100B400016D05AF8043F002BF6D0B342F2D8DBF8A7
:100B50001032CAF800905B5D2146404653B901351A
:100B600013F08CF90134102D8BF87571E4B2E8D1D3
:100B7000BDE8F88F13F042F90028DDD12146404648
:100B800013F05EF98BF87571D6E700BF38B5144CD9
:100B90000C40002C1FDB031993F8A0516DB9012202
:100BA00083F8A021C9B2803013F04AF92A462146C1
:100BB0000C48BDE838400CF053B8002283F8A0215F
:100BC000C9B2803013F05AF9214601220548BDE828
:100BD00038400CF045B8013C64F00F040134DAE70A
:100BE0000F0000800831002038B5144C0C40002C58
:100BF0001FDB031993F8A0216AB90125C9B280301F
:100C000083F8A05113F01CF92A4621460C48BDE890
:100C100038400CF039B80025C9B2803083F8A051B3
:100C200013F02CF92A4621460548BDE838400CF05F
:100C30002BB8013C64F00F040134DAE70F000080A8
:100C40000831002038B5144C0C40002C1FDB031970
:100C500093F8A0216AB90125C9B2803083F8A05168
:100C600013F0EEF82A4621460C48BDE838400CF057
:100C7000ABB90025C9B2803083F8A05113F0FEF85B
:100C80002A4621460548BDE838400CF09DB9013C94
:100C900064F00F040134DAE70F000080083100200F
:100CA000154B0B40002B10B504461FDB234493F873
:100CB00080216AB9012283F88021C9B204F1800041
:100CC00013F0BEF8012384F8153284F8143210BDF5
:100CD000002283F88021C9B204F1800013F0CEF81D
:100CE000012384F8153284F8143210BD013B63F0FF
:100CF0000F030133DAE700BF0F0000802DE9F04752
:100D00001E4E81460E401E488A4604F0D9FA002E37
:100D10002EDB864224DC09F1800709F29F1510249E
:100D20004FF0000803E00134E4B2202C0DD015F898
:100D3000013F002BF7D0214601343846E4B213F0CE
:100D40009DF8202C85F80080F1D14E4401235FFAF4
:100D50008AF1384686F8A031BDE8F04713F070B844
:100D60005FFA8AF109F18000BDE8F04713F086B818
:100D7000013E66F00F060136CBE700BF0F00008092
:100D8000A82D00202DE9F84380460F4600F180068B
:100D900000F29F1510244FF0000903E00134E4B283
:100DA000202C0DD015F8013F002BF7D0214601343F
:100DB0003046E4B213F062F8202C85F80090F1D1AF
:100DC000094B3B40002B09DB43440122F9B230467A
:100DD00083F8A021BDE8F84313F032B8013B63F07B
:100DE0000F030133F0E700BF0F000080F8B507469E
:100DF0004D1E00F18006102405E00134E4B213F02A
:100E00001FF8202C0DD015F8013F21463046002B4D
:100E1000F3D1214601343046E4B213F02FF8202CF0
:100E2000F1D1012387F87531F8BD00BF38B500F561
:100E3000D0750446C0F8105200F29F13002200F251
:100E4000AF1003F8012F8342FBD106480BF0F0FCF2
:100E5000231801222946204683F89F21BDE8384007
:100E6000FFF7C4BF0831002038B505460C480BF029
:100E700091FD05F5D071C5F8101205F29F1305F22A
:100E8000AF14002203F8012FA342FBD12B1801223B
:100E9000284683F8A021BDE83840FFF7A7BF00BF70
:100EA0000831002038B505460C480CF081FB05F5EB
:100EB000D071C5F8101205F29F1305F2AF1400228D
:100EC00003F8012FA342FBD12B180122284683F8F7
:100ED000A021BDE83840FFF789BF00BFB067002000
:100EE00038B500F5D0750446C0F8105200F29F13D3
:100EF00000F2AF11002203F8012F8B42FBD12946EB
:100F0000044810220BF028FB29462046BDE8384053
:100F1000FFF76CBF08310020B64B1B6870B5013B72
:100F200000F5AA75044628460C2B00F28480DFE801
:100F300003F04B4B6C4B4B824B4B4B25824B0700CA
:100F400016F0EAFE002840F0038104F5AE7528464D
:100F500016F0E2FE002840F09E8004F5B2752846A7
:100F600016F0DAFE002840F0518104F5B6742046F0
:100F700016F0D2FE002840F0D38070BD16F0CCFEF3
:100F8000002840F0D48004F5AE75284616F0C4FE63
:100F9000002840F0068104F5B275284616F0BCFE24
:100FA000002840F0AB8004F5B674204616F0B4FE7D
:100FB0000028E2D0204616F0F5FE002800F040811F
:100FC0008D4B0022DA6070BD16F0A6FE002840F0BE
:100FD000DE8004F5AE75284616F09EFE002840F02F
:100FE000F68004F5B275284616F096FE002864D106
:100FF00004F5B674204616F08FFE0028BDD02046BA
:1010000016F0D0FE0028DBD170BD16F085FE00285A
:10101000B3D0284616F0C6FE002800F01281774AA9
:10102000636A0021D160002B00F00C814FF47A70CC
:10103000BDE87040184716F06FFE00284ED104F549
:10104000AE75284616F068FE002840F0AE8004F524
:10105000B275284616F060FE60B904F5B6742046F5
:1010600016F05AFE002888D0204616F09BFE002875
:10107000A6D170BD284616F095FE0028EDD0604B35
:10108000002204F5B674DA60204616F045FE00280A
:101090003FF473AFE8E7284616F084FE00283FF4DB
:1010A0005CAF584B002204F5B275DA60284616F0A2
:1010B00033FE00283FF459AFA8E0284616F072FE30
:1010C000002895D04E4B002204F5B674DA60204615
:1010D00016F022FE00283FF450AF90E7284616F0A5
:1010E00061FE0028ABD0454B002204F5AE75DA60F6
:1010F000284616F011FE0028A9D056E0284616F022
:1011000051FE00283FF44FAF3D4B002204F5B6746A
:10111000DA60204616F000FE00283FF42EAF49E7C3
:10112000204616F03FFE00287FF44AAF70BD2846E7
:1011300016F038FE00283FF426AF304A636A0021DB
:10114000D160002B3FF41FAF4FF47A7098471AE735
:10115000284616F027FE00283FF4F7AE2A480BF089
:10116000CFFA421E54FA82F292F8A03183F00103C2
:1011700082F8A031002B5BD100F10F01C9B204F15C
:10118000800012F07BFE012384F87531DDE62846ED
:1011900016F008FE00283FF41CAF1B480BF0B0FA15
:1011A00017E7284616F0FEFDF5E6284616F0FAFD8C
:1011B00000283FF44CAF134B002204F5B275DA60FF
:1011C000284616F0A9FD00283FF447AF52E728460D
:1011D00016F0E8FD00283FF404AF0A4B002204F5A6
:1011E000B275DA60284616F097FD00283FF400AF8C
:1011F00063E700BFBC6FFF1F407CFF1F107CFF1F19
:10120000307CFF1F207CFF1F08310020284616F08D
:10121000C9FD00283FF4A9AE0B4B002204F5B674BB
:10122000DA60204616F078FD00283FF4A6AE77E796
:1012300000F10F01C9B204F1800012F001FEA2E733
:1012400070BD70BD70BD00BF307CFF1FA1F57A710D
:10125000032906D8DFE801F00E0A0602074B002238
:10126000DA607047064B0022DA607047054B0022B7
:10127000DA607047044B0022DA607047407CFF1F41
:10128000307CFF1F207CFF1F107CFF1F70B500F516
:1012900086750446284616F03FFD00B970BD284605
:1012A00016F080FD0028F9D0A36ABDE87040184709
:1012B00008B590F8A40017F04BFC084A1368C0F575
:1012C0008040A3F16401884202DB6433984201DD6F
:1012D000106008BD4FF0FF3008BD00BF6C7CFF1FE1
:1012E00008B590F8A80017F033FC074A1368A3F17B
:1012F0006401884202DB6433984201DD106008BD5E
:101300004FF0FF3008BD00BF647CFF1F30B500F513
:101310008A7483B00546204616F0FEFC30B920469C
:1013200016F036FD80B9002003B030BD204616F01F
:1013300039FD0028F3D00A4B1B680193019BC5F8C7
:10134000B030012003B030BD95F824320020042BCA
:10135000C5F8B000E7D185F82402A5F82602E3E736
:10136000D0940020054B82B01B680193019B03F5CC
:10137000FA63C0F8283202B0704700BFD094002052
:10138000054B82B01B680193019B03F5FA63C0F81B
:101390002C3202B0704700BFD0940020F0B5B1B03D
:1013A00007462849284E6846144617F077F927491A
:1013B00004A817F073F9264908A817F06FF9254912
:1013C0000CA817F06BF9244910A817F067F9234906
:1013D00014A817F063F9224918A817F05FF92149FA
:1013E0001CA817F05BF9204920A817F057F91F49EE
:1013F00024A817F053F91E4928A817F04FF91D49E2
:101400002CA817F04BF986FB0426E317C3EB6606FE
:1014100006EB4601A4EB8101C9B20DEB0111384680
:1014200017F050F9F1B2384617F0E0F96D4630ACDC
:10143000103C204617F0F2F8AC42F9D1384631B0F2
:10144000F0BD00BFE4550200ABAAAA2AE85502008D
:1014500024570200EC550200445502009C5802003B
:10146000F0550200C0590200F4550200F855020080
:10147000FC55020000560200F0B5144DDFF854E0B0
:101480000E4617460FCD8FB002AC0FC40FCD0FC460
:1014900095E80F008EFB065EF517C5EB6E0584E838
:1014A0000F0005EB450EA6EB8E060EABF6B203EB76
:1014B0008606EDB256F8303C054A009538460421C0
:1014C0001EF03CFB38460FB0F0BD00BFB455020023
:1014D00004560200ABAAAA2A10B5012200210D4829
:1014E000FFF768F9032202210B48FFF763F9052291
:1014F00004210A48FFF75EF9082206210848FFF791
:1015000059F92123232222210648BDE8104012F078
:10151000F7B800BF107CFF1F207CFF1F307CFF1F2F
:10152000407CFF1F907CFF1F10B586B00B460A4C15
:101530000A4A684615211EF001FB0022114620468A
:1015400012F00AFA68461EF09BFD694602462046E4
:1015500016F07CFE06B010BD907CFF1F0C560200FA
:101560002DE9F84F4E4D04464E480BF071F92B68AB
:10157000033B0646042B00F28280DFE803F032686A
:101580001C80030070B104F29F14002529464548D1
:101590000BF0CAF90135003018BF0120B54204F83C
:1015A000010FF3D10B21404818F0C4FF3F48BDE8BC
:1015B000F84F16F087BE58B104F29F140025294653
:1015C00038480BF09FF90135B54204F8010FF6D108
:1015D0000921374818F0AEFF3448BDE8F84F16F03F
:1015E00071BE344803F06CFE064638B300F11008B3
:1015F0005FFA88FA04F1800704F29F1B10254FF070
:101600000109294601350BF8019F3846EDB212F069
:1016100017FCAA45F5D1102E88BF002502D80DE091
:1016200006F11008A31901365FFA88F183F8A0517A
:101630003846F6B212F022FC102EF1D80A211E48CC
:1016400018F078FF1948BDE8F84F16F03BBE68B1B6
:1016500004F29F140025294612480BF041F9013588
:1016600080F00100B54204F8010FF4D109211348BC
:1016700018F060FF0D48BDE8F84F16F023BE204675
:101680000F49FFF751FF06210E4818F053FF296854
:10169000064816F067FE0548BDE8F84F16F012BE82
:1016A000BC6FFF1F08310020205602001871FF1F79
:1016B0002C560200A82D0020445602003856020085
:1016C000505602006456020038B500F5D075044645
:1016D000C0F8105200F29F13002200F2AF1003F87E
:1016E000012F8342FBD12046FFF73AFF29462046CF
:1016F000BDE83840FFF77ABB10B588B00B460092C2
:101700000A4C0B4A02A815211EF018FA00221146B5
:10171000204612F021F902A81EF0B2FC02A90246EE
:10172000204616F093FD08B010BD00BF907CFF1F4F
:101730006C56020030B5D0F818120C4C0C4A87B029
:101740000546013168461EF0F9F90021C5F8281256
:101750002046022212F000F968461EF091FC69460C
:101760000246204616F072FD07B030BD907CFF1F88
:101770008056020030B5D0F81C120C4C0C4A87B0D1
:101780000546013168461EF0D9F90021C5F82C1232
:101790002046012212F0E0F868461EF071FC69460E
:1017A0000246204616F052FD07B030BD907CFF1F68
:1017B0008056020010B5D0F8283282B004462BB112
:1017C0000E4A12680092009A934210D3D4F82C3239
:1017D0005BB10A4A12680192019A934205D22046EF
:1017E000FFF7C8FF0023C4F82C3202B010BDFFF78A
:1017F000A1FF0023C4F82832E8E700BFD0940020FE
:1018000070B50D4D0C460646FFF794FF02220021ED
:10181000284612F0A1F820461EF032FC214602466E
:10182000284616F013FD20461EF02AFC142828BF77
:101830001420C6F8180270BD907CFF1F70B5114DC2
:101840000C460646FFF776FF28460222002112F0DA
:1018500083F820461EF014FC21460246284616F066
:10186000F5FC20461EF00CFCC6F8180220461EF0BF
:1018700007FC0146204618F05DFE0348BDE87040B5
:1018800016F020BD907CFF1F1871FF1F70B50E4C25
:1018900005460E4620460122002112F05DF8132273
:1018A0000A49204616F0D2FC20460222002112F0FE
:1018B00053F83146204616F0DFFC1323C5F81832E2
:1018C000C5F81C3270BD00BF907CFF1F9856020007
:1018D00010B586B00B460D4A0D4C152168461EF01A
:1018E0002DF968461EF0CCFBC0F11001C9B22046AC
:1018F000002212F031F868461EF0C2FB694602462B
:10190000204616F0A3FC06B010BD00BFAC56020086
:10191000907CFF1F2DE9F04F2DED028B91B000F56B
:10192000C07103907C480AF0C3FD002840F091800C
:10193000039B0290FF27064680468146019004469D
:10194000BB463D46009703F27F1AB7EE008A02E0DD
:101950000134102C4FD01AF8012F002AF8D022465B
:1019600008A86D490AF056FB9DF824200098824291
:1019700008D001990131CBB290420193034628BFB0
:1019800013460093DDED0D7AF4EE487AF1EE10FA8D
:1019900003D0029A0132D3B20293F4EEC87AF1EE88
:1019A00010FA21465C48D8BFB0EE678A0AF074FF8F
:1019B000A84207D0854209F1010928BF05465FFA10
:1019C00089F9EDB29DF839205A4506D008F1010891
:1019D00093455FFA88F828BF93469DF83820BA42AD
:1019E000B6D0974204F1010406F1010628BF17465C
:1019F000102CF6B2AFD101220021484811F0ACFF03
:101A000012224749454816F021FC294604A816F041
:101A100077FEB9F1010F25D9424920E0424904A8D7
:101A200016F0D6FE069B112BF8D9022200213B4866
:101A300011F092FF04A9394816F01EFC039C1023F4
:101A400012220DEB0300C4F81822C4F81C3216F061
:101A5000E5FD11B0BDEC028BBDE8F08F324904A862
:101A600016F0B6FE069B022BF8D9594608A816F0C8
:101A700047FE08A904A816F0A7FE08A816F0CEFD98
:101A8000B8F1010F05D9274900E0274904A816F04D
:101A90009FFE069B052BF8D9394608A816F030FEA4
:101AA00008A904A816F090FE08A816F0B7FD012EAC
:101AB00005D91C4900E01C4904A816F089FE069BC4
:101AC000082BF8D9009A039908A8FFF767FC08A922
:101AD00004A816F079FE08A816F0A0FD019B012BC2
:101AE00005D9104900E0104904A816F071FE069BC4
:101AF0000C2BF8D9B0EE480A022108A816F014FE03
:101B000008A904A816F060FE08A816F087FD029B3D
:101B1000012B87D9034982E708310020907CFF1F01
:101B2000C4560200D85602001C57020010B502220B
:101B30000C460B48122111F00FFF0A4908480222F7
:101B400016F084FB082CD4BF132112210448022272
:101B500011F002FF21460248BDE8104016F002BC19
:101B6000907CFF1F1C56020038B504460E480AF050
:101B70006FFA04F5D0710546C4F8101204F29F13F1
:101B800004F2AF10002203F8012F8342FBD1631946
:101B90000122204683F8A021FFF728F92946204694
:101BA000BDE83840FFF7C2BF0831002010B503225E
:101BB0000C460B48122111F0CFFE0A4908480222B8
:101BC00016F044FB082C94BF132112210448032271
:101BD00011F0C2FE611C0248BDE8104016F0C2BB05
:101BE000907CFF1F1C56020030B5204B1B7883B041
:101BF00004460D461BB91E4B1B68092B12D01D480D
:101C0000A46B0AF033FA1C4929400029024604DB80
:101C1000C9B20220A04703B030BD013961F00F0105
:101C20000131F5E7FFF7AEF813492940002918DB29
:101C3000CDB229460F480AF031FA0E480AF0FAF9F7
:101C400001462046FFF7FAFD0C4B1B680193019BF0
:101C500003F5FA632946C4F828322046FFF7A6FFA9
:101C6000D9E7013961F00F010131E1E70167002097
:101C7000BC6FFF1F083100200F000080D0940020AF
:101C800010B502220C460D480F2111F065FE0C49DB
:101C90000A48022216F0DAFA092C4FF0020294BF29
:101CA00010210F21054811F057FE214600230A227A
:101CB0000248BDE8104016F015BB00BF907CFF1F26
:101CC0001C56020038B504460E480AF0CFF904F558
:101CD000D0710546C4F8101204F29F1304F2AF103D
:101CE000002203F8012F8342FBD163190122204611
:101CF00083F89F21FFF77AF829462046BDE838404F
:101D0000FFF7BEBF0831002038B5524D2B68013BAC
:101D100004460C2B00F29380DFE803F05F6B6D0745
:101D2000071A0726313C4A867B00002300F5D07550
:101D3000026A4362012380F83132C0F81052826295
:101D4000FFF70EFC29462046BDE83840FFF74EB8A5
:101D5000036A8362002200F5C0714262C0F810126B
:101D6000BDE83840FFF742B88368026A4362012346
:101D700080F831328262BDE83840FFF757B800235F
:101D8000026A4362012380F831328262BDE8384042
:101D9000FFF76AB8C36A026A4362012380F83132EE
:101DA0008262FFF77FF82C48BDE838400CF07CBA1F
:101DB000036A836200F5D07100224262C0F81012FB
:101DC00000F29F1300F2AF1003F8012F8342FBD102
:101DD0002046BDE83840FFF709B8C368226A63624D
:101DE0000123A26284F831322046BDE83840FFF773
:101DF000BBBE0369F2E70023026A4362012380F855
:101E000031328262FFF760FC1448BDE8384003F0CD
:101E1000D9BD0023026A4362012380F83132826215
:101E2000BDE83840FFF75CB8436B026A43620123A8
:101E300080F831328262BDE83840FFF743BF292184
:101E4000074818F077FB29680648BDE8384016F0C7
:101E500089BA00BFBC6FFF1FB0670020A82D00200B
:101E6000DC5602001871FF1F134A144B126870B53C
:101E700053F82250124C86B0064628461EF000F950
:101E8000D6F820120F4AC6F820028142B8BF014698
:101E90002B46013168461DF051FE204601220021EB
:101EA00011F05AFD68461EF0EBF8694602462046DE
:101EB00016F0CCF906B070BDBC6FFF1F7C6FFF1F22
:101EC000907CFF1F0857020070B500F5927586B030
:101ED0000446284615F020FF002840F025812846BA
:101EE00015F056FF002840F0E88004F59A75284662
:101EF00015F012FF002840F0F380284615F048FF47
:101F0000002840F0A38004F59675284615F004FFDC
:101F1000002840F0AE80284615F03AFF002870D126
:101F200004F59E75284615F0F7FE002873D1284663
:101F300015F02EFF00283FD104F5A275284615F0B4
:101F4000EBFE002842D1284615F022FF70B904F5B7
:101F5000A675284615F0E0FE90B9284615F018FF42
:101F600010B10023C4F8CC3006B070BD002304F5D6
:101F7000A675C4F8C830284615F0CEFE0028ECD06F
:101F8000284615F00FFF0028E7D02046FFF7D2FBC8
:101F9000964B092220461A60FFF7B6FE2046FFF74F
:101FA00063FF934B1B680593059BC4F8CC3001235A
:101FB00084F8143206B070BD002304F5A275C4F88D
:101FC000C430284615F0A8FE0028BCD0284615F0DD
:101FD000E9FE0028B7D02046FFF7ACFB834B082270
:101FE00020461A60FFF790FE2046FFF73DFF804B2A
:101FF0001B680493049BC4F8C830012384F814328E
:10200000A5E7002304F59E75C4F8BC30284615F0FA
:1020100083FE00288BD0284615F0C4FE002886D009
:102020002046FFF787FB714B072220461A60FFF717
:102030006BFE2046FFF718FF6D4B1B680393039B55
:10204000C4F8C430012384F8143275E794F82422CC
:102050000023032A04F5967504BF84F82432A4F8FB
:102060002632C4F8C030284615F056FE00283FF44A
:1020700052AF284615F096FE00283FF44CAF20469C
:10208000FFF758FB594B1A68052A00F08C80042A88
:1020900000F09480574A12681A602046FFF734FE19
:1020A0002046FFF7E1FE524B1B680293029BC4F8E7
:1020B000BC30012384F8143232E794F82422002340
:1020C000022A04F59A7504BF84F82432A4F8263253
:1020D000C4F8B830284615F01FFE00283FF40DAFB5
:1020E000284615F05FFE00283FF407AF2046FFF7B3
:1020F00021FB3E4A1368062B50D00C2B58D00D2BD9
:1021000042D03D4B1B6813602046FFF7FDFD204683
:10211000FFF7AAFE364B1B680193019BC4F8C03041
:10212000012384F81432EEE6284615F03BFE002821
:102130003FF4D5AE2046FFF7FDFA2C4A1368012B79
:1021400027D0022B3FD0032B14D00A2B45D02B4B8A
:102150001B6813602046FFF7D7FD2046FFF784FE7B
:10216000234B1B680093009BC4F8B830012384F80C
:102170001432BAE6214D224901264FF0FF300A23DE
:102180002E6008601360E5E71B4906230B601360AF
:10219000BAE71A48022103601160DBE716480C21F8
:1021A00003601160B0E7134904220A601A6074E703
:1021B000114906200D2308601360A5E70D4905228B
:1021C0000A601A6069E70D4D0D4901264FF0FF3096
:1021D00003232E6008601360BCE7084D0849012303
:1021E0004FF0FF302B6013600860B3E7BC6FFF1F38
:1021F000D0940020386FFF1F346FFF1F3C6FFF1F0C
:10220000B86FFF1F70B5044616480E4609F02EFF42
:1022100006F00F030133984206D004F5D071204632
:10222000BDE87040FEF7E2BD054631462046FEF7A8
:10223000A9FD29462046FFF723FD0A480AF0AAFB1C
:1022400001462046FFF7B2FC074B062220461A60E3
:10225000FFF75AFD2046FFF707FE012384F81432EA
:1022600070BD00BF08310020BC6FFF1F10B50122F8
:102270000C461248112111F06FFB032210490F4840
:1022800015F0E4FF092C4FF001020CDD632CD4BFE4
:1022900012211121094811F05FFB21460748BDE8D2
:1022A000104016F05FB81321044811F055FB214689
:1022B0000248BDE8104016F055B800BF907CFF1FE3
:1022C000BC56020010B500220C461248112111F034
:1022D00043FB032210490F4815F0B8FF632C4FF061
:1022E00000020CDC092CCCBF12211321094811F08B
:1022F00033FB21460748BDE8104016F033B81121E2
:10230000044811F029FB21460248BDE8104016F0B0
:1023100029B800BF907CFF1FBC560200F0B587B003
:1023200005460C9F0D9E0E9C0F9829606A601499BB
:10233000159AAB60EF60109B119F2E616C61129E2D
:10234000139C6963AA63EB61A8612F62EE622C6340
:1023500005F1A80305F1D001002243F8042F9942AA
:10236000FBD105F27F1205F28F13002102F8011F45
:102370009A42FBD105F29F11002203F8012F9942E6
:10238000FBD105F5D67305F5F671002243F8042F4D
:102390009942FBD105F2EF1305F20F21002203F859
:1023A000012F9942FBD1762475217422732305F104
:1023B000800677270394029101920093304672239E
:1023C00004977122702111F051FEEB6B002BC8BFF6
:1023D000002420DD2146304611F032FD304611F058
:1023E0009FFE0A2017F01AF80134EB6BE4B29C420E
:1023F000F0DB002B0FDD00242146304611F03EFDBE
:10240000304611F08DFE0A2017F008F80134EB6B0E
:10241000E4B29C42F0DB142017F000F82846FFF7E6
:1024200073FC2846FFF720FD0F480EF0C3FF01465E
:102430002846FFF747FF0C480EF0BEFF014628462E
:10244000FFF714FF09480AF0A5FA01462846FFF7EE
:10245000ADFB064809F00AFE0146284607B0BDE874
:10246000F040FFF70DBC00BFD490002008310020E1
:10247000F8B51F4C1F4F154600220E462046114648
:1024800011F06AFA204611221B4915F0DFFE0022E6
:102490001146204611F060FA30461DF0F1FD31463C
:1024A0000246204615F0D2FE20460122002111F0FE
:1024B00053FA28461DF0E4FD29460246204615F051
:1024C000C5FE30461DF0DCFD0146304618F032F8FE
:1024D000384615F0F7FE28461DF0D2FD0146284685
:1024E00018F028F83846BDE8F84015F0EBBE00BFFC
:1024F000907CFF1F1871FF1F0C570200B0B588B009
:1025000002AF04460B4600921521164A164D384676
:102510001DF014FB38461DF0B3FDD4F81832C4F892
:10252000180298420146B8BF194601F1080323F08A
:102530000703ADEB030D02AC3B460C4A01312046CC
:102540001DF0FCFA28460222002111F005FA20466F
:102550001DF096FD21460246284615F077FE1837F5
:10256000BD46B0BD20570200907CFF1F08570200F7
:102570002DE9F04790F8313282B00546002B40F04B
:102580008280584E584A3068D46892F809E092E840
:102590008800197897F800C0137A534F1CEA0E0F81
:1025A00001EA03015AD0BB7A03F0030309B143F0F7
:1025B000040343F008039910013B91720D2B0AD8D4
:1025C000DFE803F05E075807095B5E5E5B090758AA
:1025D000075E013CD460C31EA34202DC0330A0426C
:1025E00039DA424809F042FD3368E31A48BF033341
:1025F00000EBA307002F39DC0127DFF80081D8F8B2
:1026000000309F4226D05FFA87F94946374809F0E3
:1026100059FE3A4636492846FFF770FF354B364A91
:102620001B680193019B126803F5FA630C2AC5F835
:10263000283239D049462846FFF722FB2B480AF0BA
:10264000A9F901462846FFF7B1FA2846FFF75CFBD7
:10265000C8F80070346002B0BDE8F087BB7A03F0C0
:1026600003030029A7D043F00403A4E7022FA8BF67
:102670000227C2E70234D460ADE7023CD460AAE787
:102680000134D460A7E7002380F831321748154E93
:1026900009F0ECFC1949144A086003B29B001C467F
:1026A00018463360D36070E7D8F80030E8192B443F
:1026B000002209F10F014FF0010A05F1800980F8AD
:1026C0009FA1C9B283F89F21484611F0B9FBD8F801
:1026D00000100F314846C9B211F0D0FB85F875A142
:1026E000B6E700BF807CFF1F107CFF1F0831002071
:1026F00054690200D0940020BC6FFF1FF07BFF1FC5
:102700002DE9F041A84D2DED028B2B68DA0782B040
:10271000044640F1EB81A54D2B68DB0740F1D781E2
:1027200094F81432002B40F0AF81A14DA14E2B68DC
:1027300069681A78687A0F782B7A9D49074202EA0D
:1027400003021DD08B7A03F003030AB143F00403A4
:1027500043F008039A10013BAA720D2B00F2688126
:10276000DFE813F0540150014C01500166011600DE
:10277000540154011600660150014C0150015401EE
:102780008B7A03F00303002AE4D043F00403E1E76B
:10279000EB68023BEB6007EE903A9FED876A96ED9F
:1027A000007ADFED866AF8EEE77A87EE868A77EEC2
:1027B000267AB4EEE78AF1EE10FA06DA37EE667A98
:1027C000B4EEC78AF1EE10FA40D87D4BDFED7D7A8A
:1027D000D3ED006AB1EE007AE6EEC77AB4EEE78A8E
:1027E000F1EE10FA40F13A81B9EE008A26EE888ABD
:1027F000DFED717A68EE277AFDEEE77AC5ED037AB0
:10280000714D724F95ED000AF5EE007A68EE277A69
:10281000F4EE407AF1EE10FAC7ED007A40F07581DF
:102820009FED650A6A4967EE807A2046FDEEE77AF9
:1028300017EE902AFFF762FE664B86ED008A1B6852
:102840000193019B03F5FA63C4F82832624A1368C6
:10285000506819780578507A137A054201EA030125
:1028600000F0F380937A03F0030309B143F004030B
:1028700043F008039910013B91720D2B00F2D680B2
:10288000DFE813F0D000C800CC00C800D4000E0070
:10289000D000D0000E00D400C800CC00C800D0008A
:1028A000D568023DD5604D4E3368DA1EAA4202DC7F
:1028B000DA1CAA421DDA4A4FDFF83C81EA1A3B686B
:1028C000D8F8001048BF033203EBA203082BA8BFBF
:1028D000082323EAE37399423B6006D01946414836
:1028E0000EF062FD3968C8F800102046FFF7BEFC04
:1028F00035603D4A1368506819780578507A137A24
:10290000054201EA030100F09780937A03F0030384
:1029100009B143F0040343F008039910013B91729D
:102920000D2B00F28780DFE803F03B373337850754
:102930003B3B07853733373BD568023DD5602B4E8F
:102940003068C31EAB4202DCC31CAB421BDA284A10
:10295000281A136848BF033003EBA000002840F397
:10296000E280B0F5967FA8BF4FF49670214F1060BB
:102970003B68DFF87C80984204D063699847D8F8B8
:1029800000303B60356002B0BDEC028BBDE8F081E9
:10299000D5680235D560D2E7D568013DD560CEE770
:1029A000D5680135D560CAE70C7CFF1F047CFF1F8A
:1029B000207CFF1F687CFF1F0000C8420AD7233D10
:1029C000707CFF1F00000000AC7CFF1FE47BFF1F3A
:1029D00028570200D0940020307CFF1FBC7CFF1FD2
:1029E000007CFF1FD4900020407CFF1F087CFF1F4D
:1029F000787CFF1FE87BFF1FFC7BFF1FEB68023327
:102A0000EB60C8E6EB68013BEB60C4E6EB680133C2
:102A1000EB60C0E6D568013DD56044E7D568023576
:102A2000D56040E7D5680135D5603CE7D5683AE721
:102A3000EB68B0E6D56882E7937A03F003030029D8
:102A40003FF46BAF43F0040367E7937A03F00303AB
:102A500000293FF40FAF43F004030BE7334BD3EDF2
:102A6000007A27EE877AB4EEC78AF1EE10FA7FF784
:102A7000C7AEDFED2F7A67EE277AB0EE478AFDEE1C
:102A8000E77AC5ED037ABBE62A482B4DDFF8C4E0B0
:102A90002A4E0023002204F5C077036084F8142234
:102AA000EA6039462648CEF80030336009F0E2FF8C
:102AB000244B234883ED000A39460AF019F8F7EE53
:102AC000007A37EEC00A194B83ED000A2FE628463C
:102AD00016F0A6F900283FF423AE1B480EF06CFC5C
:102AE0001A4B1860284616F0A1F919E6284616F088
:102AF00097F900283FF40FAE13480EF059FC144B21
:102B00001860284616F092F905E637EEC00A94F8E8
:102B100030220B4804F5C0710AF06EF9D7ED007A47
:102B2000C5ED007A7CE6012020E700BF747CFF1F22
:102B30000000C842E47BFF1F207CFF1F687CFF1F52
:102B400008310020707CFF1FD4900020007CFF1F04
:102B5000787CFF1FAC7CFF1F384B1B680D2B00D00F
:102B600070472DE9F041364BCFB20B4007F00F060E
:102B7000002B82B006F1010639DBC418054694F833
:102B8000A0317BB12F4B93F80080B8F1000F33D107
:102B9000424631462C4809F055FD002838D102B094
:102BA000BDE8F081274B1B78DBB90122314626486E
:102BB00009F048FD30B3012384F8A031394605F10E
:102BC000800011F03DF9324620492846FFF796FC77
:102BD0001F4B1B680193019B03F5FA63C5F828326C
:102BE000DDE7836B3246012104209847D7E7013B9C
:102BF00063F00F030133C0E7836B324600210420EA
:102C00009847CCE7394605F1800011F037F9C6E75F
:102C1000394605F1800084F8A08111F02FF9324681
:102C20000C492846FFF76AFC094B1B680093009B80
:102C300003F5FA63C5F82832B1E700BFBC6FFF1F88
:102C40000F00008001670020083100204457020077
:102C5000D09400203457020010B5013A8CB00446DD
:102C6000032A6BD8DFE802F052371D0240F6B83372
:102C7000994200F086806AD941F28833994200F087
:102C8000AA8041F65833994264D15F49FEF7D6FDD8
:102C90005E4B1B680B930B9B03F5FA63C4F8283259
:102CA00053E040F6B833994277D050D941F2883397
:102CB000994200F09C8041F6583399424AD15449D8
:102CC000FEF7BCFD514B1B680893089B03F5FA63A4
:102CD000C4F8283239E04F4A40F6B83399421268B6
:102CE0003DD034D941F28833994262D041F658330D
:102CF00099422FD14849FEF7A1FD444B1B6805932B
:102D0000059B03F5FA63C4F828321EE0434801919D
:102D10000AF016FB019940F6B83399422BD016D928
:102D200041F28833994250D041F65833994211D13B
:102D300002463B492046FFF7E1FB06E03949FEF732
:102D4000F3FB3A21384817F0F5FB0CB010BDB1F594
:102D50007A7FFAD02046FEF7EDFC0CB010BD334967
:102D6000FFF7CCFB294B1B680393039B03F5FA6326
:102D7000C4F82832E9E702462C492046FFF7BEFB9B
:102D8000E3E72B49FEF75AFD204B1B680993099B8B
:102D900003F5FA63C4F82832D7E72649FEF74EFD5B
:102DA0001A4B1B680693069B03F5FA63C4F8283296
:102DB000CBE72149FFF7A2FB144B1B680493049B4C
:102DC00003F5FA63C4F82832BFE702461B492046E0
:102DD000FFF794FBB9E71A49FEF730FD0B4B1B6870
:102DE0000A930A9B03F5FA63C4F82832ADE7154944
:102DF000FEF724FD054B1B680793079B03F5FA6359
:102E0000C4F82832A1E700BFF8570200D094002090
:102E1000C4570200B86FFF1F90570200B067002030
:102E2000705702000058020010580200505702006C
:102E3000D0570200A05702008057020060570200DE
:102E4000E8570200B4570200B1F57A7F38B504D8CC
:102E5000B0F8264294B3002038BD40F6B834A14201
:102E600012D8B0F82612B1F57A7FF4D1A0F8264234
:102E70002146FFF7F1FE0821284817F05BFB2848A0
:102E800015F020FA002038BD41F28835A94222D938
:102E900041F65834A142B0F826122ED8A942DAD110
:102EA000A0F826422146FFF7D7FE04211D4817F05F
:102EB00041FB1B4815F006FA002038BD4FF47A722A
:102EC000A0F826220B21184817F034FB144815F0FF
:102ED000F9F9204638BDB0F82612A142BBD1A0F8BE
:102EE00026522946FFF7B8FE0621104817F022FBAC
:102EF0000B4815F0E7F9012038BDA142ABD1002401
:102F0000A0F826422146FFF7A7FE0821084817F03F
:102F100011FB034815F0D6F9204638BD5858020079
:102F20001871FF1F6C5802004C58020064580200D0
:102F300074580200B0B588B002AF04460193009205
:102F40000B46174A174D152138461CF0F7FD384639
:102F50001DF096F8D4F81832C4F8180298420146C9
:102F6000B8BF194601F1080323F00703ADEB030DC9
:102F700002AC3B460C4A013120461CF0DFFD2846DE
:102F80000222002110F0E8FC20461DF079F82146CD
:102F90000246284615F05AF91837BD46B0BD00BFA5
:102FA00080580200907CFF1F085702002DE9F04175
:102FB00090F8143282B00546002B40F082804E4FCC
:102FC0004E4E3B6879681A78787A0C783B7A4A4991
:102FD000044202EA030215D08B7A03F003030AB11C
:102FE00043F0040343F008039A10013BBA720D2B1F
:102FF00065D8DFE803F058605C60640F58580F64D0
:10300000605C60588B7A03F00303002AECD043F035
:103010000403E9E7FC68023CFC603368DA1CA24266
:1030200002DB033BA3423BDD354B1B78C3EB8373D1
:103030009B00A34204DC334B1B789B00A34201DAC4
:10304000FB601C46304FDFF8D0803A68002C2346E6
:10305000B8BFE31C9B109342C8F800301FD09A1AE7
:10306000D2B295F83032294805F5C07109F040FE1A
:10307000D8F80080C7F8008001466A462846FEF767
:10308000FBF94246034622492846FFF753FF214BEE
:103090001B680193019B03F5FA63C5F8283234607D
:1030A00002B0BDE8F081FC680134FC60B5E7FC6863
:1030B0000234FC60B1E7FC68013CFC60ADE7FC68F1
:1030C000ABE715490C4F104A0C4E1048002305F58C
:1030D000C0740B60FB6021461360336009F06AFC2A
:1030E000074B21461870094809F094FC054BC0F1C4
:1030F0007F00187065E700BF107CFF1FF87BFF1F83
:10310000507CFF1FF47BFF1FE07BFF1F0831002076
:103110008C580200D0940020EC7BFF1F134B1A68E0
:103120000D2A10B5044609D80123934043F2B63264
:103130001A405AB91A0714D45B050ED42046FFF77B
:1031400035FF2046BDE81040FFF7DABAFFF710FA66
:103150002046BDE81040FFF7D3BABDE81040FDF7A8
:103160005BBBBDE81040FDF767BC00BFBC6FFF1F35
:10317000F0B58DB01D4D9DF848409DF84CE09DF890
:103180005070CDF80CE00134019306464B1C0092C0
:103190000294049707A8164A164C14211CF0CEFC82
:1031A00028460222002110F0D7FB07A81CF068FF78
:1031B00007A90246284615F049F807A81CF060FF49
:1031C000C6F81802204615F07DF814210A4817F0B9
:1031D000B1F907A81CF054FF014607A817F0AAF997
:1031E000204615F06FF80DB0F0BD00BF907CFF1FBA
:1031F000A05802001871FF1FB8580200F8B5184D0A
:103200000C4617460646FEF795FA0222002128468C
:1032100010F0A2FB20461CF033FF21460246284650
:1032200015F014F820461CF02BFF0222C1B22846EC
:1032300010F092FB3946284615F094F820461CF011
:103240001FFF0222C1B2284610F086FB20461CF068
:1032500017FF0630142828BF1420C6F81802F8BD3E
:10326000907CFF1F70B51E4D82B00C468DED010A9B
:103270000646FEF75FFA28460222002110F06CFB9A
:1032800020461CF0FDFE21460246284614F0DEFFD3
:1032900020461CF0F5FE0222C1B2284610F05CFB6D
:1032A0009DED010A10EE100A1BF07AFA41EC100BAA
:1032B0000221284615F060F820461CF0E1FE0222AB
:1032C000C1B2284610F048FB20461CF0D9FE06305B
:1032D000142828BF1420C6F8180202B070BD00BF21
:1032E000907CFF1FF8B51C4D0C4616460746FEF7AE
:1032F00021FA02220021284610F02EFB20461CF065
:10330000BFFE21460246284614F0A0FF20461CF0CE
:10331000B7FE0222C1B2284610F01EFB30461CF058
:10332000AFFE31460246284614F090FF20461CF0BE
:10333000A7FE0222C1B2284610F00EFB20461CF068
:103340009FFE044630461CF09BFE2044142828BFF4
:103350001420C7F81802F8BD907CFF1F2DE9F0413A
:103360001D4D1F460C4616468046FEF7E3F9022225
:103370000021284610F0F0FA20461CF081FE21467C
:103380000246284614F062FF20461CF079FE022215
:10339000C1B2284610F0E0FA30461CF071FE31460A
:1033A0000246284614F052FF20461CF069FEC1195F
:1033B000C9B20222284610F0CFFA20461CF060FE67
:1033C000044630461CF05CFE2044142828BF14201C
:1033D000C8F81802BDE8F081907CFF1F08B50322F1
:1033E0001121094810F0B8FA084B1B7801222BB9BB
:1033F00007490548BDE8084014F028BF05490248C0
:10340000BDE8084014F022BF907CFF1F44910020CB
:103410001C570200D058020010B50446032290F851
:1034200078110B4810F098FAD4F81022D4F87831BB
:10343000D35C01222BB907490548BDE8104014F0C0
:1034400005BF05490248BDE8104014F0FFBE00BFAB
:10345000907CFF1F1C570200D45802002DE9F04F4A
:103460000446102300F1440720268FB0036404F1C2
:103470006208E6633846002510F05EFC404610F016
:103480005BFC4246394604950395029501950095EB
:103490002B4604F1800010F051FCC4F804611A2698
:1034A000C4F8E860192604F58673C4F8EC601B269E
:1034B0004FF0250C4FF0240E1E2107931F220523E9
:1034C000C4F8F0604FF0420B4FF0430A4FF0270969
:1034D0004FF0260818271D201C26C4F8DCC0C4F8AD
:1034E000E0E0C4F80831C4F8FC10C4F80021C4F8C6
:1034F000A4B0C4F8A8A0C4F8D49004F58A7AC4F89B
:10350000D880C4F8E470C4F8F460C4F8F8000798F0
:1035100014F0E2FB504614F0DFFB04F58E7904F55D
:1035200092721646484614F0D7FB04F59672304660
:103530001746089614F0D0FB04F59A710E463846EB
:10354000099714F0C9FB04F59E7130460F460A96A0
:1035500014F0C2FB04F5A270064638460B9714F02F
:10356000BBFB04F5A6700746304604F5AA7B0C9613
:1035700014F0B2FB384604F5AE780D9714F0ACFBAE
:10358000584614F0A9FB04F5B277404614F0A4FBAA
:1035900004F5B676384614F09FFB304614F09CFBD9
:1035A000FF22012384F8302284F8313284F87451E8
:1035B00084F8755184F8145284F81552C4F81852DE
:1035C000C4F81C52C4F8205284F82452A4F826529D
:1035D0004A21714816F0AEFF704814F073FE2B4676
:1035E0006F480422142110F0DBF90A226D496C485F
:1035F00014F02CFE94F8A400022115F0BFFE94F8FC
:10360000A800022115F0BAFE94F8D800022115F0A6
:10361000B5FE94F8D400022115F0B0FE94F8DC0059
:10362000022115F0ABFE94F8E000022115F0A6FE91
:1036300094F8E400022115F0A1FE94F8E8000221BC
:1036400015F09CFE94F8EC00022115F097FE94F81A
:10365000F000022115F092FE94F8F400022115F01A
:103660008DFE0798D4F8D81014F03EFB5046D4F8DD
:10367000D41014F039FB4846D4F8DC1014F034FBB5
:103680000898D4F8E01014F02FFB0998D4F8E4104F
:1036900014F02AFB0A98D4F8E81014F025FB0B98D4
:1036A000D4F8EC1014F020FB0C98D4F8F01014F0BF
:1036B0001BFB0D9DD4F8F410284614F015FB079859
:1036C000B4F8081114F026FB5046B4F8081114F0B1
:1036D00021FB4846B4F8081114F01CFB0898B4F814
:1036E000081114F017FB0998B4F8081114F012FB34
:1036F0000A98B4F8081114F00DFB0B98B4F80811EF
:1037000014F008FB0C98B4F8081114F003FB2846D9
:10371000B4F8081114F0FEFA94F8F800022115F03C
:103720002DFE94F8FC00022115F028FE94F800010B
:10373000022115F023FE94F80401022115F01EFE6B
:103740005846D4F8F81014F0CFFA4046D4F8FC10DC
:1037500014F0CAFA3846D4F8001114F0C5FA30460D
:10376000D4F8041114F0C0FA5846B4F8081114F053
:10377000D1FA4046B4F8081114F0CCFA3846B4F83F
:10378000081114F0C7FA3046B4F8081114F0C2FA60
:1037900020460FB0BDE8F08FD85802001871FF1F07
:1037A000907CFF1F2459020070B516460C46054652
:1037B000C9B203221F4810F0CFF8FEB92B1993F8B5
:1037C0008061D5F878317EB99C422BD021461A48C9
:1037D00009F074F8012818D9334601460A22154821
:1037E000BDE8704014F07EBD9C424FF0010213D042
:1037F00012491048BDE8704014F028BD012210495C
:103800000C48BDE8704014F021BD01220D49094863
:10381000BDE8704014F01ABD0B490648BDE8704081
:1038200014F014BD012209490248BDE8704014F0AB
:103830000DBD00BF907CFF1F08310020D45802004E
:10384000D85602001C57020030590200D48F0200E3
:10385000431800220F2970B50C46054683F8F02165
:1038600024D901F00F063146FFF79EFF12211E48B2
:1038700016F060FE31461D4814F074FD1B4814F02C
:1038800021FD95F83032A34204BFFF2385F8303282
:10389000174B1B680A2B10D00B2B07D0032B00D023
:1038A00070BD144801F00CFD8642F9DB214605F19C
:1038B0008000BDE8704010F0E1BA2846FDF73AFFFD
:1038C00095F824220C480023012AC5F8D03004BF03
:1038D00085F82432A5F8263231460AF01BFD284629
:1038E000BDE87040FDF7DEBA345902001871FF1FC1
:1038F000BC6FFF1FA82D0020B067002070B50D46DB
:103900001646D0F87C1100220446FFF74DFF032233
:10391000E9B2094810F020F8012236B907490648F3
:1039200014F094FCC4F87C5170BD0549024814F0B1
:103930008DFCC4F87C5170BD907CFF1FD48F0200B9
:1039400030590200D0F8103270B55D5CC0F87811C3
:10395000103104461646C9B2803095B110F08EFA87
:103960000122D4F878112046FFF7C8FFD4F8783147
:103970006C33012244F8236084F8742184F87521A3
:1039800070BD10F05DFA2A46D4F878112046FFF792
:10399000B5FFEBE72DE9F041012186B00546484827
:1039A0000FF0FEFC0021122015F0E8FC012113208D
:1039B00015F0E4FC0121132015F0CCFC0B2612209D
:1039C00015F0CEFC30B9013E01464FF496744FF02D
:1039D000130067D175217422732305F180067727C0
:1039E0007624029101920093304672230497039447
:1039F0007122702110F03AFBEB6B002B09DD0024E3
:103A00002146304610F03AFA0134EB6BE4B29C42A6
:103A1000F6DB304610F084FB05F29F1305F2AF1180
:103A2000002203F8012F8B42FBD16FF4BF76761B87
:103A300005F27F1405F28F180027311904F8017F71
:103A400000222846FFF7B0FE4445F6D105F5D673AF
:103A500005F5F670002143F8041F83424FF0000281
:103A6000F9D1184B85F8152201240622284685F83D
:103A700014421A60FEF748F92846FEF7F5F9124895
:103A80000DF098FC01462846FEF71CFC0E480DF090
:103A900093FC01462846FEF7E9FB85F8744106B021
:103AA000BDE8F08115F056FC2346013BFDD1012114
:103AB000132015F04FFC2346013BFDD17FE700BFEB
:103AC0003070FF1FBC6FFF1FD490002030B5D0F8BE
:103AD000B83087B00446A3B1374A126802920299FF
:103AE000C91A0ED0354D2B680222013380F82422EA
:103AF0005AD002222046FFF7A7F9002847D107B085
:103B000030BDD4F8D030ABB12B4A12680392039980
:103B1000C91A0FD0012284F824222046FFF794F915
:103B20000028ECD0264809F00BFC0146244809F097
:103B300003FDE4E7D4F8C0308BB11F4A1268049249
:103B40000499C91A0BD0032284F824222046FFF7D7
:103B50007BF90028D3D02046FFF71CFFCFE7D4F82D
:103B6000B030002BCBD0144A126805920599C91ABF
:103B7000C5D0042284F824222046FFF765F90028E6
:103B8000BDD0104808F0D0FBE3699847B7E7296833
:103B90000C4808F07FF820462968FDF7C7FF4FF072
:103BA000FF332B6007B030BD0648019108F050FA92
:103BB000019928609DE700BFD0940020B86FFF1FD7
:103BC000B0670020083100202DE9F04F00F58E7518
:103BD00085B00446284614F09FF810B905B0BDE83A
:103BE000F08F284614F0DEF80028F7D08C4E3368AA
:103BF000013B0A2B57D8DFE803F0411E18565656F2
:103C0000560D0D560600874D2B78002B54D1E369D5
:103C10009847E3E7844A1378204683F00103137042
:103C2000FFF7DCFB05B0BDE8F08F804802F020F91B
:103C300005B0BDE8F08F7E4D29684B1C00F0D780A1
:103C40007C4808F027F82A687B492046FEF756FC96
:103C50007A4B1B680393039B03F5FA63C4F828327D
:103C600001274FF0FF3320462B603760FEF74CF8FA
:103C70002046FEF7F9F884F81472AFE76D4808F0B3
:103C800045F930B36B4808F0E3F96D490246204628
:103C9000FEF734FC694B1B680193019B03F5FA6343
:103CA000C4F828329AE794F81532032B00F2AA8060
:103CB000DFE803F076593F20012720463760FEF702
:103CC00023F82046FEF7D0F8002384F814722B70F6
:103CD00084E7584808F0BCF95A4902462046FEF7E6
:103CE0000DFC564B1B680293029B03F5FA63C4F864
:103CF000283273E704F28F196FF4BF77C8463F1B71
:103D000004F27F154FF0010A791915F8013F08F800
:103D1000013F002285F800A02046FFF745FD4D45F4
:103D20004FF0010BF0D1022384F814B284F815325D
:103D300053E06FF4BF773F1B04F27F1504F28F1A34
:103D40004FF0000979194FF0000805F8019F42462D
:103D50002046FFF729FD5545F4D1012384F815824B
:103D600084F8143239E004F28F196FF4BF77C84633
:103D70003F1B04F27F15791915F8013F08F8013F40
:103D800083F001032B7000222046FFF70DFDA945AB
:103D9000F1D10322012384F8152284F814321CE0A7
:103DA0006FF4C778C4EB080804F28F1504F27F178C
:103DB00004F29F1908EB050115F8013F83F0010398
:103DC00007F8013F00222046FFF7EEFCA945F1D19C
:103DD000012384F8153284F814323368062B7FF4FB
:103DE000FDAE04F5C0712046FDF700F8F6E60125AA
:103DF00020463560FDF788FF2046FEF735F884F849
:103E00001452EBE63121104816F094FB94F8151289
:103E10000E4814F0A7FA0D4814F054FADDE700BF7D
:103E2000BC6FFF1F942E002044910020A82D00207D
:103E3000B86FFF1F0831002068590200D09400209D
:103E40004859020058590200785902001871FF1FA2
:103E500070B504460D4696B080300FF0F1FF63193F
:103E6000012283F8F0210F2D00F23F81DFE815F0E9
:103E7000240040005C00780094009D00A600AF0084
:103E8000F100CB00DE00B8002A0104011701100088
:103E9000B9492046FDF7D2FCB84BB9481B681293CC
:103EA000129B03F5FA63C4F8283204F5C0710422AA
:103EB00008F05CFE16B070BDB24B1A68511E0129A5
:103EC00040F2D0810A2A00F0CD812046AE49FDF7AC
:103ED000B5FCAA4BAA481B680293029B03F5FA6340
:103EE000C4F8283204F5C071002208F065FEE1E74D
:103EF000A44B1A68511E012940F2C0810B2A00F020
:103F0000BD812046A149FDF799FC9C4B9C481B684C
:103F10000193019B03F5FA63C4F8283204F5C071DC
:103F2000012208F049FEC5E7964B1B68012B00F003
:103F30006C81083B012B40F2688120469449FDF7D3
:103F40007DFC8E4B8E481B680493049B03F5FA633B
:103F5000C4F8283204F5C071022208F02DFEA9E74A
:103F6000884B1B68012B00F06881083B012B40F255
:103F7000648120468749FDF761FC804B80481B68BF
:103F80000693069B03F5FA63C4F8283204F5C07162
:103F9000032208F011FE8DE77F4B1B78002B00F009
:103FA0001A81A3690120984784E77B4B1B78002B7B
:103FB00000F00481A369022098477BE7764B1B78C9
:103FC000002B00F01581A3690320984772E7724B1C
:103FD0001B78002B00F0C280A3690420984769E792
:103FE00020466E49FDF72AFC644B65481B680E931A
:103FF0000E9B03F5FA63C4F8283204F5C07103225E
:1040000008F0FAFD56E720466549FDF717FC5B4BC3
:104010005B481B680C930C9B03F5FA63C4F82832C9
:1040200004F5C071012208F0E7FD43E720465D4931
:10403000FDF704FC514B52481B680D930D9B03F593
:10404000FA63C4F8283204F5C071022208F0D4FDE6
:1040500030E720465449FDF7F1FB484B48481B68C0
:104060000B930B9B03F5FA63C4F8283204F5C07177
:10407000002208F0C1FD1DE720464C49FDF7DEFB9C
:104080003E4B3F481B681093109B03F5FA63C4F83E
:10409000283204F5C071022208F068FD0AE72046C4
:1040A0004349FDF7CBFB354B35481B681193119BFA
:1040B00003F5FA63C4F8283204F5C071032208F04E
:1040C00055FDF7E620463B49FDF7B8FB2B4B2C4846
:1040D0001B680F930F9B03F5FA63C4F8283204F5AD
:1040E000C071012208F042FDE4E60F2D7FF6E2AE3A
:1040F00005F00F06314601222046FFF755FB94F8E4
:104100003032AB42636A88BF84F8305213B1A5F1F4
:10411000100098471B4B1B68013B0C2B00F2EC80F6
:1041200001A252F823F000BF814200009342000038
:10413000C7420000EF420000E5420000F9420000E3
:10414000DB42000081420000D1420000A742000093
:10415000B53E00009D420000BD42000016492046C9
:10416000FDF76CFB054B1B680A930A9B03F5FA638A
:10417000C4F8283230E700BFA45A0200D0940020CF
:1041800008310020BC6FFF1FB8590200AC59020073
:10419000E05902000C5A020001670020785A020020
:1041A000605A02006C5A0200545A02008C5A0200F3
:1041B000985A0200845A0200485A02006149204677
:1041C000FDF73CFB604B1B680893089B03F5FA6303
:1041D000C4F82832EEE65D492046FDF72FFB5A4B26
:1041E0001B680793079B03F5FA63C4F82832D8E6E7
:1041F00057492046FDF722FB534B1B680993099B47
:1042000003F5FA63C4F82832DDE6524A52491378BE
:10421000002083F0010313700870002B00F08D80E4
:104220004E492046FDF70AFB474B1B680393039B4F
:1042300003F5FA63C4F828323CE6474B1A78002AA3
:1042400072D0444D4649002220462A701A70FDF76C
:10425000F5FA3D4B1B680593059B03F5FA63C4F81B
:10426000283227E60B2220461A60FDF74DFD204636
:10427000FDF7FAFD012384F814321BE60A22F2E767
:10428000344B384A1B784FF0FF311160002B7FF41C
:1042900011AE29462046FCF775FD0BE6294620465F
:1042A000FDF7B0FF06E629462046FCF76BFD264BDE
:1042B0001B681393139BC4F8D030FBE529462046B6
:1042C000FEF74AFCF6E529462046FCF717FDF1E526
:1042D00029462046FDF788FCECE529462046FCF7F8
:1042E000B1FCE7E529462046FCF77EFCE2E52946DD
:1042F0002046FCF74BFCDDE529462046FCF7D0FCC8
:1043000031462046FDF706FB0F4B1A681592159AA9
:104310001B681493149B02F5FA6203F5FA63C4F860
:104320002C22C4F82832C5E50A480F490270012240
:1043300020461A70FDF782FA8BE70C492046FDF7FC
:104340007DFA71E7285A0200D0940020185A020022
:10435000385A02000167002000670020C45902009B
:10436000EC590200B86FFF1FFC590200D45902003B
:10437000F8B5344C2368DB07054646D5324E15F0B8
:1043800029F83368304A984234D900F5EA4395F861
:10439000741130331360002947D105F18007384686
:1043A0000FF0D6FD18B3EB6B002B24DD002634464E
:1043B00005E00134EB6BE4B29C4226461BDA214651
:1043C00038460FF0FBFC2E4430B196F8F031214610
:1043D00028460BB9FFF73CFD214638460FF0FEFC9E
:1043E0000028E6D021462846FFF732FAE1E795F8A3
:1043F00075311BB9F8BD012385F8753138460FF0CA
:104400008FFE002385F87531F8BD204614F008FDB5
:104410000028B3D014F0DEFF0B4E00F5EA43303332
:104420002046336014F002FDA9E7014605F180073C
:104430002846FCF76FFB38460FF08AFD0028D6D0DF
:10444000B1E700BF887CFF1FB87CFF1F10B50023B9
:1044500003604360836004461621044816F06AF83E
:10446000034813F02FFF204610BD00BFB45A0200CE
:104470001871FF1F38B505461A210F4816F05AF873
:104480002C6864B1A36A2B6020462C2114F00AFD2D
:104490002C680A48042116F04DF8002CF2D10023B4
:1044A0002B606B60AB600421054816F043F80548AB
:1044B00013F008FF284638BDCC5A0200F05A02001B
:1044C000E85A02001871FF1F38B5054615210F483C
:1044D00016F030F82C6864B1A36A2B6020462C21BA
:1044E00014F0E0FC2C680A48042116F023F8002C94
:1044F000F2D100232B606B60AB600421054816F0FD
:1045000019F80548BDE8384013F0DCBEF85A02003F
:10451000F05A0200E85A02001871FF1F38B52E4CFD
:1045200005460A212D4816F005F8204613F0CAFE6C
:104530000E212B4815F0FEFF6B682046196813F01A
:1045400011FF0B21274815F0F5FF6B680A22197936
:104550002046002313F0C6FE204613F0B3FE0821C8
:10456000214815F0E7FF6B682046D96813F0FAFE82
:1045700007211E4815F0DEFF6B68D8691AF010F9A4
:1045800041EC100B2046022113F0F6FE0B211848D7
:1045900015F0D0FF6B680A2293F820102046002304
:1045A00013F0A0FE1621134815F0C4FF6B682046D7
:1045B000597A13F0D7FE0E210F4815F0BBFF6B6838
:1045C000204693F824100A22002313F08BFE204685
:1045D000BDE8384013F076BE1871FF1F105B020073
:1045E0001C5B02002C5B0200385B0200445B020093
:1045F0004C5B0200585B0200705B020038B54368F8
:10460000002B6BD09A6A934204460D4618BF0120D6
:1046100066D0A36823B1226812B19B6A9A4274D013
:104620006368444A1B68934202DC01332DD038BDD5
:104630002A4641494148FDF71BFF3121404815F00A
:1046400079FF28461BF01CFD0146284615F072FF35
:104650003C4813F037FE07213B4815F06BFF6168BB
:10466000384813F07FFE0E21384815F063FF636869
:104670003448196813F076FE324813F023FE63685D
:104680001B6801334FF00000D1D12A4630492B4836
:10469000FDF7EEFE34212F4815F04CFF28461BF0A5
:1046A000EFFC0146284615F045FF264813F00AFEA8
:1046B0000721254815F03EFF6168224813F052FE9D
:1046C0000E21224815F036FF63681E48196813F062
:1046D00049FE1C4813F0F6FD002038BD012038BD0E
:1046E0000A4616481C49FDF7C3FE26211B4815F053
:1046F00021FF28461BF0C4FC0146284615F01AFF8E
:10470000104813F0DFFD002083E72A4614490B48C8
:10471000FDF7AEFE3921134815F00CFF28461BF0BB
:10472000AFFC0146284615F005FF064813F0CAFD08
:10473000002075E780969800045C0200CC2E0020D3
:104740001C5C02001871FF1F505C0200585C0200E4
:10475000685C0200805C0200805B0200905B0200EB
:10476000B85B0200C85B020003684360704700BF8B
:1047700010B544680CB1206810BD03490348FCF72C
:10478000D3FE204610BD00BFB85C0200CC2E002036
:1047900010B544680CB1207910BD03490348FCF7FB
:1047A000C3FE204610BD00BFCC5C0200CC2E002012
:1047B0002DE9F0418846002707700646112114486C
:1047C00015F0B8FED8F80440ECB108340FCC3546EB
:1047D0000FC594E80F0085E80F0071680D4813F0CD
:1047E000C1FD08210C4815F0A5FED8F80430094891
:1047F00019790A223B4613F075FD064813F062FD55
:104800003046BDE8F08105490548FCF78DFEF7E725
:10481000E05C02001871FF1FF8750200F45C0200F2
:10482000CC2E00204068003018BF0120704700BF28
:1048300070B5044616213648666815F07BFE35488B
:1048400013F040FD0721344815F074FE61683148CB
:1048500013F088FD0821314815F06CFE21682D48C1
:1048600013F080FD08212E4815F064FEA168294848
:1048700013F078FD23686360642538E013F022FDAF
:104880000E21284815F056FE63682248196813F077
:1048900069FD0D21244815F04DFE61681D48083161
:1048A00013F060FD0921214815F044FE63681948A2
:1048B000197913F057FD0B211D4815F03BFE616877
:1048C000144813F04FFD08211A4815F033FE6368B1
:1048D0001048996A13F046FD17492046FFF78EFEEF
:1048E00040B1204600F0C6F8013D08D06368094891
:1048F000002BC3D1074813F0E5FC666070BD0F497B
:104900000F48FCF711FE034813F0DCFC666070BD35
:104910000C5D02001871FF1F505C0200245D020054
:10492000305D0200585C02003C5D02004C5D0200FC
:10493000585D0200645D0200705D0200785D020057
:10494000CC2E0020036810B504466BB14268934238
:1049500004BF002242609A6A8AB100210260996213
:1049600018462C2114F09EFA0A492046FFF746FE0D
:1049700000B110BD2046BDE81040FFF759BF816867
:104980008B4208BF82602C21184614F08BFA00235A
:104990002360E9E7885D020038B50368044673B117
:1049A0001A6891420D4603DC0AE01A68AA4207DA47
:1049B0002046FFF7C7FF23686360002BF5D1002373
:1049C000636005492046FFF719FE00B138BD204657
:1049D000BDE83840FFF72CBF985D020082B02DE99A
:1049E000F04106AC074644F8043F0D461E4814212A
:1049F000904615F09FFD214600230A221B4813F024
:104A000071FC1A4813F05EFC2C2014F047FA2C229B
:104A1000002106461AF036FE0FCCB060F16032611C
:104A200073610FCCBC68356086F80480B061F161B9
:104A30003262736214B1A64218BFA6627B68BE6080
:104A40007BB13B685BB10A493846FFF7D7FD10B927
:104A50003846FFF7EDFEBDE8F04102B070473E601A
:104A6000F1E77E60EDE700BFC45D02001871FF1F33
:104A7000DC5D0200436810B5044673B19A6A934244
:104A800013D062600C492046FFF7B8FD00B110BD9D
:104A90002046BDE81040FFF7CBBE1921074815F0AE
:104AA00049FD074813F00EFCECE706490648FCF701
:104AB0003BFD63689A6AE4E7185E0200FC5D020051
:104AC0001871FF1FE85D0200CC2E002070B590E841
:104AD000480005460024436006E00134FFF7CAFFA2
:104AE000B4F57A7F06D06B682846002BF5D16E604E
:104AF000204670BD03490448FCF716FD6E60204651
:104B000070BD00BF205E0200CC2E0020002202609B
:104B100042608260704700BF38B5044617210948DB
:104B200015F008FD23685BB10025DA68226018469D
:104B3000DD6010219D6014F0B5F92368002BF4D1DD
:104B4000204638BD305E020038B5436804460D4645
:104B500083B1DA68934218BF012036D09A689A422E
:104B600048D0E3682BB1DA68934219D09A689A4228
:104B700002D038BD0120F4E728492948FCF7D4FCCD
:104B80001F21284815F0D6FC274813F09BFB284628
:104B90001BF076FA0146284615F0CCFC0020E8E729
:104BA00022491F48FCF7C0FC2B21214815F0C2FC0C
:104BB00028461BF065FA0146284615F0BBFC1A484A
:104BC00013F080FBE3680020D0E71A491448FCF793
:104BD000ABFC2321184815F0ADFC28461BF050FA19
:104BE0000146284615F0A6FC0F4813F06BFB6368DE
:104BF0000020B3E711490A48FCF796FC172110483A
:104C000015F098FC084813F05DFB28461BF038FAB5
:104C10000146284615F08EFC0020A2E7E45E020063
:104C2000CC2E0020F85E02001871FF1FA45E020067
:104C3000B85E0200485E0200585E02007C5E020020
:104C40008C5E020010B507490446FFF77DFF20B1D6
:104C500063680BB1DB68636010BD204600F004F8A8
:104C6000F6E700BF185E020038B50021044643484D
:104C700015F060FC424813F025FB0D21414815F06A
:104C800059FC3F4813F01EFB07213F48656815F0AB
:104C900051FC21683A4813F065FB06213B4815F0AA
:104CA00049FC6168364813F05DFB0721384815F070
:104CB00041FCA168324813F055FB0A21354815F034
:104CC00039FCE1682E4813F04DFB2D4813F0FAFA39
:104CD000204600F0DFF863682BB945E0FFF7B2FF2C
:104CE0006368002B40D005212B4815F023FC636836
:104CF000234819680A22002313F0F4FA04212748F4
:104D000015F018FC63681E4819790A22002313F075
:104D1000E9FA0421224815F00DFC63681848597916
:104D20000A22002313F0DEFA05211E4815F002FCCA
:104D30006168134813F016FB06211B4815F0FAFBB7
:104D400063680F48D96813F00DFB0D4813F0BAFAE9
:104D50006368DA6893422046C0D11A21134815F0DF
:104D6000E9FB074813F0AEFA0021044815F0E2FB16
:104D7000034813F0A7FA656038BD00BF94560200DF
:104D80001871FF1F185F0200285F0200305F0200E9
:104D9000385F0200405F02004C5F0200545F020077
:104DA0005C5F0200645F02006C5F0200745F0200DF
:104DB00038B50446C068002838D060602368834254
:104DC00026D0A368834216D08568C368EB60C368A9
:104DD00082689A60102114F065F865602B46E360E4
:104DE00014492046FFF7B0FE00B138BD2046BDE8AB
:104DF0003840FFF739BF82681AB1826862600021CB
:104E0000D1601846102114F04DF86368A360E6E7FE
:104E1000C268626062B1002191600022DA601846C7
:104E2000102114F03FF863682360D8E76068C5E795
:104E3000A260F2E7905F02002DE9F84304461020DB
:104E4000894690461F4614F029F8A668002545605B
:104E5000856080F80490C56080F8058007600EB119
:104E6000F06086606368A0607BB123685BB108492D
:104E70002046FFF769FE08B1BDE8F8832046BDE88B
:104E8000F843FFF7F1BE2060F1E76060EDE700BF97
:104E90009C5F020010B505490446FFF755FE10B9A6
:104EA0002046FFF7E1FE2368636010BDA45F0200A7
:104EB000C3681879704700BFC3685879704700BF4E
:104EC000C3681868704700BFC068003018BF012071
:104ED000704700BF10B505490446FFF735FE10B90D
:104EE0002046FFF7C1FE2368E36010BDAC5F0200FF
:104EF00010B507490446FFF727FE20B1E3680BB160
:104F0000DB68E36010BD2046FFF7AEFEF6E700BFAA
:104F1000B85F020070B511490546FFF715FE90B164
:104F200028466E680024FFF7B5FF05E00134FFF75F
:104F300089FEB4F57A7F0AD06B682846002BF5D13C
:104F40006E60204670BD2846FFF78EFEE8E70449F4
:104F50000448FCF7E9FA6E60204670BDC45F0200A9
:104F6000CC5F0200CC2E002038B50A4D0023044649
:104F70000360436029464FF4A072083013F06EFEC0
:104F800005F5A07104F5A4704FF4807213F066FE6D
:104F9000204638BDDC5F020010B490E818000134F0
:104FA00000EB031394FBF1F202FB11410B4441604F
:104FB00093F848015DF8044B704700BF10B490E8C7
:104FC000180094FBF1F200EB031302FB11410B44B8
:104FD000416093F848015DF8044B7047436810B492
:104FE0000468194400EB041091FBF2F303FB121266
:104FF00050FA82F25DF8044B92F84801704700BF06
:10500000406801308842B4BF00200120704700BFD3
:10501000054B0B40002B01DB03607047013B63F045
:105020000F030133036070470F000080036803EB38
:10503000830300EB83000830704700BF0023436008
:10504000704700BF38B501250446056758220E4950
:105050007C3013F003FE0D4A84F86D500023157068
:1050600084F8D83084F8E03084F8E93084F8E83007
:10507000C4F8D430C4F8DC3084F8EA30C4F8E43042
:105080006367A367204638BD1C620200C87CFF1F0F
:105090002DE9F0418046064600F16007337D5BB1A3
:1050A0003546002455F8040F013418B11C2113F0C3
:1050B000F9FE337DA342F5DC1836BE42EED1404600
:1050C000BDE8F08101EB410300EBC30380F8D81089
:1050D000C0F8D4300120704710B5D0F8D44084B166
:1050E000227D8A420B46D8BF002304EB8304D8BF3D
:1050F00019466468C0F8DC404CB180F8E01001202B
:1051000010BD06490648FCF70FFA204610BD0549B8
:105110000348FCF709FA204610BD00BF7462020084
:10512000CC2E00208862020010B5D0F8D440BCB16B
:10513000237D8B420EDD04EB81046468B4B190F8EA
:10514000D83080F8E910012480F8E83080F8EA408F
:10515000204610BD08490948FCF7E6F9002010BDBB
:1051600007490648FCF7E0F9204610BD0549034809
:10517000FCF7DAF9204610BDB0620200CC2E002008
:105180009C620200C062020090F8EA306BB110B578
:10519000D0F8D44090F8D8204CB190F8E8309B1A61
:1051A000B3FA83F35B09184610BD184670470349EC
:1051B0000348FCF7B9F92346F5E700BFD4620200C3
:1051C000CC2E0020F8B501EB410710EBC7062AD022
:1051D000D0F8D43015461A7DAA4204461DDD03EBF3
:1051E00085035E682EB30121154807F011F905EB20
:1051F000470504EB8504034600226068012100F0A6
:105200009BFE02210E4807F003F90022034602210B
:10521000606800F091FE0120F8BD0A490A48FCF7D9
:1052200083F90020F8BD09490748FCF77DF93046AD
:10523000F8BD07490448FCF777F93046F8BD00BFD0
:1052400008310020FC620200CC2E0020E86202003F
:105250001063020038B5044660B101EB410110EB68
:10526000C1050DD002EB420014EBC0040ED06A75EC
:10527000012038BD08490948FCF756F9204638BDD9
:1052800007490648FCF750F9284638BD0549034848
:10529000FCF74AF9204638BD24630200CC2E0020DA
:1052A000386302004C630200D0F8D4300BB11960AF
:1052B000704780F8D8300346C0F8D40019607047B2
:1052C000D0F8D41009B1087D704710B50246FFF739
:1052D000F9FE044628B905490548FCF725F920469A
:1052E00010BDD2F8D410087D10BD00BF606302006D
:1052F000CC2E0020D0F8D41070B5054631B30B7D0C
:10530000032B1DD81C2013F0C9FD044600F0FCFD42
:10531000D5F8D4301E1D2ED0197D39B153F8210097
:10532000F0B100F08BFED5F8D430197D03EB81028B
:10533000013154602046197500F0F4FD204670BD1F
:1053400012491348FCF7F0F8002070BDFFF7BAFED1
:10535000044668B90F490E48FCF7E6F8204670BDD0
:105360000D490B48FCF7E0F8D5F8D430197DDDE79E
:10537000D5F8D410C3E709490548FCF7D5F820460D
:105380001C2113F08FFD304670BD00BF7463020016
:10539000CC2E0020A8630200986302008463020000
:1053A0002DE9F043044685B01A4804F05BF80E215D
:1053B000194815F0BFF8194812F084FFD4F8DC0042
:1053C00008B300F075FED4F8D430D4F8DC0093F8BC
:1053D000009094F8D85094F8E46094F8E07000F0ED
:1053E000B5FD8046D4F8DC0000F0B2FDC0B20290FA
:1053F0004B468DE88001324629460948FDF7B8FE44
:1054000005B0BDE8F0830749054805B0BDE8F043A5
:10541000FCF78AB804670020B86302001871FF1F08
:10542000CC2E0020C863020070B5044633216F48BB
:1054300015F080F8D4F8DC0000F088FD00230A2283
:1054400001466B4812F04EFF01216A4815F072F8D0
:10545000D4F8DC0000F07CFD0146654812F082FFC4
:105460000921654815F066F800230A2294F8E01037
:105470005F4812F037FF1421604815F05BF8D4F84C
:10548000DC0000F0E1FD002301460A22584812F03A
:1054900029FF574812F016FFD4F8DC30002B00F03B
:1054A0009080D4F8D450002D00F08680184600F08B
:1054B000CDFD054678B31921514815F03BF8D4F8D5
:1054C000DC0000F0C1FD102106464E4815F032F810
:1054D000002331460A22464812F004FFD4F8D430A3
:1054E0001B7DB34224D92121474815F023F8D4F875
:1054F000D43084F8E06003EB86067068C4F8DC0002
:1055000000F09EFD2121414815F014F8384812F0B2
:10551000D9FE284670BDD4F8DC0000F0C5FD3D2161
:105520003B4815F007F8324812F0CCFE284670BD13
:105530001821384814F0FEFFD4F8D430D4F8E42011
:105540001B689A4224DB1021334814F0F3FFD4F88F
:10555000D4305E7DFF2E3AD006EB4606132104EBD5
:10556000C6062E4814F0E6FFC4F8D46015212C4876
:1055700014F0E0FFD4F8D430002284F8E02058681A
:10558000C4F8DC000123C4F8E43000F059FDB9E7A9
:105590001A21244814F0CEFF002384F8E030D4F818
:1055A000D420D4F8E4305068C4F8DC000133C4F8E7
:1055B000E43000F045FDA5E71B491C48FBF7B4FFAC
:1055C000B4E71B4919481D46FBF7AEFFAEE70021C3
:1055D000184814F0AFFF064812F074FE1321164865
:1055E00014F0A8FF236E98478CE700BFDC6302002D
:1055F0001871FF1F1064020014640200206402008E
:10560000606402007C640200906402004065020055
:1056100064650200B4640200EC64020000650200EC
:1056200014650200D06402004C640200CC2E0020FD
:1056300038640200945602002C6502002DE9F04304
:10564000D0F8D430044685B0D0F8DC0093F8009050
:1056500094F8D86094F8E47094F8E08000F076FC58
:105660000546D4F8DC0000F073FCC0B202904B4653
:10567000CDF800803A46314601950348FDF778FDA4
:1056800005B0BDE8F08300BFCC2E002010B514217A
:105690000446094814F04EFF084812F013FED4F8EF
:1056A000DC0018B1BDE8104000F002BD0449054817
:1056B000BDE81040FBF738BFA46502001871FF1F5A
:1056C000BC650200CC2E002003460022C3F8D400A3
:1056D00080F8D82048B1406883F8E0200122C3F860
:1056E000DC00C3F8E42000F0ABBC02490248FBF741
:1056F0001BBF00BFD0650200CC2E002070B5504EFD
:10570000504D0166044600F1150132602B60753082
:10571000FF2200230A7001F8013C41F8153C1831C2
:105720008142F7D12046FFF7E5FD054690B1002301
:105730001A46012100F000FC00231A4602212846E7
:1057400000F0FAFB0121284600F06EFC28460221F9
:1057500000F048FC2046FFF7CDFD054690B1012240
:105760001146002300F0E8FB002301220221284615
:1057700000F0E2FB0121284600F056FC28460221F9
:1057800000F030FC2046FFF7B5FD054690B1002340
:105790000222012100F0D0FB0222114600232846FC
:1057A00000F0CAFB0121284600F03EFC28460221F9
:1057B00000F018FC01212046FFF776FD01220021B0
:1057C0002046FFF747FD01212046FFF77BFC022121
:1057D0002046FFF769FD2046FFF78CFD054690B196
:1057E00000230322012100F0A7FB00230322022152
:1057F000284600F0A1FB0121284600F015FC2846B0
:10580000022100F0EFFB2046FFF774FD054690B142
:1058100000230422012100F08FFB00230422022137
:10582000284600F089FB0121284600F0FDFB2846B0
:10583000022100F0D7FB2046BDE87040FFF744BFCF
:10584000C47CFF1FC07CFF1F30B5436E00EB83029A
:105850008DB0D46F132B0BD8DFE803F056677E10A2
:105860000A0A170A0A0A0A0A0A0A10363C424D298D
:1058700021464848FBF7C4FF0DB030BD464A4548B5
:105880002146FDF72FFD0DB030BD90F8EA30002B1A
:1058900071D190F8E0300133404A032102A81AF098
:1058A0004DF902A81AF0ECFB02AA03464EE0D0F82C
:1058B000DC0000F05BFB431C24D0421C2146354831
:1058C000FDF79CFC0DB030BDD0F8DC0000F042FBD1
:1058D0000246F3E7D0F8DC0000F03AFB0246EDE7C1
:1058E000D0F8DC0000F03EFB042850D8DFE800F0E0
:1058F0000A4D4B494700D0F8DC0000F035FB411C55
:105900000246DBD1264ABAE790F8D83003EB4302CF
:1059100000EBC2000133027D03AD22BB214A2846C1
:105920000E211AF00BF92A46A9E790F8E01090F83A
:10593000D8301D4A01310133009107A80C211AF01B
:10594000FDF807A81AF09CFB07AA03462146114858
:10595000FDF704FD0DB030BD90F8D83003EB4303E4
:1059600050F83320AAE700922846104A0E211AF078
:10597000E5F82A4683E790F8E93001338CE70C4AD2
:105980007DE70C4A7BE70C4A79E70C4A77E70C4A3B
:1059900075E700BFCC2E002034660200646602006A
:1059A000106602003C66020058660200486602006B
:1059B0002C660200246602001C66020014660200C7
:1059C0008056020010B517210446084814F0B2FDB5
:1059D000074812F077FC00220123626684F86D30DC
:1059E0002046BDE81040FFF72FBF00BF68660200E9
:1059F0001871FF1F436E10B5132B52D8DFE803F068
:105A0000410A0E5151510A515151515151515116A2
:105A10001D232A4590F8E040204610BD90F8D8306C
:105A200003EB430350F83340204610BDD0F8DC00B0
:105A300000F090FA0446204610BDD0F8DC00BDE826
:105A4000104000F085BAD0F8DC0000F08BFA044674
:105A5000204610BDD0F8DC0000F086FAB0F1FF3F20
:105A600014BF044611241048132114F063FD21468D
:105A70000E4812F077FC01210D4814F05BFD204622
:105A800010BD90F8D840204610BDD0F8DC0000F0E2
:105A90006DFA1121B0F1FF3F14BF044610240548F0
:105AA000E3E70024B8E700BF806602001871FF1F1B
:105AB0001C5702009466020010B5B1F57A7F82B0DF
:105AC00008D1026F012A0DD00122026780F86D20F3
:105AD00002B010BD074A416712680192019A8267BD
