:1000000000000320D1010000997E0100517E010013
:10001000517E0100517E0100517E0100517E0100A0
:10002000517E0100517E0100517E0100997E010048
:10003000997E0100517E0100A1990100A59A01005D
:10004000997E0100997E0100997E0100997E010050
:10005000997E0100997E0100997E0100997E010040
:10006000997E0100997E0100997E0100997E010030
:10007000997E0100997E0100997E0100997E010020
:10008000997E0100997E0100997E0100997E010010
:10009000997E0100997E0100997E0100997E010000
:1000A0009D270100A9270100997E0100997E01008A
:1000B000997E0100997E0100997E0100ED9A010070
:1000C000997E0100199C0100997E0100459D010067
:1000D000997E01003D9E0100997E0100997E0100FC
:1000E000997E0100997E0100997E0100997E0100B0
:1000F000997E0100997E0100997E0100997E0100A0
:10010000997E0100997E0100997E0100997E01008F
:10011000997E0100A1880100997E0100997E01006D
:10012000997E0100997E0100997E0100997E01006F
:10013000997E0100997E0100997E0100997E01005F
:1001400089710100997E0100359F0100997E0100AF
:10015000997E0100997E0100997E0100997E01003F
:10016000997E0100997E0100B5270100997E01006A
:10017000997E0100997E0100997E0100997E01001F
:10018000997E0100997E0100997E0100997E01000F
:10019000997E0100997E01002DA00100997E010049
:1001A000997E0100997E0100997E0100997E0100EF
:1001B000997E0100997E0100997E0100997E0100DF
:1001C000997E0100997E0100997E0100997E0100CF
:1001D0005C4B4CF2205210B51A804DF628121A8052
:1001E00000BF00BF17F05CFE574B4FF030621A6043
:1001F000564A9A60564ADA60564B4FF470021A60BB
:10020000554B564A1A60564B1A78110703D51A787F
:1002100042F008021A70534B5349AA221A70534AEB
:10022000534B8B4204D252F8040F43F8040BF8E707
:10023000504B514900228B4202D243F8042BFAE77B
:100240004E494F4A002352F8230041F8230001335E
:10025000742BF8D14B4B4C4A802103F8011B93427D
:10026000FBD14A4B454A1A60494B8A221A70A3F5C2
:10027000805324225A70A0221A709A799207FCD5D2
:100280009A79D406FCD4434A937903F00C03082BE3
:10029000FAD1414B60221A7002331A78802AFCD1BD
:1002A0003C4B01221A715D225A719A799006FCD555
:1002B0009979384A4906FBD5384B394919600021EC
:1002C000596020231370937903F00C030C2BFAD19F
:1002D000344B354A1A60354A354C136813F4807331
:1002E00003D123604FF4A8531360324B324A1A6093
:1002F00000225A60072243F8042C304AC3F80C2D20
:1003000062B618F03DF92368DA0705D52C4818F0D5
:100310006FF82C4B2C4A1A602C4B1B785B0609D5C6
:10032000284C294B22689A4204D1254818F060F8DD
:10033000002323601DF066FE17F0B8FD17F0E6FC01
:10034000FEE700BF0E20054030800440823F0400DD
:100350000100002B88ED00E0002008E0030000858C
:1003600002D0074000E00740C07BFF1FA0920200C0
:10037000306FFF1FC07BFF1FB4980020006AFF1F73
:100380000000000000E400E064E400E008ED00E0AC
:10039000005006400040064001E007404480044011
:1003A0000000060204800440C010070010D0034083
:1003B00014D0034014E000E01FBF02000000202022
:1003C00084EAA95E1CE00340A5C3945A00F00740EC
:1003D000FFFFFFFFFFFFFFFFFFFFFFFFFFFFFFFF2D
:1003E000FFFFFFFFFFFFFFFFFFFFFFFFFFFFFFFF1D
:1003F000FFFFFFFFFFFFFFFFFFFFFFFFFFFFFFFF0D
:10040000FFFFFFFFFFFFFFFFFFFFFFFFDEF9FFFF23
:1004100010B5054C237833B9044B13B10448AFF33E
:1004200000800123237010BDC07BFF1F000000006F
:100430009C920200084B10B51BB108490848AFF365
:1004400000800848036803B910BD074B002BFBD0A0
:10045000BDE81040184700BF00000000C47BFF1F2C
:100460009C920200C07BFF1F0000000010B52422F8
:10047000044600211EF066F9002384F8243084F835
:100480002530204610BD00BFF8B5074690F824007F
:100490000D461646E0B13A46002404E00134844299
:1004A00002F1030212D01178A942F7D19178994252
:1004B000F4D104EB44043C446670A370062D5ED86E
:1004C000DFE805F031161D242B1031000A2C2BDC3F
:1004D00000EB40017A18013087F824007D545670F3
:1004E0009370EBE72E492F48BDE8F84001F070B853
:1004F00032462D492B48BDE8F84001F0B3BE3246E4
:100500002A492848BDE8F84001F0ACBE32462849E7
:100510002448BDE8F84001F0A5BE26492148BDE8C1
:10052000F84001F055B8F8BD23491E4800F0F6FE2A
:100530000421224819F05EF82146214816F074FF84
:100540001721204819F056F800230A2297F82410A2
:100550001B4816F029FF10211B4819F04BF80C21FD
:10056000174816F061FF0B21184819F043F8294687
:10057000134816F059FF124816F006FF9EE714497B
:10058000084800F0CBFE1521124819F033F829462F
:100590000B4816F049FF0A48BDE8F84016F0F4BED3
:1005A000E44502004C2E0020A4450200B4450200A0
:1005B000C0450200D04502005045020064450200DB
:1005C0001871FF1F6C450200844502009845020027
:1005D000F44502000846020038B590F825300B2B90
:1005E000044627D91F49204800F098FE17211F48CC
:1005F00019F000F800230A2294F825101C4816F080
:10060000D3FE17211B4818F0F5FF00230A2294F8A7
:100610002410174816F0C8FE1021174818F0EAFFFA
:100620000C21134816F000FF0025114816F0ACFE0F
:10063000284638BD03EB430317210C48E55C18F04E
:10064000D9FF00230A2294F82510094816F0ACFEC1
:100650000B210A4818F0CEFF2946054816F0E4FEA3
:10066000284638BD384602004C2E002020460200A5
:100670001871FF1F6C450200844502009845020076
:1006800090F825300B2B04D803EB43031844407833
:10069000704710B513490446134800F03FFE172178
:1006A000124818F0A7FF00230A2294F825101048DA
:1006B00016F07AFE17210F4818F09CFF00230A223B
:1006C00094F824100A4816F06FFE10210A4818F01A
:1006D00091FF0C21064816F0A7FE054816F054FEBF
:1006E000002010BD4C4602004C2E00202046020087
:1006F0001871FF1F6C4502008445020090F82530F8
:100700000B2B04D803EB430318448078704710B5D3
:1007100013490446134800F001FE1721124818F04F
:1007200069FF00230A2294F82510104816F03CFEB9
:1007300017210F4818F05EFF00230A2294F82410B6
:100740000A4816F031FE10210A4818F053FF0C2118
:10075000064816F069FE054816F016FE002010BD8A
:10076000604602004C2E0020204602001871FF1F38
:100770006C4502008445020090F825300133DBB25D
:100780000B2B80F825308CBF00200120704700BF64
:10079000002380F8253070470022134680F824207B
:1007A00080F82520C2540333242BFBD1704700BFAF
:1007B000FFF7F2BF70B5044615460E460846022103
:1007C00017F03CFE2846022117F038FE104A114B64
:1007D00052F83610012001F500762072266052F89A
:1007E0003520607202F5007500206560E060013B15
:1007F000FDD191F8003292F8002203F00103D207F4
:1008000044BF43F00203DBB2A372204670BD00BFB9
:1008100068870200C0D4010090F810322DE9F0473B
:100820000746002B7CD1DFF80C82794AD8F800000B
:10083000D468784D784E92F809E092E80A0091F871
:10084000009093F800C0117A714B1CEA0E0F09EA70
:1008500001015DD09B7A03F0030309B143F0040367
:1008600043F008039910013B91720D2B0AD8DFE881
:1008700003F075077207096F75756F0907720775C1
:10088000013CD460A04219D0DFF89891DFF890A124
:10089000D9F80030002C2246B8BFE21C92109A42D0
:1008A000CAF8002008D04FF47A715C480DF092FE2F
:1008B000DAF80030C9F80030C8F800402B686968E1
:1008C0001A78687A0C782B7A5249044202EA0302B9
:1008D00016D08B7A03F003030AB143F0040343F00C
:1008E00008039A10013BAA720D2B00F28180DFE809
:1008F00003F07B7766777F387B7B387F7766777B03
:100900008B7A03F00303002AEBD043F00403E8E7FB
:100910009B7A03F003030029A4D043F00403A1E76A
:100920003F4E404C40484149394ADFF80881394D33
:1009300000233360384E2360036087F810321C4672
:100940000B601846D360C8F80030EB60336072E784
:10095000023CD46096E70234D46093E70134D4605B
:1009600090E7EC68023CEC6007F5AC7016F06EFAAC
:100970002F4B00282DD11A68042A3BDC3268A41AB8
:1009800004EB840402EB44049442EC6026D01A6821
:10099000264D254F0132002C1A6022462B68B8BF25
:1009A000E21C92109A423A6006D040F2E9311B48AC
:1009B0000DF010FE3B682B603460BDE8F087EC68FA
:1009C0000234EC6007F5AC7016F040FA184B0028C2
:1009D000D1D03268002194421960D8D1BDE8F087A7
:1009E000EC68013CEC60BFE7EC680134EC60BBE70D
:1009F000EC68B9E7092A326805DCA41A04EB840420
:100A000002EB8404C0E76421A41A01FB0424BBE7C1
:100A10000C7CFF1F587CFF1F807CFF1F2C67002071
:100A2000447CFF1F4C7CFF1F487CFF1F507CFF1F36
:100A3000DC7BFF1F787CFF1F2DE9F84F00238346E6
:100A40001D460E4680F87031994600F5D47A00F1C3
:100A50007C081024012706E08BF870710135013401
:100A6000102DE4B216D05AF8043F002BF6D0B34252
:100A7000F2D8DBF80C32CAF800905B5D21464046A4
:100A800053B9013512F05CFA0134102D8BF87171F5
:100A9000E4B2E8D1BDE8F88F12F012FA0028DDD1F7
:100AA0002146404612F02EFA8BF87171D6E700BF4E
:100AB00038B5144C0C40002C1FDB031993F89C51E3
:100AC0006DB9012283F89C21C9B27C3012F01AFA68
:100AD0002A4621460C48BDE838400BF02DB90022CB
:100AE00083F89C21C9B27C3012F02AFA21460122F7
:100AF0000548BDE838400BF01FB9013C64F00F0415
:100B00000134DAE70F0000808430002038B5144C3F
:100B10000C40002C1FDB031993F89C216AB90125B6
:100B2000C9B27C3083F89C5112F0ECF92A46214678
:100B30000C48BDE838400BF013B90025C9B27C3031
:100B400083F89C5112F0FCF92A4621460548BDE87D
:100B500038400BF005B9013C64F00F040134DAE7CA
:100B60000F0000808430002038B5144C0C40002C5D
:100B70001FDB031993F89C216AB90125C9B27C30A7
:100B800083F89C5112F0BEF92A4621460C48BDE874
:100B900038400BF085BA0025C9B27C3083F89C51EF
:100BA00012F0CEF92A4621460548BDE838400BF040
:100BB00077BA013C64F00F040134DAE70F000080DB
:100BC00084300020154B0B40002B10B504461FDB72
:100BD000234493F87C216AB9012283F87C21C9B2AD
:100BE00004F17C0012F08EF9012384F8113284F8AC
:100BF000103210BD002283F87C21C9B204F17C00C0
:100C000012F09EF9012384F8113284F8103210BDDD
:100C1000013B63F00F030133DAE700BF0F000080F0
:100C20002DE9F84380460F4600F17C0600F29B1543
:100C300010244FF0000903E00134E4B2202C0DD061
:100C400015F8013F002BF7D0214601343046E4B2BD
:100C500012F076F9202C85F80090F1D1094B3B4039
:100C6000002B09DB43440122F9B2304683F89C2172
:100C7000BDE8F84312F046B9013B63F00F030133BE
:100C8000F0E700BF0F000080F8B507464D1E00F1E9
:100C90007C06102405E00134E4B212F033F9202C74
:100CA0000DD015F8013F21463046002BF3D12146E7
:100CB00001343046E4B212F043F9202CF1D1012383
:100CC00087F87131F8BD00BF38B500F5CE75044620
:100CD000C0F80C5200F29B13002200F2AB1003F894
:100CE000012F8342FBD106480AF00EFE2318012291
:100CF0002946204683F89B21BDE83840FFF7C4BF52
:100D00008430002038B505460C480AF0AFFE05F5E2
:100D1000CE71C5F80C1205F29B1305F2AB1400223C
:100D200003F8012FA342FBD12B180122284683F898
:100D30009C21BDE83840FFF7A7BF00BF84300020EA
:100D400038B505460C480BF09FFC05F5CE71C5F88B
:100D50000C1205F29B1305F2AB14002203F8012FCD
:100D6000A342FBD12B180122284683F89C21BDE821
:100D70003840FFF789BF00BF2C67002038B500F569
:100D8000CE750446C0F80C5200F29B1300F2AB1172
:100D9000002203F8012F8B42FBD129460448102280
:100DA0000AF046FC29462046BDE83840FFF76CBFF4
:100DB000843000209C4B1A680D2A70B504460CD86C
:100DC0000123934041F2B6321A40002A52D113F463
:100DD000005540F097805B056DD404F5A875284652
:100DE00015F0FCFFC0B904F5AC75284615F0F6FF08
:100DF00008BB04F5B075284615F0F0FF50BB04F5AC
:100E0000B474204615F0EAFF00B970BD204616F014
:100E10002BF8002872D170BD284616F025F800285E
:100E2000E1D0824B002204F5AC75DA60284615F05B
:100E3000D5FF0028DDD0284616F016F80028D8D0B7
:100E40007B4B002204F5B075DA60284615F0C6FF2A
:100E50000028D4D0284616F007F80028CFD0754BCC
:100E6000002204F5B474DA60204615F0B7FF0028BC
:100E7000CBD0CBE700F5A875284615F0AFFF0028CA
:100E800062D104F5AC75284615F0A8FF002864D19E
:100E900004F5B075284615F0A1FF002866D104F5C9
:100EA000B474204615F09AFF0028AED0204615F005
:100EB000DBFF18BB70BD00F5A876304615F08EFF3D
:100EC000002840F0998004F5AC75284615F086FF9F
:100ED000002840F08D8004F5B075284615F07EFF9F
:100EE00000287BD104F5B474204615F077FF002864
:100EF0008BD0204615F0B8FF00B970BD4E4B0022D4
:100F0000DA6070BD00F5A875284615F067FF002867
:100F100047D104F5AC75284615F060FF002837D19D
:100F200004F5B075284615F059FF40BB04F5B474BC
:100F3000204615F053FF00283FF467AF204615F018
:100F400093FF0028DAD170BD284615F08DFF0028E8
:100F500097D03A480AF040FC93E7284615F084FF02
:100F6000002895D0324B0022DA6091E7284615F030
:100F70007BFF002893D02F4B0022DA608FE72846B2
:100F800015F072FF0028D1D02A4B0022DA60CDE79D
:100F9000284615F069FF0028C2D0254B0022DA60F0
:100FA000BEE7284615F060FF0028B2D023480AF0BB
:100FB00013FC421E54FA82F292F89C3183F0010332
:100FC00082F89C3143B300F10F01C9B204F17C00F7
:100FD00011F098FF012384F871319AE7284615F043
:100FE00043FF00283FF47EAF124B0022DA6079E71E
:100FF000284615F039FF6EE7304615F035FF00281A
:101000003FF461AF094A636AD560002B3FF45BAFE0
:101010004FF47A70984756E700F10F01C9B204F116
:101020007C0011F08DFFD5E7BC6FFF1F0C7CFF1F0C
:10103000587CFF1F207CFF1F307CFF1F8430002066
:10104000A1F57A71032906D8DFE801F00E0A06023D
:10105000074B0022DA607047064B0022DA607047C7
:10106000054B0022DA607047044B0022DA607047BB
:10107000307CFF1F207CFF1F587CFF1F0C7CFF1F54
:1010800070B500F584750446284615F0A7FE00B932
:1010900070BD284615F0E8FE0028F9D0A36ABDE827
:1010A0007040184708B590F8A00016F0B1FD084A46
:1010B0001368C0F58040A3F16401884202DB643309
:1010C000984201DD106008BD4FF0FF3008BD00BF41
:1010D0006C7CFF1F08B590F8A40016F099FD074A34
:1010E0001368A3F16401884202DB6433984201DD96
:1010F000106008BD4FF0FF3008BD00BF547CFF1FDB
:1011000030B500F5887483B00546204615F066FEBC
:1011100030B9204615F09EFE80B9002003B030BDE6
:10112000204615F0A1FE0028F3D00A4B1B6801935E
:10113000019BC5F8AC30012003B030BD95F82032DA
:101140000020042BC5F8AC00E7D185F82002A5F8F3
:101150002202E3E74C940020054B82B01B68019308
:10116000019B03F5FA63C0F8243202B0704700BF58
:101170004C940020054B82B01B680193019B03F542
:10118000FA63C0F8283202B0704700BF4C940020C8
:10119000F0B5B1B007462849284E6846144616F007
:1011A000DDFA274904A816F0D9FA264908A816F04E
:1011B000D5FA25490CA816F0D1FA244910A816F042
:1011C000CDFA234914A816F0C9FA224918A816F036
:1011D000C5FA21491CA816F0C1FA204920A816F02A
:1011E000BDFA1F4924A816F0B9FA1E4928A816F01E
:1011F000B5FA1D492CA816F0B1FA86FB0426E317B0
:10120000C3EB660606EB4601A4EB8101C9B20DEB08
:101210000111384616F0B6FAF1B2384616F046FB20
:101220006D4630AC103C204616F058FAAC42F9D16D
:10123000384631B0F0BD00BFA4460200ABAAAA2ACE
:10124000A8460200F4470200AC4602000446020031
:1012500074490200B0460200984A0200B4460200F7
:10126000B8460200BC460200C0460200F0B5144D6C
:10127000DFF854E00E4617460FCD8FB002AC0FC416
:101280000FCD0FC495E80F008EFB065EF517C5EB7A
:101290006E0584E80F0005EB450EA6EB8E060EAB3F
:1012A000F6B203EB8606EDB256F8303C054A0095DF
:1012B000384604211DF0A2FC38460FB0F0BD00BF37
:1012C00074460200C4460200ABAAAA2A10B5012245
:1012D00000210D48FFF76EFA032202210B48FFF7A9
:1012E00069FA052204210A48FFF764FA0822062158
:1012F0000848FFF75FFA2123232222210648BDE890
:10130000104011F05FBA00BF0C7CFF1F587CFF1F1C
:10131000207CFF1F307CFF1F887CFF1F10B586B02C
:101320000B460A4C0A4A684615211DF067FC00224C
:101330001146204611F072FB68461DF001FF694618
:101340000246204615F0E4FF06B010BD887CFF1F62
:10135000CC46020070B5324D044632480AF0E4FA39
:101360002B68052B064645D0072B2AD0042B10D01E
:1013700020462D49FFF7D2FF06212C4818F03AF9F4
:1013800029682B4816F050F82948BDE8704015F040
:10139000FBBF68B104F29B140025294621480AF0DE
:1013A0000BFB013580F00100B54204F8010FF4D1C8
:1013B0000921204818F01EF91D48BDE8704015F0BD
:1013C000E3BF70B104F29B140025294615480AF0CA
:1013D00017FB0135003018BF0120B54204F8010F9A
:1013E000F3D10B21144818F005F91148BDE87040FD
:1013F00015F0CABF58B104F29B14002529460948CC
:101400000AF0ECFA0135B54204F8010FF6D10921D2
:101410000A4818F0EFF80648BDE8704015F0B4BF70
:10142000BC6FFF1F843000200447020034470200D5
:101430001871FF1FF8460200E0460200EC46020069
:1014400010B588B00B4600920A4C0B4A02A8152131
:101450001DF0D4FB00221146204611F0DFFA02A84D
:101460001DF06EFE02A90246204615F051FF08B09D
:1014700010BD00BF887CFF1F3C47020030B5D0F88C
:1014800014120C4C0C4A87B00546013168461DF019
:10149000B5FB0021C5F824122046022211F0BEFA45
:1014A00068461DF04DFE69460246204615F030FFA5
:1014B00007B030BD887CFF1F5047020030B5D0F820
:1014C00018120C4C0C4A87B00546013168461DF0D5
:1014D00095FB0021C5F828122046012211F09EFA42
:1014E00068461DF02DFE69460246204615F010FFA5
:1014F00007B030BD887CFF1F5047020010B5D0F800
:10150000243282B004462BB10E4A12680092009A2F
:10151000934210D3D4F828325BB10A4A1268019280
:10152000019A934205D22046FFF7C8FF0023C4F872
:10153000283202B010BDFFF7A1FF0023C4F8243207
:10154000E8E700BF4C94002070B50E4C05460E46EF
:1015500020460122002111F061FA13220A49204697
:1015600015F0D6FE20460222002111F057FA31462E
:10157000204615F0E3FE1323C5F81432C5F81832DF
:1015800070BD00BF887CFF1F6847020010B586B0A1
:101590000B460D4A0D4C152168461DF02FFB684681
:1015A0001DF0CEFDC0F11001C9B22046002211F09D
:1015B00035FA68461DF0C4FD69460246204615F01E
:1015C000A7FE06B010BD00BF7C470200887CFF1F4D
:1015D00070B5114D0C460646FFF750FF2846022213
:1015E000002111F01BFA20461DF0AAFD21460246FB
:1015F000284615F08DFE20461DF0A2FDC6F8140207
:1016000020461DF09DFD0146204617F0F3FF0348DC
:10161000BDE8704015F0B8BE887CFF1F1871FF1F31
:101620002DE9F04F2DED028B91B000F5BE710390C6
:101630007C4809F0A9FF002840F09180039B0290AC
:10164000FF2706468046814601900446BB463D463C
:10165000009703F27B1AB7EE008A02E00134102CE7
:101660004FD01AF8012F002AF8D0224608A86D4959
:1016700009F08CFD9DF824200098824208D0019941
:101680000131CBB290420193034628BF1346009329
:10169000DDED0D7AF4EE487AF1EE10FA03D0029AFD
:1016A0000132D3B20293F4EEC87AF1EE10FA214679
:1016B0005C48D8BFB0EE678A0AF05AF9A84207D052
:1016C000854209F1010928BF05465FFA89F9EDB2A3
:1016D0009DF839205A4506D008F1010893455FFA74
:1016E00088F828BF93469DF83820BA42B6D0974272
:1016F00004F1010406F1010628BF1746102CF6B2CA
:10170000AFD101220021484811F088F9122247493F
:10171000454815F0FDFD294604A816F051F8B9F129
:10172000010F25D9424920E0424904A816F0B0F83B
:10173000069B112BF8D9022200213B4811F06EF9CB
:1017400004A9394815F0FAFD039C102312220DEB71
:101750000300C4F81422C4F8183215F0BFFF11B00A
:10176000BDEC028BBDE8F08F324904A816F090F86A
:10177000069B022BF8D9594608A816F021F808A9AB
:1017800004A816F081F808A815F0A8FFB8F1010F19
:1017900005D9274900E0274904A816F079F8069BE7
:1017A000052BF8D9394608A816F00AF808A904A8A4
:1017B00016F06AF808A815F091FF012E05D91C490A
:1017C00000E01C4904A816F063F8069B082BF8D922
:1017D000009A039908A8FFF7DBFC08A904A816F0F3
:1017E00053F808A815F07AFF019B012B05D9104981
:1017F00000E0104904A816F04BF8069B0C2BF8D912
:10180000B0EE480A022108A815F0EEFF08A904A8C6
:1018100016F03AF808A815F061FF029B012B87D952
:10182000034982E784300020887CFF1F9447020030
:10183000A8470200EC47020010B502220C460B48F4
:10184000122111F0EBF80A490848022215F060FD58
:10185000082CD4BF132112210448022211F0DEF813
:1018600021460248BDE8104015F0DEBD887CFF1F10
:10187000DC46020038B504460E4809F0A5FC04F524
:10188000CE710546C4F80C1204F29B1304F2AB109F
:10189000002203F8012F8342FBD163190122204665
:1018A00083F89C21FFF7F0F929462046BDE838402F
:1018B000FFF7C2BF8430002010B503220C460B484E
:1018C000122111F0ABF80A490848022215F020FD58
:1018D000082C94BF132112210448032211F09EF812
:1018E000611C0248BDE8104015F09EBD887CFF1FBA
:1018F000DC46020030B5204B1B7883B004460D4611
:101900001BB91E4B1B68092B12D01D48646B09F0D4
:1019100069FC1C4929400029024604DBC9B20220A7
:10192000A04703B030BD013961F00F010131F5E787
:10193000FFF776F913492940002918DBCDB2294673
:101940000F4809F067FC0E4809F030FC01462046BC
:10195000FFF73EFE0C4B1B680193019B03F5FA63F6
:101960002946C4F824322046FFF7A6FFD9E70139FB
:1019700061F00F010131E1E77D660020BC6FFF1FC0
:10198000843000200F0000804C94002010B502220B
:101990000C460D480F2111F041F80C490A4802226B
:1019A00015F0B6FC092C4FF0020294BF10210F2154
:1019B000054811F033F8214600230A220248BDE809
:1019C000104015F0F1BC00BF887CFF1FDC46020010
:1019D00038B504460E4809F005FC04F5CE710546FD
:1019E000C4F80C1204F29B1304F2AB10002203F8AB
:1019F000012F8342FBD163190122204683F89B21EA
:101A0000FFF742F929462046BDE83840FFF7BEBF40
:101A10008430002038B5554D2B68013B04460C2B13
:101A200000F29980DFE803F05F6B6D07071A072665
:101A3000313C4A8C8100002300F5CE75026A436276
:101A4000012380F82D32C0F80C528262FFF782FC2D
:101A500029462046BDE83840FFF716B9036A83627D
:101A6000002200F5BE714262C0F80C12BDE8384099
:101A7000FFF70AB98368026A4362012380F82D32B6
:101A80008262BDE83840FFF71FB90023026A436253
:101A9000012380F82D328262BDE83840FFF732B969
:101AA000C36A026A4362012380F82D328262FFF723
:101AB00047F92F48BDE838400BF062BC036A8362E7
:101AC00000F5CE7100224262C0F80C1200F29B13A6
:101AD00000F2AB1003F8012F8342FBD12046BDE892
:101AE0003840FFF7D1B8C368226A63620123A2625B
:101AF00084F82D322046BDE83840FFF7BBBE0369AD
:101B0000F2E7006AA0620123002204F5CE7184F896
:101B10002D326262C4F80C1204F29B1304F2AB1073
:101B200003F8012F8342FBD1D8E70023026A436206
:101B3000012380F82D328262BDE83840FFF71EB9DC
:101B4000036B026A4362012380F82D328262BDE892
:101B50003840FFF73DBF2921064817F04BFD2968A3
:101B60000548BDE8384015F05FBC00BFBC6FFF1FE3
:101B70002C670020AC4702001871FF1F134A144B5A
:101B8000126870B553F82250124C86B006462846AB
:101B90001DF0D6FAD6F81C120F4AC6F81C02814274
:101BA000B8BF01462B46013168461DF027F8204694
:101BB0000122002110F032FF68461DF0C1FA69468B
:101BC0000246204615F0A4FB06B070BDBC6FFF1F97
:101BD0007C6FFF1F887CFF1FD847020070B500F59F
:101BE000907586B00446284615F0F8F8002840F0B5
:101BF0002581284615F02EF9002840F0E88004F5EC
:101C00009875284615F0EAF8002840F0F380284639
:101C100015F020F9002840F0A38004F594752846BB
:101C200015F0DCF8002840F0AE80284615F012F9D7
:101C3000002870D104F59C75284615F0CFF80028CF
:101C400073D1284615F006F900283FD104F5A07598
:101C5000284615F0C3F8002842D1284615F0FAF8B6
:101C600070B904F5A475284615F0B8F890B928465F
:101C700015F0F0F810B10023C4F8C83006B070BDFC
:101C8000002304F5A475C4F8C430284615F0A6F85E
:101C90000028ECD0284615F0E7F80028E7D02046C9
:101CA000FFF7ECFB964B092220461A60FFF7B2FEC5
:101CB0002046FFF763FF934B1B680593059BC4F811
:101CC000C830012384F8103206B070BD002304F53B
:101CD000A075C4F8C030284615F080F80028BCD0A4
:101CE000284615F0C1F80028B7D02046FFF7C6FBFC
:101CF000834B082220461A60FFF78CFE2046FFF730
:101D00003DFF804B1B680493049BC4F8C43001233F
:101D100084F81032A5E7002304F59C75C4F8B830A8
:101D2000284615F05BF800288BD0284615F09CF863
:101D3000002886D02046FFF7A1FB714B07222046E2
:101D40001A60FFF767FE2046FFF718FF6D4B1B6810
:101D50000393039BC4F8C030012384F8103275E765
:101D600094F820220023032A04F5947504BF84F814
:101D70002032A4F82232C4F8BC30284615F02EF8E0
:101D800000283FF452AF284615F06EF800283FF4C3
:101D90004CAF2046FFF772FB594B1A68052A00F03A
:101DA0008C80042A00F09480574A12681A602046FA
:101DB000FFF730FE2046FFF7E1FE524B1B6802930F
:101DC000029BC4F8B830012384F8103232E794F84B
:101DD00020220023022A04F5987504BF84F82032DB
:101DE000A4F82232C4F8B430284614F0F7FF0028D3
:101DF0003FF40DAF284615F037F800283FF407AF41
:101E00002046FFF73BFB3E4A1368062B50D00C2BB5
:101E100058D00D2B42D03D4B1B6813602046FFF776
:101E2000F9FD2046FFF7AAFE364B1B680193019B84
:101E3000C4F8BC30012384F81032EEE6284615F0D1
:101E400013F800283FF4D5AE2046FFF717FB2C4AC5
:101E50001368012B27D0022B3FD0032B14D00A2B61
:101E600045D02B4B1B6813602046FFF7D3FD20465F
:101E7000FFF784FE234B1B680093009BC4F8B4302B
:101E8000012384F81032BAE6214D224901264FF091
:101E9000FF300A232E6008601360E5E71B49062324
:101EA0000B601360BAE71A48022103601160DBE798
:101EB00016480C2103601160B0E7134904220A6040
:101EC0001A6074E7114906200D2308601360A5E726
:101ED0000D4905220A601A6069E70D4D0D4901267A
:101EE0004FF0FF3003232E6008601360BCE7084DFD
:101EF000084901234FF0FF302B6013600860B3E7FF
:101F0000BC6FFF1F4C940020386FFF1F346FFF1F02
:101F10003C6FFF1FB86FFF1F70B5044616480E4692
:101F200009F060F906F00F030133984206D004F57A
:101F3000CE712046BDE87040FEF7A6BE054631468C
:101F40002046FEF76DFE29462046FFF71FFD0A4892
:101F500009F08CFD01462046FFF7AEFC074B062238
:101F600020461A60FFF756FD2046FFF707FE0123C3
:101F700084F8103270BD00BF84300020BC6FFF1F9A
:101F800010B500220C461248112110F047FD032223
:101F900010490F4815F0BCF9632C4FF000020CDC1F
:101FA000092CCCBF12211321094810F037FD21461E
:101FB0000748BDE8104015F037BA1121044810F069
:101FC0002DFD21460248BDE8104015F02DBA00BF96
:101FD000887CFF1F8C47020010B501220C46124876
:101FE000112110F01BFD032210490F4815F090F944
:101FF000092C4FF001020CDD632CD4BF12211121FA
:10200000094810F00BFD21460748BDE8104015F0C7
:102010000BBA1321044810F001FD21460248BDE827
:10202000104015F001BA00BF887CFF1F8C470200EA
:10203000F0B587B005460C9F0D9E0E9C0F98296049
:102040006A601399149AAB60EF60109B119F2E6128
:10205000129E29636A63EB616C61A8612F62EE6274
:1020600005F1A40305F1CC01002243F8042F9942A5
:10207000FBD105F27B1205F28B13002102F8011F40
:102080009A42FBD105F29B11002203F8012F9942DD
:10209000FBD105F5D47305F5F471002243F8042F44
:1020A0009942FBD105F2EB1305F20B21002203F854
:1020B000012F9942FBD1762475217422732305F1F7
:1020C0007C06772703940291019200933046722395
:1020D00004977122702111F02BF8AB6B002BC8BF55
:1020E000002420DD2146304610F00CFF304611F070
:1020F00079F80A2016F0F2F90134AB6BE4B29C4295
:10210000F0DB002B0FDD00242146304610F018FFD5
:10211000304611F067F80A2016F0E0F90134AB6B95
:10212000E4B29C42F0DB142016F0D8F92846FFF701
:1021300071FC2846FFF722FD0F480EF0A7F9014673
:102140002846FFF71DFF0C480EF0A2F9014628466D
:10215000FFF742FF094809F089FC01462846FFF7CE
:10216000ABFB064809F03EF80146284607B0BDE83B
:10217000F040FFF70BBC00BF5090002084300020DF
:10218000F8B5144D0C4617460646FFF777F90222BC
:102190000021284610F042FC20461CF0D1FF2146C9
:1021A0000246284615F0B4F820461CF0C9FF02226A
:1021B000C1B2284610F032FC3946284615F034F9F1
:1021C00020461CF0BDFF0630142828BF1420C6F896
:1021D0001402F8BD887CFF1FF8B51F4C1F4F154631
:1021E00000220E462046114610F018FC204611220F
:1021F0001B4915F08DF800221146204610F00EFC08
:1022000030461CF09DFF31460246204615F080F80E
:1022100020460122002110F001FC28461CF090FF0E
:1022200029460246204615F073F830461CF088FF18
:102230000146304617F0DEF9384615F0A5F8284675
:102240001CF07EFF0146284617F0D4F93846BDE859
:10225000F84015F099B800BF887CFF1F1871FF1F68
:10226000DC470200B0B588B002AF04460B460092CE
:102270001521164A164D38461CF0C0FC38461CF095
:102280005FFFD4F81432C4F8140298420146B8BF74
:10229000194601F1080323F00703ADEB030D02AC6F
:1022A0003B460C4A013120461CF0A8FC284602227D
:1022B000002110F0B3FB20461CF042FF21460246ED
:1022C000284615F025F81837BD46B0BDF047020086
:1022D000887CFF1FD84702002DE9F04790F82D3287
:1022E00082B00546002B40F08280584E584A306834
:1022F000D46892F809E092E88800197897F800C04D
:10230000137A534F1CEA0E0F01EA03015AD0BB7A2D
:1023100003F0030309B143F0040343F008039910E9
:10232000013B91720D2B0AD8DFE803F05E075807D6
:10233000095B5E5E5B090758075E013CD460C31E03
:10234000A34202DC0330A04239DA424808F04AFFD7
:102350003368E31A48BF033300EBA307002F39DCCF
:102360000127DFF80081D8F800309F4226D05FFABD
:1023700087F94946374809F061F83A463649284610
:10238000FFF770FF354B364A1B680193019B1268BB
:1023900003F5FA630C2AC5F8243239D04946284699
:1023A000FFF7F4FA2B4809F061FB01462846FFF7D6
:1023B00083FA2846FFF72EFBC8F80070346002B09D
:1023C000BDE8F087BB7A03F003030029A7D043F0F0
:1023D0000403A4E7022FA8BF0227C2E70234D46097
:1023E000ADE7023CD460AAE70134D460A7E700233C
:1023F00080F82D321748154E08F0F4FE1949144A9A
:10240000086003B29B001C4618463360D36070E737
:10241000D8F80030E8192B44002209F10F014FF0E1
:10242000010A05F17C0980F89BA1C9B283F89B21C0
:10243000484610F067FDD8F800100F314846C9B281
:1024400010F07EFD85F871A1B6E700BF7C7CFF1F10
:102450000C7CFF1F84300020F84702004C940020C1
:10246000BC6FFF1F1C7CFF1F2DE9F041A84D2DED17
:10247000028B2B68DA0782B0044640F1EB81A54D50
:102480002B68DB0740F1D78194F81032002B40F025
:10249000AF81A14DA14E2B6869681A78687A0F78D0
:1024A0002B7A9D49074202EA03021DD08B7A03F082
:1024B00003030AB143F0040343F008039A10013BFD
:1024C000AA720D2B00F26881DFE813F0540150016D
:1024D0004C015001660116005401540116006601BA
:1024E00050014C01500154018B7A03F00303002A80
:1024F000E4D043F00403E1E7EB68023BEB6007EE56
:10250000903A9FED876A96ED007ADFED866AF8EEE5
:10251000E77A87EE868A77EE267AB4EEE78AF1EEDE
:1025200010FA06DA37EE667AB4EEC78AF1EE10FAE0
:1025300040D87D4BDFED7D7AD3ED006AB1EE007AB5
:10254000E6EEC77AB4EEE78AF1EE10FA40F13A818E
:10255000B9EE008A26EE888ADFED717A68EE277A76
:10256000FDEEE77AC5ED037A714D724F95ED000AE5
:10257000F5EE007A68EE277AF4EE407AF1EE10FA82
:10258000C7ED007A40F075819FED650A6A4967EEF4
:10259000807A2046FDEEE77A17EE902AFFF762FE7A
:1025A000664B86ED008A1B680193019B03F5FA6375
:1025B000C4F82432624A1368506819780578507A52
:1025C000137A054201EA030100F0F380937A03F0E5
:1025D000030309B143F0040343F008039910013BDE
:1025E00091720D2B00F2D680DFE813F0D000C80006
:1025F000CC00C800D4000E00D000D0000E00D400E3
:10260000C800CC00C800D000D568023DD5604D4E52
:102610003368DA1EAA4202DCDA1CAA421DDA4A4FEB
:10262000DFF83C81EA1A3B68D8F8001048BF033253
:1026300003EBA203082BA8BF082323EAE373994204
:102640003B6006D0194641480DF01AFF3968C8F8BA
:1026500000102046FFF7C0FC35603D4A1368506803
:1026600019780578507A137A054201EA030100F0DF
:102670009780937A03F0030309B143F0040343F016
:1026800008039910013B91720D2B00F28780DFE85F
:1026900003F03B37333785073B3B07853733373B01
:1026A000D568023DD5602B4E3068C31EAB4202DCBC
:1026B000C31CAB421BDA284A281A136848BF0330F0
:1026C00003EBA000002840F3E280B0F5967FA8BF9E
:1026D0004FF49670214F10603B68DFF87C80984281
:1026E00004D063699847D8F800303B60356002B089
:1026F000BDEC028BBDE8F081D5680235D560D2E72C
:10270000D568013DD560CEE7D5680135D560CAE70B
:10271000087CFF1F007CFF1F587CFF1F687CFF1F89
:102720000000C8420AD7233D707CFF1F0000000054
:10273000A47CFF1FE47BFF1F004802004C94002094
:10274000207CFF1FA87CFF1FAC7CFF1F5090002047
:10275000307CFF1F047CFF1F747CFF1FE87BFF1F82
:10276000F87BFF1FEB680233EB60C8E6EB68013BC8
:10277000EB60C4E6EB680133EB60C0E6D568013D71
:10278000D56044E7D5680235D56040E7D5680135A6
:10279000D5603CE7D5683AE7EB68B0E6D56882E7F4
:1027A000937A03F0030300293FF46BAF43F0040373
:1027B00067E7937A03F0030300293FF40FAF43F078
:1027C00004030BE7334BD3ED007A27EE877AB4EEA0
:1027D000C78AF1EE10FA7FF7C7AEDFED2F7A67EE0A
:1027E000277AB0EE478AFDEEE77AC5ED037ABBE6BD
:1027F0002A482B4DDFF8C4E02A4E0023002204F5BE
:10280000BE77036084F81022EA6039462648CEF885
:102810000030336009F09AF9244B234883ED000A15
:10282000394609F0D1F9F7EE007A37EEC00A194BB4
:1028300083ED000A2FE6284615F052FB00283FF4EE
:1028400023AE1B480DF024FE1A4B1860284615F0E5
:102850004DFB19E6284615F043FB00283FF40FAE68
:1028600013480DF011FE144B1860284615F03EFB7E
:1028700005E637EEC00A94F82C220B4804F5BE7129
:1028800009F026FBD7ED007AC5ED007A7CE6012041
:1028900020E700BFFC7BFF1F0000C842E47BFF1F56
:1028A000587CFF1F687CFF1F84300020707CFF1F56
:1028B00050900020AC7CFF1F747CFF1FA47CFF1F86
:1028C000384B1B680D2B00D070472DE9F041364B7B
:1028D000CFB20B4007F00F06002B82B006F10106C5
:1028E00039DBC418054694F89C317BB12F4B93F823
:1028F0000080B8F1000F33D1424631462C4808F031
:102900000DFF002838D102B0BDE8F081274B1B78BD
:10291000DBB901223146264808F000FF30B301231D
:1029200084F89C31394605F17C0010F0EBFA324610
:1029300020492846FFF796FC1F4B1B680193019B1B
:1029400003F5FA63C5F82432DDE7436B3246012113
:1029500004209847D7E7013B63F00F030133C0E73A
:10296000436B3246002104209847CCE7394605F1F5
:102970007C0010F0E5FAC6E7394605F17C0084F8E2
:102980009C8110F0DDFA32460C492846FFF76AFCBC
:10299000094B1B680093009B03F5FA63C5F82432CA
:1029A000B1E700BFBC6FFF1F0F0000807D660020F5
:1029B000843000201C4802004C9400200C48020087
:1029C00010B5013A8CB00446032A6BD8DFE802F058
:1029D00052371D0240F6B833994200F086806AD91A
:1029E00041F28833994200F0AA8041F65833994267
:1029F00064D15F49FEF7ECFD5E4B1B680B930B9BAC
:102A000003F5FA63C4F8243253E040F6B833994230
:102A100077D050D941F28833994200F09C8041F63A
:102A2000583399424AD15449FEF7D2FD514B1B68A5
:102A30000893089B03F5FA63C4F8243239E04F4A3F
:102A400040F6B833994212683DD034D941F2883308
:102A5000994262D041F6583399422FD14849FEF746
:102A6000B7FD444B1B680593059B03F5FA63C4F857
:102A700024321EE04348019109F0CEFC019940F652
:102A8000B83399422BD016D941F28833994250D0AD
:102A900041F65833994211D102463B492046FFF78F
:102AA000E1FB06E03949FEF739FC3A21384816F0D7
:102AB000A1FD0CB010BDB1F57A7FFAD02046FEF72B
:102AC000DDFC0CB010BD3349FFF7CCFB294B1B6874
:102AD0000393039B03F5FA63C4F82432E9E7024643
:102AE0002C492046FFF7BEFBE3E72B49FEF770FDBC
:102AF000204B1B680993099B03F5FA63C4F8243241
:102B0000D7E72649FEF764FD1A4B1B680693069B20
:102B100003F5FA63C4F82432CBE72149FFF7A2FB9F
:102B2000144B1B680493049B03F5FA63C4F8243226
:102B3000BFE702461B492046FFF794FBB9E71A4955
:102B4000FEF746FD0B4B1B680A930A9B03F5FA63DD
:102B5000C4F82432ADE71549FEF73AFD054B1B6872
:102B60000793079B03F5FA63C4F82432A1E700BF7B
:102B7000D04802004C9400209C480200B86FFF1F10
:102B8000684802002C67002048480200D84802002C
:102B9000E848020028480200A848020078480200DD
:102BA0005848020038480200C04802008C48020021
:102BB000B1F57A7F38B504D8B0F8224294B300203A
:102BC00038BD40F6B834A14212D8B0F82212B1F59F
:102BD0007A7FF4D1A0F822422146FFF7F1FE0821C6
:102BE000284816F007FD284814F0CEFB002038BD19
:102BF00041F28835A94222D941F65834A142B0F8B1
:102C000022122ED8A942DAD1A0F822422146FFF79B
:102C1000D7FE04211D4816F0EDFC1B4814F0B4FB50
:102C2000002038BD4FF47A72A0F822220B211848F8
:102C300016F0E0FC144814F0A7FB204638BDB0F8AD
:102C40002212A142BBD1A0F822522946FFF7B8FEBA
:102C50000621104816F0CEFC0B4814F095FB01201D
:102C600038BDA142ABD10024A0F822422146FFF793
:102C7000A7FE0821084816F0BDFC034814F084FBA9
:102C8000204638BD304902001871FF1F4449020038
:102C9000244902003C4902004C49020070B51A4D1B
:102CA00082B08DED010A0C460646FEF7E7FB28468A
:102CB000022200210FF0B2FE20461CF041FA21460C
:102CC0000246284614F024FB20461CF039FA022262
:102CD000C1B228460FF0A2FE9DED010A10EE100AC7
:102CE0001AF0BEFD41EC100B0221284614F0A4FBA3
:102CF00020461CF025FA0630142828BF1420C6F8F8
:102D0000140202B070BD00BF887CFF1FB0B588B050
:102D100002AF0446019300920B46174A174D152146
:102D200038461BF06BFF38461CF00AFAD4F8143210
:102D3000C4F8140298420146B8BF194601F10803CD
:102D400023F00703ADEB030D02AC3B460C4A013107
:102D500020461BF053FF2846022200210FF05EFEA2
:102D600020461CF0EDF921460246284614F0D0FA20
:102D70001837BD46B0BD00BF58490200887CFF1F10
:102D8000D84702002DE9F04190F8103282B0054694
:102D9000002B40F082804E4F4E4E3B6879681A7887
:102DA000787A0C783B7A4A49044202EA030215D049
:102DB0008B7A03F003030AB143F0040343F00803E2
:102DC0009A10013BBA720D2B65D8DFE803F058600A
:102DD0005C60640F58580F64605C60588B7A03F035
:102DE0000303002AECD043F00403E9E7FC68023C4B
:102DF000FC603368DA1CA24202DB033BA3423BDDEA
:102E0000354B1B78C3EB83739B00A34204DC334B2D
:102E10001B789B00A34201DAFB601C46304FDFF8B1
:102E2000D0803A68002C2346B8BFE31C9B10934225
:102E3000C8F800301FD09A1AD2B295F82C3229481F
:102E400005F5BE7108F0C0FFD8F80080C7F8008013
:102E500001466A462846FEF709FA424603462249D9
:102E60002846FFF753FF214B1B680193019B03F595
:102E7000FA63C5F82432346002B0BDE8F081FC6822
:102E80000134FC60B5E7FC680234FC60B1E7FC6823
:102E9000013CFC60ADE7FC68ABE715490C4F104AFC
:102EA0000C4E1048002305F5BE740B60FB602146F4
:102EB0001360336008F0EAFD074B2146187009489B
:102EC00008F014FE054BC0F17F00187065E700BFE5
:102ED0000C7CFF1FF47BFF1F407CFF1FF07BFF1F5C
:102EE000E07BFF1F84300020644902004C940020E6
:102EF000EC7BFF1F104B1B680D2B10B5044608D848
:102F0000012202FA03F343F2B6321A404AB95B05D2
:102F10000ED42046FFF736FF2046BDE81040FFF7ED
:102F2000A3BAFFF7D9F92046BDE81040FFF79CBAD5
:102F3000BDE81040FDF770BCBC6FFF1FF0B58DB051
:102F40001D4D9DF848409DF84CE09DF85070CDF81F
:102F50000CE00134019306464B1C00920294049746
:102F600007A8164A164C14211BF048FE28460222D8
:102F700000210FF053FD07A81CF0E2F807A9024654
:102F8000284614F0C5F907A81CF0DAF8C6F81402B0
:102F9000204614F0F9F914210A4816F02BFB07A873
:102FA0001CF0CEF8014607A816F024FB204614F0CA
:102FB000EBF90DB0F0BD00BF887CFF1F784902001F
:102FC0001871FF1F9049020008B50322112109481A
:102FD0000FF024FD084B1B7801222BB90749054847
:102FE000BDE8084014F094B905490248BDE808401E
:102FF00014F08EB9887CFF1FC0900020EC470200BF
:10300000A849020010B50446032290F874110B4839
:103010000FF004FDD4F80C22D4F87431D35C0122F3
:103020002BB907490548BDE8104014F071B90549AE
:103030000248BDE8104014F06BB900BF887CFF1F48
:10304000EC470200AC4902002DE9F04F0446102382
:1030500000F1400720268FB0C36304F15E08A66329
:10306000384600250FF0CAFE40460FF0C7FE424624
:103070003946049503950295019500952B4604F178
:103080007C000FF0BDFEC4F800611A26C4F8E460AD
:10309000192604F58473C4F8E8601B264FF0250C4C
:1030A0004FF0240E1E2107931F220523C4F8EC6065
:1030B0004FF0420B4FF0430A4FF027094FF026081C
:1030C00018271D201C26C4F8D8C0C4F8DCE0C4F8BA
:1030D0000431C4F8F810C4F8FC20C4F8A0B0C4F857
:1030E000A4A0C4F8D09004F5887AC4F8D480C4F8B9
:1030F000E070C4F8F060C4F8F400079813F04EFED6
:10310000504613F04BFE04F58C7904F59072164688
:10311000484613F043FE04F594723046174608966D
:1031200013F03CFE04F598710E463846099713F0EB
:1031300035FE04F59C7130460F460A9613F02EFEBC
:1031400004F5A070064638460B9713F027FE04F5E9
:10315000A4700746304604F5A87B0C9613F01EFEBB
:10316000384604F5AC780D9713F018FE584613F066
:1031700015FE04F5B077404613F010FE04F5B47662
:10318000384613F00BFE304613F008FEFF220123F1
:1031900084F82C2284F82D3284F8705184F871510F
:1031A00084F8105284F81152C4F81452C4F818521A
:1031B000C4F81C5284F82052A4F822524A217148C3
:1031C00016F018FA704814F0DFF82B466F48042206
:1031D00014210FF047FC0A226D496C4814F098F84E
:1031E00094F8A000022115F029F994F8A400022116
:1031F00015F024F994F8D400022115F01FF994F881
:10320000D000022115F01AF994F8D800022115F027
:1032100015F994F8DC00022115F010F994F8E0009B
:10322000022115F00BF994F8E400022115F006F9DB
:1032300094F8E800022115F001F994F8EC0002215D
:1032400015F0FCF894F8F000022115F0F7F8079853
:10325000D4F8D41013F0AAFD5046D4F8D01013F0CF
:10326000A5FD4846D4F8D81013F0A0FD0898D4F86E
:10327000DC1013F09BFD0998D4F8E01013F096FDD4
:103280000A98D4F8E41013F091FD0B98D4F8E810E4
:1032900013F08CFD0C98D4F8EC1013F087FD0D9D05
:1032A000D4F8F010284613F081FD0798B4F8041103
:1032B00013F092FD5046B4F8041113F08DFD48460A
:1032C000B4F8041113F088FD0898B4F8041113F051
:1032D00083FD0998B4F8041113F07EFD0A98B4F840
:1032E000041113F079FD0B98B4F8041113F074FD78
:1032F0000C98B4F8041113F06FFD2846B4F80411CB
:1033000013F06AFD94F8F400022115F097F894F890
:10331000F800022115F092F894F8FC00022115F053
:103320008DF894F80001022115F088F85846D4F879
:10333000F41013F03BFD4046D4F8F81013F036FDBE
:103340003846D4F8FC1013F031FD3046D4F80011A3
:1033500013F02CFD5846B4F8041113F03DFD40461F
:10336000B4F8041113F038FD3846B4F8041113F022
:1033700033FD3046B4F8041113F02EFD20460FB093
:10338000BDE8F08FB04902001871FF1F887CFF1F55
:10339000FC49020070B516460C460546C9B2032228
:1033A0001F480FF03BFBFEB92B1993F87C61D5F851
:1033B00074317EB99C422BD021461A4808F0EAFAB3
:1033C000012818D9334601460A221548BDE8704045
:1033D00013F0EABF9C424FF0010213D0124910488B
:1033E000BDE8704013F094BF012210490C48BDE8BD
:1033F000704013F08DBF01220D490948BDE87040AF
:1034000013F086BF0B490648BDE8704013F080BF3B
:10341000012209490248BDE8704013F079BF00BF9E
:10342000887CFF1F84300020AC490200A8470200BE
:10343000EC470200084A0200707C020070B5441894
:1034400000220F29054684F8EC211FD901F00F0650
:103450000C463146FFF79EFF12211B4816F0CAF8B2
:1034600031461A4813F0E0FF184813F08DFF95F825
:103470002C32A34204BFFF2385F82C32144B1B6867
:103480000A2B09D00B2B00D070BD214605F17C0022
:10349000BDE870400FF054BD2846FDF7EFFF95F8EA
:1034A00020220C480023012AC5F8CC3004BF85F83F
:1034B0002032A5F82232314609F098FF2846BDE8AF
:1034C0007040FDF73DBC00BF0C4A02001871FF1FA1
:1034D000BC6FFF1F2C67002070B50D461646D0F854
:1034E000781100220446FFF755FF0322E9B209488C
:1034F0000FF094FA012236B90749064813F008FF85
:10350000C4F8785170BD0549024813F001FFC4F8B2
:10351000785170BD887CFF1F707C0200084A020051
:10352000D0F80C3270B55D5CC0F8741110310446EF
:103530001646C9B27C309DB10FF002FD0122D4F8CD
:1035400074112046FFF7C8FFD4F8743104EB8303ED
:103550000122C3F8AC6184F8702184F8712170BD38
:103560000FF0D0FC2A46D4F874112046FFF7B4FFC0
:10357000EAE700BF2DE9F041012186B00546484841
:103580000EF070FF0021122014F058FF01211320CB
:1035900014F054FF0121132014F03CFF0B261220DD
:1035A00014F03EFF30B9013E01464FF496744FF0DF
:1035B000130067D175217422732305F17C067727E8
:1035C000762402910192009330467223049703946B
:1035D000712270210FF0ACFDAB6B002B09DD0024D4
:1035E000214630460FF0ACFC0134AB6BE4B29C4298
:1035F000F6DB30460FF0F6FD05F29B1305F2AB113A
:10360000002203F8012F8B42FBD16FF4BD76761BAD
:1036100005F27B1405F28B180027311904F8017F9D
:1036200000222846FFF7B6FE4445F6D105F5D473CF
:1036300005F5F470002143F8041F83424FF00002A7
:10364000F9D1184B85F8112201240622284685F865
:1036500010421A60FEF7DEF92846FEF78FFA12488C
:103660000CF014FF01462846FEF78AFC0E480CF0C9
:103670000FFF01462846FEF7AFFC85F8704106B003
:10368000BDE8F08114F0C6FE2346013BFDD10121C7
:10369000132014F0BFFE2346013BFDD17FE700BF9E
:1036A0003070FF1FBC6FFF1F5090002030B5D0F866
:1036B000B43087B00446A3B1374A12680292029927
:1036C000C91A0ED0354D2B680222013380F8202212
:1036D0005AD002222046FFF76BFA002847D107B0E4
:1036E00030BDD4F8CC30ABB12B4A126803920399A9
:1036F000C91A0FD0012284F820222046FFF758FA79
:103700000028ECD0264808F087FE0146244808F03F
:103710007FFFE4E7D4F8BC308BB11F4A12680492F3
:103720000499C91A0BD0032284F820222046FFF7FF
:103730003FFA0028D3D02046FFF71CFFCFE7D4F88C
:10374000AC30002BCBD0144A126805920599C91AE7
:10375000C5D0042284F820222046FFF729FA002849
:10376000BDD0104807F09CFEE3699847B7E7296889
:103770000C4807F04BFB20462968FEF75DF84FF038
:10378000FF332B6007B030BD0648019107F01CFDE8
:10379000019928609DE700BF4C940020B86FFF1F7F
:1037A0002C670020843000202DE9F04F00F58C7547
:1037B00085B00446284613F011FB10B905B0BDE8EA
:1037C000F08F284613F050FB0028F7D0894E33685D
:1037D000013B0A2B52D8DFE803F0182E515151510A
:1037E000510D0D510600844D2B78002B4FD1E3690C
:1037F0009847E3E7814A1378204683F0010313706A
:10380000FFF7E2FB05B0BDE8F08F7D4807F03AFC1A
:10381000002849D07A4807F0D7FC7A49024620466A
:10382000FEF720FD784B1B680193019B03F5FA63BB
:10383000C4F82432C2E7754D29684B1C00F0C280E1
:103840006F4807F0E3FA2A6871492046FEF70AFD3F
:103850006D4B1B680393039B03F5FA63C4F8243292
:1038600001274FF0FF3320462B603760FEF7D2F878
:103870002046FEF783F984F810729FE794F811321E
:10388000032B00F2AA80DFE803F076593F200127DE
:1038900020463760FEF7BEF82046FEF76FF900239A
:1038A00084F810722B7089E7554807F08DFC594950
:1038B00002462046FEF7D6FC534B1B680293029B40
:1038C00003F5FA63C4F8243278E704F28B196FF435
:1038D000BD77C8463F1B04F27B154FF0010A7919EA
:1038E00015F8013F08F8013F002285F800A02046A6
:1038F000FFF750FD4D454FF0010BF0D1022384F846
:1039000010B284F8113253E06FF4BD773F1B04F21C
:103910007B1504F28B1A4FF0000979194FF000085B
:1039200005F8019F42462046FFF734FD5545F4D186
:10393000012384F8118284F8103239E004F28B19E3
:103940006FF4BD77C8463F1B04F27B15791915F853
:10395000013F08F8013F83F001032B70002220464D
:10396000FFF718FDA945F1D10322012384F81122A4
:1039700084F810321CE06FF4C578C4EB080804F238
:103980008B1504F27B1704F29B1908EB050115F85F
:10399000013F83F0010307F8013F00222046FFF7B3
:1039A000F9FCA945F1D1012384F8113284F81032D1
:1039B0003368062B7FF402AF04F5BE712046FDF795
:1039C00063F9FBE6012520463560FEF723F8204623
:1039D000FEF7D4F884F81052F0E631210E4815F0C5
:1039E00009FE94F811120D4813F01EFD0B4813F058
:1039F000CBFCDDE7BC6FFF1F142E0020C090002021
:103A000084300020204A02004C940020B86FFF1F31
:103A1000404A0200304A0200504A02001871FF1F5B
:103A200070B504460D4696B07C300FF06BFA631902
:103A3000012283F8EC210F2D00F23F81DFE815F021
:103A4000240040005C00780094009D00A600AF00B8
:103A5000F100CB00DE00B8002A01040117011000BC
:103A6000B9492046FDF7B4FDB84BB9481B6812931D
:103A7000129B03F5FA63C4F8243204F5BE710422E4
:103A800008F0E0F816B070BDB24B1A68511E01295B
:103A900040F2D0810A2A00F0CD812046AE49FDF7E0
:103AA00097FDAA4BAA481B680293029B03F5FA6391
:103AB000C4F8243204F5BE71002208F0E9F8E1E709
:103AC000A44B1A68511E012940F2C0810B2A00F054
:103AD000BD812046A149FDF77BFD9C4B9C481B689E
:103AE0000193019B03F5FA63C4F8243204F5BE7117
:103AF000012208F0CDF8C5E7964B1B68012B00F0BA
:103B00006C81083B012B40F2688120469449FDF707
:103B10005FFD8E4B8E481B680493049B03F5FA638C
:103B2000C4F8243204F5BE71022208F0B1F8A9E706
:103B3000884B1B68012B00F06881083B012B40F289
:103B4000648120468749FDF743FD804B80481B6810
:103B50000693069B03F5FA63C4F8243204F5BE719C
:103B6000032208F095F88DE77F4B1B78002B00F0BF
:103B70002781A3690120984784E77B4B1B78002BA2
:103B800000F01181A369022098477BE7764B1B78F0
:103B9000002B00F0FB80A3690320984772E7724B6B
:103BA0001B78002B00F0C280A3690420984769E7C6
:103BB00020466E49FDF70CFD644B65481B680E936B
:103BC0000E9B03F5FA63C4F8243204F5BE71032298
:103BD00008F07EF856E720466549FDF7F9FC5B4B97
:103BE0005B481B680C930C9B03F5FA63C4F8243202
:103BF00004F5BE71012208F06BF843E720465D49E9
:103C0000FDF7E6FC514B52481B680D930D9B03F5E5
:103C1000FA63C4F8243204F5BE71022208F058F8A1
:103C200030E720465449FDF7D3FC484B48481B6811
:103C30000B930B9B03F5FA63C4F8243204F5BE71B1
:103C4000002208F045F81DE720464C49FDF7C0FC6E
:103C50003E4B3F481B681093109B03F5FA63C4F872
:103C6000243204F5BE71022207F0ECFF0AE7204679
:103C70004349FDF7ADFC354B35481B681193119B4B
:103C800003F5FA63C4F8243204F5BE71032207F089
:103C9000D9FFF7E620463B49FDF79AFC2B4B2C4811
:103CA0001B680F930F9B03F5FA63C4F8243204F5E5
:103CB000BE71012207F0C6FFE4E60F2D7FF6E2AEEB
:103CC00005F00F06314601222046FFF763FB94F80A
:103CD0002C32AB42636A88BF84F82C5213B1A5F131
:103CE000100098471B4B1B68013B0C2B00F2E78030
:103CF00001A252F823F000BF513E0000633E0000D5
:103D0000BF3E00006D3E0000B53E0000BF3E00001B
:103D1000AB3E0000513E0000A13E00008B3E000083
:103D2000853A0000813E0000773E0000164920469B
:103D3000FDF74EFC054B1B680A930A9B03F5FA63DB
:103D4000C4F8243230E700BF7C4B02004C940020C2
:103D500084300020BC6FFF1F904A0200844A02009A
:103D6000B84A0200E44A02007D660020504B02007F
:103D7000384B0200444B02002C4B0200644B020003
:103D8000704B02005C4B0200204B02005F49204652
:103D9000FDF71EFC5E4B1B680993099B03F5FA6354
:103DA000C4F82432F7E65B492046FDF711FC584B76
:103DB0001B680893089B03F5FA63C4F82432E1E614
:103DC00055492046FDF704FC514B1B680793079BA0
:103DD00003F5FA63C4F82432CBE6504A504913780D
:103DE000002083F0010313700870002B00F088801E
:103DF0004C492046FDF7ECFB454B1B680393039BA6
:103E000003F5FA63C4F824323CE6454B1A78002ADD
:103E10006DD0424D4449002220462A701A70FDF7A9
:103E2000D7FB3B4B1B680593059B03F5FA63C4F86E
:103E3000243227E60B2220461A60FDF7EBFD2046D0
:103E4000FDF79CFE012384F810321BE60A22F2E7FC
:103E5000324B364A1B784FF0FF311160002B7FF454
:103E600011AE29462046FCF7DBFE0BE6294620462C
:103E7000FCF71EFE06E629462046FEF721FD01E678
:103E800029462046FEF748F8FCE529462046FCF77F
:103E9000C7FE1F4B1B681393139BC4F8CC30F1E58E
:103EA00029462046FDF726FDECE529462046FCF78D
:103EB0005BFEE7E529462046FCF728FEE2E52946B9
:103EC0002046FCF77FFE31462046FDF7A9FB104B4C
:103ED0001A681592159A1B681493149B02F5FA62DE
:103EE00003F5FA63C4F82822C4F82432CAE50B4863
:103EF0000F490270012220461A70FDF769FB90E716
:103F00000C492046FDF764FB76E700BF104B02002A
:103F10004C940020004B0200F04A02007D66002015
:103F20007C6600209C4A0200C44A0200B86FFF1F52
:103F3000D44A0200AC4A0200F8B5344C2368DB07CF
:103F4000054646D5324E14F0A5FA3368304A9842F9
:103F500034D900F5EA4395F8701130331360002925
:103F600047D105F17C0738460FF054F818B3AB6B16
:103F7000002B24DD0026344605E00134AB6BE4B2AF
:103F80009C4226461BDA214638460EF079FF2E4425
:103F900030B196F8EC31214628460BB9FFF740FDC9
:103FA000214638460EF07CFF0028E6D02146284600
:103FB000FFF744FAE1E795F871311BB9F8BD012329
:103FC00085F8713138460FF00DF9002385F871310D
:103FD000F8BD204613F084FF0028B3D014F05AFA3D
:103FE0000B4E00F5EA4330332046336013F07EFF7A
:103FF000A9E7014605F17C072846FCF71DFD384678
:104000000FF008F80028D6D0B1E700BF847CFF1F6E
:10401000B07CFF1F10B5002303604360836004463B
:104020001621044815F0E6FA034813F0ADF92046CE
:1040300010BD00BF8C4B02001871FF1F38B505463C
:104040001A210F4815F0D6FA2C6864B1A36A2B60C8
:1040500020462C2113F086FF2C680A48042115F015
:10406000C9FA002CF2D100232B606B60AB600421F5
:10407000054815F0BFFA054813F086F9284638BD03
:10408000A44B0200C84B0200C04B02001871FF1F76
:1040900038B5054615210F4815F0ACFA2C6864B107
:1040A000A36A2B6020462C2113F05CFF2C680A4881
:1040B000042115F09FFA002CF2D100232B606B60D5
:1040C000AB600421054815F095FA0548BDE8384075
:1040D00013F05AB9D04B0200C84B0200C04B02008B
:1040E0001871FF1F38B52E4C05460A212D4815F0D2
:1040F00081FA204613F048F90E212B4815F07AFA80
:104100006B682046196813F08FF90B21274815F0CA
:1041100071FA6B680A2219792046002313F044F9DA
:10412000204613F031F90821214815F063FA6B6835
:104130002046D96813F078F907211E4815F05AFA7D
:104140006B68D86919F08CFB41EC100B20460221FA
:1041500013F072F90B21184815F04CFA6B680A221B
:1041600093F820102046002313F01EF9162113485F
:1041700015F040FA6B682046597A13F055F90E2174
:104180000F4815F037FA6B68204693F824100A227E
:10419000002313F009F92046BDE8384013F0F4B8C5
:1041A0001871FF1FE84B0200F44B0200044C0200A0
:1041B000104C02001C4C0200244C0200304C020047
:1041C000484C020038B54368002B6BD09A6A934282
:1041D00004460D4618BF012066D0A36823B12268AB
:1041E00012B19B6A9A4274D06368444A1B68934236
:1041F00002DC01332DD038BD2A4641494148FDF744
:10420000EBFF3121404815F0F5F928461AF098FFE8
:104210000146284615F0EEF93C4813F0B5F80721A1
:104220003B4815F0E7F96168384813F0FDF80E21B6
:10423000384815F0DFF963683448196813F0F4F86A
:10424000324813F0A1F863681B6801334FF0000097
:10425000D1D12A4630492B48FDF7BEFF34212F48E3
:1042600015F0C8F928461AF06BFF0146284615F0EC
:10427000C1F9264813F088F80721254815F0BAF946
:104280006168224813F0D0F80E21224815F0B2F9E7
:1042900063681E48196813F0C7F81C4813F074F8D7
:1042A000002038BD012038BD0A4616481C49FDF7DC
:1042B00093FF26211B4815F09DF928461AF040FF70
:1042C0000146284615F096F9104813F05DF80020D5
:1042D00083E72A4614490B48FDF77EFF392113482E
:1042E00015F088F928461AF02BFF0146284615F0EC
:1042F00081F9064813F048F8002075E78096980089
:10430000DC4C02004C2E0020F44C02001871FF1F00
:10431000284D0200304D0200404D0200584D020071
:10432000584C0200684C0200904C0200A04C020065
:1043300003684360704700BF10B544680CB1206843
:1043400010BD03490348FCF7E9FF204610BD00BF3C
:10435000904D02004C2E002010B544680CB120791D
:1043600010BD03490348FCF7D9FF204610BD00BF2C
:10437000A44D02004C2E00202DE9F0418846002774
:10438000077006461121144815F034F9D8F8044096
:10439000ECB108340FCC35460FC594E80F0085E822
:1043A0000F0071680D4813F03FF808210C4815F014
:1043B00021F9D8F80430094819790A223B4612F04D
:1043C000F3FF064812F0E0FF3046BDE8F0810549F2
:1043D0000548FCF7A3FFF7E7B84D02001871FF1F6F
:1043E000BC620200CC4D02004C2E00204068003020
:1043F00018BF0120704700BF70B50446162136482B
:10440000666815F0F7F8354812F0BEFF072134480A
:1044100015F0F0F86168314813F006F808213148CA
:1044200015F0E8F821682D4812F0FEFF08212E480B
:1044300015F0E0F8A168294812F0F6FF23686360E0
:10444000642538E012F0A0FF0E21284815F0D2F8BC
:1044500063682248196812F0E7FF0D21244815F01F
:10446000C9F861681D48083112F0DEFF09212148B2
:1044700015F0C0F863681948197912F0D5FF0B21BF
:104480001D4815F0B7F86168144812F0CDFF0821F7
:104490001A4815F0AFF863681048996A12F0C4FF23
:1044A00017492046FFF78EFE40B1204600F0C6F8BF
:1044B000013D08D063680948002BC3D1074812F0BA
:1044C00063FF666070BD0F490F48FCF727FF034884
:1044D00012F05AFF666070BDE44D02001871FF1FB4
:1044E000284D0200FC4D0200084E0200304D020033
:1044F000144E0200244E0200304E02003C4E0200D8
:10450000484E0200504E02004C2E0020036810B5A9
:1045100004466BB14268934204BF002242609A6A2B
:104520008AB100210260996218462C2113F01AFD0D
:104530000A492046FFF746FE00B110BD2046BDE8FF
:104540001040FFF759BF81688B4208BF82602C2161
:10455000184613F007FD00232360E9E7604E0200D0
:1045600038B50368044673B11A6891420D4603DCFE
:104570000AE01A68AA4207DA2046FFF7C7FF236855
:104580006360002BF5D10023636005492046FFF7E7
:1045900019FE00B138BD2046BDE83840FFF72CBFFA
:1045A000704E020082B02DE9F04106AC074644F897
:1045B000043F0D461E481421904615F01BF8214675
:1045C00000230A221B4812F0EFFE1A4812F0DCFE0C
:1045D0002C2013F0C3FC2C22002106461AF0B2F85E
:1045E0000FCCB060F160326173610FCCBC68356094
:1045F00086F80480B061F1613262736214B1A64240
:1046000018BFA6627B68BE607BB13B685BB10A499C
:104610003846FFF7D7FD10B93846FFF7EDFEBDE885
:10462000F04102B070473E60F1E77E60EDE700BF09
:104630009C4E02001871FF1FB44E0200436810B573
:10464000044673B19A6A934213D062600C492046C3
:10465000FFF7B8FD00B110BD2046BDE81040FFF7E0
:10466000CBBE1921074814F0C5FF074812F08CFE95
:10467000ECE706490648FCF751FE63689A6AE4E7EE
:10468000F04E0200D44E02001871FF1FC04E02000F
:104690004C2E002070B590E8480005460024436089
:1046A00006E00134FFF7CAFFB4F57A7F06D06B68E5
:1046B0002846002BF5D16E60204670BD03490448A2
:1046C000FCF72CFE6E60204670BD00BFF84E020065
:1046D0004C2E00200022026042608260704700BFC2
:1046E00038B504461721094814F084FF23685BB1EC
:1046F0000025DA6822601846DD6010219D6013F005
:1047000031FC2368002BF4D1204638BD084F02004D
:1047100038B5436804460D4683B1DA68934218BF42
:10472000012036D09A689A4248D0E3682BB1DA6803
:10473000934219D09A689A4202D038BD0120F4E71A
:1047400028492948FCF7EAFD1F21284814F052FFA8
:10475000274812F019FE28461AF0F2FC01462846B6
:1047600014F048FF0020E8E722491F48FCF7D6FD77
:104770002B21214814F03EFF28461AF0E1FC0146A7
:10478000284614F037FF1A4812F0FEFDE3680020B7
:10479000D0E71A491448FCF7C1FD2321184814F04A
:1047A00029FF28461AF0CCFC0146284614F022FFC7
:1047B0000F4812F0E9FD63680020B3E711490A4889
:1047C000FCF7ACFD1721104814F014FF084812F054
:1047D000DBFD28461AF0B4FC0146284614F00AFF17
:1047E0000020A2E7BC4F02004C2E0020D04F020058
:1047F0001871FF1F7C4F0200904F0200204F0200F3
:10480000304F0200544F0200644F020010B50749B8
:104810000446FFF77DFF20B163680BB1DB6863607E
:1048200010BD204600F004F8F6E700BFF04E02008D
:1048300038B500210446434814F0DCFE424812F02B
:10484000A3FD0D21414814F0D5FE3F4812F09CFD18
:1048500007213F48656814F0CDFE21683A4812F000
:10486000E3FD06213B4814F0C5FE6168364812F0AE
:10487000DBFD0721384814F0BDFEA168324812F074
:10488000D3FD0A21354814F0B5FEE1682E4812F038
:10489000CBFD2D4812F078FD204600F0DFF863686C
:1048A0002BB945E0FFF7B2FF6368002B40D005212C
:1048B0002B4814F09FFE6368234819680A220023DE
:1048C00012F072FD0421274814F094FE63681E481C
:1048D00019790A22002312F067FD0421224814F0FE
:1048E00089FE6368184859790A22002312F05CFD9A
:1048F00005211E4814F07EFE6168134812F094FDF5
:1049000006211B4814F076FE63680F48D96812F040
:104910008BFD0D4812F038FD6368DA68934220463B
:10492000C0D11A21134814F065FE074812F02CFD7F
:104930000021044814F05EFE034812F025FD656076
:1049400038BD00BF644702001871FF1FF04F02001E
:1049500000500200085002001050020018500200DF
:10496000245002002C500200345002003C5002003F
:10497000445002004C50020038B50446C06800287C
:1049800038D060602368834226D0A368834216D063
:104990008568C368EB60C36882689A60102113F071
:1049A000E1FA65602B46E36014492046FFF7B0FE4C
:1049B00000B138BD2046BDE83840FFF739BF8268F6
:1049C0001AB1826862600021D1601846102113F08C
:1049D000C9FA6368A360E6E7C268626062B1002159
:1049E00091600022DA601846102113F0BBFA636868
:1049F0002360D8E76068C5E7A260F2E7685002006C
:104A00002DE9F84304461020894690461F4613F0CE
:104A1000A5FAA66800254560856080F80490C56009
:104A200080F8058007600EB1F06086606368A06062
:104A30007BB123685BB108492046FFF769FE08B1E6
:104A4000BDE8F8832046BDE8F843FFF7F1BE2060DB
:104A5000F1E76060EDE700BF7450020010B5054952
:104A60000446FFF755FE10B92046FFF7E1FE236824
:104A7000636010BD7C500200C3681879704700BFA6
:104A8000C3685879704700BFC3681868704700BF93
:104A9000C068003018BF0120704700BF10B505493D
:104AA0000446FFF735FE10B92046FFF7C1FE236824
:104AB000E36010BD8450020010B507490446FFF7BB
:104AC00027FE20B1E3680BB1DB68E36010BD204630
:104AD000FFF7AEFEF6E700BF9050020070B5114937
:104AE0000546FFF715FE90B128466E680024FFF7D3
:104AF000B5FF05E00134FFF789FEB4F57A7F0AD0EF
:104B00006B682846002BF5D16E60204670BD2846A4
:104B1000FFF78EFEE8E704490448FCF7FFFB6E60F0
:104B2000204670BD9C500200A45002004C2E002074
:104B300038B50A4D002304460360436029464FF40C
:104B4000A072083013F0EAF805F5A07104F5A4701E
:104B50004FF4807213F0E2F8204638BDB4500200E2
:104B600010B490E81800013400EB031394FBF1F249
:104B700002FB11410B44416093F848015DF8044B7E
:104B8000704700BF10B490E8180094FBF1F200EBFE
:104B9000031302FB11410B44416093F848015DF897
:104BA000044B7047436810B40468194400EB0410C8
:104BB00091FBF2F303FB121250FA82F25DF8044B00
:104BC00092F84801704700BF406801308842B4BF86
:104BD00000200120704700BF054B0B40002B01DB7C
:104BE00003607047013B63F00F03013303607047BC
:104BF0000F000080036803EB830300EB83000830A1
:104C0000704700BF00234360704700BF704700BF7C
:104C10002DE9F0418046064600F16007337D5BB127
:104C20003546002455F8040F013418B1182113F04B
:104C300099F9337DA342F5DC1836BE42EED14046E9
:104C4000BDE8F08101EB410300EBC30380F868107D
:104C500043660120704700BF38B5044660B101EBE0
:104C6000410110EBC1050DD002EB420014EBC00472
:104C70000ED06A75012038BD08490948FCF74EFB83
:104C8000204638BD07490648FCF748FB284638BD92
:104C900005490348FCF742FB204638BDF4520200A8
:104CA0004C2E0020085302001C530200436E0BB12F
:104CB0001960704780F86830034640661960704795
:104CC000416E70B5054621B30B7D032B1BD8182010
:104CD00013F044F9044600F07BFA6B6E1E1D25D0DC
:104CE000197D31B153F82100B8B100F09DFA6B6E17
:104CF000197D03EB8102013154602046197500F0E3
:104D00006FFA204670BD0E490E48FCF707FB0020E5
:104D100070BDFFF797FF38B970BD0B490948FCF724
:104D2000FDFA6B6E197DE4E7696ECDE7074905482A
:104D3000FCF7F4FA2046182113F014F9304670BD40
:104D4000305302004C2E0020545302004053020006
:104D50002DE9F043044685B0184803F055FC0E21B8
:104D6000174814F047FC174812F00EFBE06EE8B14C
:104D700000F094FA636EE06E93F8009094F8685037
:104D800094F8746094F8707000F03EFA8046E06E1B
:104D900000F03CFA4B4602908DE8800132462946ED
:104DA0000948FEF7CBF805B0BDE8F083074906488F
:104DB00005B0BDE8F043FCF7B1BA00BF8066002043
:104DC000645302001871FF1F4C2E00207453020020
:104DD00070B504463321644814F00CFCE06E00F01A
:104DE00013FA00230A220146604812F0DDFA01217D
:104DF0005F4814F0FFFBE06E00F008FA0023014664
:104E00000A225A4812F0D0FA09215A4814F0F2FB4B
:104E100000230A2294F87010544812F0C5FA1421A5
:104E2000554814F0E7FBE06E00F004FA0023014659
:104E30000A224E4812F0B8FA4C4812F0A5FAE36E76
:104E4000002B7DD0656E002D75D0184600F0F4F96A
:104E5000054658B31921494814F0CCFBE06E00F028
:104E6000E9F910210646464814F0C4FB00233146F8
:104E70000A223E4812F098FA636E1B7DB34221D994
:104E80002121404814F0B6FB636E84F8706003EB98
:104E900086067068E06600F0C9F921213A4814F0EE
:104EA000A9FB324812F070FA284670BDE06E00F09F
:104EB000F1F93D21354814F09DFB2C4812F064FABD
:104EC000284670BD1821324814F094FB636E626F5F
:104ED0001B689A421FDB10212E4814F08BFB636E77
:104EE0005E7DFF2E32D006EB4606132104EBC6068C
:104EF000294814F07FFB66661521284814F07AFBD8
:104F0000636E002284F870205868E06601236367AE
:104F100000F08CF9C1E71A21214814F06BFB002343
:104F200084F87030626E636F5068E06601336367C7
:104F300000F07CF9B1E71B491B48FCF7EFF9BFE72C
:104F40001A4919481D46FCF7E9F9B9E70021184844
:104F500014F050FB054812F017FA1321154814F00D
:104F600049FB236E984798E7885302001871FF1F8A
:104F7000BC530200C0530200CC5302000C54020088
:104F8000285402003C540200EC5402001055020068
:104F90006054020098540200AC540200C054020055
:104FA0007C540200F85302004C2E0020E45302000F
:104FB00064470200D85402002DE9F043436E0446D2
:104FC00085B0C06E93F8009094F8686094F874709F
:104FD00094F8708000F018F90546E06E00F016F9BC
:104FE0004B460290CDF800803A4631460195034881
:104FF000FDF7A4FF05B0BDE8F08300BF4C2E0020F4
:1050000010B514210446094814F0F4FA084812F0C7
:10501000BBF9E06E18B1BDE8104000F03FB905499A
:105020000548BDE81040FCF779B900BF50550200B3
:105030001871FF1F685502004C2E00200346002205
:10504000586680F8682038B1406883F870200122E3
:10505000D8665A6700F0EAB801490248FCF75EB921
:105060007C5502004C2E0020F8B5564E564D016678
:10507000044600F1150132602B607530FF220023D9
:105080000A7001F8013C41F8153C183181424FF09B
:105090000005F5D14D4B656684F86850E56684F8E7
:1050A00070506567012620461E70FFF709FE07460F
:1050B00090B12B462A46314600F09CF82B462A46F2
:1050C0000221384600F096F83146384600F0A2F842
:1050D0003846022100F09CF82046FFF7F1FD054616
:1050E00090B101221146002300F084F80023012230
:1050F0000221284600F07EF80121284600F08AF8B7
:105100002846022100F084F82046FFF7D9FD054625
:1051100090B100230222012100F06CF80222114616
:105120000023284600F066F80121284600F072F8B6
:105130002846022100F06CF801212046FFF7B6FD59
:10514000012200212046FFF787FD01212046FFF7BD
:1051500079FD02212046FFF7A9FD2046FFF7B0FDAB
:10516000054690B100230322012100F043F80023FB
:1051700003220221284600F03DF80121284600F0D4
:1051800049F82846022100F043F82046FFF798FD31
:10519000054690B100230422012100F02BF80023E2
:1051A00004220221284600F025F80121284600F0BB
:1051B00031F82846022100F02BF82046BDE8F840DF
:1051C000FFF73CBFB87CFF1FB47CFF1FBC7CFF1FF8
:1051D000FF220021017381608273C27302617047F4
:1051E0000023FF22037183704371C3700270427009
:1051F000704700BF30B40139C9B244180125A3700B
:105200002571425430BC7047007D7047007A70476A
:10521000816070474B1E50FA83F31B7913B14173C1
:10522000012070471846704781737047002343611F
:10523000704700BF807B7047426983689A421DD0E7
:105240001ADD10B50E4904460E48FCF767F8122126
:105250000D4814F0CFF961690C4812F0E5F81421FB
:105260000B4814F0C7F9A168084812F0DDF80748A8
:1052700012F08AF8012010BD00207047012070470D
:10528000E45502004C2E0020F85502001871FF1F53
:105290000C5602004369013343617047F8B5112190
:1052A00006466B4814F0A6F96A4812F06DF8307B98
:1052B000002878D134460125237967480821002B3E
:1052C0005ED014F097F92946624812F0ADF82378C1
:1052D000FF2B3AD00621614814F08CF900230A22F2
:1052E00021785C4812F060F8A378002B53D10A2192
:1052F0005B4814F07FF9574812F046F8EFB2394690
:10530000584806F09BF8584B20781B689847394658
:10531000A278544806F002FA737BAB4266D0534B36
:105320001B68013B0C2B10D8DFE803F05A0F5A0F13
:105330000F0F0F07470F0F0F41004A4806F0E4FA1E
:1053400000F10F014A48FBF76BFC0135032D04F116
:105350000104B1D1717B434806F070F801237361F9
:105360001521444814F046F93A4812F00DF800218E
:10537000414814F03FF93748BDE8F84012F004B84E
:1053800014F038F92946334812F04EF809213B4809
:1053900014F030F9D9E70821394814F02BF92D48D9
:1053A00011F0F2FFAAE7374B1B68984782E705F137
:1053B0000F012F48FDF784FAC7E72A4806F056FB8D
:1053C00000F110012A48FCF795FA264805F0EEFE98
:1053D00001462748FCF7FCF82548FBF7BDFEB4E77B
:1053E000217823481031FBF71BFCAEE73369FE2B15
:1053F00012DDF37BFF2B92D01A4806F095FAF27B70
:10540000904204D31146174806F0E0FD87E71E4995
:105410001748FCF715F882E71C49194000290DDBF5
:10542000C9B2104805F0F6FE336918491940002941
:1054300009DBC9B20E48FCF73FFADAE7013961F03F
:105440000F010131ECE7013961F00F010131F0E7A3
:10545000245602001871FF1FBC6202003856020079
:105460004C56020084300020B87CFF1FBC6FFF1F29
:105470004C2E002074560200644702006856020059
:1054800040560200B47CFF1F585602000F000080F7
:1054900010B528210446074814F0ACF8204619F04E
:1054A0004FFE0146204614F0A5F80348BDE8104021
:1054B00011F06ABF8C5602001871FF1F10B500234F
:1054C000036043608360C36004461D21034814F0F9
:1054D00091F8034811F058FF204610BDB85602005D
:1054E0001871FF1F38B505461C21104814F082F8CA
:1054F0002C6864B1A36A2B6020462C2112F032FD87
:105500002C680B48042114F075F8002CF2D100230C
:105510002B606B60AB60EB600421064814F06AF806
:10552000054811F031FF284638BD00BFD8560200AB
:10553000C84B0200C04B02001871FF1F84B02DE958
:10554000F843064609AC2C2084E80E009DF84490F0
:10555000DDF8488012F002FD2C220021074619F0E8
:10556000F1F80FCC3D460FC594E80F00B46885E80C
:105570000F0087F82490C7F8208004B1A7627368F1
:10558000B760002B39D03368002B3AD0182121485E
:1055900014F030F8204811F0F7FE08211F4814F0ED
:1055A00029F800230A2231681B4811F0FDFE1A4831
:1055B00011F0EAFE08211A4814F01CF800230A2210
:1055C0007168154811F0F0FE134811F0DDFE082156
:1055D000144814F00FF800230A22B1680E4811F0A5
:1055E000E3FE0D4811F0D0FE736813B19A6A93423E
:1055F00009D0BDE8F84304B0704733687760002BEA
:10560000C4D13760C2E7BDE8F843074804B0FFF7EC
:105610003FBF00BF105702001871FF1FFC4D020072
:105620002C570200084E02007450020070B54C68FE
:1056300000230646037044B10FCC35460FC594E8ED
:105640000F0085E80F00304670BD03490348FBF7A3
:1056500065FE304670BD00BF385702004C2E00205A
:10566000436810B51BB193F82440204610BD034990
:105670000348FBF753FE204610BD00BFA84D0200B3
:105680004C2E00204068003018BF0120704700BF3A
:10569000436810B513B11C6A204610BD0249034887
:1056A000FBF73CFE204610BD6C5702004C2E00203C
:1056B00038B5194C05461821184813F09BFF2046B1
:1056C00011F062FE0821164813F094FF00230A220D
:1056D0002968204611F068FE204611F055FE082189
:1056E000104813F087FF00230A226968204611F052
:1056F0005BFE204611F048FE08210B4813F07AFFAC
:105700000023A9680A22204611F04EFE204611F01F
:105710003BFE2B686B6038BD1871FF1F9457020069
:10572000FC4D02002C570200084E0200436833B1C2
:105730009A6A934210B5044602D0626010BD704769
:105740000348FFF7A5FE6368002BF7D09A6AF4E7D9
:10575000F04E0200436999420AD08368C2689942B8
:1057600003DB91420B46A8BF1346436101207047FB
:10577000002070470020704781600120704700BF03
:1057800000207047C1600120704700BF00207047B3
:1057900001610120704700BF0020704740687047DA
:1057A00090ED050AB8EEC00A704700BF90ED040AFC
:1057B000B8EEC00A704700BF90ED020AB8EEC00A0A
:1057C000704700BF90ED030AB8EEC00A704700BFF3
:1057D000007E704700207047D0ED057AB4EE670A6E
:1057E000F1EE10FA19D0D0ED027A90ED037AB4EE12
:1057F000E70AF1EE10FA03D5C0ED057A01207047F3
:10580000B4EEC70AF1EE10FAD4BFF0EE407AF0EE33
:10581000477AC0ED057A012070470020704700BF2D
:1058200080ED020A012070470020704780ED030AD6
:10583000012070470020704780ED040A0120704766
:10584000002070474068704790ED050A704700BF20
:1058500090ED040A704700BF90ED020A704700BF48
:1058600090ED030A704700BF007E704710B5FE231D
:10587000044640F8043B0DF059FD04F124000DF0FE
:1058800055FD204610BD00BF10B5044617210D4838
:1058900013F0B0FE21780C480DF014FE40B1142135
:1058A0000A4813F0A7FE0A48BDE8104011F06CBD8D
:1058B0001621084813F09EFE0548BDE8104011F07F
:1058C00063BD00BF8458020018910020B458020044
:1058D0001871FF1F9C580200F0B5084683B0B44908
:1058E0001AF0BCFC002800F085800446B149002075
:1058F0001AF0B4FC00287DD0AE4900201AF0AEFCAE
:105900000546002876D0AC49204619F03DFA0646F7
:10591000002800F09C800021204619F035FA00286C
:105920006AD1A649204619F02FFA002864D0A4496C
:10593000204619F029FA002800F0BA80A149204633
:1059400019F022FA002800F0BB809F49204619F088
:105950001BFA002800F0C7809C49204619F014FA71
:10596000002800F0C8809A49204619F00DFA002856
:1059700000F0C7809749204619F006FA002800F089
:10598000CB809549204619F0FFF9002800F0D4801B
:105990009249204619F0F8F9002800F099809049C2
:1059A000204619F0F1F9002800F0D1808D492046F9
:1059B00019F0EAF9002800F0D7808B49204619F049
:1059C000E3F9002800F0DD808849204619F0DCF971
:1059D000002800F0E1802046854919F0D5F948B942
:1059E000844B28461C6818F0EBFA2146C2B2824864
:1059F00006F088FB03B0F0BD0821804813F0FAFDE3
:105A0000284619F09DFB0146284613F0F3FD7C481B
:105A100011F0BAFC284618F0D3FA0146764805F092
:105A20005BFC0721774813F0E5FD012018F016FB19
:105A3000044618F01BFB01A9091B00230A22704829
:105A400011F0B2FC6E4811F09FFC03B0F0BD0621CE
:105A50006D4813F0CFFD284619F072FB0146284629
:105A600013F0C8FD664811F08FFC284618F0A8FA1C
:105A7000C1B2614805F0E2FC0721624813F0BAFDAB
:105A8000012018F0EBFA074618F0F0FA01A9C91B3B
:105A900033460A225A4811F087FC594811F074FC29
:105AA0000021204619F070F900283FF43AAFA3E72F
:105AB000284618F085FAC1B24F4806F087FA99E7F0
:105AC000284618F07DFAC1B24B4806F06DFA91E70E
:105AD000484B28461C6818F073FA2146C2B2464863
