:1000000000000320D1010000898501004185010025
:1000100041850100418501004185010041850100C4
:10002000418501004185010041850100898501006C
:10003000898501004185010091A0010095A1010081
:100040008985010089850100898501008985010074
:100050008985010089850100898501008985010064
:100060008985010089850100898501008985010054
:100070008985010089850100898501008985010044
:100080008985010089850100898501008985010034
:100090008985010089850100898501008985010024
:1000A000892E0100952E01008985010089850100B6
:1000B000898501008985010089850100DDA1010094
:1000C0008985010009A301008985010035A401008B
:1000D000898501002DA50100898501008985010020
:1000E00089850100898501008985010089850100D4
:1000F00089850100898501008985010089850100C4
:1001000089850100898501008985010089850100B3
:1001100089850100918F0100898501008985010091
:100120008985010089850100898501008985010093
:100130008985010089850100898501008985010083
:10014000757801008985010025A6010089850100D7
:100150008985010089850100898501008985010063
:100160008985010089850100A12E01008985010092
:100170008985010089850100898501008985010043
:100180008985010089850100898501008985010033
:1001900089850100898501001DA70100898501006D
:1001A0008985010089850100898501008985010013
:1001B0008985010089850100898501008985010003
:1001C00089850100898501008985010089850100F3
:1001D0005C4B4CF2205210B51A804DF628121A8052
:1001E00000BF00BF18F0D4F9574B4FF030621A60CF
:1001F000564A9A60564ADA60564B4FF470021A60BB
:10020000554B564A1A60564B1A78110703D51A787F
:1002100042F008021A70534B5349AA221A70534AEB
:10022000534B8B4204D252F8040F43F8040BF8E707
:10023000504B514900228B4202D243F8042BFAE77B
:100240004E494F4A002352F8230041F8230001335E
:10025000742BF8D14B4B4C4A802103F8011B93427D
:10026000FBD14A4B454A1A60494B8A221A70A3F5C2
:10027000805324225A70A0221A709A799207FCD5D2
:100280009A79D406FCD4434A937903F00C03082BE3
:10029000FAD1414B60221A7002331A78802AFCD1BD
:1002A0003C4B01221A715D225A719A799006FCD555
:1002B0009979384A4906FBD5384B394919600021EC
:1002C000596020231370937903F00C030C2BFAD19F
:1002D000344B354A1A60354A354C136813F4807331
:1002E00003D123604FF4A8531360324B324A1A6093
:1002F00000225A60072243F8042C304AC3F80C2D20
:1003000062B618F0B5FC2368DA0705D52C4818F05A
:10031000E7FB2C4B2C4A1A602C4B1B785B0609D54B
:10032000284C294B22689A4204D1254818F0D8FB62
:10033000002323601EF0DEF918F030F918F05EF8A3
:10034000FEE700BF0E20054030800440823F0400DD
:100350000100002B88ED00E0002008E0030000858C
:1003600002D0074000E00740C07BFF1F989B0200BF
:10037000306FFF1FC07BFF1F30990020006AFF1FF6
:100380000000000000E400E064E400E008ED00E0AC
:10039000005006400040064001E007404480044011
:1003A0000000060204800440C010070010D0034083
:1003B00014D0034014E000E01FBF02000000202022
:1003C000E392AB5E1CE00340A5C3945A00F00740E3
:1003D000FFFFFFFFFFFFFFFFFFFFFFFFFFFFFFFF2D
:1003E000FFFFFFFFFFFFFFFFFFFFFFFFFFFFFFFF1D
:1003F000FFFFFFFFFFFFFFFFFFFFFFFFFFFFFFFF0D
:10040000FFFFFFFFFFFFFFFFFFFFFFFFDEF9FFFF23
:1004100010B5054C237833B9044B13B10448AFF33E
:1004200000800123237010BDC07BFF1F000000006F
:10043000949B0200084B10B51BB108490848AFF364
:1004400000800848036803B910BD074B002BFBD0A0
:10045000BDE81040184700BF00000000C47BFF1F2C
:10046000949B0200C07BFF1F0000000010B52422F7
:10047000044600211EF0DEFC002384F8243084F8BA
:100480002530204610BD00BFF8B5074690F824007F
:100490000D461646E0B13A46002404E00134844299
:1004A00002F1030212D01178A942F7D19178994252
:1004B000F4D104EB44043C446670A370062D5ED86E
:1004C000DFE805F031161D242B1031000A2C2BDC3F
:1004D00000EB40017A18013087F824007D545670F3
:1004E0009370EBE72E492F48BDE8F84001F050B972
:1004F00032462D492B48BDE8F84001F0D7BF3246BF
:100500002A492848BDE8F84001F0D0BF32462849C2
:100510002448BDE8F84001F0C9BF26492148BDE89C
:10052000F84001F035B9F8BD23491E4800F0B8FF86
:100530000421224819F0D6FB2146214817F0EAFA97
:100540001721204819F0CEFB00230A2297F8241027
:100550001B4817F09FFA10211B4819F0C3FB0C2110
:10056000174817F0D7FA0B21184819F0BBFB29469A
:10057000134817F0CFFA124817F07CFA9EE7144997
:10058000084800F08DFF1521124819F0ABFB2946F1
:100590000B4817F0BFFA0A48BDE8F84017F06ABAEE
:1005A000A44C0200C42E0020644C0200744C0200D3
:1005B000804C0200904C0200104C0200244C0200BF
:1005C0001871FF1F2C4C0200444C0200584C0200D2
:1005D000B44C0200C84C020038B590F825300B2B03
:1005E000044627D91F49204800F05AFF17211F4809
:1005F00019F078FB00230A2294F825101C4817F004
:1006000049FA17211B4819F06DFB00230A2294F8C0
:100610002410174817F03EFA1021174819F062FB12
:100620000C21134817F076FA0025114817F022FA2A
:10063000284638BD03EB430317210C48E55C19F04D
:1006400051FB00230A2294F82510094817F022FADA
:100650000B210A4819F046FB2946054817F05AFABB
:10066000284638BDF84C0200C42E0020E04C0200A1
:100670001871FF1F2C4C0200444C0200584C020021
:1006800090F825300B2B04D803EB43031844407833
:10069000704710B513490446134800F001FF1721B5
:1006A000124819F01FFB00230A2294F82510104865
:1006B00017F0F0F917210F4819F014FB00230A2254
:1006C00094F824100A4817F0E5F910210A4819F0A7
:1006D00009FB0C21064817F01DFA054817F0CAF966
:1006E000002010BD0C4D0200C42E0020E04C020082
:1006F0001871FF1F2C4C0200444C020090F825306A
:100700000B2B04D803EB430318448078704710B5D3
:1007100013490446134800F0C3FE1721124819F08C
:10072000E1FA00230A2294F82510104817F0B2F9D4
:1007300017210F4819F0D6FA00230A2294F8241042
:100740000A4817F0A7F910210A4819F0CBFA0C2132
:10075000064817F0DFF9054817F08CF9002010BDA6
:10076000204D0200C42E0020E04C02001871FF1F33
:100770002C4C0200444C020090F825300133DBB2CF
:100780000B2B80F825308CBF00200120704700BF64
:10079000002380F8253070470022134680F824207B
:1007A00080F82520C2540333242BFBD1704700BFAF
:1007B000FFF7F2BF70B5044615460E460846022103
:1007C00018F0B4F92846022118F0B0F9104A114B7C
:1007D00052F83610012001F500762072266052F89A
:1007E0003520607202F5007500206560E060013B15
:1007F000FDD191F8003292F8002203F00103D207F4
:1008000044BF43F00203DBB2A372204670BD00BFB9
:100810005C900200C0D4010090F814322DE9F0473A
:100820000746002B7CD1DFF80C82794AD8F800000B
:10083000D468784D784E92F809E092E80A0091F871
:10084000009093F800C0117A714B1CEA0E0F09EA70
:1008500001015DD09B7A03F0030309B143F0040367
:1008600043F008039910013B91720D2B0AD8DFE881
:1008700003F075077207096F75756F0907720775C1
:10088000013CD460A04219D0DFF89891DFF890A124
:10089000D9F80030002C2246B8BFE21C92109A42D0
:1008A000CAF8002008D04FF47A715C480EF0FEF9C7
:1008B000DAF80030C9F80030C8F800402B686968E1
:1008C0001A78687A0C782B7A5249044202EA0302B9
:1008D00016D08B7A03F003030AB143F0040343F00C
:1008E00008039A10013BAA720D2B00F28180DFE809
:1008F00003F07B7766777F387B7B387F7766777B03
:100900008B7A03F00303002AEBD043F00403E8E7FB
:100910009B7A03F003030029A4D043F00403A1E76A
:100920003F4E404C40484149394ADFF80881394D33
:1009300000233360384E2360036087F814321C466E
:100940000B601846D360C8F80030EB60336072E784
:10095000023CD46096E70234D46093E70134D4605B
:1009600090E7EC68023CEC6007F5AE7016F0E4FD31
:100970002F4B00282DD11A68042A3BDC3268A41AB8
:1009800004EB840402EB44049442EC6026D01A6821
:10099000264D254F0132002C1A6022462B68B8BF25
:1009A000E21C92109A423A6006D040F2E9311B48AC
:1009B0000EF07CF93B682B603460BDE8F087EC6892
:1009C0000234EC6007F5AE7016F0B6FD184B002847
:1009D000D1D03268002194421960D8D1BDE8F087A7
:1009E000EC68013CEC60BFE7EC680134EC60BBE70D
:1009F000EC68B9E7092A326805DCA41A04EB840420
:100A000002EB8404C0E76421A41A01FB0424BBE7C1
:100A1000107CFF1F207CFF1F847CFF1FA867002025
:100A2000547CFF1F5C7CFF1F587CFF1F607CFF1FF6
:100A3000DC7BFF1F7C7CFF1FF8B590F81432002B85
:100A400047D12F4D2F4A2868D468577A92E848003A
:100A5000197896F800E0137A2A4E1EEA070F01EA89
:100A600003012ED0B37A03F0030309B143F004036A
:100A700043F008039910013B91720D2B0AD8DFE86F
:100A800003F03C07390709363C3C36090739073C77
:100A9000013CD460A04213D01B4E1C4F3368002C85
:100AA0002246B8BFE21C92109A423A6006D04FF438
:100AB0007A71174804F052FE3B6833602C60F8BD31
:100AC000F8BDB37A03F003030029D3D043F0040345
:100AD000D0E70E4E0C490B4A094D002380F8143222
:100AE0001C4633600B601846D3602B60ADE7023CB8
:100AF000D460CFE70234D460CCE70134D460C9E7D6
:100B00008C7CFF1F107CFF1FB47CFF1FB07CFF1F7D
:100B1000A82D00202DE9F84F002383461D460E46E0
:100B200080F87431994600F5D67A00F180081024D7
:100B3000012706E08BF8747101350134102DE4B201
:100B400016D05AF8043F002BF6D0B342F2D8DBF8A7
:100B50001032CAF800905B5D2146404653B901351A
:100B600012F064FD0134102D8BF87571E4B2E8D1F8
:100B7000BDE8F88F12F01AFD0028DDD1214640466D
:100B800012F036FD8BF87571D6E700BF38B5144CFE
:100B90000C40002C1FDB031993F8A0516DB9012202
:100BA00083F8A021C9B2803012F022FD2A462146E6
:100BB0000C48BDE838400BF02BBC002283F8A02184
:100BC000C9B2803012F032FD214601220548BDE84D
:100BD00038400BF01DBC013C64F00F040134DAE72F
:100BE0000F0000800031002038B5144C0C40002C60
:100BF0001FDB031993F8A0216AB90125C9B280301F
:100C000083F8A05112F0F4FC2A4621460C48BDE8B6
:100C100038400BF011BC0025C9B2803083F8A051D8
:100C200012F004FD2A4621460548BDE838400BF085
:100C300003BC013C64F00F040134DAE70F000080CC
:100C40000031002038B5144C0C40002C1FDB031978
:100C500093F8A0216AB90125C9B2803083F8A05168
:100C600012F0C6FC2A4621460C48BDE838400BF07D
:100C700083BD0025C9B2803083F8A05112F0D6FCA4
:100C80002A4621460548BDE838400BF075BD013CB9
:100C900064F00F040134DAE70F0000800031002017
:100CA000154B0B40002B10B504461FDB234493F873
:100CB00080216AB9012283F88021C9B204F1800041
:100CC00012F096FC012384F8153284F8143210BD1A
:100CD000002283F88021C9B204F1800012F0A6FC42
:100CE000012384F8153284F8143210BD013B63F0FF
:100CF0000F030133DAE700BF0F0000802DE9F8434E
:100D000080460F4600F1800600F29F1510244FF038
:100D1000000903E00134E4B2202C0DD015F8013FA6
:100D2000002BF7D0214601343046E4B212F07EFCAD
:100D3000202C85F80090F1D1094B3B40002B09DBBA
:100D400043440122F9B2304683F8A021BDE8F843BC
:100D500012F04EBC013B63F00F030133F0E700BF1C
:100D60000F000080F8B507464D1E00F180061024E4
:100D700005E00134E4B212F03BFC202C0DD015F854
:100D8000013F21463046002BF3D121460134304645
:100D9000E4B212F04BFC202CF1D1012387F875311D
:100DA000F8BD00BF38B500F5D0750446C0F8105244
:100DB00000F29F13002200F2AF1003F8012F8342CC
:100DC000FBD106480BF00CF92318012229462046D6
:100DD00083F89F21BDE83840FFF7C4BF00310020F1
:100DE00038B505460C480BF0ADF905F5D071C5F8DE
:100DF000101205F29F1305F2AF14002203F8012F21
:100E0000A342FBD12B180122284683F8A021BDE87C
:100E10003840FFF7A7BF00BF0031002038B50546B6
:100E20000C480BF09DFF05F5D071C5F8101205F2C6
:100E30009F1305F2AF14002203F8012FA342FBD148
:100E40002B180122284683F8A021BDE83840FFF77F
:100E500089BF00BFA867002038B500F5D0750446EB
:100E6000C0F8105200F29F1300F2AF11002203F8F5
:100E7000012F8B42FBD12946044810220AF044FF7F
:100E800029462046BDE83840FFF76CBF00310020FE
:100E9000B64B1B6870B5013B00F5AA7504462846A1
:100EA0000C2B00F28480DFE803F04B4B6C4B4B8241
:100EB0004B4B4B25824B070016F006FB002840F0F9
:100EC000038104F5AE75284616F0FEFA002840F0BE
:100ED0009E8004F5B275284616F0F6FA002840F018
:100EE000518104F5B674204616F0EEFA002840F061
:100EF000D38070BD16F0E8FA002840F0D48004F5E5
:100F0000AE75284616F0E0FA002840F0068104F598
:100F1000B275284616F0D8FA002840F0AB8004F5E8
:100F2000B674204616F0D0FA0028E2D0204616F01B
:100F300011FB002800F040818D4B0022DA6070BD6B
:100F400016F0C2FA002840F0DE8004F5AE7528469F
:100F500016F0BAFA002840F0F68004F5B27528467B
:100F600016F0B2FA002864D104F5B674204616F0E3
:100F7000ABFA0028BDD0204616F0ECFA0028DBD1F1
:100F800070BD16F0A1FA0028B3D0284616F0E2FA98
:100F9000002800F01281774A636A0021D160002B9B
:100FA00000F00C814FF47A70BDE87040184716F0DD
:100FB0008BFA00284ED104F5AE75284616F084FA57
:100FC000002840F0AE8004F5B275284616F07CFA91
:100FD00060B904F5B674204616F076FA002888D079
:100FE000204616F0B7FA0028A6D170BD284616F0A4
:100FF000B1FA0028EDD0604B002204F5B674DA6037
:10100000204616F061FA00283FF473AFE8E728465F
:1010100016F0A0FA00283FF45CAF584B002204F50C
:10102000B275DA60284616F04FFA00283FF459AF3F
:10103000A8E0284616F08EFA002895D04E4B0022E4
:1010400004F5B674DA60204616F03EFA00283FF444
:1010500050AF90E7284616F07DFA0028ABD0454BFC
:10106000002204F5AE75DA60284616F02DFA002845
:10107000A9D056E0284616F06DFA00283FF44FAF8D
:101080003D4B002204F5B674DA60204616F01CFAD7
:1010900000283FF42EAF49E7204616F05BFA0028FF
:1010A0007FF44AAF70BD284616F054FA00283FF48A
:1010B00026AF304A636A0021D160002B3FF41FAF96
:1010C0004FF47A7098471AE7284616F043FA00283A
:1010D0003FF4F7AE2A480AF0EBFE421E54FA82F2C1
:1010E00092F8A03183F0010382F8A031002B5BD18C
:1010F00000F10F01C9B204F1800012F097FA012348
:1011000084F87531DDE6284616F024FA00283FF40D
:101110001CAF1B480AF0CCFE17E7284616F01AFA57
:10112000F5E6284616F016FA00283FF44CAF134BAC
:10113000002204F5B275DA60284616F0C5F90028D9
:101140003FF447AF52E7284616F004FA00283FF470
:1011500004AF0A4B002204F5B275DA60284616F097
:10116000B3F900283FF400AF63E700BFBC6FFF1F77
:10117000407CFF1F107CFF1F307CFF1F207CFF1F67
:1011800000310020284616F0E5F900283FF4A9AE0A
:101190000B4B002204F5B674DA60204616F094F981
:1011A00000283FF4A6AE77E700F10F01C9B204F1C1
:1011B000800012F01DFAA2E770BD70BD70BD00BFC7
:1011C000307CFF1FA1F57A71032906D8DFE801F012
:1011D0000E0A0602074B0022DA607047064B002217
:1011E000DA607047054B0022DA607047044B00223A
:1011F000DA607047407CFF1F307CFF1F207CFF1FA0
:10120000107CFF1F70B500F586750446284616F061
:101210005BF900B970BD284616F09CF90028F9D09A
:10122000A36ABDE87040184708B590F8A40017F00D
:1012300067F8084A1368C0F58040A3F1640188424A
:1012400002DB6433984201DD106008BD4FF0FF30CF
:1012500008BD00BF6C7CFF1F08B590F8A80017F010
:101260004FF8074A1368A3F16401884202DB643334
:10127000984201DD106008BD4FF0FF3008BD00BF8F
:10128000647CFF1F30B500F58A7483B005462046A4
:1012900016F01AF930B9204616F052F980B900203C
:1012A00003B030BD204616F055F90028F3D00A4BA4
:1012B0001B680193019BC5F8B030012003B030BD1D
:1012C00095F824320020042BC5F8B000E7D185F84A
:1012D0002402A5F82602E3E7C8940020054B82B05B
:1012E0001B680193019B03F5FA63C0F8283202B032
:1012F000704700BFC8940020054B82B01B68019363
:10130000019B03F5FA63C0F82C3202B0704700BFAE
:10131000C8940020F0B5B1B007462849284E684669
:10132000144616F093FD274904A816F08FFD2649B0
:1013300008A816F08BFD25490CA816F087FD244956
:1013400010A816F083FD234914A816F07FFD22494A
:1013500018A816F07BFD21491CA816F077FD20493E
:1013600020A816F073FD1F4924A816F06FFD1E4932
:1013700028A816F06BFD1D492CA816F067FD86FB0A
:101380000426E317C3EB660606EB4601A4EB8101D6
:10139000C9B20DEB0111384616F06CFDF1B23846BA
:1013A00016F0FCFD6D4630AC103C204616F00EFDEC
:1013B000AC42F9D1384631B0F0BD00BF644D0200F7
:1013C000ABAAAA2A684D0200B44E02006C4D02007E
:1013D000C44C020034500200704D0200585102000B
:1013E000744D0200784D02007C4D0200804D0200D9
:1013F000F0B5144DDFF854E00E4617460FCD8FB010
:1014000002AC0FC40FCD0FC495E80F008EFB065E33
:10141000F517C5EB6E0584E80F0005EB450EA6EB4E
:101420008E060EABF6B203EB8606EDB256F8303CF4
:10143000054A0095384604211DF058FF38460FB084
:10144000F0BD00BF344D0200844D0200ABAAAA2AB1
:1014500010B5012200210D48FFF7ACF9032202214B
:101460000B48FFF7A7F9052204210A48FFF7A2F964
:10147000082206210848FFF79DF921232322222173
:101480000648BDE8104011F013BD00BF107CFF1FDF
:10149000207CFF1F307CFF1F407CFF1F907CFF1FC4
:1014A00010B586B00B460A4C0A4A684615211DF055
:1014B0001DFF00221146204611F026FE68461EF050
:1014C0009FF969460246204616F098FA06B010BD0C
:1014D000907CFF1F8C4D020070B5324D044632489F
:1014E0000AF08EFD2B68052B064645D0072B2AD027
:1014F000042B10D020462D49FFF7D2FF06212C489F
:1015000018F0F0FB29682B4816F004FB2948BDE8C9
:10151000704016F0AFBA68B104F29F140025294656
:1015200021480AF0B5FD013580F00100B54204F80C
:10153000010FF4D10921204818F0D4FB1D48BDE863
:10154000704016F097BA70B104F29F140025294636
:1015500015480AF0C1FD0135003018BF0120B54221
:1015600004F8010FF3D10B21144818F0BBFB11480C
:10157000BDE8704016F07EBA58B104F29F14002501
:10158000294609480AF096FD0135B54204F8010FD5
:10159000F6D109210A4818F0A5FB0648BDE87040BD
:1015A00016F068BABC6FFF1F00310020C44D020066
:1015B000F44D02001871FF1FB84D0200A04D02004B
:1015C000AC4D020010B588B00B4600920A4C0B4A95
:1015D00002A815211DF08AFE00221146204611F0B6
:1015E00093FD02A81EF00CF902A90246204616F04F
:1015F00005FA08B010BD00BF907CFF1FFC4D020033
:1016000030B5D0F818120C4C0C4A87B005460131A1
:1016100068461DF06BFE0021C5F828122046022204
:1016200011F072FD68461EF0EBF86946024620464E
:1016300016F0E4F907B030BD907CFF1F104E020099
:1016400030B5D0F81C120C4C0C4A87B0054601315D
:1016500068461DF04BFE0021C5F82C1220460122E1
:1016600011F052FD68461EF0CBF86946024620464E
:1016700016F0C4F907B030BD907CFF1F104E020079
:1016800010B5D0F8283282B004462BB10E4A126849
:101690000092009A934210D3D4F82C325BB10A4ADC
:1016A00012680192019A934205D22046FFF7C8FFC3
:1016B0000023C4F82C3202B010BDFFF7A1FF0023B5
:1016C000C4F82832E8E700BFC894002070B50D4D7B
:1016D0000C460646FFF794FF02220021284611F02F
:1016E00013FD20461EF08CF821460246284616F0CF
:1016F00085F920461EF084F8142828BF1420C6F867
:10170000180270BD907CFF1F70B50E4C05460E464A
:1017100020460122002111F0F7FC13220A4920463D
:1017200016F06CF920460222002111F0EDFC314642
:10173000204616F079F91323C5F81832C5F81C3283
:1017400070BD00BF907CFF1F284E020010B586B010
:101750000B460D4A0D4C152168461DF0C7FD684625
:101760001EF04EF8C0F11001C9B22046002211F05F
:10177000CBFC68461EF044F869460246204616F047
:101780003DF906B010BD00BF3C4E0200907CFF1F2B
:1017900070B5114D0C460646FFF732FF284602226F
:1017A000002111F0B1FC20461EF02AF82146024625
:1017B000284616F023F920461EF022F8C6F8180233
:1017C00020461EF01DF80146204618F08BFA03480B
:1017D000BDE8704016F04EB9907CFF1F1871FF1FD6
:1017E0002DE9F04F2DED028B91B000F5C071039003
:1017F0007C480AF035FA002840F09180039B029063
:10180000FF2706468046814601900446BB463D467A
:10181000009703F27F1AB7EE008A02E00134102C21
:101820004FD01AF8012F002AF8D0224608A86D4997
:101830000AF018F89DF824200098824208D00199F7
:101840000131CBB290420193034628BF1346009367
:10185000DDED0D7AF4EE487AF1EE10FA03D0029A3B
:101860000132D3B20293F4EEC87AF1EE10FA2146B7
:101870005C48D8BFB0EE678A0AF0E6FBA84207D002
:10188000854209F1010928BF05465FFA89F9EDB2E1
:101890009DF839205A4506D008F1010893455FFAB2
:1018A00088F828BF93469DF83820BA42B6D09742B0
:1018B00004F1010406F1010628BF1746102CF6B208
:1018C000AFD101220021484811F01EFC12224749E5
:1018D000454816F093F8294604A816F0E9FAB9F13C
:1018E000010F25D9424920E0424904A816F048FBDF
:1018F000069B112BF8D9022200213B4811F004FC71
:1019000004A9394816F090F8039C102312220DEB1D
:101910000300C4F81822C4F81C3216F057FA11B0AC
:10192000BDEC028BBDE8F08F324904A816F028FB0D
:10193000069B022BF8D9594608A816F0B9FA08A94F
:1019400004A816F019FB08A816F040FAB8F1010F28
:1019500005D9274900E0274904A816F011FB069B8A
:10196000052BF8D9394608A816F0A2FA08A904A848
:1019700016F002FB08A816F029FA012E05D91C4919
:1019800000E01C4904A816F0FBFA069B082BF8D9C6
:10199000009A039908A8FFF7BDFC08A904A816F04F
:1019A000EBFA08A816F012FA019B012B05D9104991
:1019B00000E0104904A816F0E3FA069B0C2BF8D9B6
:1019C000B0EE480A022108A816F086FA08A904A871
:1019D00016F0D2FA08A816F0F9F9029B012B87D964
:1019E000034982E700310020907CFF1F544E020023
:1019F000684E0200AC4E020010B502220C460B48A5
:101A0000122111F081FB0A490848022215F0F6FF65
:101A1000082CD4BF132112210448022211F074FBB8
:101A200021460248BDE8104016F074B8907CFF1FB4
:101A30009C4D020038B504460E4809F031FF04F50C
:101A4000D0710546C4F8101204F29F1304F2AF10CF
:101A5000002203F8012F8342FBD1631901222046A3
:101A600083F8A021FFF77EF929462046BDE83840DB
:101A7000FFF7C2BF0031002010B503220C460B480F
:101A8000122111F041FB0A490848022215F0B6FF65
:101A9000082C94BF132112210448032211F034FBB7
:101AA000611C0248BDE8104016F034B8907CFF1F5E
:101AB0009C4D020030B5204B1B7883B004460D4688
:101AC0001BB91E4B1B68092B12D01D48A46B09F0D3
:101AD000F5FE1C4929400029024604DBC9B2022058
:101AE000A04703B030BD013961F00F010131F5E7C6
:101AF000FFF704F913492940002918DBCDB2294624
:101B00000F4809F0F3FE0E4809F0BCFE01462046DE
:101B1000FFF73EFE0C4B1B680193019B03F5FA6334
:101B20002946C4F828322046FFF7A6FFD9E7013935
:101B300061F00F010131E1E7F9660020BC6FFF1F82
:101B4000003100200F000080C894002010B5022250
:101B50000C460D480F2111F0D7FA0C490A48022211
:101B600015F04CFF092C4FF0020294BF10210F21F9
:101B7000054811F0C9FA214600230A220248BDE8AF
:101B8000104015F087BF00BF907CFF1F9C4D0200E6
:101B900038B504460E4809F091FE04F5D0710546AB
:101BA000C4F8101204F29F1304F2AF10002203F8DD
:101BB000012F8342FBD163190122204683F89F2124
:101BC000FFF7D0F829462046BDE83840FFF7BEBFF2
:101BD0000031002038B5594D2B68013B04460C2BD1
:101BE00000F2A180DFE803F05F6B6D07071A07269C
:101BF000313C4A948900002300F5D075026A4362A3
:101C0000012380F83132C0F810528262FFF764FC81
:101C100029462046BDE83840FFF7A4B8036A83622E
:101C2000002200F5C0714262C0F81012BDE83840D1
:101C3000FFF798B88368026A4362012380F8313263
:101C40008262BDE83840FFF7ADB80023026A436204
:101C5000012380F831328262BDE83840FFF7C0B816
:101C6000C36A026A4362012380F831328262FFF75D
:101C7000D5F83348BDE838400BF0EEBE036A836206
:101C800000F5D07100224262C0F8101200F29F13DA
:101C900000F2AF1003F8012F8342FBD12046BDE8CC
:101CA0003840FFF75FB8C368226A63620123A2620B
:101CB00084F831322046BDE83840FFF7BBBE0369E7
:101CC000F2E7036B026A436200F5D071012382627E
:101CD00080F83132C0F8101200F29F13002200F297
:101CE000AF1003F8012F8342FBD12046FFF73AF8EB
:101CF0001448BDE8384003F06DBC0023026A43621B
:101D0000012380F831328262BDE83840FFF7A4B881
:101D1000436B026A4362012380F831328262BDE87C
:101D20003840FFF735BF2921074817F0DBFF296846
:101D30000648BDE8384015F0EDBE00BFBC6FFF1F80
:101D4000A8670020A82D00206C4E02001871FF1F0C
:101D5000134A144B126870B553F82250124C86B0D7
:101D6000064628461DF04CFDD6F820120F4AC6F84C
:101D700020028142B8BF01462B46013168461DF062
:101D8000B5FA20460122002111F0BEF968461DF087
:101D900037FD69460246204615F030FE06B070BD9C
:101DA000BC6FFF1F7C6FFF1F907CFF1F984E0200CF
:101DB00070B500F5927586B00446284615F084FB90
:101DC000002840F02581284615F0BAFB002840F095
:101DD000E88004F59A75284615F076FB002840F057
:101DE000F380284615F0ACFB002840F0A38004F5F2
:101DF0009675284615F068FB002840F0AE8028460E
:101E000015F09EFB002870D104F59E75284615F04C
:101E10005BFB002873D1284615F092FB00283FD1C8
:101E200004F5A275284615F04FFB002842D128463C
:101E300015F086FB70B904F5A675284615F044FB2D
:101E400090B9284615F07CFB10B10023C4F8CC30C3
:101E500006B070BD002304F5A675C4F8C830284646
:101E600015F032FB0028ECD0284615F073FB002853
:101E7000E7D02046FFF7C4FB964B092220461A60A4
:101E8000FFF7A8FE2046FFF763FF934B1B680593FF
:101E9000059BC4F8CC30012384F8143206B070BD21
:101EA000002304F5A275C4F8C430284615F00CFBD5
:101EB0000028BCD0284615F04DFB0028B7D020469E
:101EC000FFF79EFB834B082220461A60FFF782FE35
:101ED0002046FFF73DFF804B1B680493049BC4F82A
:101EE000C830012384F81432A5E7002304F59E7559
:101EF000C4F8BC30284615F0E7FA00288BD02846F5
:101F000015F028FB002886D02046FFF779FB714B9F
:101F1000072220461A60FFF75DFE2046FFF718FFF4
:101F20006D4B1B680393039BC4F8C430012384F8F2
:101F3000143275E794F824220023032A04F59675D9
:101F400004BF84F82432A4F82632C4F8C0302846EE
:101F500015F0BAFA00283FF452AF284615F0FAFA05
:101F600000283FF44CAF2046FFF74AFB594B1A6854
:101F7000052A00F08C80042A00F09480574A1268E9
:101F80001A602046FFF726FE2046FFF7E1FE524B7F
:101F90001B680293029BC4F8BC30012384F81432FE
:101FA00032E794F824220023022A04F59A7504BF2C
:101FB00084F82432A4F82632C4F8B830284615F044
:101FC00083FA00283FF40DAF284615F0C3FA002825
:101FD0003FF407AF2046FFF713FB3E4A1368062B7A
:101FE00050D00C2B58D00D2B42D03D4B1B681360AA
:101FF0002046FFF7EFFD2046FFF7AAFE364B1B6891
:102000000193019BC4F8C030012384F81432EEE63A
:10201000284615F09FFA00283FF4D5AE2046FFF77A
:10202000EFFA2C4A1368012B27D0022B3FD0032B49
:1020300014D00A2B45D02B4B1B6813602046FFF7AA
:10204000C9FD2046FFF784FE234B1B680093009BCD
:10205000C4F8B830012384F81432BAE6214D22497D
:1020600001264FF0FF300A232E6008601360E5E779
:102070001B4906230B601360BAE71A48022103606C
:102080001160DBE716480C2103601160B0E71349CB
:1020900004220A601A6074E7114906200D230860C3
:1020A0001360A5E70D4905220A601A6069E70D4D26
:1020B0000D4901264FF0FF3003232E6008601360A6
:1020C000BCE7084D084901234FF0FF302B60136037
:1020D0000860B3E7BC6FFF1FC8940020386FFF1F74
:1020E000346FFF1F3C6FFF1FB86FFF1F70B50446B2
:1020F00016480E4609F0E2FB06F00F030133984242
:1021000006D004F5D0712046BDE87040FEF72ABE27
:10211000054631462046FEF7F1FD29462046FFF7E9
:1021200015FD0A480AF00EF801462046FFF7A4FC08
:10213000074B062220461A60FFF74CFD2046FFF7AA
:1021400007FE012384F8143270BD00BF0031002067
:10215000BC6FFF1F10B500220C461248112110F071
:10216000D3FF032210490F4815F048FC632C4FF0B1
:1021700000020CDC092CCCBF12211321094810F0FD
:10218000C3FF21460748BDE8104015F0C3BC11212C
:10219000044810F0B9FF21460248BDE8104015F090
:1021A000B9BC00BF907CFF1F4C4E020010B501224D
:1021B0000C461248112110F0A7FF032210490F48C6
:1021C00015F01CFC092C4FF001020CDD632CD4BF70
:1021D00012211121094810F097FF21460748BDE858
:1021E000104015F097BC1321044810F08DFF2146D4
:1021F0000248BDE8104015F08DBC00BF907CFF1F69
:102200004C4E0200F0B587B005460C9F0D9E0E9C0B
:102210000F9829606A601499159AAB60EF60109B63
:10222000119F2E616C61129E139C6963AA63EB611E
:10223000A8612F62EE622C6305F1A80305F1D001BD
:10224000002243F8042F9942FBD105F27F1205F2D8
:102250008F13002102F8011F9A42FBD105F29F1152
:10226000002203F8012F9942FBD105F5D67305F53D
:10227000F671002243F8042F9942FBD105F2EF13C7
:1022800005F20F21002203F8012F9942FBD1762499
:1022900075217422732305F1800677270394029138
:1022A000019200933046722304977122702111F03D
:1022B000B5FAEB6B002BC8BF002420DD2146304669
:1022C00011F096F9304611F003FB0A2016F07EFC5F
:1022D0000134EB6BE4B29C42F0DB002B0FDD0024F9
:1022E0002146304611F0A2F9304611F0F1FA0A20E9
:1022F00016F06CFC0134EB6BE4B29C42F0DB142072
:1023000016F064FC2846FFF765FC2846FFF720FD21
:102310000F480EF027FC01462846FFF71BFF0C482C
:102320000EF022FC01462846FFF740FF094809F05D
:1023300009FF01462846FFF79FFB064809F0BEFA51
:102340000146284607B0BDE8F040FFF7FFBB00BFDD
:10235000CC90002000310020F8B5144D0C461746F3
:102360000646FFF74DF902220021284610F0CCFE68
:1023700020461DF045FA21460246284615F03EFB50
:1023800020461DF03DFA0222C1B2284610F0BCFEE4
:102390003946284615F0BEFB20461DF031FA0630BE
:1023A000142828BF1420C6F81802F8BD907CFF1F1F
:1023B000F8B51F4C1F4F154600220E462046114609
:1023C00010F0A2FE204611221B4915F017FB002237
:1023D0001146204610F098FE30461DF011FA3146A5
:1023E0000246204615F00AFB20460122002110F08B
:1023F0008BFE28461DF004FA29460246204615F0B9
:10240000FDFA30461DF0FCF90146304617F06AFC33
:10241000384615F02FFB28461DF0F2F901462846F4
:1024200017F060FC3846BDE8F84015F023BB00BF4C
:10243000907CFF1F1871FF1F9C4E020070B51A4D53
:1024400082B08DED010A0C460646FFF7D9F8284602
:102450000222002110F058FE20461DF0D1F921463D
:102460000246284615F0CAFA20461DF0C9F9022294
:10247000C1B2284610F048FE9DED010A10EE100A88
:102480001BF066FD41EC100B0221284615F04CFBB9
:1024900020461DF0B5F90630142828BF1420C6F8D0
:1024A000180202B070BD00BF907CFF1FB0B588B0AD
:1024B00002AF04460B4600921521164A164D3846C7
:1024C0001CF014FF38461DF09BF9D4F81832C4F8FC
:1024D000180298420146B8BF194601F1080323F0DB
:1024E0000703ADEB030D02AC3B460C4A013120461D
:1024F0001CF0FCFE28460222002110F005FE2046BA
:102500001DF07EF921460246284615F077FA183765
:10251000BD46B0BDB04E0200907CFF1F984E020039
:102520002DE9F04790F8313282B00546002B40F09B
:102530008280584E584A3068D46892F809E092E890
:102540008800197897F800C0137A534F1CEA0E0FD1
:1025500001EA03015AD0BB7A03F0030309B143F047
:10256000040343F008039910013B91720D2B0AD824
:10257000DFE803F05E075807095B5E5E5B090758FA
:10258000075E013CD460C31EA34202DC0330A042BC
:1025900039DA424809F092F93368E31A48BF033345
:1025A00000EBA307002F39DC0127DFF80081D8F802
:1025B00000309F4226D05FFA87F94946374809F034
:1025C000A9FA3A4636492846FFF770FF354B364A96
:1025D0001B680193019B126803F5FA630C2AC5F886
:1025E000283239D049462846FFF7B0FA2B4809F07F
:1025F000A9FD01462846FFF73FFA2846FFF7EAFA09
:10260000C8F80070346002B0BDE8F087BB7A03F010
:1026100003030029A7D043F00403A4E7022FA8BFB7
:102620000227C2E70234D460ADE7023CD460AAE7D7
:102630000134D460A7E7002380F831321748154EE3
:1026400009F03CF91949144A086003B29B001C4682
:1026500018463360D36070E7D8F80030E8192B448F
:10266000002209F10F014FF0010A05F1800980F8FD
:102670009FA1C9B283F89F21484610F0B9FFD8F84E
:1026800000100F314846C9B210F0D0FF85F875A18F
:10269000B6E700BF807CFF1F107CFF1F00310020C9
:1026A000B84E0200C8940020BC6FFF1FF07BFF1FD4
:1026B0002DE9F041A84D2DED028B2B68DA0782B091
:1026C000044640F1EB81A54D2B68DB0740F1D78133
:1026D00094F81432002B40F0AF81A14DA14E2B682D
:1026E00069681A78687A0F782B7A9D49074202EA5E
:1026F00003021DD08B7A03F003030AB143F00403F5
:1027000043F008039A10013BAA720D2B00F2688176
:10271000DFE813F0540150014C015001660116002E
:10272000540154011600660150014C01500154013E
:102730008B7A03F00303002AE4D043F00403E1E7BB
:10274000EB68023BEB6007EE903A9FED876A96EDEF
:10275000007ADFED866AF8EEE77A87EE868A77EE12
:10276000267AB4EEE78AF1EE10FA06DA37EE667AE8
:10277000B4EEC78AF1EE10FA40D87D4BDFED7D7ADA
:10278000D3ED006AB1EE007AE6EEC77AB4EEE78ADE
:10279000F1EE10FA40F13A81B9EE008A26EE888A0D
:1027A000DFED717A68EE277AFDEEE77AC5ED037A00
:1027B000714D724F95ED000AF5EE007A68EE277ABA
:1027C000F4EE407AF1EE10FAC7ED007A40F0758130
:1027D0009FED650A6A4967EE807A2046FDEEE77A4A
:1027E00017EE902AFFF762FE664B86ED008A1B68A3
:1027F0000193019B03F5FA63C4F82832624A136817
:10280000506819780578507A137A054201EA030175
:1028100000F0F380937A03F0030309B143F004035B
:1028200043F008039910013B91720D2B00F2D68002
:10283000DFE813F0D000C800CC00C800D4000E00C0
:10284000D000D0000E00D400C800CC00C800D000DA
:10285000D568023DD5604D4E3368DA1EAA4202DCCF
:10286000DA1CAA421DDA4A4FDFF83C81EA1A3B68BB
:10287000D8F8001048BF033203EBA203082BA8BF0F
:10288000082323EAE37399423B6006D01946414886
:102890000EF062F93968C8F800102046FFF786FC90
:1028A00035603D4A1368506819780578507A137A74
:1028B000054201EA030100F09780937A03F00303D5
:1028C00009B143F0040343F008039910013B9172EE
:1028D0000D2B00F28780DFE803F03B3733378507A5
:1028E0003B3B07853733373BD568023DD5602B4EE0
:1028F0003068C31EAB4202DCC31CAB421BDA284A61
:10290000281A136848BF033003EBA000002840F3E7
:10291000E280B0F5967FA8BF4FF49670214F10600B
:102920003B68DFF87C80984204D063699847D8F808
:1029300000303B60356002B0BDEC028BBDE8F08139
:10294000D5680235D560D2E7D568013DD560CEE7C0
:10295000D5680135D560CAE70C7CFF1F047CFF1FDA
:10296000207CFF1F687CFF1F0000C8420AD7233D60
:10297000707CFF1F00000000AC7CFF1FE47BFF1F8A
:10298000C04E0200C8940020307CFF1FBC7CFF1F9B
:10299000007CFF1FCC900020407CFF1F087CFF1FA5
:1029A000787CFF1FE87BFF1FFC7BFF1FEB68023377
:1029B000EB60C8E6EB68013BEB60C4E6EB68013313
:1029C000EB60C0E6D568013DD56044E7D5680235C7
:1029D000D56040E7D5680135D5603CE7D5683AE772
:1029E000EB68B0E6D56882E7937A03F00303002929
:1029F0003FF46BAF43F0040367E7937A03F00303FC
:102A000000293FF40FAF43F004030BE7334BD3ED42
:102A1000007A27EE877AB4EEC78AF1EE10FA7FF7D4
:102A2000C7AEDFED2F7A67EE277AB0EE478AFDEE6C
:102A3000E77AC5ED037ABBE62A482B4DDFF8C4E000
:102A40002A4E0023002204F5C077036084F8142284
:102A5000EA6039462648CEF80030336009F0E2FBE0
:102A6000244B234883ED000A394609F019FCF7EEA0
:102A7000007A37EEC00A194B83ED000A2FE628468C
:102A800015F0A6FD00283FF423AE1B480EF06CF8AD
:102A90001A4B1860284615F0A1FD19E6284615F0D6
:102AA00097FD00283FF40FAE13480EF059F8144B71
:102AB0001860284615F092FD05E637EEC00A94F836
:102AC00030220B4804F5C07109F06EFDD7ED007A95
:102AD000C5ED007A7CE6012020E700BF747CFF1F73
:102AE0000000C842E47BFF1F207CFF1F687CFF1FA3
:102AF00000310020707CFF1FCC900020007CFF1F65
:102B0000787CFF1FAC7CFF1F384B1B680D2B00D05F
:102B100070472DE9F041364BCFB20B4007F00F065E
:102B2000002B82B006F1010639DBC418054694F883
:102B3000A0317BB12F4B93F80080B8F1000F33D157
:102B4000424631462C4809F055F9002838D102B0E8
:102B5000BDE8F081274B1B78DBB9012231462648BE
:102B600009F048F930B3012384F8A031394605F162
:102B7000800010F03DFD324620492846FFF796FCC4
:102B80001F4B1B680193019B03F5FA63C5F82832BC
:102B9000DDE7836B3246012104209847D7E7013BEC
:102BA00063F00F030133C0E7836B3246002104203A
:102BB0009847CCE7394605F1800010F037FDC6E7AD
:102BC000394605F1800084F8A08110F02FFD3246CF
:102BD0000C492846FFF76AFC094B1B680093009BD1
:102BE00003F5FA63C5F82832B1E700BFBC6FFF1FD9
:102BF0000F000080F966002000310020DC4E02004A
:102C0000C8940020CC4E020010B5013A8CB00446A6
:102C1000032A6BD8DFE802F052371D0240F6B833C2
:102C2000994200F086806AD941F28833994200F0D7
:102C3000AA8041F65833994264D15F49FEF7A8FD56
:102C40005E4B1B680B930B9B03F5FA63C4F82832A9
:102C500053E040F6B833994277D050D941F28833E7
:102C6000994200F09C8041F6583399424AD1544928
:102C7000FEF78EFD514B1B680893089B03F5FA6322
:102C8000C4F8283239E04F4A40F6B8339942126806
:102C90003DD034D941F28833994262D041F658335D
:102CA00099422FD14849FEF773FD444B1B680593A9
:102CB000059B03F5FA63C4F828321EE043480191EE
:102CC00009F016FF019940F6B83399422BD016D976
:102CD00041F28833994250D041F65833994211D18C
:102CE00002463B492046FFF7E1FB06E03949FEF783
:102CF000D7FB3A21384816F0F5FF0CB010BDB1F5FE
:102D00007A7FFAD02046FEF77BFC0CB010BD334929
:102D1000FFF7CCFB294B1B680393039B03F5FA6376
:102D2000C4F82832E9E702462C492046FFF7BEFBEB
:102D3000E3E72B49FEF72CFD204B1B680993099B09
:102D400003F5FA63C4F82832D7E72649FEF720FDD9
:102D50001A4B1B680693069B03F5FA63C4F82832E6
:102D6000CBE72149FFF7A2FB144B1B680493049B9C
:102D700003F5FA63C4F82832BFE702461B49204630
:102D8000FFF794FBB9E71A49FEF702FD0B4B1B68EE
:102D90000A930A9B03F5FA63C4F82832ADE7154994
:102DA000FEF7F6FC054B1B680793079B03F5FA63D8
:102DB000C4F82832A1E700BF904F0200C894002059
:102DC0005C4F0200B86FFF1F284F0200A867002069
:102DD000084F0200984F0200A84F0200E84E020080
:102DE000684F0200384F0200184F0200F84E0200F0
:102DF000804F02004C4F0200B1F57A7F38B504D8FD
:102E0000B0F8264294B3002038BD40F6B834A14251
:102E100012D8B0F82612B1F57A7FF4D1A0F8264284
:102E20002146FFF7F1FE0821284816F05BFF2848ED
:102E300014F020FE002038BD41F28835A94222D985
:102E400041F65834A142B0F826122ED8A942DAD160
:102E5000A0F826422146FFF7D7FE04211D4816F0B0
:102E600041FF1B4814F006FE002038BD4FF47A7273
:102E7000A0F826220B21184816F034FF144814F04D
:102E8000F9FD204638BDB0F82612A142BBD1A0F80A
:102E900026522946FFF7B8FE0621104816F022FFF9
:102EA0000B4814F0E7FD012038BDA142ABD100244E
:102EB000A0F826422146FFF7A7FE0821084816F091
:102EC00011FF034814F0D6FD204638BDF04F020034
:102ED0001871FF1F04500200E44F0200FC4F020073
:102EE0000C500200B0B588B002AF044601930092C6
:102EF0000B46174A174D152138461CF0F7F938468E
:102F00001CF07EFCD4F81832C4F81802984201462E
:102F1000B8BF194601F1080323F00703ADEB030D19
:102F200002AC3B460C4A013120461CF0DFF9284632
:102F30000222002110F0E8F820461CF061FC214636
:102F40000246284614F05AFD1837BD46B0BD00BFF2
:102F500018500200907CFF1F984E02002DE9F041AE
:102F600090F8143282B00546002B40F082804E4F1C
:102F70004E4E3B6879681A78787A0C783B7A4A49E1
:102F8000044202EA030215D08B7A03F003030AB16C
:102F900043F0040343F008039A10013BBA720D2B6F
:102FA00065D8DFE803F058605C60640F58580F6420
:102FB000605C60588B7A03F00303002AECD043F086
:102FC0000403E9E7FC68023CFC603368DA1CA242B7
:102FD00002DB033BA3423BDD354B1B78C3EB837322
:102FE0009B00A34204DC334B1B789B00A34201DA15
:102FF000FB601C46304FDFF8D0803A68002C234637
:10300000B8BFE31C9B109342C8F800301FD09A1A37
:10301000D2B295F83032294805F5C07109F040FA6E
:10302000D8F80080C7F8008001466A462846FEF7B7
:10303000DFF94246034622492846FFF753FF214B5A
:103040001B680193019B03F5FA63C5F828323460CD
:1030500002B0BDE8F081FC680134FC60B5E7FC68B3
:103060000234FC60B1E7FC68013CFC60ADE7FC6841
:10307000ABE715490C4F104A0C4E1048002305F5DC
:10308000C0740B60FB6021461360336009F06AF87E
:10309000074B21461870094809F094F8054BC0F118
:1030A0007F00187065E700BF107CFF1FF87BFF1FD3
:1030B000507CFF1FF47BFF1FE07BFF1F00310020CF
:1030C00024500200C8940020EC7BFF1F134B1A68A9
:1030D0000D2A10B5044609D80123934043F2B632B5
:1030E0001A405AB91A0714D45B050ED42046FFF7CC
:1030F00035FF2046BDE81040FFF7DABAFFF710FAB7
:103100002046BDE81040FFF7D3BABDE81040FDF7F8
:1031100083BBBDE81040FDF78FBC00BFBC6FFF1F35
:10312000F8B5184D0C4616460746FEF769FA022216
:10313000002128460FF0E8FF20461CF061FB2146E5
:103140000246284614F05AFC20461CF059FB022285
:10315000C1B228460FF0D8FF30461CF051FB314673
:103160000246284614F04AFC20461CF049FB04465F
:1031700030461CF045FB2044142828BF1420C7F813
:103180001802F8BD907CFF1FF0B58DB01D4D9DF865
:1031900048409DF84CE09DF85070CDF80CE00134AB
:1031A000019306464B1C00920294049707A8164A06
:1031B000164C14211CF09AF82846022200210FF028
:1031C000A3FF07A81CF01CFB07A90246284614F021
:1031D00015FC07A81CF014FBC6F81802204614F0D2
:1031E00049FC14210A4816F07DFD07A81CF008FBD5
:1031F000014607A816F076FD204614F03BFC0DB002
:10320000F0BD00BF907CFF1F385002001871FF1FF7
:103210005050020008B50322112109480FF074FF35
:10322000084B1B7801222BB907490548BDE8084027
:1032300014F0E4BB05490248BDE8084014F0DEBBC9
:10324000907CFF1F3C910020AC4E020068500200B1
:1032500010B50446032290F878110B480FF054FF84
:10326000D4F81022D4F87831D35C01222BB9074965
:103270000548BDE8104014F0C1BB05490248BDE84F
:10328000104014F0BBBB00BF907CFF1FAC4E02008F
:103290006C5002002DE9F04F0446102300F1440762
:1032A00020268FB0036404F16208E66338460025E7
:1032B00010F01AF9404610F017F9424639460495C5
:1032C00003950295019500952B4604F1800010F0BE
:1032D0000DF9C4F804611A26C4F8E860192604F54B
:1032E0008673C4F8EC601B264FF0250C4FF0240EBB
:1032F0001E2107931F220523C4F8F0604FF0420BF4
:103300004FF0430A4FF027094FF0260818271D20D9
:103310001C26C4F8DCC0C4F8E0E0C4F80831C4F8E6
:10332000FC10C4F80021C4F8A4B0C4F8A8A0C4F8E4
:10333000D49004F58A7AC4F8D880C4F8E470C4F84C
:10334000F460C4F8F800079814F09EF8504614F0A2
:103350009BF804F58E7904F592721646484614F0EF
:1033600093F804F5967230461746089614F08CF8D8
:1033700004F59A710E463846099714F085F804F55D
:103380009E7130460F460A9614F07EF804F5A2703E
:10339000064638460B9714F077F804F5A6700746F2
:1033A000304604F5AA7B0C9614F06EF8384604F506
:1033B000AE780D9714F068F8584614F065F804F5E7
:1033C000B277404614F060F804F5B676384614F04B
:1033D0005BF8304614F058F8FF22012384F83022BD
:1033E00084F8313284F8745184F8755184F8145299
:1033F00084F81552C4F81852C4F81C52C4F820526C
:1034000084F82452A4F826524A21714816F06AFC26
:10341000704814F02FFB2B466F48042214210FF044
:1034200097FE0A226D496C4814F0E8FA94F8A4005B
:10343000022115F07BFB94F8A800022115F076FB21
:1034400094F8D800022115F071FB94F8D400022101
:1034500015F06CFB94F8DC00022115F067FB94F882
:10346000E000022115F062FB94F8E400022115F05F
:103470005DFB94F8E800022115F058FB94F8EC008D
:10348000022115F053FB94F8F000022115F04EFBD9
:1034900094F8F400022115F049FB0798D4F8D810ED
:1034A00013F0FAFF5046D4F8D41013F0F5FF484655
:1034B000D4F8DC1013F0F0FF0898D4F8E01013F003
:1034C000EBFF0998D4F8E41013F0E6FF0A98D4F85B
:1034D000E81013F0E1FF0B98D4F8EC1013F0DCFFC8
:1034E0000C98D4F8F01013F0D7FF0D9DD4F8F41019
:1034F000284613F0D1FF0798B4F8081113F0E2FF43
:103500005046B4F8081113F0DDFF4846B4F808112E
:1035100013F0D8FF0898B4F8081113F0D3FF0998F6
:10352000B4F8081113F0CEFF0A98B4F8081113F09C
:10353000C9FF0B98B4F8081113F0C4FF0C98B4F845
:10354000081113F0BFFF2846B4F8081113F0BAFFB2
:1035500094F8F800022115F0E9FA94F8FC00022131
:1035600015F0E4FA94F80001022115F0DFFA94F85E
:103570000401022115F0DAFA5846D4F8F81013F0D5
:103580008BFF4046D4F8FC1013F086FF3846D4F881
:10359000001113F081FF3046D4F8041113F07CFFC2
:1035A0005846B4F8081113F08DFF4046B4F80811DE
:1035B00013F088FF3846B4F8081113F083FF304643
:1035C000B4F8081113F07EFF20460FB0BDE8F08F6D
:1035D000705002001871FF1F907CFF1FBC5002004A
:1035E00070B516460C460546C9B203221F480FF0B7
:1035F0008BFDFEB92B1993F88061D5F878317EB92F
:103600009C422BD021461A4808F030FD012818D9D9
:10361000334601460A221548BDE8704014F03ABA14
:103620009C424FF0010213D012491048BDE870408F
:1036300014F0E4B9012210490C48BDE8704014F0C0
:10364000DDB901220D490948BDE8704014F0D6B932
:103650000B490648BDE8704014F0D0B90122094971
:103660000248BDE8704014F0C9B900BF907CFF1F4C
:10367000003100206C500200684E0200AC4E020087
:10368000C85002006485020070B5441800220F295A
:10369000054684F8F0211FD901F00F060C4631468B
:1036A000FFF79EFF12211B4816F01CFB31461A48FB
:1036B00014F030FA184814F0DDF995F83032A342CE
:1036C00004BFFF2385F83032144B1B680A2B09D046
:1036D0000B2B00D070BD214605F18000BDE8704085
:1036E0000FF0A4BF2846FDF78BFF95F824220C4865
:1036F0000023012AC5F8D03004BF85F82432A5F88C
:10370000263231460AF0DEF92846BDE87040FDF762
:1037100085BB00BFCC5002001871FF1FBC6FFF1F9C
:10372000A867002070B50D461646D0F87C1100221F
:103730000446FFF755FF0322E9B209480FF0E4FC05
:10374000012236B90749064814F058F9C4F87C51EB
:1037500070BD0549024814F051F9C4F87C5170BDA0
:10376000907CFF1F64850200C8500200D0F8103220
:1037700070B55D5CC0F87811103104461646C9B2C8
:10378000803095B10FF052FF0122D4F87811204615
:10379000FFF7C8FFD4F878316C33012244F8236076
:1037A00084F8742184F8752170BD0FF021FF2A463A
:1037B000D4F878112046FFF7B5FFEBE72DE9F0418B
:1037C000012186B0054648480FF0C2F900211220B9
:1037D00015F0ACF90121132015F0A8F901211320EF
:1037E00015F090F90B26122015F092F930B9013E30
:1037F00001464FF496744FF0130067D1752174227F
:10380000732305F1800677277624029101920093B5
:103810003046722304970394712270210FF0FEFF4B
:10382000EB6B002B09DD0024214630460FF0FEFE35
:103830000134EB6BE4B29C42F6DB304610F048F802
:1038400005F29F1305F2AF11002203F8012F8B42FE
:10385000FBD16FF4BF76761B05F27F1405F28F184B
:103860000027311904F8017F00222846FFF7B8FE2F
:103870004445F6D105F5D67305F5F670002143F8F9
:10388000041F83424FF00002F9D1184B85F815222E
:1038900001240622284685F814421A60FEF79AF998
:1038A0002846FEF755FA12480DF05CF90146284605
:1038B000FEF750FC0E480DF057F901462846FEF77A
:1038C00075FC85F8744106B0BDE8F08115F01AF971
:1038D0002346013BFDD10121132015F013F92346A6
:1038E000013BFDD17FE700BF3070FF1FBC6FFF1FA2
:1038F000CC90002030B5D0F8B83087B00446A3B1E2
:10390000374A126802920299C91A0ED0354D2B68B7
:103910000222013380F824225AD002222046FFF7E7
:103920006BFA002847D107B030BDD4F8D030ABB126
:103930002B4A126803920399C91A0FD0012284F806
:1039400024222046FFF758FA0028ECD0264809F038
:10395000CFF80146244809F0C7F9E4E7D4F8C030AD
:103960008BB11F4A126804920499C91A0BD0032222
:1039700084F824222046FFF73FFA0028D3D02046BF
:10398000FFF71CFFCFE7D4F8B030002BCBD0144AA0
:10399000126805920599C91AC5D0042284F8242218
:1039A0002046FFF729FA0028BDD0104808F0E4F8B7
:1039B000E3699847B7E729680C4807F093FD20466C
:1039C0002968FEF719F84FF0FF332B6007B030BDC0
:1039D0000648019107F064FF019928609DE700BF48
:1039E000C8940020B86FFF1FA86700200031002096
:1039F0002DE9F04F00F58E7585B00446284613F08A
:103A000063FD10B905B0BDE8F08F284613F0A2FDA4
:103A10000028F7D08C4E3368013B0A2B57D8DFE8DB
:103A200003F0411E18565656560D0D560600874D8A
:103A30002B78002B54D1E3699847E3E7844A137845
:103A4000204683F001031370FFF7E4FB05B0BDE8E7
:103A5000F08F804801F074FE05B0BDE8F08F7E4D18
:103A600029684B1C00F0D7807C4807F03BFD2A6892
:103A70007B492046FEF71AFD7A4B1B680393039B94
:103A800003F5FA63C4F8283201274FF0FF332046CC
:103A90002B603760FEF79EF82046FEF759F984F850
:103AA0001472AFE76D4807F059FE30B36B4807F06A
:103AB000F7FE6D4902462046FEF7F8FC694B1B688D
:103AC0000193019B03F5FA63C4F828329AE794F84E
:103AD0001532032B00F2AA80DFE803F076593F206D
:103AE000012720463760FEF775F82046FEF730F9CB
:103AF000002384F814722B7084E7584807F0D0FE36
:103B00005A4902462046FEF7D1FC564B1B680293E9
:103B1000029B03F5FA63C4F8283273E704F28F19A5
:103B20006FF4BF77C8463F1B04F27F154FF0010AC0
:103B3000791915F8013F08F8013F002285F800A027
:103B40002046FFF74DFD4D454FF0010BF0D102230C
:103B500084F814B284F8153253E06FF4BF773F1B3A
:103B600004F27F1504F28F1A4FF0000979194FF013
:103B7000000805F8019F42462046FFF731FD5545F4
:103B8000F4D1012384F8158284F8143239E004F268
:103B90008F196FF4BF77C8463F1B04F27F15791960
:103BA00015F8013F08F8013F83F001032B70002254
:103BB0002046FFF715FDA945F1D10322012384F822
:103BC000152284F814321CE06FF4C778C4EB08089F
:103BD00004F28F1504F27F1704F29F1908EB050118
:103BE00015F8013F83F0010307F8013F002220464A
:103BF000FFF7F6FCA945F1D1012384F8153284F8CA
:103C000014323368062B7FF4FDAE04F5C0712046F4
:103C1000FDF7A8F8F6E6012520463560FDF7DAFF46
:103C20002046FEF795F884F81452EBE6312110484F
:103C300016F058F894F815120E4813F06BFF0D4863
:103C400013F018FFDDE700BFBC6FFF1F8C2E0020B4
:103C50003C910020A82D0020B86FFF1F00310020EC
:103C600000510200C8940020E0500200F050020011
:103C7000105102001871FF1F70B504460D4696B032
:103C800080300FF0B5FC6319012283F8F0210F2D6D
:103C900000F23F81DFE815F0240040005C0078006E
:103CA00094009D00A600AF00F100CB00DE00B8003C
:103CB0002A01040117011000B9492046FDF768FDEB
:103CC000B84BB9481B681293129B03F5FA63C4F80A
:103CD000283204F5C071042208F020FB16B070BD34
:103CE000B24B1A68511E012940F2D0810A2A00F015
:103CF000CD812046AE49FDF74BFDAA4BAA481B6873
:103D00000293029B03F5FA63C4F8283204F5C071EC
:103D1000002208F029FBE1E7A44B1A68511E012993
:103D200040F2C0810B2A00F0BD812046A149FDF779
:103D30002FFD9C4B9C481B680193019B03F5FA6384
:103D4000C4F8283204F5C071012208F00DFBC5E764
:103D5000964B1B68012B00F06C81083B012B40F255
:103D6000688120469449FDF713FD8E4B8E481B68F1
:103D70000493049B03F5FA63C4F8283204F5C07178
:103D8000022208F0F1FAA9E7884B1B68012B00F02A
:103D90006881083B012B40F2648120468749FDF78A
:103DA000F7FC804B80481B680693069B03F5FA637B
:103DB000C4F8283204F5C071032208F0D5FA8DE763
:103DC0007F4B1B78002B00F02781A36901209847C7
:103DD00084E77B4B1B78002B00F01181A369022044
:103DE00098477BE7764B1B78002B00F0FB80A3699C
:103DF0000320984772E7724B1B78002B00F0C280BB
:103E0000A3690420984769E720466E49FDF7C0FC86
:103E1000644B65481B680E930E9B03F5FA63C4F868
:103E2000283204F5C071032208F0BEFA56E7204696
:103E30006549FDF7ADFC5B4B5B481B680C930C9B25
:103E400003F5FA63C4F8283204F5C071012208F0C2
:103E5000ABFA43E720465D49FDF79AFC514B5248C7
:103E60001B680D930D9B03F5FA63C4F8283204F523
:103E7000C071022208F098FA30E720465449FDF755
:103E800087FC484B48481B680B930B9B03F5FA6370
:103E9000C4F8283204F5C071002208F085FA1DE745
:103EA00020464C49FDF774FC3E4B3F481B6810937D
:103EB000109B03F5FA63C4F8283204F5C07102229E
:103EC00008F02CFA0AE720464349FDF761FC354B20
:103ED00035481B681193119B03F5FA63C4F8283227
:103EE00004F5C071032208F019FAF7E620463B49B1
:103EF000FDF74EFC2B4B2C481B680F930F9B03F5D3
:103F0000FA63C4F8283204F5C071012208F006FAF9
:103F1000E4E60F2D7FF6E2AE05F00F0631460122F2
:103F20002046FFF75DFB94F83032AB42636A88BFEE
:103F300084F8305213B1A5F1100098471B4B1B6851
:103F4000013B0C2B00F2E78001A252F823F000BFE6
:103F5000A9400000BB40000017410000C540000020
:103F60000D4100001741000003410000A94000007E
:103F7000F9400000E3400000DD3C0000D9400000B3
:103F8000CF40000016492046FDF702FC054B1B6898
:103F90000A930A9B03F5FA63C4F8283230E700BF9E
:103FA0003C520200C894002000310020BC6FFF1F6B
:103FB000505102004451020078510200A451020005
:103FC000F966002010520200F8510200045202006B
:103FD000EC51020024520200305202001C52020036
:103FE000E05102005F492046FDF7D2FB5E4B1B68A3
:103FF0000993099B03F5FA63C4F82832F7E65B4995
:104000002046FDF7C5FB584B1B680893089B03F53A
:10401000FA63C4F82832E1E655492046FDF7B8FBBB
:10402000514B1B680793079B03F5FA63C4F82832CA
:10403000CBE6504A50491378002083F001031370F7
:104040000870002B00F088804C492046FDF7A0FB4B
:10405000454B1B680393039B03F5FA63C4F82832AE
:104060003CE6454B1A78002A6DD0424D4449002267
:1040700020462A701A70FDF78BFB3B4B1B6805939B
:10408000059B03F5FA63C4F8283227E60B22204685
:104090001A60FDF79FFD2046FDF75AFE012384F8C4
:1040A00014321BE60A22F2E7324B364A1B784FF0F5
:1040B000FF311160002B7FF411AE29462046FCF73A
:1040C0001DFE0BE629462046FCF760FD06E6294664
:1040D0002046FEF719FD01E629462046FEF706F8C0
:1040E000FCE529462046FCF709FE1F4B1B6813938D
:1040F000139BC4F8D030F1E529462046FDF7DAFCE1
:10410000ECE529462046FCF79DFDE7E529462046DB
:10411000FCF76AFDE2E529462046FCF7C1FD314681
:104120002046FDF75DFB104B1A681592159A1B6827
:104130001493149B02F5FA6203F5FA63C4F82C2277
:10414000C4F82832CAE50B480F4902700122204604
:104150001A70FDF71DFB90E70C492046FDF718FB90
:1041600076E700BFD0510200C8940020C051020081
:10417000B0510200F9660020F86600205C51020090
:1041800084510200B86FFF1F945102006C5102006D
:10419000F8B5344C2368DB07054646D5324E14F09B
:1041A000F1FC3368304A984234D900F5EA4395F877
:1041B000741130331360002947D105F18007384668
:1041C0000FF09EFA18B3EB6B002B24DD002634466B
:1041D00005E00134EB6BE4B29C4226461BDA214633
:1041E00038460FF0C3F92E4430B196F8F03121462D
:1041F00028460BB9FFF740FD214638460FF0C6F9B7
:104200000028E6D021462846FFF73EFAE1E795F878
:1042100075311BB9F8BD012385F8753138460FF0AB
:1042200057FB002385F87531F8BD204614F0D0F90E
:104230000028B3D014F0A6FC0B4E00F5EA4330334F
:104240002046336014F0CAF9A9E7014605F180075A
:104250002846FCF75FFC38460FF052FA0028D6D00B
:10426000B1E700BF887CFF1FB87CFF1F10B500239B
:1042700003604360836004461621044815F032FD54
:10428000034813F0F7FB204610BD00BF4C5202005C
:104290001871FF1F38B505461A210F4815F022FD89
:1042A0002C6864B1A36A2B6020462C2114F0D2F94B
:1042B0002C680A48042115F015FD002CF2D10023CA
:1042C0002B606B60AB600421054815F00BFD0548C1
:1042D00013F0D0FB284638BD645202008852020019
:1042E000805202001871FF1F38B5054615210F488E
:1042F00015F0F8FC2C6864B1A36A2B6020462C21D1
:1043000014F0A8F92C680A48042115F0EBFC002CE5
:10431000F2D100232B606B60AB600421054815F0DF
:10432000E1FC0548BDE8384013F0A4BB9052020000
:1043300088520200805202001871FF1F38B52E4CBF
:1043400005460A212D4815F0CDFC204613F092FBBE
:104350000E212B4815F0C6FC6B682046196813F037
:10436000D9FB0B21274815F0BDFC6B680A2219798F
:104370002046002313F08EFB204613F07BFB082120
:10438000214815F0AFFC6B682046D96813F0C2FBDA
:1043900007211E4815F0A6FC6B68D86919F0D8FDF6
:1043A00041EC100B2046022113F0BEFB0B211848F4
:1043B00015F098FC6B680A2293F820102046002321
:1043C00013F068FB1621134815F08CFC6B6820462F
:1043D000597A13F09FFB0E210F4815F083FC6B6890
:1043E000204693F824100A22002313F053FB2046A2
:1043F000BDE8384013F03EBB1871FF1FA852020001
:10440000B4520200C4520200D0520200DC52020038
:10441000E4520200F05202000853020038B543682B
:10442000002B6BD09A6A934204460D4618BF0120B8
:1044300066D0A36823B1226812B19B6A9A4274D0F5
:104440006368444A1B68934202DC01332DD038BDB7
:104450002A4641494148FDF7ABFF3121404815F05C
:1044600041FC28461BF0CCF90146284615F03AFCE1
:104470003C4813F0FFFA07213B4815F033FC616814
:10448000384813F047FB0E21384815F02BFC6368C1
:104490003448196813F03EFB324813F0EBFA6368B6
:1044A0001B6801334FF00000D1D12A4630492B4818
:1044B000FDF77EFF34212F4815F014FC28461BF031
:1044C0009FF90146284615F00DFC264813F0D2FA54
:1044D0000721254815F006FC6168224813F01AFBF5
:1044E0000E21224815F0FEFB63681E48196813F080
:1044F00011FB1C4813F0BEFA002038BD012038BD66
:104500000A4616481C49FDF753FF26211B4815F0A3
:10451000E9FB28461BF074F90146284615F0E2FB3A
:10452000104813F0A7FA002083E72A4614490B48E5
:10453000FDF73EFF3921134815F0D4FB28461BF048
:104540005FF90146284615F0CDFB064813F092FAB4
:10455000002075E7809698009C530200C42E00202E
:10456000B45302001871FF1FE8530200F053020019
:10457000005402001854020018530200285302008D
:10458000505302006053020003684360704700BF4D
:1045900010B544680CB1206810BD03490348FCF70E
:1045A0007FFF204610BD00BF50540200C42E0020E3
:1045B00010B544680CB1207910BD03490348FCF7DD
:1045C0006FFF204610BD00BF64540200C42E0020BF
:1045D0002DE9F0418846002707700646112114484E
:1045E00015F080FBD8F80440ECB108340FCC354608
:1045F0000FC594E80F0085E80F0071680D4813F0AF
:1046000089FA08210C4815F06DFBD8F804300948E8
:1046100019790A223B4613F03DFA064813F02AFAAC
:104620003046BDE8F08105490548FCF739FFF7E75A
:10463000785402001871FF1FB06B02008C54020006
:10464000C42E00204068003018BF0120704700BF12
:1046500070B5044616213648666815F043FB3548A8
:1046600013F008FA0721344815F03CFB6168314823
:1046700013F050FA0821314815F034FB21682D4819
:1046800013F048FA08212E4815F02CFBA1682948A0
:1046900013F040FA23686360642538E013F0EAF908
:1046A0000E21284815F01EFB63682248196813F094
:1046B00031FA0D21244815F015FB61681D480831B9
:1046C00013F028FA0921214815F00CFB63681948FA
:1046D000197913F01FFA0B211D4815F003FB6168CF
:1046E000144813F017FA08211A4815F0FBFA63680A
:1046F0001048996A13F00EFA17492046FFF78EFE0C
:1047000040B1204600F0C6F8013D08D06368094872
:10471000002BC3D1074813F0ADF9666070BD0F4997
:104720000F48FCF7BDFE034813F0A4F9666070BDA6
:10473000A45402001871FF1FE8530200BC54020089
:10474000C8540200F0530200D4540200E4540200A2
:10475000F0540200FC5402000855020010550200FB
:10476000C42E0020036810B504466BB14268934222
:1047700004BF002242609A6A8AB1002102609962F5
:1047800018462C2113F066FF0A492046FFF746FE23
:1047900000B110BD2046BDE81040FFF759BF816849
:1047A0008B4208BF82602C21184613F053FF002370
:1047B0002360E9E72055020038B50368044673B169
:1047C0001A6891420D4603DC0AE01A68AA4207DA29
:1047D0002046FFF7C7FF23686360002BF5D1002355
:1047E000636005492046FFF719FE00B138BD204639
:1047F000BDE83840FFF72CBF3055020082B02DE9EC
:10480000F04106AC074644F8043F0D461E4814210B
:10481000904615F067FA214600230A221B4813F040
:1048200039F91A4813F026F92C2013F00FFF2C2227
:10483000002106461AF0FEFA0FCCB060F16032613A
:1048400073610FCCBC68356086F80480B061F1619B
:104850003262736214B1A64218BFA6627B68BE6062
:104860007BB13B685BB10A493846FFF7D7FD10B909
:104870003846FFF7EDFEBDE8F04102B070473E60FC
:10488000F1E77E60EDE700BF5C5502001871FF1F85
:1048900074550200436810B5044673B19A6A934296
:1048A00013D062600C492046FFF7B8FD00B110BD7F
:1048B0002046BDE81040FFF7CBBE1921074815F090
:1048C00011FA074813F0D6F8ECE706490648FCF75A
:1048D000E7FD63689A6AE4E7B05502009455020068
:1048E0001871FF1F80550200C42E002070B590E89B
:1048F000480005460024436006E00134FFF7CAFF84
:10490000B4F57A7F06D06B682846002BF5D16E602F
:10491000204670BD03490448FCF7C2FD6E60204686
:1049200070BD00BFB8550200C42E002000220260F6
:1049300042608260704700BF38B5044617210948BD
:1049400015F0D0F923685BB10025DA6822601846BB
:10495000DD6010219D6013F07DFE2368002BF4D1F3
:10496000204638BDC855020038B5436804460D4698
:1049700083B1DA68934218BF012036D09A689A4210
:1049800048D0E3682BB1DA68934219D09A689A420A
:1049900002D038BD0120F4E728492948FCF780FD02
:1049A0001F21284815F09EF9274813F063F8284680
:1049B0001AF026FF0146284615F094F90020E8E792
:1049C00022491F48FCF76CFD2B21214815F08AF97C
:1049D00028461AF015FF0146284615F083F91A48B3
:1049E00013F048F8E3680020D0E71A491448FCF7B0
:1049F00057FD2321184815F075F928461AF000FFD5
:104A00000146284615F06EF90F4813F033F8636835
:104A10000020B3E711490A48FCF742FD172110486E
:104A200015F060F9084813F025F828461AF0E8FE5A
:104A30000146284615F056F90020A2E77C560200F0
:104A4000C42E0020905602001871FF1F3C56020031
:104A500050560200E0550200F055020014560200C4
:104A60002456020010B507490446FFF77DFF20B128
:104A700063680BB1DB68636010BD204600F004F88A
:104A8000F6E700BFB055020038B5002104464348A0
:104A900015F028F9424812F0EDFF0D21414815F0BC
:104AA00021F93F4812F0E6FF07213F48656815F0FD
:104AB00019F921683A4813F02DF806213B4815F002
:104AC00011F96168364813F025F80721384815F0C8
:104AD00009F9A168324813F01DF80A21354815F08C
:104AE00001F9E1682E4813F015F82D4812F0C2FFC5
:104AF000204600F0DFF863682BB945E0FFF7B2FF0E
:104B00006368002B40D005212B4815F0EBF8636853
:104B1000234819680A22002312F0BCFF0421274809
:104B200015F0E0F863681E4819790A22002312F094
:104B3000B1FF0421224815F0D5F863681848597967
:104B40000A22002312F0A6FF05211E4815F0CAF81C
:104B50006168134812F0DEFF06211B4815F0C2F809
:104B600063680F48D96812F0D5FF0D4812F082FF34
:104B70006368DA6893422046C0D11A21134815F0C1
:104B8000B1F8074812F076FF0021044815F0AAF8A2
:104B9000034812F06FFF656038BD00BF244E02006D
:104BA0001871FF1FB0560200C0560200C85602001E
:104BB000D0560200D8560200E4560200EC5602001D
:104BC000F4560200FC560200045702000C57020083
:104BD00038B50446C068002838D060602368834236
:104BE00026D0A368834216D08568C368EB60C3688B
:104BF00082689A60102113F02DFD65602B46E360FA
:104C000014492046FFF7B0FE00B138BD2046BDE88C
:104C10003840FFF739BF82681AB1826862600021AC
:104C2000D1601846102113F015FD6368A360E6E714
:104C3000C268626062B1002191600022DA601846A9
:104C4000102113F007FD63682360D8E76068C5E7AB
:104C5000A260F2E7285702002DE9F843044610202D
:104C6000894690461F4613F0F1FCA6680025456072
:104C7000856080F80490C56080F8058007600EB1FB
:104C8000F06086606368A0607BB123685BB108490F
:104C90002046FFF769FE08B1BDE8F8832046BDE86D
:104CA000F843FFF7F1BE2060F1E76060EDE700BF79
:104CB0003457020010B505490446FFF755FE10B9F8
:104CC0002046FFF7E1FE2368636010BD3C570200F9
:104CD000C3681879704700BFC3685879704700BF30
:104CE000C3681868704700BFC068003018BF012053
:104CF000704700BF10B505490446FFF735FE10B9EF
:104D00002046FFF7C1FE2368E36010BD4457020050
:104D100010B507490446FFF727FE20B1E3680BB141
:104D2000DB68E36010BD2046FFF7AEFEF6E700BF8C
:104D30005057020070B511490546FFF715FE90B1B6
:104D400028466E680024FFF7B5FF05E00134FFF741
:104D500089FEB4F57A7F0AD06B682846002BF5D11E
:104D60006E60204670BD2846FFF78EFEE8E70449D6
:104D70000448FCF795FB6E60204670BD5C5702004E
:104D800064570200C42E002038B50A4D00230446A3
:104D90000360436029464FF4A072083013F036FBDD
:104DA00005F5A07104F5A4704FF4807213F02EFB8A
:104DB000204638BD7457020010B490E81800013442
:104DC00000EB031394FBF1F202FB11410B44416031
:104DD00093F848015DF8044B704700BF10B490E8A9
:104DE000180094FBF1F200EB031302FB11410B449A
:104DF000416093F848015DF8044B7047436810B474
:104E00000468194400EB041091FBF2F303FB121247
:104E100050FA82F25DF8044B92F84801704700BFE7
:104E2000406801308842B4BF00200120704700BFB5
:104E3000054B0B40002B01DB03607047013B63F027
:104E40000F030133036070470F000080036803EB1A
:104E5000830300EB83000830704700BF00234360EA
:104E6000704700BF38B501250446C56658220B4976
:104E7000783013F0CBFA0A4A84F868500023157092
:104E800084F8D43084F8DC30C4F8D030C4F8D8309A
:104E9000C4F8E03023676367204638BDB459020088
:104EA000C87CFF1F2DE9F0418046064600F16007EF
:104EB000337D5BB13546002455F8040F013418B139
:104EC000182113F0C7FB337DA342F5DC1836BE4230
:104ED000EED14046BDE8F08101EB410300EBC30396
:104EE00080F8D410C0F8D0300120704710B5D0F849
:104EF000D04084B1227D8A420B46D8BF002304EB08
:104F00008304D8BF19466468C0F8D8404CB180F813
:104F1000DC10012010BD06490648FCF7C1FA204606
:104F200010BD05490348FCF7BBFA204610BD00BF81
:104F30000C5A0200C42E0020205A020038B5044644
:104F400060B101EB410110EBC1050DD002EB420055
:104F500014EBC0040ED06A75012038BD0849094819
:104F6000FCF79EFA204638BD07490648FCF798FA38
:104F7000284638BD05490348FCF792FA204638BD5B
:104F8000345A0200C42E0020485A02005C5A020023
:104F9000D0F8D0300BB11960704780F8D430034698
:104FA000C0F8D00019607047D0F8D01070B5054631
:104FB00031B30B7D032B1DD8182013F047FB04469B
:104FC00000F026FCD5F8D0301E1D28D0197D39B14F
:104FD00053F82100C0B100F093FCD5F8D030197D12
:104FE00003EB8102013154602046197500F018FC72
:104FF000204670BD0F491048FCF752FA002070BDE2
:10500000FFF76AFF40B970BD0C490B48FCF748FA3E
:10501000D5F8D030197DE3E7D5F8D010C9E70849B5
:105020000548FCF73DFA2046182113F013FB3046E3
:1050300070BD00BF705A0200C42E0020945A0200B6
:10504000805A02002DE9F043044685B01A4803F067
:1050500047FE0E21194814F045FE194812F00AFDCA
:10506000D4F8D80000B300F085FCD4F8D030D4F8E0
:10507000D80093F8009094F8D45094F8E06094F835
:10508000DC7000F0E1FB8046D4F8D80000F0DEFBD5
:105090004B4602908DE88001324629460948FEF7CA
:1050A00073F805B0BDE8F0830749064805B0BDE8D0
:1050B000F043FCF7F5B900BFFC660020A45A0200DB
:1050C0001871FF1FC42E0020B45A020070B50446A8
:1050D0003321704814F006FED4F8D80000F0B4FB79
:1050E00000230A2201466C4812F0D4FC01216B48CF
:1050F00014F0F8FDD4F8D80000F0A8FB0023014616
:105100000A22654812F0C6FC0921654814F0EAFD40
:1051100000230A2294F8DC105F4812F0BBFC142133
:10512000604814F0DFFDD4F8D80000F0EFFB002356
:1051300001460A22584812F0ADFC574812F09AFC7A
:10514000D4F8D830002B00F09080D4F8D050002D47
:1051500000F08680184600F0DBFB054678B3192185
:10516000514814F0BFFDD4F8D80000F0CFFB102157
:1051700006464E4814F0B6FD002331460A22464842
:1051800012F088FCD4F8D0301B7DB34224D9212101
:10519000474814F0A7FDD4F8D03084F8DC6003EB66
:1051A00086067068C4F8D80000F0ACFB21214148A5
:1051B00014F098FD384812F05DFC284670BDD4F814
:1051C000D80000F0D3FB3D213B4814F08BFD324862
:1051D00012F050FC284670BD1821384814F082FDAA
:1051E000D4F8D030D4F8E0201B689A4224DB102198
:1051F000334814F077FDD4F8D0305E7DFF2E3AD0DE
:1052000006EB4606132104EBC6062E4814F06AFD91
:10521000C4F8D06015212C4814F064FDD4F8D030C7
:10522000002284F8DC205868C4F8D8000123C4F8B0
:10523000E03000F067FBB9E71A21244814F052FD72
:10524000002384F8DC30D4F8D020D4F8E030506863
:10525000C4F8D8000133C4F8E03000F053FBA5E7F0
:105260001B491C48FCF71CF9B4E71B4919481D46AB
:10527000FCF716F9AEE70021184814F033FD064894
:1052800012F0F8FB1321164814F02CFD236E9847FA
:105290008CE700BFC85A02001871FF1FFC5A0200B9
:1052A000005B02000C5B02004C5B0200685B0200CA
:1052B0007C5B02002C5C0200505C0200A05B0200E0
:1052C000D85B0200EC5B0200005C0200BC5B0200E9
:1052D000385B0200C42E0020245B0200244E020032
:1052E000185C02002DE9F043D0F8D030044685B0B8
:1052F000D0F8D80093F8009094F8D46094F8E07057
:1053000094F8DC8000F0A0FA0546D4F8D80000F04C
:105310009DFA4B460290CDF800803A463146019501
:105320000248FDF731FF05B0BDE8F083C42E002030
:1053300010B514210446094814F0D4FC084812F0B2
:1053400099FBD4F8D80018B1BDE8104000F012BBAA
:1053500004490548BDE81040FCF7A2B8905C020083
:105360001871FF1FA85C0200C42E00200346002213
:10537000C3F8D00080F8D42048B1406883F8DC201E
:105380000122C3F8D800C3F8E02000F0BBBA0249FC
:105390000248FCF785B800BFBC5C0200C42E0020A8
:1053A00070B5504E504D0166044600F11501326053
:1053B0002B607530FF2200230A7001F8013C41F890
:1053C000153C18318142F7D12046FFF7EDFD054627
:1053D00090B100231A46012100F02CFA00231A464E
:1053E0000221284600F026FA0121284600F07EFA24
:1053F0002846022100F058FA2046FFF7D5FD054661
:1054000090B101221146002300F014FA002301227A
:105410000221284600F00EFA0121284600F066FA23
:105420002846022100F040FA2046FFF7BDFD054660
:1054300090B100230222012100F0FCF90222114662
:105440000023284600F0F6F90121284600F04EFA24
:105450002846022100F028FA01212046FFF798FD96
:10546000012200212046FFF769FD01212046FFF7B8
:1054700033FD02212046FFF78BFD2046FFF794FD08
:10548000054690B100230322012100F0D3F9002347
:1054900003220221284600F0CDF90121284600F020
:1054A00025FA2846022100F0FFF92046FFF77CFD8F
:1054B000054690B100230422012100F0BBF900232E
:1054C00004220221284600F0B5F90121284600F007
:1054D0000DFA2846022100F0E7F92046BDE87040A9
:1054E000FFF744BFC47CFF1FC07CFF1F38B5436E6D
:1054F00003F11E0250F82240132B5CD8DFE803F0C2
:105500004B4F530A5B5B5B5B5B5B5B5B5B5B0A2FDD
:10551000363D44212B4A6FF0010521462A48FDF70C
:10552000FFFD20461AF06CF90146204614F0DAFB24
:105530002946264812F0EEFA2448BDE8384012F019
:1055400099BAD0F8D80000F089F9214A0546AB1C79
:10555000E3D02A4621461C48FCF7FEFEE1E7D0F8DE
:10556000D80000F075F91A4A0546F0E7D0F8D800DF
:1055700000F06CF9164A0546E9E7D0F8D80000F0CB
:1055800069F9134A0546E2E7D0F8D80000F064F95B
:1055900005460F4ADBE790F8D4500D4AD7E790F85C
:1055A000DC500B4AD3E790F8D43003EB430350F8B8
:1055B00033506A1CEDD121460348FCF787F84FF0C1
:1055C000FF35AEE7FC5C0200C42E00201871FF1FFF
:1055D000104E020010B517210446084814F082FB53
:1055E000074812F047FA00220123626684F8683007
:1055F0002046BDE81040FFF779BF00BF045D020000
:105600001871FF1F436E132B00F29480DFE803F044
:105610001C3E5B9292929292929292929292922BD2
:105620006C4E7F0A002901DA0F31FDD4424AD0F8CE
:10563000D80081FB0223CA18CB17C3EBE203C3EBEC
:105640000313C91A00F01EB9002901DA0331FDD491
:105650003A4B83FB0123A3EBE17303EB4303C91A2A
:10566000C9B2FFF739BC002901DA0F31FDD4324A43
:10567000D0F8D80081FB0223CA18CB17C3EBE20392
:10568000C3EB0313C91AC9B200F030B9D0F8D03057
:105690001B7D002903F1FF3301DAC918FDD491FB0A
:1056A000F3F203FB1211C9B2FFF720BC002904DAA0
:1056B000CB4323F003030431194401F00301D0F874
:1056C000D80000F0F3B8002901DA0F31FDD41A4AEE
:1056D00081FB0223CA18CB17C3EBE203C3EB03130E
:1056E000C91AC9B2FFF754BC002901DA0F31FDD441
:1056F000114AD0F8D80081FB0223CA18CB17C3EB9C
:10570000E203C3EB0313C91AC9B200F0CDB80029F4
:1057100001DA0F31FDD4084AD0F8D80081FB02230A
:10572000CA18CB17C3EBE203C3EB0313C91AC9B200
:1057300000F096B8704700BF89888888565555553F
:1057400008B51621034814F0CDFA0348BDE8084017
:1057500012F090B91C5D02001871FF1F70B50E4663
:10576000054611211A48144614F0BCFA194812F0E3
:1057700081F9B6F57A7F00D070BD95F868306BB9C5
:10578000EB6E012B10D0022B21D128462146FFF7CA
:1057900039FF2846BDE87040FFF7A8BE002385F812
:1057A0006830EB6E012BEED1002C01DA1634FDD4FB
:1057B000094BE21783FB0413C2EBA303162202FB7F
:1057C00013446C662846BDE87040FFF78FBE70BD7D
:1057D000345D02001871FF1FE9A28B2EB1F57A7FAC
:1057E00007D1C36E012B0DD00123C36680F868304A
:1057F0007047064B016782B01B680193019B4367AA
:1058000002B070470223C366704700BFC8940020EF
:10581000FF220021017381608273C27302617047AD
:105820000023FF22037183704371C37002704270C2
:10583000704700BF30B40139C9B244180125A370C4
:105840002571425430BC7047007D7047007A704724
:10585000407B7047007B7047C07B7047007C70477F
:1058600008B54B1E0F2B02D8C173012008BD0A4694
:1058700002480349FBF7A6FE002008BDC42E002005
:10588000A05E02000F2902DC01610120704708B50B
:10589000CAB203480349FBF795FE002008BD00BFCC
:1058A000C42E0020B45E020081607047042913D822
:1058B000DFE801F006090C0F0300042303737047AF
:1058C000002303737047012303737047022303739C
:1058D0007047032303737047CAB202480249FBF7BB
:1058E00071BE00BFC42E0020C85E02004B1E50FADD
:1058F00083F31B7913B14173012070471846704739
:105900008173704700234361704700BF807B7047FD
:10591000426983689A421DD01ADD10B50E490446CB
:105920000E48FBF7BDFD12210D4814F0DBF961694B
:105930000C4812F0EFF814210B4814F0D3F9A168C9
:10594000084812F0E7F8074812F094F8012010BD5B
:105950000020704701207047DC5E0200C42E00204A
:10596000F05E02001871FF1F045F020043690133FB
:1059700043617047F8B5112106466B4814F0B2F93F
:105980006A4812F077F8307B002878D13446012538
:10599000237967480821002B5ED014F0A3F929462B
:1059A000624812F0B7F82378FF2B3AD006216148FD
:1059B00014F098F900230A2221785C4812F06AF862
:1059C000A378002B53D10A215B4814F08BF9574878
:1059D00012F050F8EFB23946584806F09BF8584B91
:1059E00020781B6898473946A278544806F002FA96
:1059F000737BAB4266D0534B1B68013B0C2B10D81A
:105A0000DFE803F05A0F5A0F0F0F0F07470F0F0F62
:105A100041004A4806F0E4FA00F10F014A48FBF75A
:105A20006DF90135032D04F10104B1D1717B4348B7
:105A300006F070F8012373611521444814F052F9FF
:105A40003A4812F017F80021414814F04BF9374852
:105A5000BDE8F84012F00EB814F044F92946334876
:105A600012F058F809213B4814F03CF9D9E7082115
:105A7000394814F037F92D4811F0FCFFAAE7374BED
:105A80001B68984782E705F10F012F48FDF73CF8A6
:105A9000C7E72A4806F056FB00F110012A48FCF738
:105AA00009F8264805F0EEFE01462748FBF770FE90
:105AB0002548FBF713FCB4E7217823481031FBF7A6
:105AC0001DF9AEE73369FE2B12DDF37BFF2B92D07D
:105AD0001A4806F095FAF27B904204D31146174813
