:1000000000000320D101000089910100419101000D
:100010004191010041910100419101004191010094
:10002000419101004191010041910100899101003C
:10003000899101004191010091AC010095AD010051
:100040008991010089910100899101008991010044
:100050008991010089910100899101008991010034
:100060008991010089910100899101008991010024
:100070008991010089910100899101008991010014
:100080008991010089910100899101008991010004
:1000900089910100899101008991010089910100F4
:1000A000893A0100953A0100899101008991010086
:1000B000899101008991010089910100DDAD010064
:1000C0008991010009AF01008991010035B001005B
:1000D000899101002DB101008991010089910100F0
:1000E00089910100899101008991010089910100A4
:1000F0008991010089910100899101008991010094
:100100008991010089910100899101008991010083
:1001100089910100919B0100899101008991010061
:100120008991010089910100899101008991010063
:100130008991010089910100899101008991010053
:10014000758401008991010025B2010089910100A7
:100150008991010089910100899101008991010033
:100160008991010089910100A13A01008991010062
:100170008991010089910100899101008991010013
:100180008991010089910100899101008991010003
:1001900089910100899101001DB30100899101003D
:1001A00089910100899101008991010089910100E3
:1001B00089910100899101008991010089910100D3
:1001C00089910100899101008991010089910100C3
:1001D0005C4B4CF2205210B51A804DF628121A8052
:1001E00000BF00BF18F0D4FF574B4FF030621A60C9
:1001F000564A9A60564ADA60564B4FF470021A60BB
:10020000554B564A1A60564B1A78110703D51A787F
:1002100042F008021A70534B5349AA221A70534AEB
:10022000534B8B4204D252F8040F43F8040BF8E707
:10023000504B514900228B4202D243F8042BFAE77B
:100240004E494F4A002352F8230041F8230001335E
:10025000742BF8D14B4B4C4A802103F8011B93427D
:10026000FBD14A4B454A1A60494B8A221A70A3F5C2
:10027000805324225A70A0221A709A799207FCD5D2
:100280009A79D406FCD4434A937903F00C03082BE3
:10029000FAD1414B60221A7002331A78802AFCD1BD
:1002A0003C4B01221A715D225A719A799006FCD555
:1002B0009979384A4906FBD5384B394919600021EC
:1002C000596020231370937903F00C030C2BFAD19F
:1002D000344B354A1A60354A354C136813F4807331
:1002E00003D123604FF4A8531360324B324A1A6093
:1002F00000225A60072243F8042C304AC3F80C2D20
:1003000062B619F0B5FA2368DA0705D52C4819F05A
:10031000E7F92C4B2C4A1A602C4B1B785B0609D54D
:10032000284C294B22689A4204D1254819F0D8F963
:10033000002323601EF0DEFF18F030FF18F05EFE91
:10034000FEE700BF0E20054030800440823F0400DD
:100350000100002B88ED00E0002008E0030000858C
:1003600002D0074000E00740C07BFF1FC0AA020088
:10037000306FFF1FC07BFF1F38990020006AFF1FEE
:100380000000000000E400E064E400E008ED00E0AC
:10039000005006400040064001E007404480044011
:1003A0000000060204800440C010070010D0034083
:1003B00014D0034014E000E01FBF02000000202022
:1003C000690BB25E1CE00340A5C3945A00F00740DD
:1003D000FFFFFFFFFFFFFFFFFFFFFFFFFFFFFFFF2D
:1003E000FFFFFFFFFFFFFFFFFFFFFFFFFFFFFFFF1D
:1003F000FFFFFFFFFFFFFFFFFFFFFFFFFFFFFFFF0D
:10040000FFFFFFFFFFFFFFFFFFFFFFFFDEF9FFFF23
:1004100010B5054C237833B9044B13B10448AFF33E
:1004200000800123237010BDC07BFF1F000000006F
:10043000BCAA0200084B10B51BB108490848AFF32D
:1004400000800848036803B910BD074B002BFBD0A0
:10045000BDE81040184700BF00000000C47BFF1F2C
:10046000BCAA0200C07BFF1F0000000010B52422C0
:10047000044600211FF0DEFA002384F8243084F8BB
:100480002530204610BD00BFF8B5074690F824007F
:100490000D461646E0B13A46002404E00134844299
:1004A00002F1030212D01178A942F7D19178994252
:1004B000F4D104EB44043C446670A370062D5ED86E
:1004C000DFE805F031161D242B1031000A2C2BDC3F
:1004D00000EB40017A18013087F824007D545670F3
:1004E0009370EBE72E492F48BDE8F84001F0D8B9EA
:1004F00032462D492B48BDE8F84002F045B8324657
:100500002A492848BDE8F84002F03EB8324628495A
:100510002448BDE8F84002F037B826492148BDE834
:10052000F84001F0BDB9F8BD23491E4800F0B8FFFE
:10053000042122481AF0D6F92146214818F0EAF899
:10054000172120481AF0CEF900230A2297F8241028
:100550001B4818F09FF810211B481AF0C3F90C2112
:10056000174818F0D7F80B2118481AF0BBF929469C
:10057000134818F0CFF8124818F07CF89EE7144999
:10058000084800F08DFF152112481AF0ABF92946F2
:100590000B4818F0BFF80A48BDE8F84018F06AB8F0
:1005A000A4580200CC2E00206458020074580200A7
:1005B000805802009058020010580200245802008F
:1005C0001871FF1F2C5802004458020058580200AE
:1005D000B4580200C858020038B590F825300B2BEB
:1005E000044627D91F49204800F05AFF17211F4809
:1005F0001AF078F900230A2294F825101C4818F004
:1006000049F817211B481AF06DF900230A2294F8C3
:100610002410174818F03EF8102117481AF062F914
:100620000C21134818F076F80025114818F022F82C
:10063000284638BD03EB430317210C48E55C1AF04C
:1006400051F900230A2294F82510094818F022F8DD
:100650000B210A481AF046F92946054818F05AF8BD
:10066000284638BDF8580200CC2E0020E058020081
:100670001871FF1F2C5802004458020058580200FD
:1006800090F825300B2B04D803EB43031844407833
:10069000704710B513490446134800F001FF1721B5
:1006A00012481AF01FF900230A2294F82510104866
:1006B00017F0F0FF17210F481AF014F900230A224F
:1006C00094F824100A4817F0E5FF10210A481AF0A0
:1006D00009F90C21064818F01DF8054817F0CAFF63
:1006E000002010BD0C590200CC2E0020E058020062
:1006F0001871FF1F2C5802004458020090F8253052
:100700000B2B04D803EB430318448078704710B5D3
:1007100013490446134800F0C3FE172112481AF08B
:10072000E1F800230A2294F82510104817F0B2FFD0
:1007300017210F481AF0D6F800230A2294F8241043
:100740000A4817F0A7FF10210A481AF0CBF80C212D
:10075000064817F0DFFF054817F08CFF002010BD9A
:1007600020590200CC2E0020E05802001871FF1F13
:100770002C5802004458020090F825300133DBB2B7
:100780000B2B80F825308CBF00200120704700BF64
:10079000002380F8253070470022134680F824207B
:1007A00080F82520C2540333242BFBD1704700BFAF
:1007B000FFF7F2BF70B5044615460E460846022103
:1007C00018F0B4FF2846022118F0B0FF104A114B70
:1007D00052F83610012001F500762072266052F89A
:1007E0003520607202F5007500206560E060013B15
:1007F000FDD191F8003292F8002203F00103D207F4
:1008000044BF43F00203DBB2A372204670BD00BFB9
:10081000849F0200C0D4010090F814322DE9F04703
:100820000746002B7CD1DFF80C82794AD8F800000B
:10083000D468784D784E92F809E092E80A0091F871
:10084000009093F800C0117A714B1CEA0E0F09EA70
:1008500001015DD09B7A03F0030309B143F0040367
:1008600043F008039910013B91720D2B0AD8DFE881
:1008700003F075077207096F75756F0907720775C1
:10088000013CD460A04219D0DFF89891DFF890A124
:10089000D9F80030002C2246B8BFE21C92109A42D0
:1008A000CAF8002008D04FF47A715C480EF0FEFFC1
:1008B000DAF80030C9F80030C8F800402B686968E1
:1008C0001A78687A0C782B7A5249044202EA0302B9
:1008D00016D08B7A03F003030AB143F0040343F00C
:1008E00008039A10013BAA720D2B00F28180DFE809
:1008F00003F07B7766777F387B7B387F7766777B03
:100900008B7A03F00303002AEBD043F00403E8E7FB
:100910009B7A03F003030029A4D043F00403A1E76A
:100920003F4E404C40484149394ADFF80881394D33
:1009300000233360384E2360036087F814321C466E
:100940000B601846D360C8F80030EB60336072E784
:10095000023CD46096E70234D46093E70134D4605B
:1009600090E7EC68023CEC6007F5AE7017F0E4FB32
:100970002F4B00282DD11A68042A3BDC3268A41AB8
:1009800004EB840402EB44049442EC6026D01A6821
:10099000264D254F0132002C1A6022462B68B8BF25
:1009A000E21C92109A423A6006D040F2E9311B48AC
:1009B0000EF07CFF3B682B603460BDE8F087EC688C
:1009C0000234EC6007F5AE7017F0B6FB184B002848
:1009D000D1D03268002194421960D8D1BDE8F087A7
:1009E000EC68013CEC60BFE7EC680134EC60BBE70D
:1009F000EC68B9E7092A326805DCA41A04EB840420
:100A000002EB8404C0E76421A41A01FB0424BBE7C1
:100A1000107CFF1F207CFF1F847CFF1FB06700201D
:100A2000547CFF1F5C7CFF1F587CFF1F607CFF1FF6
:100A3000DC7BFF1F7C7CFF1FF8B590F81432002B85
:100A400047D12F4D2F4A2868D468577A92E848003A
:100A5000197896F800E0137A2A4E1EEA070F01EA89
:100A600003012ED0B37A03F0030309B143F004036A
:100A700043F008039910013B91720D2B0AD8DFE86F
:100A800003F03C07390709363C3C36090739073C77
:100A9000013CD460A04213D01B4E1C4F3368002C85
:100AA0002246B8BFE21C92109A423A6006D04FF438
:100AB0007A71174805F07EFA3B6833602C60F8BD08
:100AC000F8BDB37A03F003030029D3D043F0040345
:100AD000D0E70E4E0C490B4A094D002380F8143222
:100AE0001C4633600B601846D3602B60ADE7023CB8
:100AF000D460CFE70234D460CCE70134D460C9E7D6
:100B00008C7CFF1F107CFF1FB47CFF1FB07CFF1F7D
:100B1000A82D00202DE9F84F002383461D460E46E0
:100B200080F87431994600F5D67A00F180081024D7
:100B3000012706E08BF8747101350134102DE4B201
:100B400016D05AF8043F002BF6D0B342F2D8DBF8A7
:100B50001032CAF800905B5D2146404653B901351A
:100B600013F064FB0134102D8BF87571E4B2E8D1F9
:100B7000BDE8F88F13F01AFB0028DDD1214640466E
:100B800013F036FB8BF87571D6E700BF38B5144CFF
:100B90000C40002C1FDB031993F8A0516DB9012202
:100BA00083F8A021C9B2803013F022FB2A462146E7
:100BB0000C48BDE838400CF02BBA002283F8A02185
:100BC000C9B2803013F032FB214601220548BDE84E
:100BD00038400CF01DBA013C64F00F040134DAE730
:100BE0000F0000800831002038B5144C0C40002C58
:100BF0001FDB031993F8A0216AB90125C9B280301F
:100C000083F8A05113F0F4FA2A4621460C48BDE8B7
:100C100038400CF011BA0025C9B2803083F8A051D9
:100C200013F004FB2A4621460548BDE838400CF085
:100C300003BA013C64F00F040134DAE70F000080CE
:100C40000831002038B5144C0C40002C1FDB031970
:100C500093F8A0216AB90125C9B2803083F8A05168
:100C600013F0C6FA2A4621460C48BDE838400CF07D
:100C700083BB0025C9B2803083F8A05113F0D6FAA7
:100C80002A4621460548BDE838400CF075BB013CBA
:100C900064F00F040134DAE70F000080083100200F
:100CA000154B0B40002B10B504461FDB234493F873
:100CB00080216AB9012283F88021C9B204F1800041
:100CC00013F096FA012384F8153284F8143210BD1B
:100CD000002283F88021C9B204F1800013F0A6FA43
:100CE000012384F8153284F8143210BD013B63F0FF
:100CF0000F030133DAE700BF0F0000802DE9F8434E
:100D000080460F4600F1800600F29F1510244FF038
:100D1000000903E00134E4B2202C0DD015F8013FA6
:100D2000002BF7D0214601343046E4B213F07EFAAE
:100D3000202C85F80090F1D1094B3B40002B09DBBA
:100D400043440122F9B2304683F8A021BDE8F843BC
:100D500013F04EBA013B63F00F030133F0E700BF1D
:100D60000F000080F8B507464D1E00F180061024E4
:100D700005E00134E4B213F03BFA202C0DD015F855
:100D8000013F21463046002BF3D121460134304645
:100D9000E4B213F04BFA202CF1D1012387F875311E
:100DA000F8BD00BF38B500F5D0750446C0F8105244
:100DB00000F29F13002200F2AF1003F8012F8342CC
:100DC000FBD106480BF00CFF2318012229462046D0
:100DD00083F89F21BDE83840FFF7C4BF08310020E9
:100DE00038B505460C480BF0ADFF05F5D071C5F8D8
:100DF000101205F29F1305F2AF14002203F8012F21
:100E0000A342FBD12B180122284683F8A021BDE87C
:100E10003840FFF7A7BF00BF0831002038B50546AE
:100E20000C480CF09DFD05F5D071C5F8101205F2C7
:100E30009F1305F2AF14002203F8012FA342FBD148
:100E40002B180122284683F8A021BDE83840FFF77F
:100E500089BF00BFB067002038B500F5D0750446E3
:100E6000C0F8105200F29F1300F2AF11002203F8F5
:100E7000012F8B42FBD12946044810220BF044FD80
:100E800029462046BDE83840FFF76CBF08310020F6
:100E9000B64B1B6870B5013B00F5AA7504462846A1
:100EA0000C2B00F28480DFE803F04B4B6C4B4B8241
:100EB0004B4B4B25824B070017F006F9002840F0FA
:100EC000038104F5AE75284617F0FEF8002840F0BF
:100ED0009E8004F5B275284617F0F6F8002840F019
:100EE000518104F5B674204617F0EEF8002840F062
:100EF000D38070BD17F0E8F8002840F0D48004F5E6
:100F0000AE75284617F0E0F8002840F0068104F599
:100F1000B275284617F0D8F8002840F0AB8004F5E9
:100F2000B674204617F0D0F80028E2D0204617F01B
:100F300011F9002800F040818D4B0022DA6070BD6D
:100F400017F0C2F8002840F0DE8004F5AE752846A0
:100F500017F0BAF8002840F0F68004F5B27528467C
:100F600017F0B2F8002864D104F5B674204617F0E3
:100F7000ABF80028BDD0204617F0ECF80028DBD1F4
:100F800070BD17F0A1F80028B3D0284617F0E2F89A
:100F9000002800F01281774A636A0021D160002B9B
:100FA00000F00C814FF47A70BDE87040184717F0DC
:100FB0008BF800284ED104F5AE75284617F084F85A
:100FC000002840F0AE8004F5B275284617F07CF892
:100FD00060B904F5B674204617F076F8002888D07A
:100FE000204617F0B7F80028A6D170BD284617F0A4
:100FF000B1F80028EDD0604B002204F5B674DA6039
:10100000204617F061F800283FF473AFE8E7284660
:1010100017F0A0F800283FF45CAF584B002204F50D
:10102000B275DA60284617F04FF800283FF459AF40
:10103000A8E0284617F08EF8002895D04E4B0022E5
:1010400004F5B674DA60204617F03EF800283FF445
:1010500050AF90E7284617F07DF80028ABD0454BFD
:10106000002204F5AE75DA60284617F02DF8002846
:10107000A9D056E0284617F06DF800283FF44FAF8E
:101080003D4B002204F5B674DA60204617F01CF8D8
:1010900000283FF42EAF49E7204617F05BF8002800
:1010A0007FF44AAF70BD284617F054F800283FF48B
:1010B00026AF304A636A0021D160002B3FF41FAF96
:1010C0004FF47A7098471AE7284617F043F800283B
:1010D0003FF4F7AE2A480BF0EBFC421E54FA82F2C2
:1010E00092F8A03183F0010382F8A031002B5BD18C
:1010F00000F10F01C9B204F1800013F097F8012349
:1011000084F87531DDE6284617F024F800283FF40E
:101110001CAF1B480BF0CCFC17E7284617F01AF859
:10112000F5E6284617F016F800283FF44CAF134BAD
:10113000002204F5B275DA60284616F0C5FF0028D3
:101140003FF447AF52E7284617F004F800283FF471
:1011500004AF0A4B002204F5B275DA60284616F097
:10116000B3FF00283FF400AF63E700BFBC6FFF1F71
:10117000407CFF1F107CFF1F307CFF1F207CFF1F67
:1011800008310020284616F0E5FF00283FF4A9AEFC
:101190000B4B002204F5B674DA60204616F094FF7B
:1011A00000283FF4A6AE77E700F10F01C9B204F1C1
:1011B000800013F01DF8A2E770BD70BD70BD00BFC8
:1011C000307CFF1FA1F57A71032906D8DFE801F012
:1011D0000E0A0602074B0022DA607047064B002217
:1011E000DA607047054B0022DA607047044B00223A
:1011F000DA607047407CFF1F307CFF1F207CFF1FA0
:10120000107CFF1F70B500F586750446284616F061
:101210005BFF00B970BD284616F09CFF0028F9D08E
:10122000A36ABDE87040184708B590F8A40017F00D
:1012300067FE084A1368C0F58040A3F16401884244
:1012400002DB6433984201DD106008BD4FF0FF30CF
:1012500008BD00BF6C7CFF1F08B590F8A80017F010
:101260004FFE074A1368A3F16401884202DB64332E
:10127000984201DD106008BD4FF0FF3008BD00BF8F
:10128000647CFF1F30B500F58A7483B005462046A4
:1012900016F01AFF30B9204616F052FF80B9002030
:1012A00003B030BD204616F055FF0028F3D00A4B9E
:1012B0001B680193019BC5F8B030012003B030BD1D
:1012C00095F824320020042BC5F8B000E7D185F84A
:1012D0002402A5F82602E3E7D0940020054B82B053
:1012E0001B680193019B03F5FA63C0F8283202B032
:1012F000704700BFD0940020054B82B01B6801935B
:10130000019B03F5FA63C0F82C3202B0704700BFAE
:10131000D0940020F0B5B1B007462849284E684661
:10132000144617F093FB274904A817F08FFB2649B2
:1013300008A817F08BFB25490CA817F087FB244958
:1013400010A817F083FB234914A817F07FFB22494C
:1013500018A817F07BFB21491CA817F077FB204940
:1013600020A817F073FB1F4924A817F06FFB1E4934
:1013700028A817F06BFB1D492CA817F067FB86FB0C
:101380000426E317C3EB660606EB4601A4EB8101D6
:10139000C9B20DEB0111384617F06CFBF1B23846BB
:1013A00017F0FCFB6D4630AC103C204617F00EFBEE
:1013B000AC42F9D1384631B0F0BD00BF64590200EB
:1013C000ABAAAA2A68590200B85A02006C59020056
:1013D000C4580200885C020070590200AC5D020033
:1013E00074590200785902007C59020080590200A9
:1013F000F0B5144DDFF854E00E4617460FCD8FB010
:1014000002AC0FC40FCD0FC495E80F008EFB065E33
:10141000F517C5EB6E0584E80F0005EB450EA6EB4E
:101420008E060EABF6B203EB8606EDB256F8303CF4
:10143000054A0095384604211EF058FD38460FB085
:10144000F0BD00BF3459020084590200ABAAAA2A99
:1014500010B5012200210D48FFF7ACF9032202214B
:101460000B48FFF7A7F9052204210A48FFF7A2F964
:10147000082206210848FFF79DF921232322222173
:101480000648BDE8104012F013BB00BF107CFF1FE0
:10149000207CFF1F307CFF1F407CFF1F907CFF1FC4
:1014A00010B586B00B460A4C0A4A684615211EF054
:1014B0001DFD00221146204612F026FC68461EF053
:1014C0009FFF69460246204617F098F806B010BD07
:1014D000907CFF1F8C5902002DE9F04F354D83B0F1
:1014E000804635480D40894604F042F8002D82467A
:1014F0004EDB554543DC08F1800608F29F1B1024A3
:10150000002703E00134E4B2202C0DD01BF8013F8A
:10151000002BF7D0214601343046E4B212F086FEAB
:10152000202C8BF80070F1D1554536D0ECB2214615
:10153000214803F0EBFEB0B1214606221E4803F01D
:101540000DFF1E4B1B680193019BC8F8D430454426
:1015500001235FFA89F1304685F8A03112F048FE88
:1015600003B0BDE8F08F40461549FFF799FF5FFAD9
:1015700089F1304612F05AFE03B0BDE8F08F5FFAF1
:1015800089F108F1800012F051FE03B0BDE8F08F40
:10159000013D65F00F050135ABE7E9B208220648C9
:1015A00003F0DCFE054B1B680093009BC8F8D830A5
:1015B0004544CDE70F000080A82D0020D0940020E6
:1015C000A05902002DE9F84F4E4D04464E480BF04D
:1015D00017FB2B68033B0646042B00F28280DFE8F2
:1015E00003F032681C80030070B104F29F140025E0
:1015F000294645480BF070FB0135003018BF01202B
:10160000B54204F8010FF3D10B21404819F06AF9F3
:101610003F48BDE8F84F17F02DB858B104F29F14B9
:101620000025294638480BF045FB0135B54204F842
:10163000010FF6D10921374819F054F93448BDE8B3
:10164000F84F17F017B8344803F092FF064638B346
:1016500000F110085FFA88FA04F1800704F29F1B7A
:1016600010254FF00109294601350BF8019F384636
:10167000EDB212F0BDFDAA45F5D1102E88BF0025B0
:1016800002D80DE006F11008A31901365FFA88F1BF
:1016900083F8A0513846F6B212F0C8FD102EF1D8EA
:1016A0000A211E4819F01EF91948BDE8F84F16F036
:1016B000E1BF68B104F29F140025294612480BF0DF
:1016C000E7FA013580F00100B54204F8010FF4D1CA
:1016D0000921134819F006F90D48BDE8F84F16F036
:1016E000C9BF20460F49FFF7DBFE06210E4819F05F
:1016F000F9F82968064817F00DF80548BDE8F84FD5
:1017000016F0B8BFBC6FFF1F08310020B4590200AB
:101710001871FF1FC0590200A82D0020D8590200DF
:10172000CC590200E4590200F859020038B500F51E
:10173000D0750446C0F8105200F29F13002200F248
:10174000AF1003F8012F8342FBD12046FFF73AFF89
:1017500029462046BDE83840FFF704BB10B588B0E5
:101760000B4600920A4C0B4A02A815211EF0BEFB44
:1017700000221146204612F0C7FA02A81EF040FED1
:1017800002A90246204616F039FF08B010BD00BF7E
:10179000907CFF1F005A020030B5D0F818120C4C94
:1017A0000C4A87B00546013168461EF09FFB0021B8
:1017B000C5F828122046022212F0A6FA68461EF04A
:1017C0001FFE69460246204616F018FF07B030BDDE
:1017D000907CFF1F145A020030B5D0F81C120C4C3C
:1017E0000C4A87B00546013168461EF07FFB002198
:1017F000C5F82C122046012212F086FA68461EF027
:10180000FFFD69460246204616F0F8FE07B030BDDF
:10181000907CFF1F145A020010B5D0F8283282B015
:1018200004462BB10E4A12680092009A934210D3DC
:10183000D4F82C325BB10A4A12680192019A9342A1
:1018400005D22046FFF7C8FF0023C4F82C3202B0AF
:1018500010BDFFF7A1FF0023C4F82832E8E700BF5E
:10186000D094002070B50D4D0C460646FFF794FF4E
:1018700002220021284612F047FA20461EF0C0FD41
:1018800021460246284616F0B9FE20461EF0B8FD55
:10189000142828BF1420C6F8180270BD907CFF1FC2
:1018A00070B5114D0C460646FFF776FF284602221A
:1018B000002112F029FA20461EF0A2FD2146024620
:1018C000284616F09BFE20461EF09AFDC6F8180228
:1018D00020461EF095FD0146204619F003F8034806
:1018E000BDE8704016F0C6BE907CFF1F1871FF1F48
:1018F00010B586B00B460D4A0D4C152168461EF0FA
:10190000F5FA68461EF07CFDC0F11001C9B2204610
:10191000002212F0F9F968461EF072FD694602468F
:10192000204616F06BFE06B010BD00BF2C5A020018
:10193000907CFF1F70B50E4C05460E4620460122D6
:10194000002112F0E1F913220A49204616F056FE52
:1019500020460222002112F0D7F93146204616F027
:1019600063FE1323C5F81832C5F81C3270BD00BFE2
:10197000907CFF1F305A02002DE9F04F2DED028BB5
:1019800091B000F5C07103907C480AF069FF00280F
:1019900040F09180039B0290FF27064680468146D7
:1019A00001900446BB463D46009703F27F1AB7EE0E
:1019B000008A02E00134102C4FD01AF8012F002ABF
:1019C000F8D0224608A86D490AF0FCFC9DF82420B6
:1019D0000098824208D001990131CBB29042019324
:1019E000034628BF13460093DDED0D7AF4EE487AE6
:1019F000F1EE10FA03D0029A0132D3B20293F4EE60
:101A0000C87AF1EE10FA21465C48D8BFB0EE678A7A
:101A10000BF01AF9A84207D0854209F1010928BF45
:101A200005465FFA89F9EDB29DF839205A4506D08E
:101A300008F1010893455FFA88F828BF93469DF89E
:101A40003820BA42B6D0974204F1010406F10106EB
:101A500028BF1746102CF6B2AFD10122002148480A
:101A600012F052F912224749454816F0C7FD29469F
:101A700004A817F01DF8B9F1010F25D9424920E05B
:101A8000424904A817F07CF8069B112BF8D90222D2
:101A900000213B4812F038F904A9394816F0C4FD7A
:101AA000039C102312220DEB0300C4F81822C4F883
:101AB0001C3216F08BFF11B0BDEC028BBDE8F08F2D
:101AC000324904A817F05CF8069B022BF8D9594656
:101AD00008A816F0EDFF08A904A817F04DF808A80B
:101AE00016F074FFB8F1010F05D9274900E0274926
:101AF00004A817F045F8069B052BF8D9394608A825
:101B000016F0D6FF08A904A817F036F808A816F0B2
:101B10005DFF012E05D91C4900E01C4904A817F0FF
:101B20002FF8069B082BF8D9009A039908A8FFF70D
:101B3000F1FB08A904A817F01FF808A816F046FF43
:101B4000019B012B05D9104900E0104904A817F0AA
:101B500017F8069B0C2BF8D9B0EE480A022108A80A
:101B600016F0BAFF08A904A817F006F808A816F09E
:101B70002DFF029B012B87D9034982E70831002002
:101B8000907CFF1F585A02006C5A0200B05A0200A3
:101B900010B502220C460B48122112F0B5F80A4982
:101BA0000848022216F02AFD082CD4BF1321122166
:101BB0000448022212F0A8F821460248BDE810406D
:101BC00016F0A8BD907CFF1F9C59020038B5044652
:101BD0000E480AF015FC04F5D0710546C4F8101241
:101BE00004F29F1304F2AF10002203F8012F834286
:101BF000FBD163190122204683F8A021FFF7B2F838
:101C000029462046BDE83840FFF7C2BF0831002012
:101C100010B503220C460B48122112F075F80A4940
:101C20000848022216F0EAFC082C94BF1321122166
:101C30000448032212F068F8611C0248BDE8104015
:101C400016F068BD907CFF1F9C59020030B5204BF8
:101C50001B7883B004460D461BB91E4B1B68092B2D
:101C600012D01D48A46B0AF0D9FB1C492940002959
:101C7000024604DBC9B20220A04703B030BD0139DF
:101C800061F00F010131F5E7FFF738F813492940FA
:101C9000002918DBCDB229460F480AF0D7FB0E48C1
:101CA0000AF0A0FB01462046FFF7FAFD0C4B1B682B
:101CB0000193019B03F5FA632946C4F828322046B4
:101CC000FFF7A6FFD9E7013961F00F010131E1E724
:101CD00001670020BC6FFF1F083100200F0000804B
:101CE000D094002010B502220C460D480F2112F0AE
:101CF0000BF80C490A48022216F080FC092C4FF020
:101D0000020294BF10210F21054811F0FDFF21466A
:101D100000230A220248BDE8104016F0BBBC00BFF9
:101D2000907CFF1F9C59020038B504460E480AF00B
:101D300075FB04F5D0710546C4F8101204F29F1328
:101D400004F2AF10002203F8012F8342FBD1631984
:101D50000122204683F89F21FFF704F829462046F8
:101D6000BDE83840FFF7BEBF0831002038B5524DFE
:101D70002B68013B04460C2B00F29380DFE803F054
:101D80005F6B6D07071A0726313C4A867B000023EC
:101D900000F5D075026A4362012380F83132C0F841
:101DA00010528262FFF70EFC29462046BDE83840FB
:101DB000FEF7D8BF036A8362002200F5C071426259
:101DC000C0F81012BDE83840FEF7CCBF8368026A45
:101DD0004362012380F831328262BDE83840FEF769
:101DE000E1BF0023026A4362012380F8313282623C
:101DF000BDE83840FEF7F4BFC36A026A43620123BC
:101E000080F831328262FFF709F82C48BDE838408B
:101E10000CF022BC036A836200F5D071002242629A
:101E2000C0F8101200F29F1300F2AF1003F8012F58
:101E30008342FBD12046BDE83840FEF793BFC3681C
:101E4000226A63620123A26284F831322046BDE82F
:101E50003840FFF7BBBE0369F2E70023026A436222
:101E6000012380F831328262FFF760FC1448BDE83C
:101E7000384003F003BF0023026A4362012380F865
:101E800031328262BDE83840FEF7E6BF436B026A3A
:101E90004362012380F831328262BDE83840FFF7A7
:101EA00043BF2921074818F01DFD29680648BDE8F1
:101EB000384016F02FBC00BFBC6FFF1FB06700207A
:101EC000A82D0020705A02001871FF1F134A144BEE
:101ED000126870B553F82250124C86B00646284658
:101EE0001EF08EFAD6F820120F4AC6F82002814260
:101EF000B8BF01462B46013168461DF0F7FF20466A
:101F00000122002111F000FF68461EF079FA6946AF
:101F10000246204616F072FB06B070BDBC6FFF1F74
:101F20007C6FFF1F907CFF1F9C5A020070B500F56C
:101F3000927586B00446284616F0C6F800284CD1A3
:101F4000284616F0FDF8002840F04D8104F59A75FA
:101F5000284616F0B9F800286ED1284616F0F0F899
:101F6000002840F04C8104F59675284616F0ACF830
:101F7000002840F08E80284616F0E2F8002840F055
:101F80002A8104F59E75284616F09EF8002840F038
:101F9000AB80284616F0D4F8002840F0208104F5E4
:101FA000A275284616F090F8002840F0C080284618
:101FB00016F0C6F8002840F02E8104F5A6752846D4
:101FC00016F082F8002840F0D580284616F0B8F8C0
:101FD000002840F0EC8006B070BD284616F0BAF834
:101FE0000028ADD02046FFF7D7FBA34A1368012B8A
:101FF00000F01581022B00F02181032B00F0E1801D
:102000000A2B00F030819D4B1B6813602046FFF7C0
:10201000ADFE2046FFF75AFF994B1B680093009BCB
:10202000C4F8B83004F59A75012384F814322846B0
:1020300016F04AF8002890D0284616F08BF80028B1
:102040008BD02046FFF7A8FB8B4A1368062B00F0C5
:10205000F0800C2B00F001810D2B00F0AD80894B3E
:102060001B6813602046FFF781FE2046FFF72EFF16
:10207000834B1B680193019BC4F8C03004F596752F
:10208000012384F81432284616F01EF800283FF485
:1020900072AF284616F05EF800283FF46CAF204679
:1020A000FFF77AFB744B1A68052A00F0BD80042AFA
:1020B00000F0CE80744A12681A602046FFF756FE80
:1020C0002046FFF703FF6E4B1B680293029BC4F888
:1020D000BC3004F59E75012384F81432284615F0AF
:1020E000F3FF00283FF455AF284616F033F80028D8
:1020F0003FF44FAF2046FFF74FFB5F4B07222046D0
:102100001A60FFF733FE2046FFF7E0FE5C4B1B68CA
:102110000393039BC4F8C43004F5A275012384F82B
:102120001432284615F0D0FF00283FF440AF28466F
:1021300016F010F800283FF43AAF2046FFF72CFBCA
:102140004D4B082220461A60FFF710FE2046FFF78D
:10215000BDFE4B4B1B680493049BC4F8C83004F5C8
:10216000A675012384F81432284615F0ADFF002827
:102170003FF42BAF284615F0EDFF00283FF425AFC4
:102180002046FFF709FB3C4B092220461A60FFF767
:10219000EDFD2046FFF79AFE394B1B680593059B22
:1021A000C4F8CC30012384F8143206B070BD00238B
:1021B000C4F8CC3006B070BD324906230B60136002
:1021C00050E72E4D314901264FF0FF300A232E6093
:1021D000086013601AE70023C4F8BC30D1E600237E
:1021E000C4F8C430DBE694F824220023022AC4F8A1
:1021F000B83004BF84F82432A4F82632A6E694F856
:1022000024220023032AC4F8C03004BF84F82432F7
:10221000A4F82632A7E60023C4F8C830CDE6174854
:10222000022103601160F1E6174904220A601A6076
:1022300043E714480C210360116013E70F4D134965
:1022400001264FF0FF3003232E6008601360DDE6A7
:102250000D4905220A601A602FE70A4906200D235E
:1022600008601360FEE6054D084901234FF0FF307A
:102270002B6013600860C9E6BC6FFF1F3C6FFF1F37
:10228000D0940020346FFF1F386FFF1FB86FFF1FFF
:1022900070B5044616480E460AF0C0F806F00F0363
:1022A0000133984206D004F5D0712046BDE8704055
:1022B000FEF758BD054631462046FEF71FFD29466C
:1022C0002046FFF70FFD0A480AF03CFD0146204674
:1022D000FFF79EFC074B062220461A60FFF746FDDB
:1022E0002046FFF7F3FD012384F8143270BD00BFD0
:1022F00008310020BC6FFF1F10B500220C461248A9
:10230000112111F001FD032210490F4816F076F952
:10231000632C4FF000020CDC092CCCBF12211321DE
:10232000094811F0F1FC21460748BDE8104016F0BD
:10233000F1B91121044811F0E7FC21460248BDE83B
:10234000104016F0E7B900BF907CFF1F505A020002
:1023500010B501220C461248112111F0D5FC0322C0
:1023600010490F4816F04AF9092C4FF001020CDD14
:10237000632CD4BF12211121094811F0C5FC21465C
:102380000748BDE8104016F0C5B91321044811F004
:10239000BBFC21460248BDE8104016F0BBB900BFA7
:1023A000907CFF1F505A0200F0B587B005460C9F85
:1023B0000D9E0E9C0F9829606A601499159AAB6067
:1023C000EF60109B119F2E616C61129E139C6963DC
:1023D000AA63EB61A8612F62EE622C6305F1A8038A
:1023E00005F1D001002243F8042F9942FBD105F2F8
:1023F0007F1205F28F13002102F8011F9A42FBD1D0
:1024000005F29F11002203F8012F9942FBD105F537
:10241000D67305F5F671002243F8042F9942FBD1DB
:1024200005F2EF1305F20F21002203F8012F994264
:10243000FBD1762475217422732305F1800677275A
:102440000394029101920093304672230497712203
:10245000702111F0E3FFEB6B002BC8BF002420DDDF
:102460002146304611F0C4FE304612F031F80A2001
:1024700017F0ACF90134EB6BE4B29C42F0DB002BBB
:102480000FDD00242146304611F0D0FE304612F018
:102490001FF80A2017F09AF90134EB6BE4B29C4262
:1024A000F0DB142017F092F92846FFF75FFC28466E
:1024B000FFF70CFD0F480FF055F901462846FFF7CE
:1024C0001BFF0C480FF050F901462846FFF740FF6C
:1024D00009480AF037FC01462846FFF799FB0648F1
:1024E00009F09CFF0146284607B0BDE8F040FFF721
:1024F000F9BB00BFD490002008310020F8B51F4C74
:102500001F4F154600220E462046114611F0FCFBD7
:10251000204611221B4916F071F800221146204670
:1025200011F0F2FB30461DF06BFF314602462046AB
:1025300016F064F820460122002111F0E5FB284640
:102540001DF05EFF29460246204616F057F8304639
:102550001DF056FF0146304618F0C4F9384616F013
:1025600089F828461DF04CFF0146284618F0BAF9B4
:102570003846BDE8F84016F07DB800BF907CFF1FDC
:102580001871FF1FA05A0200B0B588B002AF044610
:102590000B4600921521164A164D38461DF0A6FC32
:1025A00038461DF02DFFD4F81832C4F818029842AE
:1025B0000146B8BF194601F1080323F00703ADEB4C
:1025C000030D02AC3B460C4A013120461DF08EFC47
:1025D00028460222002111F097FB20461DF010FF33
:1025E00021460246284616F009F81837BD46B0BD08
:1025F000B45A0200907CFF1F9C5A02002DE9F0475C
:1026000090F8313282B00546002B40F08280584E5F
:10261000584A3068D46892F809E092E8880019783E
:1026200097F800C0137A534F1CEA0E0F01EA03011A
:102630005AD0BB7A03F0030309B143F0040343F01B
:1026400008039910013B91720D2B0AD8DFE803F0C3
:102650005E075807095B5E5E5B090758075E013C31
:10266000D460C31EA34202DC0330A04239DA4248E0
:1026700009F0D4FE3368E31A48BF033300EBA30725
:10268000002F39DC0127DFF80081D8F800309F42A5
:1026900026D05FFA87F94946374809F0EBFF3A46FA
:1026A00036492846FFF770FF354B364A1B680193C1
:1026B000019B126803F5FA630C2AC5F8283239D059
:1026C00049462846FFF70EFB2B480AF03BFB014624
:1026D0002846FFF79DFA2846FFF748FBC8F8007028
:1026E000346002B0BDE8F087BB7A03F00303002931
:1026F000A7D043F00403A4E7022FA8BF0227C2E734
:102700000234D460ADE7023CD460AAE70134D4605F
:10271000A7E7002380F831321748154E09F07EFEF6
:102720001949144A086003B29B001C4618463360DE
:10273000D36070E7D8F80030E8192B44002209F183
:102740000F014FF0010A05F1800980F89FA1C9B27D
:1027500083F89F21484611F04BFDD8F800100F3147
:102760004846C9B211F062FD85F875A1B6E700BF11
:10277000807CFF1F107CFF1F083100200C6E0200C0
:10278000D0940020BC6FFF1FF07BFF1F2DE9F041AC
:10279000A84D2DED028B2B68DA0782B0044640F17C
:1027A000EB81A54D2B68DB0740F1D78194F81432FB
:1027B000002B40F0AF81A14DA14E2B6869681A78BB
:1027C000687A0F782B7A9D49074202EA03021DD0EE
:1027D0008B7A03F003030AB143F0040343F00803C8
:1027E0009A10013BAA720D2B00F26881DFE813F00A
:1027F000540150014C01500166011600540154016E
:102800001600660150014C01500154018B7A03F00F
:102810000303002AE4D043F00403E1E7EB68023B42
:10282000EB6007EE903A9FED876A96ED007ADFED58
:10283000866AF8EEE77A87EE868A77EE267AB4EE35
:10284000E78AF1EE10FA06DA37EE667AB4EEC78A56
:10285000F1EE10FA40D87D4BDFED7D7AD3ED006AC2
:10286000B1EE007AE6EEC77AB4EEE78AF1EE10FA3E
:1028700040F13A81B9EE008A26EE888ADFED717A5E
:1028800068EE277AFDEEE77AC5ED037A714D724F57
:1028900095ED000AF5EE007A68EE277AF4EE407ABC
:1028A000F1EE10FAC7ED007A40F075819FED650AF0
:1028B0006A4967EE807A2046FDEEE77A17EE902AA5
:1028C000FFF762FE664B86ED008A1B680193019B51
:1028D00003F5FA63C4F82832624A1368506819781D
:1028E0000578507A137A054201EA030100F0F3807B
:1028F000937A03F0030309B143F0040343F00803A0
:102900009910013B91720D2B00F2D680DFE813F095
:10291000D000C800CC00C800D4000E00D000D00009
:102920000E00D400C800CC00C800D000D568023D1D
:10293000D5604D4E3368DA1EAA4202DCDA1CAA4288
:102940001DDA4A4FDFF83C81EA1A3B68D8F80010DC
:1029500048BF033203EBA203082BA8BF082323EAD6
:10296000E37399423B6006D0194641480EF0F4FEED
:102970003968C8F800102046FFF7EAFC35603D4A88
:102980001368506819780578507A137A054201EA7D
:10299000030100F09780937A03F0030309B143F039
:1029A000040343F008039910013B91720D2B00F2D0
:1029B0008780DFE803F03B37333785073B3B0785EC
:1029C0003733373BD568023DD5602B4E3068C31E88
:1029D000AB4202DCC31CAB421BDA284A281A13683C
:1029E00048BF033003EBA000002840F3E280B0F5BD
:1029F000967FA8BF4FF49670214F10603B68DFF8B8
:102A00007C80984204D063699847D8F800303B60D6
:102A1000356002B0BDEC028BBDE8F081D5680235AF
:102A2000D560D2E7D568013DD560CEE7D5680135E0
:102A3000D560CAE70C7CFF1F047CFF1F207CFF1FB2
:102A4000687CFF1F0000C8420AD7233D707CFF1F2F
:102A500000000000AC7CFF1FE47BFF1FBC5A02009B
:102A6000D0940020307CFF1FBC7CFF1F007CFF1F28
:102A7000D4900020407CFF1F087CFF1F787CFF1F44
:102A8000E87BFF1FFC7BFF1FEB680233EB60C8E6AF
:102A9000EB68013BEB60C4E6EB680133EB60C0E63A
:102AA000D568013DD56044E7D5680235D56040E77B
:102AB000D5680135D5603CE7D5683AE7EB68B0E604
:102AC000D56882E7937A03F0030300293FF46BAFE4
:102AD00043F0040367E7937A03F0030300293FF40C
:102AE0000FAF43F004030BE7334BD3ED007A27EE2F
:102AF000877AB4EEC78AF1EE10FA7FF7C7AEDFED42
:102B00002F7A67EE277AB0EE478AFDEEE77AC5EDB9
:102B1000037ABBE62A482B4DDFF8C4E02A4E002397
:102B2000002204F5C077036084F81422EA60394675
:102B30002648CEF8003033600AF074F9244B23485D
:102B400083ED000A39460AF0ABF9F7EE007A37EE6A
:102B5000C00A194B83ED000A2FE6284616F038FB11
:102B600000283FF423AE1B480EF0FEFD1A4B186000
:102B7000284616F033FB19E6284616F029FB0028F4
:102B80003FF40FAE13480EF0EBFD144B18602846CF
:102B900016F024FB05E637EEC00A94F830220B4805
:102BA00004F5C0710AF000FBD7ED007AC5ED007A9C
:102BB0007CE6012020E700BF747CFF1F0000C842B4
:102BC000E47BFF1F207CFF1F687CFF1F0831002073
:102BD000707CFF1FD4900020007CFF1F787CFF1FBB
:102BE000AC7CFF1F384B1B680D2B00D070472DE9C4
:102BF000F041364BCFB20B4007F00F06002B82B0EE
:102C000006F1010639DBC418054694F8A0317BB102
:102C10002F4B93F80080B8F1000F33D14246314674
:102C20002C4809F0E7FE002838D102B0BDE8F08159
:102C3000274B1B78DBB901223146264809F0DAFE22
:102C400030B3012384F8A031394605F1800011F03A
:102C5000CFFA324620492846FFF796FC1F4B1B68E7
:102C60000193019B03F5FA63C5F82832DDE7836B16
:102C70003246012104209847D7E7013B63F00F0358
:102C80000133C0E7836B3246002104209847CCE72C
:102C9000394605F1800011F0C9FAC6E7394605F159
:102CA000800084F8A08111F0C1FA32460C49284610
:102CB000FFF76AFC094B1B680093009B03F5FA635E
:102CC000C5F82832B1E700BFBC6FFF1F0F000080BE
:102CD0000167002008310020D85A0200D09400205B
:102CE000C85A020010B5013A92B00446052A00F213
:102CF000B280DFE802F0203A57728C0340F6B83316
:102D0000994200F0138140F29C8041F2883399424D
:102D100000F0C98041F65833994240F097809649B7
:102D2000FEF7BEFD954B1B681193119B03F5FA63EB
:102D3000C4F8283288E0924801910AF0D9FC019940
:102D400040F6B833994200F0EB807AD941F28833EB
:102D5000994200F0A28041F65833994276D102465A
:102D600088492046FFF710FC6EE0874A40F6B833EA
:102D70009942126800F0C88063D941F288339942C1
:102D800000F0AA8041F6583399425FD17F49FEF79F
:102D900087FD7A4B1B680593059B03F5FA63C4F81E
:102DA000283251E040F6B833994200F0A18048D96A
:102DB00041F28833994200F0838041F658339942BA
:102DC00044D17349FEF76CFD6C4B1B680893089B5C
:102DD00003F5FA63C4F8283236E040F6B833994276
:102DE00000F0BE802DD941F28833994249D041F696
:102DF000583399422AD16749FEF752FD5F4B1B6851
:102E00000B930B9B03F5FA63C4F828321CE040F6E1
:102E1000B833994200F0978013D941F28833994230
:102E200022D041F65833994210D15A49FEF738FD65
:102E3000524B1B680E930E9B03F5FA63C4F82832BD
:102E400002E0B1F57A7F01D112B010BD2046FEF745
:102E5000A3FC12B010BD5049FEF722FB3A214F48A7
:102E600017F040FD12B010BD00224D49FFF78CFB5A
:102E7000424B1B680D930D9B03F5FA63C4F828328F
:102E8000E2E74849FEF70CFD3C4B1B680A930A9B9E
:102E900003F5FA63C4F82832D6E7024642492046D1
:102EA000FFF772FBD0E700224049FFF76DFB334B81
:102EB0001B681093109B03F5FA63C4F82832C3E72C
:102EC0003B49FEF7EDFC2D4B1B680793079B03F571
:102ED000FA63C4F82832B7E73649FFF755FB274BAA
:102EE0001B680493049B03F5FA63C4F82832ABE72C
:102EF0003149FEF7D5FC214B1B680693069B03F571
:102F0000FA63C4F828329FE72C49FFF73DFB1B4BBF
:102F10001B680393039B03F5FA63C4F8283293E715
:102F2000024626492046FFF72FFB8DE70022244961
:102F3000FFF72AFB114B1B680F930F9B03F5FA63F6
:102F4000C4F8283280E700221E49FFF71DFB0B4B17
:102F50001B680C930C9B03F5FA63C4F8283273E7E3
:102F60001949FEF79DFC054B1B680993099B03F566
:102F7000FA63C4F8283267E7DC5B0200D0940020D3
:102F8000B0670020045B0200B86FFF1F245B0200E3
:102F9000585B02008C5B0200EC5B0200FC5B0200F1
:102FA000A85B02007C5B0200F45A0200CC5B0200CA
:102FB000485B0200145B0200345B0200E45A02002A
:102FC000B85B0200945B0200645B0200B1F57A7F9B
:102FD00038B504D8B0F8264294B3002038BD40F686
:102FE000B834A14212D8B0F82612B1F57A7FF4D1E4
:102FF000A0F826422146FFF775FE0821284817F061
:1030000071FC284815F036FB002038BD41F28835A8
:10301000A94222D941F65834A142B0F826122ED83E
:10302000A942DAD1A0F826422146FFF75BFE04212F
:103030001D4817F057FC1B4815F01CFB002038BD3D
:103040004FF47A72A0F826220B21184817F04AFC98
:10305000144815F00FFB204638BDB0F82612A142E7
:10306000BBD1A0F826522946FFF73CFE06211048A6
:1030700017F038FC0B4815F0FDFA012038BDA142CD
:10308000ABD10024A0F826422146FFF72BFE0821F1
:10309000084817F027FC034815F0ECFA204638BD25
:1030A000445C02001871FF1F585C0200385C02008B
:1030B000505C0200605C0200B0B588B002AF04460C
:1030C000019300920B46174A174D152138461CF004
:1030D0000DFF38461DF094F9D4F81832C4F81802E0
:1030E00098420146B8BF194601F1080323F00703CF
:1030F000ADEB030D02AC3B460C4A013120461CF0FF
:10310000F5FE28460222002110F0FEFD20461DF0AB
:1031100077F921460246284615F070FA1837BD4661
:10312000B0BD00BF6C5C0200907CFF1F9C5A020087
:103130002DE9F04190F8143282B00546002B40F0A2
:1031400082804E4F4E4E3B6879681A78787A0C78B8
:103150003B7A4A49044202EA030215D08B7A03F013
:1031600003030AB143F0040343F008039A10013B40
:10317000BA720D2B65D8DFE803F058605C60640F0D
:1031800058580F64605C60588B7A03F00303002A80
:10319000ECD043F00403E9E7FC68023CFC603368D0
:1031A000DA1CA24202DB033BA3423BDD354B1B781A
:1031B000C3EB83739B00A34204DC334B1B789B005F
:1031C000A34201DAFB601C46304FDFF8D0803A683A
:1031D000002C2346B8BFE31C9B109342C8F8003074
:1031E0001FD09A1AD2B295F83032294805F5C0712D
:1031F00009F056FFD8F80080C7F8008001466A46FB
:103200002846FEF7F5F84246034622492846FFF7CE
:1032100053FF214B1B680193019B03F5FA63C5F82B
:103220002832346002B0BDE8F081FC680134FC60F3
:10323000B5E7FC680234FC60B1E7FC68013CFC6067
:10324000ADE7FC68ABE715490C4F104A0C4E10482F
:10325000002305F5C0740B60FB60214613603360EA
:1032600009F080FD074B21461870094809F0AAFDB6
:10327000054BC0F17F00187065E700BF107CFF1F91
:10328000F87BFF1F507CFF1FF47BFF1FE07BFF1FBD
:1032900008310020785C0200D0940020EC7BFF1FF6
:1032A000134B1A680D2A10B5044609D80123934020
:1032B00043F2B6321A405AB91A0714D45B050ED439
:1032C0002046FFF735FF2046BDE81040FFF75EBA05
:1032D000FFF794F92046BDE81040FFF757BABDE864
:1032E0001040FDF799BABDE81040FDF7A5BB00BF3F
:1032F000BC6FFF1FF0B58DB01D4D9DF848409DF887
:103300004CE09DF85070CDF80CE001340193064676
:103310004B1C00920294049707A8164A164C1421DD
:103320001CF0E4FD28460222002110F0EDFC07A865
:103330001DF066F807A90246284615F05FF907A8B0
:103340001DF05EF8C6F81802204615F093F9142116
:103350000A4817F0C7FA07A81DF052F8014607A857
:1033600017F0C0FA204615F085F90DB0F0BD00BF8A
:10337000907CFF1F8C5C02001871FF1FA45C020090
:10338000F8B5184D0C4617460646FEF705FA022218
:103390000021284610F0B8FC20461DF031F82146E7
:1033A0000246284615F02AF920461DF029F8022287
:1033B000C1B2284610F0A8FC3946284615F0AAF9F3
:1033C00020461DF01DF80222C1B2284610F09CFCD8
:1033D00020461DF015F80630142828BF1420C6F822
:1033E0001802F8BD907CFF1F70B51E4D82B00C46D0
:1033F0008DED010A0646FEF7CFF92846022200218C
:1034000010F082FC20461CF0FBFF214602462846B5
:1034100015F0F4F820461CF0F3FF0222C1B2284652
:1034200010F072FC9DED010A10EE100A1BF090FBEB
:1034300041EC100B0221284615F076F920461CF0CD
:10344000DFFF0222C1B2284610F05EFC20461CF0CD
:10345000D7FF0630142828BF1420C6F8180202B07F
:1034600070BD00BF907CFF1FF8B51C4D0C46164682
:103470000746FEF791F902220021284610F044FC8D
:1034800020461CF0BDFF21460246284615F0B6F83E
:1034900020461CF0B5FF0222C1B2284610F034FCD1
:1034A00030461CF0ADFF31460246284615F0A6F81E
:1034B00020461CF0A5FF0222C1B2284610F024FCD1
:1034C00020461CF09DFF044630461CF099FF204426
:1034D000142828BF1420C7F81802F8BD907CFF1FDD
:1034E0002DE9F0411D4D1F460C4616468046FEF75D
:1034F00053F902220021284610F006FC20461CF059
:103500007FFF21460246284615F078F820461CF039
:1035100077FF0222C1B2284610F0F6FB30461CF0BD
:103520006FFF31460246284615F068F820461CF029
:1035300067FFC119C9B20222284610F0E5FB2046F8
:103540001CF05EFF044630461CF05AFF204414284D
:1035500028BF1420C8F81802BDE8F081907CFF1F36
:1035600008B503221121094810F0CEFB084B1B7847
:1035700001222BB907490548BDE8084015F03EB8BF
:1035800005490248BDE8084015F038B8907CFF1F97
:1035900044910020B05A0200BC5C020010B5044601
:1035A000032290F878110B4810F0AEFBD4F81022EB
:1035B000D4F87831D35C01222BB907490548BDE81E
:1035C000104015F01BB805490248BDE8104015F041
:1035D00015B800BF907CFF1FB05A0200C05C02000B
:1035E0002DE9F04F0446102300F1440720268FB048
:1035F000036404F16208E6633846002510F074FDA8
:10360000404610F071FD42463946049503950295F7
:10361000019500952B4604F1800010F067FDC4F879
:1036200004611A26C4F8E860192604F58673C4F804
:10363000EC601B264FF0250C4FF0240E1E21079343
:103640001F220523C4F8F0604FF0420B4FF0430AED
:103650004FF027094FF0260818271D201C26C4F814
:10366000DCC0C4F8E0E0C4F80831C4F8FC10C4F8C9
:103670000021C4F8A4B0C4F8A8A0C4F8D49004F5FC
:103680008A7AC4F8D880C4F8E470C4F8F460C4F846
:10369000F800079814F0F8FC504614F0F5FC04F517
:1036A0008E7904F592721646484614F0EDFC04F546
:1036B000967230461746089614F0E6FC04F59A71A7
:1036C0000E463846099714F0DFFC04F59E7130462B
:1036D0000F460A9614F0D8FC04F5A2700646384648
:1036E0000B9714F0D1FC04F5A6700746304604F59C
:1036F000AA7B0C9614F0C8FC384604F5AE780D97FA
:1037000014F0C2FC584614F0BFFC04F5B2774046F2
:1037100014F0BAFC04F5B676384614F0B5FC304621
:1037200014F0B2FCFF22012384F8302284F83132F5
:1037300084F8745184F8755184F8145284F8155241
:10374000C4F81852C4F81C52C4F8205284F8245209
:10375000A4F826524A21714817F0C4F8704814F0B2
:1037600089FF2B466F480422142110F0F1FA0A2237
:103770006D496C4814F042FF94F8A400022115F042
:10378000D5FF94F8A800022115F0D0FF94F8D800D6
:10379000022115F0CBFF94F8D400022115F0C6FFEA
:1037A00094F8DC00022115F0C1FF94F8E00002213A
:1037B00015F0BCFF94F8E400022115F0B7FF94F86F
:1037C000E800022115F0B2FF94F8EC00022115F098
:1037D000ADFF94F8F000022115F0A8FF94F8F40072
:1037E000022115F0A3FF0798D4F8D81014F054FC68
:1037F0005046D4F8D41014F04FFC4846D4F8DC10EE
:1038000014F04AFC0898D4F8E01014F045FC09982C
:10381000D4F8E41014F040FC0A98D4F8E81014F03E
:103820003BFC0B98D4F8EC1014F036FC0C98D4F850
:10383000F01014F031FC0D9DD4F8F410284614F06B
:103840002BFC0798B4F8081114F03CFC5046B4F86F
:10385000081114F037FC4846B4F8081114F032FC93
:103860000898B4F8081114F02DFC0998B4F8081160
:1038700014F028FC0A98B4F8081114F023FC0B98F3
:10388000B4F8081114F01EFC0C98B4F8081114F0E8
:1038900019FC2846B4F8081114F014FC94F8F80048
:1038A000022115F043FF94F8FC00022115F03EFFC1
:1038B00094F80001022115F039FF94F80401022167
:1038C00015F034FF5846D4F8F81014F0E5FB4046E4
:1038D000D4F8FC1014F0E0FB3846D4F8001114F0D2
:1038E000DBFB3046D4F8041114F0D6FB5846B4F88C
:1038F000081114F0E7FB4046B4F8081114F0E2FB9D
:103900003846B4F8081114F0DDFB3046B4F808115D
:1039100014F0D8FB20460FB0BDE8F08FC45C020065
:103920001871FF1F907CFF1F105D020070B51646D6
:103930000C460546C9B203221F4810F0E5F9FEB94E
:103940002B1993F88061D5F878317EB99C422BD041
:1039500021461A4809F08AF9012818D93346014648
:103960000A221548BDE8704014F094BE9C424FF006
:10397000010213D012491048BDE8704014F03EBE59
:10398000012210490C48BDE8704014F037BE0122F6
:103990000D490948BDE8704014F030BE0B49064897
:1039A000BDE8704014F02ABE012209490248BDE872
:1039B000704014F023BE00BF907CFF1F0831002030
:1039C000C05C02006C5A0200B05A02001C5D02008A
:1039D0008C94020070B5451800220F29044685F822
:1039E000F02121D901F00F060D463146FFF79EFF69
:1039F0001221334816F076FF3146324814F08AFE21
:103A0000304814F037FE94F83032AB4204BFFF2345
:103A100084F830322C4B1B680A2B0BD00B2B02D0B6
:103A2000032B1ED070BD294604F18000BDE8704014
:103A300010F0FCBB2046FDF7AFFE94F8242223488B
:103A40000023012AC4F8D03004BF84F82432A4F83B
:103A5000263231460AF036FE2046BDE87040FDF7BA
:103A6000DDB91B4801F084FD864294F824324FF002
:103A700000021BD0052BC4F8D4201BD004F5D07550
:103A800004F29F1304F2AF10002203F8012F9842B2
:103A9000FBD10F4801F086FD23180122294620465C
:103AA00083F8A021BDE87040FDF75CB9062BC4F88F
:103AB000D820E3D1002384F82432A4F82632DDE7AD
:103AC000205D02001871FF1FBC6FFF1FB067002050
:103AD000A82D002070B50D461646D0F87C110022A6
:103AE0000446FFF723FF0322E9B2094810F00CF95E
:103AF000012236B90749064814F080FDC4F87C510C
:103B000070BD0549024814F079FDC4F87C5170BDC0
:103B1000907CFF1F8C9402001C5D0200D0F81032D4
:103B200070B55D5CC0F87811103104461646C9B214
:103B3000803095B110F07AFB0122D4F8781120463C
:103B4000FFF7C8FFD4F878316C33012244F82360C2
:103B500084F8742184F8752170BD10F049FB2A4661
:103B6000D4F878112046FFF7B5FFEBE72DE9F041D7
:103B7000012186B0054648480FF0EAFD00211220D9
:103B800015F0D4FD0121132015F0D0FD01211320E3
:103B900015F0B8FD0B26122015F0BAFD30B9013E24
:103BA00001464FF496744FF0130067D175217422CB
:103BB000732305F180067727762402910192009302
:103BC00030467223049703947122702110F026FC72
:103BD000EB6B002B09DD00242146304610F026FB5C
:103BE0000134EB6BE4B29C42F6DB304610F070FC23
:103BF00005F29F1305F2AF11002203F8012F8B424B
:103C0000FBD16FF4BF76761B05F27F1405F28F1897
:103C10000027311904F8017F00222846FFF786FEAD
:103C20004445F6D105F5D67305F5F670002143F845
:103C3000041F83424FF00002F9D1184B85F815227A
:103C400001240622284685F814421A60FEF78EF8F1
:103C50002846FEF73BF912480DF084FD0146284640
:103C6000FEF74AFB0E480DF07FFD01462846FEF7A1
:103C70006FFB85F8744106B0BDE8F08115F042FD98
:103C80002346013BFDD10121132015F03BFD2346C6
:103C9000013BFDD17FE700BF3070FF1FBC6FFF1FEE
:103CA000D490002030B5D0F8B83089B00446A3B124
:103CB0004D4A126802920299C91A0ED04B4D2B68D8
:103CC0000222013380F824226FD002222046FFF71F
:103CD0007DF9002848D109B030BDD4F8D030ABB15F
:103CE000414A126803920399C91A0FD0012284F83D
:103CF00024222046FFF76AF90028ECD03C4809F05E
:103D0000F7FC01463A4809F0EFFDE4E7D4F8C0308B
:103D10008BB1354A126804920499C91A0BD0032258
:103D200084F824222046FFF751F90028D3D02046FA
:103D3000FFF71CFFCFE7D4F8B03013BBD4F8D43072
:103D4000002B39D0284A126806920699C91A33D036
:103D5000052284F824222046FFF738F90028BAD03B
:103D6000244802F0E1F9B6E72968234808F06AF927
:103D700020462968FDF70CFF4FF0FF332B6009B098
:103D800030BD194A126805920599C91AD6D0042285
:103D900084F824222046FFF719F900289BD0164802
:103DA00008F09AFCE369984795E71348019108F0F9
:103DB00027FB0199286088E7D4F8D830002B8AD0F7
:103DC000094A126807920799C91A84D0062284F812
:103DD00024222046FFF7FAF800283FF47CAF05487C
:103DE00002F0DAF977E700BFD0940020B86FFF1F28
:103DF000B0670020A82D0020083100202DE9F04FE9
:103E000000F58E7585B00446284614F05DF910B9AA
:103E100005B0BDE8F08F284614F09CF90028F7D0D3
:103E20008C4E3368013B0A2B57D8DFE803F0411E64
:103E300018565656560D0D560600874D2B78002BFA
:103E400054D1E3699847E3E7844A1378204683F026
:103E500001031370FFF784FB05B0BDE8F08F8048C5
:103E600002F0DEF905B0BDE8F08F7E4D29684B1CED
:103E700000F0D7807C4808F0E5F82A687B492046A6
:103E8000FEF782FB7A4B1B680393039B03F5FA63EF
:103E9000C4F8283201274FF0FF3320462B603760EB
:103EA000FDF764FF2046FEF711F884F81472AFE7BF
:103EB0006D4808F003FA30B36B4808F0A1FA6D4979
:103EC00002462046FEF760FB694B1B680193019B8D
:103ED00003F5FA63C4F828329AE794F81532032BF5
:103EE00000F2AA80DFE803F076593F200127204640
:103EF0003760FDF73BFF2046FDF7E8FF002384F81D
:103F000014722B7084E7584808F07AFA5A4902462E
:103F10002046FEF739FB564B1B680293029B03F5C4
:103F2000FA63C4F8283273E704F28F196FF4BF778D
:103F3000C8463F1B04F27F154FF0010A791915F8A6
:103F4000013F08F8013F002285F800A02046FFF756
:103F5000EDFC4D454FF0010BF0D1022384F814B273
:103F600084F8153253E06FF4BF773F1B04F27F15DE
:103F700004F28F1A4FF0000979194FF0000805F884
:103F8000019F42462046FFF7D1FC5545F4D101235D
:103F900084F8158284F8143239E004F28F196FF432
:103FA000BF77C8463F1B04F27F15791915F8013F0A
:103FB00008F8013F83F001032B7000222046FFF731
:103FC000B5FCA945F1D10322012384F8152284F818
:103FD00014321CE06FF4C778C4EB080804F28F15A4
:103FE00004F27F1704F29F1908EB050115F8013F51
:103FF00083F0010307F8013F00222046FFF796FCFB
:10400000A945F1D1012384F8153284F814323368BC
:10401000062B7FF4FDAE04F5C0712046FCF7A2FE2E
:10402000F6E6012520463560FDF7A0FE2046FDF7A7
:104030004DFF84F81452EBE63121104816F052FC83
:1040400094F815120E4814F065FB0D4814F012FB9D
:10405000DDE700BFBC6FFF1F942E002044910020BD
:10406000A82D0020B86FFF1F08310020545D02000A
:10407000D0940020345D0200445D0200645D0200C3
:104080001871FF1F70B504460D4696B0803010F0D1
:10409000AFF86319012283F8F0210F2D00F23F8160
:1040A000DFE815F0240040005C00780094009D00DB
:1040B000A600AF00F100CB00DE00B8002A01040129
:1040C00017011000B9492046FDF7EAFBB84BB94883
:1040D0001B681293129B03F5FA63C4F8283204F5A7
:1040E000C071042208F01AFF16B070BDB24B1A68F6
:1040F000511E012940F2D0810A2A00F0CD812046CC
:10410000AE49FDF7CDFBAA4BAA481B680293029B60
:1041100003F5FA63C4F8283204F5C071002208F0F0
:1041200023FFE1E7A44B1A68511E012940F2C08128
:104130000B2A00F0BD812046A149FDF7B1FB9C4B45
:104140009C481B680193019B03F5FA63C4F828326D
:1041500004F5C071012208F007FFC5E7964B1B6804
:10416000012B00F06C81083B012B40F26881204656
:104170009449FDF795FB8E4B8E481B680493049B76
:1041800003F5FA63C4F8283204F5C071022208F07E
:10419000EBFEA9E7884B1B68012B00F06881083B08
:1041A000012B40F2648120468749FDF779FB804B63
:1041B00080481B680693069B03F5FA63C4F828320F
:1041C00004F5C071032208F0CFFE8DE77F4B1B780A
:1041D000002B00F01A81A3690120984784E77B4BEC
:1041E0001B78002B00F00481A369022098477BE72D
:1041F000764B1B78002B00F01581A36903209847AC
:1042000072E7724B1B78002B00F0C280A369042078
:10421000984769E720466E49FDF742FB644B6548C5
:104220001B680E930E9B03F5FA63C4F8283204F55D
:10423000C071032208F0B8FE56E720466549FDF735
:104240002FFB5B4B5B481B680C930C9B03F5FA63DD
:10425000C4F8283204F5C071012208F0A5FE43E736
:1042600020465D49FDF71CFB514B52481B680D93DE
:104270000D9B03F5FA63C4F8283204F5C0710222DD
:1042800008F092FE30E720465449FDF709FB484B01
:1042900048481B680B930B9B03F5FA63C4F828325C
:1042A00004F5C071002208F07FFE1DE720464C494E
:1042B000FDF7F6FA3E4B3F481B681093109B03F541
:1042C000FA63C4F8283204F5C071022208F026FE11
:1042D0000AE720464349FDF7E3FA354B35481B68AA
:1042E0001193119B03F5FA63C4F8283204F5C071E9
:1042F000032208F013FEF7E620463B49FDF7D0FA0B
:104300002B4B2C481B680F930F9B03F5FA63C4F8E3
:10431000283204F5C071012208F000FEE4E60F2DFA
:104320007FF6E2AE05F00F06314601222046FFF788
:10433000FDFA94F83032AB42636A88BF84F8305299
:1043400013B1A5F1100098471B4B1B68013B0C2BC8
:1043500000F2EC8001A252F823F000BFB544000047
:10436000C7440000FB44000023450000194500003D
:104370002D4500000F450000B54400000545000034
:10438000DB440000E9400000D1440000F14400009B
:1043900016492046FDF784FA054B1B680A930A9BD1
:1043A00003F5FA63C4F8283230E700BF905E0200DC
:1043B000D094002008310020BC6FFF1FA45D0200D4
:1043C000985D0200CC5D0200F85D020001670020EC
:1043D000645E02004C5E0200585E0200405E020015
:1043E000785E0200845E0200705E0200345E0200AD
:1043F00061492046FDF754FA604B1B680893089BFF
:1044000003F5FA63C4F82832EEE65D492046FDF76D
:1044100047FA5A4B1B680793079B03F5FA63C4F8E6
:104420002832D8E657492046FDF73AFA534B1B6825
:104430000993099B03F5FA63C4F82832DDE6524A72
:1044400052491378002083F0010313700870002B89
:1044500000F08D804E492046FDF722FA474B1B683D
:104460000393039B03F5FA63C4F828323CE6474BF9
:104470001A78002A72D0444D4649002220462A70FC
:104480001A70FDF70DFA3D4B1B680593059B03F56C
:10449000FA63C4F8283227E60B2220461A60FDF79B
:1044A00065FC2046FDF712FD012384F814321BE65B
:1044B0000A22F2E7344B384A1B784FF0FF31116083
:1044C000002B7FF411AE29462046FCF717FC0BE6C3
:1044D00029462046FDF7DCFE06E629462046FCF785
:1044E0000DFC264B1B681393139BC4F8D030FBE5DF
:1044F00029462046FEF776FBF6E529462046FCF7DE
:10450000EBFFF1E529462046FDF7A0FBECE5294647
:104510002046FCF797FBE7E529462046FCF764FBBD
:10452000E2E529462046FCF731FBDDE52946204639
:10453000FCF7B6FB31462046FDF71EFA0F4B1A6812
:104540001592159A1B681493149B02F5FA6203F5F1
:10455000FA63C4F82C22C4F82832C5E50A480F498A
:104560000270012220461A70FDF79AF98BE70C4978
:104570002046FDF795F971E7145E0200D094002003
:10458000045E0200245E0200016700200067002034
:10459000B05D0200D85D0200B86FFF1FE85D020049
:1045A000C05D0200F8B5344C2368DB07054646D5EC
:1045B000324E15F0E7F83368304A984234D900F5A6
:1045C000EA4395F8741130331360002947D105F19F
:1045D000800738460FF094FE18B3EB6B002B24DDF8
:1045E0000026344605E00134EB6BE4B29C422646DB
:1045F0001BDA214638460FF0B9FD2E4430B196F84B
:10460000F031214628460BB9FFF73CFD21463846DC
:104610000FF0BCFD0028E6D021462846FFF7DAF966
:10462000E1E795F875311BB9F8BD012385F87531BF
:1046300038460FF04DFF002385F87531F8BD204650
:1046400014F0C6FD0028B3D015F09CF80B4E00F511
:10465000EA4330332046336014F0C0FDA9E7014639
:1046600005F180072846FCF755FA38460FF048FE5A
:104670000028D6D0B1E700BF887CFF1FB87CFF1FA1
:1046800010B500230360436083600446162104488C
:1046900016F028F9034813F0EDFF204610BD00BFC7
:1046A000A05E02001871FF1F38B505461A210F4899
:1046B00016F018F92C6864B1A36A2B6020462C21EF
:1046C00014F0C8FD2C680A48042116F00BF9002CE0
:1046D000F2D100232B606B60AB600421054816F01B
:1046E00001F9054813F0C6FF284638BDB85E020040
:1046F000DC5E0200D45E02001871FF1F38B505466B
:1047000015210F4816F0EEF82C6864B1A36A2B60EF
:1047100020462C2114F09EFD2C680A48042116F036
:10472000E1F8002CF2D100232B606B60AB60042118
:10473000054816F0D7F80548BDE8384013F09ABF91
:10474000E45E0200DC5E0200D45E02001871FF1F0E
:1047500038B52E4C05460A212D4816F0C3F82046E0
:1047600013F088FF0E212B4816F0BCF86B6820462A
:10477000196813F0CFFF0B21274816F0B3F86B68C8
:104780000A2219792046002313F084FF204613F0F3
:1047900071FF0821214816F0A5F86B682046D968FA
:1047A00013F0B8FF07211E4816F09CF86B68D86913
:1047B0001AF0CEF941EC100B2046022113F0B4FFA1
:1047C0000B21184816F08EF86B680A2293F8201017
:1047D0002046002313F05EFF1621134816F082F8DE
:1047E0006B682046597A13F095FF0E210F4816F09A
:1047F00079F86B68204693F824100A22002313F0FE
:1048000049FF2046BDE8384013F034BF1871FF1F40
:10481000FC5E0200085F0200185F0200245F0200D5
:10482000305F0200385F0200445F02005C5F0200FC
:1048300038B54368002B6BD09A6A934204460D4604
:1048400018BF012066D0A36823B1226812B19B6A09
:104850009A4274D06368444A1B68934202DC013375
:104860002DD038BD2A4641494148FDF747FE312148
:10487000404816F037F828461BF0C2FD014628468E
:1048800016F030F83C4813F0F5FE07213B4816F0CF
:1048900029F86168384813F03DFF0E21384816F0BA
:1048A00021F863683448196813F034FF324813F074
:1048B000E1FE63681B6801334FF00000D1D12A4646
:1048C00030492B48FDF71AFE34212F4816F00AF81C
:1048D00028461BF095FD0146284616F003F82648A9
:1048E00013F0C8FE0721254815F0FCFF6168224837
:1048F00013F010FF0E21224815F0F4FF63681E48E4
:10490000196813F007FF1C4813F0B4FE002038BDEF
:10491000012038BD0A4616481C49FDF7EFFD262147
:104920001B4815F0DFFF28461BF06AFD01462846AC
:1049300015F0D8FF104813F09DFE002083E72A46AB
:1049400014490B48FDF7DAFD3921134815F0CAFF69
:1049500028461BF055FD0146284615F0C3FF0648C2
:1049600013F088FE002075E780969800F05F020043
:10497000CC2E0020086002001871FF1F3C6002006E
:1049800044600200546002006C6002006C5F020030
:104990007C5F0200A45F0200B45F02000368436012
:1049A000704700BF10B544680CB1206810BD0349C2
:1049B0000348FCF775FD204610BD00BFA46002004F
:1049C000CC2E002010B544680CB1207910BD0349ED
:1049D0000348FCF765FD204610BD00BFB86002002B
:1049E000CC2E00202DE9F0418846002707700646AE
:1049F0001121144815F076FFD8F80440ECB10834C2
:104A00000FCC35460FC594E80F0085E80F0071689C
:104A10000D4813F07FFE08210C4815F063FFD8F80D
:104A20000430094819790A223B4613F033FE064840
:104A300013F020FE3046BDE8F08105490548FCF73B
:104A40002FFDF7E7CC6002001871FF1FB07A02005B
:104A5000E0600200CC2E00204068003018BF01202A
:104A6000704700BF70B5044616213648666815F0D9
:104A700039FF354813F0FEFD0721344815F032FFA9
:104A80006168314813F046FE0821314815F02AFFCD
:104A900021682D4813F03EFE08212E4815F022FF14
:104AA000A168294813F036FE23686360642538E066
:104AB00013F0E0FD0E21284815F014FF636822482A
:104AC000196813F027FE0D21244815F00BFF6168CB
:104AD0001D48083113F01EFE0921214815F002FF80
:104AE00063681948197913F015FE0B211D4815F05C
:104AF000F9FE6168144813F00DFE08211A4815F0FC
:104B0000F1FE63681048996A13F004FE17492046C5
:104B1000FFF78EFE40B1204600F0C6F8013D08D0F8
:104B200063680948002BC3D1074813F0A3FD6660F2
:104B300070BD0F490F48FCF7B3FC034813F09AFD12
:104B4000666070BDF86002001871FF1F3C600200D3
:104B5000106102001C610200446002002861020032
:104B60003861020044610200506102005C61020091
:104B700064610200CC2E0020036810B504466BB1BE
:104B80004268934204BF002242609A6A8AB10021BF
:104B90000260996218462C2114F05CFB0A492046F9
:104BA000FFF746FE00B110BD2046BDE81040FFF7FC
:104BB00059BF81688B4208BF82602C21184614F0CF
:104BC00049FB00232360E9E77461020038B50368FC
:104BD000044673B11A6891420D4603DC0AE01A6874
:104BE000AA4207DA2046FFF7C7FF23686360002B5D
:104BF000F5D10023636005492046FFF719FE00B197
:104C000038BD2046BDE83840FFF72CBF8461020064
:104C100082B02DE9F04106AC074644F8043F0D464A
:104C20001E481421904615F05DFE214600230A22FD
:104C30001B4813F02FFD1A4813F01CFD2C2014F014
:104C400005FB2C22002106461AF0F4FE0FCCB060C2
:104C5000F160326173610FCCBC68356086F8048006
:104C6000B061F1613262736214B1A64218BFA662EC
:104C70007B68BE607BB13B685BB10A493846FFF791
:104C8000D7FD10B93846FFF7EDFEBDE8F04102B0A0
:104C900070473E60F1E77E60EDE700BFB061020063
:104CA0001871FF1FC8610200436810B5044673B154
:104CB0009A6A934213D062600C492046FFF7B8FD10
:104CC00000B110BD2046BDE81040FFF7CBBE192152
:104CD000074815F007FE074813F0CCFCECE706493F
:104CE0000648FCF7DDFB63689A6AE4E704620200A9
:104CF000E86102001871FF1FD4610200CC2E002071
:104D000070B590E8480005460024436006E0013491
:104D1000FFF7CAFFB4F57A7F06D06B682846002BF0
:104D2000F5D16E60204670BD03490448FCF7B8FB1E
:104D30006E60204670BD00BF0C620200CC2E0020C9
:104D40000022026042608260704700BF38B50446AE
:104D50001721094815F0C6FD23685BB10025DA6804
:104D600022601846DD6010219D6014F073FA2368FC
:104D7000002BF4D1204638BD1C62020038B54368D0
:104D800004460D4683B1DA68934218BF012036D03D
:104D90009A689A4248D0E3682BB1DA68934219D0F6
:104DA0009A689A4202D038BD0120F4E72849294880
:104DB000FCF776FB1F21284815F094FD274813F0D7
:104DC00059FC28461BF01CFB0146284615F08AFDBD
:104DD0000020E8E722491F48FCF762FB2B2121480D
:104DE00015F080FD28461BF00BFB0146284615F008
:104DF00079FD1A4813F03EFCE3680020D0E71A4919
:104E00001448FCF74DFB2321184815F06BFD28468C
:104E10001BF0F6FA0146284615F064FD0F4813F022
:104E200029FC63680020B3E711490A48FCF738FB06
:104E30001721104815F056FD084813F01BFC2846B2
:104E40001BF0DEFA0146284615F04CFD0020A2E7D3
:104E5000D0620200CC2E0020E46202001871FF1F15
:104E600090620200A4620200346202004462020006
:104E7000686202007862020010B507490446FFF735
:104E80007DFF20B163680BB1DB68636010BD204615
:104E900000F004F8F6E700BF0462020038B5002114
:104EA0000446434815F01EFD424813F0E3FB0D2174
:104EB000414815F017FD3F4813F0DCFB07213F4840
:104EC000656815F00FFD21683A4813F023FC0621B0
:104ED0003B4815F007FD6168364813F01BFC0721BD
:104EE000384815F0FFFCA168324813F013FC0A2182
:104EF000354815F0F7FCE1682E4813F00BFC2D48FF
:104F000013F0B8FB204600F0DFF863682BB945E0EA
:104F1000FFF7B2FF6368002B40D005212B4815F046
:104F2000E1FC6368234819680A22002313F0B2FBEE
:104F30000421274815F0D6FC63681E4819790A2217
:104F4000002313F0A7FB0421224815F0CBFC636873
:104F5000184859790A22002313F09CFB05211E48AA
:104F600015F0C0FC6168134813F0D4FB06211B4800
:104F700015F0B8FC63680F48D96813F0CBFB0D48F7
:104F800013F078FB6368DA6893422046C0D11A2197
:104F9000134815F0A7FC074813F06CFB00210448E8
:104FA00015F0A0FC034813F065FB656038BD00BF39
:104FB000285A02001871FF1F0463020014630200E4
:104FC0001C630200246302002C63020038630200A9
:104FD000406302004863020050630200586302000D
:104FE0006063020038B50446C068002838D06060AD
:104FF0002368834226D0A368834216D08568C3689D
:10500000EB60C36882689A60102114F023F9656030
:105010002B46E36014492046FFF7B0FE00B138BDCF
:105020002046BDE83840FFF739BF82681AB1826870
:1050300062600021D1601846102114F00BF96368FA
:10504000A360E6E7C268626062B10021916000225D
:10505000DA601846102114F0FDF863682360D8E781
:105060006068C5E7A260F2E77C6302002DE9F843BF
:1050700004461020894690461F4614F0E7F8A668BB
:1050800000254560856080F80490C56080F8058043
:1050900007600EB1F06086606368A0607BB1236832
:1050A0005BB108492046FFF769FE08B1BDE8F88307
:1050B0002046BDE8F843FFF7F1BE2060F1E76060ED
:1050C000EDE700BF8863020010B505490446FFF70D
:1050D00055FE10B92046FFF7E1FE2368636010BD5E
:1050E00090630200C3681879704700BFC36858799D
:1050F000704700BFC3681868704700BFC0680030C1
:1051000018BF0120704700BF10B505490446FFF7DE
:1051100035FE10B92046FFF7C1FE2368E36010BDDD
:105120009863020010B507490446FFF727FE20B137
:10513000E3680BB1DB68E36010BD2046FFF7AEFE0D
:10514000F6E700BFA463020070B511490546FFF7FA
:1051500015FE90B128466E680024FFF7B5FF05E004
:105160000134FFF789FEB4F57A7F0AD06B682846D0
:10517000002BF5D16E60204670BD2846FFF78EFEED
:10518000E8E704490448FCF78BF96E60204670BDDF
:10519000B0630200B8630200CC2E002038B50A4D7F
:1051A000002304460360436029464FF4A072083090
:1051B00013F02CFF05F5A07104F5A4704FF4807274
:1051C00013F024FF204638BDC863020010B490E8F5
:1051D0001800013400EB031394FBF1F202FB1141C0
:1051E0000B44416093F848015DF8044B704700BFE1
:1051F00010B490E8180094FBF1F200EB031302FBEB
:1052000011410B44416093F848015DF8044B70472D
:10521000436810B40468194400EB041091FBF2F3E6
:1052200003FB121250FA82F25DF8044B92F8480127
:10523000704700BF406801308842B4BF00200120A1
:10524000704700BF054B0B40002B01DB036070472C
:10525000013B63F00F030133036070470F000080D0
:10526000036803EB830300EB83000830704700BF43
:1052700000234360704700BF38B501250446056729
:1052800058220E497C3013F0C1FE0D4A84F86D504F
:105290000023157084F8D83084F8E03084F8E930C1
:1052A00084F8E830C4F8D430C4F8DC3084F8EA304C
:1052B000C4F8E4306367A367204638BD086602007F
:1052C000C87CFF1F2DE9F0418046064600F16007CB
:1052D000337D5BB13546002455F8040F013418B115
:1052E0001C2113F0B7FF337DA342F5DC1836BE4214
:1052F000EED14046BDE8F08101EB410300EBC30372
:1053000080F8D810C0F8D4300120704710B5D0F81C
:10531000D44084B1227D8A420B46D8BF002304EBDF
:105320008304D8BF19466468C0F8DC404CB180F8EB
:10533000E010012010BD06490648FCF7B1F82046F0
:1053400010BD05490348FCF7ABF8204610BD00BF6F
:1053500060660200CC2E002074660200F0B5D0F822
:10536000D430002483B080F8EA40002B42D00E46AF
:10537000054618212948174615F0B4FA23460A2293
:105380003146274813F086F9254813F073F9062FA4
:105390000DD0082F09D1D5F8D4301B7DB3421CD0D5
:1053A00020482149FCF77CF8204603B0F0BDD5F831
:1053B000D4301A7DB24225DD03EB86035C683CB332
:1053C00095F8D83085F8E960012085F8EB7085F80C
:1053D000E83085F8EA0003B0F0BD95F8D82085F8EC
:1053E000E930012085F8EB7085F8E82085F8EA00BF
:1053F00003B0F0BD0B480D490193FCF751F8019B38
:105400001846D2E707480A49FCF74AF82046CCE795
:1054100004480849FCF744F82046C6E79C660200A9
:105420001871FF1FCC2E0020DC6602008866020087
:10543000B8660200C866020090F8EA306BB110B599
:10544000D0F8D44090F8D8204CB190F8E8309B1AAE
:10545000B3FA83F35B09184610BD18467047034939
:105460000348FCF71DF82346F5E700BFEC66020091
:10547000CC2E0020F8B501EB410710EBC7062AD06F
:10548000D0F8D43015461A7DAA4204461DDD03EB40
:1054900085035E682EB30121154807F091F905EBED
:1054A000470504EB8504034600226068012100F0F3
:1054B0001BFF02210E4807F083F900220346022158
:1054C000606800F011FF0120F8BD0A490A48FBF7A7
:1054D000E7FF0020F8BD09490748FBF7E1FF304628
:1054E000F8BD07490448FBF7DBFF3046F8BD00BFB5
:1054F0000831002014670200CC2E00200067020053
:105500002867020038B5044660B101EB410110EB99
:10551000C1050DD002EB420014EBC0040ED06A7539
:10552000012038BD08490948FBF7BAFF204638BDBD
:1055300007490648FBF7B4FF284638BD054903482C
:10554000FBF7AEFF204638BD3C670200CC2E0020A2
:105550005067020064670200D0F8D4300BB11960C4
:10556000704780F8D8300346C0F8D40019607047FF
:10557000D0F8D41009B1087D704710B50246FFF786
:10558000BBFE044628B905490548FBF789FF2046BC
:1055900010BDD2F8D410087D10BD00BF786702009E
:1055A000CC2E002090F8E000704700BFD0F8D41057
:1055B00070B5054631B30B7D032B1DD81C2013F0AD
:1055C00045FE044600F078FED5F8D4301E1D2ED0DE
:1055D000197D39B153F82100F0B100F007FFD5F87B
:1055E000D430197D03EB81020131546020461975D6
:1055F00000F070FE204670BD12491348FBF750FFC3
:10560000002070BDFFF778FE044668B90F490E48C8
:10561000FBF746FF204670BD0D490B48FBF740FFE6
:10562000D5F8D430197DDDE7D5F8D410C3E70949A2
:105630000548FBF735FF20461C2113F00BFE3046D2
:1056400070BD00BF9C670200CC2E0020D067020016
:10565000C0670200AC6702002DE9F043044685B044
:105660001A4804F0D7F80E21194815F03BF91948EB
:1056700013F000F8D4F8DC0008B300F0F1FED4F821
:10568000D430D4F8DC0093F8009094F8D85094F813
:10569000E46094F8E07000F031FE8046D4F8DC005D
:1056A00000F02EFEC0B202904B468DE880013246DB
:1056B00029460948FDF71EFE05B0BDE8F0830749FD
:1056C000054805B0BDE8F043FBF7EABE04670020DB
:1056D000E06702001871FF1FCC2E0020F067020067
:1056E00070B5044633216F4815F0FCF8D4F8DC009F
:1056F00000F004FE00230A2201466B4812F0CAFFA4
:1057000001216A4815F0EEF8D4F8DC0000F0F8FD4D
:105710000146654812F0FEFF0921654815F0E2F8E0
:1057200000230A2294F8E0105F4812F0B3FF14211E
:10573000604815F0D7F8D4F8DC0000F05DFE0023D7
:1057400001460A22584812F0A5FF574812F092FF6E
:10575000D4F8DC30002B00F09080D4F8D450002D29
:1057600000F08680184600F049FE054678B31921FE
:10577000514815F0B7F8D4F8DC0000F03DFE1021D8
:1057800006464E4815F0AEF8002331460A22464838
:1057900012F080FFD4F8D4301B7DB34224D92121EC
:1057A000474815F09FF8D4F8D43084F8E06003EB54
:1057B00086067068C4F8DC0000F01AFE212141481A
:1057C00015F090F8384812F055FF284670BDD4F80F
:1057D000DC0000F041FE3D213B4815F083F83248E3
:1057E00012F048FF284670BD1821384815F07AF8A5
:1057F000D4F8D430D4F8E4201B689A4224DB10217A
:10580000334815F06FF8D4F8D4305E7DFF2E3AD0CF
:1058100006EB4606132104EBC6062E4815F062F887
:10582000C4F8D46015212C4815F05CF8D4F8D430B5
:10583000002284F8E0205868C4F8DC000123C4F892
:10584000E43000F0D5FDB9E71A21244815F04AF8F4
:10585000002384F8E030D4F8D420D4F8E430506841
:10586000C4F8DC000133C4F8E43000F0C1FDA5E762
:105870001B491C48FBF714FEB4E71B4919481D4699
:10588000FBF70EFEAEE70021184815F02BF806488E
:1058900012F0F0FE1321164815F024F8236E9847F5
:1058A0008CE700BF046802001871FF1F386802000F
:1058B0003C6802004868020088680200A468020090
:1058C000B8680200686902008C690200DC680200A6
:1058D00014690200286902003C690200F8680200AD
:1058E00074680200CC2E002060680200285A020072
:1058F000546902002DE9F043D0F8D430044685B055
:10590000D0F8DC0093F8009094F8D86094F8E47034
:1059100094F8E08000F0F2FC0546D4F8DC0000F0DA
:10592000EFFCC0B202904B46CDF800803A463146BB
:1059300001950348FDF7DEFC05B0BDE8F08300BF2C
:10594000CC2E002010B514210446094814F0CAFFDB
:10595000084812F08FFED4F8DC0018B1BDE8104002
:1059600000F07EBD04490548BDE81040FBF798BD36
:10597000CC6902001871FF1FE4690200CC2E0020E0
:1059800003460022C3F8D40080F8D82048B140680C
:1059900083F8E0200122C3F8DC00C3F8E42000F023
:1059A00027BD02490248FBF77BBD00BFF869020032
:1059B000CC2E002070B5504E504D0166044600F1CB
:1059C000150132602B607530FF2200230A7001F848
:1059D000013C41F8153C18318142F7D12046FFF7D0
:1059E000E5FD054690B100231A46012100F07CFC3C
:1059F00000231A460221284600F076FC01212846A1
:105A000000F0EAFC2846022100F0C4FC2046FFF723
:105A1000CDFD054690B101221146002300F064FC43
:105A2000002301220221284600F05EFC01212846C5
:105A300000F0D2FC2846022100F0ACFC2046FFF723
:105A4000B5FD054690B100230222012100F04CFC77
:105A5000022211460023284600F046FC0121284678
:105A600000F0BAFC2846022100F094FC01212046F7
:105A7000FFF772FD012200212046FFF743FD0121BF
:105A80002046FFF739FC02212046FFF765FD20463E
:105A9000FFF78CFD054690B100230322012100F0A1
:105AA00023FC002303220221284600F01DFC0121D3
:105AB000284600F091FC2846022100F06BFC2046AD
:105AC000FFF774FD054690B100230422012100F088
:105AD0000BFC002304220221284600F005FC0121D2
