:1000000000000320D1010000E97E0100A17E010073
:10001000A17E0100A17E0100A17E0100A17E010060
:10002000A17E0100A17E0100A17E0100E97E010008
:10003000E97E0100A17E0100F1990100F59A01001D
:10004000E97E0100E97E0100E97E0100E97E010010
:10005000E97E0100E97E0100E97E0100E97E010000
:10006000E97E0100E97E0100E97E0100E97E0100F0
:10007000E97E0100E97E0100E97E0100E97E0100E0
:10008000E97E0100E97E0100E97E0100E97E0100D0
:10009000E97E0100E97E0100E97E0100E97E0100C0
:1000A000E9270100F5270100E97E0100E97E010052
:1000B000E97E0100E97E0100E97E01003D9B01002F
:1000C000E97E0100699C0100E97E0100959D010027
:1000D000E97E01008D9E0100E97E0100E97E0100BC
:1000E000E97E0100E97E0100E97E0100E97E010070
:1000F000E97E0100E97E0100E97E0100E97E010060
:10010000E97E0100E97E0100E97E0100E97E01004F
:10011000E97E0100F1880100E97E0100E97E01002D
:10012000E97E0100E97E0100E97E0100E97E01002F
:10013000E97E0100E97E0100E97E0100E97E01001F
:10014000D5710100E97E0100859F0100E97E010073
:10015000E97E0100E97E0100E97E0100E97E0100FF
:10016000E97E0100E97E010001280100E97E01002D
:10017000E97E0100E97E0100E97E0100E97E0100DF
:10018000E97E0100E97E0100E97E0100E97E0100CF
:10019000E97E0100E97E01007DA00100E97E010009
:1001A000E97E0100E97E0100E97E0100E97E0100AF
:1001B000E97E0100E97E0100E97E0100E97E01009F
:1001C000E97E0100E97E0100E97E0100E97E01008F
:1001D0005C4B4CF2205210B51A804DF628121A8052
:1001E00000BF00BF17F084FE574B4FF030621A601B
:1001F000564A9A60564ADA60564B4FF470021A60BB
:10020000554B564A1A60564B1A78110703D51A787F
:1002100042F008021A70534B5349AA221A70534AEB
:10022000534B8B4204D252F8040F43F8040BF8E707
:10023000504B514900228B4202D243F8042BFAE77B
:100240004E494F4A002352F8230041F8230001335E
:10025000742BF8D14B4B4C4A802103F8011B93427D
:10026000FBD14A4B454A1A60494B8A221A70A3F5C2
:10027000805324225A70A0221A709A799207FCD5D2
:100280009A79D406FCD4434A937903F00C03082BE3
:10029000FAD1414B60221A7002331A78802AFCD1BD
:1002A0003C4B01221A715D225A719A799006FCD555
:1002B0009979384A4906FBD5384B394919600021EC
:1002C000596020231370937903F00C030C2BFAD19F
:1002D000344B354A1A60354A354C136813F4807331
:1002E00003D123604FF4A8531360324B324A1A6093
:1002F00000225A60072243F8042C304AC3F80C2D20
:1003000062B618F065F92368DA0705D52C4818F0AD
:1003100097F82C4B2C4A1A602C4B1B785B0609D59E
:10032000284C294B22689A4204D1254818F088F8B5
:10033000002323601DF08EFE17F0E0FD17F00EFD88
:10034000FEE700BF0E20054030800440823F0400DD
:100350000100002B88ED00E0002008E0030000858C
:1003600002D0074000E00740C07BFF1F90940200CE
:10037000306FFF1FC07BFF1FB8980020006AFF1F6F
:100380000000000000E400E064E400E008ED00E0AC
:10039000005006400040064001E007404480044011
:1003A0000000060204800440C010070010D0034083
:1003B00014D0034014E000E01FBF02000000202022
:1003C0009230AA5E1CE00340A5C3945A00F0074097
:1003D000FFFFFFFFFFFFFFFFFFFFFFFFFFFFFFFF2D
:1003E000FFFFFFFFFFFFFFFFFFFFFFFFFFFFFFFF1D
:1003F000FFFFFFFFFFFFFFFFFFFFFFFFFFFFFFFF0D
:10040000FFFFFFFFFFFFFFFFFFFFFFFFDEF9FFFF23
:1004100010B5054C237833B9044B13B10448AFF33E
:1004200000800123237010BDC07BFF1F000000006F
:100430008C940200084B10B51BB108490848AFF373
:1004400000800848036803B910BD074B002BFBD0A0
:10045000BDE81040184700BF00000000C47BFF1F2C
:100460008C940200C07BFF1F0000000010B5242206
:10047000044600211EF08EF9002384F8243084F80D
:100480002530204610BD00BFF8B5074690F824007F
:100490000D461646E0B13A46002404E00134844299
:1004A00002F1030212D01178A942F7D19178994252
:1004B000F4D104EB44043C446670A370062D5ED86E
:1004C000DFE805F031161D242B1031000A2C2BDC3F
:1004D00000EB40017A18013087F824007D545670F3
:1004E0009370EBE72E492F48BDE8F84001F02CB897
:1004F00032462D492B48BDE8F84001F0B5BE3246E2
:100500002A492848BDE8F84001F0AEBE32462849E5
:100510002448BDE8F84001F0A7BE26492148BDE8BF
:10052000F84001F011B8F8BD23491E4800F0F6FE6E
:100530000421224819F086F82146214816F09AFF36
:100540001721204819F07EF800230A2297F824107A
:100550001B4816F04FFF10211B4819F073F80C21AF
:10056000174816F087FF0B21184819F06BF8294639
:10057000134816F07FFF124816F02CFF9EE714492F
:10058000084800F0CBFE1521124819F05BF8294607
:100590000B4816F06FFF0A48BDE8F84016F01ABF86
:1005A000244602004C2E0020E4450200F4450200DF
:1005B000004602001046020090450200A4450200D9
:1005C0001871FF1FAC450200C4450200D845020067
:1005D000344602004846020038B590F825300B2B0F
:1005E000044627D91F49204800F098FE17211F48CC
:1005F00019F028F800230A2294F825101C4816F058
:10060000F9FE17211B4819F01DF800230A2294F85F
:100610002410174816F0EEFE1021174819F012F8B2
:100620000C21134816F026FF0025114816F0D2FEC3
:10063000284638BD03EB430317210C48E55C19F04D
:1006400001F800230A2294F82510094816F0D2FE7A
:100650000B210A4818F0F6FF2946054816F00AFF54
:10066000284638BD784602004C2E00206046020025
:100670001871FF1FAC450200C4450200D8450200B6
:1006800090F825300B2B04D803EB43031844407833
:10069000704710B513490446134800F03FFE172178
:1006A000124818F0CFFF00230A2294F825101048B2
:1006B00016F0A0FE17210F4818F0C4FF00230A22ED
:1006C00094F824100A4816F095FE10210A4818F0F4
:1006D000B9FF0C21064816F0CDFE054816F07AFE4B
:1006E000002010BD8C4602004C2E00206046020007
:1006F0001871FF1FAC450200C445020090F8253078
:100700000B2B04D803EB430318448078704710B5D3
:1007100013490446134800F001FE1721124818F04F
:1007200091FF00230A2294F82510104816F062FE6B
:1007300017210F4818F086FF00230A2294F824108E
:100740000A4816F057FE10210A4818F07BFF0C21CA
:10075000064816F08FFE054816F03CFE002010BD3E
:10076000A04602004C2E0020604602001871FF1FB8
:10077000AC450200C445020090F825300133DBB2DD
:100780000B2B80F825308CBF00200120704700BF64
:10079000002380F8253070470022134680F824207B
:1007A00080F82520C2540333242BFBD1704700BFAF
:1007B000FFF7F2BF70B5044615460E460846022103
:1007C00017F064FE2846022117F060FE104A114B14
:1007D00052F83610012001F500762072266052F89A
:1007E0003520607202F5007500206560E060013B15
:1007F000FDD191F8003292F8002203F00103D207F4
:1008000044BF43F00203DBB2A372204670BD00BFB9
:1008100054890200C0D4010090F814322DE9F04749
:100820000746002B7CD1DFF80C82794AD8F800000B
:10083000D468784D784E92F809E092E80A0091F871
:10084000009093F800C0117A714B1CEA0E0F09EA70
:1008500001015DD09B7A03F0030309B143F0040367
:1008600043F008039910013B91720D2B0AD8DFE881
:1008700003F075077207096F75756F0907720775C1
:10088000013CD460A04219D0DFF89891DFF890A124
:10089000D9F80030002C2246B8BFE21C92109A42D0
:1008A000CAF8002008D04FF47A715C480DF0AEFE13
:1008B000DAF80030C9F80030C8F800402B686968E1
:1008C0001A78687A0C782B7A5249044202EA0302B9
:1008D00016D08B7A03F003030AB143F0040343F00C
:1008E00008039A10013BAA720D2B00F28180DFE809
:1008F00003F07B7766777F387B7B387F7766777B03
:100900008B7A03F00303002AEBD043F00403E8E7FB
:100910009B7A03F003030029A4D043F00403A1E76A
:100920003F4E404C40484149394ADFF80881394D33
:1009300000233360384E2360036087F814321C466E
:100940000B601846D360C8F80030EB60336072E784
:10095000023CD46096E70234D46093E70134D4605B
:1009600090E7EC68023CEC6007F5AE7016F094FA84
:100970002F4B00282DD11A68042A3BDC3268A41AB8
:1009800004EB840402EB44049442EC6026D01A6821
:10099000264D254F0132002C1A6022462B68B8BF25
:1009A000E21C92109A423A6006D040F2E9311B48AC
:1009B0000DF02CFE3B682B603460BDE8F087EC68DE
:1009C0000234EC6007F5AE7016F066FA184B00289A
:1009D000D1D03268002194421960D8D1BDE8F087A7
:1009E000EC68013CEC60BFE7EC680134EC60BBE70D
:1009F000EC68B9E7092A326805DCA41A04EB840420
:100A000002EB8404C0E76421A41A01FB0424BBE7C1
:100A10000C7CFF1F587CFF1F807CFF1F306700206D
:100A2000447CFF1F4C7CFF1F487CFF1F507CFF1F36
:100A3000DC7BFF1F787CFF1F2DE9F84F00238346E6
:100A40001D460E4680F87431994600F5D67A00F1BD
:100A500080081024012706E08BF8747101350134F9
:100A6000102DE4B216D05AF8043F002BF6D0B34252
:100A7000F2D8DBF81032CAF800905B5D21464046A0
:100A800053B9013512F082FA0134102D8BF87571CB
:100A9000E4B2E8D1BDE8F88F12F038FA0028DDD1D1
:100AA0002146404612F054FA8BF87571D6E700BF24
:100AB00038B5144C0C40002C1FDB031993F8A051DF
:100AC0006DB9012283F8A021C9B2803012F040FA3A
:100AD0002A4621460C48BDE838400BF049B90022AF
:100AE00083F8A021C9B2803012F050FA21460122C9
:100AF0000548BDE838400BF03BB9013C64F00F04F9
:100B00000134DAE70F0000808830002038B5144C3B
:100B10000C40002C1FDB031993F8A0216AB90125B2
:100B2000C9B2803083F8A05112F012FA2A46214649
:100B30000C48BDE838400BF02FB90025C9B2803011
:100B400083F8A05112F022FA2A4621460548BDE852
:100B500038400BF021B9013C64F00F040134DAE7AE
:100B60000F0000808830002038B5144C0C40002C59
:100B70001FDB031993F8A0216AB90125C9B280309F
:100B800083F8A05112F0E4F92A4621460C48BDE84A
:100B900038400BF0A1BA0025C9B2803083F8A051CB
:100BA00012F0F4F92A4621460548BDE838400BF01A
:100BB00093BA013C64F00F040134DAE70F000080BF
:100BC00088300020154B0B40002B10B504461FDB6E
:100BD000234493F880216AB9012283F88021C9B2A5
:100BE00004F1800012F0B4F9012384F8153284F87E
:100BF000143210BD002283F88021C9B204F18000B4
:100C000012F0C4F9012384F8153284F8143210BDAF
:100C1000013B63F00F030133DAE700BF0F000080F0
:100C20002DE9F84380460F4600F1800600F29F153B
:100C300010244FF0000903E00134E4B2202C0DD061
:100C400015F8013F002BF7D0214601343046E4B2BD
:100C500012F09CF9202C85F80090F1D1094B3B4013
:100C6000002B09DB43440122F9B2304683F8A0216E
:100C7000BDE8F84312F06CB9013B63F00F03013398
:100C8000F0E700BF0F000080F8B507464D1E00F1E9
:100C90008006102405E00134E4B212F059F9202C4A
:100CA0000DD015F8013F21463046002BF3D12146E7
:100CB00001343046E4B212F069F9202CF1D101235D
:100CC00087F87531F8BD00BF38B500F5D07504461A
:100CD000C0F8105200F29F13002200F2AF1003F888
:100CE000012F8342FBD106480AF02AFE2318012275
:100CF0002946204683F89F21BDE83840FFF7C4BF4E
:100D00008830002038B505460C480AF0CBFE05F5C2
:100D1000D071C5F8101205F29F1305F2AF1400222E
:100D200003F8012FA342FBD12B180122284683F898
:100D3000A021BDE83840FFF7A7BF00BF88300020E2
:100D400038B505460C480BF0BBFC05F5D071C5F86D
:100D5000101205F29F1305F2AF14002203F8012FC1
:100D6000A342FBD12B180122284683F8A021BDE81D
:100D70003840FFF789BF00BF3067002038B500F565
:100D8000D0750446C0F8105200F29F1300F2AF1164
:100D9000002203F8012F8B42FBD129460448102280
:100DA0000AF062FC29462046BDE83840FFF76CBFD8
:100DB000883000209C4B1A680D2A70B504460CD868
:100DC0000123934041F2B6321A40002A52D113F463
:100DD000005540F097805B056DD404F5AA75284650
:100DE00016F022F8C0B904F5AE75284616F01CF8C6
:100DF00008BB04F5B275284616F016F850BB04F58A
:100E0000B674204616F010F800B970BD204616F0F2
:100E100051F8002872D170BD284616F04BF8002812
:100E2000E1D0824B002204F5AE75DA60284615F059
:100E3000FBFF0028DDD0284616F03CF80028D8D06B
:100E40007B4B002204F5B275DA60284615F0ECFF02
:100E50000028D4D0284616F02DF80028CFD0754BA6
:100E6000002204F5B674DA60204615F0DDFF002894
:100E7000CBD0CBE700F5AA75284615F0D5FF0028A2
:100E800062D104F5AE75284615F0CEFF002864D176
:100E900004F5B275284615F0C7FF002866D104F5A1
:100EA000B674204615F0C0FF0028AED0204616F0DC
:100EB00001F818BB70BD00F5AA76304615F0B4FFF6
:100EC000002840F0998004F5AE75284615F0ACFF77
:100ED000002840F08D8004F5B275284615F0A4FF77
:100EE00000287BD104F5B674204615F09DFF00283C
:100EF0008BD0204615F0DEFF00B970BD4E4B0022AE
:100F0000DA6070BD00F5AA75284615F08DFF00283F
:100F100047D104F5AE75284615F086FF002837D175
:100F200004F5B275284615F07FFF40BB04F5B67492
:100F3000204615F079FF00283FF467AF204615F0F2
:100F4000B9FF0028DAD170BD284615F0B3FF00289C
:100F500097D03A480AF05CFC93E7284615F0AAFFC0
:100F6000002895D0324B0022DA6091E7284615F030
:100F7000A1FF002893D02F4B0022DA608FE728468C
:100F800015F098FF0028D1D02A4B0022DA60CDE777
:100F9000284615F08FFF0028C2D0254B0022DA60CA
:100FA000BEE7284615F086FF0028B2D023480AF095
:100FB0002FFC421E54FA82F292F8A03183F0010312
:100FC00082F8A03143B300F10F01C9B204F18000EF
:100FD00011F0BEFF012384F875319AE7284615F019
:100FE00069FF00283FF47EAF124B0022DA6079E7F8
:100FF000284615F05FFF6EE7304615F05BFF0028CE
:101000003FF461AF094A636AD560002B3FF45BAFE0
:101010004FF47A70984756E700F10F01C9B204F116
:10102000800011F0B3FFD5E7BC6FFF1F0C7CFF1FE2
:10103000587CFF1F207CFF1F307CFF1F8830002062
:10104000A1F57A71032906D8DFE801F00E0A06023D
:10105000074B0022DA607047064B0022DA607047C7
:10106000054B0022DA607047044B0022DA607047BB
:10107000307CFF1F207CFF1F587CFF1F0C7CFF1F54
:1010800070B500F586750446284615F0CDFE00B90A
:1010900070BD284615F00EFF0028F9D0A36ABDE800
:1010A0007040184708B590F8A40016F0D9FD084A1A
:1010B0001368C0F58040A3F16401884202DB643309
:1010C000984201DD106008BD4FF0FF3008BD00BF41
:1010D0006C7CFF1F08B590F8A80016F0C1FD074A08
:1010E0001368A3F16401884202DB6433984201DD96
:1010F000106008BD4FF0FF3008BD00BF547CFF1FDB
:1011000030B500F58A7483B00546204615F08CFE94
:1011100030B9204615F0C4FE80B9002003B030BDC0
:10112000204615F0C7FE0028F3D00A4B1B68019338
:10113000019BC5F8B030012003B030BD95F82432D2
:101140000020042BC5F8B000E7D185F82402A5F8EB
:101150002602E3E750940020054B82B01B68019300
:10116000019B03F5FA63C0F8283202B0704700BF54
:1011700050940020054B82B01B680193019B03F53E
:10118000FA63C0F82C3202B0704700BF50940020C0
:10119000F0B5B1B007462849284E6846144616F007
:1011A00005FB274904A816F001FB264908A816F0FC
:1011B000FDFA25490CA816F0F9FA244910A816F0F2
:1011C000F5FA234914A816F0F1FA224918A816F0E6
:1011D000EDFA21491CA816F0E9FA204920A816F0DA
:1011E000E5FA1F4924A816F0E1FA1E4928A816F0CE
:1011F000DDFA1D492CA816F0D9FA86FB0426E31760
:10120000C3EB660606EB4601A4EB8101C9B20DEB08
:101210000111384616F0DEFAF1B2384616F06EFBD0
:101220006D4630AC103C204616F080FAAC42F9D145
:10123000384631B0F0BD00BFE4460200ABAAAA2A8E
:10124000E846020034480200EC460200585802000A
:10125000B4490200F0460200D84A0200F4460200F7
:10126000F8460200FC46020000470200F0B5144DAB
:10127000DFF854E00E4617460FCD8FB002AC0FC416
:101280000FCD0FC495E80F008EFB065EF517C5EB7A
:101290006E0584E80F0005EB450EA6EB8E060EAB3F
:1012A000F6B203EB8606EDB256F8303C054A0095DF
:1012B000384604211DF0CAFC38460FB0F0BD00BF0F
:1012C000B446020004470200ABAAAA2A10B50122C4
:1012D00000210D48FFF76EFA032202210B48FFF7A9
:1012E00069FA052204210A48FFF764FA0822062158
:1012F0000848FFF75FFA2123232222210648BDE890
:10130000104011F085BA00BF0C7CFF1F587CFF1FF6
:10131000207CFF1F307CFF1F887CFF1F10B586B02C
:101320000B460A4C0A4A684615211DF08FFC002224
:101330001146204611F098FB68461DF021FF6946D2
:101340000246204616F00AF806B010BD887CFF1F42
:101350000C47020070B5324D044632480AF000FBDB
:101360002B68052B064645D0072B2AD0042B10D01E
:1013700020462D49FFF7D2FF06212C4818F062F9CC
:1013800029682B4816F076F82948BDE8704016F019
:1013900021B868B104F29F140025294621480AF0BB
:1013A00027FB013580F00100B54204F8010FF4D1AC
:1013B0000921204818F046F91D48BDE8704016F094
:1013C00009B870B104F29F140025294615480AF0A7
:1013D00033FB0135003018BF0120B54204F8010F7E
:1013E000F3D10B21144818F02DF91148BDE87040D5
:1013F00015F0F0BF58B104F29F14002529460948A2
:101400000AF008FB0135B54204F8010FF6D10921B5
:101410000A4818F017F90648BDE8704015F0DABF21
:10142000BC6FFF1F88300020444702007447020051
:101430001871FF1F38470200204702002C470200A6
:1014400010B588B00B4600920A4C0B4A02A8152131
:101450001DF0FCFB00221146204611F005FB02A8FE
:101460001DF08EFE02A90246204615F077FF08B057
:1014700010BD00BF887CFF1F7C47020030B5D0F84C
:1014800018120C4C0C4A87B00546013168461DF015
:10149000DDFB0021C5F828122046022211F0E4FAF3
:1014A00068461DF06DFE69460246204615F056FF5F
:1014B00007B030BD887CFF1F9047020030B5D0F8E0
:1014C0001C120C4C0C4A87B00546013168461DF0D1
:1014D000BDFB0021C5F82C122046012211F0C4FAF0
:1014E00068461DF04DFE69460246204615F036FF5F
:1014F00007B030BD887CFF1F9047020010B5D0F8C0
:10150000283282B004462BB10E4A12680092009A2B
:10151000934210D3D4F82C325BB10A4A126801927C
:10152000019A934205D22046FFF7C8FF0023C4F872
:101530002C3202B010BDFFF7A1FF0023C4F82832FF
:10154000E8E700BF5094002070B5114D0C460646E8
:10155000FFF794FF28460222002111F085FA204669
:101560001DF00EFE21460246284615F0F7FE2046E5
:101570001DF006FEC6F8180220461DF001FE0146C9
:10158000204618F05FF80348BDE8704015F022BF10
:10159000887CFF1F1871FF1F70B50E4C05460E4664
:1015A00020460122002111F05FFA13220A49204649
:1015B00015F0D4FE20460222002111F055FA3146E2
:1015C000204615F0E1FE1323C5F81832C5F81C3289
:1015D00070BD00BF887CFF1FA847020010B586B011
:1015E0000B460D4A0D4C152168461DF02FFB684631
:1015F0001DF0C6FDC0F11001C9B22046002211F055
:1016000033FA68461DF0BCFD69460246204615F0D7
:10161000A5FE06B010BD00BFBC470200887CFF1FBE
:101620002DE9F04F2DED028B91B000F5C0710390C4
:101630007C4809F0C5FF002840F09180039B029090
:10164000FF2706468046814601900446BB463D463C
:10165000009703F27F1AB7EE008A02E00134102CE3
:101660004FD01AF8012F002AF8D0224608A86D4959
:1016700009F0A8FD9DF824200098824208D0019925
:101680000131CBB290420193034628BF1346009329
:10169000DDED0D7AF4EE487AF1EE10FA03D0029AFD
:1016A0000132D3B20293F4EEC87AF1EE10FA214679
:1016B0005C48D8BFB0EE678A0AF076F9A84207D036
:1016C000854209F1010928BF05465FFA89F9EDB2A3
:1016D0009DF839205A4506D008F1010893455FFA74
:1016E00088F828BF93469DF83820BA42B6D0974272
:1016F00004F1010406F1010628BF1746102CF6B2CA
:10170000AFD101220021484811F0AEF91222474919
:10171000454815F023FE294604A816F079F8B9F1DA
:10172000010F25D9424920E0424904A816F0D8F813
:10173000069B112BF8D9022200213B4811F094F9A5
:1017400004A9394815F020FE039C102312220DEB4A
:101750000300C4F81822C4F81C3215F0E7FF11B0DA
:10176000BDEC028BBDE8F08F324904A816F0B8F842
:10177000069B022BF8D9594608A816F049F808A983
:1017800004A816F0A9F808A815F0D0FFB8F1010FC9
:1017900005D9274900E0274904A816F0A1F8069BBF
:1017A000052BF8D9394608A816F032F808A904A87C
:1017B00016F092F808A815F0B9FF012E05D91C49BA
:1017C00000E01C4904A816F08BF8069B082BF8D9FA
:1017D000009A039908A8FFF7DBFC08A904A816F0F3
:1017E0007BF808A815F0A2FF019B012B05D9104931
:1017F00000E0104904A816F073F8069B0C2BF8D9EA
:10180000B0EE480A022108A816F016F808A904A8A4
:1018100016F062F808A815F089FF029B012B87D902
:10182000034982E788300020887CFF1FD4470200EC
:10183000E84702002C48020010B502220C460B4873
:10184000122111F011F90A490848022215F086FD0B
:10185000082CD4BF132112210448022211F004F9EC
:1018600021460248BDE8104015F004BE887CFF1FE9
:101870001C47020038B504460E4809F0C1FC04F5C7
:10188000D0710546C4F8101204F29F1304F2AF1091
:10189000002203F8012F8342FBD163190122204665
:1018A00083F8A021FFF7F0F929462046BDE838402B
:1018B000FFF7C2BF8830002010B503220C460B484A
:1018C000122111F0D1F80A490848022215F046FD0C
:1018D000082C94BF132112210448032211F0C4F8EC
:1018E000611C0248BDE8104015F0C4BD887CFF1F94
:1018F0001C47020030B5204B1B7883B004460D46D0
:101900001BB91E4B1B68092B12D01D48A46B09F094
:1019100085FC1C4929400029024604DBC9B202208B
:10192000A04703B030BD013961F00F010131F5E787
:10193000FFF776F913492940002918DBCDB2294673
:101940000F4809F083FC0E4809F04CFC0146204684
:10195000FFF7FAFD0C4B1B680193019B03F5FA633B
:101960002946C4F828322046FFF7A6FFD9E70139F7
:1019700061F00F010131E1E781660020BC6FFF1FBC
:10198000883000200F0000805094002010B5022203
:101990000C460D480F2111F067F80C490A48022245
:1019A00015F0DCFC092C4FF0020294BF10210F212E
:1019B000054811F059F8214600230A220248BDE8E3
:1019C000104015F017BD00BF887CFF1F1C470200A8
:1019D00038B504460E4809F021FC04F5D0710546DF
:1019E000C4F8101204F29F1304F2AF10002203F89F
:1019F000012F8342FBD163190122204683F89F21E6
:101A0000FFF742F929462046BDE83840FFF7BEBF40
:101A10008830002038B5554D2B68013B04460C2B0F
:101A200000F29A80DFE803F05F6B6D07071A072664
:101A3000313C4A8D8200002300F5D075026A436272
:101A4000012380F83132C0F810528262FFF782FC25
:101A500029462046BDE83840FFF716B9036A83627D
:101A6000002200F5C0714262C0F81012BDE8384093
:101A7000FFF70AB98368026A4362012380F83132B2
:101A80008262BDE83840FFF71FB90023026A436253
:101A9000012380F831328262BDE83840FFF732B965
:101AA000C36A026A4362012380F831328262FFF71F
:101AB00047F92F48BDE838400BF07EBC036A8362CB
:101AC00000F5D07100224262C0F8101200F29F139C
:101AD00000F2AF1003F8012F8342FBD12046BDE88E
:101AE0003840FFF7D1B8C368226A63620123A2625B
:101AF00084F831322046BDE83840FFF7BBBE0369A9
:101B0000F2E7036B026A436200F5D071012382623F
:101B100080F83132C0F8101200F29F13002200F258
:101B2000AF1003F8012F8342FBD1D7E70023026AED
:101B30004362012380F831328262BDE83840FFF70A
:101B40001DB9436B026A4362012380F8313282621D
:101B5000BDE83840FFF73CBF2921064817F072FD69
:101B600029680548BDE8384015F084BCBC6FFF1FEC
:101B700030670020EC4702001871FF1F134A144B16
:101B8000126870B553F82250124C86B006462846AB
:101B90001DF0F6FAD6F820120F4AC6F8200281424C
:101BA000B8BF01462B46013168461DF04FF820466C
:101BB0000122002110F058FF68461DF0E1FA694645
:101BC0000246204615F0CAFB06B070BDBC6FFF1F71
:101BD0007C6FFF1F887CFF1F1848020070B500F55E
:101BE000927586B00446284615F01EF9002840F08C
:101BF0002581284615F054F9002840F0E88004F5C6
:101C00009A75284615F010F9002840F0F380284610
:101C100015F046F9002840F0A38004F59675284693
:101C200015F002F9002840F0AE80284615F038F98A
:101C3000002870D104F59E75284615F0F5F80028A7
:101C400073D1284615F02CF900283FD104F5A27570
:101C5000284615F0E9F8002842D1284615F020F969
:101C600070B904F5A675284615F0DEF890B9284637
:101C700015F016F910B10023C4F8CC3006B070BDD1
:101C8000002304F5A675C4F8C830284615F0CCF832
:101C90000028ECD0284615F00DF90028E7D02046A2
:101CA000FFF7ECFB964B092220461A60FFF7B2FEC5
:101CB0002046FFF763FF934B1B680593059BC4F811
:101CC000CC30012384F8143206B070BD002304F533
:101CD000A275C4F8C430284615F0A6F80028BCD078
:101CE000284615F0E7F80028B7D02046FFF7C6FBD6
:101CF000834B082220461A60FFF78CFE2046FFF730
:101D00003DFF804B1B680493049BC4F8C83001233B
:101D100084F81432A5E7002304F59E75C4F8BC309E
:101D2000284615F081F800288BD0284615F0C2F817
:101D3000002886D02046FFF7A1FB714B07222046E2
:101D40001A60FFF767FE2046FFF718FF6D4B1B6810
:101D50000393039BC4F8C430012384F8143275E75D
:101D600094F824220023032A04F5967504BF84F80E
:101D70002432A4F82632C4F8C030284615F054F8AE
:101D800000283FF452AF284615F094F800283FF49D
:101D90004CAF2046FFF772FB594B1A68052A00F03A
:101DA0008C80042A00F09480574A12681A602046FA
:101DB000FFF730FE2046FFF7E1FE524B1B6802930F
:101DC000029BC4F8BC30012384F8143232E794F843
:101DD00024220023022A04F59A7504BF84F82432D1
:101DE000A4F82632C4F8B830284615F01DF80028AB
:101DF0003FF40DAF284615F05DF800283FF407AF1B
:101E00002046FFF73BFB3E4A1368062B50D00C2BB5
:101E100058D00D2B42D03D4B1B6813602046FFF776
:101E2000F9FD2046FFF7AAFE364B1B680193019B84
:101E3000C4F8C030012384F81432EEE6284615F0C9
:101E400039F800283FF4D5AE2046FFF717FB2C4A9F
:101E50001368012B27D0022B3FD0032B14D00A2B61
:101E600045D02B4B1B6813602046FFF7D3FD20465F
:101E7000FFF784FE234B1B680093009BC4F8B83027
:101E8000012384F81432BAE6214D224901264FF08D
:101E9000FF300A232E6008601360E5E71B49062324
:101EA0000B601360BAE71A48022103601160DBE798
:101EB00016480C2103601160B0E7134904220A6040
:101EC0001A6074E7114906200D2308601360A5E726
:101ED0000D4905220A601A6069E70D4D0D4901267A
:101EE0004FF0FF3003232E6008601360BCE7084DFD
:101EF000084901234FF0FF302B6013600860B3E7FF
:101F0000BC6FFF1F50940020386FFF1F346FFF1FFE
:101F10003C6FFF1FB86FFF1F70B5044616480E4692
:101F200009F07CF906F00F030133984206D004F55E
:101F3000D0712046BDE87040FEF7A6BE054631468A
:101F40002046FEF76DFE29462046FFF71FFD0A4892
:101F500009F0A8FD01462046FFF7AEFC074B06221C
:101F600020461A60FFF756FD2046FFF707FE0123C3
:101F700084F8143270BD00BF88300020BC6FFF1F92
:101F800010B500220C461248112110F06DFD0322FD
:101F900010490F4815F0E2F9632C4FF000020CDCF9
:101FA000092CCCBF12211321094810F05DFD2146F8
:101FB0000748BDE8104015F05DBA1121044810F043
:101FC00053FD21460248BDE8104015F053BA00BF4A
:101FD000887CFF1FCC47020010B501220C46124836
:101FE000112110F041FD032210490F4815F0B6F9F8
:101FF000092C4FF001020CDD632CD4BF12211121FA
:10200000094810F031FD21460748BDE8104015F0A1
:1020100031BA1321044810F027FD21460248BDE8DB
:10202000104015F027BA00BF887CFF1FCC47020084
:10203000F0B587B005460C9F0D9E0E9C0F98296049
:102040006A601499159AAB60EF60109B119F2E6126
:102050006C61129E139C6963AA63EB61A8612F6295
:10206000EE622C6305F1A80305F1D001002243F8CC
:10207000042F9942FBD105F27F1205F28F13002144
:1020800002F8011F9A42FBD105F29F11002203F8CA
:10209000012F9942FBD105F5D67305F5F6710022A3
:1020A00043F8042F9942FBD105F2EF1305F20F21FB
:1020B000002203F8012F9942FBD176247521742266
:1020C000732305F180067727039402910192009310
:1020D0003046722304977122702111F04FF8EB6B98
:1020E000002BC8BF002420DD2146304610F030FF11
:1020F000304611F09DF80A2016F018FA0134EB6B07
:10210000E4B29C42F0DB002B0FDD00242146304678
:1021100010F03CFF304611F08BF80A2016F006FA5A
:102120000134EB6BE4B29C42F0DB142016F0FEF9B4
:102130002846FFF76FFC2846FFF720FD0F480EF0FA
:10214000C1F901462846FFF71BFF0C480EF0BCF909
:1021500001462846FFF740FF094809F0A3FC014665
:102160002846FFF7A9FB064809F058F8014628461B
:1021700007B0BDE8F040FFF709BC00BF5490002055
:1021800088300020F8B5144D0C4617460646FFF778
:1021900075F902220021284610F066FC20461CF04A
:1021A000EFFF21460246284615F0D8F820461CF0DD
:1021B000E7FF0222C1B2284610F056FC39462846F5
:1021C00015F058F920461CF0DBFF0630142828BF14
:1021D0001420C6F81802F8BD887CFF1FF8B51F4C04
:1021E0001F4F154600220E462046114610F03CFCBB
:1021F000204611221B4915F0B1F800221146204655
:1022000010F032FC30461CF0BBFF3146024620463F
:1022100015F0A4F820460122002110F025FC2846E4
:102220001CF0AEFF29460246204615F097F83046CE
:102230001CF0A6FF0146304617F004FA384615F0A8
:10224000C9F828461CF09CFF0146284617F0FAF909
:102250003846BDE8F84015F0BDB800BF887CFF1FC8
:102260001871FF1F1C480200B0B588B002AF0446C9
:102270000B4600921521164A164D38461CF0E6FC16
:1022800038461CF07DFFD4F81832C4F81802984282
:102290000146B8BF194601F1080323F00703ADEB6F
:1022A000030D02AC3B460C4A013120461CF0CEFC2B
:1022B00028460222002110F0D7FB20461CF060FFC8
:1022C00021460246284615F049F81837BD46B0BDEC
:1022D00030480200887CFF1F184802002DE9F047B3
:1022E00090F8313282B00546002B40F08280584E83
:1022F000584A3068D46892F809E092E88800197862
:1023000097F800C0137A534F1CEA0E0F01EA03013D
:102310005AD0BB7A03F0030309B143F0040343F03E
:1023200008039910013B91720D2B0AD8DFE803F0E6
:102330005E075807095B5E5E5B090758075E013C54
:10234000D460C31EA34202DC0330A04239DA424803
:1023500008F064FF3368E31A48BF033300EBA307B8
:10236000002F39DC0127DFF80081D8F800309F42C8
:1023700026D05FFA87F94946374809F07BF83A4694
:1023800036492846FFF770FF354B364A1B680193E4
:10239000019B126803F5FA630C2AC5F8283239D07C
:1023A00049462846FFF7F2FA2B4809F07BFB014625
:1023B0002846FFF781FA2846FFF72CFBC8F8007083
:1023C000346002B0BDE8F087BB7A03F00303002954
:1023D000A7D043F00403A4E7022FA8BF0227C2E757
:1023E0000234D460ADE7023CD460AAE70134D46083
:1023F000A7E7002380F831321748154E08F00EFF8A
:102400001949144A086003B29B001C461846336001
:10241000D36070E7D8F80030E8192B44002209F1A6
:102420000F014FF0010A05F1800980F89FA1C9B2A0
:1024300083F89F21484610F08BFDD8F800100F312B
:102440004846C9B210F0A2FD85F875A1B6E700BFF5
:102450007C7CFF1F0C7CFF1F883000203848020066
:1024600050940020BC6FFF1F1C7CFF1F2DE9F04122
:10247000A84D2DED028B2B68DA0782B0044640F19F
:10248000EB81A54D2B68DB0740F1D78194F814321E
:10249000002B40F0AF81A14DA14E2B6869681A78DE
:1024A000687A0F782B7A9D49074202EA03021DD011
:1024B0008B7A03F003030AB143F0040343F00803EB
:1024C0009A10013BAA720D2B00F26881DFE813F02D
:1024D000540150014C015001660116005401540191
:1024E0001600660150014C01500154018B7A03F033
:1024F0000303002AE4D043F00403E1E7EB68023B66
:10250000EB6007EE903A9FED876A96ED007ADFED7B
:10251000866AF8EEE77A87EE868A77EE267AB4EE58
:10252000E78AF1EE10FA06DA37EE667AB4EEC78A79
:10253000F1EE10FA40D87D4BDFED7D7AD3ED006AE5
:10254000B1EE007AE6EEC77AB4EEE78AF1EE10FA61
:1025500040F13A81B9EE008A26EE888ADFED717A81
:1025600068EE277AFDEEE77AC5ED037A714D724F7A
:1025700095ED000AF5EE007A68EE277AF4EE407ADF
:10258000F1EE10FAC7ED007A40F075819FED650A13
:102590006A4967EE807A2046FDEEE77A17EE902AC8
:1025A000FFF762FE664B86ED008A1B680193019B74
:1025B00003F5FA63C4F82832624A13685068197840
:1025C0000578507A137A054201EA030100F0F3809E
:1025D000937A03F0030309B143F0040343F00803C3
:1025E0009910013B91720D2B00F2D680DFE813F0B9
:1025F000D000C800CC00C800D4000E00D000D0002D
:102600000E00D400C800CC00C800D000D568023D40
:10261000D5604D4E3368DA1EAA4202DCDA1CAA42AB
:102620001DDA4A4FDFF83C81EA1A3B68D8F80010FF
:1026300048BF033203EBA203082BA8BF082323EAF9
:10264000E37399423B6006D0194641480DF034FFD0
:102650003968C8F800102046FFF7BEFC35603D4AD7
:102660001368506819780578507A137A054201EAA0
:10267000030100F09780937A03F0030309B143F05C
:10268000040343F008039910013B91720D2B00F2F3
:102690008780DFE803F03B37333785073B3B07850F
:1026A0003733373BD568023DD5602B4E3068C31EAB
:1026B000AB4202DCC31CAB421BDA284A281A13685F
:1026C00048BF033003EBA000002840F3E280B0F5E0
:1026D000967FA8BF4FF49670214F10603B68DFF8DB
:1026E0007C80984204D063699847D8F800303B60FA
:1026F000356002B0BDEC028BBDE8F081D5680235D3
:10270000D560D2E7D568013DD560CEE7D568013503
:10271000D560CAE7087CFF1F007CFF1F587CFF1FA5
:10272000687CFF1F0000C8420AD7233D707CFF1F52
:1027300000000000A47CFF1FE47BFF1F4048020054
:1027400050940020207CFF1FA87CFF1FAC7CFF1F43
:1027500054900020307CFF1F047CFF1F747CFF1FFF
:10276000E87BFF1FF87BFF1FEB680233EB60C8E6D6
:10277000EB68013BEB60C4E6EB680133EB60C0E65D
:10278000D568013DD56044E7D5680235D56040E79E
:10279000D5680135D5603CE7D5683AE7EB68B0E627
:1027A000D56882E7937A03F0030300293FF46BAF07
:1027B00043F0040367E7937A03F0030300293FF42F
:1027C0000FAF43F004030BE7334BD3ED007A27EE52
:1027D000877AB4EEC78AF1EE10FA7FF7C7AEDFED65
:1027E0002F7A67EE277AB0EE478AFDEEE77AC5EDDD
:1027F000037ABBE62A482B4DDFF8C4E02A4E0023BB
:10280000002204F5C077036084F81422EA60394698
:102810002648CEF80030336009F0B4F9244B234841
:1028200083ED000A394609F0EBF9F7EE007A37EE4E
:10283000C00A194B83ED000A2FE6284615F078FBF5
:1028400000283FF423AE1B480DF03EFE1A4B1860E3
:10285000284615F073FB19E6284615F069FB002899
:102860003FF40FAE13480DF02BFE144B18602846B2
:1028700015F064FB05E637EEC00A94F830220B48E9
:1028800004F5C07109F040FBD7ED007AC5ED007A80
:102890007CE6012020E700BFFC7BFF1F0000C84250
:1028A000E47BFF1F587CFF1F687CFF1F88300020DF
:1028B000707CFF1F54900020AC7CFF1F747CFF1FB6
:1028C000A47CFF1F384B1B680D2B00D070472DE9EF
:1028D000F041364BCFB20B4007F00F06002B82B011
:1028E00006F1010639DBC418054694F8A0317BB126
:1028F0002F4B93F80080B8F1000F33D14246314698
:102900002C4808F027FF002838D102B0BDE8F0813C
:10291000274B1B78DBB901223146264808F01AFF05
:1029200030B3012384F8A031394605F1800010F05E
:102930000FFB324620492846FFF796FC1F4B1B68C9
:102940000193019B03F5FA63C5F82832DDE7836B39
:102950003246012104209847D7E7013B63F00F037B
:102960000133C0E7836B3246002104209847CCE74F
:10297000394605F1800010F009FBC6E7394605F13C
:10298000800084F8A08110F001FB32460C492846F3
:10299000FFF76AFC094B1B680093009B03F5FA6381
:1029A000C5F82832B1E700BFBC6FFF1F0F000080E1
:1029B00081660020883000205C480200509400208E
:1029C0004C48020010B5013A8CB00446032A6BD87B
:1029D000DFE802F052371D0240F6B833994200F0AA
:1029E00086806AD941F28833994200F0AA8041F684
:1029F0005833994264D15F49FEF7A6FD5E4B1B68D0
:102A00000B930B9B03F5FA63C4F8283253E040F6AE
:102A1000B833994277D050D941F28833994200F0C7
:102A20009C8041F6583399424AD15449FEF78CFDB7
:102A3000514B1B680893089B03F5FA63C4F82832CE
:102A400039E04F4A40F6B833994212683DD034D944
:102A500041F28833994262D041F6583399422FD1DE
:102A60004849FEF771FD444B1B680593059B03F530
:102A7000FA63C4F828321EE04348019109F0E8FCEB
:102A8000019940F6B83399422BD016D941F28833D8
:102A9000994250D041F65833994211D102463B49F0
:102AA0002046FFF7E1FB06E03949FEF737FC3A2103
:102AB000384816F0C7FD0CB010BDB1F57A7FFAD0DA
:102AC0002046FEF7DBFC0CB010BD3349FFF7CCFB12
:102AD000294B1B680393039B03F5FA63C4F8283260
:102AE000E9E702462C492046FFF7BEFBE3E72B4906
:102AF000FEF72AFD204B1B680993099B03F5FA6337
:102B0000C4F82832D7E72649FEF71EFD1A4B1B688A
:102B10000693069B03F5FA63C4F82832CBE72149F4
:102B2000FFF7A2FB144B1B680493049B03F5FA63A5
:102B3000C4F82832BFE702461B492046FFF794FB42
:102B4000B9E71A49FEF700FD0B4B1B680A930A9B75
:102B500003F5FA63C4F82832ADE71549FEF7F4FC33
:102B6000054B1B680793079B03F5FA63C4F82832EB
:102B7000A1E700BF1049020050940020DC48020089
:102B8000B86FFF1FA8480200306700208848020085
:102B9000184902002849020068480200E84802007B
:102BA000B848020098480200784802000049020034
:102BB000CC480200B1F57A7F38B504D8B0F8264287
:102BC00094B3002038BD40F6B834A14212D8B0F812
:102BD0002612B1F57A7FF4D1A0F826422146FFF7FC
:102BE000F1FE0821284816F02DFD284814F0F2FBCC
:102BF000002038BD41F28835A94222D941F6583427
:102C0000A142B0F826122ED8A942DAD1A0F8264265
:102C10002146FFF7D7FE04211D4816F013FD1B487F
:102C200014F0D8FB002038BD4FF47A72A0F82622A9
:102C30000B21184816F006FD144814F0CBFB204673
:102C400038BDB0F82612A142BBD1A0F826522946C1
:102C5000FFF7B8FE0621104816F0F4FC0B4814F0FC
:102C6000B9FB012038BDA142ABD10024A0F8264217
:102C70002146FFF7A7FE0821084816F0E3FC0348A9
:102C800014F0A8FB204638BD704902001871FF1FE0
:102C900084490200644902007C4902008C49020018
:102CA00070B51A4D82B08DED010A0C460646FEF74E
:102CB000E5FB2846022200210FF0D6FE20461CF03C
:102CC0005FFA21460246284614F048FB20461CF0D5
:102CD00057FA0222C1B228460FF0C6FE9DED010A46
:102CE00010EE100A1AF0E4FD41EC100B0221284608
:102CF00014F0CAFB20461CF043FA0630142828BF03
:102D00001420C6F8180202B070BD00BF887CFF1FF7
:102D1000B0B588B002AF0446019300920B46174A43
:102D2000174D152138461BF091FF38461CF028FA44
:102D3000D4F81832C4F8180298420146B8BF1946B0
:102D400001F1080323F00703ADEB030D02AC3B4692
:102D50000C4A013120461BF079FF2846022200214F
:102D60000FF082FE20461CF00BFA21460246284650
:102D700014F0F4FA1837BD46B0BD00BF9849020000
:102D8000887CFF1F184802002DE9F04190F81432AA
:102D900082B00546002B40F082804E4F4E4E3B687D
:102DA00079681A78787A0C783B7A4A49044202EAC0
:102DB000030215D08B7A03F003030AB143F0040336
:102DC00043F008039A10013BBA720D2B65D8DFE877
:102DD00003F058605C60640F58580F64605C605882
:102DE0008B7A03F00303002AECD043F00403E9E7F5
:102DF000FC68023CFC603368DA1CA24202DB033B45
:102E0000A3423BDD354B1B78C3EB83739B00A3428E
:102E100004DC334B1B789B00A34201DAFB601C46A9
:102E2000304FDFF8D0803A68002C2346B8BFE31C4F
:102E30009B109342C8F800301FD09A1AD2B295F86E
:102E40003032294805F5C07108F0DAFFD8F8008063
:102E5000C7F8008001466A462846FEF707FA424650
:102E6000034622492846FFF753FF214B1B68019375
:102E7000019B03F5FA63C5F82832346002B0BDE85F
:102E8000F081FC680134FC60B5E7FC680234FC604A
:102E9000B1E7FC68013CFC60ADE7FC68ABE71549B5
:102EA0000C4F104A0C4E1048002305F5C0740B60FF
:102EB000FB6021461360336008F004FE074B214697
:102EC0001870094808F02EFE054BC0F17F001870FD
:102ED00065E700BF0C7CFF1FF47BFF1F407CFF1FDA
:102EE000F07BFF1FE07BFF1F88300020A449020019
:102EF00050940020EC7BFF1F114B1A680D2A10B56F
:102F0000044609D80123934043F2B6321A405AB915
:102F10001A0714D45B050ED42046FFF735FF204670
:102F2000BDE81040FFF7A2BAFFF7D8F92046BDE888
:102F30001040FFF79BBABDE81040FDF76DBC10BD17
:102F4000BC6FFF1FF0B58DB01D4D9DF848409DF83A
:102F50004CE09DF85070CDF80CE00134019306462A
:102F60004B1C00920294049707A8164A164C142191
:102F70001BF06CFE2846022200210FF075FD07A809
:102F80001CF0FEF807A90246284614F0E7F907A846
:102F90001CF0F6F8C6F81802204614F01BFA1421AB
:102FA0000A4816F04FFB07A81CF0EAF8014607A8EC
:102FB00016F048FB204614F00DFA0DB0F0BD00BF2E
:102FC000887CFF1FB84902001871FF1FD04902001A
:102FD00008B50322112109480FF046FD084B1B7864
:102FE00001222BB907490548BDE8084014F0B6B9DD
:102FF00005490248BDE8084014F0B0B9887CFF1FBD
:10300000C49000202C480200E849020010B5044694
:10301000032290F878110B480FF026FDD4F8102207
:10302000D4F87831D35C01222BB907490548BDE8B3
:10303000104014F093B905490248BDE8104014F05F
:103040008DB900BF887CFF1F2C480200EC490200AC
:103050002DE9F04F0446102300F1440720268FB0DD
:10306000036404F16208E663384600250FF0ECFEC5
:1030700040460FF0E9FE4246394604950395029515
:10308000019500952B4604F180000FF0DFFEC4F897
:1030900004611A26C4F8E860192604F58673C4F89A
:1030A000EC601B264FF0250C4FF0240E1E210793D9
:1030B0001F220523C4F8F0604FF0420B4FF0430A83
:1030C0004FF027094FF0260818271D201C26C4F8AA
:1030D000DCC0C4F8E0E0C4F80831C4F8FC10C4F85F
:1030E0000021C4F8A4B0C4F8A8A0C4F8D49004F592
:1030F0008A7AC4F8D880C4F8E470C4F8F460C4F8DC
:10310000F800079813F070FE504613F06DFE04F5BA
:103110008E7904F592721646484613F065FE04F562
:10312000967230461746089613F05EFE04F59A71C3
:103130000E463846099713F057FE04F59E71304647
:103140000F460A9613F050FE04F5A2700646384664
:103150000B9713F049FE04F5A6700746304604F5B8
:10316000AA7B0C9613F040FE384604F5AE780D9716
:1031700013F03AFE584613F037FE04F5B277404696
:1031800013F032FE04F5B676384613F02DFE3046C5
:1031900013F02AFEFF22012384F8302284F8313212
:1031A00084F8745184F8755184F8145284F81552D7
:1031B000C4F81852C4F81C52C4F8205284F824529F
:1031C000A4F826524A21714816F03CFA704814F0CF
:1031D00001F92B466F48042214210FF069FC0A22E2
:1031E0006D496C4814F0BAF894F8A400022115F067
:1031F0004DF994F8A800022115F048F994F8D80088
:10320000022115F043F994F8D400022115F03EF99B
:1032100094F8DC00022115F039F994F8E00002215D
:1032200015F034F994F8E400022115F02FF994F820
:10323000E800022115F02AF994F8EC00022115F0BB
:1032400025F994F8F000022115F020F994F8F40023
:10325000022115F01BF90798D4F8D81013F0CCFD13
:103260005046D4F8D41013F0C7FD4846D4F8DC100B
:1032700013F0C2FD0898D4F8E01013F0BDFD0998D2
:10328000D4F8E41013F0B8FD0A98D4F8E81013F05D
:10329000B3FD0B98D4F8EC1013F0AEFD0C98D4F8F5
:1032A000F01013F0A9FD0D9DD4F8F410284613F08A
:1032B000A3FD0798B4F8081113F0B4FD5046B4F814
:1032C000081113F0AFFD4846B4F8081113F0AAFD39
:1032D0000898B4F8081113F0A5FD0998B4F808117E
:1032E00013F0A0FD0A98B4F8081113F09BFD0B9899
:1032F000B4F8081113F096FD0C98B4F8081113F007
:1033000091FD2846B4F8081113F08CFD94F8F800EC
:10331000022115F0BBF894F8FC00022115F0B6F874
:1033200094F80001022115F0B1F894F8040102218B
:1033300015F0ACF85846D4F8F81013F05DFD40468F
:10334000D4F8FC1013F058FD3846D4F8001113F0EF
:1033500053FD3046D4F8041113F04EFD5846B4F82E
:10336000081113F05FFD4046B4F8081113F05AFD40
:103370003846B4F8081113F055FD3046B4F808117A
:1033800013F050FD20460FB0BDE8F08FF049020069
:103390001871FF1F887CFF1F3C4A020070B516465B
:1033A0000C460546C9B203221F480FF05DFBFEB96B
:1033B0002B1993F88061D5F878317EB99C422BD0D7
:1033C00021461A4808F002FB012818D93346014665
:1033D0000A221548BDE8704014F00CB89C424FF02A
:1033E000010213D012491048BDE8704013F0B6BF77
:1033F000012210490C48BDE8704013F0AFBF012214
:103400000D490948BDE8704013F0A8BF0B490648B4
:10341000BDE8704013F0A2BF012209490248BDE88F
:10342000704013F09BBF00BF887CFF1F88300020D6
:10343000EC490200E84702002C480200484A02001A
:103440005C7E020070B5441800220F29054684F8FE
:10345000F0211FD901F00F060C463146FFF79EFF01
:1034600012211B4816F0EEF831461A4814F002F803
:10347000184813F0AFFF95F83032A34204BFFF2382
:1034800085F83032144B1B680A2B09D00B2B00D067
:1034900070BD214605F18000BDE870400FF076BD9B
:1034A0002846FDF7EBFF95F824220C480023012A5B
:1034B000C5F8D03004BF85F82432A5F8263231464D
:1034C00009F0B0FF2846BDE87040FDF739BC00BFE9
:1034D0004C4A02001871FF1FBC6FFF1F30670020AD
:1034E00070B50D461646D0F87C1100220446FFF751
:1034F00055FF0322E9B209480FF0B6FA012236B9A6
:103500000749064813F02AFFC4F87C5170BD0549ED
:10351000024813F023FFC4F87C5170BD887CFF1F64
:103520005C7E0200484A0200D0F8103270B55D5C43
:10353000C0F87811103104461646C9B2803095B1F2
:103540000FF024FD0122D4F878112046FFF7C8FFC0
:10355000D4F878316C33012244F8236084F8742164
:1035600084F8752170BD0FF0F3FC2A46D4F8781169
:103570002046FFF7B5FFEBE72DE9F041012186B0CA
:10358000054648480EF094FF0021122014F07EFFFB
:103590000121132014F07AFF0121132014F062FF9F
:1035A0000B26122014F064FF30B9013E01464FF49F
:1035B00096744FF0130067D175217422732305F1BF
:1035C0008006772776240291019200933046722379
:1035D00004970394712270210FF0D0FDEB6B002B48
:1035E00009DD0024214630460FF0D0FC0134EB6B9E
:1035F000E4B29C42F6DB30460FF01AFE05F29F1350
:1036000005F2AF11002203F8012F8B42FBD16FF4BA
:10361000BF76761B05F27F1405F28F18002731194B
:1036200004F8017F00222846FFF7B8FE4445F6D192
:1036300005F5D67305F5F670002143F8041F8342A3
:103640004FF00002F9D1184B85F81522012406220B
:10365000284685F814421A60FEF7DCF92846FEF782
:103660008DFA12480CF02EFF01462846FEF788FC22
:103670000E480CF029FF01462846FEF7ADFC85F800
:10368000744106B0BDE8F08114F0ECFE2346013B26
:10369000FDD10121132014F0E5FE2346013BFDD1AD
:1036A0007FE700BF3070FF1FBC6FFF1F54900020EA
:1036B00030B5D0F8B83087B00446A3B1374A1268A5
:1036C00002920299C91A0ED0354D2B68022201339D
:1036D00080F824225AD002222046FFF76BFA0028F5
:1036E00047D107B030BDD4F8D030ABB12B4A126807
:1036F00003920399C91A0FD0012284F8242220468C
:10370000FFF758FA0028ECD0264808F0A1FE014641
:10371000244808F099FFE4E7D4F8C0308BB11F4A81
:10372000126804920499C91A0BD0032284F8242247
:103730002046FFF73FFA0028D3D02046FFF71CFFB2
:10374000CFE7D4F8B030002BCBD0144A12680592E2
:103750000599C91AC5D0042284F824222046FFF70F
:1037600029FA0028BDD0104807F0B6FEE369984753
:10377000B7E729680C4807F065FB20462968FEF783
:103780005BF84FF0FF332B6007B030BD0648019166
:1037900007F036FD019928609DE700BF5094002096
:1037A000B86FFF1F30670020883000202DE9F04FF0
:1037B00000F58E7585B00446284613F035FB10B928
:1037C00005B0BDE8F08F284613F074FB0028F7D051
:1037D0008C4E3368013B0A2B57D8DFE803F0411EBB
:1037E00018565656560D0D560600874D2B78002B51
:1037F00054D1E3699847E3E7844A1378204683F07D
:1038000001031370FFF7E4FB05B0BDE8F08F8048BB
:1038100001F0E8FC05B0BDE8F08F7E4D29684B1C37
:1038200000F0D7807C4807F00DFB2A687B492046D2
:10383000FEF71AFD7A4B1B680393039B03F5FA63AB
:10384000C4F8283201274FF0FF3320462B60376041
:10385000FEF7E0F82046FEF791F984F81472AFE71E
:103860006D4807F02BFC30B36B4807F0C9FC6D497D
:1038700002462046FEF7F8FC694B1B680193019B4A
:1038800003F5FA63C4F828329AE794F81532032B4B
:1038900000F2AA80DFE803F076593F200127204696
:1038A0003760FEF7B7F82046FEF768F9002384F882
:1038B00014722B7084E7584807F0A2FC5A4902465C
:1038C0002046FEF7D1FC564B1B680293029B03F582
:1038D000FA63C4F8283273E704F28F196FF4BF77E4
:1038E000C8463F1B04F27F154FF0010A791915F8FD
:1038F000013F08F8013F002285F800A02046FFF7AD
:103900004DFD4D454FF0010BF0D1022384F814B268
:1039100084F8153253E06FF4BF773F1B04F27F1534
:1039200004F28F1A4FF0000979194FF0000805F8DA
:10393000019F42462046FFF731FD5545F4D1012352
:1039400084F8158284F8143239E004F28F196FF488
:10395000BF77C8463F1B04F27F15791915F8013F60
:1039600008F8013F83F001032B7000222046FFF787
:1039700015FDA945F1D10322012384F8152284F80D
:1039800014321CE06FF4C778C4EB080804F28F15FA
:1039900004F27F1704F29F1908EB050115F8013FA7
:1039A00083F0010307F8013F00222046FFF7F6FCF1
:1039B000A945F1D1012384F8153284F81432336813
:1039C000062B7FF4FDAE04F5C0712046FDF75CF9CF
:1039D000F6E6012520463560FEF71CF82046FEF786
:1039E000CDF884F81452EBE63121104815F02AFE88
:1039F00094F815120E4813F03DFD0D4813F0EAFC43
:103A0000DDE700BFBC6FFF1F142E0020C490002014
:103A10009C2D0020B86FFF1F88300020804A0200D4
:103A200050940020604A0200704A0200904A02004E
:103A30001871FF1F70B504460D4696B080300FF028
:103A400087FA6319012283F8F0210F2D00F23F81DC
:103A5000DFE815F0240040005C00780094009D0031
:103A6000A600AF00F100CB00DE00B8002A0104017F
:103A700017011000B9492046FDF766FDB84BB9485B
:103A80001B681293129B03F5FA63C4F8283204F5FD
:103A9000C071042208F0F2F816B070BDB24B1A687B
:103AA000511E012940F2D0810A2A00F0CD81204622
:103AB000AE49FDF749FDAA4BAA481B680293029B39
:103AC00003F5FA63C4F8283204F5C071002208F047
:103AD000FBF8E1E7A44B1A68511E012940F2C081AE
:103AE0000B2A00F0BD812046A149FDF72DFD9C4B1E
:103AF0009C481B680193019B03F5FA63C4F82832C4
:103B000004F5C071012208F0DFF8C5E7964B1B6889
:103B1000012B00F06C81083B012B40F268812046AC
:103B20009449FDF711FD8E4B8E481B680493049B4E
:103B300003F5FA63C4F8283204F5C071022208F0D4
:103B4000C3F8A9E7884B1B68012B00F06881083B8C
:103B5000012B40F2648120468749FDF7F5FC804B3C
:103B600080481B680693069B03F5FA63C4F8283265
:103B700004F5C071032208F0A7F88DE77F4B1B788E
:103B8000002B00F02781A3690120984784E77B4B35
:103B90001B78002B00F01181A369022098477BE776
:103BA000764B1B78002B00F0FB80A369032098471D
:103BB00072E7724B1B78002B00F0C280A3690420CF
:103BC000984769E720466E49FDF7BEFC644B65489F
:103BD0001B680E930E9B03F5FA63C4F8283204F5B4
:103BE000C071032208F090F856E720466549FDF7BA
:103BF000ABFC5B4B5B481B680C930C9B03F5FA63B7
:103C0000C4F8283204F5C071012208F07DF843E7BA
:103C100020465D49FDF798FC514B52481B680D93B7
:103C20000D9B03F5FA63C4F8283204F5C071022233
:103C300008F06AF830E720465449FDF785FC484B08
:103C400048481B680B930B9B03F5FA63C4F82832B2
:103C500004F5C071002208F057F81DE720464C49D2
:103C6000FDF772FC3E4B3F481B681093109B03F519
:103C7000FA63C4F8283204F5C071022207F0FEFF8F
:103C80000AE720464349FDF75FFC354B35481B6882
:103C90001193119B03F5FA63C4F8283204F5C0713F
:103CA000032207F0EBFFF7E620463B49FDF74CFC0B
:103CB0002B4B2C481B680F930F9B03F5FA63C4F83A
:103CC000283204F5C071012207F0D8FFE4E60F2D79
:103CD0007FF6E2AE05F00F06314601222046FFF7DF
:103CE0005DFB94F83032AB42636A88BF84F830528F
:103CF00013B1A5F1100098471B4B1B68013B0C2B1F
:103D000000F2E78001A252F823F000BF653E0000F8
:103D1000773E0000D33E0000813E0000C93E000017
:103D2000D33E0000BF3E0000653E0000B53E0000EF
:103D30009F3E0000993A0000953E00008B3E000037
:103D400016492046FDF700FC054B1B680A930A9BA9
:103D500003F5FA63C4F8283230E700BFBC4B020019
:103D60005094002088300020BC6FFF1FD04A020012
:103D7000C44A0200F84A0200244B02008166002077
:103D8000904B0200784B0200844B02006C4B020007
:103D9000A44B0200B04B02009C4B0200604B02009F
:103DA0005F492046FDF7D0FB5E4B1B680993099BDA
:103DB00003F5FA63C4F82832F7E65B492046FDF7BD
:103DC000C3FB584B1B680893089B03F5FA63C4F8C0
:103DD0002832E1E655492046FDF7B6FB514B1B68FA
:103DE0000793079B03F5FA63C4F82832CBE6504AE1
:103DF00050491378002083F0010313700870002BE2
:103E000000F088804C492046FDF79EFB454B1B681F
:103E10000393039B03F5FA63C4F828323CE6454B51
:103E20001A78002A6DD0424D4449002220462A705B
:103E30001A70FDF789FB3B4B1B680593059B03F547
:103E4000FA63C4F8283227E60B2220461A60FDF7F1
:103E5000E1FD2046FDF792FE012384F814321BE6B3
:103E60000A22F2E7324B364A1B784FF0FF311160DD
:103E7000002B7FF411AE29462046FCF7D1FE0BE65D
:103E800029462046FCF714FE06E629462046FEF7A2
:103E900019FD01E629462046FEF73EF8FCE52946D5
:103EA0002046FCF7BDFE1F4B1B681393139BC4F801
:103EB000D030F1E529462046FDF71CFDECE529460A
:103EC0002046FCF751FEE7E529462046FCF71EFE9A
:103ED000E2E529462046FCF775FE31462046FDF70F
:103EE0009FFB104B1A681592159A1B681493149B2C
:103EF00002F5FA6203F5FA63C4F82C22C4F82832FA
:103F0000CAE50B480F490270012220461A70FDF7DE
:103F10001BFB90E70C492046FDF716FB76E700BF38
:103F2000504B020050940020404B0200304B0200E6
:103F30008166002080660020DC4A0200044B0200FB
:103F4000B86FFF1F144B0200EC4A0200F8B5344C66
:103F50002368DB07054646D5324E14F0C3FA3368B2
:103F6000304A984234D900F5EA4395F87411303359
:103F70001360002947D105F1800738460FF070F82B
:103F800018B3EB6B002B24DD0026344605E001342A
:103F9000EB6BE4B29C4226461BDA214638460EF013
:103FA00095FF2E4430B196F8F031214628460BB9E2
:103FB000FFF740FD214638460EF098FF0028E6D076
:103FC00021462846FFF73EFAE1E795F875311BB91F
:103FD000F8BD012385F8753138460FF029F9002323
:103FE00085F87531F8BD204613F0A2FF0028B3D044
:103FF00014F078FA0B4E00F5EA4330332046336074
:1040000013F09CFFA9E7014605F180072846FCF75D
:1040100013FD38460FF024F80028D6D0B1E700BFD2
:10402000847CFF1FB07CFF1F10B50023036043603A
:10403000836004461621044815F004FB034813F07E
:10404000C9F9204610BD00BFCC4B02001871FF1FFC
:1040500038B505461A210F4815F0F4FA2C6864B1FA
:10406000A36A2B6020462C2113F0A4FF2C680A4879
:10407000042115F0E7FA002CF2D100232B606B60CD
:10408000AB600421054815F0DDFA054813F0A2F9EC
:10409000284638BDE44B0200084C0200004C0200E8
:1040A0001871FF1F38B5054615210F4815F0CAFADB
:1040B0002C6864B1A36A2B6020462C2113F07AFF90
:1040C0002C680A48042115F0BDFA002CF2D1002317
:1040D0002B606B60AB600421054815F0B3FA05480E
:1040E000BDE8384013F076B9104C0200084C0200CD
:1040F000004C02001871FF1F38B52E4C05460A21EE
:104100002D4815F09FFA204613F064F90E212B4834
:1041100015F098FA6B682046196813F0ABF90B217B
:10412000274815F08FFA6B680A2219792046002378
:1041300013F060F9204613F04DF90821214815F0DD
:1041400081FA6B682046D96813F094F907211E485C
:1041500015F078FA6B68D86919F0AAFB41EC100BDE
:104160002046022113F090F90B21184815F06AFA45
:104170006B680A2293F820102046002313F03AF9C6
:104180001621134815F05EFA6B682046597A13F031
:1041900071F90E210F4815F055FA6B68204693F817
:1041A00024100A22002313F025F92046BDE83840E8
:1041B00013F010B91871FF1F284C0200344C020094
:1041C000444C0200504C02005C4C0200644C020063
:1041D000704C0200884C020038B54368002B6BD04D
:1041E0009A6A934204460D4618BF012066D0A36820
:1041F00023B1226812B19B6A9A4274D06368444A20
:104200001B68934202DC01332DD038BD2A46414958
:104210004148FDF7E3FF3121404815F013FA2846E5
:104220001AF0AEFF0146284615F00CFA3C4813F090
:10423000D1F807213B4815F005FA6168384813F0BA
:1042400019F90E21384815F0FDF9636834481968EA
:1042500013F010F9324813F0BDF863681B6801339E
:104260004FF00000D1D12A4630492B48FDF7B6FF68
:1042700034212F4815F0E6F928461AF081FF01464F
:10428000284615F0DFF9264813F0A4F80721254841
:1042900015F0D8F96168224813F0ECF80E21224895
:1042A00015F0D0F963681E48196813F0E3F81C484C
:1042B00013F090F8002038BD012038BD0A4616489A
:1042C0001C49FDF78BFF26211B4815F0BBF928463A
:1042D0001AF056FF0146284615F0B4F9104813F0BD
:1042E00079F8002083E72A4614490B48FDF776FF4A
:1042F0003921134815F0A6F928461AF041FF014666
:10430000284615F09FF9064813F064F8002075E779
:10431000809698001C4D02004C2E0020344D020067
:104320001871FF1F684D0200704D0200804D0200A1
:10433000984D0200984C0200A84C0200D04C02009C
:10434000E04C020003684360704700BF10B544684A
:104350000CB1206810BD03490348FCF7DFFF20467D
:1043600010BD00BFD04D02004C2E002010B5446897
:104370000CB1207910BD03490348FCF7CFFF20465C
:1043800010BD00BFE44D02004C2E00202DE9F0418D
:1043900088460027077006461121144815F052F987
:1043A000D8F80440ECB108340FCC35460FC594E87A
:1043B0000F0085E80F0071680D4813F05BF80821C5
:1043C0000C4815F03FF9D8F80430094819790A2249
:1043D0003B4613F00FF8064812F0FCFF3046BDE8EC
:1043E000F08105490548FCF799FFF7E7F84D020011
:1043F0001871FF1FA86402000C4E02004C2E002012
:104400004068003018BF0120704700BF70B50446F7
:1044100016213648666815F015F9354812F0DAFFAE
:104420000721344815F00EF96168314813F022F87D
:104430000821314815F006F921682D4813F01AF8C3
:1044400008212E4815F0FEF8A168294813F012F84B
:1044500023686360642538E012F0BCFF0E21284811
:1044600015F0F0F863682248196813F003F80D217D
:10447000244815F0E7F861681D48083112F0FAFF8A
:104480000921214815F0DEF863681948197912F0FE
:10449000F1FF0B211D4815F0D5F86168144812F0A2
:1044A000E9FF08211A4815F0CDF863681048996AA9
:1044B00012F0E0FF17492046FFF78EFE40B120467C
:1044C00000F0C6F8013D08D063680948002BC3D14D
:1044D000074812F07FFF666070BD0F490F48FCF778
:1044E0001DFF034812F076FF666070BD244E020087
:1044F0001871FF1F684D02003C4E0200484E02003A
:10450000704D0200544E0200644E0200704E0200D4
:104510007C4E0200884E0200904E02004C2E00207D
:10452000036810B504466BB14268934204BF002291
:1045300042609A6A8AB100210260996218462C2171
:1045400013F038FD0A492046FFF746FE00B110BDC2
:104550002046BDE81040FFF759BF81688B4208BF75
:1045600082602C21184613F025FD00232360E9E723
:10457000A04E020038B50368044673B11A68914230
:104580000D4603DC0AE01A68AA4207DA2046FFF764
:10459000C7FF23686360002BF5D1002363600549E2
:1045A0002046FFF719FE00B138BD2046BDE838406F
:1045B000FFF72CBFB04E020082B02DE9F04106ACEF
:1045C000074644F8043F0D461E481421904615F056
:1045D00039F8214600230A221B4812F00BFF1A4823
:1045E00012F0F8FE2C2013F0E1FC2C2200210646EC
:1045F0001AF0D0F80FCCB060F160326173610FCC6B
:10460000BC68356086F80480B061F1613262736223
:1046100014B1A64218BFA6627B68BE607BB13B683E
:104620005BB10A493846FFF7D7FD10B93846FFF7A6
:10463000EDFEBDE8F04102B070473E60F1E77E60FC
:10464000EDE700BFDC4E02001871FF1FF44E0200C0
:10465000436810B5044673B19A6A934213D06260FE
:104660000C492046FFF7B8FD00B110BD2046BDE85B
:104670001040FFF7CBBE1921074814F0E3FF0748AD
:1046800012F0A8FEECE706490648FCF747FE63680F
:104690009A6AE4E7304F0200144F02001871FF1FBE
:1046A000004F02004C2E002070B590E848000546EF
:1046B0000024436006E00134FFF7CAFFB4F57A7FB7
:1046C00006D06B682846002BF5D16E60204670BD81
:1046D00003490448FCF722FE6E60204670BD00BF0F
:1046E000384F02004C2E002000220260426082609F
:1046F000704700BF38B504461721094814F0A2FFDF
:1047000023685BB10025DA6822601846DD6010215D
:104710009D6013F04FFC2368002BF4D1204638BD78
:10472000484F020038B5436804460D4683B1DA6845
:10473000934218BF012036D09A689A4248D0E36865
:104740002BB1DA68934219D09A689A4202D038BDE8
:104750000120F4E728492948FCF7E0FD1F212848FB
:1047600014F070FF274812F035FE28461AF008FDB5
:104770000146284614F066FF0020E8E722491F485A
:10478000FCF7CCFD2B21214814F05CFF28461AF0E1
:10479000F7FC0146284614F055FF1A4812F01AFE9D
:1047A000E3680020D0E71A491448FCF7B7FD23213D
:1047B000184814F047FF28461AF0E2FC0146284644
:1047C00014F040FF0F4812F005FE63680020B3E7C5
:1047D00011490A48FCF7A2FD1721104814F032FFD6
:1047E000084812F0F7FD28461AF0CAFC0146284690
:1047F00014F028FF0020A2E7FC4F02004C2E0020FE
:10480000105002001871FF1FBC4F0200D04F020071
:10481000604F0200704F0200944F0200A44F02004C
:1048200010B507490446FFF77DFF20B163680BB15F
:10483000DB68636010BD204600F004F8F6E700BFB7
:10484000304F020038B500210446434814F0FAFE08
:10485000424812F0BFFD0D21414814F0F3FE3F48DD
:1048600012F0B8FD07213F48656814F0EBFE21689F
:104870003A4812F0FFFD06213B4814F0E3FE616860
:10488000364812F0F7FD0721384814F0DBFEA16826
:10489000324812F0EFFD0A21354814F0D3FEE168EA
:1048A0002E4812F0E7FD2D4812F094FD204600F04E
:1048B000DFF863682BB945E0FFF7B2FF6368002BB0
:1048C00040D005212B4814F0BDFE636823481968C9
:1048D0000A22002312F08EFD0421274814F0B2FEB4
:1048E00063681E4819790A22002312F083FD04210F
:1048F000224814F0A7FE6368184859790A22002359
:1049000012F078FD05211E4814F09CFE61681348E2
:1049100012F0B0FD06211B4814F094FE63680F48A6
:10492000D96812F0A7FD0D4812F054FD6368DA68EB
:1049300093422046C0D11A21134814F083FE074841
:1049400012F048FD0021044814F07CFE034812F0E8
:1049500041FD656038BD00BFA44702001871FF1F0C
:1049600030500200405002004850020050500200F7
:1049700058500200645002006C5002007450020053
:104980007C500200845002008C50020038B504466E
:10499000C068002838D060602368834226D0A368AE
:1049A000834216D08568C368EB60C36882689A60EA
:1049B000102113F0FFFA65602B46E360144920468E
:1049C000FFF7B0FE00B138BD2046BDE83840FFF724
:1049D00039BF82681AB1826862600021D1601846CE
:1049E000102113F0E7FA6368A360E6E7C26862602B
:1049F00062B1002191600022DA601846102113F0A4
:104A0000D9FA63682360D8E76068C5E7A260F2E777
:104A1000A85002002DE9F84304461020894690462C
:104A20001F4613F0C3FAA66800254560856080F82C
:104A30000490C56080F8058007600EB1F060866064
:104A40006368A0607BB123685BB108492046FFF72B
:104A500069FE08B1BDE8F8832046BDE8F843FFF7DA
:104A6000F1BE2060F1E76060EDE700BFB4500200E6
:104A700010B505490446FFF755FE10B92046FFF76B
:104A8000E1FE2368636010BDBC500200C368187962
:104A9000704700BFC3685879704700BFC368186883
:104AA000704700BFC068003018BF0120704700BFCA
:104AB00010B505490446FFF735FE10B92046FFF74B
:104AC000C1FE2368E36010BDC450020010B5074961
:104AD0000446FFF727FE20B1E3680BB1DB68E36013
:104AE00010BD2046FFF7AEFEF6E700BFD050020033
:104AF00070B511490546FFF715FE90B128466E685E
:104B00000024FFF7B5FF05E00134FFF789FEB4F597
:104B10007A7F0AD06B682846002BF5D16E6020465C
:104B200070BD2846FFF78EFEE8E704490448FCF70D
:104B3000F5FB6E60204670BDDC500200E4500200C0
:104B40004C2E002038B50A4D002304460360436014
:104B500029464FF4A072083013F008F905F5A0714A
:104B600004F5A4704FF4807213F000F9204638BDAC
:104B7000F450020010B490E81800013400EB031365
:104B800094FBF1F202FB11410B44416093F84801A0
:104B90005DF8044B704700BF10B490E8180094FB18
:104BA000F1F200EB031302FB11410B44416093F857
:104BB00048015DF8044B7047436810B40468194419
:104BC00000EB041091FBF2F303FB121250FA82F295
:104BD0005DF8044B92F84801704700BF406801300F
:104BE0008842B4BF00200120704700BF054B0B4036
:104BF000002B01DB03607047013B63F00F030133BF
:104C0000036070470F000080036803EB830300EB31
:104C100083000830704700BF00234360704700BF27
:104C2000704700BF2DE9F0418046064600F160075D
:104C3000337D5BB13546002455F8040F013418B1BB
:104C40006C2113F0B7F9337DA342F5DC1836BE4270
:104C5000EED14046BDE8F08101EB410300EBC30318
:104C600080F8681043660120704700BF38B50446DD
:104C700060B101EB410110EBC1050DD002EB420028
:104C800014EBC0040ED06A75012038BD08490948EC
:104C9000FCF744FB204638BD07490648FCF73EFBBD
:104CA000284638BD05490348FCF738FB204638BD87
:104CB000345302004C2E0020485302005C53020083
:104CC000436E0BB11960704780F868300346406648
:104CD00019607047416E70B5054621B30B7D032BFB
:104CE0001BD86C2013F062F9044600F07FFA6B6E5B
:104CF0001E1D25D0197D31B153F82100B8B100F047
:104D0000ADFA6B6E197D03EB8102013154602046D0
:104D1000197500F07DFA204670BD0E490E48FCF76B
:104D2000FDFA002070BDFFF797FF38B970BD0B4941
:104D30000948FCF7F3FA6B6E197DE4E7696ECDE77D
:104D400007490548FCF7EAFA20466C2113F032F9CE
:104D5000304670BD705302004C2E00209453020068
:104D6000805302002DE9F043044685B0184803F053
:104D700065FC0E21174814F065FC174812F02AFB59
:104D8000E06EE8B100F0A4FA636EE06E93F8009074
:104D900094F8685094F8746094F8707000F04CFACD
:104DA0008046E06E00F04CFA4B4602908DE88001A0
:104DB000324629460948FEF7C5F805B0BDE8F0833C
:104DC0000749064805B0BDE8F043FCF7A7BA00BFA5
:104DD00084660020A45302001871FF1F4C2E00208F
:104DE000B453020070B504463321644814F02AFC21
:104DF000E06E00F021FA00230A220146604812F01A
:104E0000F9FA01215F4814F01DFCE06E00F018FA79
:104E1000002301460A225A4812F0ECFA09215A48A6
:104E200014F010FC00230A2294F87010544812F079
:104E3000E1FA1421554814F005FCE06E00F014FA74
:104E4000002301460A224E4812F0D4FA4C4812F0D0
:104E5000C1FAE36E002B7DD0656E002D75D018462B
:104E600000F004FA054658B31921494814F0EAFB4A
:104E7000E06E00F0F9F910210646464814F0E2FB16
:104E8000002331460A223E4812F0B4FA636E1B7DBD
:104E9000B34221D92121404814F0D4FB636E84F839
:104EA000706003EB86067068E06600F0D9F9212196
:104EB0003A4814F0C7FB324812F08CFA284670BD0D
:104EC000E06E00F001FA3D21354814F0BBFB2C48A0
:104ED00012F080FA284670BD1821324814F0B2FB57
:104EE000636E626F1B689A421FDB10212E4814F01C
:104EF000A9FB636E5E7DFF2E32D006EB46061321C2
:104F000004EBC606294814F09DFB66661521284867
:104F100014F098FB636E002284F870205868E066F5
:104F20000123636700F09CF9C1E71A21214814F0BE
:104F300089FB002384F87030626E636F5068E0660E
:104F40000133636700F08CF9B1E71B491B48FCF79C
:104F5000E5F9BFE71A4919481D46FCF7DFF9B9E73B
:104F60000021184814F06EFB054812F033FA1321A3
:104F7000154814F067FB236E984798E7C853020062
:104F80001871FF1FFC530200005402000C54020071
:104F90004C540200685402007C5402002C5502005C
:104FA00050550200A0540200D8540200EC540200F4
:104FB00000550200BC540200385402004C2E002060
:104FC00024540200A4470200185502002DE9F043C2
:104FD000436E044685B0C06E93F8009094F8686004
:104FE00094F8747094F8708000F026F90546E06E2D
:104FF00000F026F94B460290CDF800803A46314643
:1050000001950348FDF79EFF05B0BDE8F08300BFA2
:105010004C2E002010B514210446094814F012FB50
:10502000084812F0D7F9E06E18B1BDE8104000F062
:105030004FB905490548BDE81040FCF76FB900BFFE
:10504000905502001871FF1FA85502004C2E002039
:1050500003460022586680F8682038B1406883F81B
:1050600070200122D8665A6700F0FAB80149024858
:10507000FCF754B9BC5502004C2E0020F8B5564E32
:10508000564D0166044600F1150132602B60753003
:10509000FF2200230A7001F8013C41F8153C183149
:1050A00081424FF00005F5D14D4B656684F868509C
:1050B000E56684F870506567012620461E70FFF78C
:1050C00009FE074690B12B462A46314600F0AAF861
:1050D0002B462A460221384600F0A4F831463846CD
:1050E00000F0B2F83846022100F0ACF82046FFF795
:1050F000F1FD054690B101221146002300F092F81F
:10510000002301220221284600F08CF801212846C4
:1051100000F09AF82846022100F094F82046FFF7A4
:10512000D9FD054690B100230222012100F07AF852
:10513000022211460023284600F074F80121284677
:1051400000F082F82846022100F07CF80121204678
:10515000FFF7B6FD012200212046FFF787FD012160
:105160002046FFF779FD02212046FFF7A9FD2046E2
:10517000FFF7B0FD054690B100230322012100F0A6
:1051800051F8002303220221284600F04BF80121A8
:10519000284600F059F82846022100F053F820462E
:1051A000FFF798FD054690B100230422012100F08D
:1051B00039F8002304220221284600F033F80121A7
:1051C000284600F041F82846022100F03BF820462E
:1051D000BDE8F840FFF73CBFB87CFF1FB47CFF1F61
:1051E000BC7CFF1F704700BF704700BF38B5FF236E
:1051F0000446002505738373C37303615422034976
:10520000143012F0B3FDA560204638BDFC550200F5
:105210000023FF22037183704371C37002704270D8
:10522000704700BF30B40139C9B244180125A370DA
:105230002571425430BC704790F86800704700BF39
:10524000007A7047816070474B1E50FA83F31B79D8
:1052500013B141730120704718467047817370473E
:1052600000238366704700BF807B7047826E83682F
:105270009A421DD01ADD10B50E4904460E48FCF7BF
:105280004DF812210D4814F0DDF9A16E0C4812F012
:10529000F1F814210B4814F0D5F9A168084812F070
:1052A000E9F8074812F096F8012010BD0020704779
:1052B00001207047785602004C2E00208C560200C8
:1052C0001871FF1FA0560200836E0133836670477A
:1052D000F8B5112106466B4814F0B4F96A4812F08B
:1052E00079F8307B002878D1344601252379674846
:1052F0000821002B5ED014F0A5F92946624812F06F
:10530000B9F82378FF2B3AD00621614814F09AF9B6
:1053100000230A2221785C4812F06CF8A378002B55
:1053200053D10A215B4814F08DF9574812F052F816
:10533000EFB23946584806F09DF8584B20781B6864
:1053400098473946A278544806F004FA737BAB427A
:1053500066D0534B1B68013B0C2B10D8DFE803F0E1
:105360005A0F5A0F0F0F0F07470F0F0F41004A48F0
:1053700006F0E6FA00F10F014A48FBF751FC01354F
:10538000032D04F10104B1D1717B434806F072F89A
:105390000123B3661521444814F054F93A4812F039
:1053A00019F80021414814F04DF93748BDE8F8409C
:1053B00012F010B814F046F92946334812F05AF8A2
:1053C00009213B4814F03EF9D9E70821394814F087
:1053D00039F92D4811F0FEFFAAE7374B1B689847B3
:1053E00082E705F10F012F48FDF76CFAC7E72A485D
:1053F00006F058FB00F110012A48FCF77BFA26481A
:1054000005F0F0FE01462748FCF79EF82548FBF71B
:10541000A3FEB4E7217823481031FBF701FCAEE787
:105420003369FE2B12DDF37BFF2B92D01A4806F076
:1054300097FAF27B904204D31146174806F0E2FD3A
:1054400087E71E491748FBF7FBFF82E71C49194015
:1054500000290DDBC9B2104805F0F8FE3369184980
:105460001940002909DBC9B20E48FCF725FADAE732
:10547000013961F00F010131ECE7013961F00F01F1
:105480000131F0E7B85602001871FF1FA86402004E
:10549000CC560200E056020088300020B87CFF1F86
:1054A000BC6FFF1F4C2E002008570200A4470200CB
:1054B000FC560200D4560200B47CFF1FEC560200DA
:1054C0000F00008010B528210446074814F0BAF8F0
:1054D000204619F055FE0146204614F0B3F8034863
:1054E000BDE8104011F076BF785802001871FF1F18
:1054F00010B50023036043608360C36004461D2130
:10550000034814F09FF8034811F064FF204610BDD3
:10551000A45802001871FF1F38B505461C21104819
:1055200014F090F82C6864B1A36A2B6020462C21FB
:1055300012F040FD2C680B48042114F083F8002C75
:10554000F2D100232B606B60AB60EB600421064856
:1055500014F078F8054811F03DFF284638BD00BF2B
:10556000C4580200084C0200004C02001871FF1FD2
:1055700084B02DE9F843064609AC2C2084E80E00DF
:105580009DF84490DDF8488012F010FD2C22002197
:10559000074619F0FFF80FCC3D460FC594E80F0001
:1055A000B46885E80F0087F82490C7F8208004B11C
:1055B000A7627368B760002B39D03368002B3AD0EC
:1055C0001821214814F03EF8204811F003FF08216B
:1055D0001F4814F037F800230A2231681B4811F0E5
:1055E00009FF1A4811F0F6FE08211A4814F02AF8AB
:1055F00000230A227168154811F0FCFE134811F0CF
:10560000E9FE0821144814F01DF800230A22B168AD
:105610000E4811F0EFFE0D4811F0DCFE736813B177
:105620009A6A934209D0BDE8F84304B070473368E2
:105630007760002BC4D13760C2E7BDE8F843074864
:1056400004B0FFF73FBF00BFFC5802001871FF1FF6
:105650003C4E020018590200484E0200B4500200AD
:1056600070B54C6800230646037044B10FCC354634
:105670000FC594E80F0085E80F00304670BD034960
:105680000348FBF74BFE304670BD00BF24590200B3
:105690004C2E0020436810B51BB193F824402046DF
:1056A00010BD03490348FBF739FE204610BD00BF7B
:1056B000E84D02004C2E00204068003018BF012049
:1056C000704700BF436810B513B11C6A204610BD77
:1056D00002490348FBF722FE204610BD585902003C
:1056E0004C2E002038B5194C05461821184813F0E7
:1056F000A9FF204611F06EFE0821164813F0A2FF04
:1057000000230A222968204611F074FE204611F079
:1057100061FE0821104813F095FF00230A226968F2
:10572000204611F067FE204611F054FE08210B4878
:1057300013F088FF0023A9680A22204611F05AFEC0
:10574000204611F047FE2B686B6038BD1871FF1FB3
:10575000805902003C4E020018590200484E0200D7
:10576000436833B19A6A934210B5044602D062602E
:1057700010BD70470348FFF7A5FE6368002BF7D004
:105780009A6AF4E7304F0200436999420AD083686D
:10579000C268994203DB91420B46A8BF134643619E
:1057A0000120704700207047002070478160012071
:1057B000704700BF00207047C1600120704700BFE4
:1057C0000020704701610120704700BF0020704732
:1057D0004068704790ED050AB8EEC00A704700BFF8
:1057E00090ED040AB8EEC00A704700BF90ED020ABF
:1057F000B8EEC00A704700BF90ED030AB8EEC00AC9
:10580000704700BF007E704700207047D0ED057ADA
:10581000B4EE670AF1EE10FA19D0D0ED027A90EDED
:10582000037AB4EEE70AF1EE10FA03D5C0ED057A7B
:1058300001207047B4EEC70AF1EE10FAD4BFF0EEC3
:10584000407AF0EE477AC0ED057A012070470020DB
:10585000704700BF80ED020A0120704700207047AA
:1058600080ED030A012070470020704780ED040A94
:1058700001207047002070474068704790ED050A8E
:10588000704700BF90ED040A704700BF90ED020A18
:10589000704700BF90ED030A704700BF007E70475D
:1058A00010B5FE23044640F8043B0DF065FD04F1FD
:1058B00024000DF061FD204610BD00BF10B5044668
:1058C00017210D4813F0BEFE21780C480DF020FE84
:1058D00040B114210A4813F0B5FE0A48BDE8104053
:1058E00011F078BD1621084813F0ACFE0548BDE85C
:1058F000104011F06FBD00BF705A02001C910020D3
:10590000A05A02001871FF1F885A0200F0B508461D
:1059100083B0B4491AF0C2FC002800F08580044628
:10592000B14900201AF0BAFC00287DD0AE49002011
:105930001AF0B4FC0546002876D0AC49204619F090
:1059400043FA0646002800F09C800021204619F00A
:105950003BFA00286AD1A649204619F035FA0028FA
:1059600064D0A449204619F02FFA002800F0BA802C
:10597000A149204619F028FA002800F0BB809F4971
:10598000204619F021FA002800F0C7809C492046E3
:1059900019F01AFA002800F0C8809A49204619F038
:1059A00013FA002800F0C7809749204619F00CFA36
:1059B000002800F0CB809549204619F005FA002810
:1059C00000F0D4809249204619F0FEF9002800F03A
:1059D00099809049204619F0F7F9002800F0D1800D
:1059E0008D49204619F0F0F9002800F0D7808B4946
:1059F000204619F0E9F9002800F0DD8088492046AA
:105A000019F0E2F9002800F0E1802046854919F0FC
:105A1000DBF948B9844B28461C6818F0F9FA21468E
:105A2000C2B2824806F08AFB03B0F0BD082180486C
:105A300013F008FE284619F0A3FB0146284613F090
:105A400001FE7C4811F0C6FC284618F0E1FA014638
:105A5000764805F05DFC0721774813F0F3FD01203F
:105A600018F024FB044618F029FB01A9091B0023A8
:105A70000A22704811F0BEFC6E4811F0ABFC03B076
:105A8000F0BD06216D4813F0DDFD284619F078FBC6
:105A90000146284613F0D6FD664811F09BFC2846C7
:105AA00018F0B6FAC1B2614805F0E4FC072162487B
:105AB00013F0C8FD012018F0F9FA074618F0FEFAB5
:105AC00001A9C91B33460A225A4811F093FC5948D0
:105AD00011F080FC0021204619F076F900283FF4EF
