:1000000000000320D1010000698701002187010061
:10001000218701002187010021870100218701003C
:1000200021870100218701002187010069870100E4
:10003000698701002187010071A2010075A30100F9
:1000400069870100698701006987010069870100EC
:1000500069870100698701006987010069870100DC
:1000600069870100698701006987010069870100CC
:1000700069870100698701006987010069870100BC
:1000800069870100698701006987010069870100AC
:10009000698701006987010069870100698701009C
:1000A000693001007530010069870100698701002E
:1000B000698701006987010069870100BDA301000C
:1000C00069870100E9A401006987010015A6010004
:1000D000698701000DA70100698701006987010098
:1000E000698701006987010069870100698701004C
:1000F000698701006987010069870100698701003C
:10010000698701006987010069870100698701002B
:100110006987010071910100698701006987010009
:10012000698701006987010069870100698701000B
:1001300069870100698701006987010069870100FB
:10014000557A01006987010005A80100698701004F
:1001500069870100698701006987010069870100DB
:10016000698701006987010081300100698701000A
:1001700069870100698701006987010069870100BB
:1001800069870100698701006987010069870100AB
:100190006987010069870100FDA8010069870100E6
:1001A000698701006987010069870100698701008B
:1001B000698701006987010069870100698701007B
:1001C000698701006987010069870100698701006B
:1001D0005C4B4CF2205210B51A804DF628121A8052
:1001E00000BF00BF18F0C4FA574B4FF030621A60DE
:1001F000564A9A60564ADA60564B4FF470021A60BB
:10020000554B564A1A60564B1A78110703D51A787F
:1002100042F008021A70534B5349AA221A70534AEB
:10022000534B8B4204D252F8040F43F8040BF8E707
:10023000504B514900228B4202D243F8042BFAE77B
:100240004E494F4A002352F8230041F8230001335E
:10025000742BF8D14B4B4C4A802103F8011B93427D
:10026000FBD14A4B454A1A60494B8A221A70A3F5C2
:10027000805324225A70A0221A709A799207FCD5D2
:100280009A79D406FCD4434A937903F00C03082BE3
:10029000FAD1414B60221A7002331A78802AFCD1BD
:1002A0003C4B01221A715D225A719A799006FCD555
:1002B0009979384A4906FBD5384B394919600021EC
:1002C000596020231370937903F00C030C2BFAD19F
:1002D000344B354A1A60354A354C136813F4807331
:1002E00003D123604FF4A8531360324B324A1A6093
:1002F00000225A60072243F8042C304AC3F80C2D20
:1003000062B618F0A5FD2368DA0705D52C4818F069
:10031000D7FC2C4B2C4A1A602C4B1B785B0609D55A
:10032000284C294B22689A4204D1254818F0C8FC71
:10033000002323601EF0CEFA18F020FA18F04EF9D0
:10034000FEE700BF0E20054030800440823F0400DD
:100350000100002B88ED00E0002008E0030000858C
:1003600002D0074000E00740C07BFF1F109E020044
:10037000306FFF1FC07BFF1F34990020006AFF1FF2
:100380000000000000E400E064E400E008ED00E0AC
:10039000005006400040064001E007404480044011
:1003A0000000060204800440C010070010D0034083
:1003B00014D0034014E000E01FBF02000000202022
:1003C000ECA3AC5E1CE00340A5C3945A00F00740C8
:1003D000FFFFFFFFFFFFFFFFFFFFFFFFFFFFFFFF2D
:1003E000FFFFFFFFFFFFFFFFFFFFFFFFFFFFFFFF1D
:1003F000FFFFFFFFFFFFFFFFFFFFFFFFFFFFFFFF0D
:10040000FFFFFFFFFFFFFFFFFFFFFFFFDEF9FFFF23
:1004100010B5054C237833B9044B13B10448AFF33E
:1004200000800123237010BDC07BFF1F000000006F
:100430000C9E0200084B10B51BB108490848AFF3E9
:1004400000800848036803B910BD074B002BFBD0A0
:10045000BDE81040184700BF00000000C47BFF1F2C
:100460000C9E0200C07BFF1F0000000010B524227C
:10047000044600211EF0CEFD002384F8243084F8C9
:100480002530204610BD00BFF8B5074690F824007F
:100490000D461646E0B13A46002404E00134844299
:1004A00002F1030212D01178A942F7D19178994252
:1004B000F4D104EB44043C446670A370062D5ED86E
:1004C000DFE805F031161D242B1031000A2C2BDC3F
:1004D00000EB40017A18013087F824007D545670F3
:1004E0009370EBE72E492F48BDE8F84001F00CB9B6
:1004F00032462D492B48BDE8F84001F09FBF3246F7
:100500002A492848BDE8F84001F098BF32462849FA
:100510002448BDE8F84001F091BF26492148BDE8D4
:10052000F84001F0F1B8F8BD23491E4800F0B8FFCB
:100530000421224819F0C6FC2146214817F0DAFBB5
:100540001721204819F0BEFC00230A2297F8241036
:100550001B4817F08FFB10211B4819F0B3FC0C212E
:10056000174817F0C7FB0B21184819F0ABFC2946B8
:10057000134817F0BFFB124817F06CFB9EE71449B5
:10058000084800F08DFF1521124819F09BFC294600
:100590000B4817F0AFFB0A48BDE8F84017F05ABB0C
:1005A000A44E0200C82E0020644E0200744E0200C9
:1005B000804E0200904E0200104E0200244E0200B7
:1005C0001871FF1F2C4E0200444E0200584E0200CC
:1005D000B44E0200C84E020038B590F825300B2BFF
:1005E000044627D91F49204800F05AFF17211F4809
:1005F00019F068FC00230A2294F825101C4817F013
:1006000039FB17211B4819F05DFC00230A2294F8DE
:100610002410174817F02EFB1021174819F052FC30
:100620000C21134817F066FB0025114817F012FB48
:10063000284638BD03EB430317210C48E55C19F04D
:1006400041FC00230A2294F82510094817F012FBF8
:100650000B210A4819F036FC2946054817F04AFBD9
:10066000284638BDF84E0200C82E0020E04E020099
:100670001871FF1F2C4E0200444E0200584E02001B
:1006800090F825300B2B04D803EB43031844407833
:10069000704710B513490446134800F001FF1721B5
:1006A000124819F00FFC00230A2294F82510104874
:1006B00017F0E0FA17210F4819F004FC00230A2272
:1006C00094F824100A4817F0D5FA10210A4819F0B6
:1006D000F9FB0C21064817F00DFB054817F0BAFA94
:1006E000002010BD0C4F0200C82E0020E04E02007A
:1006F0001871FF1F2C4E0200444E020090F8253066
:100700000B2B04D803EB430318448078704710B5D3
:1007100013490446134800F0C3FE1721124819F08C
:10072000D1FB00230A2294F82510104817F0A2FAF2
:1007300017210F4819F0C6FB00230A2294F8241051
:100740000A4817F097FA10210A4819F0BBFB0C2150
:10075000064817F0CFFA054817F07CFA002010BDC4
:10076000204F0200C82E0020E04E02001871FF1F2B
:100770002C4E0200444E020090F825300133DBB2CB
:100780000B2B80F825308CBF00200120704700BF64
:10079000002380F8253070470022134680F824207B
:1007A00080F82520C2540333242BFBD1704700BFAF
:1007B000FFF7F2BF70B5044615460E460846022103
:1007C00018F0A4FA2846022118F0A0FA104A114B9A
:1007D00052F83610012001F500762072266052F89A
:1007E0003520607202F5007500206560E060013B15
:1007F000FDD191F8003292F8002203F00103D207F4
:1008000044BF43F00203DBB2A372204670BD00BFB9
:10081000D8920200C0D4010090F814322DE9F047BC
:100820000746002B7CD1DFF80C82794AD8F800000B
:10083000D468784D784E92F809E092E80A0091F871
:10084000009093F800C0117A714B1CEA0E0F09EA70
:1008500001015DD09B7A03F0030309B143F0040367
:1008600043F008039910013B91720D2B0AD8DFE881
:1008700003F075077207096F75756F0907720775C1
:10088000013CD460A04219D0DFF89891DFF890A124
:10089000D9F80030002C2246B8BFE21C92109A42D0
:1008A000CAF8002008D04FF47A715C480EF0EEFAD6
:1008B000DAF80030C9F80030C8F800402B686968E1
:1008C0001A78687A0C782B7A5249044202EA0302B9
:1008D00016D08B7A03F003030AB143F0040343F00C
:1008E00008039A10013BAA720D2B00F28180DFE809
:1008F00003F07B7766777F387B7B387F7766777B03
:100900008B7A03F00303002AEBD043F00403E8E7FB
:100910009B7A03F003030029A4D043F00403A1E76A
:100920003F4E404C40484149394ADFF80881394D33
:1009300000233360384E2360036087F814321C466E
:100940000B601846D360C8F80030EB60336072E784
:10095000023CD46096E70234D46093E70134D4605B
:1009600090E7EC68023CEC6007F5AE7016F0D4FE40
:100970002F4B00282DD11A68042A3BDC3268A41AB8
:1009800004EB840402EB44049442EC6026D01A6821
:10099000264D254F0132002C1A6022462B68B8BF25
:1009A000E21C92109A423A6006D040F2E9311B48AC
:1009B0000EF06CFA3B682B603460BDE8F087EC68A1
:1009C0000234EC6007F5AE7016F0A6FE184B002856
:1009D000D1D03268002194421960D8D1BDE8F087A7
:1009E000EC68013CEC60BFE7EC680134EC60BBE70D
:1009F000EC68B9E7092A326805DCA41A04EB840420
:100A000002EB8404C0E76421A41A01FB0424BBE7C1
:100A1000107CFF1F207CFF1F847CFF1FAC67002021
:100A2000547CFF1F5C7CFF1F587CFF1F607CFF1FF6
:100A3000DC7BFF1F7C7CFF1FF8B590F81432002B85
:100A400047D12F4D2F4A2868D468577A92E848003A
:100A5000197896F800E0137A2A4E1EEA070F01EA89
:100A600003012ED0B37A03F0030309B143F004036A
:100A700043F008039910013B91720D2B0AD8DFE86F
:100A800003F03C07390709363C3C36090739073C77
:100A9000013CD460A04213D01B4E1C4F3368002C85
:100AA0002246B8BFE21C92109A423A6006D04FF438
:100AB0007A71174804F00CFF3B6833602C60F8BD76
:100AC000F8BDB37A03F003030029D3D043F0040345
:100AD000D0E70E4E0C490B4A094D002380F8143222
:100AE0001C4633600B601846D3602B60ADE7023CB8
:100AF000D460CFE70234D460CCE70134D460C9E7D6
:100B00008C7CFF1F107CFF1FB47CFF1FB07CFF1F7D
:100B1000A82D00202DE9F84F002383461D460E46E0
:100B200080F87431994600F5D67A00F180081024D7
:100B3000012706E08BF8747101350134102DE4B201
:100B400016D05AF8043F002BF6D0B342F2D8DBF8A7
:100B50001032CAF800905B5D2146404653B901351A
:100B600012F054FE0134102D8BF87571E4B2E8D107
:100B7000BDE8F88F12F00AFE0028DDD1214640467C
:100B800012F026FE8BF87571D6E700BF38B5144C0D
:100B90000C40002C1FDB031993F8A0516DB9012202
:100BA00083F8A021C9B2803012F012FE2A462146F5
:100BB0000C48BDE838400BF01BBD002283F8A02193
:100BC000C9B2803012F022FE214601220548BDE85C
:100BD00038400BF00DBD013C64F00F040134DAE73E
:100BE0000F0000800431002038B5144C0C40002C5C
:100BF0001FDB031993F8A0216AB90125C9B280301F
:100C000083F8A05112F0E4FD2A4621460C48BDE8C5
:100C100038400BF001BD0025C9B2803083F8A051E7
:100C200012F0F4FD2A4621460548BDE838400BF095
:100C3000F3BC013C64F00F040134DAE70F000080DC
:100C40000431002038B5144C0C40002C1FDB031974
:100C500093F8A0216AB90125C9B2803083F8A05168
:100C600012F0B6FD2A4621460C48BDE838400BF08C
:100C700073BE0025C9B2803083F8A05112F0C6FDC2
:100C80002A4621460548BDE838400BF065BE013CC8
:100C900064F00F040134DAE70F0000800431002013
:100CA000154B0B40002B10B504461FDB234493F873
:100CB00080216AB9012283F88021C9B204F1800041
:100CC00012F086FD012384F8153284F8143210BD29
:100CD000002283F88021C9B204F1800012F096FD51
:100CE000012384F8153284F8143210BD013B63F0FF
:100CF0000F030133DAE700BF0F0000802DE9F8434E
:100D000080460F4600F1800600F29F1510244FF038
:100D1000000903E00134E4B2202C0DD015F8013FA6
:100D2000002BF7D0214601343046E4B212F06EFDBC
:100D3000202C85F80090F1D1094B3B40002B09DBBA
:100D400043440122F9B2304683F8A021BDE8F843BC
:100D500012F03EBD013B63F00F030133F0E700BF2B
:100D60000F000080F8B507464D1E00F180061024E4
:100D700005E00134E4B212F02BFD202C0DD015F863
:100D8000013F21463046002BF3D121460134304645
:100D9000E4B212F03BFD202CF1D1012387F875312C
:100DA000F8BD00BF38B500F5D0750446C0F8105244
:100DB00000F29F13002200F2AF1003F8012F8342CC
:100DC000FBD106480BF0FCF92318012229462046E6
:100DD00083F89F21BDE83840FFF7C4BF04310020ED
:100DE00038B505460C480BF09DFA05F5D071C5F8ED
:100DF000101205F29F1305F2AF14002203F8012F21
:100E0000A342FBD12B180122284683F8A021BDE87C
:100E10003840FFF7A7BF00BF0431002038B50546B2
:100E20000C480CF08DF805F5D071C5F8101205F2DC
:100E30009F1305F2AF14002203F8012FA342FBD148
:100E40002B180122284683F8A021BDE83840FFF77F
:100E500089BF00BFAC67002038B500F5D0750446E7
:100E6000C0F8105200F29F1300F2AF11002203F8F5
:100E7000012F8B42FBD12946044810220BF034F895
:100E800029462046BDE83840FFF76CBF04310020FA
:100E9000B64B1B6870B5013B00F5AA7504462846A1
:100EA0000C2B00F28480DFE803F04B4B6C4B4B8241
:100EB0004B4B4B25824B070016F0F6FB002840F009
:100EC000038104F5AE75284616F0EEFB002840F0CD
:100ED0009E8004F5B275284616F0E6FB002840F027
:100EE000518104F5B674204616F0DEFB002840F070
:100EF000D38070BD16F0D8FB002840F0D48004F5F4
:100F0000AE75284616F0D0FB002840F0068104F5A7
:100F1000B275284616F0C8FB002840F0AB8004F5F7
:100F2000B674204616F0C0FB0028E2D0204616F02A
:100F300001FC002800F040818D4B0022DA6070BD7A
:100F400016F0B2FB002840F0DE8004F5AE752846AE
:100F500016F0AAFB002840F0F68004F5B27528468A
:100F600016F0A2FB002864D104F5B674204616F0F2
:100F70009BFB0028BDD0204616F0DCFB0028DBD10F
:100F800070BD16F091FB0028B3D0284616F0D2FBB6
:100F9000002800F01281774A636A0021D160002B9B
:100FA00000F00C814FF47A70BDE87040184716F0DD
:100FB0007BFB00284ED104F5AE75284616F074FB75
:100FC000002840F0AE8004F5B275284616F06CFBA0
:100FD00060B904F5B674204616F066FB002888D088
:100FE000204616F0A7FB0028A6D170BD284616F0B3
:100FF000A1FB0028EDD0604B002204F5B674DA6046
:10100000204616F051FB00283FF473AFE8E728466E
:1010100016F090FB00283FF45CAF584B002204F51B
:10102000B275DA60284616F03FFB00283FF459AF4E
:10103000A8E0284616F07EFB002895D04E4B0022F3
:1010400004F5B674DA60204616F02EFB00283FF453
:1010500050AF90E7284616F06DFB0028ABD0454B0B
:10106000002204F5AE75DA60284616F01DFB002854
:10107000A9D056E0284616F05DFB00283FF44FAF9C
:101080003D4B002204F5B674DA60204616F00CFBE6
:1010900000283FF42EAF49E7204616F04BFB00280E
:1010A0007FF44AAF70BD284616F044FB00283FF499
:1010B00026AF304A636A0021D160002B3FF41FAF96
:1010C0004FF47A7098471AE7284616F033FB002849
:1010D0003FF4F7AE2A480AF0DBFF421E54FA82F2D0
:1010E00092F8A03183F0010382F8A031002B5BD18C
:1010F00000F10F01C9B204F1800012F087FB012357
:1011000084F87531DDE6284616F014FB00283FF41C
:101110001CAF1B480AF0BCFF17E7284616F00AFB75
:10112000F5E6284616F006FB00283FF44CAF134BBB
:10113000002204F5B275DA60284616F0B5FA0028E8
:101140003FF447AF52E7284616F0F4FA00283FF480
:1011500004AF0A4B002204F5B275DA60284616F097
:10116000A3FA00283FF400AF63E700BFBC6FFF1F86
:10117000407CFF1F107CFF1F307CFF1F207CFF1F67
:1011800004310020284616F0D5FA00283FF4A9AE15
:101190000B4B002204F5B674DA60204616F084FA90
:1011A00000283FF4A6AE77E700F10F01C9B204F1C1
:1011B000800012F00DFBA2E770BD70BD70BD00BFD6
:1011C000307CFF1FA1F57A71032906D8DFE801F012
:1011D0000E0A0602074B0022DA607047064B002217
:1011E000DA607047054B0022DA607047044B00223A
:1011F000DA607047407CFF1F307CFF1F207CFF1FA0
:10120000107CFF1F70B500F586750446284616F061
:101210004BFA00B970BD284616F08CFA0028F9D0B8
:10122000A36ABDE87040184708B590F8A40017F00D
:1012300057F9084A1368C0F58040A3F16401884259
:1012400002DB6433984201DD106008BD4FF0FF30CF
:1012500008BD00BF6C7CFF1F08B590F8A80017F010
:101260003FF9074A1368A3F16401884202DB643343
:10127000984201DD106008BD4FF0FF3008BD00BF8F
:10128000647CFF1F30B500F58A7483B005462046A4
:1012900016F00AFA30B9204616F042FA80B900205A
:1012A00003B030BD204616F045FA0028F3D00A4BB3
:1012B0001B680193019BC5F8B030012003B030BD1D
:1012C00095F824320020042BC5F8B000E7D185F84A
:1012D0002402A5F82602E3E7CC940020054B82B057
:1012E0001B680193019B03F5FA63C0F8283202B032
:1012F000704700BFCC940020054B82B01B6801935F
:10130000019B03F5FA63C0F82C3202B0704700BFAE
:10131000CC940020F0B5B1B007462849284E684665
:10132000144616F083FE274904A816F07FFE2649CE
:1013300008A816F07BFE25490CA816F077FE244974
:1013400010A816F073FE234914A816F06FFE224968
:1013500018A816F06BFE21491CA816F067FE20495C
:1013600020A816F063FE1F4924A816F05FFE1E4950
:1013700028A816F05BFE1D492CA816F057FE86FB28
:101380000426E317C3EB660606EB4601A4EB8101D6
:10139000C9B20DEB0111384616F05CFEF1B23846C9
:1013A00016F0ECFE6D4630AC103C204616F0FEFD0B
:1013B000AC42F9D1384631B0F0BD00BF644F0200F5
:1013C000ABAAAA2A684F0200B45002006C4F020078
:1013D000C44E020034520200704F02005853020003
:1013E000744F0200784F02007C4F0200804F0200D1
:1013F000F0B5144DDFF854E00E4617460FCD8FB010
:1014000002AC0FC40FCD0FC495E80F008EFB065E33
:10141000F517C5EB6E0584E80F0005EB450EA6EB4E
:101420008E060EABF6B203EB8606EDB256F8303CF4
:10143000054A0095384604211EF048F838460FB09A
:10144000F0BD00BF344F0200844F0200ABAAAA2AAD
:1014500010B5012200210D48FFF7ACF9032202214B
:101460000B48FFF7A7F9052204210A48FFF7A2F964
:10147000082206210848FFF79DF921232322222173
:101480000648BDE8104011F003BE00BF107CFF1FEE
:10149000207CFF1F307CFF1F407CFF1F907CFF1FC4
:1014A00010B586B00B460A4C0A4A684615211EF054
:1014B0000DF800221146204611F016FF68461EF076
:1014C0009FFA69460246204616F088FB06B010BD1A
:1014D000907CFF1F8C4F020070B5324D044632489D
:1014E0000AF07EFE2B68052B064645D0072B2AD036
:1014F000042B10D020462D49FFF7D2FF06212C489F
:1015000018F0E0FC29682B4816F0F4FB2948BDE8E8
:10151000704016F09FBB68B104F29F140025294665
:1015200021480AF0A5FE013580F00100B54204F81B
:10153000010FF4D10921204818F0C4FC1D48BDE872
:10154000704016F087BB70B104F29F140025294645
:1015500015480AF0B1FE0135003018BF0120B54230
:1015600004F8010FF3D10B21144818F0ABFC11481B
:10157000BDE8704016F06EBB58B104F29F14002510
:10158000294609480AF086FE0135B54204F8010FE4
:10159000F6D109210A4818F095FC0648BDE87040CC
:1015A00016F058BBBC6FFF1F04310020C44F02006F
:1015B000F44F02001871FF1FB84F0200A04F020045
:1015C000AC4F020010B588B00B4600920A4C0B4A93
:1015D00002A815211DF07AFF00221146204611F0C5
:1015E00083FE02A81EF00CFA02A90246204616F05D
:1015F000F5FA08B010BD00BF907CFF1FFC4F020041
:1016000030B5D0F818120C4C0C4A87B005460131A1
:1016100068461DF05BFF0021C5F828122046022213
:1016200011F062FE68461EF0EBF96946024620465C
:1016300016F0D4FA07B030BD907CFF1F10500200A6
:1016400030B5D0F81C120C4C0C4A87B0054601315D
:1016500068461DF03BFF0021C5F82C1220460122F0
:1016600011F042FE68461EF0CBF96946024620465C
:1016700016F0B4FA07B030BD907CFF1F1050020086
:1016800010B5D0F8283282B004462BB10E4A126849
:101690000092009A934210D3D4F82C325BB10A4ADC
:1016A00012680192019A934205D22046FFF7C8FFC3
:1016B0000023C4F82C3202B010BDFFF7A1FF0023B5
:1016C000C4F82832E8E700BFCC94002070B50D4D77
:1016D0000C460646FFF794FF02220021284611F02F
:1016E00003FE20461EF08CF921460246284616F0DD
:1016F00075FA20461EF084F9142828BF1420C6F875
:10170000180270BD907CFF1F70B5114D0C46064647
:10171000FFF776FF28460222002111F0E5FD204662
:101720001EF06EF921460246284616F057FA20466A
:101730001EF066F9C6F8180220461EF061F901464F
:10174000204618F0BFFB0348BDE8704016F082BA8F
:10175000907CFF1F1871FF1F10B586B00B460D4A15
:101760000D4C152168461DF0B1FE68461EF048F983
:10177000C0F11001C9B22046002211F0B5FD684643
:101780001EF03EF969460246204616F027FA06B0DA
:1017900010BD00BF28500200907CFF1F70B50E4C9A
:1017A00005460E4620460122002111F09DFD132220
:1017B0000A49204616F012FA20460222002111F0B2
:1017C00093FD3146204616F01FFA1323C5F8183250
:1017D000C5F81C3270BD00BF907CFF1F2C5002006A
:1017E0002DE9F04F2DED028B91B000F5C071039003
:1017F0007C480AF025FB002840F09180039B029072
:10180000FF2706468046814601900446BB463D467A
:10181000009703F27F1AB7EE008A02E00134102C21
:101820004FD01AF8012F002AF8D0224608A86D4997
:101830000AF008F99DF824200098824208D0019906
:101840000131CBB290420193034628BF1346009367
:10185000DDED0D7AF4EE487AF1EE10FA03D0029A3B
:101860000132D3B20293F4EEC87AF1EE10FA2146B7
:101870005C48D8BFB0EE678A0AF0D6FCA84207D011
:10188000854209F1010928BF05465FFA89F9EDB2E1
:101890009DF839205A4506D008F1010893455FFAB2
:1018A00088F828BF93469DF83820BA42B6D09742B0
:1018B00004F1010406F1010628BF1746102CF6B208
:1018C000AFD101220021484811F00EFD12224749F4
:1018D000454816F083F9294604A816F0D9FBB9F15A
:1018E000010F25D9424920E0424904A816F038FCEE
:1018F000069B112BF8D9022200213B4811F0F4FC81
:1019000004A9394816F080F9039C102312220DEB2C
:101910000300C4F81822C4F81C3216F047FB11B0BB
:10192000BDEC028BBDE8F08F324904A816F018FC1C
:10193000069B022BF8D9594608A816F0A9FB08A95E
:1019400004A816F009FC08A816F030FBB8F1010F46
:1019500005D9274900E0274904A816F001FC069B99
:10196000052BF8D9394608A816F092FB08A904A857
:1019700016F0F2FB08A816F019FB012E05D91C4938
:1019800000E01C4904A816F0EBFB069B082BF8D9D5
:10199000009A039908A8FFF7BDFC08A904A816F04F
:1019A000DBFB08A816F002FB019B012B05D91049AF
:1019B00000E0104904A816F0D3FB069B0C2BF8D9C5
:1019C000B0EE480A022108A816F076FB08A904A880
:1019D00016F0C2FB08A816F0E9FA029B012B87D982
:1019E000034982E704310020907CFF1F545002001D
:1019F00068500200AC50020010B502220C460B48A1
:101A0000122111F071FC0A490848022216F0E6F88A
:101A1000082CD4BF132112210448022211F064FCC7
:101A200021460248BDE8104016F064B9907CFF1FC3
:101A30009C4F020038B504460E480AF021F804F520
:101A4000D0710546C4F8101204F29F1304F2AF10CF
:101A5000002203F8012F8342FBD1631901222046A3
:101A600083F8A021FFF77EF929462046BDE83840DB
:101A7000FFF7C2BF0431002010B503220C460B480B
:101A8000122111F031FC0A490848022216F0A6F88A
:101A9000082C94BF132112210448032211F024FCC6
:101AA000611C0248BDE8104016F024B9907CFF1F6D
:101AB0009C4F020030B5204B1B7883B004460D4686
:101AC0001BB91E4B1B68092B12D01D48A46B09F0D3
:101AD000E5FF1C4929400029024604DBC9B2022067
:101AE000A04703B030BD013961F00F010131F5E7C6
:101AF000FFF704F913492940002918DBCDB2294624
:101B00000F4809F0E3FF0E4809F0ACFF01462046FC
:101B1000FFF7FAFD0C4B1B680193019B03F5FA6379
:101B20002946C4F828322046FFF7A6FFD9E7013935
:101B300061F00F010131E1E7FD660020BC6FFF1F7E
:101B4000043100200F000080CC94002010B5022248
:101B50000C460D480F2111F0C7FB0C490A48022220
:101B600016F03CF8092C4FF0020294BF10210F210F
:101B7000054811F0B9FB214600230A220248BDE8BE
:101B8000104016F077B800BF907CFF1F9C4F0200FA
:101B900038B504460E4809F081FF04F5D0710546BA
:101BA000C4F8101204F29F1304F2AF10002203F8DD
:101BB000012F8342FBD163190122204683F89F2124
:101BC000FFF7D0F829462046BDE83840FFF7BEBFF2
:101BD0000431002038B5594D2B68013B04460C2BCD
:101BE00000F2A180DFE803F05F6B6D07071A07269C
:101BF000313C4A948900002300F5D075026A4362A3
:101C0000012380F83132C0F810528262FFF764FC81
:101C100029462046BDE83840FFF7A4B8036A83622E
:101C2000002200F5C0714262C0F81012BDE83840D1
:101C3000FFF798B88368026A4362012380F8313263
:101C40008262BDE83840FFF7ADB80023026A436204
:101C5000012380F831328262BDE83840FFF7C0B816
:101C6000C36A026A4362012380F831328262FFF75D
:101C7000D5F83348BDE838400BF0DEBF036A836215
:101C800000F5D07100224262C0F8101200F29F13DA
:101C900000F2AF1003F8012F8342FBD12046BDE8CC
:101CA0003840FFF75FB8C368226A63620123A2620B
:101CB00084F831322046BDE83840FFF7BBBE0369E7
:101CC000F2E7036B026A436200F5D071012382627E
:101CD00080F83132C0F8101200F29F13002200F297
:101CE000AF1003F8012F8342FBD12046FFF73AF8EB
:101CF0001448BDE8384003F077BC0023026A436211
:101D0000012380F831328262BDE83840FFF7A4B881
:101D1000436B026A4362012380F831328262BDE87C
:101D20003840FFF735BF2921074818F0CBF829685C
:101D30000648BDE8384015F0DDBF00BFBC6FFF1F8F
:101D4000AC670020A82D00206C5002001871FF1F06
:101D5000134A144B126870B553F82250124C86B0D7
:101D6000064628461DF04CFED6F820120F4AC6F84B
:101D700020028142B8BF01462B46013168461DF062
:101D8000A5FB20460122002111F0AEFA68461DF0A5
:101D900037FE69460246204615F020FF06B070BDAA
:101DA000BC6FFF1F7C6FFF1F907CFF1F98500200CD
:101DB00070B500F5927586B00446284615F074FC9F
:101DC000002840F02581284615F0AAFC002840F0A4
:101DD000E88004F59A75284615F066FC002840F066
:101DE000F380284615F09CFC002840F0A38004F501
:101DF0009675284615F058FC002840F0AE8028461D
:101E000015F08EFC002870D104F59E75284615F05B
:101E10004BFC002873D1284615F082FC00283FD1E6
:101E200004F5A275284615F03FFC002842D128464B
:101E300015F076FC70B904F5A675284615F034FC4B
:101E400090B9284615F06CFC10B10023C4F8CC30D2
:101E500006B070BD002304F5A675C4F8C830284646
:101E600015F022FC0028ECD0284615F063FC002871
:101E7000E7D02046FFF7C4FB964B092220461A60A4
:101E8000FFF7A8FE2046FFF763FF934B1B680593FF
:101E9000059BC4F8CC30012384F8143206B070BD21
:101EA000002304F5A275C4F8C430284615F0FCFBE5
:101EB0000028BCD0284615F03DFC0028B7D02046AD
:101EC000FFF79EFB834B082220461A60FFF782FE35
:101ED0002046FFF73DFF804B1B680493049BC4F82A
:101EE000C830012384F81432A5E7002304F59E7559
:101EF000C4F8BC30284615F0D7FB00288BD0284604
:101F000015F018FC002886D02046FFF779FB714BAE
:101F1000072220461A60FFF75DFE2046FFF718FFF4
:101F20006D4B1B680393039BC4F8C430012384F8F2
:101F3000143275E794F824220023032A04F59675D9
:101F400004BF84F82432A4F82632C4F8C0302846EE
:101F500015F0AAFB00283FF452AF284615F0EAFB23
:101F600000283FF44CAF2046FFF74AFB594B1A6854
:101F7000052A00F08C80042A00F09480574A1268E9
:101F80001A602046FFF726FE2046FFF7E1FE524B7F
:101F90001B680293029BC4F8BC30012384F81432FE
:101FA00032E794F824220023022A04F59A7504BF2C
:101FB00084F82432A4F82632C4F8B830284615F044
:101FC00073FB00283FF40DAF284615F0B3FB002843
:101FD0003FF407AF2046FFF713FB3E4A1368062B7A
:101FE00050D00C2B58D00D2B42D03D4B1B681360AA
:101FF0002046FFF7EFFD2046FFF7AAFE364B1B6891
:102000000193019BC4F8C030012384F81432EEE63A
:10201000284615F08FFB00283FF4D5AE2046FFF789
:10202000EFFA2C4A1368012B27D0022B3FD0032B49
:1020300014D00A2B45D02B4B1B6813602046FFF7AA
:10204000C9FD2046FFF784FE234B1B680093009BCD
:10205000C4F8B830012384F81432BAE6214D22497D
:1020600001264FF0FF300A232E6008601360E5E779
:102070001B4906230B601360BAE71A48022103606C
:102080001160DBE716480C2103601160B0E71349CB
:1020900004220A601A6074E7114906200D230860C3
:1020A0001360A5E70D4905220A601A6069E70D4D26
:1020B0000D4901264FF0FF3003232E6008601360A6
:1020C000BCE7084D084901234FF0FF302B60136037
:1020D0000860B3E7BC6FFF1FCC940020386FFF1F70
:1020E000346FFF1F3C6FFF1FB86FFF1F70B50446B2
:1020F00016480E4609F0D2FC06F00F030133984251
:1021000006D004F5D0712046BDE87040FEF72ABE27
:10211000054631462046FEF7F1FD29462046FFF7E9
:1021200015FD0A480AF0FEF801462046FFF7A4FC18
:10213000074B062220461A60FFF74CFD2046FFF7AA
:1021400007FE012384F8143270BD00BF0431002063
:10215000BC6FFF1F10B500220C461248112111F070
:10216000C3F8032210490F4815F038FD632C4FF0D7
:1021700000020CDC092CCCBF12211321094811F0FC
:10218000B3F821460748BDE8104015F0B3BD112152
:10219000044811F0A9F821460248BDE8104015F0A6
:1021A000A9BD00BF907CFF1F4C50020010B501225A
:1021B0000C461248112111F097F8032210490F48DC
:1021C00015F00CFD092C4FF001020CDD632CD4BF7F
:1021D00012211121094811F087F821460748BDE86E
:1021E000104015F087BD1321044811F07DF82146F9
:1021F0000248BDE8104015F07DBD00BF907CFF1F78
:102200004C500200F0B587B005460C9F0D9E0E9C09
:102210000F9829606A601499159AAB60EF60109B63
:10222000119F2E616C61129E139C6963AA63EB611E
:10223000A8612F62EE622C6305F1A80305F1D001BD
:10224000002243F8042F9942FBD105F27F1205F2D8
:102250008F13002102F8011F9A42FBD105F29F1152
:10226000002203F8012F9942FBD105F5D67305F53D
:10227000F671002243F8042F9942FBD105F2EF13C7
:1022800005F20F21002203F8012F9942FBD1762499
:1022900075217422732305F1800677270394029138
:1022A000019200933046722304977122702111F03D
:1022B000A5FBEB6B002BC8BF002420DD2146304678
:1022C00011F086FA304611F0F3FB0A2016F06EFD8D
:1022D0000134EB6BE4B29C42F0DB002B0FDD0024F9
:1022E0002146304611F092FA304611F0E1FB0A2007
:1022F00016F05CFD0134EB6BE4B29C42F0DB142081
:1023000016F054FD2846FFF765FC2846FFF720FD30
:102310000F480EF017FD01462846FFF71BFF0C483B
:102320000EF012FD01462846FFF740FF094809F06C
:10233000F9FF01462846FFF79FFB064809F0AEFB70
:102340000146284607B0BDE8F040FFF7FFBB00BFDD
:10235000D090002004310020F8B5144D0C461746EB
:102360000646FFF74DF902220021284610F0BCFF77
:1023700020461DF045FB21460246284615F02EFC5E
:1023800020461DF03DFB0222C1B2284610F0ACFFF2
:102390003946284615F0AEFC20461DF031FB0630CC
:1023A000142828BF1420C6F81802F8BD907CFF1F1F
:1023B000F8B51F4C1F4F154600220E462046114609
:1023C00010F092FF204611221B4915F007FC002255
:1023D0001146204610F088FF30461DF011FB3146B3
:1023E0000246204615F0FAFB20460122002110F09B
:1023F0007BFF28461DF004FB29460246204615F0C7
:10240000EDFB30461DF0FCFA0146304617F05AFD50
:10241000384615F01FFC28461DF0F2FA0146284602
:1024200017F050FD3846BDE8F84015F013BC00BF6A
:10243000907CFF1F1871FF1F9C500200B0B588B040
:1024400002AF04460B4600921521164A164D384637
:102450001DF03CF838461DF0D3FAD4F81832C4F811
:10246000180298420146B8BF194601F1080323F04B
:102470000703ADEB030D02AC3B460C4A013120468D
:102480001DF024F828460222002110F02DFF2046DE
:102490001DF0B6FA21460246284615F09FFB183774
:1024A000BD46B0BDB0500200907CFF1F98500200A6
:1024B0002DE9F04790F8313282B00546002B40F00C
:1024C0008280584E584A3068D46892F809E092E801
:1024D0008800197897F800C0137A534F1CEA0E0F42
:1024E00001EA03015AD0BB7A03F0030309B143F0B8
:1024F000040343F008039910013B91720D2B0AD895
:10250000DFE803F05E075807095B5E5E5B0907586A
:10251000075E013CD460C31EA34202DC0330A0422C
:1025200039DA424809F0BAFA3368E31A48BF03338C
:1025300000EBA307002F39DC0127DFF80081D8F872
:1025400000309F4226D05FFA87F94946374809F0A4
:10255000D1FB3A4636492846FFF770FF354B364ADD
:102560001B680193019B126803F5FA630C2AC5F8F6
:10257000283239D049462846FFF7E8FA2B4809F0B7
:10258000D1FE01462846FFF777FA2846FFF722FBDF
:10259000C8F80070346002B0BDE8F087BB7A03F081
:1025A00003030029A7D043F00403A4E7022FA8BF28
:1025B0000227C2E70234D460ADE7023CD460AAE748
:1025C0000134D460A7E7002380F831321748154E54
:1025D00009F064FA1949144A086003B29B001C46CA
:1025E00018463360D36070E7D8F80030E8192B4400
:1025F000002209F10F014FF0010A05F1800980F86E
:102600009FA1C9B283F89F21484611F0E1F8D8F89C
:1026100000100F314846C9B211F0F8F885F875A1DD
:10262000B6E700BF807CFF1F107CFF1F0431002035
:10263000B8500200CC940020BC6FFF1FF07BFF1F3E
:102640002DE9F041A84D2DED028B2B68DA0782B001
:10265000044640F1EB81A54D2B68DB0740F1D781A3
:1026600094F81432002B40F0AF81A14DA14E2B689D
:1026700069681A78687A0F782B7A9D49074202EACE
:1026800003021DD08B7A03F003030AB143F0040365
:1026900043F008039A10013BAA720D2B00F26881E7
:1026A000DFE813F0540150014C015001660116009F
:1026B000540154011600660150014C0150015401AF
:1026C0008B7A03F00303002AE4D043F00403E1E72C
:1026D000EB68023BEB6007EE903A9FED876A96ED60
:1026E000007ADFED866AF8EEE77A87EE868A77EE83
:1026F000267AB4EEE78AF1EE10FA06DA37EE667A59
:10270000B4EEC78AF1EE10FA40D87D4BDFED7D7A4A
:10271000D3ED006AB1EE007AE6EEC77AB4EEE78A4E
:10272000F1EE10FA40F13A81B9EE008A26EE888A7D
:10273000DFED717A68EE277AFDEEE77AC5ED037A70
:10274000714D724F95ED000AF5EE007A68EE277A2A
:10275000F4EE407AF1EE10FAC7ED007A40F07581A0
:102760009FED650A6A4967EE807A2046FDEEE77ABA
:1027700017EE902AFFF762FE664B86ED008A1B6813
:102780000193019B03F5FA63C4F82832624A136887
:10279000506819780578507A137A054201EA0301E6
:1027A00000F0F380937A03F0030309B143F00403CC
:1027B00043F008039910013B91720D2B00F2D68073
:1027C000DFE813F0D000C800CC00C800D4000E0031
:1027D000D000D0000E00D400C800CC00C800D0004B
:1027E000D568023DD5604D4E3368DA1EAA4202DC40
:1027F000DA1CAA421DDA4A4FDFF83C81EA1A3B682C
:10280000D8F8001048BF033203EBA203082BA8BF7F
:10281000082323EAE37399423B6006D019464148F6
:102820000EF08AFA3968C8F800102046FFF7BEFC9F
:1028300035603D4A1368506819780578507A137AE4
:10284000054201EA030100F09780937A03F0030345
:1028500009B143F0040343F008039910013B91725E
:102860000D2B00F28780DFE803F03B373337850715
:102870003B3B07853733373BD568023DD5602B4E50
:102880003068C31EAB4202DCC31CAB421BDA284AD1
:10289000281A136848BF033003EBA000002840F358
:1028A000E280B0F5967FA8BF4FF49670214F10607C
:1028B0003B68DFF87C80984204D063699847D8F879
:1028C00000303B60356002B0BDEC028BBDE8F081AA
:1028D000D5680235D560D2E7D568013DD560CEE731
:1028E000D5680135D560CAE70C7CFF1F047CFF1F4B
:1028F000207CFF1F687CFF1F0000C8420AD7233DD1
:10290000707CFF1F00000000AC7CFF1FE47BFF1FFA
:10291000C0500200CC940020307CFF1FBC7CFF1F05
:10292000007CFF1FD0900020407CFF1F087CFF1F11
:10293000787CFF1FE87BFF1FFC7BFF1FEB680233E7
:10294000EB60C8E6EB68013BEB60C4E6EB68013383
:10295000EB60C0E6D568013DD56044E7D568023537
:10296000D56040E7D5680135D5603CE7D5683AE7E2
:10297000EB68B0E6D56882E7937A03F00303002999
:102980003FF46BAF43F0040367E7937A03F003036C
:1029900000293FF40FAF43F004030BE7334BD3EDB3
:1029A000007A27EE877AB4EEC78AF1EE10FA7FF745
:1029B000C7AEDFED2F7A67EE277AB0EE478AFDEEDD
:1029C000E77AC5ED037ABBE62A482B4DDFF8C4E071
:1029D0002A4E0023002204F5C077036084F81422F5
:1029E000EA6039462648CEF80030336009F00AFD27
:1029F000244B234883ED000A394609F041FDF7EEE8
:102A0000007A37EEC00A194B83ED000A2FE62846FC
:102A100015F0CEFE00283FF423AE1B480EF094F9CB
:102A20001A4B1860284615F0C9FE19E6284615F01D
:102A3000BFFE00283FF40FAE13480EF081F9144B8F
:102A40001860284615F0BAFE05E637EEC00A94F87D
:102A500030220B4804F5C07109F096FED7ED007ADC
:102A6000C5ED007A7CE6012020E700BF747CFF1FE3
:102A70000000C842E47BFF1F207CFF1F687CFF1F13
:102A800004310020707CFF1FD0900020007CFF1FCD
:102A9000787CFF1FAC7CFF1F384B1B680D2B00D0D0
:102AA00070472DE9F041364BCFB20B4007F00F06CF
:102AB000002B82B006F1010639DBC418054694F8F4
:102AC000A0317BB12F4B93F80080B8F1000F33D1C8
:102AD000424631462C4809F07DFA002838D102B030
:102AE000BDE8F081274B1B78DBB90122314626482F
:102AF00009F070FA30B3012384F8A031394605F1AA
:102B0000800010F065FE324620492846FFF796FC0B
:102B10001F4B1B680193019B03F5FA63C5F828322C
:102B2000DDE7836B3246012104209847D7E7013B5C
:102B300063F00F030133C0E7836B324600210420AA
:102B40009847CCE7394605F1800010F05FFEC6E7F4
:102B5000394605F1800084F8A08110F057FE324616
:102B60000C492846FFF76AFC094B1B680093009B41
:102B700003F5FA63C5F82832B1E700BFBC6FFF1F49
:102B80000F000080FD66002004310020DC500200B0
:102B9000CC940020CC50020010B5013A8CB0044611
:102BA000032A6BD8DFE802F052371D0240F6B83333
:102BB000994200F086806AD941F28833994200F048
:102BC000AA8041F65833994264D15F49FEF79CFDD3
:102BD0005E4B1B680B930B9B03F5FA63C4F828321A
:102BE00053E040F6B833994277D050D941F2883358
:102BF000994200F09C8041F6583399424AD1544999
:102C0000FEF782FD514B1B680893089B03F5FA639E
:102C1000C4F8283239E04F4A40F6B8339942126876
:102C20003DD034D941F28833994262D041F65833CD
:102C300099422FD14849FEF767FD444B1B68059325
:102C4000059B03F5FA63C4F828321EE0434801915E
:102C50000AF03EF8019940F6B83399422BD016D9C4
:102C600041F28833994250D041F65833994211D1FC
:102C700002463B492046FFF7E1FB06E03949FEF7F3
:102C80000FFC3A21384817F01DF90CB010BDB1F512
:102C90007A7FFAD02046FEF7B3FC0CB010BD334962
:102CA000FFF7CCFB294B1B680393039B03F5FA63E7
:102CB000C4F82832E9E702462C492046FFF7BEFB5C
:102CC000E3E72B49FEF720FD204B1B680993099B86
:102CD00003F5FA63C4F82832D7E72649FEF714FD56
:102CE0001A4B1B680693069B03F5FA63C4F8283257
:102CF000CBE72149FFF7A2FB144B1B680493049B0D
:102D000003F5FA63C4F82832BFE702461B492046A0
:102D1000FFF794FBB9E71A49FEF7F6FC0B4B1B686B
:102D20000A930A9B03F5FA63C4F82832ADE7154904
:102D3000FEF7EAFC054B1B680793079B03F5FA6354
:102D4000C4F82832A1E700BF90510200CC940020C3
:102D50005C510200B86FFF1F28510200AC670020D1
:102D60000851020098510200A8510200E8500200E8
:102D7000685102003851020018510200F850020058
:102D8000805102004C510200B1F57A7F38B504D869
:102D9000B0F8264294B3002038BD40F6B834A142C2
:102DA00012D8B0F82612B1F57A7FF4D1A0F82642F5
:102DB0002146FFF7F1FE0821284817F083F828483C
:102DC00014F048FF002038BD41F28835A94222D9CD
:102DD00041F65834A142B0F826122ED8A942DAD1D1
:102DE000A0F826422146FFF7D7FE04211D4817F020
:102DF00069F81B4814F02EFF002038BD4FF47A729A
:102E0000A0F826220B21184817F05CF8144814F09B
:102E100021FF204638BDB0F82612A142BBD1A0F850
:102E200026522946FFF7B8FE0621104817F04AF847
:102E30000B4814F00FFF012038BDA142ABD1002494
:102E4000A0F826422146FFF7A7FE0821084817F000
:102E500039F8034814F0FEFE204638BDF051020058
:102E60001871FF1F04520200E4510200FC510200DD
:102E70000C52020070B51A4D82B08DED010A0C465D
:102E80000646FEF7BDFB28460222002110F02CFA70
:102E900020461CF0B5FD21460246284614F09EFE51
:102EA00020461CF0ADFD0222C1B2284610F01CFAEB
:102EB0009DED010A10EE100A1BF03AF941EC100BDF
:102EC0000221284614F020FF20461CF099FD063010
:102ED000142828BF1420C6F8180202B070BD00BF25
:102EE000907CFF1FF8B5184D0C4616460746FEF7B6
:102EF00087FB02220021284610F0F6F920461CF03C
:102F00007FFD21460246284614F068FE20461CF04C
:102F100077FD0222C1B2284610F0E6F930461CF0D7
:102F20006FFD31460246284614F058FE20461CF03C
:102F300067FD044630461CF063FD2044142828BF7A
:102F40001420C7F81802F8BD907CFF1FB0B588B0F8
:102F500002AF0446019300920B46174A174D152104
:102F600038461CF0B3FA38461CF04AFDD4F8183243
:102F7000C4F8180298420146B8BF194601F1080387
:102F800023F00703ADEB030D02AC3B460C4A0131C5
:102F900020461CF09BFA28460222002110F0A4F9DA
:102FA00020461CF02DFD21460246284614F016FE50
:102FB0001837BD46B0BD00BF18520200907CFF1FFD
:102FC000985002002DE9F04190F8143282B0054685
:102FD000002B40F082804E4F4E4E3B6879681A7845
:102FE000787A0C783B7A4A49044202EA030215D007
:102FF0008B7A03F003030AB143F0040343F00803A0
:103000009A10013BBA720D2B65D8DFE803F05860C7
:103010005C60640F58580F64605C60588B7A03F0F2
:103020000303002AECD043F00403E9E7FC68023C08
:10303000FC603368DA1CA24202DB033BA3423BDDA7
:10304000354B1B78C3EB83739B00A34204DC334BEB
:103050001B789B00A34201DAFB601C46304FDFF86F
:10306000D0803A68002C2346B8BFE31C9B109342E3
:10307000C8F800301FD09A1AD2B295F830322948D9
:1030800005F5C07109F0FCFAD8F80080C7F8008097
:1030900001466A462846FEF7ABF9424603462249F6
:1030A0002846FFF753FF214B1B680193019B03F553
:1030B000FA63C5F82832346002B0BDE8F081FC68DC
:1030C0000134FC60B5E7FC680234FC60B1E7FC68E1
:1030D000013CFC60ADE7FC68ABE715490C4F104ABA
:1030E0000C4E1048002305F5C0740B60FB602146B0
:1030F0001360336009F026F9074B21461870094820
:1031000009F050F9054BC0F17F00187065E700BF6A
:10311000107CFF1FF87BFF1F507CFF1FF47BFF1FFD
:10312000E07BFF1F0431002024520200CC940020D9
:10313000EC7BFF1F134B1A680D2A10B5044609D803
:103140000123934043F2B6321A405AB91A0714D4F5
:103150005B050ED42046FFF735FF2046BDE8104042
:10316000FFF76EBAFFF7A4F92046BDE81040FFF75D
:1031700067BABDE81040FDF74FBBBDE81040FDF752
:103180005BBC00BFBC6FFF1FF0B58DB01D4D9DF83F
:1031900048409DF84CE09DF85070CDF80CE00134AB
:1031A000019306464B1C00920294049707A8164A06
:1031B000164C14211CF08AF928460222002110F036
:1031C00093F807A81CF01CFC07A90246284614F037
:1031D00005FD07A81CF014FCC6F81802204614F0E0
:1031E00039FD14210A4816F06DFE07A81CF008FCF2
:1031F000014607A816F066FE204614F02BFD0DB020
:10320000F0BD00BF907CFF1F385202001871FF1FF5
:103210005052020008B503221121094810F064F849
:10322000084B1B7801222BB907490548BDE8084027
:1032300014F0D4BC05490248BDE8084014F0CEBCE7
:10324000907CFF1F40910020AC50020068520200A9
:1032500010B50446032290F878110B4810F044F89A
:10326000D4F81022D4F87831D35C01222BB9074965
:103270000548BDE8104014F0B1BC05490248BDE85E
:10328000104014F0ABBC00BF907CFF1FAC5002009C
:103290006C5202002DE9F04F0446102300F1440760
:1032A00020268FB0036404F16208E66338460025E7
:1032B00010F00AFA404610F007FA424639460495E3
:1032C00003950295019500952B4604F1800010F0BE
:1032D000FDF9C4F804611A26C4F8E860192604F55B
:1032E0008673C4F8EC601B264FF0250C4FF0240EBB
:1032F0001E2107931F220523C4F8F0604FF0420BF4
:103300004FF0430A4FF027094FF0260818271D20D9
:103310001C26C4F8DCC0C4F8E0E0C4F80831C4F8E6
:10332000FC10C4F80021C4F8A4B0C4F8A8A0C4F8E4
:10333000D49004F58A7AC4F8D880C4F8E470C4F84C
:10334000F460C4F8F800079814F08EF9504614F0B1
:103350008BF904F58E7904F592721646484614F0FE
:1033600083F904F5967230461746089614F07CF9F6
:1033700004F59A710E463846099714F075F904F56C
:103380009E7130460F460A9614F06EF904F5A2704D
:10339000064638460B9714F067F904F5A670074601
:1033A000304604F5AA7B0C9614F05EF9384604F515
:1033B000AE780D9714F058F9584614F055F904F505
:1033C000B277404614F050F904F5B676384614F05A
:1033D0004BF9304614F048F9FF22012384F83022DB
:1033E00084F8313284F8745184F8755184F8145299
:1033F00084F81552C4F81852C4F81C52C4F820526C
:1034000084F82452A4F826524A21714816F05AFD35
:10341000704814F01FFC2B466F48042214210FF053
:1034200087FF0A226D496C4814F0D8FB94F8A40079
:10343000022115F06BFC94F8A800022115F066FC3F
:1034400094F8D800022115F061FC94F8D400022110
:1034500015F05CFC94F8DC00022115F057FC94F8A0
:10346000E000022115F052FC94F8E400022115F06E
:103470004DFC94F8E800022115F048FC94F8EC00AB
:10348000022115F043FC94F8F000022115F03EFCF7
:1034900094F8F400022115F039FC0798D4F8D810FC
:1034A00014F0EAF85046D4F8D41014F0E5F8484681
:1034B000D4F8DC1014F0E0F80898D4F8E01014F018
:1034C000DBF80998D4F8E41014F0D6F80A98D4F888
:1034D000E81014F0D1F80B98D4F8EC1014F0CCF8F4
:1034E0000C98D4F8F01014F0C7F80D9DD4F8F4102F
:1034F000284614F0C1F80798B4F8081114F0D2F86F
:103500005046B4F8081114F0CDF84846B4F8081144
:1035100014F0C8F80898B4F8081114F0C3F8099822
:10352000B4F8081114F0BEF80A98B4F8081114F0B1
:10353000B9F80B98B4F8081114F0B4F80C98B4F872
:10354000081114F0AFF82846B4F8081114F0AAF8DE
:1035500094F8F800022115F0D9FB94F8FC00022140
:1035600015F0D4FB94F80001022115F0CFFB94F87C
:103570000401022115F0CAFB5846D4F8F81014F0E3
:103580007BF84046D4F8FC1014F076F83846D4F8AE
:10359000001114F071F83046D4F8041114F06CF8EE
:1035A0005846B4F8081114F07DF84046B4F80811F4
:1035B00014F078F83846B4F8081114F073F830466F
:1035C000B4F8081114F06EF820460FB0BDE8F08F83
:1035D000705202001871FF1F907CFF1FBC52020046
:1035E00070B516460C460546C9B203221F480FF0B7
:1035F0007BFEFEB92B1993F88061D5F878317EB93E
:103600009C422BD021461A4808F020FE012818D9E8
:10361000334601460A221548BDE8704014F02ABB23
:103620009C424FF0010213D012491048BDE870408F
:1036300014F0D4BA012210490C48BDE8704014F0CF
:10364000CDBA01220D490948BDE8704014F0C6BA50
:103650000B490648BDE8704014F0C0BA0122094980
:103660000248BDE8704014F0B9BA00BF907CFF1F5B
:10367000043100206C52020068500200AC5002007D
:10368000C8520200E087020070B5441800220F29DA
:10369000054684F8F0211FD901F00F060C4631468B
:1036A000FFF79EFF12211B4816F00CFC31461A480A
:1036B00014F020FB184814F0CDFA95F83032A342EC
:1036C00004BFFF2385F83032144B1B680A2B09D046
:1036D0000B2B00D070BD214605F18000BDE8704085
:1036E00010F094B82846FDF78BFF95F824220C487B
:1036F0000023012AC5F8D03004BF85F82432A5F88C
:10370000263231460AF0CEFA2846BDE87040FDF771
:1037100085BB00BFCC5202001871FF1FBC6FFF1F9A
:10372000AC67002070B50D461646D0F87C1100221B
:103730000446FFF755FF0322E9B209480FF0D4FD14
:10374000012236B90749064814F048FAC4F87C51FA
:1037500070BD0549024814F041FAC4F87C5170BDAF
:10376000907CFF1FE0870200C8520200D0F81032A0
:1037700070B55D5CC0F87811103104461646C9B2C8
:10378000803095B110F042F80122D4F8781120462B
:10379000FFF7C8FFD4F878316C33012244F8236076
:1037A00084F8742184F8752170BD10F011F82A4650
:1037B000D4F878112046FFF7B5FFEBE72DE9F0418B
:1037C000012186B0054648480FF0B2FA00211220C8
:1037D00015F09CFA0121132015F098FA012113200D
:1037E00015F080FA0B26122015F082FA30B9013E4E
:1037F00001464FF496744FF0130067D1752174227F
:10380000732305F1800677277624029101920093B5
:1038100030467223049703947122702110F0EEF861
:10382000EB6B002B09DD0024214630460FF0EEFF44
:103830000134EB6BE4B29C42F6DB304610F038F911
:1038400005F29F1305F2AF11002203F8012F8B42FE
:10385000FBD16FF4BF76761B05F27F1405F28F184B
:103860000027311904F8017F00222846FFF7B8FE2F
:103870004445F6D105F5D67305F5F670002143F8F9
:10388000041F83424FF00002F9D1184B85F815222E
:1038900001240622284685F814421A60FEF79AF998
:1038A0002846FEF755FA12480DF04CFA0146284614
:1038B000FEF750FC0E480DF047FA01462846FEF789
:1038C00075FC85F8744106B0BDE8F08115F00AFA80
:1038D0002346013BFDD10121132015F003FA2346B5
:1038E000013BFDD17FE700BF3070FF1FBC6FFF1FA2
:1038F000D090002030B5D0F8B83087B00446A3B1DE
:10390000374A126802920299C91A0ED0354D2B68B7
:103910000222013380F824225AD002222046FFF7E7
:1039200033FA002847D107B030BDD4F8D030ABB15E
:103930002B4A126803920399C91A0FD0012284F806
:1039400024222046FFF720FA0028ECD0264809F070
:10395000BFF90146244809F0B7FAE4E7D4F8C030CB
:103960008BB11F4A126804920499C91A0BD0032222
:1039700084F824222046FFF707FA0028D3D02046F7
:10398000FFF71CFFCFE7D4F8B030002BCBD0144AA0
:10399000126805920599C91AC5D0042284F8242218
:1039A0002046FFF7F1F90028BDD0104808F0D4F9FF
:1039B000E3699847B7E729680C4807F083FE20467B
:1039C0002968FEF719F84FF0FF332B6007B030BDC0
:1039D0000648019108F054F8019928609DE700BF5E
:1039E000CC940020B86FFF1FAC670020043100208A
:1039F0002DE9F04F00F58E7585B00446284613F08A
:103A000053FE10B905B0BDE8F08F284613F092FEC2
:103A10000028F7D08C4E3368013B0A2B57D8DFE8DB
:103A200003F0411E18565656560D0D560600874D8A
:103A30002B78002B54D1E3699847E3E7844A137845
:103A4000204683F001031370FFF7E4FB05B0BDE8E7
:103A5000F08F804801F042FE05B0BDE8F08F7E4D4A
:103A600029684B1C00F0D7807C4807F02BFE2A68A1
:103A70007B492046FEF7E2FC7A4B1B680393039BCD
:103A800003F5FA63C4F8283201274FF0FF332046CC
:103A90002B603760FEF79EF82046FEF759F984F850
:103AA0001472AFE76D4807F049FF30B36B4807F079
:103AB000E7FF6D4902462046FEF7C0FC694B1B68D4
:103AC0000193019B03F5FA63C4F828329AE794F84E
:103AD0001532032B00F2AA80DFE803F076593F206D
:103AE000012720463760FEF775F82046FEF730F9CB
:103AF000002384F814722B7084E7584807F0C0FF45
:103B00005A4902462046FEF799FC564B1B68029321
:103B1000029B03F5FA63C4F8283273E704F28F19A5
:103B20006FF4BF77C8463F1B04F27F154FF0010AC0
:103B3000791915F8013F08F8013F002285F800A027
:103B40002046FFF74DFD4D454FF0010BF0D102230C
:103B500084F814B284F8153253E06FF4BF773F1B3A
:103B600004F27F1504F28F1A4FF0000979194FF013
:103B7000000805F8019F42462046FFF731FD5545F4
:103B8000F4D1012384F8158284F8143239E004F268
:103B90008F196FF4BF77C8463F1B04F27F15791960
:103BA00015F8013F08F8013F83F001032B70002254
:103BB0002046FFF715FDA945F1D10322012384F822
:103BC000152284F814321CE06FF4C778C4EB08089F
:103BD00004F28F1504F27F1704F29F1908EB050118
:103BE00015F8013F83F0010307F8013F002220464A
:103BF000FFF7F6FCA945F1D1012384F8153284F8CA
:103C000014323368062B7FF4FDAE04F5C0712046F4
:103C1000FDF7A8F8F6E6012520463560FDF7DAFF46
:103C20002046FEF795F884F81452EBE6312110484F
:103C300016F048F994F815120E4814F05BF80D4888
:103C400014F008F8DDE700BFBC6FFF1F902E0020C6
:103C500040910020A82D0020B86FFF1F04310020E4
:103C600000530200CC940020E0520200F052020007
:103C7000105302001871FF1F70B504460D4696B030
:103C800080300FF0A5FD6319012283F8F0210F2D7C
:103C900000F23F81DFE815F0240040005C0078006E
:103CA00094009D00A600AF00F100CB00DE00B8003C
:103CB0002A01040117011000B9492046FDF724FD2F
:103CC000B84BB9481B681293129B03F5FA63C4F80A
:103CD000283204F5C071042208F010FC16B070BD43
:103CE000B24B1A68511E012940F2D0810A2A00F015
:103CF000CD812046AE49FDF707FDAA4BAA481B68B7
:103D00000293029B03F5FA63C4F8283204F5C071EC
:103D1000002208F019FCE1E7A44B1A68511E0129A2
:103D200040F2C0810B2A00F0BD812046A149FDF779
:103D3000EBFC9C4B9C481B680193019B03F5FA63C9
:103D4000C4F8283204F5C071012208F0FDFBC5E774
:103D5000964B1B68012B00F06C81083B012B40F255
:103D6000688120469449FDF7CFFC8E4B8E481B6836
:103D70000493049B03F5FA63C4F8283204F5C07178
:103D8000022208F0E1FBA9E7884B1B68012B00F039
:103D90006881083B012B40F2648120468749FDF78A
:103DA000B3FC804B80481B680693069B03F5FA63BF
:103DB000C4F8283204F5C071032208F0C5FB8DE772
:103DC0007F4B1B78002B00F02781A36901209847C7
:103DD00084E77B4B1B78002B00F01181A369022044
:103DE00098477BE7764B1B78002B00F0FB80A3699C
:103DF0000320984772E7724B1B78002B00F0C280BB
:103E0000A3690420984769E720466E49FDF77CFCCA
:103E1000644B65481B680E930E9B03F5FA63C4F868
:103E2000283204F5C071032208F0AEFB56E72046A5
:103E30006549FDF769FC5B4B5B481B680C930C9B69
:103E400003F5FA63C4F8283204F5C071012208F0C2
:103E50009BFB43E720465D49FDF756FC514B52481A
:103E60001B680D930D9B03F5FA63C4F8283204F523
:103E7000C071022208F088FB30E720465449FDF764
:103E800043FC484B48481B680B930B9B03F5FA63B4
:103E9000C4F8283204F5C071002208F075FB1DE754
:103EA00020464C49FDF730FC3E4B3F481B681093C1
:103EB000109B03F5FA63C4F8283204F5C07102229E
:103EC00008F01CFB0AE720464349FDF71DFC354B73
:103ED00035481B681193119B03F5FA63C4F8283227
:103EE00004F5C071032208F009FBF7E620463B49C0
:103EF000FDF70AFC2B4B2C481B680F930F9B03F517
:103F0000FA63C4F8283204F5C071012208F0F6FA09
:103F1000E4E60F2D7FF6E2AE05F00F0631460122F2
:103F20002046FFF75DFB94F83032AB42636A88BFEE
:103F300084F8305213B1A5F1100098471B4B1B6851
:103F4000013B0C2B00F2E78001A252F823F000BFE6
:103F5000A9400000BB40000017410000C540000020
:103F60000D4100001741000003410000A94000007E
:103F7000F9400000E3400000DD3C0000D9400000B3
:103F8000CF40000016492046FDF7BEFB054B1B68DD
:103F90000A930A9B03F5FA63C4F8283230E700BF9E
:103FA0003C540200CC94002004310020BC6FFF1F61
:103FB000505302004453020078530200A4530200FD
:103FC000FD66002010540200F85302000454020061
:103FD000EC53020024540200305402001C5402002E
:103FE000E05302005F492046FDF78EFB5E4B1B68E5
:103FF0000993099B03F5FA63C4F82832F7E65B4995
:104000002046FDF781FB584B1B680893089B03F57E
:10401000FA63C4F82832E1E655492046FDF774FBFF
:10402000514B1B680793079B03F5FA63C4F82832CA
:10403000CBE6504A50491378002083F001031370F7
:104040000870002B00F088804C492046FDF75CFB8F
:10405000454B1B680393039B03F5FA63C4F82832AE
:104060003CE6454B1A78002A6DD0424D4449002267
:1040700020462A701A70FDF747FB3B4B1B680593DF
:10408000059B03F5FA63C4F8283227E60B22204685
:104090001A60FDF79FFD2046FDF75AFE012384F8C4
:1040A00014321BE60A22F2E7324B364A1B784FF0F5
:1040B000FF311160002B7FF411AE29462046FCF73A
:1040C0001DFE0BE629462046FCF760FD06E6294664
:1040D0002046FEF7E1FC01E629462046FEF706F8F9
:1040E000FCE529462046FCF709FE1F4B1B6813938D
:1040F000139BC4F8D030F1E529462046FDF7DAFCE1
:10410000ECE529462046FCF79DFDE7E529462046DB
:10411000FCF76AFDE2E529462046FCF7C1FD314681
:104120002046FDF75DFB104B1A681592159A1B6827
:104130001493149B02F5FA6203F5FA63C4F82C2277
:10414000C4F82832CAE50B480F4902700122204604
:104150001A70FDF7D9FA90E70C492046FDF7D4FA1A
:1041600076E700BFD0530200CC940020C053020079
:10417000B0530200FD660020FC6600205C53020084
:1041800084530200B86FFF1F945302006C53020067
:10419000F8B5344C2368DB07054646D5324E14F09B
:1041A000E1FD3368304A984234D900F5EA4395F886
:1041B000741130331360002947D105F18007384668
:1041C0000FF08EFB18B3EB6B002B24DD002634467A
:1041D00005E00134EB6BE4B29C4226461BDA214633
:1041E00038460FF0B3FA2E4430B196F8F03121463C
:1041F00028460BB9FFF740FD214638460FF0B6FAC6
:104200000028E6D021462846FFF73EFAE1E795F878
:1042100075311BB9F8BD012385F8753138460FF0AB
:1042200047FC002385F87531F8BD204614F0C0FA2C
:104230000028B3D014F096FD0B4E00F5EA4330335E
:104240002046336014F0BAFAA9E7014605F1800769
:104250002846FCF75FFC38460FF042FB0028D6D01A
:10426000B1E700BF887CFF1FB87CFF1F10B500239B
:1042700003604360836004461621044815F022FE63
:10428000034813F0E7FC204610BD00BF4C54020069
:104290001871FF1F38B505461A210F4815F012FE98
:1042A0002C6864B1A36A2B6020462C2114F0C2FA5A
:1042B0002C680A48042115F005FE002CF2D10023D9
:1042C0002B606B60AB600421054815F0FBFD0548D1
:1042D00013F0C0FC284638BD645402008854020024
:1042E000805402001871FF1F38B5054615210F488C
:1042F00015F0E8FD2C6864B1A36A2B6020462C21E0
:1043000014F098FA2C680A48042115F0DBFD002C03
:10431000F2D100232B606B60AB600421054815F0DF
:10432000D1FD0548BDE8384013F094BC905402001C
:1043300088540200805402001871FF1F38B52E4CBB
:1043400005460A212D4815F0BDFD204613F082FCDC
:104350000E212B4815F0B6FD6B682046196813F046
:10436000C9FC0B21274815F0ADFD6B680A221979AD
:104370002046002313F07EFC204613F06BFC08213E
:10438000214815F09FFD6B682046D96813F0B2FCF8
:1043900007211E4815F096FD6B68D86919F0C8FE14
:1043A00041EC100B2046022113F0AEFC0B21184803
:1043B00015F088FD6B680A2293F820102046002330
:1043C00013F058FC1621134815F07CFD6B6820464D
:1043D000597A13F08FFC0E210F4815F073FD6B68AE
:1043E000204693F824100A22002313F043FC2046B1
:1043F000BDE8384013F02EBC1871FF1FA85402000E
:10440000B4540200C4540200D0540200DC54020030
:10441000E4540200F05402000855020038B5436825
:10442000002B6BD09A6A934204460D4618BF0120B8
:1044300066D0A36823B1226812B19B6A9A4274D0F5
:104440006368444A1B68934202DC01332DD038BDB7
:104450002A4641494148FDF7ABFF3121404815F05C
:1044600031FD28461BF0CCFA0146284615F02AFDFE
:104470003C4813F0EFFB07213B4815F023FD616832
:10448000384813F037FC0E21384815F01BFD6368DF
:104490003448196813F02EFC324813F0DBFB6368D4
:1044A0001B6801334FF00000D1D12A4630492B4818
:1044B000FDF77EFF34212F4815F004FD28461BF040
:1044C0009FFA0146284615F0FDFC264813F0C2FB72
:1044D0000721254815F0F6FC6168224813F00AFC14
:1044E0000E21224815F0EEFC63681E48196813F08F
:1044F00001FC1C4813F0AEFB002038BD012038BD84
:104500000A4616481C49FDF753FF26211B4815F0A3
:10451000D9FC28461BF074FA0146284615F0D2FC57
:10452000104813F097FB002083E72A4614490B48F4
:10453000FDF73EFF3921134815F0C4FC28461BF057
:104540005FFA0146284615F0BDFC064813F082FBD1
:10455000002075E7809698009C550200C82E002028
:10456000B45502001871FF1FE8550200F055020013
:104570000056020018560200185502002855020085
:10458000505502006055020003684360704700BF49
:1045900010B544680CB1206810BD03490348FCF70E
:1045A0007FFF204610BD00BF50560200C82E0020DD
:1045B00010B544680CB1207910BD03490348FCF7DD
:1045C0006FFF204610BD00BF64560200C82E0020B9
:1045D0002DE9F0418846002707700646112114484E
:1045E00015F070FCD8F80440ECB108340FCC354617
:1045F0000FC594E80F0085E80F0071680D4813F0AF
:1046000079FB08210C4815F05DFCD8F80430094806
:1046100019790A223B4613F02DFB064813F01AFBCA
:104620003046BDE8F08105490548FCF739FFF7E75A
:10463000785602001871FF1F2C6E02008C56020083
:10464000C82E00204068003018BF0120704700BF0E
:1046500070B5044616213648666815F033FC3548B7
:1046600013F0F8FA0721344815F02CFC6168314842
:1046700013F040FB0821314815F024FC21682D4837
:1046800013F038FB08212E4815F01CFCA1682948BE
:1046900013F030FB23686360642538E013F0DAFA26
:1046A0000E21284815F00EFC63682248196813F0A3
:1046B00021FB0D21244815F005FC61681D480831D7
:1046C00013F018FB0921214815F0FCFB6368194819
:1046D000197913F00FFB0B211D4815F0F3FB6168EE
:1046E000144813F007FB08211A4815F0EBFB636828
:1046F0001048996A13F0FEFA17492046FFF78EFE1C
:1047000040B1204600F0C6F8013D08D06368094872
:10471000002BC3D1074813F09DFA666070BD0F49A6
:104720000F48FCF7BDFE034813F094FA666070BDB5
:10473000A45602001871FF1FE8550200BC56020083
:10474000C8560200F0550200D4560200E45602009A
:10475000F0560200FC5602000857020010570200F3
:10476000C82E0020036810B504466BB1426893421E
:1047700004BF002242609A6A8AB1002102609962F5
:1047800018462C2114F056F80A492046FFF746FE39
:1047900000B110BD2046BDE81040FFF759BF816849
:1047A0008B4208BF82602C21184614F043F8002386
:1047B0002360E9E72057020038B50368044673B167
:1047C0001A6891420D4603DC0AE01A68AA4207DA29
:1047D0002046FFF7C7FF23686360002BF5D1002355
:1047E000636005492046FFF719FE00B138BD204639
:1047F000BDE83840FFF72CBF3057020082B02DE9EA
:10480000F04106AC074644F8043F0D461E4814210B
:10481000904615F057FB214600230A221B4813F04F
:1048200029FA1A4813F016FA2C2013F0FFFF2C2255
:10483000002106461AF0EEFB0FCCB060F160326149
:1048400073610FCCBC68356086F80480B061F1619B
:104850003262736214B1A64218BFA6627B68BE6062
:104860007BB13B685BB10A493846FFF7D7FD10B909
:104870003846FFF7EDFEBDE8F04102B070473E60FC
:10488000F1E77E60EDE700BF5C5702001871FF1F83
:1048900074570200436810B5044673B19A6A934294
:1048A00013D062600C492046FFF7B8FD00B110BD7F
:1048B0002046BDE81040FFF7CBBE1921074815F090
:1048C00001FB074813F0C6F9ECE706490648FCF778
:1048D000E7FD63689A6AE4E7B05702009457020064
:1048E0001871FF1F80570200C82E002070B590E895
:1048F000480005460024436006E00134FFF7CAFF84
:10490000B4F57A7F06D06B682846002BF5D16E602F
:10491000204670BD03490448FCF7C2FD6E60204686
:1049200070BD00BFB8570200C82E002000220260F0
:1049300042608260704700BF38B5044617210948BD
:1049400015F0C0FA23685BB10025DA6822601846CA
:10495000DD6010219D6013F06DFF2368002BF4D102
:10496000204638BDC857020038B5436804460D4696
:1049700083B1DA68934218BF012036D09A689A4210
:1049800048D0E3682BB1DA68934219D09A689A420A
:1049900002D038BD0120F4E728492948FCF780FD02
:1049A0001F21284815F08EFA274813F053F928469E
:1049B0001BF026F80146284615F084FA0020E8E7A7
:1049C00022491F48FCF76CFD2B21214815F07AFA8B
:1049D00028461BF015F80146284615F073FA1A48C8
:1049E00013F038F9E3680020D0E71A491448FCF7BF
:1049F00057FD2321184815F065FA28461BF000F8EA
:104A00000146284615F05EFA0F4813F023F9636853
:104A10000020B3E711490A48FCF742FD172110486E
:104A200015F050FA084813F015F928461AF0E8FF77
:104A30000146284615F046FA0020A2E77C580200FD
:104A4000C82E0020905802001871FF1F3C58020029
:104A500050580200E0570200F057020014580200BC
:104A60002458020010B507490446FFF77DFF20B126
:104A700063680BB1DB68636010BD204600F004F88A
:104A8000F6E700BFB057020038B50021044643489E
:104A900015F018FA424813F0DDF80D21414815F0E1
:104AA00011FA3F4813F0D6F807213F48656815F022
:104AB00009FA21683A4813F01DF906213B4815F020
:104AC00001FA6168364813F015F90721384815F0E6
:104AD000F9F9A168324813F00DF90A21354815F0AB
:104AE000F1F9E1682E4813F005F92D4813F0B2F8FA
:104AF000204600F0DFF863682BB945E0FFF7B2FF0E
:104B00006368002B40D005212B4815F0DBF9636862
:104B1000234819680A22002313F0ACF8042127481F
:104B200015F0D0F963681E4819790A22002313F0A2
:104B3000A1F80421224815F0C5F96368184859798D
:104B40000A22002313F096F805211E4815F0BAF941
:104B50006168134813F0CEF806211B4815F0B2F92E
:104B600063680F48D96813F0C5F80D4813F072F860
:104B70006368DA6893422046C0D11A21134815F0C1
:104B8000A1F9074813F066F80021044815F09AF9D6
:104B9000034813F05FF8656038BD00BF2450020081
:104BA0001871FF1FB0580200C0580200C858020018
:104BB000D0580200D8580200E4580200EC58020015
:104BC000F4580200FC580200045902000C5902007B
:104BD00038B50446C068002838D060602368834236
:104BE00026D0A368834216D08568C368EB60C3688B
:104BF00082689A60102113F01DFE65602B46E36009
:104C000014492046FFF7B0FE00B138BD2046BDE88C
:104C10003840FFF739BF82681AB1826862600021AC
:104C2000D1601846102113F005FE6368A360E6E723
:104C3000C268626062B1002191600022DA601846A9
:104C4000102113F0F7FD63682360D8E76068C5E7BB
:104C5000A260F2E7285902002DE9F843044610202B
:104C6000894690461F4613F0E1FDA6680025456081
:104C7000856080F80490C56080F8058007600EB1FB
:104C8000F06086606368A0607BB123685BB108490F
:104C90002046FFF769FE08B1BDE8F8832046BDE86D
:104CA000F843FFF7F1BE2060F1E76060EDE700BF79
:104CB0003459020010B505490446FFF755FE10B9F6
:104CC0002046FFF7E1FE2368636010BD3C590200F7
:104CD000C3681879704700BFC3685879704700BF30
:104CE000C3681868704700BFC068003018BF012053
:104CF000704700BF10B505490446FFF735FE10B9EF
:104D00002046FFF7C1FE2368E36010BD445902004E
:104D100010B507490446FFF727FE20B1E3680BB141
:104D2000DB68E36010BD2046FFF7AEFEF6E700BF8C
:104D30005059020070B511490546FFF715FE90B1B4
:104D400028466E680024FFF7B5FF05E00134FFF741
:104D500089FEB4F57A7F0AD06B682846002BF5D11E
:104D60006E60204670BD2846FFF78EFEE8E70449D6
:104D70000448FCF795FB6E60204670BD5C5902004C
:104D800064590200C82E002038B50A4D002304469D
:104D90000360436029464FF4A072083013F026FCEC
:104DA00005F5A07104F5A4704FF4807213F01EFC99
:104DB000204638BD7459020010B490E81800013440
:104DC00000EB031394FBF1F202FB11410B44416031
:104DD00093F848015DF8044B704700BF10B490E8A9
:104DE000180094FBF1F200EB031302FB11410B449A
:104DF000416093F848015DF8044B7047436810B474
:104E00000468194400EB041091FBF2F303FB121247
:104E100050FA82F25DF8044B92F84801704700BFE7
:104E2000406801308842B4BF00200120704700BFB5
:104E3000054B0B40002B01DB03607047013B63F027
:104E40000F030133036070470F000080036803EB1A
:104E5000830300EB83000830704700BF00234360EA
:104E6000704700BF38B501250446056758220B4935
:104E70007C3013F0BBFB0A4A84F86D500023157098
:104E800084F8D83084F8E030C4F8D430C4F8DC308A
:104E9000C4F8E4306367A367204638BDB45B020002
:104EA000C87CFF1F2DE9F0418046064600F16007EF
:104EB000337D5BB13546002455F8040F013418B139
:104EC0001C2113F0B7FC337DA342F5DC1836BE423B
:104ED000EED14046BDE8F08101EB410300EBC30396
:104EE00080F8D810C0F8D4300120704710B5D0F841
:104EF000D44084B1227D8A420B46D8BF002304EB04
:104F00008304D8BF19466468C0F8DC404CB180F80F
:104F1000E010012010BD06490648FCF7C1FA204602
:104F200010BD05490348FCF7BBFA204610BD00BF81
:104F30000C5C0200C82E0020205C020038B504463C
:104F400060B101EB410110EBC1050DD002EB420055
:104F500014EBC0040ED06A75012038BD0849094819
:104F6000FCF79EFA204638BD07490648FCF798FA38
:104F7000284638BD05490348FCF792FA204638BD5B
:104F8000345C0200C82E0020485C02005C5C020019
:104F9000D0F8D4300BB11960704780F8D830034690
:104FA000C0F8D40019607047D0F8D41070B5054629
:104FB00031B30B7D032B1DD81C2013F037FC0446A6
:104FC00000F0ECFCD5F8D4301E1D28D0197D39B185
:104FD00053F82100C0B100F075FDD5F8D430197D2B
:104FE00003EB8102013154602046197500F0E4FCA6
:104FF000204670BD0F491048FCF752FA002070BDE2
:10500000FFF76AFF40B970BD0C490B48FCF748FA3E
:10501000D5F8D430197DE3E7D5F8D410C9E70849AD
:105020000548FCF73DFA20461C2113F003FC3046EE
:1050300070BD00BF705C0200C82E0020945C0200AE
:10504000805C02002DE9F043044685B01A4803F065
:1050500021FF0E21194814F035FF194812F0FAFD0E
:10506000D4F8DC0008B300F067FDD4F8D430D4F8ED
:10507000DC0093F8009094F8D85094F8E46094F829
:10508000E07000F0ADFC8046D4F8DC0000F0AAFC33
:10509000C0B202904B468DE880013246294609484D
:1050A000FEF772F805B0BDE8F0830749054805B082
:1050B000BDE8F043FCF7F4B900670020A45C0200EF
:1050C0001871FF1FC82E0020B45C020070B50446A2
:1050D00033216F4814F0F6FED4F8DC0000F080FCB9
:1050E00000230A2201466B4812F0C4FD01216A48E0
:1050F00014F0E8FED4F8DC0000F074FC01466548CA
:1051000012F0F8FD0921654814F0DCFE00230A22A4
:1051100094F8E0105F4812F0ADFD1421604814F0DF
:10512000D1FED4F8DC0000F0D3FC002301460A22B3
:10513000584812F09FFD574812F08CFDD4F8DC302F
:10514000002B00F09080D4F8D450002D00F0868021
:10515000184600F0BFFC054678B31921514814F0F9
:10516000B1FED4F8DC0000F0B3FC102106464E4836
:1051700014F0A8FE002331460A22464812F07AFDB8
:10518000D4F8D4301B7DB34224D92121474814F0F0
:1051900099FED4F8D43084F8E06003EB860670689A
:1051A000C4F8DC0000F090FC2121414814F08AFE94
:1051B000384812F04FFD284670BDD4F8DC0000F0EE
:1051C000B7FC3D213B4814F07DFE324812F042FD11
:1051D000284670BD1821384814F074FED4F8D43035
:1051E000D4F8E4201B689A4224DB1021334814F0E1
:1051F00069FED4F8D4305E7DFF2E3AD006EB460629
:10520000132104EBC6062E4814F05CFEC4F8D460EB
:1052100015212C4814F056FED4F8D430002284F81E
:10522000E0205868C4F8DC000123C4F8E43000F042
:105230004BFCB9E71A21244814F044FE002384F8FB
:10524000E030D4F8D420D4F8E4305068C4F8DC005E
:105250000133C4F8E43000F037FCA5E71B491C48D3
:10526000FCF71EF9B4E71B4919481D46FCF718F96D
:10527000AEE70021184814F025FE064812F0EAFCBB
:105280001321164814F01EFE236E98478CE700BFCA
:10529000C85C02001871FF1FFC5C0200005D020088
:1052A0000C5D02004C5D0200685D02007C5D020046
:1052B0002C5E0200505E0200A05D0200D85D02007C
:1052C000EC5D0200005E0200BC5D0200385D020081
:1052D000C82E0020245D020024500200185E020047
:1052E0002DE9F043D0F8D430044685B0D0F8DC0086
:1052F00093F8009094F8D86094F8E47094F8E08003
:1053000000F06EFB0546D4F8DC0000F06BFBC0B289
:1053100002904B46CDF800803A463146019503484D
:10532000FDF732FF05B0BDE8F08300BFC82E0020B6
:1053300010B514210446094814F0C4FD084812F0C1
:1053400089FCD4F8DC0018B1BDE8104000F0F4BBD3
:1053500004490548BDE81040FCF7A2B8905E020081
:105360001871FF1FA85E0200C82E0020034600220D
:10537000C3F8D40080F8D82048B1406883F8E02012
:105380000122C3F8DC00C3F8E42000F09DBB024911
:105390000248FCF785B800BFBC5E0200C82E0020A2
:1053A00070B5504E504D0166044600F11501326053
:1053B0002B607530FF2200230A7001F8013C41F890
:1053C000153C18318142F7D12046FFF7EDFD054627
:1053D00090B100231A46012100F0F8FA00231A4682
:1053E0000221284600F0F2FA0121284600F060FB75
:1053F0002846022100F03AFB2046FFF7D5FD05467E
:1054000090B101221146002300F0E0FA00230122AE
:105410000221284600F0DAFA0121284600F048FB74
:105420002846022100F022FB2046FFF7BDFD05467D
:1054300090B100230222012100F0C8FA0222114695
:105440000023284600F0C2FA0121284600F030FB74
:105450002846022100F00AFB01212046FFF798FDB3
:10546000012200212046FFF769FD01212046FFF7B8
:1054700033FD02212046FFF78BFD2046FFF794FD08
:10548000054690B100230322012100F09FFA00237A
:1054900003220221284600F099FA0121284600F053
:1054A00007FB2846022100F0E1FA2046FFF77CFDC9
:1054B000054690B100230422012100F087FA002361
:1054C00004220221284600F081FA0121284600F03A
:1054D000EFFA2846022100F0C9FA2046BDE87040E4
:1054E000FFF744BFC47CFF1FC07CFF1F38B5436E6D
:1054F00000EB8302D46F132B0BD8DFE803F060635B
:1055000066100A0A0A0A0A0A0A0A0A0A10454B51D0
:10551000572921463048BDE83840FCF7D7B82F4D11
:105520002D482A462146FDF7DDFC20461AF068FA90
:105530000146204614F0C6FC28461AF061FA0146DE
:10554000284614F0BFFC2648BDE8384012F082BB64
:10555000D0F8DC0000F04EFA431C05462DD02A4658
:1055600021461D48FCF7F8FE20461AF049FA01468C
:10557000204614F0A7FC2946194812F0BBFB184836
:10558000BDE8384012F066BBD0F8DC0000F02CFA21
:105590000546E4E7D0F8DC0000F024FA0546DEE733
:1055A000D0F8DC0000F022FA0546D8E7D0F8DC009D
:1055B00000F01EFA421C0546D1D10A4DB0E790F822
:1055C000D850CCE790F8E050C9E790F8D83003EB1A
:1055D000430350F83350C2E7C82E0020FC5E02009F
:1055E0001871FF1F045F020010B517210446084818
:1055F00014F068FC074812F02DFB002201236266BC
:1056000084F86D302046BDE81040FFF76FBF00BF43
:10561000085F02001871FF1F436E10B5132B52D89C
:10562000DFE803F021252951515151515151515178
:1056300051515131383E450AD0F8DC0000F0DAF91A
:10564000B0F1FF3F14BF044610242048112114F08C
:1056500039FC21461E4812F04DFB01211D4814F073
:1056600031FC204610BD90F8D840204610BD90F87F
:10567000E040204610BD90F8D83003EB430350F8CB
:105680003340204610BDD0F8DC0000F0ADF90446F0
:10569000204610BDD0F8DC00BDE8104000F0A2B9F3
:1056A000D0F8DC0000F0A2F90446204610BDD0F886
:1056B000DC0000F09DF91321B0F1FF3F14BF044658
:1056C00000240548C3E70024CBE700BF345F020095
:1056D0001871FF1FAC500200205F020008B51621B0
:1056E000034814F0EFFB0348BDE8084012F0B2BADB
:1056F000485F02001871FF1F10B5B1F57A7F82B0C4
:1057000008D1026F012A0DD00122026780F86D20B6
:1057100002B010BD074A416712680192019A826780
:1057200002B010BD022303670446FFF775FFA066B1
:10573000F6E700BFCC940020994238B50D4603DA55
:10574000002901DA8918FDD491FBF2F402FB14144C
:10575000A3424FF00B010B48C8BFA41814F0B2FBD2
:105760002946094812F0C6FA0121084814F0AAFB9C
:105770002146054812F0BEFA034812F06BFA2046A3
:1057800038BD00BF605F02001871FF1FAC500200FF
:1057900038B504460D464A48112114F093FB2946BA
:1057A000484812F0A7FA474812F054FA636E132BD8
:1057B00077D8DFE803F0195C6A76767676767676C7
:1057C000767676767625323F4C0A294600231122DA
:1057D0002046FFF7B1FF0F286ADC0146D4F8DC0051
:1057E000BDE8384000F030B92946002320460422A5
:1057F000FFF7A2FFC1B22046BDE83840FFF76CBBFF
:105800002946002320461022FFF796FFC1B2D4F8A4
:10581000DC00BDE8384000F04BB9294601232046A2
:105820001022FFF789FF0146D4F8DC00BDE83840BC
:1058300000F01CB92946002320460522FFF77CFF13
:105840000146D4F8DC00BDE8384000F011B9294623
:10585000002320461122FFF76FFF011ED8BF4FF033
:10586000FF31D4F8DC00BDE8384000F0C5B8D4F80A
:10587000D43029461A7D20460023FFF75DFFC1B2D0
:105880002046BDE83840FFF731BB294601232046BA
:105890001022FFF751FFC1B22046BDE83840FFF7A4
:1058A00077BB2A4608490948BDE83840FBF78ABE5D
:1058B000D4F8DC004FF0FF31BDE8384000F0C4B848
:1058C0006C5F02001871FF1F805F0200C82E00206D
:1058D00070B50D46044611212B48164614F0F2FA15
:1058E0002A4812F0B7F9B5F57A7F00D070BD94F868
:1058F0006D30002B34D1236F012B37D0022B41D1D7
:105900000D21234814F0DEFA3146204812F0F2F956
:105910000121204814F0D6FAA16E1C4812F0EAF9D1
:105920001A4812F097F9A16E20463144FFF730FF74
:105930000C21194814F0C6FA3146144812F0DAF96D
:105940000121144814F0BEFAA16E104812F0D2F9E9
:105950000E4812F07FF92046BDE87040FFF7C6BD43
:10596000002384F86D30236F012BC7D131462046C8
:1059700000231622FFF7E0FE60662046BDE8704077
:10598000FFF7B4BD70BD00BF905F02001871FF1F2C
:10599000A45F0200AC500200B45F020010B4FF2408
:1059A00000214FF0FF328473017381600261426114
:1059B0005DF8044B704700BF0023FF220371837022
:1059C0004371C37002704270704700BF30B4013938
:1059D000C9B244180125A3702571425430BC7047E8
:1059E000007E704780687047407B7047007B70473F
:1059F00000697047406970474B1E0F2B10B50C466D
:105A000008D94B1C06D00A460A480B49FBF7DAFDB9
:105A1000002010BD04610321084814F053FA214608
:105A2000074812F067F90121064814F04BFA0120EB
:105A300010BD00BFC82E0020206102001C610200C2
:105A40001871FF1FAC5002000F2902DC41610120D8
:105A5000704708B50A4603480349FBF7B3FD002029
:105A600008BD00BFC82E002034610200816070476D
:105A7000042913D8DFE801F006090C0F0300042302
:105A80000373704700230373704701230373704748
:105A90000223037370470323037370470A460248C7
:105AA0000249FBF78FBD00BFC82E002044610200F1
:105AB0004B1E50FA83F31B7913B1417301207047D9
:105AC000184670478173704700238361704700BF99
:105AD000807B7047826983689A421DD01ADD10B5B9
