:1000000000000320D10100004987010001870100A1
:1000100001870100018701000187010001870100BC
:100020000187010001870100018701004987010064
:10003000498701000187010051A2010055A3010079
:10004000498701004987010049870100498701006C
:10005000498701004987010049870100498701005C
:10006000498701004987010049870100498701004C
:10007000498701004987010049870100498701003C
:10008000498701004987010049870100498701002C
:10009000498701004987010049870100498701001C
:1000A00049300100553001004987010049870100AE
:1000B0004987010049870100498701009DA301008C
:1000C00049870100C9A4010049870100F5A5010085
:1000D00049870100EDA60100498701004987010019
:1000E00049870100498701004987010049870100CC
:1000F00049870100498701004987010049870100BC
:1001000049870100498701004987010049870100AB
:100110004987010051910100498701004987010089
:10012000498701004987010049870100498701008B
:10013000498701004987010049870100498701007B
:10014000357A010049870100E5A7010049870100D0
:10015000498701004987010049870100498701005B
:10016000498701004987010061300100498701008A
:10017000498701004987010049870100498701003B
:10018000498701004987010049870100498701002B
:100190004987010049870100DDA801004987010066
:1001A000498701004987010049870100498701000B
:1001B00049870100498701004987010049870100FB
:1001C00049870100498701004987010049870100EB
:1001D0005C4B4CF2205210B51A804DF628121A8052
:1001E00000BF00BF18F0B4FA574B4FF030621A60EE
:1001F000564A9A60564ADA60564B4FF470021A60BB
:10020000554B564A1A60564B1A78110703D51A787F
:1002100042F008021A70534B5349AA221A70534AEB
:10022000534B8B4204D252F8040F43F8040BF8E707
:10023000504B514900228B4202D243F8042BFAE77B
:100240004E494F4A002352F8230041F8230001335E
:10025000742BF8D14B4B4C4A802103F8011B93427D
:10026000FBD14A4B454A1A60494B8A221A70A3F5C2
:10027000805324225A70A0221A709A799207FCD5D2
:100280009A79D406FCD4434A937903F00C03082BE3
:10029000FAD1414B60221A7002331A78802AFCD1BD
:1002A0003C4B01221A715D225A719A799006FCD555
:1002B0009979384A4906FBD5384B394919600021EC
:1002C000596020231370937903F00C030C2BFAD19F
:1002D000344B354A1A60354A354C136813F4807331
:1002E00003D123604FF4A8531360324B324A1A6093
:1002F00000225A60072243F8042C304AC3F80C2D20
:1003000062B618F095FD2368DA0705D52C4818F079
:10031000C7FC2C4B2C4A1A602C4B1B785B0609D56A
:10032000284C294B22689A4204D1254818F0B8FC81
:10033000002323601EF0BEFA18F010FA18F03EF900
:10034000FEE700BF0E20054030800440823F0400DD
:100350000100002B88ED00E0002008E0030000858C
:1003600002D0074000E00740C07BFF1FC09D020095
:10037000306FFF1FC07BFF1F34990020006AFF1FF2
:100380000000000000E400E064E400E008ED00E0AC
:10039000005006400040064001E007404480044011
:1003A0000000060204800440C010070010D0034083
:1003B00014D0034014E000E01FBF02000000202022
:1003C0002495AC5E1CE00340A5C3945A00F007409E
:1003D000FFFFFFFFFFFFFFFFFFFFFFFFFFFFFFFF2D
:1003E000FFFFFFFFFFFFFFFFFFFFFFFFFFFFFFFF1D
:1003F000FFFFFFFFFFFFFFFFFFFFFFFFFFFFFFFF0D
:10040000FFFFFFFFFFFFFFFFFFFFFFFFDEF9FFFF23
:1004100010B5054C237833B9044B13B10448AFF33E
:1004200000800123237010BDC07BFF1F000000006F
:10043000BC9D0200084B10B51BB108490848AFF33A
:1004400000800848036803B910BD074B002BFBD0A0
:10045000BDE81040184700BF00000000C47BFF1F2C
:10046000BC9D0200C07BFF1F0000000010B52422CD
:10047000044600211EF0BEFD002384F8243084F8D9
:100480002530204610BD00BFF8B5074690F824007F
:100490000D461646E0B13A46002404E00134844299
:1004A00002F1030212D01178A942F7D19178994252
:1004B000F4D104EB44043C446670A370062D5ED86E
:1004C000DFE805F031161D242B1031000A2C2BDC3F
:1004D00000EB40017A18013087F824007D545670F3
:1004E0009370EBE72E492F48BDE8F84001F00CB9B6
:1004F00032462D492B48BDE8F84001F09FBF3246F7
:100500002A492848BDE8F84001F098BF32462849FA
:100510002448BDE8F84001F091BF26492148BDE8D4
:10052000F84001F0F1B8F8BD23491E4800F0B8FFCB
:100530000421224819F0B6FC2146214817F0CAFBD5
:100540001721204819F0AEFC00230A2297F8241046
:100550001B4817F07FFB10211B4819F0A3FC0C214E
:10056000174817F0B7FB0B21184819F09BFC2946D8
:10057000134817F0AFFB124817F05CFB9EE71449D5
:10058000084800F08DFF1521124819F08BFC294610
:100590000B4817F09FFB0A48BDE8F84017F04ABB2C
:1005A000644E0200C82E0020244E0200344E020089
:1005B000404E0200504E0200D04D0200E44D0200B9
:1005C0001871FF1FEC4D0200044E0200184E02008D
:1005D000744E0200884E020038B590F825300B2B7F
:1005E000044627D91F49204800F05AFF17211F4809
:1005F00019F058FC00230A2294F825101C4817F023
:1006000029FB17211B4819F04DFC00230A2294F8FE
:100610002410174817F01EFB1021174819F042FC50
:100620000C21134817F056FB0025114817F002FB68
:10063000284638BD03EB430317210C48E55C19F04D
:1006400031FC00230A2294F82510094817F002FB18
:100650000B210A4819F026FC2946054817F03AFBF9
:10066000284638BDB84E0200C82E0020A04E020019
:100670001871FF1FEC4D0200044E0200184E0200DC
:1006800090F825300B2B04D803EB43031844407833
:10069000704710B513490446134800F001FF1721B5
:1006A000124819F0FFFB00230A2294F82510104885
:1006B00017F0D0FA17210F4819F0F4FB00230A2293
:1006C00094F824100A4817F0C5FA10210A4819F0C6
:1006D000E9FB0C21064817F0FDFA054817F0AAFAC5
:1006E000002010BDCC4E0200C82E0020A04E0200FB
:1006F0001871FF1FEC4D0200044E020090F82530E7
:100700000B2B04D803EB430318448078704710B5D3
:1007100013490446134800F0C3FE1721124819F08C
:10072000C1FB00230A2294F82510104817F092FA12
:1007300017210F4819F0B6FB00230A2294F8241061
:100740000A4817F087FA10210A4819F0ABFB0C2170
:10075000064817F0BFFA054817F06CFA002010BDE4
:10076000E04E0200C82E0020A04E02001871FF1FAC
:10077000EC4D0200044E020090F825300133DBB24C
:100780000B2B80F825308CBF00200120704700BF64
:10079000002380F8253070470022134680F824207B
:1007A00080F82520C2540333242BFBD1704700BFAF
:1007B000FFF7F2BF70B5044615460E460846022103
:1007C00018F094FA2846022118F090FA104A114BBA
:1007D00052F83610012001F500762072266052F89A
:1007E0003520607202F5007500206560E060013B15
:1007F000FDD191F8003292F8002203F00103D207F4
:1008000044BF43F00203DBB2A372204670BD00BFB9
:1008100088920200C0D4010090F814322DE9F0470C
:100820000746002B7CD1DFF80C82794AD8F800000B
:10083000D468784D784E92F809E092E80A0091F871
:10084000009093F800C0117A714B1CEA0E0F09EA70
:1008500001015DD09B7A03F0030309B143F0040367
:1008600043F008039910013B91720D2B0AD8DFE881
:1008700003F075077207096F75756F0907720775C1
:10088000013CD460A04219D0DFF89891DFF890A124
:10089000D9F80030002C2246B8BFE21C92109A42D0
:1008A000CAF8002008D04FF47A715C480EF0DEFAE6
:1008B000DAF80030C9F80030C8F800402B686968E1
:1008C0001A78687A0C782B7A5249044202EA0302B9
:1008D00016D08B7A03F003030AB143F0040343F00C
:1008E00008039A10013BAA720D2B00F28180DFE809
:1008F00003F07B7766777F387B7B387F7766777B03
:100900008B7A03F00303002AEBD043F00403E8E7FB
:100910009B7A03F003030029A4D043F00403A1E76A
:100920003F4E404C40484149394ADFF80881394D33
:1009300000233360384E2360036087F814321C466E
:100940000B601846D360C8F80030EB60336072E784
:10095000023CD46096E70234D46093E70134D4605B
:1009600090E7EC68023CEC6007F5AE7016F0C4FE50
:100970002F4B00282DD11A68042A3BDC3268A41AB8
:1009800004EB840402EB44049442EC6026D01A6821
:10099000264D254F0132002C1A6022462B68B8BF25
:1009A000E21C92109A423A6006D040F2E9311B48AC
:1009B0000EF05CFA3B682B603460BDE8F087EC68B1
:1009C0000234EC6007F5AE7016F096FE184B002866
:1009D000D1D03268002194421960D8D1BDE8F087A7
:1009E000EC68013CEC60BFE7EC680134EC60BBE70D
:1009F000EC68B9E7092A326805DCA41A04EB840420
:100A000002EB8404C0E76421A41A01FB0424BBE7C1
:100A1000107CFF1F207CFF1F847CFF1FAC67002021
:100A2000547CFF1F5C7CFF1F587CFF1F607CFF1FF6
:100A3000DC7BFF1F7C7CFF1FF8B590F81432002B85
:100A400047D12F4D2F4A2868D468577A92E848003A
:100A5000197896F800E0137A2A4E1EEA070F01EA89
:100A600003012ED0B37A03F0030309B143F004036A
:100A700043F008039910013B91720D2B0AD8DFE86F
:100A800003F03C07390709363C3C36090739073C77
:100A9000013CD460A04213D01B4E1C4F3368002C85
:100AA0002246B8BFE21C92109A423A6006D04FF438
:100AB0007A71174804F0FCFE3B6833602C60F8BD87
:100AC000F8BDB37A03F003030029D3D043F0040345
:100AD000D0E70E4E0C490B4A094D002380F8143222
:100AE0001C4633600B601846D3602B60ADE7023CB8
:100AF000D460CFE70234D460CCE70134D460C9E7D6
:100B00008C7CFF1F107CFF1FB47CFF1FB07CFF1F7D
:100B1000A82D00202DE9F84F002383461D460E46E0
:100B200080F87431994600F5D67A00F180081024D7
:100B3000012706E08BF8747101350134102DE4B201
:100B400016D05AF8043F002BF6D0B342F2D8DBF8A7
:100B50001032CAF800905B5D2146404653B901351A
:100B600012F044FE0134102D8BF87571E4B2E8D117
:100B7000BDE8F88F12F0FAFD0028DDD1214640468D
:100B800012F016FE8BF87571D6E700BF38B5144C1D
:100B90000C40002C1FDB031993F8A0516DB9012202
:100BA00083F8A021C9B2803012F002FE2A46214605
:100BB0000C48BDE838400BF00BBD002283F8A021A3
:100BC000C9B2803012F012FE214601220548BDE86C
:100BD00038400BF0FDBC013C64F00F040134DAE74F
:100BE0000F0000800431002038B5144C0C40002C5C
:100BF0001FDB031993F8A0216AB90125C9B280301F
:100C000083F8A05112F0D4FD2A4621460C48BDE8D5
:100C100038400BF0F1BC0025C9B2803083F8A051F8
:100C200012F0E4FD2A4621460548BDE838400BF0A5
:100C3000E3BC013C64F00F040134DAE70F000080EC
:100C40000431002038B5144C0C40002C1FDB031974
:100C500093F8A0216AB90125C9B2803083F8A05168
:100C600012F0A6FD2A4621460C48BDE838400BF09C
:100C700063BE0025C9B2803083F8A05112F0B6FDE2
:100C80002A4621460548BDE838400BF055BE013CD8
:100C900064F00F040134DAE70F0000800431002013
:100CA000154B0B40002B10B504461FDB234493F873
:100CB00080216AB9012283F88021C9B204F1800041
:100CC00012F076FD012384F8153284F8143210BD39
:100CD000002283F88021C9B204F1800012F086FD61
:100CE000012384F8153284F8143210BD013B63F0FF
:100CF0000F030133DAE700BF0F0000802DE9F8434E
:100D000080460F4600F1800600F29F1510244FF038
:100D1000000903E00134E4B2202C0DD015F8013FA6
:100D2000002BF7D0214601343046E4B212F05EFDCC
:100D3000202C85F80090F1D1094B3B40002B09DBBA
:100D400043440122F9B2304683F8A021BDE8F843BC
:100D500012F02EBD013B63F00F030133F0E700BF3B
:100D60000F000080F8B507464D1E00F180061024E4
:100D700005E00134E4B212F01BFD202C0DD015F873
:100D8000013F21463046002BF3D121460134304645
:100D9000E4B212F02BFD202CF1D1012387F875313C
:100DA000F8BD00BF38B500F5D0750446C0F8105244
:100DB00000F29F13002200F2AF1003F8012F8342CC
:100DC000FBD106480BF0ECF92318012229462046F6
:100DD00083F89F21BDE83840FFF7C4BF04310020ED
:100DE00038B505460C480BF08DFA05F5D071C5F8FD
:100DF000101205F29F1305F2AF14002203F8012F21
:100E0000A342FBD12B180122284683F8A021BDE87C
:100E10003840FFF7A7BF00BF0431002038B50546B2
:100E20000C480CF07DF805F5D071C5F8101205F2EC
:100E30009F1305F2AF14002203F8012FA342FBD148
:100E40002B180122284683F8A021BDE83840FFF77F
:100E500089BF00BFAC67002038B500F5D0750446E7
:100E6000C0F8105200F29F1300F2AF11002203F8F5
:100E7000012F8B42FBD12946044810220BF024F8A5
:100E800029462046BDE83840FFF76CBF04310020FA
:100E9000B64B1B6870B5013B00F5AA7504462846A1
:100EA0000C2B00F28480DFE803F04B4B6C4B4B8241
:100EB0004B4B4B25824B070016F0E6FB002840F019
:100EC000038104F5AE75284616F0DEFB002840F0DD
:100ED0009E8004F5B275284616F0D6FB002840F037
:100EE000518104F5B674204616F0CEFB002840F080
:100EF000D38070BD16F0C8FB002840F0D48004F504
:100F0000AE75284616F0C0FB002840F0068104F5B7
:100F1000B275284616F0B8FB002840F0AB8004F507
:100F2000B674204616F0B0FB0028E2D0204616F03A
:100F3000F1FB002800F040818D4B0022DA6070BD8B
:100F400016F0A2FB002840F0DE8004F5AE752846BE
:100F500016F09AFB002840F0F68004F5B27528469A
:100F600016F092FB002864D104F5B674204616F002
:100F70008BFB0028BDD0204616F0CCFB0028DBD12F
:100F800070BD16F081FB0028B3D0284616F0C2FBD6
:100F9000002800F01281774A636A0021D160002B9B
:100FA00000F00C814FF47A70BDE87040184716F0DD
:100FB0006BFB00284ED104F5AE75284616F064FB95
:100FC000002840F0AE8004F5B275284616F05CFBB0
:100FD00060B904F5B674204616F056FB002888D098
:100FE000204616F097FB0028A6D170BD284616F0C3
:100FF00091FB0028EDD0604B002204F5B674DA6056
:10100000204616F041FB00283FF473AFE8E728467E
:1010100016F080FB00283FF45CAF584B002204F52B
:10102000B275DA60284616F02FFB00283FF459AF5E
:10103000A8E0284616F06EFB002895D04E4B002203
:1010400004F5B674DA60204616F01EFB00283FF463
:1010500050AF90E7284616F05DFB0028ABD0454B1B
:10106000002204F5AE75DA60284616F00DFB002864
:10107000A9D056E0284616F04DFB00283FF44FAFAC
:101080003D4B002204F5B674DA60204616F0FCFAF7
:1010900000283FF42EAF49E7204616F03BFB00281E
:1010A0007FF44AAF70BD284616F034FB00283FF4A9
:1010B00026AF304A636A0021D160002B3FF41FAF96
:1010C0004FF47A7098471AE7284616F023FB002859
:1010D0003FF4F7AE2A480AF0CBFF421E54FA82F2E0
:1010E00092F8A03183F0010382F8A031002B5BD18C
:1010F00000F10F01C9B204F1800012F077FB012367
:1011000084F87531DDE6284616F004FB00283FF42C
:101110001CAF1B480AF0ACFF17E7284616F0FAFA96
:10112000F5E6284616F0F6FA00283FF44CAF134BCC
:10113000002204F5B275DA60284616F0A5FA0028F8
:101140003FF447AF52E7284616F0E4FA00283FF490
:1011500004AF0A4B002204F5B275DA60284616F097
:1011600093FA00283FF400AF63E700BFBC6FFF1F96
:10117000407CFF1F107CFF1F307CFF1F207CFF1F67
:1011800004310020284616F0C5FA00283FF4A9AE25
:101190000B4B002204F5B674DA60204616F074FAA0
:1011A00000283FF4A6AE77E700F10F01C9B204F1C1
:1011B000800012F0FDFAA2E770BD70BD70BD00BFE7
:1011C000307CFF1FA1F57A71032906D8DFE801F012
:1011D0000E0A0602074B0022DA607047064B002217
:1011E000DA607047054B0022DA607047044B00223A
:1011F000DA607047407CFF1F307CFF1F207CFF1FA0
:10120000107CFF1F70B500F586750446284616F061
:101210003BFA00B970BD284616F07CFA0028F9D0D8
:10122000A36ABDE87040184708B590F8A40017F00D
:1012300047F9084A1368C0F58040A3F16401884269
:1012400002DB6433984201DD106008BD4FF0FF30CF
:1012500008BD00BF6C7CFF1F08B590F8A80017F010
:101260002FF9074A1368A3F16401884202DB643353
:10127000984201DD106008BD4FF0FF3008BD00BF8F
:10128000647CFF1F30B500F58A7483B005462046A4
:1012900016F0FAF930B9204616F032FA80B900207B
:1012A00003B030BD204616F035FA0028F3D00A4BC3
:1012B0001B680193019BC5F8B030012003B030BD1D
:1012C00095F824320020042BC5F8B000E7D185F84A
:1012D0002402A5F82602E3E7CC940020054B82B057
:1012E0001B680193019B03F5FA63C0F8283202B032
:1012F000704700BFCC940020054B82B01B6801935F
:10130000019B03F5FA63C0F82C3202B0704700BFAE
:10131000CC940020F0B5B1B007462849284E684665
:10132000144616F073FE274904A816F06FFE2649EE
:1013300008A816F06BFE25490CA816F067FE244994
:1013400010A816F063FE234914A816F05FFE224988
:1013500018A816F05BFE21491CA816F057FE20497C
:1013600020A816F053FE1F4924A816F04FFE1E4970
:1013700028A816F04BFE1D492CA816F047FE86FB48
:101380000426E317C3EB660606EB4601A4EB8101D6
:10139000C9B20DEB0111384616F04CFEF1B23846D9
:1013A00016F0DCFE6D4630AC103C204616F0EEFD2B
:1013B000AC42F9D1384631B0F0BD00BF244F020035
:1013C000ABAAAA2A284F0200745002002C4F020038
:1013D000844E0200F4510200304F02001853020004
:1013E000344F0200384F02003C4F0200404F0200D1
:1013F000F0B5144DDFF854E00E4617460FCD8FB010
:1014000002AC0FC40FCD0FC495E80F008EFB065E33
:10141000F517C5EB6E0584E80F0005EB450EA6EB4E
:101420008E060EABF6B203EB8606EDB256F8303CF4
:10143000054A0095384604211EF038F838460FB0AA
:10144000F0BD00BFF44E0200444F0200ABAAAA2A2E
:1014500010B5012200210D48FFF7ACF9032202214B
:101460000B48FFF7A7F9052204210A48FFF7A2F964
:10147000082206210848FFF79DF921232322222173
:101480000648BDE8104011F0F3BD00BF107CFF1FFF
:10149000207CFF1F307CFF1F407CFF1F907CFF1FC4
:1014A00010B586B00B460A4C0A4A684615211DF055
:1014B000FDFF00221146204611F006FF68461EF08F
:1014C0007FFA69460246204616F078FB06B010BD4A
:1014D000907CFF1F4C4F020070B5324D04463248DD
:1014E0000AF06EFE2B68052B064645D0072B2AD046
:1014F000042B10D020462D49FFF7D2FF06212C489F
:1015000018F0D0FC29682B4816F0E4FB2948BDE808
:10151000704016F08FBB68B104F29F140025294675
:1015200021480AF095FE013580F00100B54204F82B
:10153000010FF4D10921204818F0B4FC1D48BDE882
:10154000704016F077BB70B104F29F140025294655
:1015500015480AF0A1FE0135003018BF0120B54240
:1015600004F8010FF3D10B21144818F09BFC11482B
:10157000BDE8704016F05EBB58B104F29F14002520
:10158000294609480AF076FE0135B54204F8010FF4
:10159000F6D109210A4818F085FC0648BDE87040DC
:1015A00016F048BBBC6FFF1F04310020844F0200BF
:1015B000B44F02001871FF1F784F0200604F020005
:1015C0006C4F020010B588B00B4600920A4C0B4AD3
:1015D00002A815211DF06AFF00221146204611F0D5
:1015E00073FE02A81EF0ECF902A90246204616F08E
:1015F000E5FA08B010BD00BF907CFF1FBC4F020091
:1016000030B5D0F818120C4C0C4A87B005460131A1
:1016100068461DF04BFF0021C5F828122046022223
:1016200011F052FE68461EF0CBF96946024620468C
:1016300016F0C4FA07B030BD907CFF1FD04F0200F7
:1016400030B5D0F81C120C4C0C4A87B0054601315D
:1016500068461DF02BFF0021C5F82C122046012200
:1016600011F032FE68461EF0ABF96946024620468C
:1016700016F0A4FA07B030BD907CFF1FD04F0200D7
:1016800010B5D0F8283282B004462BB10E4A126849
:101690000092009A934210D3D4F82C325BB10A4ADC
:1016A00012680192019A934205D22046FFF7C8FFC3
:1016B0000023C4F82C3202B010BDFFF7A1FF0023B5
:1016C000C4F82832E8E700BFCC94002070B50D4D77
:1016D0000C460646FFF794FF02220021284611F02F
:1016E000F3FD20461EF06CF921460246284616F00E
:1016F00065FA20461EF064F9142828BF1420C6F8A5
:10170000180270BD907CFF1F70B5114D0C46064647
:10171000FFF776FF28460222002111F0D5FD204672
:101720001EF04EF921460246284616F047FA20469A
:101730001EF046F9C6F8180220461EF041F901468F
:10174000204618F0AFFB0348BDE8704016F072BAAF
:10175000907CFF1F1871FF1F10B586B00B460D4A15
:101760000D4C152168461DF0A1FE68461EF028F9B3
:10177000C0F11001C9B22046002211F0A5FD684653
:101780001EF01EF969460246204616F017FA06B00A
:1017900010BD00BFE84F0200907CFF1F70B50E4CDB
:1017A00005460E4620460122002111F08DFD132230
:1017B0000A49204616F002FA20460222002111F0C2
:1017C00083FD3146204616F00FFA1323C5F8183270
:1017D000C5F81C3270BD00BF907CFF1FEC4F0200AB
:1017E0002DE9F04F2DED028B91B000F5C071039003
:1017F0007C480AF015FB002840F09180039B029082
:10180000FF2706468046814601900446BB463D467A
:10181000009703F27F1AB7EE008A02E00134102C21
:101820004FD01AF8012F002AF8D0224608A86D4997
:101830000AF0F8F89DF824200098824208D0019917
:101840000131CBB290420193034628BF1346009367
:10185000DDED0D7AF4EE487AF1EE10FA03D0029A3B
:101860000132D3B20293F4EEC87AF1EE10FA2146B7
:101870005C48D8BFB0EE678A0AF0C6FCA84207D021
:10188000854209F1010928BF05465FFA89F9EDB2E1
:101890009DF839205A4506D008F1010893455FFAB2
:1018A00088F828BF93469DF83820BA42B6D09742B0
:1018B00004F1010406F1010628BF1746102CF6B208
:1018C000AFD101220021484811F0FEFC1222474905
:1018D000454816F073F9294604A816F0C9FBB9F17A
:1018E000010F25D9424920E0424904A816F028FCFE
:1018F000069B112BF8D9022200213B4811F0E4FC91
:1019000004A9394816F070F9039C102312220DEB3C
:101910000300C4F81822C4F81C3216F037FB11B0CB
:10192000BDEC028BBDE8F08F324904A816F008FC2C
:10193000069B022BF8D9594608A816F099FB08A96E
:1019400004A816F0F9FB08A816F020FBB8F1010F67
:1019500005D9274900E0274904A816F0F1FB069BAA
:10196000052BF8D9394608A816F082FB08A904A867
:1019700016F0E2FB08A816F009FB012E05D91C4958
:1019800000E01C4904A816F0DBFB069B082BF8D9E5
:10199000009A039908A8FFF7BDFC08A904A816F04F
:1019A000CBFB08A816F0F2FA019B012B05D91049D0
:1019B00000E0104904A816F0C3FB069B0C2BF8D9D5
:1019C000B0EE480A022108A816F066FB08A904A890
:1019D00016F0B2FB08A816F0D9FA029B012B87D9A2
:1019E000034982E704310020907CFF1F145002005D
:1019F000285002006C50020010B502220C460B4821
:101A0000122111F061FC0A490848022216F0D6F8AA
:101A1000082CD4BF132112210448022211F054FCD7
:101A200021460248BDE8104016F054B9907CFF1FD3
:101A30005C4F020038B504460E480AF011F804F570
:101A4000D0710546C4F8101204F29F1304F2AF10CF
:101A5000002203F8012F8342FBD1631901222046A3
:101A600083F8A021FFF77EF929462046BDE83840DB
:101A7000FFF7C2BF0431002010B503220C460B480B
:101A8000122111F021FC0A490848022216F096F8AA
:101A9000082C94BF132112210448032211F014FCD6
:101AA000611C0248BDE8104016F014B9907CFF1F7D
:101AB0005C4F020030B5204B1B7883B004460D46C6
:101AC0001BB91E4B1B68092B12D01D48A46B09F0D3
:101AD000D5FF1C4929400029024604DBC9B2022077
:101AE000A04703B030BD013961F00F010131F5E7C6
:101AF000FFF704F913492940002918DBCDB2294624
:101B00000F4809F0D3FF0E4809F09CFF014620461C
:101B1000FFF7FAFD0C4B1B680193019B03F5FA6379
:101B20002946C4F828322046FFF7A6FFD9E7013935
:101B300061F00F010131E1E7FD660020BC6FFF1F7E
:101B4000043100200F000080CC94002010B5022248
:101B50000C460D480F2111F0B7FB0C490A48022230
:101B600016F02CF8092C4FF0020294BF10210F211F
:101B7000054811F0A9FB214600230A220248BDE8CE
:101B8000104016F067B800BF907CFF1F5C4F02004A
:101B900038B504460E4809F071FF04F5D0710546CA
:101BA000C4F8101204F29F1304F2AF10002203F8DD
:101BB000012F8342FBD163190122204683F89F2124
:101BC000FFF7D0F829462046BDE83840FFF7BEBFF2
:101BD0000431002038B5594D2B68013B04460C2BCD
:101BE00000F2A180DFE803F05F6B6D07071A07269C
:101BF000313C4A948900002300F5D075026A4362A3
:101C0000012380F83132C0F810528262FFF764FC81
:101C100029462046BDE83840FFF7A4B8036A83622E
:101C2000002200F5C0714262C0F81012BDE83840D1
:101C3000FFF798B88368026A4362012380F8313263
:101C40008262BDE83840FFF7ADB80023026A436204
:101C5000012380F831328262BDE83840FFF7C0B816
:101C6000C36A026A4362012380F831328262FFF75D
:101C7000D5F83348BDE838400BF0CEBF036A836225
:101C800000F5D07100224262C0F8101200F29F13DA
:101C900000F2AF1003F8012F8342FBD12046BDE8CC
:101CA0003840FFF75FB8C368226A63620123A2620B
:101CB00084F831322046BDE83840FFF7BBBE0369E7
:101CC000F2E7036B026A436200F5D071012382627E
:101CD00080F83132C0F8101200F29F13002200F297
:101CE000AF1003F8012F8342FBD12046FFF73AF8EB
:101CF0001448BDE8384003F077BC0023026A436211
:101D0000012380F831328262BDE83840FFF7A4B881
:101D1000436B026A4362012380F831328262BDE87C
:101D20003840FFF735BF2921074818F0BBF829686C
:101D30000648BDE8384015F0CDBF00BFBC6FFF1F9F
:101D4000AC670020A82D00202C5002001871FF1F46
:101D5000134A144B126870B553F82250124C86B0D7
:101D6000064628461DF02CFED6F820120F4AC6F86B
:101D700020028142B8BF01462B46013168461DF062
:101D800095FB20460122002111F09EFA68461DF0C5
:101D900017FE69460246204615F010FF06B070BDDA
:101DA000BC6FFF1F7C6FFF1F907CFF1F585002000D
:101DB00070B500F5927586B00446284615F064FCAF
:101DC000002840F02581284615F09AFC002840F0B4
:101DD000E88004F59A75284615F056FC002840F076
:101DE000F380284615F08CFC002840F0A38004F511
:101DF0009675284615F048FC002840F0AE8028462D
:101E000015F07EFC002870D104F59E75284615F06B
:101E10003BFC002873D1284615F072FC00283FD106
:101E200004F5A275284615F02FFC002842D128465B
:101E300015F066FC70B904F5A675284615F024FC6B
:101E400090B9284615F05CFC10B10023C4F8CC30E2
:101E500006B070BD002304F5A675C4F8C830284646
:101E600015F012FC0028ECD0284615F053FC002891
:101E7000E7D02046FFF7C4FB964B092220461A60A4
:101E8000FFF7A8FE2046FFF763FF934B1B680593FF
:101E9000059BC4F8CC30012384F8143206B070BD21
:101EA000002304F5A275C4F8C430284615F0ECFBF5
:101EB0000028BCD0284615F02DFC0028B7D02046BD
:101EC000FFF79EFB834B082220461A60FFF782FE35
:101ED0002046FFF73DFF804B1B680493049BC4F82A
:101EE000C830012384F81432A5E7002304F59E7559
:101EF000C4F8BC30284615F0C7FB00288BD0284614
:101F000015F008FC002886D02046FFF779FB714BBE
:101F1000072220461A60FFF75DFE2046FFF718FFF4
:101F20006D4B1B680393039BC4F8C430012384F8F2
:101F3000143275E794F824220023032A04F59675D9
:101F400004BF84F82432A4F82632C4F8C0302846EE
:101F500015F09AFB00283FF452AF284615F0DAFB43
:101F600000283FF44CAF2046FFF74AFB594B1A6854
:101F7000052A00F08C80042A00F09480574A1268E9
:101F80001A602046FFF726FE2046FFF7E1FE524B7F
:101F90001B680293029BC4F8BC30012384F81432FE
:101FA00032E794F824220023022A04F59A7504BF2C
:101FB00084F82432A4F82632C4F8B830284615F044
:101FC00063FB00283FF40DAF284615F0A3FB002863
:101FD0003FF407AF2046FFF713FB3E4A1368062B7A
:101FE00050D00C2B58D00D2B42D03D4B1B681360AA
:101FF0002046FFF7EFFD2046FFF7AAFE364B1B6891
:102000000193019BC4F8C030012384F81432EEE63A
:10201000284615F07FFB00283FF4D5AE2046FFF799
:10202000EFFA2C4A1368012B27D0022B3FD0032B49
:1020300014D00A2B45D02B4B1B6813602046FFF7AA
:10204000C9FD2046FFF784FE234B1B680093009BCD
:10205000C4F8B830012384F81432BAE6214D22497D
:1020600001264FF0FF300A232E6008601360E5E779
:102070001B4906230B601360BAE71A48022103606C
:102080001160DBE716480C2103601160B0E71349CB
:1020900004220A601A6074E7114906200D230860C3
:1020A0001360A5E70D4905220A601A6069E70D4D26
:1020B0000D4901264FF0FF3003232E6008601360A6
:1020C000BCE7084D084901234FF0FF302B60136037
:1020D0000860B3E7BC6FFF1FCC940020386FFF1F70
:1020E000346FFF1F3C6FFF1FB86FFF1F70B50446B2
:1020F00016480E4609F0C2FC06F00F030133984261
:1021000006D004F5D0712046BDE87040FEF72ABE27
:10211000054631462046FEF7F1FD29462046FFF7E9
:1021200015FD0A480AF0EEF801462046FFF7A4FC28
:10213000074B062220461A60FFF74CFD2046FFF7AA
:1021400007FE012384F8143270BD00BF0431002063
:10215000BC6FFF1F10B500220C461248112111F070
:10216000B3F8032210490F4815F028FD632C4FF0F7
:1021700000020CDC092CCCBF12211321094811F0FC
:10218000A3F821460748BDE8104015F0A3BD112172
:10219000044811F099F821460248BDE8104015F0B6
:1021A00099BD00BF907CFF1F0C50020010B50122AA
:1021B0000C461248112111F087F8032210490F48EC
:1021C00015F0FCFC092C4FF001020CDD632CD4BF90
:1021D00012211121094811F077F821460748BDE87E
:1021E000104015F077BD1321044811F06DF8214619
:1021F0000248BDE8104015F06DBD00BF907CFF1F88
:102200000C500200F0B587B005460C9F0D9E0E9C49
:102210000F9829606A601499159AAB60EF60109B63
:10222000119F2E616C61129E139C6963AA63EB611E
:10223000A8612F62EE622C6305F1A80305F1D001BD
:10224000002243F8042F9942FBD105F27F1205F2D8
:102250008F13002102F8011F9A42FBD105F29F1152
:10226000002203F8012F9942FBD105F5D67305F53D
:10227000F671002243F8042F9942FBD105F2EF13C7
:1022800005F20F21002203F8012F9942FBD1762499
:1022900075217422732305F1800677270394029138
:1022A000019200933046722304977122702111F03D
:1022B00095FBEB6B002BC8BF002420DD2146304688
:1022C00011F076FA304611F0E3FB0A2016F05EFDBD
:1022D0000134EB6BE4B29C42F0DB002B0FDD0024F9
:1022E0002146304611F082FA304611F0D1FB0A2027
:1022F00016F04CFD0134EB6BE4B29C42F0DB142091
:1023000016F044FD2846FFF765FC2846FFF720FD40
:102310000F480EF007FD01462846FFF71BFF0C484B
:102320000EF002FD01462846FFF740FF094809F07C
:10233000E9FF01462846FFF79FFB064809F09EFB90
:102340000146284607B0BDE8F040FFF7FFBB00BFDD
:10235000D090002004310020F8B5144D0C461746EB
:102360000646FFF74DF902220021284610F0ACFF87
:1023700020461DF025FB21460246284615F01EFC8E
:1023800020461DF01DFB0222C1B2284610F09CFF22
:102390003946284615F09EFC20461DF011FB0630FC
:1023A000142828BF1420C6F81802F8BD907CFF1F1F
:1023B000F8B51F4C1F4F154600220E462046114609
:1023C00010F082FF204611221B4915F0F7FB002276
:1023D0001146204610F078FF30461DF0F1FA3146E4
:1023E0000246204615F0EAFB20460122002110F0AB
:1023F0006BFF28461DF0E4FA29460246204615F0F8
:10240000DDFB30461DF0DCFA0146304617F04AFD90
:10241000384615F00FFC28461DF0D2FA0146284632
:1024200017F040FD3846BDE8F84015F003BC00BF8A
:10243000907CFF1F1871FF1F5C500200B0B588B080
:1024400002AF04460B4600921521164A164D384637
:102450001DF02CF838461DF0B3FAD4F81832C4F841
:10246000180298420146B8BF194601F1080323F04B
:102470000703ADEB030D02AC3B460C4A013120468D
:102480001DF014F828460222002110F01DFF2046FE
:102490001DF096FA21460246284615F08FFB1837A4
:1024A000BD46B0BD70500200907CFF1F5850020026
:1024B0002DE9F04790F8313282B00546002B40F00C
:1024C0008280584E584A3068D46892F809E092E801
:1024D0008800197897F800C0137A534F1CEA0E0F42
:1024E00001EA03015AD0BB7A03F0030309B143F0B8
:1024F000040343F008039910013B91720D2B0AD895
:10250000DFE803F05E075807095B5E5E5B0907586A
:10251000075E013CD460C31EA34202DC0330A0422C
:1025200039DA424809F0AAFA3368E31A48BF03339C
:1025300000EBA307002F39DC0127DFF80081D8F872
:1025400000309F4226D05FFA87F94946374809F0A4
:10255000C1FB3A4636492846FFF770FF354B364AED
:102560001B680193019B126803F5FA630C2AC5F8F6
:10257000283239D049462846FFF7E8FA2B4809F0B7
:10258000C1FE01462846FFF777FA2846FFF722FBEF
:10259000C8F80070346002B0BDE8F087BB7A03F081
:1025A00003030029A7D043F00403A4E7022FA8BF28
:1025B0000227C2E70234D460ADE7023CD460AAE748
:1025C0000134D460A7E7002380F831321748154E54
:1025D00009F054FA1949144A086003B29B001C46DA
:1025E00018463360D36070E7D8F80030E8192B4400
:1025F000002209F10F014FF0010A05F1800980F86E
:102600009FA1C9B283F89F21484611F0D1F8D8F8AC
:1026100000100F314846C9B211F0E8F885F875A1ED
:10262000B6E700BF807CFF1F107CFF1F0431002035
:1026300078500200CC940020BC6FFF1FF07BFF1F7E
:102640002DE9F041A84D2DED028B2B68DA0782B001
:10265000044640F1EB81A54D2B68DB0740F1D781A3
:1026600094F81432002B40F0AF81A14DA14E2B689D
:1026700069681A78687A0F782B7A9D49074202EACE
:1026800003021DD08B7A03F003030AB143F0040365
:1026900043F008039A10013BAA720D2B00F26881E7
:1026A000DFE813F0540150014C015001660116009F
:1026B000540154011600660150014C0150015401AF
:1026C0008B7A03F00303002AE4D043F00403E1E72C
:1026D000EB68023BEB6007EE903A9FED876A96ED60
:1026E000007ADFED866AF8EEE77A87EE868A77EE83
:1026F000267AB4EEE78AF1EE10FA06DA37EE667A59
:10270000B4EEC78AF1EE10FA40D87D4BDFED7D7A4A
:10271000D3ED006AB1EE007AE6EEC77AB4EEE78A4E
:10272000F1EE10FA40F13A81B9EE008A26EE888A7D
:10273000DFED717A68EE277AFDEEE77AC5ED037A70
:10274000714D724F95ED000AF5EE007A68EE277A2A
:10275000F4EE407AF1EE10FAC7ED007A40F07581A0
:102760009FED650A6A4967EE807A2046FDEEE77ABA
:1027700017EE902AFFF762FE664B86ED008A1B6813
:102780000193019B03F5FA63C4F82832624A136887
:10279000506819780578507A137A054201EA0301E6
:1027A00000F0F380937A03F0030309B143F00403CC
:1027B00043F008039910013B91720D2B00F2D68073
:1027C000DFE813F0D000C800CC00C800D4000E0031
:1027D000D000D0000E00D400C800CC00C800D0004B
:1027E000D568023DD5604D4E3368DA1EAA4202DC40
:1027F000DA1CAA421DDA4A4FDFF83C81EA1A3B682C
:10280000D8F8001048BF033203EBA203082BA8BF7F
:10281000082323EAE37399423B6006D019464148F6
:102820000EF07AFA3968C8F800102046FFF7BEFCAF
:1028300035603D4A1368506819780578507A137AE4
:10284000054201EA030100F09780937A03F0030345
:1028500009B143F0040343F008039910013B91725E
:102860000D2B00F28780DFE803F03B373337850715
:102870003B3B07853733373BD568023DD5602B4E50
:102880003068C31EAB4202DCC31CAB421BDA284AD1
:10289000281A136848BF033003EBA000002840F358
:1028A000E280B0F5967FA8BF4FF49670214F10607C
:1028B0003B68DFF87C80984204D063699847D8F879
:1028C00000303B60356002B0BDEC028BBDE8F081AA
:1028D000D5680235D560D2E7D568013DD560CEE731
:1028E000D5680135D560CAE70C7CFF1F047CFF1F4B
:1028F000207CFF1F687CFF1F0000C8420AD7233DD1
:10290000707CFF1F00000000AC7CFF1FE47BFF1FFA
:1029100080500200CC940020307CFF1FBC7CFF1F45
:10292000007CFF1FD0900020407CFF1F087CFF1F11
:10293000787CFF1FE87BFF1FFC7BFF1FEB680233E7
:10294000EB60C8E6EB68013BEB60C4E6EB68013383
:10295000EB60C0E6D568013DD56044E7D568023537
:10296000D56040E7D5680135D5603CE7D5683AE7E2
:10297000EB68B0E6D56882E7937A03F00303002999
:102980003FF46BAF43F0040367E7937A03F003036C
:1029900000293FF40FAF43F004030BE7334BD3EDB3
:1029A000007A27EE877AB4EEC78AF1EE10FA7FF745
:1029B000C7AEDFED2F7A67EE277AB0EE478AFDEEDD
:1029C000E77AC5ED037ABBE62A482B4DDFF8C4E071
:1029D0002A4E0023002204F5C077036084F81422F5
:1029E000EA6039462648CEF80030336009F0FAFC38
:1029F000244B234883ED000A394609F031FDF7EEF8
:102A0000007A37EEC00A194B83ED000A2FE62846FC
:102A100015F0BEFE00283FF423AE1B480EF084F9EB
:102A20001A4B1860284615F0B9FE19E6284615F02D
:102A3000AFFE00283FF40FAE13480EF071F9144BAF
:102A40001860284615F0AAFE05E637EEC00A94F88D
:102A500030220B4804F5C07109F086FED7ED007AEC
:102A6000C5ED007A7CE6012020E700BF747CFF1FE3
:102A70000000C842E47BFF1F207CFF1F687CFF1F13
:102A800004310020707CFF1FD0900020007CFF1FCD
:102A9000787CFF1FAC7CFF1F384B1B680D2B00D0D0
:102AA00070472DE9F041364BCFB20B4007F00F06CF
:102AB000002B82B006F1010639DBC418054694F8F4
:102AC000A0317BB12F4B93F80080B8F1000F33D1C8
:102AD000424631462C4809F06DFA002838D102B040
:102AE000BDE8F081274B1B78DBB90122314626482F
:102AF00009F060FA30B3012384F8A031394605F1BA
:102B0000800010F055FE324620492846FFF796FC1B
:102B10001F4B1B680193019B03F5FA63C5F828322C
:102B2000DDE7836B3246012104209847D7E7013B5C
:102B300063F00F030133C0E7836B324600210420AA
:102B40009847CCE7394605F1800010F04FFEC6E704
:102B5000394605F1800084F8A08110F047FE324626
:102B60000C492846FFF76AFC094B1B680093009B41
:102B700003F5FA63C5F82832B1E700BFBC6FFF1F49
:102B80000F000080FD660020043100209C500200F0
:102B9000CC9400208C50020010B5013A8CB0044651
:102BA000032A6BD8DFE802F052371D0240F6B83333
:102BB000994200F086806AD941F28833994200F048
:102BC000AA8041F65833994264D15F49FEF79CFDD3
:102BD0005E4B1B680B930B9B03F5FA63C4F828321A
:102BE00053E040F6B833994277D050D941F2883358
:102BF000994200F09C8041F6583399424AD1544999
:102C0000FEF782FD514B1B680893089B03F5FA639E
:102C1000C4F8283239E04F4A40F6B8339942126876
:102C20003DD034D941F28833994262D041F65833CD
:102C300099422FD14849FEF767FD444B1B68059325
:102C4000059B03F5FA63C4F828321EE0434801915E
:102C50000AF02EF8019940F6B83399422BD016D9D4
:102C600041F28833994250D041F65833994211D1FC
:102C700002463B492046FFF7E1FB06E03949FEF7F3
:102C80000FFC3A21384817F00DF90CB010BDB1F522
:102C90007A7FFAD02046FEF7B3FC0CB010BD334962
:102CA000FFF7CCFB294B1B680393039B03F5FA63E7
:102CB000C4F82832E9E702462C492046FFF7BEFB5C
:102CC000E3E72B49FEF720FD204B1B680993099B86
:102CD00003F5FA63C4F82832D7E72649FEF714FD56
:102CE0001A4B1B680693069B03F5FA63C4F8283257
:102CF000CBE72149FFF7A2FB144B1B680493049B0D
:102D000003F5FA63C4F82832BFE702461B492046A0
:102D1000FFF794FBB9E71A49FEF7F6FC0B4B1B686B
:102D20000A930A9B03F5FA63C4F82832ADE7154904
:102D3000FEF7EAFC054B1B680793079B03F5FA6354
:102D4000C4F82832A1E700BF50510200CC94002003
:102D50001C510200B86FFF1FE8500200AC67002052
:102D6000C85002005851020068510200A8500200E9
:102D700028510200F8500200D8500200B85002005A
:102D8000405102000C510200B1F57A7F38B504D8E9
:102D9000B0F8264294B3002038BD40F6B834A142C2
:102DA00012D8B0F82612B1F57A7FF4D1A0F82642F5
:102DB0002146FFF7F1FE0821284817F073F828484C
:102DC00014F038FF002038BD41F28835A94222D9DD
:102DD00041F65834A142B0F826122ED8A942DAD1D1
:102DE000A0F826422146FFF7D7FE04211D4817F020
:102DF00059F81B4814F01EFF002038BD4FF47A72BA
:102E0000A0F826220B21184817F04CF8144814F0AB
:102E100011FF204638BDB0F82612A142BBD1A0F860
:102E200026522946FFF7B8FE0621104817F03AF857
:102E30000B4814F0FFFE012038BDA142ABD10024A5
:102E4000A0F826422146FFF7A7FE0821084817F000
:102E500029F8034814F0EEFE204638BDB0510200B8
:102E60001871FF1FC4510200A4510200BC5102009E
:102E7000CC51020070B51A4D82B08DED010A0C469E
:102E80000646FEF7BDFB28460222002110F01CFA80
:102E900020461CF095FD21460246284614F08EFE81
:102EA00020461CF08DFD0222C1B2284610F00CFA1B
:102EB0009DED010A10EE100A1BF02AF941EC100BEF
:102EC0000221284614F010FF20461CF079FD063040
:102ED000142828BF1420C6F8180202B070BD00BF25
:102EE000907CFF1FF8B5184D0C4616460746FEF7B6
:102EF00087FB02220021284610F0E6F920461CF04C
:102F00005FFD21460246284614F058FE20461CF07C
:102F100057FD0222C1B2284610F0D6F930461CF007
:102F20004FFD31460246284614F048FE20461CF06C
:102F300047FD044630461CF043FD2044142828BFBA
:102F40001420C7F81802F8BD907CFF1FB0B588B0F8
:102F500002AF0446019300920B46174A174D152104
:102F600038461CF0A3FA38461CF02AFDD4F8183273
:102F7000C4F8180298420146B8BF194601F1080387
:102F800023F00703ADEB030D02AC3B460C4A0131C5
:102F900020461CF08BFA28460222002110F094F9FA
:102FA00020461CF00DFD21460246284614F006FE80
:102FB0001837BD46B0BD00BFD8510200907CFF1F3E
:102FC000585002002DE9F04190F8143282B00546C5
:102FD000002B40F082804E4F4E4E3B6879681A7845
:102FE000787A0C783B7A4A49044202EA030215D007
:102FF0008B7A03F003030AB143F0040343F00803A0
:103000009A10013BBA720D2B65D8DFE803F05860C7
:103010005C60640F58580F64605C60588B7A03F0F2
:103020000303002AECD043F00403E9E7FC68023C08
:10303000FC603368DA1CA24202DB033BA3423BDDA7
:10304000354B1B78C3EB83739B00A34204DC334BEB
:103050001B789B00A34201DAFB601C46304FDFF86F
:10306000D0803A68002C2346B8BFE31C9B109342E3
:10307000C8F800301FD09A1AD2B295F830322948D9
:1030800005F5C07109F0ECFAD8F80080C7F80080A7
:1030900001466A462846FEF7ABF9424603462249F6
:1030A0002846FFF753FF214B1B680193019B03F553
:1030B000FA63C5F82832346002B0BDE8F081FC68DC
:1030C0000134FC60B5E7FC680234FC60B1E7FC68E1
:1030D000013CFC60ADE7FC68ABE715490C4F104ABA
:1030E0000C4E1048002305F5C0740B60FB602146B0
:1030F0001360336009F016F9074B21461870094830
:1031000009F040F9054BC0F17F00187065E700BF7A
:10311000107CFF1FF87BFF1F507CFF1FF47BFF1FFD
:10312000E07BFF1F04310020E4510200CC9400201A
:10313000EC7BFF1F134B1A680D2A10B5044609D803
:103140000123934043F2B6321A405AB91A0714D4F5
:103150005B050ED42046FFF735FF2046BDE8104042
:10316000FFF76EBAFFF7A4F92046BDE81040FFF75D
:1031700067BABDE81040FDF74FBBBDE81040FDF752
:103180005BBC00BFBC6FFF1FF0B58DB01D4D9DF83F
:1031900048409DF84CE09DF85070CDF80CE00134AB
:1031A000019306464B1C00920294049707A8164A06
:1031B000164C14211CF07AF928460222002110F046
:1031C00083F807A81CF0FCFB07A90246284614F068
:1031D000F5FC07A81CF0F4FBC6F81802204614F012
:1031E00029FD14210A4816F05DFE07A81CF0E8FB33
:1031F000014607A816F056FE204614F01BFD0DB040
:10320000F0BD00BF907CFF1FF85102001871FF1F36
:103210001052020008B503221121094810F054F899
:10322000084B1B7801222BB907490548BDE8084027
:1032300014F0C4BC05490248BDE8084014F0BEBC07
:10324000907CFF1F409100206C5002002852020029
:1032500010B50446032290F878110B4810F034F8AA
:10326000D4F81022D4F87831D35C01222BB9074965
:103270000548BDE8104014F0A1BC05490248BDE86E
:10328000104014F09BBC00BF907CFF1F6C500200EC
:103290002C5202002DE9F04F0446102300F14407A0
:1032A00020268FB0036404F16208E66338460025E7
:1032B00010F0FAF9404610F0F7F942463946049505
:1032C00003950295019500952B4604F1800010F0BE
:1032D000EDF9C4F804611A26C4F8E860192604F56B
:1032E0008673C4F8EC601B264FF0250C4FF0240EBB
:1032F0001E2107931F220523C4F8F0604FF0420BF4
:103300004FF0430A4FF027094FF0260818271D20D9
:103310001C26C4F8DCC0C4F8E0E0C4F80831C4F8E6
:10332000FC10C4F80021C4F8A4B0C4F8A8A0C4F8E4
:10333000D49004F58A7AC4F8D880C4F8E470C4F84C
:10334000F460C4F8F800079814F07EF9504614F0C1
:103350007BF904F58E7904F592721646484614F00E
:1033600073F904F5967230461746089614F06CF916
:1033700004F59A710E463846099714F065F904F57C
:103380009E7130460F460A9614F05EF904F5A2705D
:10339000064638460B9714F057F904F5A670074611
:1033A000304604F5AA7B0C9614F04EF9384604F525
:1033B000AE780D9714F048F9584614F045F904F525
:1033C000B277404614F040F904F5B676384614F06A
:1033D0003BF9304614F038F9FF22012384F83022FB
:1033E00084F8313284F8745184F8755184F8145299
:1033F00084F81552C4F81852C4F81C52C4F820526C
:1034000084F82452A4F826524A21714816F04AFD45
:10341000704814F00FFC2B466F48042214210FF063
:1034200077FF0A226D496C4814F0C8FB94F8A40099
:10343000022115F05BFC94F8A800022115F056FC5F
:1034400094F8D800022115F051FC94F8D400022120
:1034500015F04CFC94F8DC00022115F047FC94F8C0
:10346000E000022115F042FC94F8E400022115F07E
:103470003DFC94F8E800022115F038FC94F8EC00CB
:10348000022115F033FC94F8F000022115F02EFC17
:1034900094F8F400022115F029FC0798D4F8D8100C
:1034A00014F0DAF85046D4F8D41014F0D5F84846A1
:1034B000D4F8DC1014F0D0F80898D4F8E01014F028
:1034C000CBF80998D4F8E41014F0C6F80A98D4F8A8
:1034D000E81014F0C1F80B98D4F8EC1014F0BCF814
:1034E0000C98D4F8F01014F0B7F80D9DD4F8F4103F
:1034F000284614F0B1F80798B4F8081114F0C2F88F
:103500005046B4F8081114F0BDF84846B4F8081154
:1035100014F0B8F80898B4F8081114F0B3F8099842
:10352000B4F8081114F0AEF80A98B4F8081114F0C1
:10353000A9F80B98B4F8081114F0A4F80C98B4F892
:10354000081114F09FF82846B4F8081114F09AF8FE
:1035500094F8F800022115F0C9FB94F8FC00022150
:1035600015F0C4FB94F80001022115F0BFFB94F89C
:103570000401022115F0BAFB5846D4F8F81014F0F3
:103580006BF84046D4F8FC1014F066F83846D4F8CE
:10359000001114F061F83046D4F8041114F05CF80E
:1035A0005846B4F8081114F06DF84046B4F8081104
:1035B00014F068F83846B4F8081114F063F830468F
:1035C000B4F8081114F05EF820460FB0BDE8F08F93
:1035D000305202001871FF1F907CFF1F7C520200C6
:1035E00070B516460C460546C9B203221F480FF0B7
:1035F0006BFEFEB92B1993F88061D5F878317EB94E
:103600009C422BD021461A4808F010FE012818D9F8
:10361000334601460A221548BDE8704014F01ABB33
:103620009C424FF0010213D012491048BDE870408F
:1036300014F0C4BA012210490C48BDE8704014F0DF
:10364000BDBA01220D490948BDE8704014F0B6BA70
:103650000B490648BDE8704014F0B0BA0122094990
:103660000248BDE8704014F0A9BA00BF907CFF1F6B
:10367000043100202C520200285002006C5002003D
:10368000885202009087020070B5441800220F296A
:10369000054684F8F0211FD901F00F060C4631468B
:1036A000FFF79EFF12211B4816F0FCFB31461A481B
:1036B00014F010FB184814F0BDFA95F83032A3420C
:1036C00004BFFF2385F83032144B1B680A2B09D046
:1036D0000B2B00D070BD214605F18000BDE8704085
:1036E00010F084B82846FDF78BFF95F824220C488B
:1036F0000023012AC5F8D03004BF85F82432A5F88C
:10370000263231460AF0BEFA2846BDE87040FDF781
:1037100085BB00BF8C5202001871FF1FBC6FFF1FDA
:10372000AC67002070B50D461646D0F87C1100221B
:103730000446FFF755FF0322E9B209480FF0C4FD24
:10374000012236B90749064814F038FAC4F87C510A
:1037500070BD0549024814F031FAC4F87C5170BDBF
:10376000907CFF1F9087020088520200D0F8103230
:1037700070B55D5CC0F87811103104461646C9B2C8
:10378000803095B110F032F80122D4F8781120463B
:10379000FFF7C8FFD4F878316C33012244F8236076
:1037A00084F8742184F8752170BD10F001F82A4660
:1037B000D4F878112046FFF7B5FFEBE72DE9F0418B
:1037C000012186B0054648480FF0A2FA00211220D8
:1037D00015F08CFA0121132015F088FA012113202D
:1037E00015F070FA0B26122015F072FA30B9013E6E
:1037F00001464FF496744FF0130067D1752174227F
:10380000732305F1800677277624029101920093B5
:1038100030467223049703947122702110F0DEF871
:10382000EB6B002B09DD0024214630460FF0DEFF54
:103830000134EB6BE4B29C42F6DB304610F028F921
:1038400005F29F1305F2AF11002203F8012F8B42FE
:10385000FBD16FF4BF76761B05F27F1405F28F184B
:103860000027311904F8017F00222846FFF7B8FE2F
:103870004445F6D105F5D67305F5F670002143F8F9
:10388000041F83424FF00002F9D1184B85F815222E
:1038900001240622284685F814421A60FEF79AF998
:1038A0002846FEF755FA12480DF03CFA0146284624
:1038B000FEF750FC0E480DF037FA01462846FEF799
:1038C00075FC85F8744106B0BDE8F08115F0FAF991
:1038D0002346013BFDD10121132015F0F3F92346C6
:1038E000013BFDD17FE700BF3070FF1FBC6FFF1FA2
:1038F000D090002030B5D0F8B83087B00446A3B1DE
:10390000374A126802920299C91A0ED0354D2B68B7
:103910000222013380F824225AD002222046FFF7E7
:1039200033FA002847D107B030BDD4F8D030ABB15E
:103930002B4A126803920399C91A0FD0012284F806
:1039400024222046FFF720FA0028ECD0264809F070
:10395000AFF90146244809F0A7FAE4E7D4F8C030EB
:103960008BB11F4A126804920499C91A0BD0032222
:1039700084F824222046FFF707FA0028D3D02046F7
:10398000FFF71CFFCFE7D4F8B030002BCBD0144AA0
:10399000126805920599C91AC5D0042284F8242218
:1039A0002046FFF7F1F90028BDD0104808F0C4F90F
:1039B000E3699847B7E729680C4807F073FE20468B
:1039C0002968FEF719F84FF0FF332B6007B030BDC0
:1039D0000648019108F044F8019928609DE700BF6E
:1039E000CC940020B86FFF1FAC670020043100208A
:1039F0002DE9F04F00F58E7585B00446284613F08A
:103A000043FE10B905B0BDE8F08F284613F082FEE2
:103A10000028F7D08C4E3368013B0A2B57D8DFE8DB
:103A200003F0411E18565656560D0D560600874D8A
:103A30002B78002B54D1E3699847E3E7844A137845
:103A4000204683F001031370FFF7E4FB05B0BDE8E7
:103A5000F08F804801F03AFE05B0BDE8F08F7E4D52
:103A600029684B1C00F0D7807C4807F01BFE2A68B1
:103A70007B492046FEF7E2FC7A4B1B680393039BCD
:103A800003F5FA63C4F8283201274FF0FF332046CC
:103A90002B603760FEF79EF82046FEF759F984F850
:103AA0001472AFE76D4807F039FF30B36B4807F089
:103AB000D7FF6D4902462046FEF7C0FC694B1B68E4
:103AC0000193019B03F5FA63C4F828329AE794F84E
:103AD0001532032B00F2AA80DFE803F076593F206D
:103AE000012720463760FEF775F82046FEF730F9CB
:103AF000002384F814722B7084E7584807F0B0FF55
:103B00005A4902462046FEF799FC564B1B68029321
:103B1000029B03F5FA63C4F8283273E704F28F19A5
:103B20006FF4BF77C8463F1B04F27F154FF0010AC0
:103B3000791915F8013F08F8013F002285F800A027
:103B40002046FFF74DFD4D454FF0010BF0D102230C
:103B500084F814B284F8153253E06FF4BF773F1B3A
:103B600004F27F1504F28F1A4FF0000979194FF013
:103B7000000805F8019F42462046FFF731FD5545F4
:103B8000F4D1012384F8158284F8143239E004F268
:103B90008F196FF4BF77C8463F1B04F27F15791960
:103BA00015F8013F08F8013F83F001032B70002254
:103BB0002046FFF715FDA945F1D10322012384F822
:103BC000152284F814321CE06FF4C778C4EB08089F
:103BD00004F28F1504F27F1704F29F1908EB050118
:103BE00015F8013F83F0010307F8013F002220464A
:103BF000FFF7F6FCA945F1D1012384F8153284F8CA
:103C000014323368062B7FF4FDAE04F5C0712046F4
:103C1000FDF7A8F8F6E6012520463560FDF7DAFF46
:103C20002046FEF795F884F81452EBE6312110484F
:103C300016F038F994F815120E4814F04BF80D48A8
:103C400013F0F8FFDDE700BFBC6FFF1F902E0020D0
:103C500040910020A82D0020B86FFF1F04310020E4
:103C6000C0520200CC940020A0520200B0520200C8
:103C7000D05202001871FF1F70B504460D4696B071
:103C800080300FF095FD6319012283F8F0210F2D8C
:103C900000F23F81DFE815F0240040005C0078006E
:103CA00094009D00A600AF00F100CB00DE00B8003C
:103CB0002A01040117011000B9492046FDF724FD2F
:103CC000B84BB9481B681293129B03F5FA63C4F80A
:103CD000283204F5C071042208F000FC16B070BD53
:103CE000B24B1A68511E012940F2D0810A2A00F015
:103CF000CD812046AE49FDF707FDAA4BAA481B68B7
:103D00000293029B03F5FA63C4F8283204F5C071EC
:103D1000002208F009FCE1E7A44B1A68511E0129B2
:103D200040F2C0810B2A00F0BD812046A149FDF779
:103D3000EBFC9C4B9C481B680193019B03F5FA63C9
:103D4000C4F8283204F5C071012208F0EDFBC5E784
:103D5000964B1B68012B00F06C81083B012B40F255
:103D6000688120469449FDF7CFFC8E4B8E481B6836
:103D70000493049B03F5FA63C4F8283204F5C07178
:103D8000022208F0D1FBA9E7884B1B68012B00F049
:103D90006881083B012B40F2648120468749FDF78A
:103DA000B3FC804B80481B680693069B03F5FA63BF
:103DB000C4F8283204F5C071032208F0B5FB8DE782
:103DC0007F4B1B78002B00F02781A36901209847C7
:103DD00084E77B4B1B78002B00F01181A369022044
:103DE00098477BE7764B1B78002B00F0FB80A3699C
:103DF0000320984772E7724B1B78002B00F0C280BB
:103E0000A3690420984769E720466E49FDF77CFCCA
:103E1000644B65481B680E930E9B03F5FA63C4F868
:103E2000283204F5C071032208F09EFB56E72046B5
:103E30006549FDF769FC5B4B5B481B680C930C9B69
:103E400003F5FA63C4F8283204F5C071012208F0C2
:103E50008BFB43E720465D49FDF756FC514B52482A
:103E60001B680D930D9B03F5FA63C4F8283204F523
:103E7000C071022208F078FB30E720465449FDF774
:103E800043FC484B48481B680B930B9B03F5FA63B4
:103E9000C4F8283204F5C071002208F065FB1DE764
:103EA00020464C49FDF730FC3E4B3F481B681093C1
:103EB000109B03F5FA63C4F8283204F5C07102229E
:103EC00008F00CFB0AE720464349FDF71DFC354B83
:103ED00035481B681193119B03F5FA63C4F8283227
:103EE00004F5C071032208F0F9FAF7E620463B49D1
:103EF000FDF70AFC2B4B2C481B680F930F9B03F517
:103F0000FA63C4F8283204F5C071012208F0E6FA19
:103F1000E4E60F2D7FF6E2AE05F00F0631460122F2
:103F20002046FFF75DFB94F83032AB42636A88BFEE
:103F300084F8305213B1A5F1100098471B4B1B6851
:103F4000013B0C2B00F2E78001A252F823F000BFE6
:103F5000A9400000BB40000017410000C540000020
:103F60000D4100001741000003410000A94000007E
:103F7000F9400000E3400000DD3C0000D9400000B3
:103F8000CF40000016492046FDF7BEFB054B1B68DD
:103F90000A930A9B03F5FA63C4F8283230E700BF9E
:103FA000FC530200CC94002004310020BC6FFF1FA2
:103FB00010530200045302003853020064530200FD
:103FC000FD660020D0530200B8530200C453020023
:103FD000AC530200E4530200F0530200DC53020031
:103FE000A05302005F492046FDF78EFB5E4B1B6825
:103FF0000993099B03F5FA63C4F82832F7E65B4995
:104000002046FDF781FB584B1B680893089B03F57E
:10401000FA63C4F82832E1E655492046FDF774FBFF
:10402000514B1B680793079B03F5FA63C4F82832CA
:10403000CBE6504A50491378002083F001031370F7
:104040000870002B00F088804C492046FDF75CFB8F
:10405000454B1B680393039B03F5FA63C4F82832AE
:104060003CE6454B1A78002A6DD0424D4449002267
:1040700020462A701A70FDF747FB3B4B1B680593DF
:10408000059B03F5FA63C4F8283227E60B22204685
:104090001A60FDF79FFD2046FDF75AFE012384F8C4
:1040A00014321BE60A22F2E7324B364A1B784FF0F5
:1040B000FF311160002B7FF411AE29462046FCF73A
:1040C0001DFE0BE629462046FCF760FD06E6294664
:1040D0002046FEF7E1FC01E629462046FEF706F8F9
:1040E000FCE529462046FCF709FE1F4B1B6813938D
:1040F000139BC4F8D030F1E529462046FDF7DAFCE1
:10410000ECE529462046FCF79DFDE7E529462046DB
:10411000FCF76AFDE2E529462046FCF7C1FD314681
:104120002046FDF75DFB104B1A681592159A1B6827
:104130001493149B02F5FA6203F5FA63C4F82C2277
:10414000C4F82832CAE50B480F4902700122204604
:104150001A70FDF7D9FA90E70C492046FDF7D4FA1A
:1041600076E700BF90530200CC94002080530200F9
:1041700070530200FD660020FC6600201C53020004
:1041800044530200B86FFF1F545302002C53020027
:10419000F8B5344C2368DB07054646D5324E14F09B
:1041A000D1FD3368304A984234D900F5EA4395F896
:1041B000741130331360002947D105F18007384668
:1041C0000FF07EFB18B3EB6B002B24DD002634468A
:1041D00005E00134EB6BE4B29C4226461BDA214633
:1041E00038460FF0A3FA2E4430B196F8F03121464C
:1041F00028460BB9FFF740FD214638460FF0A6FAD6
:104200000028E6D021462846FFF73EFAE1E795F878
:1042100075311BB9F8BD012385F8753138460FF0AB
:1042200037FC002385F87531F8BD204614F0B0FA4C
:104230000028B3D014F086FD0B4E00F5EA4330336E
:104240002046336014F0AAFAA9E7014605F1800779
:104250002846FCF75FFC38460FF032FB0028D6D02A
:10426000B1E700BF887CFF1FB87CFF1F10B500239B
:1042700003604360836004461621044815F012FE73
:10428000034813F0D7FC204610BD00BF0C540200B9
:104290001871FF1F38B505461A210F4815F002FEA8
:1042A0002C6864B1A36A2B6020462C2114F0B2FA6A
:1042B0002C680A48042115F0F5FD002CF2D10023EA
:1042C0002B606B60AB600421054815F0EBFD0548E1
:1042D00013F0B0FC284638BD2454020048540200B4
:1042E000405402001871FF1F38B5054615210F48CC
:1042F00015F0D8FD2C6864B1A36A2B6020462C21F0
:1043000014F088FA2C680A48042115F0CBFD002C23
:10431000F2D100232B606B60AB600421054815F0DF
:10432000C1FD0548BDE8384013F084BC505402007C
:1043300048540200405402001871FF1F38B52E4C3B
:1043400005460A212D4815F0ADFD204613F072FCFC
:104350000E212B4815F0A6FD6B682046196813F056
:10436000B9FC0B21274815F09DFD6B680A221979CD
:104370002046002313F06EFC204613F05BFC08215E
:10438000214815F08FFD6B682046D96813F0A2FC18
:1043900007211E4815F086FD6B68D86919F0B8FE34
:1043A00041EC100B2046022113F09EFC0B21184813
:1043B00015F078FD6B680A2293F820102046002340
:1043C00013F048FC1621134815F06CFD6B6820466D
:1043D000597A13F07FFC0E210F4815F063FD6B68CE
:1043E000204693F824100A22002313F033FC2046C1
:1043F000BDE8384013F01EBC1871FF1F685402005E
:104400007454020084540200905402009C54020030
:10441000A4540200B0540200C854020038B54368E6
:10442000002B6BD09A6A934204460D4618BF0120B8
:1044300066D0A36823B1226812B19B6A9A4274D0F5
:104440006368444A1B68934202DC01332DD038BDB7
:104450002A4641494148FDF7ABFF3121404815F05C
:1044600021FD28461BF0ACFA0146284615F01AFD3E
:104470003C4813F0DFFB07213B4815F013FD616852
:10448000384813F027FC0E21384815F00BFD6368FF
:104490003448196813F01EFC324813F0CBFB6368F4
:1044A0001B6801334FF00000D1D12A4630492B4818
:1044B000FDF77EFF34212F4815F0F4FC28461BF051
:1044C0007FFA0146284615F0EDFC264813F0B2FBB2
:1044D0000721254815F0E6FC6168224813F0FAFB35
:1044E0000E21224815F0DEFC63681E48196813F09F
:1044F000F1FB1C4813F09EFB002038BD012038BDA5
:104500000A4616481C49FDF753FF26211B4815F0A3
:10451000C9FC28461BF054FA0146284615F0C2FC97
:10452000104813F087FB002083E72A4614490B4804
:10453000FDF73EFF3921134815F0B4FC28461BF067
:104540003FFA0146284615F0ADFC064813F072FB11
:10455000002075E7809698005C550200C82E002068
:10456000745502001871FF1FA8550200B0550200D3
:10457000C0550200D8550200D8540200E854020089
:10458000105502002055020003684360704700BFC9
:1045900010B544680CB1206810BD03490348FCF70E
:1045A0007FFF204610BD00BF10560200C82E00201D
:1045B00010B544680CB1207910BD03490348FCF7DD
:1045C0006FFF204610BD00BF24560200C82E0020F9
:1045D0002DE9F0418846002707700646112114484E
:1045E00015F060FCD8F80440ECB108340FCC354627
:1045F0000FC594E80F0085E80F0071680D4813F0AF
:1046000069FB08210C4815F04DFCD8F80430094826
:1046100019790A223B4613F01DFB064813F00AFBEA
:104620003046BDE8F08105490548FCF739FFF7E75A
:10463000385602001871FF1FDC6D02004C56020054
:10464000C82E00204068003018BF0120704700BF0E
:1046500070B5044616213648666815F023FC3548C7
:1046600013F0E8FA0721344815F01CFC6168314862
:1046700013F030FB0821314815F014FC21682D4857
:1046800013F028FB08212E4815F00CFCA1682948DE
:1046900013F020FB23686360642538E013F0CAFA46
:1046A0000E21284815F0FEFB63682248196813F0B4
:1046B00011FB0D21244815F0F5FB61681D480831F8
:1046C00013F008FB0921214815F0ECFB6368194839
:1046D000197913F0FFFA0B211D4815F0E3FB61680F
:1046E000144813F0F7FA08211A4815F0DBFB636849
:1046F0001048996A13F0EEFA17492046FFF78EFE2C
:1047000040B1204600F0C6F8013D08D06368094872
:10471000002BC3D1074813F08DFA666070BD0F49B6
:104720000F48FCF7BDFE034813F084FA666070BDC5
:10473000645602001871FF1FA85502007C56020043
:1047400088560200B055020094560200A45602009A
:10475000B0560200BC560200C8560200D0560200F5
:10476000C82E0020036810B504466BB1426893421E
:1047700004BF002242609A6A8AB1002102609962F5
:1047800018462C2114F046F80A492046FFF746FE49
:1047900000B110BD2046BDE81040FFF759BF816849
:1047A0008B4208BF82602C21184614F033F8002396
:1047B0002360E9E7E056020038B50368044673B1A8
:1047C0001A6891420D4603DC0AE01A68AA4207DA29
:1047D0002046FFF7C7FF23686360002BF5D1002355
:1047E000636005492046FFF719FE00B138BD204639
:1047F000BDE83840FFF72CBFF056020082B02DE92B
:10480000F04106AC074644F8043F0D461E4814210B
:10481000904615F047FB214600230A221B4813F05F
:1048200019FA1A4813F006FA2C2013F0EFFF2C2285
:10483000002106461AF0DEFB0FCCB060F160326159
:1048400073610FCCBC68356086F80480B061F1619B
:104850003262736214B1A64218BFA6627B68BE6062
:104860007BB13B685BB10A493846FFF7D7FD10B909
:104870003846FFF7EDFEBDE8F04102B070473E60FC
:10488000F1E77E60EDE700BF1C5702001871FF1FC3
:1048900034570200436810B5044673B19A6A9342D4
:1048A00013D062600C492046FFF7B8FD00B110BD7F
:1048B0002046BDE81040FFF7CBBE1921074815F090
:1048C000F1FA074813F0B6F9ECE706490648FCF799
:1048D000E7FD63689A6AE4E77057020054570200E4
:1048E0001871FF1F40570200C82E002070B590E8D5
:1048F000480005460024436006E00134FFF7CAFF84
:10490000B4F57A7F06D06B682846002BF5D16E602F
:10491000204670BD03490448FCF7C2FD6E60204686
:1049200070BD00BF78570200C82E00200022026030
:1049300042608260704700BF38B5044617210948BD
:1049400015F0B0FA23685BB10025DA6822601846DA
:10495000DD6010219D6013F05DFF2368002BF4D112
:10496000204638BD8857020038B5436804460D46D6
:1049700083B1DA68934218BF012036D09A689A4210
:1049800048D0E3682BB1DA68934219D09A689A420A
:1049900002D038BD0120F4E728492948FCF780FD02
:1049A0001F21284815F07EFA274813F043F92846BE
:1049B0001BF006F80146284615F074FA0020E8E7D7
:1049C00022491F48FCF76CFD2B21214815F06AFA9B
:1049D00028461AF0F5FF0146284615F063FA1A48F2
:1049E00013F028F9E3680020D0E71A491448FCF7CF
:1049F00057FD2321184815F055FA28461AF0E0FF14
:104A00000146284615F04EFA0F4813F013F9636873
:104A10000020B3E711490A48FCF742FD172110486E
:104A200015F040FA084813F005F928461AF0C8FFB7
:104A30000146284615F036FA0020A2E73C5802004D
:104A4000C82E0020505802001871FF1FFC570200AA
:104A500010580200A0570200B0570200D4570200BD
:104A6000E457020010B507490446FFF77DFF20B167
:104A700063680BB1DB68636010BD204600F004F88A
:104A8000F6E700BF7057020038B5002104464348DE
:104A900015F008FA424813F0CDF80D21414815F001
:104AA00001FA3F4813F0C6F807213F48656815F042
:104AB000F9F921683A4813F00DF906213B4815F041
:104AC000F1F96168364813F005F90721384815F007
:104AD000E9F9A168324813F0FDF80A21354815F0CC
:104AE000E1F9E1682E4813F0F5F82D4813F0A2F82B
:104AF000204600F0DFF863682BB945E0FFF7B2FF0E
:104B00006368002B40D005212B4815F0CBF9636872
:104B1000234819680A22002313F09CF8042127482F
:104B200015F0C0F963681E4819790A22002313F0B2
:104B300091F80421224815F0B5F9636818485979AD
:104B40000A22002313F086F805211E4815F0AAF961
:104B50006168134813F0BEF806211B4815F0A2F94E
:104B600063680F48D96813F0B5F80D4813F062F880
:104B70006368DA6893422046C0D11A21134815F0C1
:104B800091F9074813F056F80021044815F08AF906
:104B9000034813F04FF8656038BD00BFE44F0200D2
:104BA0001871FF1F705802008058020088580200D8
:104BB0009058020098580200A4580200AC58020015
:104BC000B4580200BC580200C4580200CC5802007D
:104BD00038B50446C068002838D060602368834236
:104BE00026D0A368834216D08568C368EB60C3688B
:104BF00082689A60102113F00DFE65602B46E36019
:104C000014492046FFF7B0FE00B138BD2046BDE88C
:104C10003840FFF739BF82681AB1826862600021AC
:104C2000D1601846102113F0F5FD6368A360E6E734
:104C3000C268626062B1002191600022DA601846A9
:104C4000102113F0E7FD63682360D8E76068C5E7CB
:104C5000A260F2E7E85802002DE9F843044610206C
:104C6000894690461F4613F0D1FDA6680025456091
:104C7000856080F80490C56080F8058007600EB1FB
:104C8000F06086606368A0607BB123685BB108490F
:104C90002046FFF769FE08B1BDE8F8832046BDE86D
:104CA000F843FFF7F1BE2060F1E76060EDE700BF79
:104CB000F458020010B505490446FFF755FE10B937
:104CC0002046FFF7E1FE2368636010BDFC58020038
:104CD000C3681879704700BFC3685879704700BF30
:104CE000C3681868704700BFC068003018BF012053
:104CF000704700BF10B505490446FFF735FE10B9EF
:104D00002046FFF7C1FE2368E36010BD045902008E
:104D100010B507490446FFF727FE20B1E3680BB141
:104D2000DB68E36010BD2046FFF7AEFEF6E700BF8C
:104D30001059020070B511490546FFF715FE90B1F4
:104D400028466E680024FFF7B5FF05E00134FFF741
:104D500089FEB4F57A7F0AD06B682846002BF5D11E
:104D60006E60204670BD2846FFF78EFEE8E70449D6
:104D70000448FCF795FB6E60204670BD1C5902008C
:104D800024590200C82E002038B50A4D00230446DD
:104D90000360436029464FF4A072083013F016FCFC
:104DA00005F5A07104F5A4704FF4807213F00EFCA9
:104DB000204638BD3459020010B490E81800013480
:104DC00000EB031394FBF1F202FB11410B44416031
:104DD00093F848015DF8044B704700BF10B490E8A9
:104DE000180094FBF1F200EB031302FB11410B449A
:104DF000416093F848015DF8044B7047436810B474
:104E00000468194400EB041091FBF2F303FB121247
:104E100050FA82F25DF8044B92F84801704700BFE7
:104E2000406801308842B4BF00200120704700BFB5
:104E3000054B0B40002B01DB03607047013B63F027
:104E40000F030133036070470F000080036803EB1A
:104E5000830300EB83000830704700BF00234360EA
:104E6000704700BF38B501250446056758220B4935
:104E70007C3013F0ABFB0A4A84F86D5000231570A8
:104E800084F8D83084F8E030C4F8D430C4F8DC308A
:104E9000C4F8E4306367A367204638BD745B020042
:104EA000C87CFF1F2DE9F0418046064600F16007EF
:104EB000337D5BB13546002455F8040F013418B139
:104EC0001C2113F0A7FC337DA342F5DC1836BE424B
:104ED000EED14046BDE8F08101EB410300EBC30396
:104EE00080F8D810C0F8D4300120704710B5D0F841
:104EF000D44084B1227D8A420B46D8BF002304EB04
:104F00008304D8BF19466468C0F8DC404CB180F80F
:104F1000E010012010BD06490648FCF7C1FA204602
:104F200010BD05490348FCF7BBFA204610BD00BF81
:104F3000CC5B0200C82E0020E05B020038B50446BE
:104F400060B101EB410110EBC1050DD002EB420055
:104F500014EBC0040ED06A75012038BD0849094819
:104F6000FCF79EFA204638BD07490648FCF798FA38
:104F7000284638BD05490348FCF792FA204638BD5B
:104F8000F45B0200C82E0020085C02001C5C0200DA
:104F9000D0F8D4300BB11960704780F8D830034690
:104FA000C0F8D40019607047D0F8D41070B5054629
:104FB00031B30B7D032B1DD81C2013F027FC0446B6
:104FC00000F0DCFCD5F8D4301E1D28D0197D39B195
:104FD00053F82100C0B100F065FDD5F8D430197D3B
:104FE00003EB8102013154602046197500F0D4FCB6
:104FF000204670BD0F491048FCF752FA002070BDE2
:10500000FFF76AFF40B970BD0C490B48FCF748FA3E
:10501000D5F8D430197DE3E7D5F8D410C9E70849AD
:105020000548FCF73DFA20461C2113F0F3FB3046FF
:1050300070BD00BF305C0200C82E0020545C02002E
:10504000405C02002DE9F043044685B01A4803F0A5
:1050500011FF0E21194814F025FF194812F0EAFD3E
:10506000D4F8DC0008B300F057FDD4F8D430D4F8FD
:10507000DC0093F8009094F8D85094F8E46094F829
:10508000E07000F09DFC8046D4F8DC0000F09AFC53
:10509000C0B202904B468DE880013246294609484D
:1050A000FEF772F805B0BDE8F0830749054805B082
:1050B000BDE8F043FCF7F4B900670020645C02002F
:1050C0001871FF1FC82E0020745C020070B50446E2
:1050D00033216F4814F0E6FED4F8DC0000F070FCD9
:1050E00000230A2201466B4812F0B4FD01216A48F0
:1050F00014F0D8FED4F8DC0000F064FC01466548EA
:1051000012F0E8FD0921654814F0CCFE00230A22C4
:1051100094F8E0105F4812F09DFD1421604814F0EF
:10512000C1FED4F8DC0000F0C3FC002301460A22D3
:10513000584812F08FFD574812F07CFDD4F8DC304F
:10514000002B00F09080D4F8D450002D00F0868021
:10515000184600F0AFFC054678B31921514814F009
:10516000A1FED4F8DC0000F0A3FC102106464E4856
:1051700014F098FE002331460A22464812F06AFDD8
:10518000D4F8D4301B7DB34224D92121474814F0F0
:1051900089FED4F8D43084F8E06003EB86067068AA
:1051A000C4F8DC0000F080FC2121414814F07AFEB4
:1051B000384812F03FFD284670BDD4F8DC0000F0FE
:1051C000A7FC3D213B4814F06DFE324812F032FD41
:1051D000284670BD1821384814F064FED4F8D43045
:1051E000D4F8E4201B689A4224DB1021334814F0E1
:1051F00059FED4F8D4305E7DFF2E3AD006EB460639
:10520000132104EBC6062E4814F04CFEC4F8D460FB
:1052100015212C4814F046FED4F8D430002284F82E
:10522000E0205868C4F8DC000123C4F8E43000F042
:105230003BFCB9E71A21244814F034FE002384F81B
:10524000E030D4F8D420D4F8E4305068C4F8DC005E
:105250000133C4F8E43000F027FCA5E71B491C48E3
:10526000FCF71EF9B4E71B4919481D46FCF718F96D
:10527000AEE70021184814F015FE064812F0DAFCDB
:105280001321164814F00EFE236E98478CE700BFDA
:10529000885C02001871FF1FBC5C0200C05C020049
:1052A000CC5C02000C5D0200285D02003C5D020047
:1052B000EC5D0200105E0200605D0200985D02007D
:1052C000AC5D0200C05D02007C5D0200F85C020083
:1052D000C82E0020E45C0200E44F0200D85D02000A
:1052E0002DE9F043D0F8D430044685B0D0F8DC0086
:1052F00093F8009094F8D86094F8E47094F8E08003
:1053000000F05EFB0546D4F8DC0000F05BFBC0B2A9
:1053100002904B46CDF800803A463146019503484D
:10532000FDF732FF05B0BDE8F08300BFC82E0020B6
:1053300010B514210446094814F0B4FD084812F0D1
:1053400079FCD4F8DC0018B1BDE8104000F0E4BBF3
:1053500004490548BDE81040FCF7A2B8505E0200C1
:105360001871FF1F685E0200C82E0020034600224D
:10537000C3F8D40080F8D82048B1406883F8E02012
:105380000122C3F8DC00C3F8E42000F08DBB024921
:105390000248FCF785B800BF7C5E0200C82E0020E2
:1053A00070B5504E504D0166044600F11501326053
:1053B0002B607530FF2200230A7001F8013C41F890
:1053C000153C18318142F7D12046FFF7EDFD054627
:1053D00090B100231A46012100F0E8FA00231A4692
:1053E0000221284600F0E2FA0121284600F050FB95
:1053F0002846022100F02AFB2046FFF7D5FD05468E
:1054000090B101221146002300F0D0FA00230122BE
:105410000221284600F0CAFA0121284600F038FB94
:105420002846022100F012FB2046FFF7BDFD05468D
:1054300090B100230222012100F0B8FA02221146A5
:105440000023284600F0B2FA0121284600F020FB94
:105450002846022100F0FAFA01212046FFF798FDC4
:10546000012200212046FFF769FD01212046FFF7B8
:1054700033FD02212046FFF78BFD2046FFF794FD08
:10548000054690B100230322012100F08FFA00238A
:1054900003220221284600F089FA0121284600F063
:1054A000F7FA2846022100F0D1FA2046FFF77CFDEA
:1054B000054690B100230422012100F077FA002371
:1054C00004220221284600F071FA0121284600F04A
:1054D000DFFA2846022100F0B9FA2046BDE8704004
:1054E000FFF744BFC47CFF1FC07CFF1F38B5436E6D
:1054F00000EB8302D46F132B0BD8DFE803F060635B
:1055000066100A0A0A0A0A0A0A0A0A0A10454B51D0
:10551000572921463048BDE83840FCF7D7B82F4D11
:105520002D482A462146FDF7DDFC20461AF048FAB0
:105530000146204614F0B6FC28461AF041FA01460E
:10554000284614F0AFFC2648BDE8384012F072BB84
:10555000D0F8DC0000F03EFA431C05462DD02A4668
:1055600021461D48FCF7F8FE20461AF029FA0146AC
:10557000204614F097FC2946194812F0ABFB184856
:10558000BDE8384012F056BBD0F8DC0000F01CFA41
:105590000546E4E7D0F8DC0000F014FA0546DEE743
:1055A000D0F8DC0000F012FA0546D8E7D0F8DC00AD
:1055B00000F00EFA421C0546D1D10A4DB0E790F832
:1055C000D850CCE790F8E050C9E790F8D83003EB1A
:1055D000430350F83350C2E7C82E0020BC5E0200DF
:1055E0001871FF1FC45E020010B517210446084859
:1055F00014F058FC074812F01DFB002201236266DC
:1056000084F86D302046BDE81040FFF76FBF00BF43
:10561000C85E02001871FF1F436E10B5132B4CD8E3
:10562000DFE803F01014184B4B4B4B4B4B4B4B4BE1
:105630004B4B4B20272D340AD0F8DC00BDE810403E
:1056400000F0C8B990F8D840204610BD90F8E0406E
:10565000204610BD90F8D83003EB430350F8334098
:10566000204610BDD0F8DC0000F0AEF9044620461C
:1056700010BDD0F8DC00BDE8104000F0A3B9D0F8B0
:10568000DC0000F0A3F90446204610BDD0F8DC0091
:1056900000F09EF91321B0F1FF3F14BF044600242F
:1056A000074814F0FFFB2146064812F013FB0121C6
:1056B000054814F0F7FB204610BD0024C4E700BFE6
:1056C000E05E02001871FF1F6C50020008B5162141
:1056D000034814F0E7FB0348BDE8084012F0AABAFB
:1056E000F45E02001871FF1F10B5B1F57A7F82B029
:1056F00008D1026F012A0DD00122026780F86D20C7
:1057000002B010BD074A416712680192019A826790
:1057100002B010BD022303670446FFF77DFFA066B9
:10572000F6E700BFCC940020994238B50D4603DA65
:10573000002901DA8918FDD491FBF2F402FB14145C
:10574000A3424FF00B010B48C8BFA41814F0AAFBEA
:105750002946094812F0BEFA0121084814F0A2FBBC
:105760002146054812F0B6FA034812F063FA2046C3
:1057700038BD00BF0C5F02001871FF1F6C500200A3
:1057800038B504460D464648112114F08BFB2946D6
:10579000444812F09FFA434812F04CFA636E132B00
:1057A00076D8DFE803F01824327575757575757550
:1057B00075757575753E4B58650A29464FF0FF3370
:1057C00020461122FFF7B0FF0146D4F8DC00BDE807
:1057D000384000F029B92946002320460422FFF76B
:1057E000A3FFC1B22046BDE83840FFF775BBD4F82F
:1057F000D43029461A7D20460023FFF795FFC1B219
:105800002046BDE83840FFF771BB294601232046FA
:105810001022FFF789FFC1B22046BDE83840FFF7EC
:10582000B7BB2946002320461022FFF77DFFC1B2F7
:10583000D4F8DC00BDE8384000F02AB9294601233D
:1058400020461022FFF770FF0146D4F8DC00BDE8C7
:10585000384000F0FBB82946002320460522FFF718
:1058600063FF0146D4F8DC00BDE8384000F0F0B832
:105870002946002320461122FFF756FF011ED8BFFC
:105880004FF0FF31D4F8DC00BDE8384000F0A4B898
:105890002A4605490548BDE83840FBF793BE00BFDE
:1058A000185F02001871FF1F2C5F0200C82E002035
:1058B00070B50D46044611212B48164614F0F2FA35
:1058C0002A4812F0B7F9B5F57A7F00D070BD94F888
:1058D0006D30002B34D1236F012B37D0022B41D1F7
:1058E0000D21234814F0DEFA3146204812F0F2F977
:1058F0000121204814F0D6FAA16E1C4812F0EAF9F2
:105900001A4812F097F9A16E20463144FFF738FF8C
:105910000C21194814F0C6FA3146144812F0DAF98D
:105920000121144814F0BEFAA16E104812F0D2F909
:105930000E4812F07FF92046BDE87040FFF7D6BD53
:10594000002384F86D30236F012BC7D131462046E8
:1059500000231622FFF7E8FE60662046BDE870408F
:10596000FFF7C4BD70BD00BF3C5F02001871FF1F90
:10597000505F02006C500200605F020010B4FF2410
:1059800000214FF0FF328473017381600261426134
:105990005DF8044B704700BF0023FF220371837042
:1059A0004371C37002704270704700BF30B4013958
:1059B000C9B244180125A3702571425430BC704708
:1059C000007E704780687047407B7047007B70475F
:1059D00000697047406970474B1E0F2B10B50C468D
:1059E00008D94B1C06D00A460A480B49FBF7EAFDCA
:1059F000002010BD04610321084814F053FA214629
:105A0000074812F067F90121064814F04BFA01200B
:105A100010BD00BFC82E0020CC600200C86002008C
:105A20001871FF1F6C5002000F2902DC4161012038
:105A3000704708B50A4603480349FBF7C3FD002039
:105A400008BD00BFC82E0020E060020081607047E2
:105A5000042913D8DFE801F006090C0F0300042322
:105A60000373704700230373704701230373704768
:105A70000223037370470323037370470A460248E7
:105A80000249FBF79FBD00BFC82E0020F460020052
:105A90004B1E50FA83F31B7913B1417301207047F9
:105AA000184670478173704700238361704700BFB9
:105AB000807B7047826983689A421DD01ADD10B5D9
:105AC0000E4904460E48FBF7EBFC12210D4814F07A
:105AD000E9F9A1690C4812F0FDF814210B4814F003
