:1000000000000320D1010000698C0100218C010057
:10001000218C0100218C0100218C0100218C010028
:10002000218C0100218C0100218C0100698C0100D0
:10003000698C0100218C010071A7010075A80100E5
:10004000698C0100698C0100698C0100698C0100D8
:10005000698C0100698C0100698C0100698C0100C8
:10006000698C0100698C0100698C0100698C0100B8
:10007000698C0100698C0100698C0100698C0100A8
:10008000698C0100698C0100698C0100698C010098
:10009000698C0100698C0100698C0100698C010088
:1000A0006935010075350100698C0100698C01001A
:1000B000698C0100698C0100698C0100BDA80100F8
:1000C000698C0100E9A90100698C010015AB0100F0
:1000D000698C01000DAC0100698C0100698C010084
:1000E000698C0100698C0100698C0100698C010038
:1000F000698C0100698C0100698C0100698C010028
:10010000698C0100698C0100698C0100698C010017
:10011000698C010071960100698C0100698C0100F5
:10012000698C0100698C0100698C0100698C0100F7
:10013000698C0100698C0100698C0100698C0100E7
:10014000557F0100698C010005AD0100698C01003B
:10015000698C0100698C0100698C0100698C0100C7
:10016000698C0100698C010081350100698C0100F6
:10017000698C0100698C0100698C0100698C0100A7
:10018000698C0100698C0100698C0100698C010097
:10019000698C0100698C0100FDAD0100698C0100D2
:1001A000698C0100698C0100698C0100698C010077
:1001B000698C0100698C0100698C0100698C010067
:1001C000698C0100698C0100698C0100698C010057
:1001D0005C4B4CF2205210B51A804DF628121A8052
:1001E00000BF00BF18F044FD574B4FF030621A605B
:1001F000564A9A60564ADA60564B4FF470021A60BB
:10020000554B564A1A60564B1A78110703D51A787F
:1002100042F008021A70534B5349AA221A70534AEB
:10022000534B8B4204D252F8040F43F8040BF8E707
:10023000504B514900228B4202D243F8042BFAE77B
:100240004E494F4A002352F8230041F8230001335E
:10025000742BF8D14B4B4C4A802103F8011B93427D
:10026000FBD14A4B454A1A60494B8A221A70A3F5C2
:10027000805324225A70A0221A709A799207FCD5D2
:100280009A79D406FCD4434A937903F00C03082BE3
:10029000FAD1414B60221A7002331A78802AFCD1BD
:1002A0003C4B01221A715D225A719A799006FCD555
:1002B0009979384A4906FBD5384B394919600021EC
:1002C000596020231370937903F00C030C2BFAD19F
:1002D000344B354A1A60354A354C136813F4807331
:1002E00003D123604FF4A8531360324B324A1A6093
:1002F00000225A60072243F8042C304AC3F80C2D20
:1003000062B619F025F82368DA0705D52C4818F0ED
:1003100057FF2C4B2C4A1A602C4B1B785B0609D5D7
:10032000284C294B22689A4204D1254818F048FFEE
:10033000002323601EF04EFD18F0A0FC18F0CEFB49
:10034000FEE700BF0E20054030800440823F0400DD
:100350000100002B88ED00E0002008E0030000858C
:1003600002D0074000E00740C07BFF1F70A40200DE
:10037000306FFF1FC07BFF1F38990020006AFF1FEE
:100380000000000000E400E064E400E008ED00E0AC
:10039000005006400040064001E007404480044011
:1003A0000000060204800440C010070010D0034083
:1003B00014D0034014E000E01FBF02000000202022
:1003C000B93FAF5E1CE00340A5C3945A00F007405C
:1003D000FFFFFFFFFFFFFFFFFFFFFFFFFFFFFFFF2D
:1003E000FFFFFFFFFFFFFFFFFFFFFFFFFFFFFFFF1D
:1003F000FFFFFFFFFFFFFFFFFFFFFFFFFFFFFFFF0D
:10040000FFFFFFFFFFFFFFFFFFFFFFFFDEF9FFFF23
:1004100010B5054C237833B9044B13B10448AFF33E
:1004200000800123237010BDC07BFF1F000000006F
:100430006CA40200084B10B51BB108490848AFF383
:1004400000800848036803B910BD074B002BFBD0A0
:10045000BDE81040184700BF00000000C47BFF1F2C
:100460006CA40200C07BFF1F0000000010B5242216
:10047000044600211FF04EF8002384F8243084F84D
:100480002530204610BD00BFF8B5074690F824007F
:100490000D461646E0B13A46002404E00134844299
:1004A00002F1030212D01178A942F7D19178994252
:1004B000F4D104EB44043C446670A370062D5ED86E
:1004C000DFE805F031161D242B1031000A2C2BDC3F
:1004D00000EB40017A18013087F824007D545670F3
:1004E0009370EBE72E492F48BDE8F84001F00CB9B6
:1004F00032462D492B48BDE8F84001F073BF324623
:100500002A492848BDE8F84001F06CBF3246284926
:100510002448BDE8F84001F065BF26492148BDE800
:10052000F84001F0F1B8F8BD23491E4800F0B8FFCB
:100530000421224819F046FF2146214817F05AFEAF
:100540001721204819F03EFF00230A2297F82410B3
:100550001B4817F00FFE10211B4819F033FF0C2128
:10056000174817F047FE0B21184819F02BFF2946B2
:10057000134817F03FFE124817F0ECFD9EE71449B0
:10058000084800F08DFF1521124819F01BFF29467D
:100590000B4817F02FFE0A48BDE8F84017F0DABD07
:1005A000A4530200CC2E00206453020074530200B6
:1005B00080530200905302001053020024530200A3
:1005C0001871FF1F2C5302004453020058530200BD
:1005D000B4530200C853020038B590F825300B2BF5
:1005E000044627D91F49204800F05AFF17211F4809
:1005F00019F0E8FE00230A2294F825101C4817F091
:10060000B9FD17211B4819F0DDFE00230A2294F8DA
:100610002410174817F0AEFD1021174819F0D2FE2C
:100620000C21134817F0E6FD0025114817F092FD44
:10063000284638BD03EB430317210C48E55C19F04D
:10064000C1FE00230A2294F82510094817F092FDF4
:100650000B210A4819F0B6FE2946054817F0CAFDD5
:10066000284638BDF8530200CC2E0020E05302008B
:100670001871FF1F2C53020044530200585302000C
:1006800090F825300B2B04D803EB43031844407833
:10069000704710B513490446134800F001FF1721B5
:1006A000124819F08FFE00230A2294F825101048F2
:1006B00017F060FD17210F4819F084FE00230A226D
:1006C00094F824100A4817F055FD10210A4819F033
:1006D00079FE0C21064817F08DFD054817F03AFD0C
:1006E000002010BD0C540200CC2E0020E05302006C
:1006F0001871FF1F2C5302004453020090F825305C
:100700000B2B04D803EB430318448078704710B5D3
:1007100013490446134800F0C3FE1721124819F08C
:1007200051FE00230A2294F82510104817F022FDEC
:1007300017210F4819F046FE00230A2294F82410CE
:100740000A4817F017FD10210A4819F03BFE0C214A
:10075000064817F04FFD054817F0FCFC002010BDBF
:1007600020540200CC2E0020E05302001871FF1F1D
:100770002C5302004453020090F825300133DBB2C1
:100780000B2B80F825308CBF00200120704700BF64
:10079000002380F8253070470022134680F824207B
:1007A00080F82520C2540333242BFBD1704700BFAF
:1007B000FFF7F2BF70B5044615460E460846022103
:1007C00018F024FD2846022118F020FD104A114B94
:1007D00052F83610012001F500762072266052F89A
:1007E0003520607202F5007500206560E060013B15
:1007F000FDD191F8003292F8002203F00103D207F4
:1008000044BF43F00203DBB2A372204670BD00BFB9
:1008100038990200C0D4010090F814322DE9F04755
:100820000746002B7CD1DFF80C82794AD8F800000B
:10083000D468784D784E92F809E092E80A0091F871
:10084000009093F800C0117A714B1CEA0E0F09EA70
:1008500001015DD09B7A03F0030309B143F0040367
:1008600043F008039910013B91720D2B0AD8DFE881
:1008700003F075077207096F75756F0907720775C1
:10088000013CD460A04219D0DFF89891DFF890A124
:10089000D9F80030002C2246B8BFE21C92109A42D0
:1008A000CAF8002008D04FF47A715C480EF06EFD53
:1008B000DAF80030C9F80030C8F800402B686968E1
:1008C0001A78687A0C782B7A5249044202EA0302B9
:1008D00016D08B7A03F003030AB143F0040343F00C
:1008E00008039A10013BAA720D2B00F28180DFE809
:1008F00003F07B7766777F387B7B387F7766777B03
:100900008B7A03F00303002AEBD043F00403E8E7FB
:100910009B7A03F003030029A4D043F00403A1E76A
:100920003F4E404C40484149394ADFF80881394D33
:1009300000233360384E2360036087F814321C466E
:100940000B601846D360C8F80030EB60336072E784
:10095000023CD46096E70234D46093E70134D4605B
:1009600090E7EC68023CEC6007F5AE7017F054F9C4
:100970002F4B00282DD11A68042A3BDC3268A41AB8
:1009800004EB840402EB44049442EC6026D01A6821
:10099000264D254F0132002C1A6022462B68B8BF25
:1009A000E21C92109A423A6006D040F2E9311B48AC
:1009B0000EF0ECFC3B682B603460BDE8F087EC681F
:1009C0000234EC6007F5AE7017F026F9184B0028DA
:1009D000D1D03268002194421960D8D1BDE8F087A7
:1009E000EC68013CEC60BFE7EC680134EC60BBE70D
:1009F000EC68B9E7092A326805DCA41A04EB840420
:100A000002EB8404C0E76421A41A01FB0424BBE7C1
:100A1000107CFF1F207CFF1F847CFF1FB06700201D
:100A2000547CFF1F5C7CFF1F587CFF1F607CFF1FF6
:100A3000DC7BFF1F7C7CFF1FF8B590F81432002B85
:100A400047D12F4D2F4A2868D468577A92E848003A
:100A5000197896F800E0137A2A4E1EEA070F01EA89
:100A600003012ED0B37A03F0030309B143F004036A
:100A700043F008039910013B91720D2B0AD8DFE86F
:100A800003F03C07390709363C3C36090739073C77
:100A9000013CD460A04213D01B4E1C4F3368002C85
:100AA0002246B8BFE21C92109A423A6006D04FF438
:100AB0007A71174805F068F83B6833602C60F8BD20
:100AC000F8BDB37A03F003030029D3D043F0040345
:100AD000D0E70E4E0C490B4A094D002380F8143222
:100AE0001C4633600B601846D3602B60ADE7023CB8
:100AF000D460CFE70234D460CCE70134D460C9E7D6
:100B00008C7CFF1F107CFF1FB47CFF1FB07CFF1F7D
:100B1000A82D00202DE9F84F002383461D460E46E0
:100B200080F87431994600F5D67A00F180081024D7
:100B3000012706E08BF8747101350134102DE4B201
:100B400016D05AF8043F002BF6D0B342F2D8DBF8A7
:100B50001032CAF800905B5D2146404653B901351A
:100B600013F0D4F80134102D8BF87571E4B2E8D18C
:100B7000BDE8F88F13F08AF80028DDD12146404601
:100B800013F0A6F88BF87571D6E700BF38B5144C92
:100B90000C40002C1FDB031993F8A0516DB9012202
:100BA00083F8A021C9B2803013F092F82A4621467A
:100BB0000C48BDE838400BF09BBF002283F8A02111
:100BC000C9B2803013F0A2F8214601220548BDE8E1
:100BD00038400BF08DBF013C64F00F040134DAE7BC
:100BE0000F0000800831002038B5144C0C40002C58
:100BF0001FDB031993F8A0216AB90125C9B280301F
:100C000083F8A05113F064F82A4621460C48BDE849
:100C100038400BF081BF0025C9B2803083F8A05165
:100C200013F074F82A4621460548BDE838400BF019
:100C300073BF013C64F00F040134DAE70F00008059
:100C40000831002038B5144C0C40002C1FDB031970
:100C500093F8A0216AB90125C9B2803083F8A05168
:100C600013F036F82A4621460C48BDE838400CF00F
:100C7000F3B80025C9B2803083F8A05113F046F8CC
:100C80002A4621460548BDE838400CF0E5B8013C4D
:100C900064F00F040134DAE70F000080083100200F
:100CA000154B0B40002B10B504461FDB234493F873
:100CB00080216AB9012283F88021C9B204F1800041
:100CC00013F006F8012384F8153284F8143210BDAD
:100CD000002283F88021C9B204F1800013F016F8D5
:100CE000012384F8153284F8143210BD013B63F0FF
:100CF0000F030133DAE700BF0F0000802DE9F8434E
:100D000080460F4600F1800600F29F1510244FF038
:100D1000000903E00134E4B2202C0DD015F8013FA6
:100D2000002BF7D0214601343046E4B212F0EEFF3A
:100D3000202C85F80090F1D1094B3B40002B09DBBA
:100D400043440122F9B2304683F8A021BDE8F843BC
:100D500012F0BEBF013B63F00F030133F0E700BFA9
:100D60000F000080F8B507464D1E00F180061024E4
:100D700005E00134E4B212F0ABFF202C0DD015F8E1
:100D8000013F21463046002BF3D121460134304645
:100D9000E4B212F0BBFF202CF1D1012387F87531AA
:100DA000F8BD00BF38B500F5D0750446C0F8105244
:100DB00000F29F13002200F2AF1003F8012F8342CC
:100DC000FBD106480BF07CFC231801222946204663
:100DD00083F89F21BDE83840FFF7C4BF08310020E9
:100DE00038B505460C480BF01DFD05F5D071C5F86A
:100DF000101205F29F1305F2AF14002203F8012F21
:100E0000A342FBD12B180122284683F8A021BDE87C
:100E10003840FFF7A7BF00BF0831002038B50546AE
:100E20000C480CF00DFB05F5D071C5F8101205F259
:100E30009F1305F2AF14002203F8012FA342FBD148
:100E40002B180122284683F8A021BDE83840FFF77F
:100E500089BF00BFB067002038B500F5D0750446E3
:100E6000C0F8105200F29F1300F2AF11002203F8F5
:100E7000012F8B42FBD12946044810220BF0B4FA13
:100E800029462046BDE83840FFF76CBF08310020F6
:100E9000B64B1B6870B5013B00F5AA7504462846A1
:100EA0000C2B00F28480DFE803F04B4B6C4B4B8241
:100EB0004B4B4B25824B070016F076FE002840F086
:100EC000038104F5AE75284616F06EFE002840F04A
:100ED0009E8004F5B275284616F066FE002840F0A4
:100EE000518104F5B674204616F05EFE002840F0ED
:100EF000D38070BD16F058FE002840F0D48004F571
:100F0000AE75284616F050FE002840F0068104F524
:100F1000B275284616F048FE002840F0AB8004F574
:100F2000B674204616F040FE0028E2D0204616F0A7
:100F300081FE002800F040818D4B0022DA6070BDF8
:100F400016F032FE002840F0DE8004F5AE7528462B
:100F500016F02AFE002840F0F68004F5B275284607
:100F600016F022FE002864D104F5B674204616F06F
:100F70001BFE0028BDD0204616F05CFE0028DBD109
:100F800070BD16F011FE0028B3D0284616F052FEB0
:100F9000002800F01281774A636A0021D160002B9B
:100FA00000F00C814FF47A70BDE87040184716F0DD
:100FB000FBFD00284ED104F5AE75284616F0F4FD71
:100FC000002840F0AE8004F5B275284616F0ECFD1E
:100FD00060B904F5B674204616F0E6FD002888D006
:100FE000204616F027FE0028A6D170BD284616F030
:100FF00021FE0028EDD0604B002204F5B674DA60C3
:10100000204616F0D1FD00283FF473AFE8E72846EC
:1010100016F010FE00283FF45CAF584B002204F598
:10102000B275DA60284616F0BFFD00283FF459AFCC
:10103000A8E0284616F0FEFD002895D04E4B002271
:1010400004F5B674DA60204616F0AEFD00283FF4D1
:1010500050AF90E7284616F0EDFD0028ABD0454B89
:10106000002204F5AE75DA60284616F09DFD0028D2
:10107000A9D056E0284616F0DDFD00283FF44FAF1A
:101080003D4B002204F5B674DA60204616F08CFD64
:1010900000283FF42EAF49E7204616F0CBFD00288C
:1010A0007FF44AAF70BD284616F0C4FD00283FF417
:1010B00026AF304A636A0021D160002B3FF41FAF96
:1010C0004FF47A7098471AE7284616F0B3FD0028C7
:1010D0003FF4F7AE2A480BF05BFA421E54FA82F254
:1010E00092F8A03183F0010382F8A031002B5BD18C
:1010F00000F10F01C9B204F1800012F007FE0123D4
:1011000084F87531DDE6284616F094FD00283FF49A
:101110001CAF1B480BF03CFA17E7284616F08AFD77
:10112000F5E6284616F086FD00283FF44CAF134B39
:10113000002204F5B275DA60284616F035FD002865
:101140003FF447AF52E7284616F074FD00283FF4FD
:1011500004AF0A4B002204F5B275DA60284616F097
:1011600023FD00283FF400AF63E700BFBC6FFF1F03
:10117000407CFF1F107CFF1F307CFF1F207CFF1F67
:1011800008310020284616F055FD00283FF4A9AE8E
:101190000B4B002204F5B674DA60204616F004FD0D
:1011A00000283FF4A6AE77E700F10F01C9B204F1C1
:1011B000800012F08DFDA2E770BD70BD70BD00BF54
:1011C000307CFF1FA1F57A71032906D8DFE801F012
:1011D0000E0A0602074B0022DA607047064B002217
:1011E000DA607047054B0022DA607047044B00223A
:1011F000DA607047407CFF1F307CFF1F207CFF1FA0
:10120000107CFF1F70B500F586750446284616F061
:10121000CBFC00B970BD284616F00CFD0028F9D0B3
:10122000A36ABDE87040184708B590F8A40017F00D
:10123000D7FB084A1368C0F58040A3F164018842D7
:1012400002DB6433984201DD106008BD4FF0FF30CF
:1012500008BD00BF6C7CFF1F08B590F8A80017F010
:10126000BFFB074A1368A3F16401884202DB6433C1
:10127000984201DD106008BD4FF0FF3008BD00BF8F
:10128000647CFF1F30B500F58A7483B005462046A4
:1012900016F08AFC30B9204616F0C2FC80B9002056
:1012A00003B030BD204616F0C5FC0028F3D00A4B31
:1012B0001B680193019BC5F8B030012003B030BD1D
:1012C00095F824320020042BC5F8B000E7D185F84A
:1012D0002402A5F82602E3E7D0940020054B82B053
:1012E0001B680193019B03F5FA63C0F8283202B032
:1012F000704700BFD0940020054B82B01B6801935B
:10130000019B03F5FA63C0F82C3202B0704700BFAE
:10131000D0940020F0B5B1B007462849284E684661
:10132000144617F003F9274904A817F0FFF82649D7
:1013300008A817F0FBF825490CA817F0F7F824497E
:1013400010A817F0F3F8234914A817F0EFF8224972
:1013500018A817F0EBF821491CA817F0E7F8204966
:1013600020A817F0E3F81F4924A817F0DFF81E495A
:1013700028A817F0DBF81D492CA817F0D7F886FB32
:101380000426E317C3EB660606EB4601A4EB8101D6
:10139000C9B20DEB0111384617F0DCF8F1B238464E
:1013A00017F06CF96D4630AC103C204617F07EF813
:1013B000AC42F9D1384631B0F0BD00BF64540200F0
:1013C000ABAAAA2A68540200B45502006C54020069
:1013D000C45302002C5702007054020050580200FF
:1013E00074540200785402007C54020080540200BD
:1013F000F0B5144DDFF854E00E4617460FCD8FB010
:1014000002AC0FC40FCD0FC495E80F008EFB065E33
:10141000F517C5EB6E0584E80F0005EB450EA6EB4E
:101420008E060EABF6B203EB8606EDB256F8303CF4
:10143000054A0095384604211EF0C8FA38460FB018
:10144000F0BD00BF3454020084540200ABAAAA2AA3
:1014500010B5012200210D48FFF7ACF9032202214B
:101460000B48FFF7A7F9052204210A48FFF7A2F964
:10147000082206210848FFF79DF921232322222173
:101480000648BDE8104012F083B800BF107CFF1F73
:10149000207CFF1F307CFF1F407CFF1F907CFF1FC4
:1014A00010B586B00B460A4C0A4A684615211EF054
:1014B0008DFA00221146204612F096F968461EF079
:1014C0001FFD69460246204616F008FE06B010BD14
:1014D000907CFF1F8C54020070B5324D0446324898
:1014E0000BF0FEF82B68052B064645D0072B2AD0BB
:1014F000042B10D020462D49FFF7D2FF06212C489F
:1015000018F060FF29682B4816F074FE2948BDE8E2
:10151000704016F01FBE68B104F29F1400252946E2
:1015200021480BF025F9013580F00100B54204F89F
:10153000010FF4D10921204818F044FF1D48BDE8EF
:10154000704016F007BE70B104F29F1400252946C2
:1015500015480BF031F90135003018BF0120B542B4
:1015600004F8010FF3D10B21144818F02BFF114898
:10157000BDE8704016F0EEBD58B104F29F1400258E
:10158000294609480BF006F90135B54204F8010F68
:10159000F6D109210A4818F015FF0648BDE8704049
:1015A00016F0D8BDBC6FFF1F08310020C4540200E4
:1015B000F45402001871FF1FB8540200A054020036
:1015C000AC54020010B588B00B4600920A4C0B4A8E
:1015D00002A815211EF0FAF900221146204612F049
:1015E00003F902A81EF08CFC02A90246204616F060
:1015F00075FD08B010BD00BF907CFF1FFC540200B9
:1016000030B5D0F818120C4C0C4A87B005460131A1
:1016100068461EF0DBF90021C5F828122046022298
:1016200012F0E2F868461EF06BFC6946024620465E
:1016300016F054FD07B030BD907CFF1F105502001E
:1016400030B5D0F81C120C4C0C4A87B0054601315D
:1016500068461EF0BBF90021C5F82C122046012275
:1016600012F0C2F868461EF04BFC6946024620465E
:1016700016F034FD07B030BD907CFF1F10550200FE
:1016800010B5D0F8283282B004462BB10E4A126849
:101690000092009A934210D3D4F82C325BB10A4ADC
:1016A00012680192019A934205D22046FFF7C8FFC3
:1016B0000023C4F82C3202B010BDFFF7A1FF0023B5
:1016C000C4F82832E8E700BFD094002070B50D4D73
:1016D0000C460646FFF794FF02220021284612F02E
:1016E00083F820461EF00CFC21460246284616F0E0
:1016F000F5FC20461EF004FC142828BF1420C6F870
:10170000180270BD907CFF1F70B5114D0C46064647
:10171000FFF776FF28460222002112F065F82046E6
:101720001EF0EEFB21460246284616F0D7FC204666
:101730001EF0E6FBC6F8180220461EF0E1FB01464B
:10174000204618F03FFE0348BDE8704016F002BD89
:10175000907CFF1F1871FF1F10B586B00B460D4A15
:101760000D4C152168461EF031F968461EF0C8FB85
:10177000C0F11001C9B22046002212F035F86846C7
:101780001EF0BEFB69460246204616F0A7FC06B0D6
:1017900010BD00BF28550200907CFF1F70B50E4C95
:1017A00005460E4620460122002112F01DF81322A4
:1017B0000A49204616F092FC20460222002112F02F
:1017C00013F83146204616F09FFC1323C5F8183253
:1017D000C5F81C3270BD00BF907CFF1F2C55020065
:1017E0002DE9F04F2DED028B91B000F5C071039003
:1017F0007C480AF0A5FD002840F09180039B0290F0
:10180000FF2706468046814601900446BB463D467A
:10181000009703F27F1AB7EE008A02E00134102C21
:101820004FD01AF8012F002AF8D0224608A86D4997
:101830000AF038FB9DF824200098824208D00199D4
:101840000131CBB290420193034628BF1346009367
:10185000DDED0D7AF4EE487AF1EE10FA03D0029A3B
:101860000132D3B20293F4EEC87AF1EE10FA2146B7
:101870005C48D8BFB0EE678A0AF056FFA84207D08E
:10188000854209F1010928BF05465FFA89F9EDB2E1
:101890009DF839205A4506D008F1010893455FFAB2
:1018A00088F828BF93469DF83820BA42B6D09742B0
:1018B00004F1010406F1010628BF1746102CF6B208
:1018C000AFD101220021484811F08EFF1222474972
:1018D000454816F003FC294604A816F059FEB9F154
:1018E000010F25D9424920E0424904A816F0B8FE6C
:1018F000069B112BF8D9022200213B4811F074FFFE
:1019000004A9394816F000FC039C102312220DEBA9
:101910000300C4F81822C4F81C3216F0C7FD11B039
:10192000BDEC028BBDE8F08F324904A816F098FE9A
:10193000069B022BF8D9594608A816F029FE08A9DB
:1019400004A816F089FE08A816F0B0FDB8F1010F42
:1019500005D9274900E0274904A816F081FE069B17
:10196000052BF8D9394608A816F012FE08A904A8D4
:1019700016F072FE08A816F099FD012E05D91C4933
:1019800000E01C4904A816F06BFE069B082BF8D952
:10199000009A039908A8FFF7BDFC08A904A816F04F
:1019A0005BFE08A816F082FD019B012B05D91049AA
:1019B00000E0104904A816F053FE069B0C2BF8D942
:1019C000B0EE480A022108A816F0F6FD08A904A8FE
:1019D00016F042FE08A816F069FD029B012B87D97C
:1019E000034982E708310020907CFF1F5455020014
:1019F00068550200AC55020010B502220C460B4897
:101A0000122111F0F1FE0A490848022216F066FB85
:101A1000082CD4BF132112210448022211F0E4FE45
:101A200021460248BDE8104016F0E4BB907CFF1F41
:101A30009C54020038B504460E480AF051FA04F5E9
:101A4000D0710546C4F8101204F29F1304F2AF10CF
:101A5000002203F8012F8342FBD1631901222046A3
:101A600083F8A021FFF77EF929462046BDE83840DB
:101A7000FFF7C2BF0831002010B503220C460B4807
:101A8000122111F0B1FE0A490848022216F026FB85
:101A9000082C94BF132112210448032211F0A4FE44
:101AA000611C0248BDE8104016F0A4BB907CFF1FEB
:101AB0009C54020030B5204B1B7883B004460D4681
:101AC0001BB91E4B1B68092B12D01D48A46B0AF0D2
:101AD00015FA1C4929400029024604DBC9B202203C
:101AE000A04703B030BD013961F00F010131F5E7C6
:101AF000FFF704F913492940002918DBCDB2294624
:101B00000F480AF013FA0E480AF0DCF901462046A5
:101B1000FFF7FAFD0C4B1B680193019B03F5FA6379
:101B20002946C4F828322046FFF7A6FFD9E7013935
:101B300061F00F010131E1E701670020BC6FFF1F79
:101B4000083100200F000080D094002010B5022240
:101B50000C460D480F2111F047FE0C490A4802229D
:101B600016F0BCFA092C4FF0020294BF10210F218D
:101B7000054811F039FE214600230A220248BDE83B
:101B8000104016F0F7BA00BF907CFF1F9C54020073
:101B900038B504460E480AF0B1F904F5D07105468F
:101BA000C4F8101204F29F1304F2AF10002203F8DD
:101BB000012F8342FBD163190122204683F89F2124
:101BC000FFF7D0F829462046BDE83840FFF7BEBFF2
:101BD0000831002038B5594D2B68013B04460C2BC9
:101BE00000F2A180DFE803F05F6B6D07071A07269C
:101BF000313C4A948900002300F5D075026A4362A3
:101C0000012380F83132C0F810528262FFF764FC81
:101C100029462046BDE83840FFF7A4B8036A83622E
:101C2000002200F5C0714262C0F81012BDE83840D1
:101C3000FFF798B88368026A4362012380F8313263
:101C40008262BDE83840FFF7ADB80023026A436204
:101C5000012380F831328262BDE83840FFF7C0B816
:101C6000C36A026A4362012380F831328262FFF75D
:101C7000D5F83348BDE838400CF05EBA036A836299
:101C800000F5D07100224262C0F8101200F29F13DA
:101C900000F2AF1003F8012F8342FBD12046BDE8CC
:101CA0003840FFF75FB8C368226A63620123A2620B
:101CB00084F831322046BDE83840FFF7BBBE0369E7
:101CC000F2E7036B026A436200F5D071012382627E
:101CD00080F83132C0F8101200F29F13002200F297
:101CE000AF1003F8012F8342FBD12046FFF73AF8EB
:101CF0001448BDE8384003F0ABBD0023026A4362DC
:101D0000012380F831328262BDE83840FFF7A4B881
:101D1000436B026A4362012380F831328262BDE87C
:101D20003840FFF735BF2921074818F04BFB2968D9
:101D30000648BDE8384016F05DBA00BFBC6FFF1F13
:101D4000B0670020A82D00206C5502001871FF1FFD
:101D5000134A144B126870B553F82250124C86B0D7
:101D6000064628461EF0CCF8D6F820120F4AC6F8D0
:101D700020028142B8BF01462B46013168461DF062
:101D800025FE20460122002111F02EFD68461EF09E
:101D9000B7F869460246204616F0A0F906B070BDB5
:101DA000BC6FFF1F7C6FFF1F907CFF1F98550200C8
:101DB00070B500F5927586B00446284615F0F4FE1D
:101DC000002840F02581284615F02AFF002840F021
:101DD000E88004F59A75284615F0E6FE002840F0E4
:101DE000F380284615F01CFF002840F0A38004F57E
:101DF0009675284615F0D8FE002840F0AE8028469B
:101E000015F00EFF002870D104F59E75284615F0D8
:101E1000CBFE002873D1284615F002FF00283FD1E1
:101E200004F5A275284615F0BFFE002842D12846C9
:101E300015F0F6FE70B904F5A675284615F0B4FE47
:101E400090B9284615F0ECFE10B10023C4F8CC3050
:101E500006B070BD002304F5A675C4F8C830284646
:101E600015F0A2FE0028ECD0284615F0E3FE00286D
:101E7000E7D02046FFF7C4FB964B092220461A60A4
:101E8000FFF7A8FE2046FFF763FF934B1B680593FF
:101E9000059BC4F8CC30012384F8143206B070BD21
:101EA000002304F5A275C4F8C430284615F07CFE62
:101EB0000028BCD0284615F0BDFE0028B7D020462B
:101EC000FFF79EFB834B082220461A60FFF782FE35
:101ED0002046FFF73DFF804B1B680493049BC4F82A
:101EE000C830012384F81432A5E7002304F59E7559
:101EF000C4F8BC30284615F057FE00288BD0284681
:101F000015F098FE002886D02046FFF779FB714B2C
:101F1000072220461A60FFF75DFE2046FFF718FFF4
:101F20006D4B1B680393039BC4F8C430012384F8F2
:101F3000143275E794F824220023032A04F59675D9
:101F400004BF84F82432A4F82632C4F8C0302846EE
:101F500015F02AFE00283FF452AF284615F06AFE1D
:101F600000283FF44CAF2046FFF74AFB594B1A6854
:101F7000052A00F08C80042A00F09480574A1268E9
:101F80001A602046FFF726FE2046FFF7E1FE524B7F
:101F90001B680293029BC4F8BC30012384F81432FE
:101FA00032E794F824220023022A04F59A7504BF2C
:101FB00084F82432A4F82632C4F8B830284615F044
:101FC000F3FD00283FF40DAF284615F033FE00283E
:101FD0003FF407AF2046FFF713FB3E4A1368062B7A
:101FE00050D00C2B58D00D2B42D03D4B1B681360AA
:101FF0002046FFF7EFFD2046FFF7AAFE364B1B6891
:102000000193019BC4F8C030012384F81432EEE63A
:10201000284615F00FFE00283FF4D5AE2046FFF706
:10202000EFFA2C4A1368012B27D0022B3FD0032B49
:1020300014D00A2B45D02B4B1B6813602046FFF7AA
:10204000C9FD2046FFF784FE234B1B680093009BCD
:10205000C4F8B830012384F81432BAE6214D22497D
:1020600001264FF0FF300A232E6008601360E5E779
:102070001B4906230B601360BAE71A48022103606C
:102080001160DBE716480C2103601160B0E71349CB
:1020900004220A601A6074E7114906200D230860C3
:1020A0001360A5E70D4905220A601A6069E70D4D26
:1020B0000D4901264FF0FF3003232E6008601360A6
:1020C000BCE7084D084901234FF0FF302B60136037
:1020D0000860B3E7BC6FFF1FD0940020386FFF1F6C
:1020E000346FFF1F3C6FFF1FB86FFF1F70B50446B2
:1020F00016480E4609F002FF06F00F03013398421E
:1021000006D004F5D0712046BDE87040FEF72ABE27
:10211000054631462046FEF7F1FD29462046FFF7E9
:1021200015FD0A480AF07EFB01462046FFF7A4FC95
:10213000074B062220461A60FFF74CFD2046FFF7AA
:1021400007FE012384F8143270BD00BF083100205F
:10215000BC6FFF1F10B500220C461248112111F070
:1021600043FB032210490F4815F0B8FF632C4FF0D2
:1021700000020CDC092CCCBF12211321094811F0FC
:1021800033FB21460748BDE8104016F033B8112153
:10219000044811F029FB21460248BDE8104016F022
:1021A00029B800BF907CFF1F4C55020010B50122DA
:1021B0000C461248112111F017FB032210490F4859
:1021C00015F08CFF092C4FF001020CDD632CD4BFFD
:1021D00012211121094811F007FB21460748BDE8EB
:1021E000104016F007B81321044811F0FDFA2146FB
:1021F0000248BDE8104015F0FDBF00BF907CFF1FF6
:102200004C550200F0B587B005460C9F0D9E0E9C04
:102210000F9829606A601499159AAB60EF60109B63
:10222000119F2E616C61129E139C6963AA63EB611E
:10223000A8612F62EE622C6305F1A80305F1D001BD
:10224000002243F8042F9942FBD105F27F1205F2D8
:102250008F13002102F8011F9A42FBD105F29F1152
:10226000002203F8012F9942FBD105F5D67305F53D
:10227000F671002243F8042F9942FBD105F2EF13C7
:1022800005F20F21002203F8012F9942FBD1762499
:1022900075217422732305F1800677270394029138
:1022A000019200933046722304977122702111F03D
:1022B00025FEEB6B002BC8BF002420DD21463046F5
:1022C00011F006FD304611F073FE0A2016F0EEFF05
:1022D0000134EB6BE4B29C42F0DB002B0FDD0024F9
:1022E0002146304611F012FD304611F061FE0A2001
:1022F00016F0DCFF0134EB6BE4B29C42F0DB1420FF
:1023000016F0D4FF2846FFF765FC2846FFF720FDAE
:102310000F480EF097FF01462846FFF71BFF0C48B9
:102320000EF092FF01462846FFF740FF09480AF0E9
:1023300079FA01462846FFF79FFB064809F0DEFDC3
:102340000146284607B0BDE8F040FFF7FFBB00BFDD
:10235000D490002008310020F8B51F4C1F4F1546BF
:1023600000220E462046114611F03EFA2046112268
:102370001B4915F0B3FE00221146204611F034FA35
:1023800030461DF0BDFD31460246204615F0A6FE42
:1023900020460122002111F027FA28461DF0B0FD49
:1023A00029460246204615F099FE30461DF0A8FD4C
:1023B0000146304618F006F8384615F0CBFE2846A0
:1023C0001DF09EFD0146284617F0FCFF3846BDE88B
:1023D000F84015F0BFBE00BF907CFF1F1871FF1FB3
:1023E0009C550200B0B588B002AF04460B4600927F
:1023F0001521164A164D38461DF0E8FA38461DF0EC
:102400007FFDD4F81832C4F8180298420146B8BFCC
:10241000194601F1080323F00703ADEB030D02ACED
:102420003B460C4A013120461DF0D0FA28460222D4
:10243000002111F0D9F920461DF062FD2146024627
:10244000284615F04BFE1837BD46B0BDB05502000A
:10245000907CFF1F985502002DE9F04790F831322B
:1024600082B00546002B40F08280584E584A3068B2
:10247000D46892F809E092E88800197897F800C0CB
:10248000137A534F1CEA0E0F01EA03015AD0BB7AAC
:1024900003F0030309B143F0040343F00803991068
:1024A000013B91720D2B0AD8DFE803F05E07580755
:1024B000095B5E5E5B090758075E013CD460C31E82
:1024C000A34202DC0330A04239DA424809F016FD8B
:1024D0003368E31A48BF033300EBA307002F39DC4E
:1024E0000127DFF80081D8F800309F4226D05FFA3C
:1024F00087F94946374809F02DFE3A4636492846BD
:10250000FFF770FF354B364A1B680193019B126839
:1025100003F5FA630C2AC5F8283239D04946284613
:10252000FFF714FB2B480AF07DF901462846FFF718
:10253000A3FA2846FFF74EFBC8F80070346002B0DB
:10254000BDE8F087BB7A03F003030029A7D043F06E
:102550000403A4E7022FA8BF0227C2E70234D46015
:10256000ADE7023CD460AAE70134D460A7E70023BA
:1025700080F831321748154E09F0C0FC1949144A49
:10258000086003B29B001C4618463360D36070E7B6
:10259000D8F80030E8192B44002209F10F014FF060
:1025A000010A05F1800980F89FA1C9B283F89F2133
:1025B000484611F08DFBD8F800100F314846C9B2DB
:1025C00011F0A4FB85F875A1B6E700BF807CFF1F62
:1025D000107CFF1F08310020C0670200D09400204B
:1025E000BC6FFF1FF07BFF1F2DE9F041A84D2DEDC3
:1025F000028B2B68DA0782B0044640F1EB81A54DCF
:102600002B68DB0740F1D78194F81432002B40F09F
:10261000AF81A14DA14E2B6869681A78687A0F784E
:102620002B7A9D49074202EA03021DD08B7A03F000
:1026300003030AB143F0040343F008039A10013B7B
:10264000AA720D2B00F26881DFE813F054015001EB
:102650004C01500166011600540154011600660138
:1026600050014C01500154018B7A03F00303002AFE
:10267000E4D043F00403E1E7EB68023BEB6007EED4
:10268000903A9FED876A96ED007ADFED866AF8EE64
:10269000E77A87EE868A77EE267AB4EEE78AF1EE5D
:1026A00010FA06DA37EE667AB4EEC78AF1EE10FA5F
:1026B00040D87D4BDFED7D7AD3ED006AB1EE007A34
:1026C000E6EEC77AB4EEE78AF1EE10FA40F13A810D
:1026D000B9EE008A26EE888ADFED717A68EE277AF5
:1026E000FDEEE77AC5ED037A714D724F95ED000A64
:1026F000F5EE007A68EE277AF4EE407AF1EE10FA01
:10270000C7ED007A40F075819FED650A6A4967EE72
:10271000807A2046FDEEE77A17EE902AFFF762FEF8
:10272000664B86ED008A1B680193019B03F5FA63F3
:10273000C4F82832624A1368506819780578507ACC
:10274000137A054201EA030100F0F380937A03F063
:10275000030309B143F0040343F008039910013B5C
:1027600091720D2B00F2D680DFE813F0D000C80084
:10277000CC00C800D4000E00D000D0000E00D40061
:10278000C800CC00C800D000D568023DD5604D4ED1
:102790003368DA1EAA4202DCDA1CAA421DDA4A4F6A
:1027A000DFF83C81EA1A3B68D8F8001048BF0332D2
:1027B00003EBA203082BA8BF082323EAE373994283
:1027C0003B6006D0194641480EF036FD3968C8F81E
:1027D00000102046FFF7EAFC35603D4A1368506858
:1027E00019780578507A137A054201EA030100F05E
:1027F0009780937A03F0030309B143F0040343F095
:1028000008039910013B91720D2B00F28780DFE8DD
:1028100003F03B37333785073B3B07853733373B7F
:10282000D568023DD5602B4E3068C31EAB4202DC3A
:10283000C31CAB421BDA284A281A136848BF03306E
:1028400003EBA000002840F3E280B0F5967FA8BF1C
:102850004FF49670214F10603B68DFF87C809842FF
:1028600004D063699847D8F800303B60356002B007
:10287000BDEC028BBDE8F081D5680235D560D2E7AA
:10288000D568013DD560CEE7D5680135D560CAE78A
:102890000C7CFF1F047CFF1F207CFF1F687CFF1F38
:1028A0000000C8420AD7233D707CFF1F00000000D3
:1028B000AC7CFF1FE47BFF1FB8550200D0940020C2
:1028C000307CFF1FBC7CFF1F007CFF1FD4900020CA
:1028D000407CFF1F087CFF1F787CFF1FE87BFF1FE9
:1028E000FC7BFF1FEB680233EB60C8E6EB68013B43
:1028F000EB60C4E6EB680133EB60C0E6D568013DF0
:10290000D56044E7D5680235D56040E7D568013524
:10291000D5603CE7D5683AE7EB68B0E6D56882E772
:10292000937A03F0030300293FF46BAF43F00403F1
:1029300067E7937A03F0030300293FF40FAF43F0F6
:1029400004030BE7334BD3ED007A27EE877AB4EE1E
:10295000C78AF1EE10FA7FF7C7AEDFED2F7A67EE88
:10296000277AB0EE478AFDEEE77AC5ED037ABBE63B
:102970002A482B4DDFF8C4E02A4E0023002204F53C
:10298000C077036084F81422EA6039462648CEF8FE
:102990000030336009F0B6FF244B234883ED000A72
:1029A000394609F0EDFFF7EE007A37EEC00A194B11
:1029B00083ED000A2FE6284616F07AF900283FF446
:1029C00023AE1B480EF040FC1A4B1860284616F048
:1029D00075F919E6284616F06BF900283FF40FAE9A
:1029E00013480EF02DFC144B1860284616F066F9BB
:1029F00005E637EEC00A94F830220B4804F5C071A2
:102A00000AF042F9D7ED007AC5ED007A7CE60120A4
:102A100020E700BF747CFF1F0000C842E47BFF1F5B
:102A2000207CFF1F687CFF1F08310020707CFF1F87
:102A3000D4900020007CFF1F787CFF1FAC7CFF1F20
:102A4000384B1B680D2B00D070472DE9F041364BF9
:102A5000CFB20B4007F00F06002B82B006F1010643
:102A600039DBC418054694F8A0317BB12F4B93F89D
:102A70000080B8F1000F33D1424631462C4809F0AE
:102A800029FD002838D102B0BDE8F081274B1B7822
:102A9000DBB901223146264809F01CFD30B3012381
:102AA00084F8A031394605F1800011F011F9324661
:102AB00020492846FFF796FC1F4B1B680193019B9A
:102AC00003F5FA63C5F82832DDE7836B324601214E
:102AD00004209847D7E7013B63F00F030133C0E7B9
:102AE000836B3246002104209847CCE7394605F134
:102AF000800011F00BF9C6E7394605F1800084F833
:102B0000A08111F003F932460C492846FFF76AFC10
:102B1000094B1B680093009B03F5FA63C5F8283244
:102B2000B1E700BFBC6FFF1F0F00008001670020EE
:102B300008310020D4550200D0940020C455020072
:102B400010B5013A8CB00446032A6BD8DFE802F0D6
:102B500052371D0240F6B833994200F086806AD998
:102B600041F28833994200F0AA8041F658339942E5
:102B700064D15F49FEF7C8FD5E4B1B680B930B9B4E
:102B800003F5FA63C4F8283253E040F6B8339942AB
:102B900077D050D941F28833994200F09C8041F6B9
:102BA000583399424AD15449FEF7AEFD514B1B6848
:102BB0000893089B03F5FA63C4F8283239E04F4ABA
:102BC00040F6B833994212683DD034D941F2883387
:102BD000994262D041F6583399422FD14849FEF7C5
:102BE00093FD444B1B680593059B03F5FA63C4F8FA
:102BF00028321EE0434801910AF0EAFA019940F6B2
:102C0000B83399422BD016D941F28833994250D02B
:102C100041F65833994211D102463B492046FFF70D
:102C2000E1FB06E03949FEF73BFC3A21384817F052
:102C3000C9FB0CB010BDB1F57A7FFAD02046FEF783
:102C4000DFFC0CB010BD3349FFF7CCFB294B1B68F0
:102C50000393039B03F5FA63C4F82832E9E70246BD
:102C60002C492046FFF7BEFBE3E72B49FEF74CFD5E
:102C7000204B1B680993099B03F5FA63C4F82832BB
:102C8000D7E72649FEF740FD1A4B1B680693069BC3
:102C900003F5FA63C4F82832CBE72149FFF7A2FB1A
:102CA000144B1B680493049B03F5FA63C4F82832A1
:102CB000BFE702461B492046FFF794FBB9E71A49D4
:102CC000FEF722FD0B4B1B680A930A9B03F5FA6380
:102CD000C4F82832ADE71549FEF716FD054B1B6811
:102CE0000793079B03F5FA63C4F82832A1E700BFF6
:102CF00088560200D094002054560200B86FFF1F7F
:102D000020560200B06700200056020090560200D4
:102D1000A0560200E0550200605602003056020044
:102D200010560200F0550200785602004456020088
:102D3000B1F57A7F38B504D8B0F8264294B30020B4
:102D400038BD40F6B834A14212D8B0F82612B1F519
:102D50007A7FF4D1A0F826422146FFF7F1FE082140
:102D6000284817F02FFB284815F0F4F9002038BD4B
:102D700041F28835A94222D941F65834A142B0F82F
:102D800026122ED8A942DAD1A0F826422146FFF712
:102D9000D7FE04211D4817F015FB1B4815F0DAF982
:102DA000002038BD4FF47A72A0F826220B21184873
:102DB00017F008FB144815F0CDF9204638BDB0F8DF
:102DC0002612A142BBD1A0F826522946FFF7B8FE31
:102DD0000621104817F0F6FA0B4815F0BBF9012050
:102DE00038BDA142ABD10024A0F826422146FFF70E
:102DF000A7FE0821084817F0E5FA034815F0AAF9DC
:102E0000204638BDE85602001871FF1FFC5602002C
:102E1000DC560200F456020004570200B0B588B038
:102E200002AF0446019300920B46174A174D152135
:102E300038461CF0CBFD38461DF062F8D4F8183245
:102E4000C4F8180298420146B8BF194601F10803B8
:102E500023F00703ADEB030D02AC3B460C4A0131F6
:102E600020461CF0B3FD28460222002110F0BCFCD5
:102E700020461DF045F821460246284615F02EF959
:102E80001837BD46B0BD00BF10570200907CFF1F31
:102E9000985502002DE9F04190F8143282B00546B1
:102EA000002B40F082804E4F4E4E3B6879681A7876
:102EB000787A0C783B7A4A49044202EA030215D038
:102EC0008B7A03F003030AB143F0040343F00803D1
:102ED0009A10013BBA720D2B65D8DFE803F05860F9
:102EE0005C60640F58580F64605C60588B7A03F024
:102EF0000303002AECD043F00403E9E7FC68023C3A
:102F0000FC603368DA1CA24202DB033BA3423BDDD8
:102F1000354B1B78C3EB83739B00A34204DC334B1C
:102F20001B789B00A34201DAFB601C46304FDFF8A0
:102F3000D0803A68002C2346B8BFE31C9B10934214
:102F4000C8F800301FD09A1AD2B295F8303229480A
:102F500005F5C07109F014FED8F80080C7F80080AC
:102F600001466A462846FEF743FA4246034622498E
:102F70002846FFF753FF214B1B680193019B03F584
:102F8000FA63C5F82832346002B0BDE8F081FC680D
:102F90000134FC60B5E7FC680234FC60B1E7FC6812
:102FA000013CFC60ADE7FC68ABE715490C4F104AEB
:102FB0000C4E1048002305F5C0740B60FB602146E1
:102FC0001360336009F03EFC074B21461870094836
:102FD00009F068FC054BC0F17F00187065E700BF81
:102FE000107CFF1FF87BFF1F507CFF1FF47BFF1F2F
:102FF000E07BFF1F083100201C570200D094002006
:10300000EC7BFF1F134B1A680D2A10B5044609D834
:103010000123934043F2B6321A405AB91A0714D426
:103020005B050ED42046FFF735FF2046BDE8104073
:10303000FFF7DABAFFF710FA2046BDE81040FFF7B5
:10304000D3BABDE81040FDF7E7BBBDE81040FDF77F
:10305000F3BC00BFBC6FFF1FF0B58DB01D4D9DF8D8
:1030600048409DF84CE09DF85070CDF80CE00134DC
:10307000019306464B1C00920294049707A8164A37
:10308000164C14211CF0A2FC28460222002110F04C
:10309000ABFB07A81CF034FF07A90246284615F031
:1030A0001DF807A81CF02CFFC6F81802204615F0E2
:1030B00051F814210A4817F085F907A81CF020FFE1
:1030C000014607A817F07EF9204615F043F80DB029
:1030D000F0BD00BF907CFF1F305702001871FF1F2A
:1030E00048570200F8B5184D0C4617460646FEF73D
:1030F00087FA02220021284610F076FB20461CF0B9
:10310000FFFE21460246284614F0E8FF20461CF048
:10311000F7FE0222C1B2284610F066FB3946284667
:1031200015F068F820461CF0EBFE0222C1B22846DA
:1031300010F05AFB20461CF0E3FE0630142828BF8E
:103140001420C6F81802F8BD907CFF1F70B51E4D04
:1031500082B00C468DED010A0646FEF751FA28466C
:103160000222002110F040FB20461CF0C9FE21463F
:103170000246284614F0B2FF20461CF0C1FE02228F
:10318000C1B2284610F030FB9DED010A10EE100A86
:103190001BF04EFA41EC100B0221284615F034F8D2
:1031A00020461CF0ADFE0222C1B2284610F01CFBE6
:1031B00020461CF0A5FE0630142828BF1420C6F8AF
:1031C000180202B070BD00BF907CFF1FF8B51C4D07
:1031D0000C4616460746FEF713FA0222002128463F
:1031E00010F002FB20461CF08BFE214602462846CA
:1031F00014F074FF20461CF083FE0222C1B2284660
:1032000010F0F2FA30461CF07BFE314602462846AA
:1032100014F064FF20461CF073FE0222C1B228465F
:1032200010F0E2FA20461CF06BFE044630461CF01B
:1032300067FE2044142828BF1420C7F81802F8BDE0
:10324000907CFF1F2DE9F0411D4D1F460C46164690
:103250008046FEF7D5F902220021284610F0C4FA74
:1032600020461CF04DFE21460246284614F036FF4B
:1032700020461CF045FE0222C1B2284610F0B4FAE6
:1032800030461CF03DFE31460246284614F026FF2B
:1032900020461CF035FEC119C9B20222284610F0A2
:1032A000A3FA20461CF02CFE044630461CF028FEF3
:1032B0002044142828BF1420C8F81802BDE8F08163
:1032C000907CFF1F08B503221121094810F08CFAE9
:1032D000084B1B7801222BB907490548BDE8084077
:1032E00014F0FCBE05490248BDE8084014F0F6BEE3
:1032F000907CFF1F44910020AC55020060570200F3
:1033000010B50446032290F878110B4810F06CFABF
:10331000D4F81022D4F87831D35C01222BB90749B4
:103320000548BDE8104014F0D9BE05490248BDE883
:10333000104014F0D3BE00BF907CFF1FAC550200BC
:10334000645702002DE9F04F0446102300F14407B2
:1033500020268FB0036404F16208E6633846002536
:1033600010F032FC404610F02FFC424639460495DE
:1033700003950295019500952B4604F1800010F00D
:1033800025FCC4F804611A26C4F8E860192604F57F
:103390008673C4F8EC601B264FF0250C4FF0240E0A
:1033A0001E2107931F220523C4F8F0604FF0420B43
:1033B0004FF0430A4FF027094FF0260818271D2029
:1033C0001C26C4F8DCC0C4F8E0E0C4F80831C4F836
:1033D000FC10C4F80021C4F8A4B0C4F8A8A0C4F834
:1033E000D49004F58A7AC4F8D880C4F8E470C4F89C
:1033F000F460C4F8F800079814F0B6FB504614F0D7
:10340000B3FB04F58E7904F592721646484614F023
:10341000ABFB04F5967230461746089614F0A4FBF1
:1034200004F59A710E463846099714F09DFB04F591
:103430009E7130460F460A9614F096FB04F5A27072
:10344000064638460B9714F08FFB04F5A670074626
:10345000304604F5AA7B0C9614F086FB384604F53A
:10346000AE780D9714F080FB584614F07DFB04F500
:10347000B277404614F078FB04F5B676384614F07F
:1034800073FB304614F070FBFF22012384F83022D6
:1034900084F8313284F8745184F8755184F81452E8
:1034A00084F81552C4F81852C4F81C52C4F82052BB
:1034B00084F82452A4F826524A21714816F082FF5B
:1034C000704814F047FE2B466F480422142110F078
:1034D000AFF90A226D496C4814F000FE94F8A4007C
:1034E000022115F093FE94F8A800022115F08EFE3B
:1034F00094F8D800022115F089FE94F8D400022136
:1035000015F084FE94F8DC00022115F07FFE94F89B
:10351000E000022115F07AFE94F8E400022115F093
:1035200075FE94F8E800022115F070FE94F8EC00A6
:10353000022115F06BFE94F8F000022115F066FEF2
:1035400094F8F400022115F061FE0798D4F8D81021
:1035500014F012FB5046D4F8D41014F00DFB48467A
:10356000D4F8DC1014F008FB0898D4F8E01014F03C
:1035700003FB0998D4F8E41014F0FEFA0A98D4F882
:10358000E81014F0F9FA0B98D4F8EC1014F0F4FAEF
:103590000C98D4F8F01014F0EFFA0D9DD4F8F41054
:1035A000284614F0E9FA0798B4F8081114F0FAFA6A
:1035B0005046B4F8081114F0F5FA4846B4F808116A
:1035C00014F0F0FA0898B4F8081114F0EBFA09981E
:1035D000B4F8081114F0E6FA0A98B4F8081114F0D7
:1035E000E1FA0B98B4F8081114F0DCFA0C98B4F86E
:1035F000081114F0D7FA2846B4F8081114F0D2FADA
:1036000094F8F800022115F001FE94F8FC00022164
:1036100015F0FCFD94F80001022115F0F7FD94F877
:103620000401022115F0F2FD5846D4F8F81014F008
:10363000A3FA4046D4F8FC1014F09EFA3846D4F8A9
:10364000001114F099FA3046D4F8041114F094FAE9
:103650005846B4F8081114F0A5FA4046B4F8081119
:1036600014F0A0FA3846B4F8081114F09BFA30466A
:10367000B4F8081114F096FA20460FB0BDE8F08FA8
:10368000685702001871FF1F907CFF1FB45702009B
:1036900070B516460C460546C9B203221F4810F005
:1036A000A3F8FEB92B1993F88061D5F878317EB96B
:1036B0009C422BD021461A4809F048F8012818D915
:1036C000334601460A221548BDE8704014F052BD49
:1036D0009C424FF0010213D012491048BDE87040DF
:1036E00014F0FCBC012210490C48BDE8704014F0F5
:1036F000F5BC01220D490948BDE8704014F0EEBC4C
:103700000B490648BDE8704014F0E8BC01220949A5
:103710000248BDE8704014F0E1BC00BF907CFF1F80
:10372000083100206457020068550200AC550200C1
:10373000C0570200408E020070B5441800220F29C5
:10374000054684F8F0211FD901F00F060C463146DA
:10375000FFF79EFF12211B4816F034FE31461A482F
:1037600014F048FD184814F0F5FC95F83032A342E7
:1037700004BFFF2385F83032144B1B680A2B09D095
:103780000B2B00D070BD214605F18000BDE87040D4
:1037900010F0BCBA2846FDF733FF95F824220C48F8
:1037A0000023012AC5F8D03004BF85F82432A5F8DB
:1037B000263231460AF0F6FC2846BDE87040FDF797
:1037C0002DBB00BFC45702001871FF1FBC6FFF1F45
:1037D000B067002070B50D461646D0F87C11002267
:1037E0000446FFF755FF0322E9B209480FF0FCFF3A
:1037F000012236B90749064814F070FCC4F87C5120
:1038000070BD0549024814F069FCC4F87C5170BDD4
:10381000907CFF1F408E0200C0570200D0F810328B
:1038200070B55D5CC0F87811103104461646C9B217
:10383000803095B110F06AFA0122D4F87811204650
:10384000FFF7C8FFD4F878316C33012244F82360C5
:1038500084F8742184F8752170BD10F039FA2A4675
:10386000D4F878112046FFF7B5FFEBE72DE9F041DA
:10387000012186B0054648480FF0DAFC00211220ED
:1038800015F0C4FC0121132015F0C0FC0121132008
:1038900015F0A8FC0B26122015F0AAFC30B9013E49
:1038A00001464FF496744FF0130067D175217422CE
:1038B000732305F180067727762402910192009305
:1038C00030467223049703947122702110F016FB86
:1038D000EB6B002B09DD00242146304610F016FA70
:1038E0000134EB6BE4B29C42F6DB304610F060FB37
:1038F00005F29F1305F2AF11002203F8012F8B424E
:10390000FBD16FF4BF76761B05F27F1405F28F189A
:103910000027311904F8017F00222846FFF7B8FE7E
:103920004445F6D105F5D67305F5F670002143F848
:10393000041F83424FF00002F9D1184B85F815227D
:1039400001240622284685F814421A60FEF742F93F
:103950002846FEF7FDF912480DF074FC0146284692
:10396000FEF7F8FB0E480DF06FFC01462846FEF707
:103970001DFC85F8744106B0BDE8F08115F032FCFD
:103980002346013BFDD10121132015F02BFC2346DA
:10399000013BFDD17FE700BF3070FF1FBC6FFF1FF1
:1039A000D490002030B5D0F8B83087B00446A3B129
:1039B000374A126802920299C91A0ED0354D2B6807
:1039C0000222013380F824225AD002222046FFF737
:1039D000AFF9002847D107B030BDD4F8D030ABB133
:1039E0002B4A126803920399C91A0FD0012284F856
:1039F00024222046FFF79CF90028ECD0264809F045
:103A0000E7FB0146244809F0DFFCE4E7D4F8C030C6
:103A10008BB11F4A126804920499C91A0BD0032271
:103A200084F824222046FFF783F90028D3D02046CB
:103A3000FFF71CFFCFE7D4F8B030002BCBD0144AEF
:103A4000126805920599C91AC5D0042284F8242267
:103A50002046FFF76DF90028BDD0104808F0ACFBF8
:103A6000E3699847B7E729680C4808F05BF82046F7
:103A70002968FDF7C1FF4FF0FF332B6007B030BD61
:103A80000648019108F02CFA019928609DE700BFD3
:103A9000D0940020B86FFF1FB067002008310020CD
:103AA0002DE9F04F00F58E7585B00446284614F0D8
:103AB0007BF810B905B0BDE8F08F284614F0BAF8CD
:103AC0000028F7D08C4E3368013B0A2B57D8DFE82B
:103AD00003F0411E18565656560D0D560600874DDA
:103AE0002B78002B54D1E3699847E3E7844A137895
:103AF000204683F001031370FFF7E4FB05B0BDE837
:103B0000F08F804802F0FAF805B0BDE8F08F7E4DE6
:103B100029684B1C00F0D7807C4808F003F82A681D
:103B20007B492046FEF75EFC7A4B1B680393039BA0
:103B300003F5FA63C4F8283201274FF0FF3320461B
:103B40002B603760FEF746F82046FEF701F984F84F
:103B50001472AFE76D4808F021F930B36B4808F0F4
:103B6000BFF96D4902462046FEF73CFC694B1B68D5
:103B70000193019B03F5FA63C4F828329AE794F89D
:103B80001532032B00F2AA80DFE803F076593F20BC
:103B9000012720463760FEF71DF82046FEF7D8F8CB
:103BA000002384F814722B7084E7584808F098F9C1
:103BB0005A4902462046FEF715FC564B1B680293F5
:103BC000029B03F5FA63C4F8283273E704F28F19F5
:103BD0006FF4BF77C8463F1B04F27F154FF0010A10
:103BE000791915F8013F08F8013F002285F800A077
:103BF0002046FFF74DFD4D454FF0010BF0D102235C
:103C000084F814B284F8153253E06FF4BF773F1B89
:103C100004F27F1504F28F1A4FF0000979194FF062
:103C2000000805F8019F42462046FFF731FD554543
:103C3000F4D1012384F8158284F8143239E004F2B7
:103C40008F196FF4BF77C8463F1B04F27F157919AF
:103C500015F8013F08F8013F83F001032B700022A3
:103C60002046FFF715FDA945F1D10322012384F871
:103C7000152284F814321CE06FF4C778C4EB0808EE
:103C800004F28F1504F27F1704F29F1908EB050167
:103C900015F8013F83F0010307F8013F0022204699
:103CA000FFF7F6FCA945F1D1012384F8153284F819
:103CB00014323368062B7FF4FDAE04F5C071204644
:103CC000FDF750F8F6E6012520463560FDF782FF46
:103CD0002046FEF73DF884F81452EBE631211048F7
:103CE00016F070FB94F815120E4814F083FA0D4884
:103CF00014F030FADDE700BFBC6FFF1F942E0020E8
:103D000044910020A82D0020B86FFF1F083100202B
:103D1000F8570200D0940020D8570200E85702005C
:103D2000085802001871FF1F70B504460D4696B082
:103D300080300FF0CDFF6319012283F8F0210F2DA1
:103D400000F23F81DFE815F0240040005C007800BD
:103D500094009D00A600AF00F100CB00DE00B8008B
:103D60002A01040117011000B9492046FDF7CCFCD7
:103D7000B84BB9481B681293129B03F5FA63C4F859
:103D8000283204F5C071042208F038FE16B070BD68
:103D9000B24B1A68511E012940F2D0810A2A00F064
:103DA000CD812046AE49FDF7AFFCAA4BAA481B685F
:103DB0000293029B03F5FA63C4F8283204F5C0713C
:103DC000002208F041FEE1E7A44B1A68511E0129C8
:103DD00040F2C0810B2A00F0BD812046A149FDF7C9
:103DE00093FC9C4B9C481B680193019B03F5FA6371
:103DF000C4F8283204F5C071012208F025FEC5E799
:103E0000964B1B68012B00F06C81083B012B40F2A4
:103E1000688120469449FDF777FC8E4B8E481B68DD
:103E20000493049B03F5FA63C4F8283204F5C071C7
:103E3000022208F009FEA9E7884B1B68012B00F05D
:103E40006881083B012B40F2648120468749FDF7D9
:103E50005BFC804B80481B680693069B03F5FA6366
:103E6000C4F8283204F5C071032208F0EDFD8DE797
:103E70007F4B1B78002B00F02781A3690120984716
:103E800084E77B4B1B78002B00F01181A369022093
:103E900098477BE7764B1B78002B00F0FB80A369EB
:103EA0000320984772E7724B1B78002B00F0C2800A
:103EB000A3690420984769E720466E49FDF724FC72
:103EC000644B65481B680E930E9B03F5FA63C4F8B8
:103ED000283204F5C071032208F0D6FD56E72046CB
:103EE0006549FDF711FC5B4B5B481B680C930C9B11
:103EF00003F5FA63C4F8283204F5C071012208F012
:103F0000C3FD43E720465D49FDF7FEFB514B524898
:103F10001B680D930D9B03F5FA63C4F8283204F572
:103F2000C071022208F0B0FD30E720465449FDF789
:103F3000EBFB484B48481B680B930B9B03F5FA635C
:103F4000C4F8283204F5C071002208F09DFD1DE779
:103F500020464C49FDF7D8FB3E4B3F481B68109369
:103F6000109B03F5FA63C4F8283204F5C0710222ED
:103F700008F044FD0AE720464349FDF7C5FB354BF1
:103F800035481B681193119B03F5FA63C4F8283276
:103F900004F5C071032208F031FDF7E620463B49E5
:103FA000FDF7B2FB2B4B2C481B680F930F9B03F5BF
:103FB000FA63C4F8283204F5C071012208F01EFD2E
:103FC000E4E60F2D7FF6E2AE05F00F063146012242
:103FD0002046FFF75DFB94F83032AB42636A88BF3E
:103FE00084F8305213B1A5F1100098471B4B1B68A1
:103FF000013B0C2B00F2E78001A252F823F000BF36
:10400000594100006B410000C741000075410000AC
:10401000BD410000C7410000B3410000594100000C
:10402000A9410000934100008D3D0000894100003E
:104030007F41000016492046FDF766FB054B1B68D3
:104040000A930A9B03F5FA63C4F8283230E700BFED
:1040500034590200D094002008310020BC6FFF1FAB
:10406000485802003C580200705802009C58020058
:104070000167002008590200F0580200FC580200B5
:10408000E45802001C590200285902001459020089
:10409000D85802005F492046FDF736FB5E4B1B688F
:1040A0000993099B03F5FA63C4F82832F7E65B49E4
:1040B0002046FDF729FB584B1B680893089B03F526
:1040C000FA63C4F82832E1E655492046FDF71CFBA7
:1040D000514B1B680793079B03F5FA63C4F828321A
:1040E000CBE6504A50491378002083F00103137047
:1040F0000870002B00F088804C492046FDF704FB37
:10410000454B1B680393039B03F5FA63C4F82832FD
:104110003CE6454B1A78002A6DD0424D44490022B6
:1041200020462A701A70FDF7EFFA3B4B1B68059387
:10413000059B03F5FA63C4F8283227E60B222046D4
:104140001A60FDF747FD2046FDF702FE012384F8C3
:1041500014321BE60A22F2E7324B364A1B784FF044
:10416000FF311160002B7FF411AE29462046FCF789
:10417000C5FD0BE629462046FCF708FD06E6294664
:104180002046FEF75DFC01E629462046FDF7AEFF1E
:10419000FCE529462046FCF7B1FD1F4B1B68139335
:1041A000139BC4F8D030F1E529462046FDF782FC88
:1041B000ECE529462046FCF745FDE7E52946204683
:1041C000FCF712FDE2E529462046FCF769FD314681
:1041D0002046FDF705FB104B1A681592159A1B68CF
:1041E0001493149B02F5FA6203F5FA63C4F82C22C7
:1041F000C4F82832CAE50B480F4902700122204654
:104200001A70FDF781FA90E70C492046FDF77CFA19
:1042100076E700BFC8580200D0940020B8580200CA
:10422000A8580200016700200067002054580200CF
:104230007C580200B86FFF1F8C58020064580200BF
:10424000F8B5344C2368DB07054646D5324E15F0E9
:1042500009F83368304A984234D900F5EA4395F8B2
:10426000741130331360002947D105F180073846B7
:104270000FF0B6FD18B3EB6B002B24DD002634469F
:1042800005E00134EB6BE4B29C4226461BDA214682
:1042900038460FF0DBFC2E4430B196F8F031214661
:1042A00028460BB9FFF740FD214638460FF0DEFCEB
:1042B0000028E6D021462846FFF73EFAE1E795F8C8
:1042C00075311BB9F8BD012385F8753138460FF0FB
:1042D0006FFE002385F87531F8BD204614F0E8FC28
:1042E0000028B3D014F0BEFF0B4E00F5EA43303384
:1042F0002046336014F0E2FCA9E7014605F180078F
:104300002846FCF707FC38460FF06AFD0028D6D097
:10431000B1E700BF887CFF1FB87CFF1F10B50023EA
:1043200003604360836004461621044816F04AF88F
:10433000034813F00FFF204610BD00BF4459020090
:104340001871FF1F38B505461A210F4816F03AF8C4
:104350002C6864B1A36A2B6020462C2114F0EAFC7F
:104360002C680A48042116F02DF8002CF2D1002305
:104370002B606B60AB600421054816F023F80548FC
:1043800013F0E8FE284638BD5C590200805902004F
:10439000785902001871FF1F38B5054615210F48DE
:1043A00016F010F82C6864B1A36A2B6020462C210B
:1043B00014F0C0FC2C680A48042116F003F8002C05
:1043C000F2D100232B606B60AB600421054815F02F
:1043D000F9FF0548BDE8384013F0BCBE885902001B
:1043E00080590200785902001871FF1F38B52E4C11
:1043F00005460A212D4815F0E5FF204613F0AAFED8
:104400000E212B4815F0DEFF6B682046196813F06B
:10441000F1FE0B21274815F0D5FF6B680A221979A8
:104420002046002313F0A6FE204613F093FE082139
:10443000214815F0C7FF6B682046D96813F0DAFEF3
:1044400007211E4815F0BEFF6B68D8691AF0F0F816
:1044500041EC100B2046022113F0D6FE0B21184828
:1044600015F0B0FF6B680A2293F820102046002355
:1044700013F080FE1621134815F0A4FF6B68204648
:10448000597A13F0B7FE0E210F4815F09BFF6B68A9
:10449000204693F824100A22002313F06BFE2046D6
:1044A000BDE8384013F056BE1871FF1FA059020036
:1044B000AC590200BC590200C8590200D45902008C
:1044C000DC590200E8590200005A020038B543687E
:1044D000002B6BD09A6A934204460D4618BF012008
:1044E00066D0A36823B1226812B19B6A9A4274D045
:1044F0006368444A1B68934202DC01332DD038BD07
:104500002A4641494148FDF727FF3121404815F02F
:1045100059FF28461BF0F4FC0146284615F052FFCF
:104520003C4813F017FE07213B4815F04BFF61682C
:10453000384813F05FFE0E21384815F043FF6368DA
:104540003448196813F056FE324813F003FE6368CE
:104550001B6801334FF00000D1D12A4630492B4867
:10456000FDF7FAFE34212F4815F02CFF28461BF0EA
:10457000C7FC0146284615F025FF264813F0EAFD42
:104580000721254815F01EFF6168224813F032FE0E
:104590000E21224815F016FF63681E48196813F0B3
:1045A00029FE1C4813F0D6FD002038BD012038BD7F
:1045B0000A4616481C49FDF7CFFE26211B4815F078
:1045C00001FF28461BF09CFC0146284615F0FAFE28
:1045D000104813F0BFFD002083E72A4614490B481A
:1045E000FDF7BAFE3921134815F0ECFE28461BF002
:1045F00087FC0146284615F0E5FE064813F0AAFDA3
:10460000002075E780969800945A0200CC2E002076
:10461000AC5A02001871FF1FE05A0200E85A02006B
:10462000F85A0200105B0200105A0200205A0200E1
:10463000485A0200585A020003684360704700BF9E
:1046400010B544680CB1206810BD03490348FCF75D
:1046500027FF204610BD00BF485B0200CC2E002083
:1046600010B544680CB1207910BD03490348FCF72C
:1046700017FF204610BD00BF5C5B0200CC2E00205F
:104680002DE9F0418846002707700646112114489D
:1046900015F098FED8F80440ECB108340FCC35463C
:1046A0000FC594E80F0085E80F0071680D4813F0FE
:1046B000A1FD08210C4815F085FED8F80430094802
:1046C00019790A223B4613F055FD064813F042FDC6
:1046D0003046BDE8F08105490548FCF7E1FEF7E703
:1046E000705B02001871FF1F64740200845B02009B
:1046F000CC2E00204068003018BF0120704700BF5A
:1047000070B5044616213648666815F05BFE3548DC
:1047100013F020FD0721344815F054FE616831483C
:1047200013F068FD0821314815F04CFE21682D4832
:1047300013F060FD08212E4815F044FEA1682948B9
:1047400013F058FD23686360642538E013F002FD20
:104750000E21284815F036FE63682248196813F0C8
:1047600049FD0D21244815F02DFE61681D480831D2
:1047700013F040FD0921214815F024FE6368194813
:10478000197913F037FD0B211D4815F01BFE6168E8
:10479000144813F02FFD08211A4815F013FE636822
:1047A0001048996A13F026FD17492046FFF78EFE40
:1047B00040B1204600F0C6F8013D08D063680948C2
:1047C000002BC3D1074813F0C5FC666070BD0F49CC
:1047D0000F48FCF765FE034813F0BCFC666070BD33
:1047E0009C5B02001871FF1FE05A0200B45B0200DC
:1047F000C05B0200E85A0200CC5B0200DC5B0200F6
:10480000E85B0200F45B0200005C0200085C02004E
:10481000CC2E0020036810B504466BB14268934269
:1048200004BF002242609A6A8AB100210260996244
:1048300018462C2114F07EFA0A492046FFF746FE5E
:1048400000B110BD2046BDE81040FFF759BF816898
:104850008B4208BF82602C21184614F06BFA0023AB
:104860002360E9E7185C020038B50368044673B1B9
:104870001A6891420D4603DC0AE01A68AA4207DA78
:104880002046FFF7C7FF23686360002BF5D10023A4
:10489000636005492046FFF719FE00B138BD204688
:1048A000BDE83840FFF72CBF285C020082B02DE93C
:1048B000F04106AC074644F8043F0D461E4814215B
:1048C000904615F07FFD214600230A221B4813F075
:1048D00051FC1A4813F03EFC2C2014F027FA2C222D
:1048E000002106461AF016FE0FCCB060F16032616E
:1048F00073610FCCBC68356086F80480B061F161EB
:104900003262736214B1A64218BFA6627B68BE60B1
:104910007BB13B685BB10A493846FFF7D7FD10B958
:104920003846FFF7EDFEBDE8F04102B070473E604B
:10493000F1E77E60EDE700BF545C02001871FF1FD5
:104940006C5C0200436810B5044673B19A6A9342E6
:1049500013D062600C492046FFF7B8FD00B110BDCE
:104960002046BDE81040FFF7CBBE1921074815F0DF
:1049700029FD074813F0EEFBECE706490648FCF773
:104980008FFD63689A6AE4E7A85C02008C5C020011
:104990001871FF1F785C0200CC2E002070B590E8E3
:1049A000480005460024436006E00134FFF7CAFFD3
:1049B000B4F57A7F06D06B682846002BF5D16E607F
:1049C000204670BD03490448FCF76AFD6E6020462E
:1049D00070BD00BFB05C0200CC2E0020002202603F
:1049E00042608260704700BF38B50446172109480D
:1049F00015F0E8FC23685BB10025DA6822601846F0
:104A0000DD6010219D6014F095F92368002BF4D12E
:104A1000204638BDC05C020038B5436804460D46E8
:104A200083B1DA68934218BF012036D09A689A425F
:104A300048D0E3682BB1DA68934219D09A689A4259
:104A400002D038BD0120F4E728492948FCF728FDA9
:104A50001F21284815F0B6FC274813F07BFB284699
:104A60001BF04EFA0146284615F0ACFC0020E8E7A2
:104A700022491F48FCF714FD2B21214815F0A2FC08
:104A800028461BF03DFA0146284615F09BFC1A48C3
:104A900013F060FBE3680020D0E71A491448FCF7E4
:104AA000FFFC2321184815F08DFC28461BF028FA3E
:104AB0000146284615F086FC0F4813F04BFB63684F
:104AC0000020B3E711490A48FCF7EAFC1721104817
:104AD00015F078FC084813F03DFB28461BF010FA4F
:104AE0000146284615F06EFC0020A2E7745D020026
:104AF000CC2E0020885D02001871FF1F345D02007B
:104B0000485D0200D85C0200E85C02000C5D020017
:104B10001C5D020010B507490446FFF77DFF20B178
:104B200063680BB1DB68636010BD204600F004F8D9
:104B3000F6E700BFA85C020038B5002104464348F0
:104B400015F040FC424813F005FB0D21414815F0DB
:104B500039FC3F4813F0FEFA07213F48656815F01D
:104B600031FC21683A4813F045FB06213B4815F01B
:104B700029FC6168364813F03DFB0721384815F0E1
:104B800021FCA168324813F035FB0A21354815F0A5
:104B900019FCE1682E4813F02DFB2D4813F0DAFACA
:104BA000204600F0DFF863682BB945E0FFF7B2FF5D
:104BB0006368002B40D005212B4815F003FC636887
:104BC000234819680A22002313F0D4FA0421274845
:104BD00015F0F8FB63681E4819790A22002313F0C8
:104BE000C9FA0421224815F0EDFB63681848597989
:104BF0000A22002313F0BEFA05211E4815F0E2FB3D
:104C00006168134813F0F6FA06211B4815F0DAFB29
:104C100063680F48D96813F0EDFA0D4813F09AFA5B
:104C20006368DA6893422046C0D11A21134815F010
:104C3000C9FB074813F08EFA0021044815F0C2FBA7
:104C4000034813F087FA656038BD00BF24550200A1
:104C50001871FF1FA85D0200B85D0200C05D020070
:104C6000C85D0200D05D0200DC5D0200E45D020070
:104C7000EC5D0200F45D0200FC5D0200045E0200D7
:104C800038B50446C068002838D060602368834285
:104C900026D0A368834216D08568C368EB60C368DA
:104CA00082689A60102114F045F865602B46E36035
:104CB00014492046FFF7B0FE00B138BD2046BDE8DC
:104CC0003840FFF739BF82681AB1826862600021FC
:104CD000D1601846102114F02DF86368A360E6E750
:104CE000C268626062B1002191600022DA601846F9
:104CF000102114F01FF863682360D8E76068C5E7E7
:104D0000A260F2E7205E02002DE9F843044610207D
:104D1000894690461F4614F009F8A66800254560AC
:104D2000856080F80490C56080F8058007600EB14A
:104D3000F06086606368A0607BB123685BB108495E
:104D40002046FFF769FE08B1BDE8F8832046BDE8BC
:104D5000F843FFF7F1BE2060F1E76060EDE700BFC8
:104D60002C5E020010B505490446FFF755FE10B948
:104D70002046FFF7E1FE2368636010BD345E020049
:104D8000C3681879704700BFC3685879704700BF7F
:104D9000C3681868704700BFC068003018BF0120A2
:104DA000704700BF10B505490446FFF735FE10B93E
:104DB0002046FFF7C1FE2368E36010BD3C5E0200A1
:104DC00010B507490446FFF727FE20B1E3680BB191
:104DD000DB68E36010BD2046FFF7AEFEF6E700BFDC
:104DE000485E020070B511490546FFF715FE90B107
:104DF00028466E680024FFF7B5FF05E00134FFF791
:104E000089FEB4F57A7F0AD06B682846002BF5D16D
:104E10006E60204670BD2846FFF78EFEE8E7044925
:104E20000448FCF73DFB6E60204670BD545E0200F6
:104E30005C5E0200CC2E002038B50A4D00230446EB
:104E40000360436029464FF4A072083013F04EFE11
:104E500005F5A07104F5A4704FF4807213F046FEBE
:104E6000204638BD6C5E020010B490E81800013492
:104E700000EB031394FBF1F202FB11410B44416080
:104E800093F848015DF8044B704700BF10B490E8F8
:104E9000180094FBF1F200EB031302FB11410B44E9
:104EA000416093F848015DF8044B7047436810B4C3
:104EB0000468194400EB041091FBF2F303FB121297
:104EC00050FA82F25DF8044B92F84801704700BF37
:104ED000406801308842B4BF00200120704700BF05
:104EE000054B0B40002B01DB03607047013B63F077
:104EF0000F030133036070470F000080036803EB6A
:104F0000830300EB83000830704700BF0023436039
:104F1000704700BF38B501250446056758220E4981
:104F20007C3013F0E3FD0D4A84F86D5000231570BA
:104F300084F8D83084F8E03084F8E93084F8E83038
:104F4000C4F8D430C4F8DC3084F8EA30C4F8E43073
:104F50006367A367204638BDAC600200C87CFF1FB2
:104F60002DE9F0418046064600F16007337D5BB1D4
:104F70003546002455F8040F013418B11C2113F0F4
:104F8000D9FE337DA342F5DC1836BE42EED1404651
:104F9000BDE8F08101EB410300EBC30380F8D810BA
:104FA000C0F8D4300120704710B5D0F8D44084B197
:104FB000227D8A420B46D8BF002304EB8304D8BF6E
:104FC00019466468C0F8DC404CB180F8E01001205C
:104FD00010BD06490648FCF763FA204610BD054996
:104FE0000348FCF75DFA204610BD00BF04610200D3
:104FF000CC2E00201861020010B5D0F8D440BCB10E
:10500000237D8B420EDD04EB81046468B4B190F81B
:10501000D83080F8E910012480F8E83080F8EA40C0
:10502000204610BD08490948FCF73AFA002010BD97
:1050300007490648FCF734FA204610BD05490348E5
:10504000FCF72EFA204610BD40610200CC2E002055
:105050002C6102005061020090F8EA306BB110B58B
:10506000D0F8D44090F8D8204CB190F8E8309B1A92
:10507000B3FA83F35B09184610BD1846704703491D
:105080000348FCF70DFA2346F5E700BF6461020010
:10509000CC2E0020F8B501EB410710EBC7062AD053
:1050A000D0F8D43015461A7DAA4204461DDD03EB24
:1050B00085035E682EB30121154807F0F1F805EB72
:1050C000470504EB8504034600226068012100F0D7
:1050D00079FE02210E4807F0E3F800220346022180
:1050E000606800F06FFE0120F8BD0A490A48FCF72D
:1050F000D7F90020F8BD09490748FCF7D1F9304637
:10510000F8BD07490448FCF7CBF93046F8BD00BFAD
:10511000083100208C610200CC2E00207861020052
:10512000A061020038B5044660B101EB410110EB0B
:10513000C1050DD002EB420014EBC0040ED06A751D
:10514000012038BD08490948FCF7AAF9204638BDB6
:1051500007490648FCF7A4F9284638BD0549034825
:10516000FCF79EF9204638BDB4610200CC2E002029
:10517000C8610200DC610200D0F8D4300BB11960C4
:10518000704780F8D8300346C0F8D40019607047E3
:10519000D0F8D41070B5054631B30B7D032B1DD864
:1051A0001C2013F0C3FD044600F0F4FDD5F8D43004
:1051B0001E1D28D0197D39B153F82100C0B100F06F
:1051C00083FED5F8D430197D03EB810201315460A0
:1051D0002046197500F0ECFD204670BD0F491048BF
:1051E000FCF75EF9002070BDFFF7D4FE40B970BD3A
:1051F0000C490B48FCF754F9D5F8D430197DE3E796
:10520000D5F8D410C9E708490548FCF749F9204604
:105210001C2113F08FFD304670BD00BFF06102000D
:10522000CC2E002014620200006202002DE9F0433F
:10523000044685B01A4804F05BF80E21194815F0B1
:10524000C1F8194812F086FFD4F8DC0008B300F06A
:1052500075FED4F8D430D4F8DC0093F8009094F8BC
:10526000D85094F8E46094F8E07000F0B5FD804602
:10527000D4F8DC0000F0B2FDC0B202904B468DE8DD
:105280008001324629460948FDF7E6FE05B0BDE833
:10529000F0830749054805B0BDE8F043FCF700B9C5
:1052A00004670020246202001871FF1FCC2E00202A
:1052B0003462020070B5044633216F4815F082F85D
:1052C000D4F8DC0000F088FD00230A2201466B4878
:1052D00012F050FF01216A4815F074F8D4F8DC0090
:1052E00000F07CFD0146654812F084FF0921654805
:1052F00015F068F800230A2294F8E0105F4812F0D5
:1053000039FF1421604815F05DF8D4F8DC0000F096
:10531000E1FD002301460A22584812F02BFF5748AE
:1053200012F018FFD4F8DC30002B00F09080D4F895
:10533000D450002D00F08680184600F0CDFD0546C3
:1053400078B31921514815F03DF8D4F8DC0000F08D
:10535000C1FD102106464E4815F034F800233146B1
:105360000A22464812F006FFD4F8D4301B7DB3421F
:1053700024D92121474815F025F8D4F8D43084F8F1
:10538000E06003EB86067068C4F8DC0000F09EFD68
:105390002121414815F016F8384812F0DBFE284666
:1053A00070BDD4F8DC0000F0C5FD3D213B4815F090
:1053B00009F8324812F0CEFE284670BD1821384850
:1053C00015F000F8D4F8D430D4F8E4201B689A42E1
:1053D00024DB1021334814F0F5FFD4F8D4305E7D7F
:1053E000FF2E3AD006EB4606132104EBC6062E48E4
:1053F00014F0E8FFC4F8D46015212C4814F0E2FF43
:10540000D4F8D430002284F8E0205868C4F8DC00D6
:105410000123C4F8E43000F059FDB9E71A2124480B
:1054200014F0D0FF002384F8E030D4F8D420D4F86E
:10543000E4305068C4F8DC000133C4F8E43000F014
:1054400045FDA5E71B491C48FCF72AF8B4E71B49B2
:1054500019481D46FCF724F8AEE70021184814F05F
:10546000B1FF064812F076FE1321164814F0AAFF89
:10547000236E98478CE700BF486202001871FF1F37
:105480007C620200806202008C620200CC62020038
:10549000E8620200FC620200AC630200D06302001A
:1054A00020630200586302006C6302008063020004
:1054B0003C630200B8620200CC2E0020A46202000D
:1054C00024550200986302002DE9F043D0F8D4304F
:1054D000044685B0D0F8DC0093F8009094F8D860CA
:1054E00094F8E47094F8E08000F076FC0546D4F877
:1054F000DC0000F073FCC0B202904B46CDF8008097
:105500003A46314601950348FDF7A6FD05B0BDE8D2
:10551000F08300BFCC2E002010B5142104460948AA
:1055200014F050FF084812F015FED4F8DC0018B152
:10553000BDE8104000F002BD04490548BDE8104038
:10554000FBF7AEBF106402001871FF1F2864020051
:10555000CC2E002003460022C3F8D40080F8D820C7
:1055600048B1406883F8E0200122C3F8DC00C3F8AA
:10557000E42000F0ABBC02490248FBF791BF00BF3A
:105580003C640200CC2E002070B5504E504D016698
:10559000044600F1150132602B607530FF220023B4
:1055A0000A7001F8013C41F8153C18318142F7D1ED
:1055B0002046FFF7EDFD054690B100231A46012174
:1055C00000F000FC00231A460221284600F0FAFBF6
:1055D0000121284600F06EFC2846022100F048FC1C
:1055E0002046FFF7D5FD054690B101221146002364
:1055F00000F0E8FB002301220221284600F0E2FB34
:105600000121284600F056FC2846022100F030FC1B
:105610002046FFF7BDFD054690B10023022201217F
:1056200000F0D0FB022211460023284600F0CAFBFE
:105630000121284600F03EFC2846022100F018FC1B
:1056400001212046FFF798FD012200212046FFF7A7
:1056500069FD01212046FFF79DFC02212046FFF74E
:105660008BFD2046FFF794FD054690B100230322F1
:10567000012100F0A7FB002303220221284600F0AD
:10568000A1FB0121284600F015FC2846022100F06C
:10569000EFFB2046FFF77CFD054690B10023042276
:1056A000012100F08FFB002304220221284600F094
:1056B00089FB0121284600F0FDFB2846022100F06D
:1056C000D7FB2046BDE87040FFF744BFC47CFF1FF6
:1056D000C07CFF1F30B5436E00EB83028DB0D46FEA
:1056E000132B0BD8DFE803F056677E100A0A170A5F
:1056F0000A0A0A0A0A0A10363C424D29214648483D
:10570000FBF7E4FF0DB030BD464A45482146FDF7A2
:105710005DFD0DB030BD90F8EA30002B71D190F8EE
:10572000E0300133404A032102A81AF04FF902A8E1
:105730001AF0E6FB02AA03464EE0D0F8DC0000F0C7
:105740005BFB431C24D0421C21463548FDF7CAFCB4
:105750000DB030BDD0F8DC0000F042FB0246F3E7AC
:10576000D0F8DC0000F03AFB0246EDE7D0F8DC00B0
:1057700000F03EFB042850D8DFE800F00A4D4B490A
:105780004700D0F8DC0000F035FB411C0246DBD1BD
:10579000264ABAE790F8D83003EB430200EBC20088
:1057A0000133027D03AD22BB214A28460E211AF0A7
:1057B0000DF92A46A9E790F8E01090F8D8301D4A74
:1057C00001310133009107A80C211AF0FFF807A856
:1057D0001AF096FB07AA034621461148FDF732FD51
:1057E0000DB030BD90F8D83003EB430350F83320B0
:1057F000AAE700922846104A0E211AF0E7F82A4636
:1058000083E790F8E93001338CE70C4A7DE70C4AD6
:105810007BE70C4A79E70C4A77E70C4A75E700BF4B
:10582000CC2E0020A0640200D06402007C64020040
:10583000A8640200C4640200B46402009864020018
:105840009064020088640200806402001055020027
:1058500010B517210446084814F0B4FD074812F0AB
:1058600079FC00220123626684F86D302046BDE891
:105870001040FFF72FBF00BFD46402001871FF1F54
:10588000436E10B5132B52D8DFE803F0410A0E51D6
:1058900051510A5151515151515151161D232A450F
:1058A00090F8E040204610BD90F8D83003EB430359
:1058B00050F83340204610BDD0F8DC0000F090FADC
:1058C0000446204610BDD0F8DC00BDE8104000F0D2
:1058D00085BAD0F8DC0000F08BFA0446204610BDF3
:1058E000D0F8DC0000F086FAB0F1FF3F14BF0446A8
:1058F00011241048132114F065FD21460E4812F0C2
:1059000079FC01210D4814F05DFD204610BD90F892
:10591000D840204610BDD0F8DC0000F06DFA11210F
:10592000B0F1FF3F14BF044610240548E3E700240C
:10593000B8E700BFEC6402001871FF1FAC5502000D
:105940000065020010B5B1F57A7F82B008D1026F10
:10595000012A0DD00122026780F86D2002B010BD2F
:10596000074A416712680192019A826702B010BD2E
:10597000022303670446FFF783FFA066F6E700BF34
:10598000D0940020994238B50D4603DA002901DA97
:105990008918FDD491FBF2F402FB1414A3424FF0DA
:1059A0000B010B48C8BFA41814F00CFD2946094888
:1059B00012F020FC0121084814F004FD214605489E
:1059C00012F018FC034812F0C5FB204638BD00BF9A
:1059D000146502001871FF1FAC550200F8B50446AB
:1059E0000D466348112114F0EDFC2946614812F080
:1059F00001FC604812F0AEFB636E132B00F2928044
:105A0000DFE803F01A7468909090829090909090E4
:105A1000909090263F4C590A294600231122204697
:105A2000FFF7B0FF0F2800F391800146D4F8DC00A7
:105A3000BDE8F84000F00ABA2946002320460422B7
:105A4000FFF7A0FFC1B22046BDE8F840FFF7A2BAB9
:105A500003272946012302222046FFF793FF06462B
:105A60000146D4F8DC0000F0BDF9751C002860D1B7
:105A7000013FEED12A4640494048BDE8F840FBF7D7
:105A8000A1BD2946012320461022FFF77BFF0146D6
:105A9000D4F8DC00BDE8F84000F0EAB9294600235C
:105AA00020460522FFF76EFF0146D4F8DC00BDE872
:105AB000F84000F0DFB92946012311222046FFF704
:105AC00061FF10284ADC0146D4F8DC00BDE8F8404C
:105AD00000F094B92946012320461022FFF752FF17
