:1000000000000320D1010000F9920100B19201002B
:10001000B1920100B1920100B1920100B1920100D0
:10002000B1920100B1920100B1920100F992010078
:10003000F9920100B192010001AE010005AF01008B
:10004000F9920100F9920100F9920100F992010080
:10005000F9920100F9920100F9920100F992010070
:10006000F9920100F9920100F9920100F992010060
:10007000F9920100F9920100F9920100F992010050
:10008000F9920100F9920100F9920100F992010040
:10009000F9920100F9920100F9920100F992010030
:1000A000F93B0100053C0100F9920100F9920100C1
:1000B000F9920100F9920100F99201004DAF01009F
:1000C000F992010079B00100F9920100A5B1010097
:1000D000F99201009DB20100F9920100F99201002C
:1000E000F9920100F9920100F9920100F9920100E0
:1000F000F9920100F9920100F9920100F9920100D0
:10010000F9920100F9920100F9920100F9920100BF
:10011000F9920100019D0100F9920100F99201009C
:10012000F9920100F9920100F9920100F99201009F
:10013000F9920100F9920100F9920100F99201008F
:10014000E5850100F992010095B30100F9920100E3
:10015000F9920100F9920100F9920100F99201006F
:10016000F9920100F9920100113C0100F99201009D
:10017000F9920100F9920100F9920100F99201004F
:10018000F9920100F9920100F9920100F99201003F
:10019000F9920100F99201008DB40100F992010079
:1001A000F9920100F9920100F9920100F99201001F
:1001B000F9920100F9920100F9920100F99201000F
:1001C000F9920100F9920100F9920100F9920100FF
:1001D0005C4B4CF2205210B51A804DF628121A8052
:1001E00000BF00BF19F08CF8574B4FF030621A6017
:1001F000564A9A60564ADA60564B4FF470021A60BB
:10020000554B564A1A60564B1A78110703D51A787F
:1002100042F008021A70534B5349AA221A70534AEB
:10022000534B8B4204D252F8040F43F8040BF8E707
:10023000504B514900228B4202D243F8042BFAE77B
:100240004E494F4A002352F8230041F8230001335E
:10025000742BF8D14B4B4C4A802103F8011B93427D
:10026000FBD14A4B454A1A60494B8A221A70A3F5C2
:10027000805324225A70A0221A709A799207FCD5D2
:100280009A79D406FCD4434A937903F00C03082BE3
:10029000FAD1414B60221A7002331A78802AFCD1BD
:1002A0003C4B01221A715D225A719A799006FCD555
:1002B0009979384A4906FBD5384B394919600021EC
:1002C000596020231370937903F00C030C2BFAD19F
:1002D000344B354A1A60354A354C136813F4807331
:1002E00003D123604FF4A8531360324B324A1A6093
:1002F00000225A60072243F8042C304AC3F80C2D20
:1003000062B619F06DFB2368DA0705D52C4819F0A1
:100310009FFA2C4B2C4A1A602C4B1B785B0609D594
:10032000284C294B22689A4204D1254819F090FAAA
:10033000002323601FF096F818F0E8FF18F016FF6E
:10034000FEE700BF0E20054030800440823F0400DD
:100350000100002B88ED00E0002008E0030000858C
:1003600002D0074000E00740C07BFF1FD8AC02006E
:10037000306FFF1FC07BFF1F38990020006AFF1FEE
:100380000000000000E400E064E400E008ED00E0AC
:10039000005006400040064001E007404480044011
:1003A0000000060204800440C010070010D0034083
:1003B00014D0034014E000E01FBF02000000202022
:1003C000FD2EB25E1CE00340A5C3945A00F0074026
:1003D000FFFFFFFFFFFFFFFFFFFFFFFFFFFFFFFF2D
:1003E000FFFFFFFFFFFFFFFFFFFFFFFFFFFFFFFF1D
:1003F000FFFFFFFFFFFFFFFFFFFFFFFFFFFFFFFF0D
:10040000FFFFFFFFFFFFFFFFFFFFFFFFDEF9FFFF23
:1004100010B5054C237833B9044B13B10448AFF33E
:1004200000800123237010BDC07BFF1F000000006F
:10043000D4AC0200084B10B51BB108490848AFF313
:1004400000800848036803B910BD074B002BFBD0A0
:10045000BDE81040184700BF00000000C47BFF1F2C
:10046000D4AC0200C07BFF1F0000000010B52422A6
:10047000044600211FF096FB002384F8243084F802
:100480002530204610BD00BFF8B5074690F824007F
:100490000D461646E0B13A46002404E00134844299
:1004A00002F1030212D01178A942F7D19178994252
:1004B000F4D104EB44043C446670A370062D5ED86E
:1004C000DFE805F031161D242B1031000A2C2BDC3F
:1004D00000EB40017A18013087F824007D545670F3
:1004E0009370EBE72E492F48BDE8F84001F0D8B9EA
:1004F00032462D492B48BDE8F84002F045B8324657
:100500002A492848BDE8F84002F03EB8324628495A
:100510002448BDE8F84002F037B826492148BDE834
:10052000F84001F0BDB9F8BD23491E4800F0B8FFFE
:10053000042122481AF08EFA2146214818F0A2F927
:10054000172120481AF086FA00230A2297F824106F
:100550001B4818F057F910211B481AF07BFA0C21A0
:10056000174818F08FF90B2118481AF073FA29462A
:10057000134818F087F9124818F034F99EE7144927
:10058000084800F08DFF152112481AF063FA294639
:100590000B4818F077F90A48BDE8F84018F022B97E
:1005A000245A0200CC2E0020E4590200F459020023
:1005B000005A0200105A020090590200A459020089
:1005C0001871FF1FAC590200C4590200D85902002B
:1005D000345A0200485A020038B590F825300B2BE7
:1005E000044627D91F49204800F05AFF17211F4809
:1005F0001AF030FA00230A2294F825101C4818F04B
:1006000001F917211B481AF025FA00230A2294F851
:100610002410174818F0F6F8102117481AF01AFAA3
:100620000C21134818F02EF90025114818F0DAF8BB
:10063000284638BD03EB430317210C48E55C1AF04C
:1006400009FA00230A2294F82510094818F0DAF86C
:100650000B210A481AF0FEF92946054818F012F94C
:10066000284638BD785A0200CC2E0020605A02007D
:100670001871FF1FAC590200C4590200D85902007A
:1006800090F825300B2B04D803EB43031844407833
:10069000704710B513490446134800F001FF1721B5
:1006A00012481AF0D7F900230A2294F825101048AE
:1006B00018F0A8F817210F481AF0CCF900230A22E5
:1006C00094F824100A4818F09DF810210A481AF0EE
:1006D000C1F90C21064818F0D5F8054818F082F841
:1006E000002010BD8C5A0200CC2E0020605A02005F
:1006F0001871FF1FAC590200C459020090F8253050
:100700000B2B04D803EB430318448078704710B5D3
:1007100013490446134800F0C3FE172112481AF08B
:1007200099F900230A2294F82510104818F06AF865
:1007300017210F481AF08EF900230A2294F824108A
:100740000A4818F05FF810210A481AF083F90C21C2
:10075000064818F097F8054818F044F8002010BD36
:10076000A05A0200CC2E0020605A02001871FF1F10
:10077000AC590200C459020090F825300133DBB2B5
:100780000B2B80F825308CBF00200120704700BF64
:10079000002380F8253070470022134680F824207B
:1007A00080F82520C2540333242BFBD1704700BFAF
:1007B000FFF7F2BF70B5044615460E460846022103
:1007C00019F06CF82846022119F068F8104A114B0C
:1007D00052F83610012001F500762072266052F89A
:1007E0003520607202F5007500206560E060013B15
:1007F000FDD191F8003292F8002203F00103D207F4
:1008000044BF43F00203DBB2A372204670BD00BFB9
:10081000A0A10200C0D4010090F814322DE9F047E5
:100820000746002B7CD1DFF80C82794AD8F800000B
:10083000D468784D784E92F809E092E80A0091F871
:10084000009093F800C0117A714B1CEA0E0F09EA70
:1008500001015DD09B7A03F0030309B143F0040367
:1008600043F008039910013B91720D2B0AD8DFE881
:1008700003F075077207096F75756F0907720775C1
:10088000013CD460A04219D0DFF89891DFF890A124
:10089000D9F80030002C2246B8BFE21C92109A42D0
:1008A000CAF8002008D04FF47A715C480FF0B6F80F
:1008B000DAF80030C9F80030C8F800402B686968E1
:1008C0001A78687A0C782B7A5249044202EA0302B9
:1008D00016D08B7A03F003030AB143F0040343F00C
:1008E00008039A10013BAA720D2B00F28180DFE809
:1008F00003F07B7766777F387B7B387F7766777B03
:100900008B7A03F00303002AEBD043F00403E8E7FB
:100910009B7A03F003030029A4D043F00403A1E76A
:100920003F4E404C40484149394ADFF80881394D33
:1009300000233360384E2360036087F814321C466E
:100940000B601846D360C8F80030EB60336072E784
:10095000023CD46096E70234D46093E70134D4605B
:1009600090E7EC68023CEC6007F5AE7017F09CFC79
:100970002F4B00282DD11A68042A3BDC3268A41AB8
:1009800004EB840402EB44049442EC6026D01A6821
:10099000264D254F0132002C1A6022462B68B8BF25
:1009A000E21C92109A423A6006D040F2E9311B48AC
:1009B0000FF034F83B682B603460BDE8F087EC68DA
:1009C0000234EC6007F5AE7017F06EFC184B00288F
:1009D000D1D03268002194421960D8D1BDE8F087A7
:1009E000EC68013CEC60BFE7EC680134EC60BBE70D
:1009F000EC68B9E7092A326805DCA41A04EB840420
:100A000002EB8404C0E76421A41A01FB0424BBE7C1
:100A1000107CFF1F207CFF1F847CFF1FB06700201D
:100A2000547CFF1F5C7CFF1F587CFF1F607CFF1FF6
:100A3000DC7BFF1F7C7CFF1FF8B590F81432002B85
:100A400047D12F4D2F4A2868D468577A92E848003A
:100A5000197896F800E0137A2A4E1EEA070F01EA89
:100A600003012ED0B37A03F0030309B143F004036A
:100A700043F008039910013B91720D2B0AD8DFE86F
:100A800003F03C07390709363C3C36090739073C77
:100A9000013CD460A04213D01B4E1C4F3368002C85
:100AA0002246B8BFE21C92109A423A6006D04FF438
:100AB0007A71174805F0BEFA3B6833602C60F8BDC8
:100AC000F8BDB37A03F003030029D3D043F0040345
:100AD000D0E70E4E0C490B4A094D002380F8143222
:100AE0001C4633600B601846D3602B60ADE7023CB8
:100AF000D460CFE70234D460CCE70134D460C9E7D6
:100B00008C7CFF1F107CFF1FB47CFF1FB07CFF1F7D
:100B1000A82D00202DE9F84F002383461D460E46E0
:100B200080F87431994600F5D67A00F180081024D7
:100B3000012706E08BF8747101350134102DE4B201
:100B400016D05AF8043F002BF6D0B342F2D8DBF8A7
:100B50001032CAF800905B5D2146404653B901351A
:100B600013F01CFC0134102D8BF87571E4B2E8D140
:100B7000BDE8F88F13F0D2FB0028DDD121464046B6
:100B800013F0EEFB8BF87571D6E700BF38B5144C47
:100B90000C40002C1FDB031993F8A0516DB9012202
:100BA00083F8A021C9B2803013F0DAFB2A4621462F
:100BB0000C48BDE838400CF0E3BA002283F8A021CD
:100BC000C9B2803013F0EAFB214601220548BDE896
:100BD00038400CF0D5BA013C64F00F040134DAE778
:100BE0000F0000800831002038B5144C0C40002C58
:100BF0001FDB031993F8A0216AB90125C9B280301F
:100C000083F8A05113F0ACFB2A4621460C48BDE8FE
:100C100038400CF0C9BA0025C9B2803083F8A05121
:100C200013F0BCFB2A4621460548BDE838400CF0CD
:100C3000BBBA013C64F00F040134DAE70F00008016
:100C40000831002038B5144C0C40002C1FDB031970
:100C500093F8A0216AB90125C9B2803083F8A05168
:100C600013F07EFB2A4621460C48BDE838400CF0C4
:100C70003BBC0025C9B2803083F8A05113F08EFB35
:100C80002A4621460548BDE838400CF02DBC013C01
:100C900064F00F040134DAE70F000080083100200F
:100CA000154B0B40002B10B504461FDB234493F873
:100CB00080216AB9012283F88021C9B204F1800041
:100CC00013F04EFB012384F8153284F8143210BD62
:100CD000002283F88021C9B204F1800013F05EFB8A
:100CE000012384F8153284F8143210BD013B63F0FF
:100CF0000F030133DAE700BF0F0000802DE9F8434E
:100D000080460F4600F1800600F29F1510244FF038
:100D1000000903E00134E4B2202C0DD015F8013FA6
:100D2000002BF7D0214601343046E4B213F036FBF5
:100D3000202C85F80090F1D1094B3B40002B09DBBA
:100D400043440122F9B2304683F8A021BDE8F843BC
:100D500013F006BB013B63F00F030133F0E700BF64
:100D60000F000080F8B507464D1E00F180061024E4
:100D700005E00134E4B213F0F3FA202C0DD015F89D
:100D8000013F21463046002BF3D121460134304645
:100D9000E4B213F003FB202CF1D1012387F8753165
:100DA000F8BD00BF38B500F5D0750446C0F8105244
:100DB00000F29F13002200F2AF1003F8012F8342CC
:100DC000FBD106480BF0C4FF231801222946204618
:100DD00083F89F21BDE83840FFF7C4BF08310020E9
:100DE00038B505460C480CF065F805F5D071C5F826
:100DF000101205F29F1305F2AF14002203F8012F21
:100E0000A342FBD12B180122284683F8A021BDE87C
:100E10003840FFF7A7BF00BF0831002038B50546AE
:100E20000C480CF055FE05F5D071C5F8101205F20E
:100E30009F1305F2AF14002203F8012FA342FBD148
:100E40002B180122284683F8A021BDE83840FFF77F
:100E500089BF00BFB067002038B500F5D0750446E3
:100E6000C0F8105200F29F1300F2AF11002203F8F5
:100E7000012F8B42FBD12946044810220BF0FCFDC8
:100E800029462046BDE83840FFF76CBF08310020F6
:100E9000B64B1B6870B5013B00F5AA7504462846A1
:100EA0000C2B00F28480DFE803F04B4B6C4B4B8241
:100EB0004B4B4B25824B070017F0BEF9002840F042
:100EC000038104F5AE75284617F0B6F9002840F006
:100ED0009E8004F5B275284617F0AEF9002840F060
:100EE000518104F5B674204617F0A6F9002840F0A9
:100EF000D38070BD17F0A0F9002840F0D48004F52D
:100F0000AE75284617F098F9002840F0068104F5E0
:100F1000B275284617F090F9002840F0AB8004F530
:100F2000B674204617F088F90028E2D0204617F062
:100F3000C9F9002800F040818D4B0022DA6070BDB5
:100F400017F07AF9002840F0DE8004F5AE752846E7
:100F500017F072F9002840F0F68004F5B2752846C3
:100F600017F06AF9002864D104F5B674204617F02A
:100F700063F90028BDD0204617F0A4F90028DBD182
:100F800070BD17F059F90028B3D0284617F09AF928
:100F9000002800F01281774A636A0021D160002B9B
:100FA00000F00C814FF47A70BDE87040184717F0DC
:100FB00043F900284ED104F5AE75284617F03CF9E8
:100FC000002840F0AE8004F5B275284617F034F9D9
:100FD00060B904F5B674204617F02EF9002888D0C1
:100FE000204617F06FF90028A6D170BD284617F0EB
:100FF00069F90028EDD0604B002204F5B674DA6080
:10100000204617F019F900283FF473AFE8E72846A7
:1010100017F058F900283FF45CAF584B002204F554
:10102000B275DA60284617F007F900283FF459AF87
:10103000A8E0284617F046F9002895D04E4B00222C
:1010400004F5B674DA60204617F0F6F800283FF48D
:1010500050AF90E7284617F035F90028ABD0454B44
:10106000002204F5AE75DA60284617F0E5F800288E
:10107000A9D056E0284617F025F900283FF44FAFD5
:101080003D4B002204F5B674DA60204617F0D4F820
:1010900000283FF42EAF49E7204617F013F9002847
:1010A0007FF44AAF70BD284617F00CF900283FF4D2
:1010B00026AF304A636A0021D160002B3FF41FAF96
:1010C0004FF47A7098471AE7284617F0FBF8002883
:1010D0003FF4F7AE2A480BF0A3FD421E54FA82F209
:1010E00092F8A03183F0010382F8A031002B5BD18C
:1010F00000F10F01C9B204F1800013F04FF9012390
:1011000084F87531DDE6284617F0DCF800283FF456
:101110001CAF1B480BF084FD17E7284617F0D2F8E8
:10112000F5E6284617F0CEF800283FF44CAF134BF5
:10113000002204F5B275DA60284617F07DF8002821
:101140003FF447AF52E7284617F0BCF800283FF4B9
:1011500004AF0A4B002204F5B275DA60284617F096
:101160006BF800283FF400AF63E700BFBC6FFF1FC0
:10117000407CFF1F107CFF1F307CFF1F207CFF1F67
:1011800008310020284617F09DF800283FF4A9AE4A
:101190000B4B002204F5B674DA60204617F04CF8C9
:1011A00000283FF4A6AE77E700F10F01C9B204F1C1
:1011B000800013F0D5F8A2E770BD70BD70BD00BF10
:1011C000307CFF1FA1F57A71032906D8DFE801F012
:1011D0000E0A0602074B0022DA607047064B002217
:1011E000DA607047054B0022DA607047044B00223A
:1011F000DA607047407CFF1F307CFF1F207CFF1FA0
:10120000107CFF1F70B500F586750446284617F060
:1012100013F800B970BD284617F054F80028F9D02B
:10122000A36ABDE87040184708B590F8A40017F00D
:101230001FFF084A1368C0F58040A3F1640188428B
:1012400002DB6433984201DD106008BD4FF0FF30CF
:1012500008BD00BF6C7CFF1F08B590F8A80017F010
:1012600007FF074A1368A3F16401884202DB643375
:10127000984201DD106008BD4FF0FF3008BD00BF8F
:10128000647CFF1F30B500F58A7483B005462046A4
:1012900016F0D2FF30B9204617F00AF880B90020C6
:1012A00003B030BD204617F00DF80028F3D00A4BEC
:1012B0001B680193019BC5F8B030012003B030BD1D
:1012C00095F824320020042BC5F8B000E7D185F84A
:1012D0002402A5F82602E3E7D0940020054B82B053
:1012E0001B680193019B03F5FA63C0F8283202B032
:1012F000704700BFD0940020054B82B01B6801935B
:10130000019B03F5FA63C0F82C3202B0704700BFAE
:10131000D0940020F0B5B1B007462849284E684661
:10132000144617F04BFC274904A817F047FC264940
:1013300008A817F043FC25490CA817F03FFC2449E6
:1013400010A817F03BFC234914A817F037FC2249DA
:1013500018A817F033FC21491CA817F02FFC2049CE
:1013600020A817F02BFC1F4924A817F027FC1E49C2
:1013700028A817F023FC1D492CA817F01FFC86FB9A
:101380000426E317C3EB660606EB4601A4EB8101D6
:10139000C9B20DEB0111384617F024FCF1B2384602
:1013A00017F0B4FC6D4630AC103C204617F0C6FB7D
:1013B000AC42F9D1384631B0F0BD00BFE45A02006A
:1013C000ABAAAA2AE85A0200345C0200EC5A0200D6
:1013D000445A0200045E0200F05A0200285F020034
:1013E000F45A0200F85A0200FC5A0200005B0200A4
:1013F000F0B5144DDFF854E00E4617460FCD8FB010
:1014000002AC0FC40FCD0FC495E80F008EFB065E33
:10141000F517C5EB6E0584E80F0005EB450EA6EB4E
:101420008E060EABF6B203EB8606EDB256F8303CF4
:10143000054A0095384604211EF010FE38460FB0CC
:10144000F0BD00BFB45A0200045B0200ABAAAA2A96
:1014500010B5012200210D48FFF7ACF9032202214B
:101460000B48FFF7A7F9052204210A48FFF7A2F964
:10147000082206210848FFF79DF921232322222173
:101480000648BDE8104012F0CBBB00BF107CFF1F28
:10149000207CFF1F307CFF1F407CFF1F907CFF1FC4
:1014A00010B586B00B460A4C0A4A684615211EF054
:1014B000D5FD00221146204612F0DEFC68461FF0E2
:1014C0005FF869460246204617F050F906B010BD95
:1014D000907CFF1F0C5B02002DE9F04F354D83B06F
:1014E000804635480D40894604F07AF8002D824642
:1014F0004EDB554543DC08F1800608F29F1B1024A3
:10150000002703E00134E4B2202C0DD01BF8013F8A
:10151000002BF7D0214601343046E4B212F03EFFF2
:10152000202C8BF80070F1D1554536D0ECB2214615
:10153000214803F0EBFEB0B1214606221E4803F01D
:101540000DFF1E4B1B680193019BC8F8D430454426
:1015500001235FFA89F1304685F8A03112F000FFCF
:1015600003B0BDE8F08F40461549FFF799FF5FFAD9
:1015700089F1304612F012FF03B0BDE8F08F5FFA38
:1015800089F108F1800012F009FF03B0BDE8F08F87
:10159000013D65F00F050135ABE7E9B208220648C9
:1015A00003F0DCFE054B1B680093009BC8F8D830A5
:1015B0004544CDE70F000080A82D0020D0940020E6
:1015C000205B02002DE9F84F4E4D04464E480BF0CB
:1015D000CFFB2B68033B0646042B00F28280DFE83A
:1015E00003F032681C80030070B104F29F140025E0
:1015F000294645480BF028FC0135003018BF012072
:10160000B54204F8010FF3D10B21404819F022FA3A
:101610003F48BDE8F84F17F0E5B858B104F29F1401
:101620000025294638480BF0FDFB0135B54204F88A
:10163000010FF6D10921374819F00CFA3448BDE8FA
:10164000F84F17F0CFB8344803F0CAFF064638B356
:1016500000F110085FFA88FA04F1800704F29F1B7A
:1016600010254FF00109294601350BF8019F384636
:10167000EDB212F075FEAA45F5D1102E88BF0025F7
:1016800002D80DE006F11008A31901365FFA88F1BF
:1016900083F8A0513846F6B212F080FE102EF1D831
:1016A0000A211E4819F0D6F91948BDE8F84F17F07D
:1016B00099B868B104F29F140025294612480BF02E
:1016C0009FFB013580F00100B54204F8010FF4D111
:1016D0000921134819F0BEF90D48BDE8F84F17F07D
:1016E00081B820460F49FFF7DBFE06210E4819F0AE
:1016F000B1F92968064817F0C5F80548BDE8F84F64
:1017000017F070B8BC6FFF1F08310020345B020077
:101710001871FF1F405B0200A82D0020585B0200DB
:101720004C5B0200645B0200785B020038B500F598
:10173000D0750446C0F8105200F29F13002200F248
:10174000AF1003F8012F8342FBD12046FFF73AFF89
:1017500029462046BDE83840FFF704BB10B588B0E5
:101760000B4600920A4C0B4A02A815211EF076FC8B
:1017700000221146204612F07FFB02A81EF000FF57
:1017800002A90246204616F0F1FF08B010BD00BFC6
:10179000907CFF1F805B020030B5D0F818120C4C13
:1017A0000C4A87B00546013168461EF057FC0021FF
:1017B000C5F828122046022212F05EFB68461EF091
:1017C000DFFE69460246204616F0D0FF07B030BD66
:1017D000907CFF1F945B020030B5D0F81C120C4CBB
:1017E0000C4A87B00546013168461EF037FC0021DF
:1017F000C5F82C122046012212F03EFB68461EF06E
:10180000BFFE69460246204616F0B0FF07B030BD65
:10181000907CFF1F945B020010B5D0F8283282B094
:1018200004462BB10E4A12680092009A934210D3DC
:10183000D4F82C325BB10A4A12680192019A9342A1
:1018400005D22046FFF7C8FF0023C4F82C3202B0AF
:1018500010BDFFF7A1FF0023C4F82832E8E700BF5E
:10186000D094002070B50D4D0C460646FFF794FF4E
:1018700002220021284612F0FFFA20461EF080FEC8
:1018800021460246284616F071FF20461EF078FEDB
:10189000142828BF1420C6F8180270BD907CFF1FC2
:1018A00070B5114D0C460646FFF776FF284602221A
:1018B000002112F0E1FA20461EF062FE21460246A7
:1018C000284616F053FF20461EF05AFEC6F81802AE
:1018D00020461EF055FE0146204619F0BBF803488D
:1018E000BDE8704016F07EBF907CFF1F1871FF1F8F
:1018F00010B586B00B460D4A0D4C152168461EF0FA
:10190000ADFB68461EF03CFEC0F11001C9B2204696
:10191000002212F0B1FA68461EF032FE6946024615
:10192000204616F023FF06B010BD00BFAC5B0200DE
:10193000907CFF1F70B50E4C05460E4620460122D6
:10194000002112F099FA13220A49204616F00EFFE0
:1019500020460222002112F08FFA3146204616F06E
:101960001BFF1323C5F81832C5F81C3270BD00BF29
:10197000907CFF1FB05B02002DE9F04F2DED028B34
:1019800091B000F5C07103907C480BF021F800285D
:1019900040F09180039B0290FF27064680468146D7
:1019A00001900446BB463D46009703F27F1AB7EE0E
:1019B000008A02E00134102C4FD01AF8012F002ABF
:1019C000F8D0224608A86D490AF064FD9DF824204D
:1019D0000098824208D001990131CBB29042019324
:1019E000034628BF13460093DDED0D7AF4EE487AE6
:1019F000F1EE10FA03D0029A0132D3B20293F4EE60
:101A0000C87AF1EE10FA21465C48D8BFB0EE678A7A
:101A10000BF0D2F9A84207D0854209F1010928BF8D
:101A200005465FFA89F9EDB29DF839205A4506D08E
:101A300008F1010893455FFA88F828BF93469DF89E
:101A40003820BA42B6D0974204F1010406F10106EB
:101A500028BF1746102CF6B2AFD10122002148480A
:101A600012F00AFA12224749454816F07FFE29462D
:101A700004A817F0D5F8B9F1010F25D9424920E0A3
:101A8000424904A817F034F9069B112BF8D9022219
:101A900000213B4812F0F0F904A9394816F07CFE09
:101AA000039C102312220DEB0300C4F81822C4F883
:101AB0001C3217F043F811B0BDEC028BBDE8F08F7B
:101AC000324904A817F014F9069B022BF8D959469D
:101AD00008A817F0A5F808A904A817F005F908A8A0
:101AE00017F02CF8B8F1010F05D9274900E0274974
:101AF00004A817F0FDF8069B052BF8D9394608A86D
:101B000017F08EF808A904A817F0EEF808A817F047
:101B100015F8012E05D91C4900E01C4904A817F04E
:101B2000E7F8069B082BF8D9009A039908A8FFF755
:101B3000F1FB08A904A817F0D7F808A816F0FEFFD3
:101B4000019B012B05D9104900E0104904A817F0AA
:101B5000CFF8069B0C2BF8D9B0EE480A022108A852
:101B600017F072F808A904A817F0BEF808A816F034
:101B7000E5FF029B012B87D9034982E7083100204A
:101B8000907CFF1FD45B0200E85B02002C5C02002B
:101B900010B502220C460B48122112F06DF90A49C9
:101BA0000848022216F0E2FD082CD4BF13211221AE
:101BB0000448022212F060F921460248BDE81040B4
:101BC00016F060BE907CFF1F1C5B020038B5044617
:101BD0000E480AF07DFC04F5D0710546C4F81012D9
:101BE00004F29F1304F2AF10002203F8012F834286
:101BF000FBD163190122204683F8A021FFF7B2F838
:101C000029462046BDE83840FFF7C2BF0831002012
:101C100010B503220C460B48122112F02DF90A4987
:101C20000848022216F0A2FD082C94BF13211221AD
:101C30000448032212F020F9611C0248BDE810405C
:101C400016F020BE907CFF1F1C5B020030B5204BBD
:101C50001B7883B004460D461BB91E4B1B68092B2D
:101C600012D01D48A46B0AF041FC1C4929400029F0
:101C7000024604DBC9B20220A04703B030BD0139DF
:101C800061F00F010131F5E7FFF738F813492940FA
:101C9000002918DBCDB229460F480AF03FFC0E4858
:101CA0000AF008FC01462046FFF7FAFD0C4B1B68C2
:101CB0000193019B03F5FA632946C4F828322046B4
:101CC000FFF7A6FFD9E7013961F00F010131E1E724
:101CD00001670020BC6FFF1F083100200F0000804B
:101CE000D094002010B502220C460D480F2112F0AE
:101CF000C3F80C490A48022216F038FD092C4FF0AF
:101D0000020294BF10210F21054812F0B5F82146B8
:101D100000230A220248BDE8104016F073BD00BF40
:101D2000907CFF1F1C5B020038B504460E480AF089
:101D3000DDFB04F5D0710546C4F8101204F29F13C0
:101D400004F2AF10002203F8012F8342FBD1631984
:101D50000122204683F89F21FFF704F829462046F8
:101D6000BDE83840FFF7BEBF0831002038B5524DFE
:101D70002B68013B04460C2B00F29380DFE803F054
:101D80005F6B6D07071A0726313C4A867B000023EC
:101D900000F5D075026A4362012380F83132C0F841
:101DA00010528262FFF70EFC29462046BDE83840FB
:101DB000FEF7D8BF036A8362002200F5C071426259
:101DC000C0F81012BDE83840FEF7CCBF8368026A45
:101DD0004362012380F831328262BDE83840FEF769
:101DE000E1BF0023026A4362012380F8313282623C
:101DF000BDE83840FEF7F4BFC36A026A43620123BC
:101E000080F831328262FFF709F82C48BDE838408B
:101E10000CF0DABC036A836200F5D07100224262E2
:101E2000C0F8101200F29F1300F2AF1003F8012F58
:101E30008342FBD12046BDE83840FEF793BFC3681C
:101E4000226A63620123A26284F831322046BDE82F
:101E50003840FFF7BBBE0369F2E7036B026A4362D7
:101E6000012380F831328262FFF760FC1448BDE83C
:101E7000384003F03BBF0023026A4362012380F82D
:101E800031328262BDE83840FEF7E6BF436B026A3A
:101E90004362012380F831328262BDE83840FFF7A7
:101EA00043BF2921074818F0D5FD29680648BDE839
:101EB000384016F0E7BC00BFBC6FFF1FB0670020C2
:101EC000A82D0020EC5B02001871FF1F134A144B71
:101ED000126870B553F82250124C86B00646284658
:101EE0001EF04EFBD6F820120F4AC6F8200281429F
:101EF000B8BF01462B46013168461EF0AFF82046B8
:101F00000122002111F0B8FF68461EF039FB694636
:101F10000246204616F02AFC06B070BDBC6FFF1FBB
:101F20007C6FFF1F907CFF1F185C020070B500F5EE
:101F3000927586B00446284616F07EF900284CD1EA
:101F4000284616F0B5F9002840F04D8104F59A7541
:101F5000284616F071F900286ED1284616F0A8F927
:101F6000002840F04C8104F59675284616F064F977
:101F7000002840F08E80284616F09AF9002840F09C
:101F80002A8104F59E75284616F056F9002840F07F
:101F9000AB80284616F08CF9002840F0208104F52B
:101FA000A275284616F048F9002840F0C08028465F
:101FB00016F07EF9002840F02E8104F5A67528461B
:101FC00016F03AF9002840F0D580284616F070F94E
:101FD000002840F0EC8006B070BD284616F072F97B
:101FE0000028ADD02046FFF7D7FBA34A1368012B8A
:101FF00000F01581022B00F02181032B00F0E1801D
:102000000A2B00F030819D4B1B6813602046FFF7C0
:10201000ADFE2046FFF75AFF994B1B680093009BCB
:10202000C4F8B83004F59A75012384F814322846B0
:1020300016F002F9002890D0284616F043F900283F
:102040008BD02046FFF7A8FB8B4A1368062B00F0C5
:10205000F0800C2B00F001810D2B00F0AD80894B3E
:102060001B6813602046FFF781FE2046FFF72EFF16
:10207000834B1B680193019BC4F8C03004F596752F
:10208000012384F81432284616F0D6F800283FF4CD
:1020900072AF284616F016F900283FF46CAF2046C0
:1020A000FFF77AFB744B1A68052A00F0BD80042AFA
:1020B00000F0CE80744A12681A602046FFF756FE80
:1020C0002046FFF703FF6E4B1B680293029BC4F888
:1020D000BC3004F59E75012384F81432284616F0AE
:1020E000ABF800283FF455AF284616F0EBF800286F
:1020F0003FF44FAF2046FFF74FFB5F4B07222046D0
:102100001A60FFF733FE2046FFF7E0FE5C4B1B68CA
:102110000393039BC4F8C43004F5A275012384F82B
:102120001432284616F088F800283FF440AF2846BD
:1021300016F0C8F800283FF43AAF2046FFF72CFB12
:102140004D4B082220461A60FFF710FE2046FFF78D
:10215000BDFE4B4B1B680493049BC4F8C83004F5C8
:10216000A675012384F81432284616F065F8002875
:102170003FF42BAF284616F0A5F800283FF425AF12
:102180002046FFF709FB3C4B092220461A60FFF767
:10219000EDFD2046FFF79AFE394B1B680593059B22
:1021A000C4F8CC30012384F8143206B070BD00238B
:1021B000C4F8CC3006B070BD324906230B60136002
:1021C00050E72E4D314901264FF0FF300A232E6093
:1021D000086013601AE70023C4F8BC30D1E600237E
:1021E000C4F8C430DBE694F824220023022AC4F8A1
:1021F000B83004BF84F82432A4F82632A6E694F856
:1022000024220023032AC4F8C03004BF84F82432F7
:10221000A4F82632A7E60023C4F8C830CDE6174854
:10222000022103601160F1E6174904220A601A6076
:1022300043E714480C210360116013E70F4D134965
:1022400001264FF0FF3003232E6008601360DDE6A7
:102250000D4905220A601A602FE70A4906200D235E
:1022600008601360FEE6054D084901234FF0FF307A
:102270002B6013600860C9E6BC6FFF1F3C6FFF1F37
:10228000D0940020346FFF1F386FFF1FB86FFF1FFF
:1022900070B5044616480E460AF028F906F00F03FA
:1022A0000133984206D004F5D0712046BDE8704055
:1022B000FEF758BD054631462046FEF71FFD29466C
:1022C0002046FFF70FFD0A480AF0F4FD01462046BC
:1022D000FFF79EFC074B062220461A60FFF746FDDB
:1022E0002046FFF7F3FD012384F8143270BD00BFD0
:1022F00008310020BC6FFF1F10B500220C461248A9
:10230000112111F0B9FD032210490F4816F02EFAE1
:10231000632C4FF000020CDC092CCCBF12211321DE
:10232000094811F0A9FD21460748BDE8104016F004
:10233000A9BA1121044811F09FFD21460248BDE8C9
:10234000104016F09FBA00BF907CFF1FD05B0200C8
:1023500010B501220C461248112111F08DFD032207
:1023600010490F4816F002FA092C4FF001020CDD5B
:10237000632CD4BF12211121094811F07DFD2146A3
:102380000748BDE8104016F07DBA1321044811F04B
:1023900073FD21460248BDE8104016F073BA00BF35
:1023A000907CFF1FD05B0200F0B587B005460C9F04
:1023B0000D9E0E9C0F9829606A601499159AAB6067
:1023C000EF60109B119F2E616C61129E139C6963DC
:1023D000AA63EB61A8612F62EE622C6305F1A8038A
:1023E00005F1D001002243F8042F9942FBD105F2F8
:1023F0007F1205F28F13002102F8011F9A42FBD1D0
:1024000005F29F11002203F8012F9942FBD105F537
:10241000D67305F5F671002243F8042F9942FBD1DB
:1024200005F2EF1305F20F21002203F8012F994264
:10243000FBD1762475217422732305F1800677275A
:102440000394029101920093304672230497712203
:10245000702112F09BF8EB6B002BC8BF002420DD2D
:102460002146304611F07CFF304612F0E9F80A2090
:1024700017F064FA0134EB6BE4B29C42F0DB002B02
:102480000FDD00242146304611F088FF304612F05F
:10249000D7F80A2017F052FA0134EB6BE4B29C42F1
:1024A000F0DB142017F04AFA2846FFF75FFC2846B5
:1024B000FFF70CFD0F480FF00DFA01462846FFF715
:1024C0001BFF0C480FF008FA01462846FFF740FFB3
:1024D00009480AF0EFFC01462846FFF799FB064839
:1024E0000AF004F80146284607B0BDE8F040FFF7BF
:1024F000F9BB00BFD490002008310020F8B51F4C74
:102500001F4F154600220E462046114611F0B4FC1E
:10251000204611221B4916F029F9002211462046B7
:1025200011F0AAFC30461EF02BF831460246204638
:1025300016F01CF920460122002111F09DFC2846CE
:102540001EF01EF829460246204616F00FF93046C6
:102550001EF016F80146304618F07CFA384616F0A0
:1025600041F928461EF00CF80146284618F072FA88
:102570003846BDE8F84016F035B900BF907CFF1F23
:102580001871FF1F1C5C0200B0B588B002AF044692
:102590000B4600921521164A164D38461DF05EFD79
:1025A00038461DF0EDFFD4F81832C4F818029842EE
:1025B0000146B8BF194601F1080323F00703ADEB4C
:1025C000030D02AC3B460C4A013120461DF046FD8E
:1025D00028460222002111F04FFC20461DF0D0FFBA
:1025E00021460246284616F0C1F81837BD46B0BD50
:1025F000305C0200907CFF1F185C02002DE9F04760
:1026000090F8313282B00546002B40F08280584E5F
:10261000584A3068D46892F809E092E8880019783E
:1026200097F800C0137A534F1CEA0E0F01EA03011A
:102630005AD0BB7A03F0030309B143F0040343F01B
:1026400008039910013B91720D2B0AD8DFE803F0C3
:102650005E075807095B5E5E5B090758075E013C31
:10266000D460C31EA34202DC0330A04239DA4248E0
:1026700009F03CFF3368E31A48BF033300EBA307BC
:10268000002F39DC0127DFF80081D8F800309F42A5
:1026900026D05FFA87F9494637480AF053F83A4698
:1026A00036492846FFF770FF354B364A1B680193C1
:1026B000019B126803F5FA630C2AC5F8283239D059
:1026C00049462846FFF70EFB2B480AF0F3FB01466C
:1026D0002846FFF79DFA2846FFF748FBC8F8007028
:1026E000346002B0BDE8F087BB7A03F00303002931
:1026F000A7D043F00403A4E7022FA8BF0227C2E734
:102700000234D460ADE7023CD460AAE70134D4605F
:10271000A7E7002380F831321748154E09F0E6FE8E
:102720001949144A086003B29B001C4618463360DE
:10273000D36070E7D8F80030E8192B44002209F183
:102740000F014FF0010A05F1800980F89FA1C9B27D
:1027500083F89F21484611F003FED8F800100F318E
:102760004846C9B211F01AFE85F875A1B6E700BF58
:10277000807CFF1F107CFF1F0831002020700200AA
:10278000D0940020BC6FFF1FF07BFF1F2DE9F041AC
:10279000A84D2DED028B2B68DA0782B0044640F17C
:1027A000EB81A54D2B68DB0740F1D78194F81432FB
:1027B000002B40F0AF81A14DA14E2B6869681A78BB
:1027C000687A0F782B7A9D49074202EA03021DD0EE
:1027D0008B7A03F003030AB143F0040343F00803C8
:1027E0009A10013BAA720D2B00F26881DFE813F00A
:1027F000540150014C01500166011600540154016E
:102800001600660150014C01500154018B7A03F00F
:102810000303002AE4D043F00403E1E7EB68023B42
:10282000EB6007EE903A9FED876A96ED007ADFED58
:10283000866AF8EEE77A87EE868A77EE267AB4EE35
:10284000E78AF1EE10FA06DA37EE667AB4EEC78A56
:10285000F1EE10FA40D87D4BDFED7D7AD3ED006AC2
:10286000B1EE007AE6EEC77AB4EEE78AF1EE10FA3E
:1028700040F13A81B9EE008A26EE888ADFED717A5E
:1028800068EE277AFDEEE77AC5ED037A714D724F57
:1028900095ED000AF5EE007A68EE277AF4EE407ABC
:1028A000F1EE10FAC7ED007A40F075819FED650AF0
:1028B0006A4967EE807A2046FDEEE77A17EE902AA5
:1028C000FFF762FE664B86ED008A1B680193019B51
:1028D00003F5FA63C4F82832624A1368506819781D
:1028E0000578507A137A054201EA030100F0F3807B
:1028F000937A03F0030309B143F0040343F00803A0
:102900009910013B91720D2B00F2D680DFE813F095
:10291000D000C800CC00C800D4000E00D000D00009
:102920000E00D400C800CC00C800D000D568023D1D
:10293000D5604D4E3368DA1EAA4202DCDA1CAA4288
:102940001DDA4A4FDFF83C81EA1A3B68D8F80010DC
:1029500048BF033203EBA203082BA8BF082323EAD6
:10296000E37399423B6006D0194641480EF0ACFF34
:102970003968C8F800102046FFF7EAFC35603D4A88
:102980001368506819780578507A137A054201EA7D
:10299000030100F09780937A03F0030309B143F039
:1029A000040343F008039910013B91720D2B00F2D0
:1029B0008780DFE803F03B37333785073B3B0785EC
:1029C0003733373BD568023DD5602B4E3068C31E88
:1029D000AB4202DCC31CAB421BDA284A281A13683C
:1029E00048BF033003EBA000002840F3E280B0F5BD
:1029F000967FA8BF4FF49670214F10603B68DFF8B8
:102A00007C80984204D063699847D8F800303B60D6
:102A1000356002B0BDEC028BBDE8F081D5680235AF
:102A2000D560D2E7D568013DD560CEE7D5680135E0
:102A3000D560CAE70C7CFF1F047CFF1F207CFF1FB2
:102A4000687CFF1F0000C8420AD7233D707CFF1F2F
:102A500000000000AC7CFF1FE47BFF1F385C02001D
:102A6000D0940020307CFF1FBC7CFF1F007CFF1F28
:102A7000D4900020407CFF1F087CFF1F787CFF1F44
:102A8000E87BFF1FFC7BFF1FEB680233EB60C8E6AF
:102A9000EB68013BEB60C4E6EB680133EB60C0E63A
:102AA000D568013DD56044E7D5680235D56040E77B
:102AB000D5680135D5603CE7D5683AE7EB68B0E604
:102AC000D56882E7937A03F0030300293FF46BAFE4
:102AD00043F0040367E7937A03F0030300293FF40C
:102AE0000FAF43F004030BE7334BD3ED007A27EE2F
:102AF000877AB4EEC78AF1EE10FA7FF7C7AEDFED42
:102B00002F7A67EE277AB0EE478AFDEEE77AC5EDB9
:102B1000037ABBE62A482B4DDFF8C4E02A4E002397
:102B2000002204F5C077036084F81422EA60394675
:102B30002648CEF8003033600AF02CFA244B2348A4
:102B400083ED000A39460AF063FAF7EE007A37EEB1
:102B5000C00A194B83ED000A2FE6284616F0F0FB59
:102B600000283FF423AE1B480EF0B6FE1A4B186047
:102B7000284616F0EBFB19E6284616F0E1FB002884
:102B80003FF40FAE13480EF0A3FE144B1860284616
:102B900016F0DCFB05E637EEC00A94F830220B484D
:102BA00004F5C0710AF0B8FBD7ED007AC5ED007AE4
:102BB0007CE6012020E700BF747CFF1F0000C842B4
:102BC000E47BFF1F207CFF1F687CFF1F0831002073
:102BD000707CFF1FD4900020007CFF1F787CFF1FBB
:102BE000AC7CFF1F384B1B680D2B00D070472DE9C4
:102BF000F041364BCFB20B4007F00F06002B82B0EE
:102C000006F1010639DBC418054694F8A0317BB102
:102C10002F4B93F80080B8F1000F33D14246314674
:102C20002C4809F09FFF002838D102B0BDE8F081A0
:102C3000274B1B78DBB901223146264809F092FF69
:102C400030B3012384F8A031394605F1800011F03A
:102C500087FB324620492846FFF796FC1F4B1B682E
:102C60000193019B03F5FA63C5F82832DDE7836B16
:102C70003246012104209847D7E7013B63F00F0358
:102C80000133C0E7836B3246002104209847CCE72C
:102C9000394605F1800011F081FBC6E7394605F1A0
:102CA000800084F8A08111F079FB32460C49284657
:102CB000FFF76AFC094B1B680093009B03F5FA635E
:102CC000C5F82832B1E700BFBC6FFF1F0F000080BE
:102CD0000167002008310020545C0200D0940020DD
:102CE000445C020010B5013A92B00446052A00F295
:102CF000B280DFE802F0203A57728C0340F6B83316
:102D0000994200F0138140F29C8041F2883399424D
:102D100000F0C98041F65833994240F097809649B7
:102D2000FEF7BEFD954B1B681193119B03F5FA63EB
:102D3000C4F8283288E0924801910AF091FD019987
:102D400040F6B833994200F0EB807AD941F28833EB
:102D5000994200F0A28041F65833994276D102465A
:102D600088492046FFF710FC6EE0874A40F6B833EA
:102D70009942126800F0C88063D941F288339942C1
:102D800000F0AA8041F6583399425FD17F49FEF79F
:102D900087FD7A4B1B680593059B03F5FA63C4F81E
:102DA000283251E040F6B833994200F0A18048D96A
:102DB00041F28833994200F0838041F658339942BA
:102DC00044D17349FEF76CFD6C4B1B680893089B5C
:102DD00003F5FA63C4F8283236E040F6B833994276
:102DE00000F0BE802DD941F28833994249D041F696
:102DF000583399422AD16749FEF752FD5F4B1B6851
:102E00000B930B9B03F5FA63C4F828321CE040F6E1
:102E1000B833994200F0978013D941F28833994230
:102E200022D041F65833994210D15A49FEF738FD65
:102E3000524B1B680E930E9B03F5FA63C4F82832BD
:102E400002E0B1F57A7F01D112B010BD2046FEF745
:102E5000A3FC12B010BD5049FEF722FB3A214F48A7
:102E600017F0F8FD12B010BD00224D49FFF78CFBA2
:102E7000424B1B680D930D9B03F5FA63C4F828328F
:102E8000E2E74849FEF70CFD3C4B1B680A930A9B9E
:102E900003F5FA63C4F82832D6E7024642492046D1
:102EA000FFF772FBD0E700224049FFF76DFB334B81
:102EB0001B681093109B03F5FA63C4F82832C3E72C
:102EC0003B49FEF7EDFC2D4B1B680793079B03F571
:102ED000FA63C4F82832B7E73649FFF755FB274BAA
:102EE0001B680493049B03F5FA63C4F82832ABE72C
:102EF0003149FEF7D5FC214B1B680693069B03F571
:102F0000FA63C4F828329FE72C49FFF73DFB1B4BBF
:102F10001B680393039B03F5FA63C4F8283293E715
:102F2000024626492046FFF72FFB8DE70022244961
:102F3000FFF72AFB114B1B680F930F9B03F5FA63F6
:102F4000C4F8283280E700221E49FFF71DFB0B4B17
:102F50001B680C930C9B03F5FA63C4F8283273E7E3
:102F60001949FEF79DFC054B1B680993099B03F566
:102F7000FA63C4F8283267E7585D0200D094002055
:102F8000B0670020805C0200B86FFF1FA05C0200E9
:102F9000D45C0200085D0200685D0200785D0200FA
:102FA000245D0200F85C0200705C0200485D0200D3
:102FB000C45C0200905C0200B05C0200605C020035
:102FC000345D0200105D0200E05C0200B1F57A7F22
:102FD00038B504D8B0F8264294B3002038BD40F686
:102FE000B834A14212D8B0F82612B1F57A7FF4D1E4
:102FF000A0F826422146FFF775FE0821284817F061
:1030000029FD284815F0EEFB002038BD41F2883537
:10301000A94222D941F65834A142B0F826122ED83E
:10302000A942DAD1A0F826422146FFF75BFE04212F
:103030001D4817F00FFD1B4815F0D4FB002038BDCC
:103040004FF47A72A0F826220B21184817F002FDDF
:10305000144815F0C7FB204638BDB0F82612A1422F
:10306000BBD1A0F826522946FFF73CFE06211048A6
:1030700017F0F0FC0B4815F0B5FB012038BDA1425C
:10308000ABD10024A0F826422146FFF72BFE0821F1
:10309000084817F0DFFC034815F0A4FB204638BDB4
:1030A000C05D02001871FF1FD45D0200B45D020014
:1030B000CC5D0200DC5D0200B0B588B002AF044612
:1030C000019300920B46174A174D152138461CF004
:1030D000C5FF38461DF054FAD4F81832C4F8180267
:1030E00098420146B8BF194601F1080323F00703CF
:1030F000ADEB030D02AC3B460C4A013120461CF0FF
:10310000ADFF28460222002110F0B6FE20461DF039
:1031100037FA21460246284615F028FB1837BD46E7
:10312000B0BD00BFE85D0200907CFF1F185C02008C
:103130002DE9F04190F8143282B00546002B40F0A2
:1031400082804E4F4E4E3B6879681A78787A0C78B8
:103150003B7A4A49044202EA030215D08B7A03F013
:1031600003030AB143F0040343F008039A10013B40
:10317000BA720D2B65D8DFE803F058605C60640F0D
:1031800058580F64605C60588B7A03F00303002A80
:10319000ECD043F00403E9E7FC68023CFC603368D0
:1031A000DA1CA24202DB033BA3423BDD354B1B781A
:1031B000C3EB83739B00A34204DC334B1B789B005F
:1031C000A34201DAFB601C46304FDFF8D0803A683A
:1031D000002C2346B8BFE31C9B109342C8F8003074
:1031E0001FD09A1AD2B295F83032294805F5C0712D
:1031F0000AF00EF8D8F80080C7F8008001466A4649
:103200002846FEF7F5F84246034622492846FFF7CE
:1032100053FF214B1B680193019B03F5FA63C5F82B
:103220002832346002B0BDE8F081FC680134FC60F3
:10323000B5E7FC680234FC60B1E7FC68013CFC6067
:10324000ADE7FC68ABE715490C4F104A0C4E10482F
:10325000002305F5C0740B60FB60214613603360EA
:1032600009F038FE074B21461870094809F062FE44
:10327000054BC0F17F00187065E700BF107CFF1F91
:10328000F87BFF1F507CFF1FF47BFF1FE07BFF1FBD
:1032900008310020F45D0200D0940020EC7BFF1F79
:1032A000134B1A680D2A10B5044609D80123934020
:1032B00043F2B6321A405AB91A0714D45B050ED439
:1032C0002046FFF735FF2046BDE81040FFF75EBA05
:1032D000FFF794F92046BDE81040FFF757BABDE864
:1032E0001040FDF799BABDE81040FDF7A5BB00BF3F
:1032F000BC6FFF1FF0B58DB01D4D9DF848409DF887
:103300004CE09DF85070CDF80CE001340193064676
:103310004B1C00920294049707A8164A164C1421DD
:103320001CF09CFE28460222002110F0A5FD07A8F3
:103330001DF026F907A90246284615F017FA07A836
:103340001DF01EF9C6F81802204615F04BFA14219C
:103350000A4817F07FFB07A81DF012F9014607A8DD
:1033600017F078FB204615F03DFA0DB0F0BD00BF18
:10337000907CFF1F085E02001871FF1F205E020094
:10338000F8B5184D0C4617460646FEF705FA022218
:103390000021284610F070FD20461DF0F1F821466E
:1033A0000246284615F0E2F920461DF0E9F802220F
:1033B000C1B2284610F060FD3946284615F062FA81
:1033C00020461DF0DDF80222C1B2284610F054FD5F
:1033D00020461DF0D5F80630142828BF1420C6F862
:1033E0001802F8BD907CFF1F70B51E4D82B00C46D0
:1033F0008DED010A0646FEF7CFF92846022200218C
:1034000010F03AFD20461DF0BBF821460246284642
:1034100015F0ACF920461DF0B3F80222C1B22846DF
:1034200010F02AFD9DED010A10EE100A1BF048FC79
:1034300041EC100B0221284615F02EFA20461DF013
:103440009FF80222C1B2284610F016FD20461DF05A
:1034500097F80630142828BF1420C6F8180202B0C6
:1034600070BD00BF907CFF1FF8B51C4D0C46164682
:103470000746FEF791F902220021284610F0FCFCD5
:1034800020461DF07DF821460246284615F06EF9CB
:1034900020461DF075F80222C1B2284610F0ECFC5F
:1034A00030461DF06DF831460246284615F05EF9AB
:1034B00020461DF065F80222C1B2284610F0DCFC5F
:1034C00020461DF05DF8044630461DF059F82044B2
:1034D000142828BF1420C7F81802F8BD907CFF1FDD
:1034E0002DE9F0411D4D1F460C4616468046FEF75D
:1034F00053F902220021284610F0BEFC20461DF0A0
:103500003FF821460246284615F030F920461DF0C6
:1035100037F80222C1B2284610F0AEFC30461DF04A
:103520002FF831460246284615F020F920461DF0B6
:1035300027F8C119C9B20222284610F09DFC204686
:103540001DF01EF8044630461DF01AF820441428D9
:1035500028BF1420C8F81802BDE8F081907CFF1F36
:1035600008B503221121094810F086FC084B1B788E
:1035700001222BB907490548BDE8084015F0F6B807
:1035800005490248BDE8084015F0F0B8907CFF1FDF
:10359000449100202C5C0200385E020010B5044605
:1035A000032290F878110B4810F066FCD4F8102232
:1035B000D4F87831D35C01222BB907490548BDE81E
:1035C000104015F0D3B805490248BDE8104015F089
:1035D000CDB800BF907CFF1F2C5C02003C5E020057
:1035E0002DE9F04F0446102300F1440720268FB048
:1035F000036404F16208E6633846002510F02CFEEF
:10360000404610F029FE424639460495039502953E
:10361000019500952B4604F1800010F01FFEC4F8C0
:1036200004611A26C4F8E860192604F58673C4F804
:10363000EC601B264FF0250C4FF0240E1E21079343
:103640001F220523C4F8F0604FF0420B4FF0430AED
:103650004FF027094FF0260818271D201C26C4F814
:10366000DCC0C4F8E0E0C4F80831C4F8FC10C4F8C9
:103670000021C4F8A4B0C4F8A8A0C4F8D49004F5FC
:103680008A7AC4F8D880C4F8E470C4F8F460C4F846
:10369000F800079814F0B0FD504614F0ADFD04F5A5
:1036A0008E7904F592721646484614F0A5FD04F58D
:1036B000967230461746089614F09EFD04F59A71EE
:1036C0000E463846099714F097FD04F59E71304672
:1036D0000F460A9614F090FD04F5A270064638468F
:1036E0000B9714F089FD04F5A6700746304604F5E3
:1036F000AA7B0C9614F080FD384604F5AE780D9741
:1037000014F07AFD584614F077FD04F5B277404680
:1037100014F072FD04F5B676384614F06DFD3046AF
:1037200014F06AFDFF22012384F8302284F831323C
:1037300084F8745184F8755184F8145284F8155241
:10374000C4F81852C4F81C52C4F8205284F8245209
:10375000A4F826524A21714817F07CF9704815F0F8
:1037600041F82B466F480422142110F0A9FB0A22CD
:103770006D496C4814F0FAFF94F8A400022116F089
:103780008DF894F8A800022116F088F894F8D80073
:10379000022116F083F894F8D400022116F07EF886
:1037A00094F8DC00022116F079F894F8E000022188
:1037B00016F074F894F8E400022116F06FF894F80B
:1037C000E800022116F06AF894F8EC00022116F0E5
:1037D00065F894F8F000022116F060F894F8F4000F
:1037E000022116F05BF80798D4F8D81014F00CFDFD
:1037F0005046D4F8D41014F007FD4846D4F8DC1035
:1038000014F002FD0898D4F8E01014F0FDFC0998BB
:10381000D4F8E41014F0F8FC0A98D4F8E81014F086
:10382000F3FC0B98D4F8EC1014F0EEFC0C98D4F8E0
:10383000F01014F0E9FC0D9DD4F8F410284614F0B3
:10384000E3FC0798B4F8081114F0F4FC5046B4F8FF
:10385000081114F0EFFC4846B4F8081114F0EAFC23
:103860000898B4F8081114F0E5FC0998B4F80811A8
:1038700014F0E0FC0A98B4F8081114F0DBFC0B9883
:10388000B4F8081114F0D6FC0C98B4F8081114F030
:10389000D1FC2846B4F8081114F0CCFC94F8F800D8
:1038A000022115F0FBFF94F8FC00022115F0F6FF51
:1038B00094F80001022115F0F1FF94F804010221AF
:1038C00015F0ECFF5846D4F8F81014F09DFC404673
:1038D000D4F8FC1014F098FC3846D4F8001114F019
:1038E00093FC3046D4F8041114F08EFC5846B4F81A
:1038F000081114F09FFC4046B4F8081114F09AFC2B
:103900003846B4F8081114F095FC3046B4F80811A4
:1039100014F090FC20460FB0BDE8F08F405E02002E
:103920001871FF1F907CFF1F8C5E020070B5164659
:103930000C460546C9B203221F4810F09DFAFEB995
:103940002B1993F88061D5F878317EB99C422BD041
:1039500021461A4809F042FA012818D9334601468F
:103960000A221548BDE8704014F04CBF9C424FF04D
:10397000010213D012491048BDE8704014F0F6BEA1
:10398000012210490C48BDE8704014F0EFBE01223E
:103990000D490948BDE8704014F0E8BE0B490648DF
:1039A000BDE8704014F0E2BE012209490248BDE8BA
:1039B000704014F0DBBE00BF907CFF1F0831002078
:1039C0003C5E0200E85B02002C5C0200985E020094
:1039D000186E020070B5451800220F29044685F8BC
:1039E000F02121D901F00F060D463146FFF79EFF69
:1039F0001221334817F02EF83146324814F042FFB6
:103A0000304814F0EFFE94F83032AB4204BFFF238D
:103A100084F830322C4B1B680A2B0BD00B2B02D0B6
:103A2000032B1ED070BD294604F18000BDE8704014
:103A300010F0B4BC2046FDF7AFFE94F824222348D2
:103A40000023012AC4F8D03004BF84F82432A4F83B
:103A5000263231460AF0EEFE2046BDE87040FDF702
:103A6000DDB91B4801F0BCFD864294F824324FF0CA
:103A700000021BD0052BC4F8D4201BD004F5D07550
:103A800004F29F1304F2AF10002203F8012F9842B2
:103A9000FBD10F4801F0BEFD231801222946204624
:103AA00083F8A021BDE87040FDF75CB9062BC4F88F
:103AB000D820E3D1002384F82432A4F82632DDE7AD
:103AC0009C5E02001871FF1FBC6FFF1FB0670020D3
:103AD000A82D002070B50D461646D0F87C110022A6
:103AE0000446FFF723FF0322E9B2094810F0C4F9A6
:103AF000012236B90749064814F038FEC4F87C5153
:103B000070BD0549024814F031FEC4F87C5170BD07
:103B1000907CFF1F186E0200985E0200D0F81032F1
:103B200070B55D5CC0F87811103104461646C9B214
:103B3000803095B110F032FC0122D4F87811204683
:103B4000FFF7C8FFD4F878316C33012244F82360C2
:103B500084F8742184F8752170BD10F001FC2A46A8
:103B6000D4F878112046FFF7B5FFEBE72DE9F041D7
:103B7000012186B0054648480FF0A2FE0021122020
:103B800015F08CFE0121132015F088FE0121132071
:103B900015F070FE0B26122015F072FE30B9013EB2
:103BA00001464FF496744FF0130067D175217422CB
:103BB000732305F180067727762402910192009302
:103BC00030467223049703947122702110F0DEFCBA
:103BD000EB6B002B09DD00242146304610F0DEFBA4
:103BE0000134EB6BE4B29C42F6DB304610F028FD6A
:103BF00005F29F1305F2AF11002203F8012F8B424B
:103C0000FBD16FF4BF76761B05F27F1405F28F1897
:103C10000027311904F8017F00222846FFF786FEAD
:103C20004445F6D105F5D67305F5F670002143F845
:103C3000041F83424FF00002F9D1184B85F815227A
:103C400001240622284685F814421A60FEF78EF8F1
:103C50002846FEF73BF912480DF03CFE0146284687
:103C6000FEF74AFB0E480DF037FE01462846FEF7E8
:103C70006FFB85F8744106B0BDE8F08115F0FAFDE0
:103C80002346013BFDD10121132015F0F3FD23460E
:103C9000013BFDD17FE700BF3070FF1FBC6FFF1FEE
:103CA000D490002030B5D0F8B83089B00446A3B124
:103CB0004D4A126802920299C91A0ED04B4D2B68D8
:103CC0000222013380F824226FD002222046FFF71F
:103CD0007DF9002848D109B030BDD4F8D030ABB15F
:103CE000414A126803920399C91A0FD0012284F83D
:103CF00024222046FFF76AF90028ECD03C4809F05E
:103D0000AFFD01463A4809F0A7FEE4E7D4F8C03019
:103D10008BB1354A126804920499C91A0BD0032258
:103D200084F824222046FFF751F90028D3D02046FA
:103D3000FFF71CFFCFE7D4F8B03013BBD4F8D43072
:103D4000002B39D0284A126806920699C91A33D036
:103D5000052284F824222046FFF738F90028BAD03B
:103D6000244802F021FAB6E72968234808F0D2F97E
:103D700020462968FDF70CFF4FF0FF332B6009B098
:103D800030BD194A126805920599C91AD6D0042285
:103D900084F824222046FFF719F900289BD0164802
:103DA00008F002FDE369984795E71348019108F090
:103DB0008FFB0199286088E7D4F8D830002B8AD08F
:103DC000094A126807920799C91A84D0062284F812
:103DD00024222046FFF7FAF800283FF47CAF05487C
:103DE00002F020FA77E700BFD0940020B86FFF1FE1
:103DF000B0670020A82D0020083100202DE9F04FE9
:103E000000F58E7585B00446284614F015FA10B9F1
:103E100005B0BDE8F08F284614F054FA0028F7D01A
:103E20008C4E3368013B0A2B57D8DFE803F0411E64
:103E300018565656560D0D560600874D2B78002BFA
:103E400054D1E3699847E3E7844A1378204683F026
:103E500001031370FFF784FB05B0BDE8F08F8048C5
:103E600002F02CFA05B0BDE8F08F7E4D29684B1C9E
:103E700000F0D7807C4808F04DF92A687B4920463D
:103E8000FEF782FB7A4B1B680393039B03F5FA63EF
:103E9000C4F8283201274FF0FF3320462B603760EB
:103EA000FDF764FF2046FEF711F884F81472AFE7BF
:103EB0006D4808F06BFA30B36B4808F009FB6D49A8
:103EC00002462046FEF760FB694B1B680193019B8D
:103ED00003F5FA63C4F828329AE794F81532032BF5
:103EE00000F2AA80DFE803F076593F200127204640
:103EF0003760FDF73BFF2046FDF7E8FF002384F81D
:103F000014722B7084E7584808F0E2FA5A490246C6
:103F10002046FEF739FB564B1B680293029B03F5C4
:103F2000FA63C4F8283273E704F28F196FF4BF778D
:103F3000C8463F1B04F27F154FF0010A791915F8A6
:103F4000013F08F8013F002285F800A02046FFF756
:103F5000EDFC4D454FF0010BF0D1022384F814B273
:103F600084F8153253E06FF4BF773F1B04F27F15DE
:103F700004F28F1A4FF0000979194FF0000805F884
:103F8000019F42462046FFF7D1FC5545F4D101235D
:103F900084F8158284F8143239E004F28F196FF432
:103FA000BF77C8463F1B04F27F15791915F8013F0A
:103FB00008F8013F83F001032B7000222046FFF731
:103FC000B5FCA945F1D10322012384F8152284F818
:103FD00014321CE06FF4C778C4EB080804F28F15A4
:103FE00004F27F1704F29F1908EB050115F8013F51
:103FF00083F0010307F8013F00222046FFF796FCFB
:10400000A945F1D1012384F8153284F814323368BC
:10401000062B7FF4FDAE04F5C0712046FCF7A2FE2E
:10402000F6E6012520463560FDF7A0FE2046FDF7A7
:104030004DFF84F81452EBE63121104816F00AFDCA
:1040400094F815120E4814F01DFC0D4814F0CAFB2C
:10405000DDE700BFBC6FFF1F942E002044910020BD
:10406000A82D0020B86FFF1F08310020D05E02008D
:10407000D0940020B05E0200C05E0200E05E02004C
:104080001871FF1F70B504460D4696B0803010F0D1
:1040900067F96319012283F8F0210F2D00F23F81A7
:1040A000DFE815F0240040005C00780094009D00DB
:1040B000A600AF00F100CB00DE00B8002A01040129
:1040C00017011000B9492046FDF7EAFBB84BB94883
:1040D0001B681293129B03F5FA63C4F8283204F5A7
:1040E000C071042208F0D2FF16B070BDB24B1A683E
:1040F000511E012940F2D0810A2A00F0CD812046CC
:10410000AE49FDF7CDFBAA4BAA481B680293029B60
:1041100003F5FA63C4F8283204F5C071002208F0F0
:10412000DBFFE1E7A44B1A68511E012940F2C08170
:104130000B2A00F0BD812046A149FDF7B1FB9C4B45
:104140009C481B680193019B03F5FA63C4F828326D
:1041500004F5C071012208F0BFFFC5E7964B1B684C
:10416000012B00F06C81083B012B40F26881204656
:104170009449FDF795FB8E4B8E481B680493049B76
:1041800003F5FA63C4F8283204F5C071022208F07E
:10419000A3FFA9E7884B1B68012B00F06881083B4F
:1041A000012B40F2648120468749FDF779FB804B63
:1041B00080481B680693069B03F5FA63C4F828320F
:1041C00004F5C071032208F087FF8DE77F4B1B7851
:1041D000002B00F01A81A3690120984784E77B4BEC
:1041E0001B78002B00F00481A369022098477BE72D
:1041F000764B1B78002B00F01581A36903209847AC
:1042000072E7724B1B78002B00F0C280A369042078
:10421000984769E720466E49FDF742FB644B6548C5
:104220001B680E930E9B03F5FA63C4F8283204F55D
:10423000C071032208F070FF56E720466549FDF77C
:104240002FFB5B4B5B481B680C930C9B03F5FA63DD
:10425000C4F8283204F5C071012208F05DFF43E77D
:1042600020465D49FDF71CFB514B52481B680D93DE
:104270000D9B03F5FA63C4F8283204F5C0710222DD
:1042800008F04AFF30E720465449FDF709FB484B48
:1042900048481B680B930B9B03F5FA63C4F828325C
:1042A00004F5C071002208F037FF1DE720464C4995
:1042B000FDF7F6FA3E4B3F481B681093109B03F541
:1042C000FA63C4F8283204F5C071022208F0DEFE59
:1042D0000AE720464349FDF7E3FA354B35481B68AA
:1042E0001193119B03F5FA63C4F8283204F5C071E9
:1042F000032208F0CBFEF7E620463B49FDF7D0FA53
:104300002B4B2C481B680F930F9B03F5FA63C4F8E3
:10431000283204F5C071012208F0B8FEE4E60F2D42
:104320007FF6E2AE05F00F06314601222046FFF788
:10433000FDFA94F83032AB42636A88BF84F8305299
:1043400013B1A5F1100098471B4B1B68013B0C2BC8
:1043500000F2EC8001A252F823F000BFB544000047
:10436000C7440000FB44000023450000194500003D
:104370002D4500000F450000B54400000545000034
:10438000DB440000E9400000D1440000F14400009B
:1043900016492046FDF784FA054B1B680A930A9BD1
:1043A00003F5FA63C4F8283230E700BF0C6002005E
:1043B000D094002008310020BC6FFF1F205F020056
:1043C000145F0200485F0200745F02000167002072
:1043D000E05F0200C85F0200D45F0200BC5F020021
:1043E000F45F020000600200EC5F0200B05F0200B8
:1043F00061492046FDF754FA604B1B680893089BFF
:1044000003F5FA63C4F82832EEE65D492046FDF76D
:1044100047FA5A4B1B680793079B03F5FA63C4F8E6
:104420002832D8E657492046FDF73AFA534B1B6825
:104430000993099B03F5FA63C4F82832DDE6524A72
:1044400052491378002083F0010313700870002B89
:1044500000F08D804E492046FDF722FA474B1B683D
:104460000393039B03F5FA63C4F828323CE6474BF9
:104470001A78002A72D0444D4649002220462A70FC
:104480001A70FDF70DFA3D4B1B680593059B03F56C
:10449000FA63C4F8283227E60B2220461A60FDF79B
:1044A00065FC2046FDF712FD012384F814321BE65B
:1044B0000A22F2E7344B384A1B784FF0FF31116083
:1044C000002B7FF411AE29462046FCF717FC0BE6C3
:1044D00029462046FDF7DCFE06E629462046FCF785
:1044E0000DFC264B1B681393139BC4F8D030FBE5DF
:1044F00029462046FEF776FBF6E529462046FCF7DE
:10450000EBFFF1E529462046FDF7A0FBECE5294647
:104510002046FCF797FBE7E529462046FCF764FBBD
:10452000E2E529462046FCF731FBDDE52946204639
:10453000FCF7B6FB31462046FDF71EFA0F4B1A6812
:104540001592159A1B681493149B02F5FA6203F5F1
:10455000FA63C4F82C22C4F82832C5E50A480F498A
:104560000270012220461A70FDF79AF98BE70C4978
:104570002046FDF795F971E7905F0200D094002086
:10458000805F0200A05F020001670020006700203A
:104590002C5F0200545F0200B86FFF1F645F0200CF
:1045A0003C5F0200F8B5344C2368DB07054646D56E
:1045B000324E15F09FF93368304A984234D900F5ED
:1045C000EA4395F8741130331360002947D105F19F
:1045D000800738460FF04CFF18B3EB6B002B24DD3F
:1045E0000026344605E00134EB6BE4B29C422646DB
:1045F0001BDA214638460FF071FE2E4430B196F892
:10460000F031214628460BB9FFF73CFD21463846DC
:104610000FF074FE0028E6D021462846FFF7DAF9AD
:10462000E1E795F875311BB9F8BD012385F87531BF
:10463000384610F005F8002385F87531F8BD20469E
:1046400014F07EFE0028B3D015F054F90B4E00F59F
:10465000EA4330332046336014F078FEA9E7014680
:1046600005F180072846FCF755FA38460FF000FFA1
:104670000028D6D0B1E700BF887CFF1FB87CFF1FA1
:1046800010B500230360436083600446162104488C
:1046900016F0E0F9034814F0A5F8204610BD00BF5D
:1046A0001C6002001871FF1F38B505461A210F481B
:1046B00016F0D0F92C6864B1A36A2B6020462C2137
:1046C00014F080FE2C680A48042116F0C3F9002C6F
:1046D000F2D100232B606B60AB600421054816F01B
:1046E000B9F9054814F07EF8284638BD3460020058
:1046F00058600200506002001871FF1F38B505466F
:1047000015210F4816F0A6F92C6864B1A36A2B6036
:1047100020462C2114F056FE2C680A48042116F07D
:1047200099F9002CF2D100232B606B60AB6004215F
:10473000054816F08FF90548BDE8384014F052B826
:104740006060020058600200506002001871FF1F94
:1047500038B52E4C05460A212D4816F07BF9204627
:1047600014F040F80E212B4816F074F96B682046BF
:10477000196814F087F80B21274816F06BF96B685D
:104780000A2219792046002314F03CF8204614F040
:1047900029F80821214816F05DF96B682046D96890
:1047A00014F070F807211E4816F054F96B68D869A8
:1047B0001AF086FA41EC100B2046022114F06CF836
:1047C0000B21184816F046F96B680A2293F820105E
:1047D0002046002314F016F81621134816F03AF973
:1047E0006B682046597A14F04DF80E210F4816F0E8
:1047F00031F96B68204693F824100A22002314F044
:1048000001F82046BDE8384013F0ECBF1871FF1FD7
:10481000786002008460020094600200A0600200E0
:10482000AC600200B4600200C0600200D860020008
:1048300038B54368002B6BD09A6A934204460D4604
:1048400018BF012066D0A36823B1226812B19B6A09
:104850009A4274D06368444A1B68934202DC013375
:104860002DD038BD2A4641494148FDF747FE312148
:10487000404816F0EFF828461BF082FE0146284615
:1048800016F0E8F83C4813F0ADFF07213B4816F05E
:10489000E1F86168384813F0F5FF0E21384816F04A
:1048A000D9F863683448196813F0ECFF324813F004
:1048B00099FF63681B6801334FF00000D1D12A468D
:1048C00030492B48FDF71AFE34212F4816F0C2F864
:1048D00028461BF055FE0146284616F0BBF8264830
:1048E00013F080FF0721254816F0B4F861682248CC
:1048F00013F0C8FF0E21224816F0ACF863681E487A
:10490000196813F0BFFF1C4813F06CFF002038BD7E
:10491000012038BD0A4616481C49FDF7EFFD262147
:104920001B4816F097F828461BF02AFE0146284639
:1049300016F090F8104813F055FF002083E72A4640
:1049400014490B48FDF7DAFD3921134816F082F8B7
:1049500028461BF015FE0146284616F07BF806484F
:1049600013F040FF002075E7809698006C6102000C
:10497000CC2E0020846102001871FF1FB861020074
:10498000C0610200D0610200E8610200E86002003C
:10499000F860020020610200306102000368436099
:1049A000704700BF10B544680CB1206810BD0349C2
:1049B0000348FCF775FD204610BD00BF20620200D1
:1049C000CC2E002010B544680CB1207910BD0349ED
:1049D0000348FCF765FD204610BD00BF34620200AD
:1049E000CC2E00202DE9F0418846002707700646AE
:1049F0001121144816F02EF8D8F80440ECB1083410
:104A00000FCC35460FC594E80F0085E80F0071689C
:104A10000D4813F037FF08210C4816F01BF8D8F8A2
:104A20000430094819790A223B4613F0EBFE064888
:104A300013F0D8FE3046BDE8F08105490548FCF783
:104A40002FFDF7E7486202001871FF1FB87C0200D3
:104A50005C620200CC2E00204068003018BF0120AC
:104A6000704700BF70B5044616213648666815F0D9
:104A7000F1FF354813F0B6FE0721344815F0EAFF80
:104A80006168314813F0FEFE0821314815F0E2FF5D
:104A900021682D4813F0F6FE08212E4815F0DAFFA4
:104AA000A168294813F0EEFE23686360642538E0AE
:104AB00013F098FE0E21284815F0CCFF63682248B9
:104AC000196813F0DFFE0D21244815F0C3FF61685B
:104AD0001D48083113F0D6FE0921214815F0BAFF10
:104AE00063681948197913F0CDFE0B211D4815F0A4
:104AF000B1FF6168144813F0C5FE08211A4815F08B
:104B0000A9FF63681048996A13F0BCFE1749204654
:104B1000FFF78EFE40B1204600F0C6F8013D08D0F8
:104B200063680948002BC3D1074813F05BFE666039
:104B300070BD0F490F48FCF7B3FC034813F052FE59
:104B4000666070BD746202001871FF1FB8610200D8
:104B50008C62020098620200C0610200A46202003E
:104B6000B4620200C0620200CC620200D86202009D
:104B7000E0620200CC2E0020036810B504466BB141
:104B80004268934204BF002242609A6A8AB10021BF
:104B90000260996218462C2114F014FC0A49204640
:104BA000FFF746FE00B110BD2046BDE81040FFF7FC
:104BB00059BF81688B4208BF82602C21184614F0CF
:104BC00001FC00232360E9E7F062020038B50368C6
:104BD000044673B11A6891420D4603DC0AE01A6874
:104BE000AA4207DA2046FFF7C7FF23686360002B5D
:104BF000F5D10023636005492046FFF719FE00B197
:104C000038BD2046BDE83840FFF72CBF00630200E6
:104C100082B02DE9F04106AC074644F8043F0D464A
:104C20001E481421904615F015FF214600230A2244
:104C30001B4813F0E7FD1A4813F0D4FD2C2014F0A4
:104C4000BDFB2C22002106461AF0ACFF0FCCB06051
:104C5000F160326173610FCCBC68356086F8048006
:104C6000B061F1613262736214B1A64218BFA662EC
:104C70007B68BE607BB13B685BB10A493846FFF791
:104C8000D7FD10B93846FFF7EDFEBDE8F04102B0A0
:104C900070473E60F1E77E60EDE700BF2C630200E5
:104CA0001871FF1F44630200436810B5044673B1D6
:104CB0009A6A934213D062600C492046FFF7B8FD10
:104CC00000B110BD2046BDE81040FFF7CBBE192152
:104CD000074815F0BFFE074813F084FDECE70649CE
:104CE0000648FCF7DDFB63689A6AE4E7806302002C
:104CF000646302001871FF1F50630200CC2E002075
:104D000070B590E8480005460024436006E0013491
:104D1000FFF7CAFFB4F57A7F06D06B682846002BF0
:104D2000F5D16E60204670BD03490448FCF7B8FB1E
:104D30006E60204670BD00BF88630200CC2E00204C
:104D40000022026042608260704700BF38B50446AE
:104D50001721094815F07EFE23685BB10025DA684B
:104D600022601846DD6010219D6014F02BFB236843
:104D7000002BF4D1204638BD9863020038B5436853
:104D800004460D4683B1DA68934218BF012036D03D
:104D90009A689A4248D0E3682BB1DA68934219D0F6
:104DA0009A689A4202D038BD0120F4E72849294880
:104DB000FCF776FB1F21284815F04CFE274813F01E
:104DC00011FD28461BF0DCFB0146284615F042FE8B
:104DD0000020E8E722491F48FCF762FB2B2121480D
:104DE00015F038FE28461BF0CBFB0146284615F08F
:104DF00031FE1A4813F0F6FCE3680020D0E71A49A8
:104E00001448FCF74DFB2321184815F023FE2846D3
:104E10001BF0B6FB0146284615F01CFE0F4813F0A8
:104E2000E1FC63680020B3E711490A48FCF738FB4E
:104E30001721104815F00EFE084813F0D3FC284641
:104E40001BF09EFB0146284615F004FE0020A2E759
:104E50004C640200CC2E0020606402001871FF1F19
:104E60000C64020020640200B0630200C063020010
:104E7000E4630200F463020010B507490446FFF73B
:104E80007DFF20B163680BB1DB68636010BD204615
:104E900000F004F8F6E700BF8063020038B5002197
:104EA0000446434815F0D6FD424813F09BFC0D2103
:104EB000414815F0CFFD3F4813F094FC07213F48CF
:104EC000656815F0C7FD21683A4813F0DBFC062140
:104ED0003B4815F0BFFD6168364813F0D3FC07214D
:104EE000384815F0B7FDA168324813F0CBFC0A2111
:104EF000354815F0AFFDE1682E4813F0C3FC2D488E
:104F000013F070FC204600F0DFF863682BB945E031
:104F1000FFF7B2FF6368002B40D005212B4815F046
:104F200099FD6368234819680A22002313F06AFC7C
:104F30000421274815F08EFD63681E4819790A225E
:104F4000002313F05FFC0421224815F083FD636801
:104F5000184859790A22002313F054FC05211E48F1
:104F600015F078FD6168134813F08CFC06211B488E
:104F700015F070FD63680F48D96813F083FC0D4885
:104F800013F030FC6368DA6893422046C0D11A21DE
:104F9000134815F05FFD074813F024FC0021044876
:104FA00015F058FD034813F01DFC656038BD00BFC7
:104FB000A85B02001871FF1F806402009064020069
:104FC00098640200A0640200A8640200B4640200B5
:104FD000BC640200C4640200CC640200D464020019
:104FE000DC64020038B50446C068002838D0606030
:104FF0002368834226D0A368834216D08568C3689D
:10500000EB60C36882689A60102114F0DBF9656078
:105010002B46E36014492046FFF7B0FE00B138BDCF
:105020002046BDE83840FFF739BF82681AB1826870
:1050300062600021D1601846102114F0C3F9636842
:10504000A360E6E7C268626062B10021916000225D
:10505000DA601846102114F0B5F963682360D8E7C8
:105060006068C5E7A260F2E7F86402002DE9F84342
:1050700004461020894690461F4614F09FF9A66802
:1050800000254560856080F80490C56080F8058043
:1050900007600EB1F06086606368A0607BB1236832
:1050A0005BB108492046FFF769FE08B1BDE8F88307
:1050B0002046BDE8F843FFF7F1BE2060F1E76060ED
:1050C000EDE700BF0465020010B505490446FFF78F
:1050D00055FE10B92046FFF7E1FE2368636010BD5E
:1050E0000C650200C3681879704700BFC36858791F
:1050F000704700BFC3681868704700BFC0680030C1
:1051000018BF0120704700BF10B505490446FFF7DE
:1051100035FE10B92046FFF7C1FE2368E36010BDDD
:105120001465020010B507490446FFF727FE20B1B9
:10513000E3680BB1DB68E36010BD2046FFF7AEFE0D
:10514000F6E700BF2065020070B511490546FFF77C
:1051500015FE90B128466E680024FFF7B5FF05E004
:105160000134FFF789FEB4F57A7F0AD06B682846D0
:10517000002BF5D16E60204670BD2846FFF78EFEED
:10518000E8E704490448FCF78BF96E60204670BDDF
:105190002C65020034650200CC2E002038B50A4D83
:1051A000002304460360436029464FF4A072083090
:1051B00013F0E4FF05F5A07104F5A4704FF48072BC
:1051C00013F0DCFF204638BD4465020010B490E8BF
:1051D0001800013400EB031394FBF1F202FB1141C0
:1051E0000B44416093F848015DF8044B704700BFE1
:1051F00010B490E8180094FBF1F200EB031302FBEB
:1052000011410B44416093F848015DF8044B70472D
:10521000436810B40468194400EB041091FBF2F3E6
:1052200003FB121250FA82F25DF8044B92F8480127
:10523000704700BF406801308842B4BF00200120A1
:10524000704700BF054B0B40002B01DB036070472C
:10525000013B63F00F030133036070470F000080D0
:10526000036803EB830300EB83000830704700BF43
:1052700000234360704700BF38B501250446056729
:1052800058220E497C3013F079FF0D4A84F86D5096
:105290000023157084F8D83084F8E03084F8E930C1
:1052A00084F8E830C4F8D430C4F8DC3084F8EA304C
:1052B000C4F8E4306367A367204638BD8467020002
:1052C000C87CFF1F2DE9F0418046064600F16007CB
:1052D000337D5BB13546002455F8040F013418B115
:1052E0001C2114F06FF8337DA342F5DC1836BE4262
:1052F000EED14046BDE8F08101EB410300EBC30372
:1053000080F8D810C0F8D4300120704710B5D0F81C
:10531000D44084B1227D8A420B46D8BF002304EBDF
:105320008304D8BF19466468C0F8DC404CB180F8EB
:10533000E010012010BD06490648FCF7B1F82046F0
:1053400010BD05490348FCF7ABF8204610BD00BF6F
:10535000DC670200CC2E0020F0670200F0B5D0F828
:10536000D430002483B080F8EA40002B42D00E46AF
:10537000054618212948174615F06CFB23460A22DA
:105380003146274813F03EFA254813F02BFA062F32
:105390000DD0082F09D1D5F8D4301B7DB3421CD0D5
:1053A00020482149FCF77CF8204603B0F0BDD5F831
:1053B000D4301A7DB24225DD03EB86035C683CB332
:1053C00095F8D83085F8E960012085F8EB7085F80C
:1053D000E83085F8EA0003B0F0BD95F8D82085F8EC
:1053E000E930012085F8EB7085F8E82085F8EA00BF
:1053F00003B0F0BD0B480D490193FCF751F8019B38
:105400001846D2E707480A49FCF74AF82046CCE795
:1054100004480849FCF744F82046C6E7186802002B
:105420001871FF1FCC2E002058680200046802008B
:10543000346802004468020090F8EA306BB110B59D
:10544000D0F8D44090F8D8204CB190F8E8309B1AAE
:10545000B3FA83F35B09184610BD18467047034939
:105460000348FCF71DF82346F5E700BF6868020013
:10547000CC2E00202DE9F04101EB410710EBC706CF
:105480005CD0D0F8D43015461A7DAA42044647DDD8
:1054900003EB85035E68002E49D088462B4818210F
:1054A00015F0D8FA00230A222946294813F0AAF950
:1054B0000A21284815F0CEFA414600230A22244842
:1054C00013F0A0F905EB470504EB85050124E6B2CE
:1054D0003146214807F02CFA314680461E4807F035
:1054E000D7F94346024607463146686800F062FF36
:1054F00008211A4815F0AEFA2146154813F0C2F9F2
:105500000A21174815F0A6FA0134394600230A2269
:105510000F4813F077F9032CD9D10120BDE8F081B1
:1055200010491148FBF7BCFF0020BDE8F0810F498E
:105530000D48FBF7B5FF3046BDE8F0810C490A483D
:10554000FBF7AEFF3046BDE8F08100BFB86802004F
:105550001871FF1FD468020008310020E0680200C3
:10556000EC68020090680200CC2E0020A4680200C3
:105570007C68020038B5044660B101EB410110EBD4
:10558000C1050DD002EB420014EBC0040ED06A75C9
:10559000012038BD08490948FBF782FF204638BD85
:1055A00007490648FBF77CFF284638BD05490348F4
:1055B000FBF776FF204638BDF8680200CC2E0020AD
:1055C0000C69020020690200D0F8D4300BB11960D8
:1055D000704780F8D8300346C0F8D400196070478F
:1055E000D0F8D41009B1087D704710B50246FFF716
:1055F00083FE044628B905490548FBF751FF2046BC
:1056000010BDD2F8D410087D10BD00BF346902006F
:10561000CC2E002090F8E000704700BFD0F8D410E6
:1056200070B5054631B30B7D032B1DD81C2013F03C
:10563000C5FE044600F0A6FED5F8D4301E1D2ED0BF
:10564000197D39B153F82100F0B100F035FFD5F8DC
:10565000D430197D03EB8102013154602046197565
:1056600000F09EFE204670BD12491348FBF718FF5C
:10567000002070BDFFF740FE044668B90F490E4890
:10568000FBF70EFF204670BD0D490B48FBF708FFE6
:10569000D5F8D430197DDDE7D5F8D410C3E7094932
:1056A0000548FBF7FDFE20461C2113F08BFE30461B
:1056B00070BD00BF58690200CC2E00208C6902002A
:1056C0007C690200686902002DE9F043044685B058
:1056D0001A4804F005F90E21194815F0BBF91948CC
:1056E00013F080F8D4F8DC0008B300F01FFFD4F802
:1056F000D430D4F8DC0093F8009094F8D85094F8A3
:10570000E46094F8E07000F05FFE8046D4F8DC00BE
:1057100000F05CFEC0B202904B468DE8800132463C
:1057200029460948FDF7E6FD05B0BDE8F0830749C5
:10573000054805B0BDE8F043FBF7B2BE04670020A2
:105740009C6902001871FF1FCC2E0020AC6902007A
:1057500070B5044633216F4815F07CF9D4F8DC00AD
:1057600000F032FE00230A2201466B4813F04AF88B
:1057700001216A4815F06EF9D4F8DC0000F026FE2D
:105780000146654813F07EF80921654815F062F975
:1057900000230A2294F8E0105F4813F033F8142134
:1057A000604815F057F9D4F8DC0000F08BFE0023B8
:1057B00001460A22584813F025F8574813F012F80A
:1057C000D4F8DC30002B00F09080D4F8D450002DB9
:1057D00000F08680184600F077FE054678B3192160
:1057E000514815F037F9D4F8DC0000F06BFE1021B9
:1057F00006464E4815F02EF9002331460A22464847
:1058000013F000F8D4F8D4301B7DB34224D9212101
:10581000474815F01FF9D4F8D43084F8E06003EB62
:1058200086067068C4F8DC0000F048FE212141487B
:1058300015F010F9384812F0D5FF284670BDD4F89D
:10584000DC0000F06FFE3D213B4815F003F93248C3
:1058500012F0C8FF284670BD1821384815F0FAF834
:10586000D4F8D430D4F8E4201B689A4224DB102109
:10587000334815F0EFF8D4F8D4305E7DFF2E3AD0DF
:1058800006EB4606132104EBC6062E4815F0E2F897
:10589000C4F8D46015212C4815F0DCF8D4F8D430C5
:1058A000002284F8E0205868C4F8DC000123C4F822
:1058B000E43000F003FEB9E71A21244815F0CAF8D5
:1058C000002384F8E030D4F8D420D4F8E4305068D1
:1058D000C4F8DC000133C4F8E43000F0EFFDA5E7C4
:1058E0001B491C48FBF7DCFDB4E71B4919481D4662
:1058F000FBF7D6FDAEE70021184815F0ABF80648D7
:1059000012F070FF1321164815F0A4F8236E984783
:105910008CE700BFC06902001871FF1FF469020024
:10592000F8690200046A0200446A0200606A020028
:10593000746A0200246B0200486B0200986A02003D
:10594000D06A0200E46A0200F86A0200B46A020047
:10595000306A0200CC2E00201C6A0200A85B020004
:10596000106B02002DE9F043D0F8D430044685B026
:10597000D0F8DC0093F8009094F8D86094F8E470C4
:1059800094F8E08000F020FD0546D4F8DC0000F03B
:105990001DFDC0B202904B46CDF800803A4631461C
:1059A00001950348FDF7A6FC05B0BDE8F08300BFF4
:1059B000CC2E002010B514210446094815F04AF8F1
:1059C000084812F00FFFD4F8DC0018B1BDE8104011
:1059D00000F0ACBD04490548BDE81040FBF760BDD0
:1059E000886B02001871FF1FA06B0200CC2E0020F4
:1059F00003460022C3F8D40080F8D82048B140689C
:105A000083F8E0200122C3F8DC00C3F8E42000F0B2
:105A100055BD02490248FBF743BD00BFB46B02000D
:105A2000CC2E002070B5504E504D0166044600F15A
:105A3000150132602B607530FF2200230A7001F8D7
:105A4000013C41F8153C18318142F7D12046FFF75F
:105A5000E5FD054690B100231A46012100F0AAFC9D
:105A600000231A460221284600F0A4FC0121284602
:105A700000F018FD2846022100F0F2FC2046FFF756
:105A8000CDFD054690B101221146002300F092FCA5
:105A9000002301220221284600F08CFC0121284627
:105AA00000F000FD2846022100F0DAFC2046FFF756
:105AB000B5FD054690B100230222012100F07AFCD9
:105AC000022211460023284600F074FC01212846DA
:105AD00000F0E8FC2846022100F0C2FC012120462B
